BL51 BANKED LINKER/LOCATER V6.22                                                        05/06/2023  16:56:16  PAGE 1


BL51 BANKED LINKER/LOCATER V6.22, INVOKED BY:
D:\KEIL_V5\C51\BIN\BL51.EXE ..\obj\gui.obj, ..\obj\main.obj, ..\obj\test.obj, ..\obj\sys.obj, ..\obj\LCD.obj, ..\obj\ctp
>> iic.obj, ..\obj\ft6336.obj, ..\obj\touch.obj, ..\obj\SPI.obj TO ..\obj\ceshi PRINT (.\ceshi.m51) RAMSIZE (256) DISABL
>> EWARNING (16)


MEMORY MODEL: LARGE


INPUT MODULES INCLUDED:
  ..\obj\gui.obj (GUI)
  ..\obj\main.obj (MAIN)
  ..\obj\test.obj (TEST)
  ..\obj\sys.obj (SYS)
  ..\obj\LCD.obj (LCD)
  ..\obj\ctpiic.obj (CTPIIC)
  ..\obj\ft6336.obj (FT6336)
  ..\obj\touch.obj (TOUCH)
  ..\obj\SPI.obj (SPI)
  D:\KEIL_V5\C51\LIB\C51L.LIB (?C_STARTUP)
  D:\KEIL_V5\C51\LIB\C51L.LIB (?C?COPY)
  D:\KEIL_V5\C51\LIB\C51L.LIB (?C?CLDPTR)
  D:\KEIL_V5\C51\LIB\C51L.LIB (?C?CLDOPTR)
  D:\KEIL_V5\C51\LIB\C51L.LIB (?C?CSTOPTR)
  D:\KEIL_V5\C51\LIB\C51L.LIB (?C?IMUL)
  D:\KEIL_V5\C51\LIB\C51L.LIB (?C?SIDIV)
  D:\KEIL_V5\C51\LIB\C51L.LIB (?C?IILDX)
  D:\KEIL_V5\C51\LIB\C51L.LIB (?C?ILDPTR)
  D:\KEIL_V5\C51\LIB\C51L.LIB (?C?ISTPTR)
  D:\KEIL_V5\C51\LIB\C51L.LIB (?C?LMUL)
  D:\KEIL_V5\C51\LIB\C51L.LIB (?C?ULDIV)
  D:\KEIL_V5\C51\LIB\C51L.LIB (?C?SLDIV)
  D:\KEIL_V5\C51\LIB\C51L.LIB (?C?LSTXDATA)
  D:\KEIL_V5\C51\LIB\C51L.LIB (?C?LSTKXDATA)
  D:\KEIL_V5\C51\LIB\C51L.LIB (?C?OFFXADD)
  D:\KEIL_V5\C51\LIB\C51L.LIB (?C?ICALL)
  D:\KEIL_V5\C51\LIB\C51L.LIB (PRINTF)
  D:\KEIL_V5\C51\LIB\C51L.LIB (RAND)
  D:\KEIL_V5\C51\LIB\C51L.LIB (?C?STRCPY)
  D:\KEIL_V5\C51\LIB\C51L.LIB (STRLEN)
  D:\KEIL_V5\C51\LIB\C51L.LIB (?C_INIT)
  D:\KEIL_V5\C51\LIB\C51L.LIB (?C?CSTPTR)
  D:\KEIL_V5\C51\LIB\C51L.LIB (?C?UIDIV)
  D:\KEIL_V5\C51\LIB\C51L.LIB (?C?LLDXDATA)
  D:\KEIL_V5\C51\LIB\C51L.LIB (?C?PLDIXDATA)
  D:\KEIL_V5\C51\LIB\C51L.LIB (?C?PSTXDATA)
  D:\KEIL_V5\C51\LIB\C51L.LIB (?C?CCASE)
  D:\KEIL_V5\C51\LIB\C51L.LIB (PUTCHAR)


LINK MAP OF MODULE:  ..\obj\ceshi (GUI)


            TYPE    BASE      LENGTH    RELOCATION   SEGMENT NAME
            -----------------------------------------------------

            * * * * * * *   D A T A   M E M O R Y   * * * * * * *
            REG     0000H     0008H     ABSOLUTE     "REG BANK 0"
BL51 BANKED LINKER/LOCATER V6.22                                                      05/06/2023  16:56:16  PAGE 2


            DATA    0008H     0005H     UNIT         _DATA_GROUP_
                    000DH     0013H                  *** GAP ***
            BIT     0020H.0   0001H.1   UNIT         _BIT_GROUP_
                    0021H.1   0000H.7                *** GAP ***
            IDATA   0022H     0001H     UNIT         ?STACK

            * * * * * * *  X D A T A   M E M O R Y  * * * * * * *
            XDATA   0000H     006CH     UNIT         _XDATA_GROUP_
            XDATA   006CH     001CH     UNIT         ?XD?TEST
            XDATA   0088H     0013H     UNIT         ?XD?LCD
            XDATA   009BH     000FH     UNIT         ?XD?TOUCH
            XDATA   00AAH     0008H     UNIT         ?XD?_FT6336_WR_REG?FT6336
            XDATA   00B2H     0005H     UNIT         ?XD?FT6336
            XDATA   00B7H     0004H     UNIT         ?XD?RAND?RAND

            * * * * * * *   C O D E   M E M O R Y   * * * * * * *
            CODE    0000H     0003H     ABSOLUTE     
            CODE    0003H     188AH     UNIT         ?CO?GUI
            CODE    188DH     1054H     UNIT         ?CO?TEST
            CODE    28E1H     06F0H     UNIT         ?PR?TOUCH_BUTTON_TEST?TEST
            CODE    2FD1H     0514H     UNIT         ?C?LIB_CODE
            CODE    34E5H     04FAH     UNIT         ?PR?_FILL_TRIANGEL?GUI
            CODE    39DFH     0365H     UNIT         ?PR?PRINTF?PRINTF
            CODE    3D44H     02ABH     UNIT         ?PR?_FILL_CIRCLE_HELPER?GUI
            CODE    3FEFH     02A1H     UNIT         ?PR?_SHOW_STR?GUI
            CODE    4290H     027CH     UNIT         ?PR?TEST_TRIANGLE?TEST
            CODE    450CH     0266H     UNIT         ?PR?TEST_DYNAMIC_NUM?TEST
            CODE    4772H     0255H     UNIT         ?PR?FT6336_SCAN?FT6336
            CODE    49C7H     0246H     UNIT         ?PR?_DRAW_CIRCLE_HELPER?GUI
            CODE    4C0DH     0243H     UNIT         ?PR?_GUI_DRAWFONT16?GUI
            CODE    4E50H     0243H     UNIT         ?PR?_GUI_DRAWFONT24?GUI
            CODE    5093H     0243H     UNIT         ?PR?_GUI_DRAWFONT32?GUI
            CODE    52D6H     0218H     UNIT         ?PR?_LCD_SHOWCHAR?GUI
            CODE    54EEH     020AH     UNIT         ?PR?_LCD_DRAWLINE2?GUI
            CODE    56F8H     01FEH     UNIT         ?PR?TEST_COLOR?TEST
            CODE    58F6H     01F6H     UNIT         ?PR?_GUI_CIRCLE?GUI
            CODE    5AECH     01F0H     UNIT         ?PR?_LCD_DRAWLINE?GUI
            CODE    5CDCH     01F0H     UNIT         ?PR?_LCD_DRAWROUNDRECTANGLE?GUI
            CODE    5ECCH     01E0H     UNIT         ?PR?TEST_FILLREC?TEST
            CODE    60ACH     018FH     UNIT         ?PR?TEST_READ?TEST
            CODE    623BH     0176H     UNIT         ?PR?TOUCH_PEN_TEST?TEST
            CODE    63B1H     016EH     UNIT         ?PR?LCD_INIT?LCD
            CODE    651FH     0157H     UNIT         ?PR?TEST_CIRCLE?TEST
            CODE    6676H     0151H     UNIT         ?PR?_LCD_FILLROUNDRECTANGLE?GUI
            CODE    67C7H     013DH     UNIT         ?PR?__DRAW_CIRCLE_8?GUI
            CODE    6904H     012DH     UNIT         ?PR?_LCD_FILL?GUI
            CODE    6A31H     0111H     UNIT         ?PR?_LCD_SHOWNUM?GUI
            CODE    6B42H     00D3H     UNIT         ?PR?_GUI_DRAWBMP16?GUI
            CODE    6C15H     00CFH     UNIT         ?PR?_DRAWTESTPAGE?TEST
            CODE    6CE4H     00CDH     UNIT         ?PR?ENGLISH_FONT_TEST?TEST
            CODE    6DB1H     00C8H     UNIT         ?PR?PIC_TEST?TEST
            CODE    6E79H     00C2H     UNIT         ?PR?_LCD_SHOWSTRING?GUI
            CODE    6F3BH     00BFH     UNIT         ?PR?MAIN_TEST?TEST
            CODE    6FFAH     00BAH     UNIT         ?PR?CHINESE_FONT_TEST?TEST
            CODE    70B4H     00B5H     UNIT         ?PR?LCD_READ_ID?LCD
            CODE    7169H     00A5H     UNIT         ?PR?_LCD_DRAWRECTANGLE?GUI
            CODE    720EH     00A2H     UNIT         ?PR?_LCD_CLEAR?LCD
BL51 BANKED LINKER/LOCATER V6.22                                                      05/06/2023  16:56:16  PAGE 3


            CODE    72B0H     00A0H     UNIT         ?PR?ROTATE_TEST?TEST
            CODE    7350H     0092H     UNIT         ?PR?_GUI_STRCENTER?GUI
            CODE    73E2H     0090H     UNIT         ?PR?_LCD_DIRECTION?LCD
            CODE    7472H     008CH     UNIT         ?C_C51STARTUP
            CODE    74FEH     0087H     UNIT         ?PR?FT6336_INIT?FT6336
            CODE    7585H     0075H     UNIT         ?PR?_FT6336_RD_REG?FT6336
            CODE    75FAH     0071H     UNIT         ?PR?_DRAW_TRIANGEL?GUI
            CODE    766BH     0070H     UNIT         ?PR?_FT6336_WR_REG?FT6336
            CODE    76DBH     0067H     UNIT         ?PR?_LCD_SETWINDOWS?LCD
            CODE    7742H     0057H     UNIT         ?PR?__SWAP?GUI
            CODE    7799H     004DH     UNIT         ?C_INITSEG
            CODE    77E6H     004DH     UNIT         ?PR?RAND?RAND
            CODE    7833H     004BH     UNIT         ?PR?_CTP_IIC_READ_BYTE?CTPIIC
            CODE    787EH     0049H     UNIT         ?PR?_MYPOW?GUI
            CODE    78C7H     0044H     UNIT         ?C?LDIV
            CODE    790BH     003DH     UNIT         ?PR?LCD_READDATA_16BIT?LCD
            CODE    7948H     003DH     UNIT         ?PR?_CTP_IIC_SEND_BYTE?CTPIIC
            CODE    7985H     0035H     UNIT         ?PR?SPI_READBYTE?SPI
            CODE    79BAH     0033H     UNIT         ?PR?_GUI_DRAWPOINT?GUI
            CODE    79EDH     0033H     UNIT         ?PR?CTP_IIC_WAIT_ACK?CTPIIC
            CODE    7A20H     002CH     UNIT         ?PR?_SPI_WRITEBYTE?SPI
            CODE    7A4CH     002AH     UNIT         ?PR?_LCD_DRAWPOINT?LCD
            CODE    7A76H     0029H     UNIT         ?PR?MAIN?MAIN
            CODE    7A9FH     0027H     UNIT         ?PR?PUTCHAR?PUTCHAR
            CODE    7AC6H     0025H     UNIT         ?PR?_LCD_DRAWFILLRECTANGLE?GUI
            CODE    7AEBH     0020H     UNIT         ?PR?_LCD_WR_DATA_16BIT?LCD
            CODE    7B0BH     001FH     UNIT         ?PR?_LCD_SETCURSOR?LCD
            CODE    7B2AH     001AH     UNIT         ?PR?TP_INIT?TOUCH
            CODE    7B44H     0016H     UNIT         ?PR?TOUCH_TEST?TEST
            CODE    7B5AH     0015H     UNIT         ?PR?LCD_RESET?LCD
            CODE    7B6FH     0015H     UNIT         ?PR?CTP_IIC_START?CTPIIC
            CODE    7B84H     0015H     UNIT         ?PR?CTP_IIC_STOP?CTPIIC
            CODE    7B99H     0015H     UNIT         ?PR?CTP_IIC_ACK?CTPIIC
            CODE    7BAEH     0015H     UNIT         ?PR?CTP_IIC_NACK?CTPIIC
            CODE    7BC3H     0015H     UNIT         ?PR?_STRLEN?STRLEN
            CODE    7BD8H     0011H     UNIT         ?PR?_DELAY_MS?SYS
            CODE    7BE9H     0011H     UNIT         ?PR?_DELAY_US?SYS
            CODE    7BFAH     0011H     UNIT         ?PR?CTP_IIC_INIT?CTPIIC
            CODE    7C0BH     0010H     UNIT         ?PR?_LCD_WRITEREG?LCD
            CODE    7C1BH     000DH     UNIT         ?PR?_LCD_WR_DATA?LCD
            CODE    7C28H     000AH     UNIT         ?PR?_LCD_WR_REG?LCD
            CODE    7C32H     000AH     UNIT         ?PR?LCD_RD_DATA?LCD
            CODE    7C3CH     0009H     UNIT         ?PR?LCD_WRITERAM_PREPARE?LCD
            CODE    7C45H     0009H     UNIT         ?PR?LCD_READRAM_PREPARE?LCD
            CODE    7C4EH     0009H     UNIT         ?PR?BL_GPIOINIT?LCD
            CODE    7C57H     0007H     UNIT         ?PR?_LCD_READREG?LCD
            CODE    7C5EH     0007H     UNIT         ?PR?_LCD_READPOINT?LCD
            CODE    7C65H     0007H     UNIT         ?PR?SPI_INIT?SPI
            CODE    7C6CH     0005H     UNIT         ?PR?CTP_DELAY?CTPIIC
            CODE    7C71H     0003H     UNIT         ?CO?LCD



OVERLAY MAP OF MODULE:   ..\obj\ceshi (GUI)


SEGMENT                                    BIT_GROUP          DATA_GROUP          XDATA_GROUP
BL51 BANKED LINKER/LOCATER V6.22                                                      05/06/2023  16:56:16  PAGE 4


  +--> CALLED SEGMENT                   START    LENGTH     START    LENGTH     START    LENGTH
-----------------------------------------------------------------------------------------------
?C_C51STARTUP                           -----    -----      -----    -----      -----    -----
  +--> ?PR?MAIN?MAIN
  +--> ?C_INITSEG

?PR?MAIN?MAIN                           -----    -----      -----    -----      -----    -----
  +--> ?PR?LCD_INIT?LCD
  +--> ?PR?MAIN_TEST?TEST
  +--> ?PR?TEST_READ?TEST
  +--> ?PR?TEST_COLOR?TEST
  +--> ?PR?TEST_FILLREC?TEST
  +--> ?PR?TEST_CIRCLE?TEST
  +--> ?PR?TEST_TRIANGLE?TEST
  +--> ?PR?ENGLISH_FONT_TEST?TEST
  +--> ?PR?CHINESE_FONT_TEST?TEST
  +--> ?PR?PIC_TEST?TEST
  +--> ?PR?TEST_DYNAMIC_NUM?TEST
  +--> ?PR?ROTATE_TEST?TEST
  +--> ?PR?TOUCH_TEST?TEST

?PR?LCD_INIT?LCD                        -----    -----      -----    -----      -----    -----
  +--> ?PR?SPI_INIT?SPI
  +--> ?PR?BL_GPIOINIT?LCD
  +--> ?PR?LCD_RESET?LCD
  +--> ?PR?_LCD_WR_REG?LCD
  +--> ?PR?_DELAY_MS?SYS
  +--> ?PR?_LCD_WR_DATA?LCD
  +--> ?PR?_LCD_DIRECTION?LCD
  +--> ?PR?_LCD_CLEAR?LCD

?PR?LCD_RESET?LCD                       -----    -----      -----    -----      -----    -----
  +--> ?PR?_DELAY_MS?SYS

?PR?_LCD_WR_REG?LCD                     -----    -----      -----    -----      -----    -----
  +--> ?PR?_SPI_WRITEBYTE?SPI

?PR?_LCD_WR_DATA?LCD                    -----    -----      -----    -----      -----    -----
  +--> ?PR?_SPI_WRITEBYTE?SPI

?PR?_LCD_DIRECTION?LCD                  -----    -----      -----    -----      -----    -----
  +--> ?PR?_LCD_WRITEREG?LCD

?PR?_LCD_WRITEREG?LCD                   -----    -----      -----    -----      000DH    0001H
  +--> ?PR?_LCD_WR_REG?LCD
  +--> ?PR?_LCD_WR_DATA?LCD

?PR?_LCD_CLEAR?LCD                      -----    -----      -----    -----      0033H    0006H
  +--> ?PR?_LCD_SETWINDOWS?LCD
  +--> ?PR?_SPI_WRITEBYTE?SPI

?PR?_LCD_SETWINDOWS?LCD                 -----    -----      -----    -----      0064H    0008H
  +--> ?PR?_LCD_WR_REG?LCD
  +--> ?PR?_LCD_WR_DATA?LCD
  +--> ?PR?LCD_WRITERAM_PREPARE?LCD

?PR?LCD_WRITERAM_PREPARE?LCD            -----    -----      -----    -----      -----    -----
BL51 BANKED LINKER/LOCATER V6.22                                                      05/06/2023  16:56:16  PAGE 5


  +--> ?PR?_LCD_WR_REG?LCD

?PR?MAIN_TEST?TEST                      -----    -----      -----    -----      -----    -----
  +--> ?CO?TEST
  +--> ?PR?_DRAWTESTPAGE?TEST
  +--> ?PR?_GUI_STRCENTER?GUI
  +--> ?PR?_DELAY_MS?SYS

?PR?_DRAWTESTPAGE?TEST                  -----    -----      -----    -----      0030H    0003H
  +--> ?PR?_LCD_CLEAR?LCD
  +--> ?PR?_LCD_FILL?GUI
  +--> ?PR?_GUI_STRCENTER?GUI
  +--> ?CO?TEST

?PR?_LCD_FILL?GUI                       -----    -----      -----    -----      0038H    0012H
  +--> ?PR?_LCD_SETWINDOWS?LCD
  +--> ?PR?_LCD_WR_DATA_16BIT?LCD

?PR?_LCD_WR_DATA_16BIT?LCD              -----    -----      -----    -----      0064H    0002H
  +--> ?PR?_SPI_WRITEBYTE?SPI

?PR?_GUI_STRCENTER?GUI                  -----    -----      -----    -----      0033H    000DH
  +--> ?PR?_STRLEN?STRLEN
  +--> ?PR?_SHOW_STR?GUI

?PR?_SHOW_STR?GUI                       -----    -----      -----    -----      0040H    0010H
  +--> ?PR?_LCD_SHOWCHAR?GUI
  +--> ?PR?_GUI_DRAWFONT32?GUI
  +--> ?PR?_GUI_DRAWFONT24?GUI
  +--> ?PR?_GUI_DRAWFONT16?GUI

?PR?_LCD_SHOWCHAR?GUI                   -----    -----      -----    -----      0050H    0010H
  +--> ?PR?_LCD_SETWINDOWS?LCD
  +--> ?CO?GUI
  +--> ?PR?_LCD_WR_DATA_16BIT?LCD
  +--> ?PR?_LCD_DRAWPOINT?LCD

?PR?_LCD_DRAWPOINT?LCD                  -----    -----      -----    -----      -----    -----
  +--> ?PR?_LCD_SETWINDOWS?LCD
  +--> ?PR?_LCD_WR_DATA_16BIT?LCD

?PR?_GUI_DRAWFONT32?GUI                 -----    -----      -----    -----      0050H    0014H
  +--> ?CO?GUI
  +--> ?PR?_LCD_SETWINDOWS?LCD
  +--> ?PR?_LCD_WR_DATA_16BIT?LCD
  +--> ?PR?_LCD_DRAWPOINT?LCD

?PR?_GUI_DRAWFONT24?GUI                 -----    -----      -----    -----      0050H    0014H
  +--> ?CO?GUI
  +--> ?PR?_LCD_SETWINDOWS?LCD
  +--> ?PR?_LCD_WR_DATA_16BIT?LCD
  +--> ?PR?_LCD_DRAWPOINT?LCD

?PR?_GUI_DRAWFONT16?GUI                 -----    -----      -----    -----      0050H    0014H
  +--> ?CO?GUI
  +--> ?PR?_LCD_SETWINDOWS?LCD
  +--> ?PR?_LCD_WR_DATA_16BIT?LCD
BL51 BANKED LINKER/LOCATER V6.22                                                      05/06/2023  16:56:16  PAGE 6


  +--> ?PR?_LCD_DRAWPOINT?LCD

?PR?TEST_READ?TEST                      -----    -----      -----    -----      0000H    0030H
  +--> ?CO?TEST
  +--> ?PR?_DRAWTESTPAGE?TEST
  +--> ?PR?LCD_READ_ID?LCD
  +--> ?PR?PRINTF?PRINTF
  +--> ?PR?_SHOW_STR?GUI
  +--> ?PR?_LCD_DRAWFILLRECTANGLE?GUI
  +--> ?PR?_LCD_READPOINT?LCD
  +--> ?PR?_DELAY_MS?SYS

?PR?LCD_READ_ID?LCD                     -----    -----      -----    -----      0030H    0004H
  +--> ?CO?LCD
  +--> ?PR?_LCD_WR_REG?LCD
  +--> ?PR?_LCD_WR_DATA?LCD
  +--> ?PR?_SPI_WRITEBYTE?SPI
  +--> ?PR?SPI_READBYTE?SPI

?PR?PRINTF?PRINTF                       0020H.0  0001H.1    0008H    0005H      0030H    0028H
  +--> ?PR?PUTCHAR?PUTCHAR

?PR?_LCD_DRAWFILLRECTANGLE?GUI          -----    -----      -----    -----      0030H    0008H
  +--> ?PR?_LCD_FILL?GUI

?PR?_LCD_READPOINT?LCD                  -----    -----      -----    -----      -----    -----
  +--> ?PR?_LCD_SETCURSOR?LCD
  +--> ?PR?LCD_READDATA_16BIT?LCD

?PR?_LCD_SETCURSOR?LCD                  -----    -----      -----    -----      -----    -----
  +--> ?PR?_LCD_SETWINDOWS?LCD

?PR?LCD_READDATA_16BIT?LCD              -----    -----      -----    -----      0030H    0002H
  +--> ?PR?_SPI_WRITEBYTE?SPI
  +--> ?PR?SPI_READBYTE?SPI

?PR?TEST_COLOR?TEST                     -----    -----      -----    -----      -----    -----
  +--> ?PR?_LCD_FILL?GUI
  +--> ?CO?TEST
  +--> ?PR?_SHOW_STR?GUI
  +--> ?PR?_DELAY_MS?SYS

?PR?TEST_FILLREC?TEST                   -----    -----      -----    -----      0000H    0001H
  +--> ?CO?TEST
  +--> ?PR?_DRAWTESTPAGE?TEST
  +--> ?PR?_LCD_FILL?GUI
  +--> ?PR?_LCD_DRAWRECTANGLE?GUI
  +--> ?PR?_DELAY_MS?SYS
  +--> ?PR?_LCD_DRAWFILLRECTANGLE?GUI

?PR?_LCD_DRAWRECTANGLE?GUI              -----    -----      -----    -----      0001H    0008H
  +--> ?PR?_LCD_DRAWLINE?GUI

?PR?_LCD_DRAWLINE?GUI                   -----    -----      -----    -----      001DH    001CH
  +--> ?PR?_LCD_DRAWPOINT?LCD

?PR?TEST_CIRCLE?TEST                    -----    -----      -----    -----      0000H    0001H
BL51 BANKED LINKER/LOCATER V6.22                                                      05/06/2023  16:56:16  PAGE 7


  +--> ?CO?TEST
  +--> ?PR?_DRAWTESTPAGE?TEST
  +--> ?PR?_LCD_FILL?GUI
  +--> ?PR?_GUI_CIRCLE?GUI
  +--> ?PR?_DELAY_MS?SYS

?PR?_GUI_CIRCLE?GUI                     -----    -----      -----    -----      0024H    0012H
  +--> ?PR?__DRAW_CIRCLE_8?GUI

?PR?__DRAW_CIRCLE_8?GUI                 -----    -----      -----    -----      0036H    000AH
  +--> ?PR?_GUI_DRAWPOINT?GUI

?PR?_GUI_DRAWPOINT?GUI                  -----    -----      -----    -----      0040H    0002H
  +--> ?PR?_LCD_SETCURSOR?LCD
  +--> ?PR?_LCD_WR_DATA_16BIT?LCD

?PR?TEST_TRIANGLE?TEST                  -----    -----      -----    -----      0000H    0001H
  +--> ?CO?TEST
  +--> ?PR?_DRAWTESTPAGE?TEST
  +--> ?PR?_LCD_FILL?GUI
  +--> ?PR?_DRAW_TRIANGEL?GUI
  +--> ?PR?_DELAY_MS?SYS
  +--> ?PR?_FILL_TRIANGEL?GUI

?PR?_DRAW_TRIANGEL?GUI                  -----    -----      -----    -----      0001H    000CH
  +--> ?PR?_LCD_DRAWLINE?GUI

?PR?_FILL_TRIANGEL?GUI                  -----    -----      -----    -----      0001H    0028H
  +--> ?PR?__SWAP?GUI
  +--> ?PR?_LCD_FILL?GUI

?PR?__SWAP?GUI                          -----    -----      -----    -----      0029H    0006H

?PR?ENGLISH_FONT_TEST?TEST              -----    -----      -----    -----      -----    -----
  +--> ?CO?TEST
  +--> ?PR?_DRAWTESTPAGE?TEST
  +--> ?PR?_LCD_SHOWSTRING?GUI
  +--> ?PR?_DELAY_MS?SYS

?PR?_LCD_SHOWSTRING?GUI                 -----    -----      -----    -----      0004H    0009H
  +--> ?PR?_LCD_SHOWCHAR?GUI

?PR?CHINESE_FONT_TEST?TEST              -----    -----      -----    -----      -----    -----
  +--> ?CO?TEST
  +--> ?PR?_DRAWTESTPAGE?TEST
  +--> ?PR?_SHOW_STR?GUI
  +--> ?PR?_DELAY_MS?SYS

?PR?PIC_TEST?TEST                       -----    -----      -----    -----      -----    -----
  +--> ?CO?TEST
  +--> ?PR?_DRAWTESTPAGE?TEST
  +--> ?PR?_GUI_DRAWBMP16?GUI
  +--> ?PR?_SHOW_STR?GUI
  +--> ?PR?_DELAY_MS?SYS

?PR?_GUI_DRAWBMP16?GUI                  -----    -----      -----    -----      000DH    000BH
  +--> ?PR?_LCD_SETWINDOWS?LCD
BL51 BANKED LINKER/LOCATER V6.22                                                      05/06/2023  16:56:16  PAGE 8


  +--> ?PR?_LCD_WR_DATA_16BIT?LCD

?PR?TEST_DYNAMIC_NUM?TEST               -----    -----      -----    -----      0000H    0001H
  +--> ?CO?TEST
  +--> ?PR?_DRAWTESTPAGE?TEST
  +--> ?PR?RAND?RAND
  +--> ?PR?_LCD_SHOWSTRING?GUI
  +--> ?PR?_LCD_SHOWNUM?GUI
  +--> ?PR?_DELAY_MS?SYS

?PR?_LCD_SHOWNUM?GUI                    -----    -----      -----    -----      0001H    000DH
  +--> ?PR?_MYPOW?GUI
  +--> ?PR?_LCD_SHOWCHAR?GUI

?PR?_MYPOW?GUI                          -----    -----      -----    -----      000EH    0006H

?PR?ROTATE_TEST?TEST                    -----    -----      -----    -----      0000H    000DH
  +--> ?CO?TEST
  +--> ?PR?_LCD_DIRECTION?LCD
  +--> ?PR?_DRAWTESTPAGE?TEST
  +--> ?PR?_SHOW_STR?GUI
  +--> ?PR?_GUI_DRAWBMP16?GUI
  +--> ?PR?_DELAY_MS?SYS

?PR?TOUCH_TEST?TEST                     -----    -----      -----    -----      -----    -----
  +--> ?PR?TOUCH_BUTTON_TEST?TEST
  +--> ?PR?TOUCH_PEN_TEST?TEST

?PR?TOUCH_BUTTON_TEST?TEST              -----    -----      -----    -----      -----    -----
  +--> ?CO?TEST
  +--> ?PR?_DRAWTESTPAGE?TEST
  +--> ?PR?_LCD_DRAWRECTANGLE?GUI
  +--> ?PR?_LCD_DRAWFILLRECTANGLE?GUI
  +--> ?PR?_LCD_SHOWSTRING?GUI
  +--> ?PR?_LCD_FILLROUNDRECTANGLE?GUI
  +--> ?PR?_GUI_CIRCLE?GUI
  +--> ?PR?_LCD_SHOWNUM?GUI
  +--> ?PR?_LCD_DRAWROUNDRECTANGLE?GUI
  +--> ?PR?_SHOW_STR?GUI

?PR?_LCD_FILLROUNDRECTANGLE?GUI         -----    -----      -----    -----      0000H    000AH
  +--> ?PR?_LCD_FILL?GUI
  +--> ?PR?_FILL_CIRCLE_HELPER?GUI

?PR?_FILL_CIRCLE_HELPER?GUI             -----    -----      -----    -----      000AH    0013H
  +--> ?PR?_LCD_DRAWLINE?GUI

?PR?_LCD_DRAWROUNDRECTANGLE?GUI         -----    -----      -----    -----      0000H    000AH
  +--> ?PR?_LCD_DRAWLINE?GUI
  +--> ?PR?_DRAW_CIRCLE_HELPER?GUI

?PR?_DRAW_CIRCLE_HELPER?GUI             -----    -----      -----    -----      000AH    0011H
  +--> ?PR?_LCD_DRAWPOINT?LCD

?PR?TOUCH_PEN_TEST?TEST                 -----    -----      -----    -----      0000H    0004H
  +--> ?CO?TEST
  +--> ?PR?_DRAWTESTPAGE?TEST
BL51 BANKED LINKER/LOCATER V6.22                                                      05/06/2023  16:56:16  PAGE 9


  +--> ?PR?_LCD_SHOWSTRING?GUI
  +--> ?PR?_LCD_DRAWLINE2?GUI

?PR?_LCD_DRAWLINE2?GUI                  -----    -----      -----    -----      0004H    0020H
  +--> ?PR?_GUI_CIRCLE?GUI

?C_INITSEG                              -----    -----      -----    -----      -----    -----
  +--> ?PR?TP_INIT?TOUCH

?PR?TP_INIT?TOUCH                       -----    -----      -----    -----      -----    -----
  +--> ?PR?FT6336_INIT?FT6336
  +--> ?PR?FT6336_SCAN?FT6336

?PR?FT6336_INIT?FT6336                  -----    -----      -----    -----      0000H    0002H
  +--> ?PR?CTP_IIC_INIT?CTPIIC
  +--> ?PR?_DELAY_MS?SYS
  +--> ?PR?_FT6336_RD_REG?FT6336

?PR?_FT6336_RD_REG?FT6336               -----    -----      -----    -----      0007H    0007H
  +--> ?PR?CTP_IIC_START?CTPIIC
  +--> ?PR?_CTP_IIC_SEND_BYTE?CTPIIC
  +--> ?PR?CTP_IIC_WAIT_ACK?CTPIIC
  +--> ?PR?_CTP_IIC_READ_BYTE?CTPIIC
  +--> ?PR?CTP_IIC_STOP?CTPIIC

?PR?CTP_IIC_START?CTPIIC                -----    -----      -----    -----      -----    -----
  +--> ?PR?CTP_DELAY?CTPIIC

?PR?CTP_DELAY?CTPIIC                    -----    -----      -----    -----      -----    -----
  +--> ?PR?_DELAY_US?SYS

?PR?_CTP_IIC_SEND_BYTE?CTPIIC           -----    -----      -----    -----      000EH    0002H
  +--> ?PR?CTP_DELAY?CTPIIC

?PR?CTP_IIC_WAIT_ACK?CTPIIC             -----    -----      -----    -----      000EH    0001H
  +--> ?PR?_DELAY_US?SYS
  +--> ?PR?CTP_IIC_STOP?CTPIIC

?PR?CTP_IIC_STOP?CTPIIC                 -----    -----      -----    -----      -----    -----
  +--> ?PR?CTP_DELAY?CTPIIC

?PR?_CTP_IIC_READ_BYTE?CTPIIC           -----    -----      -----    -----      000EH    0003H
  +--> ?PR?_DELAY_US?SYS
  +--> ?PR?CTP_IIC_NACK?CTPIIC
  +--> ?PR?CTP_IIC_ACK?CTPIIC

?PR?CTP_IIC_NACK?CTPIIC                 -----    -----      -----    -----      -----    -----
  +--> ?PR?CTP_DELAY?CTPIIC

?PR?CTP_IIC_ACK?CTPIIC                  -----    -----      -----    -----      -----    -----
  +--> ?PR?CTP_DELAY?CTPIIC

?PR?FT6336_SCAN?FT6336                  -----    -----      -----    -----      0000H    0007H
  +--> ?PR?_FT6336_RD_REG?FT6336



BL51 BANKED LINKER/LOCATER V6.22                                                      05/06/2023  16:56:16  PAGE 10


SYMBOL TABLE OF MODULE:  ..\obj\ceshi (GUI)

  VALUE           TYPE          NAME
  ----------------------------------

  -------         MODULE        GUI
  C:0000H         SYMBOL        _ICE_DUMMY_
  C:67E5H         PUBLIC        __draw_circle_8
  D:0090H         PUBLIC        P1
  C:54EEH         PUBLIC        _LCD_DrawLine2
  D:00B0H         PUBLIC        P3
  C:3D44H         PUBLIC        _Fill_Circle_Helper
  C:6A31H         PUBLIC        _LCD_ShowNum
  C:49CBH         PUBLIC        _Draw_Circle_Helper
  C:1685H         PUBLIC        tfont32
  C:147FH         PUBLIC        tfont24
  C:0003H         PUBLIC        asc2_1206
  C:0A67H         PUBLIC        tfont16
  C:0477H         PUBLIC        asc2_1608
  C:7756H         SYMBOL        __swap
  C:58F6H         PUBLIC        _gui_circle
  C:34E5H         PUBLIC        _Fill_Triangel
  C:7350H         PUBLIC        _Gui_StrCenter
  C:75FAH         PUBLIC        _Draw_Triangel
  C:6938H         PUBLIC        _LCD_Fill
  C:3FEFH         PUBLIC        _Show_Str
  C:787EH         PUBLIC        _mypow
  C:6B42H         PUBLIC        _Gui_Drawbmp16
  C:5AF1H         PUBLIC        _LCD_DrawLine
  C:6E79H         PUBLIC        _LCD_ShowString
  C:5093H         PUBLIC        _GUI_DrawFont32
  C:4E50H         PUBLIC        _GUI_DrawFont24
  C:4C0DH         PUBLIC        _GUI_DrawFont16
  C:52E7H         PUBLIC        _LCD_ShowChar
  C:7169H         PUBLIC        _LCD_DrawRectangle
  C:79D7H         PUBLIC        _GUI_DrawPoint
  C:6676H         PUBLIC        _LCD_FillRoundRectangle
  C:7AC6H         PUBLIC        _LCD_DrawFillRectangle
  C:5CDCH         PUBLIC        _LCD_DrawRoundRectangle
  C:79BDH         SYMBOL        L?0260
  C:79BEH         SYMBOL        L?0261
  C:79CEH         SYMBOL        L?0262
  -------         PROC          L?0259
  -------         ENDPROC       L?0259
  C:79BDH         SYMBOL        L?0260
  C:79BEH         SYMBOL        L?0261
  C:79CEH         SYMBOL        L?0262
  -------         PROC          _GUI_DRAWPOINT
  D:0006H         SYMBOL        x
  D:0004H         SYMBOL        y
  X:0040H         SYMBOL        color
  C:79D7H         LINE#         69
  C:79DFH         LINE#         70
  C:79DFH         LINE#         71
  C:79E2H         LINE#         72
  -------         ENDPROC       _GUI_DRAWPOINT
  -------         PROC          L?0263
BL51 BANKED LINKER/LOCATER V6.22                                                      05/06/2023  16:56:16  PAGE 11


  -------         ENDPROC       L?0263
  -------         PROC          _LCD_FILL
  X:0038H         SYMBOL        sx
  X:003AH         SYMBOL        sy
  D:0002H         SYMBOL        ex
  X:003EH         SYMBOL        ey
  X:0040H         SYMBOL        color
  -------         DO            
  X:0042H         SYMBOL        i
  X:0044H         SYMBOL        j
  X:0046H         SYMBOL        width
  X:0048H         SYMBOL        height
  -------         ENDDO         
  C:6938H         LINE#         86
  C:6946H         LINE#         87
  C:6946H         LINE#         89
  C:6961H         LINE#         90
  C:6982H         LINE#         91
  C:69A4H         LINE#         92
  C:69C0H         LINE#         93
  C:69C0H         LINE#         94
  C:69DCH         LINE#         95
  C:69F7H         LINE#         96
  C:6A07H         LINE#         97
  -------         ENDPROC       _LCD_FILL
  C:5AECH         SYMBOL        L?0269
  -------         PROC          L?0268
  -------         ENDPROC       L?0268
  C:5AECH         SYMBOL        L?0269
  -------         PROC          _LCD_DRAWLINE
  X:001DH         SYMBOL        x1
  X:001FH         SYMBOL        y1
  D:0002H         SYMBOL        x2
  X:0023H         SYMBOL        y2
  -------         DO            
  X:0025H         SYMBOL        t
  X:0027H         SYMBOL        xerr
  X:0029H         SYMBOL        yerr
  X:002BH         SYMBOL        delta_x
  X:002DH         SYMBOL        delta_y
  X:002FH         SYMBOL        distance
  X:0031H         SYMBOL        incx
  X:0033H         SYMBOL        incy
  X:0035H         SYMBOL        uRow
  X:0037H         SYMBOL        uCol
  -------         ENDDO         
  C:5AF1H         LINE#         110
  C:5AFFH         LINE#         111
  C:5AFFH         LINE#         113
  C:5B0AH         LINE#         116
  C:5B1FH         LINE#         117
  C:5B3AH         LINE#         118
  C:5B49H         LINE#         119
  C:5B4FH         LINE#         120
  C:5B6BH         LINE#         121
  C:5B77H         LINE#         122
  C:5B8CH         LINE#         123
BL51 BANKED LINKER/LOCATER V6.22                                                      05/06/2023  16:56:16  PAGE 12


  C:5BA8H         LINE#         124
  C:5BB4H         LINE#         125
  C:5BC9H         LINE#         126
  C:5BEFH         LINE#         127
  C:5BF4H         LINE#         128
  C:5C19H         LINE#         129
  C:5C19H         LINE#         130
  C:5C2AH         LINE#         131
  C:5C3EH         LINE#         132
  C:5C52H         LINE#         133
  C:5C6EH         LINE#         134
  C:5C6EH         LINE#         135
  C:5C7AH         LINE#         136
  C:5C8EH         LINE#         137
  C:5C8EH         LINE#         138
  C:5CAAH         LINE#         139
  C:5CAAH         LINE#         140
  C:5CB6H         LINE#         141
  C:5CCAH         LINE#         142
  C:5CCAH         LINE#         143
  C:5CDBH         LINE#         144
  -------         ENDPROC       _LCD_DRAWLINE
  -------         PROC          _LCD_DRAWLINE2
  X:0004H         SYMBOL        x1
  X:0006H         SYMBOL        y1
  D:0002H         SYMBOL        x2
  X:000AH         SYMBOL        y2
  X:000CH         SYMBOL        size
  X:000EH         SYMBOL        color
  -------         DO            
  X:0010H         SYMBOL        t
  X:0012H         SYMBOL        xerr
  X:0014H         SYMBOL        yerr
  X:0016H         SYMBOL        delta_x
  X:0018H         SYMBOL        delta_y
  X:001AH         SYMBOL        distance
  X:001CH         SYMBOL        incx
  X:001EH         SYMBOL        incy
  X:0020H         SYMBOL        uRow
  X:0022H         SYMBOL        uCol
  -------         ENDDO         
  C:54EEH         LINE#         158
  C:54FCH         LINE#         159
  C:54FCH         LINE#         161
  C:5507H         LINE#         164
  C:551CH         LINE#         165
  C:5537H         LINE#         166
  C:5546H         LINE#         167
  C:554CH         LINE#         168
  C:5568H         LINE#         169
  C:5574H         LINE#         170
  C:5589H         LINE#         171
  C:55A5H         LINE#         172
  C:55B1H         LINE#         173
  C:55C6H         LINE#         174
  C:55ECH         LINE#         175
  C:55F1H         LINE#         176
BL51 BANKED LINKER/LOCATER V6.22                                                      05/06/2023  16:56:16  PAGE 13


  C:5616H         LINE#         177
  C:5616H         LINE#         178
  C:5646H         LINE#         180
  C:565AH         LINE#         181
  C:566EH         LINE#         182
  C:568AH         LINE#         183
  C:568AH         LINE#         184
  C:5696H         LINE#         185
  C:56AAH         LINE#         186
  C:56AAH         LINE#         187
  C:56C6H         LINE#         188
  C:56C6H         LINE#         189
  C:56D2H         LINE#         190
  C:56E6H         LINE#         191
  C:56E6H         LINE#         192
  C:56F7H         LINE#         193
  -------         ENDPROC       _LCD_DRAWLINE2
  -------         PROC          _LCD_DRAWRECTANGLE
  X:0001H         SYMBOL        x1
  X:0003H         SYMBOL        y1
  X:0005H         SYMBOL        x2
  X:0007H         SYMBOL        y2
  C:7169H         LINE#         205
  C:717FH         LINE#         206
  C:717FH         LINE#         207
  C:719BH         LINE#         208
  C:71C2H         LINE#         209
  C:71E5H         LINE#         210
  -------         ENDPROC       _LCD_DRAWRECTANGLE
  -------         PROC          _LCD_DRAWFILLRECTANGLE
  D:0006H         SYMBOL        x1
  D:0004H         SYMBOL        y1
  D:0002H         SYMBOL        x2
  X:0036H         SYMBOL        y2
  C:7AC6H         LINE#         223
  C:7AC6H         LINE#         224
  C:7AC6H         LINE#         225
  -------         ENDPROC       _LCD_DRAWFILLRECTANGLE
  -------         PROC          L?0264
  -------         ENDPROC       L?0264
  -------         PROC          __DRAW_CIRCLE_8
  X:0036H         SYMBOL        xc
  X:0038H         SYMBOL        yc
  X:003AH         SYMBOL        x
  X:003CH         SYMBOL        y
  X:003EH         SYMBOL        c
  C:67E5H         LINE#         240
  C:67FDH         LINE#         241
  C:67FDH         LINE#         242
  C:6805H         LINE#         244
  C:6820H         LINE#         246
  C:684BH         LINE#         248
  C:6877H         LINE#         250
  C:688DH         LINE#         252
  C:68A4H         LINE#         254
  C:68CFH         LINE#         256
  -------         ENDPROC       __DRAW_CIRCLE_8
BL51 BANKED LINKER/LOCATER V6.22                                                      05/06/2023  16:56:16  PAGE 14


  -------         PROC          _GUI_CIRCLE
  X:0024H         SYMBOL        xc
  X:0026H         SYMBOL        yc
  X:0028H         SYMBOL        c
  X:002AH         SYMBOL        r
  X:002CH         SYMBOL        fill
  -------         DO            
  X:002EH         SYMBOL        x
  X:0030H         SYMBOL        y
  X:0032H         SYMBOL        yi
  X:0034H         SYMBOL        d
  -------         ENDDO         
  C:58F6H         LINE#         269
  C:590AH         LINE#         270
  C:590AH         LINE#         271
  C:5921H         LINE#         273
  C:5935H         LINE#         276
  C:5942H         LINE#         277
  C:5942H         LINE#         279
  C:5961H         LINE#         280
  C:5984H         LINE#         281
  C:59AFH         LINE#         283
  C:59BFH         LINE#         284
  C:59E0H         LINE#         285
  C:59E2H         LINE#         286
  C:5A17H         LINE#         287
  C:5A25H         LINE#         288
  C:5A25H         LINE#         289
  C:5A36H         LINE#         290
  C:5A39H         LINE#         291
  C:5A39H         LINE#         292
  C:5A39H         LINE#         294
  C:5A58H         LINE#         295
  C:5A64H         LINE#         296
  C:5A74H         LINE#         297
  C:5A95H         LINE#         298
  C:5A97H         LINE#         299
  C:5ACCH         LINE#         300
  C:5ADAH         LINE#         301
  C:5ADAH         LINE#         302
  C:5AE8H         LINE#         303
  C:5AEBH         LINE#         304
  C:5AEBH         LINE#         305
  -------         ENDPROC       _GUI_CIRCLE
  -------         PROC          L?0270
  -------         ENDPROC       L?0270
  -------         PROC          _DRAW_CIRCLE_HELPER
  X:000AH         SYMBOL        x0
  X:000CH         SYMBOL        y0
  D:0002H         SYMBOL        c
  X:0010H         SYMBOL        cn
  -------         DO            
  X:0011H         SYMBOL        f
  X:0013H         SYMBOL        ddF_x
  X:0015H         SYMBOL        ddF_y
  X:0017H         SYMBOL        x
  X:0019H         SYMBOL        y
BL51 BANKED LINKER/LOCATER V6.22                                                      05/06/2023  16:56:16  PAGE 15


  -------         ENDDO         
  C:49CBH         LINE#         307
  C:49D9H         LINE#         308
  C:49D9H         LINE#         309
  C:49E7H         LINE#         310
  C:49EFH         LINE#         311
  C:4A00H         LINE#         312
  C:4A05H         LINE#         313
  C:4A0DH         LINE#         314
  C:4A25H         LINE#         315
  C:4A25H         LINE#         316
  C:4A30H         LINE#         317
  C:4A30H         LINE#         318
  C:4A3EH         LINE#         319
  C:4A4CH         LINE#         320
  C:4A5DH         LINE#         321
  C:4A5DH         LINE#         322
  C:4A6BH         LINE#         323
  C:4A79H         LINE#         324
  C:4A8AH         LINE#         325
  C:4A91H         LINE#         326
  C:4A91H         LINE#         327
  C:4ABCH         LINE#         328
  C:4AE7H         LINE#         329
  C:4AE7H         LINE#         330
  C:4AEEH         LINE#         331
  C:4AEEH         LINE#         332
  C:4B1AH         LINE#         333
  C:4B46H         LINE#         334
  C:4B46H         LINE#         335
  C:4B4DH         LINE#         336
  C:4B4DH         LINE#         337
  C:4B79H         LINE#         338
  C:4BA5H         LINE#         339
  C:4BA5H         LINE#         340
  C:4BAFH         LINE#         341
  C:4BAFH         LINE#         342
  C:4BDCH         LINE#         343
  C:4C09H         LINE#         344
  C:4C09H         LINE#         345
  C:4C0CH         LINE#         346
  -------         ENDPROC       _DRAW_CIRCLE_HELPER
  -------         PROC          _FILL_CIRCLE_HELPER
  X:000AH         SYMBOL        x0
  X:000CH         SYMBOL        y0
  D:0002H         SYMBOL        c
  X:0010H         SYMBOL        cn
  X:0011H         SYMBOL        delta
  -------         DO            
  X:0013H         SYMBOL        f
  X:0015H         SYMBOL        ddF_x
  X:0017H         SYMBOL        ddF_y
  X:0019H         SYMBOL        x
  X:001BH         SYMBOL        y
  -------         ENDDO         
  C:3D44H         LINE#         348
  C:3D52H         LINE#         349
BL51 BANKED LINKER/LOCATER V6.22                                                      05/06/2023  16:56:16  PAGE 16


  C:3D52H         LINE#         350
  C:3D60H         LINE#         351
  C:3D68H         LINE#         352
  C:3D79H         LINE#         353
  C:3D7EH         LINE#         354
  C:3D86H         LINE#         356
  C:3D9EH         LINE#         357
  C:3D9EH         LINE#         358
  C:3DA9H         LINE#         359
  C:3DA9H         LINE#         360
  C:3DB7H         LINE#         361
  C:3DC5H         LINE#         362
  C:3DD6H         LINE#         363
  C:3DD6H         LINE#         364
  C:3DE4H         LINE#         365
  C:3DF2H         LINE#         366
  C:3E03H         LINE#         368
  C:3E0DH         LINE#         369
  C:3E0DH         LINE#         370
  C:3E81H         LINE#         371
  C:3EF5H         LINE#         372
  C:3EF5H         LINE#         373
  C:3EFFH         LINE#         374
  C:3EFFH         LINE#         375
  C:3F75H         LINE#         376
  C:3FEBH         LINE#         377
  C:3FEBH         LINE#         378
  C:3FEEH         LINE#         379
  -------         ENDPROC       _FILL_CIRCLE_HELPER
  -------         PROC          _LCD_DRAWROUNDRECTANGLE
  X:0000H         SYMBOL        x1
  X:0002H         SYMBOL        y1
  X:0004H         SYMBOL        x2
  X:0006H         SYMBOL        y2
  X:0008H         SYMBOL        c
  C:5CDCH         LINE#         381
  C:5CF0H         LINE#         382
  C:5CF0H         LINE#         383
  C:5D3BH         LINE#         384
  C:5D70H         LINE#         385
  C:5DB7H         LINE#         386
  C:5DECH         LINE#         387
  C:5E21H         LINE#         388
  C:5E57H         LINE#         389
  C:5E92H         LINE#         390
  -------         ENDPROC       _LCD_DRAWROUNDRECTANGLE
  -------         PROC          _LCD_FILLROUNDRECTANGLE
  X:0000H         SYMBOL        x1
  X:0002H         SYMBOL        y1
  X:0004H         SYMBOL        x2
  X:0006H         SYMBOL        y2
  X:0008H         SYMBOL        c
  C:6676H         LINE#         393
  C:668AH         LINE#         394
  C:668AH         LINE#         395
  C:66E6H         LINE#         396
  C:6757H         LINE#         397
BL51 BANKED LINKER/LOCATER V6.22                                                      05/06/2023  16:56:16  PAGE 17


  -------         ENDPROC       _LCD_FILLROUNDRECTANGLE
  -------         PROC          _DRAW_TRIANGEL
  X:0001H         SYMBOL        x0
  X:0003H         SYMBOL        y0
  X:0005H         SYMBOL        x1
  X:0007H         SYMBOL        y1
  X:0009H         SYMBOL        x2
  X:000BH         SYMBOL        y2
  C:75FAH         LINE#         412
  C:760EH         LINE#         413
  C:760EH         LINE#         414
  C:7622H         LINE#         415
  C:7643H         LINE#         416
  -------         ENDPROC       _DRAW_TRIANGEL
  -------         PROC          L?0267
  -------         ENDPROC       L?0267
  -------         PROC          __SWAP
  X:0029H         SYMBOL        a
  X:002CH         SYMBOL        b
  -------         DO            
  D:0006H         SYMBOL        tmp
  -------         ENDDO         
  C:7756H         LINE#         419
  C:7761H         LINE#         420
  C:7761H         LINE#         422
  C:7767H         LINE#         423
  C:7788H         LINE#         424
  -------         ENDPROC       __SWAP
  -------         PROC          _FILL_TRIANGEL
  X:0001H         SYMBOL        x0
  X:0003H         SYMBOL        y0
  X:0005H         SYMBOL        x1
  X:0007H         SYMBOL        y1
  X:0009H         SYMBOL        x2
  X:000BH         SYMBOL        y2
  -------         DO            
  X:000DH         SYMBOL        a
  X:000FH         SYMBOL        b
  X:0011H         SYMBOL        y
  X:0013H         SYMBOL        last
  X:0015H         SYMBOL        dx01
  X:0017H         SYMBOL        dy01
  X:0019H         SYMBOL        dx02
  X:001BH         SYMBOL        dy02
  X:001DH         SYMBOL        dx12
  X:001FH         SYMBOL        dy12
  X:0021H         SYMBOL        sa
  X:0025H         SYMBOL        sb
  -------         ENDDO         
  C:34E5H         LINE#         439
  C:34F9H         LINE#         440
  C:34F9H         LINE#         443
  C:3503H         LINE#         444
  C:350DH         LINE#         445
  C:3522H         LINE#         446
  C:3522H         LINE#         447
  C:3525H         LINE#         448
BL51 BANKED LINKER/LOCATER V6.22                                                      05/06/2023  16:56:16  PAGE 18


  C:353CH         LINE#         449
  C:353CH         LINE#         450
  C:3551H         LINE#         451
  C:3551H         LINE#         452
  C:3568H         LINE#         453
  C:357FH         LINE#         454
  C:357FH         LINE#         455
  C:3594H         LINE#         456
  C:3594H         LINE#         457
  C:3597H         LINE#         458
  C:35AEH         LINE#         459
  C:35AEH         LINE#         460
  C:35C8H         LINE#         461
  C:35C8H         LINE#         462
  C:35E0H         LINE#         463
  C:35F6H         LINE#         464
  C:35F6H         LINE#         465
  C:35FEH         LINE#         466
  C:3600H         LINE#         467
  C:360FH         LINE#         468
  C:360FH         LINE#         469
  C:361EH         LINE#         470
  C:361EH         LINE#         471
  C:3634H         LINE#         472
  C:3634H         LINE#         473
  C:363CH         LINE#         474
  C:363EH         LINE#         475
  C:364DH         LINE#         476
  C:364DH         LINE#         477
  C:365CH         LINE#         478
  C:365CH         LINE#         479
  C:368DH         LINE#         481
  C:368DH         LINE#         482
  C:36A8H         LINE#         483
  C:36C3H         LINE#         484
  C:36D6H         LINE#         485
  C:36F1H         LINE#         486
  C:370CH         LINE#         487
  C:3728H         LINE#         489
  C:3730H         LINE#         490
  C:3730H         LINE#         491
  C:373AH         LINE#         492
  C:373CH         LINE#         494
  C:373CH         LINE#         495
  C:3750H         LINE#         496
  C:3750H         LINE#         497
  C:3777H         LINE#         498
  C:3777H         LINE#         499
  C:37AAH         LINE#         500
  C:37DDH         LINE#         501
  C:380BH         LINE#         502
  C:3839H         LINE#         503
  C:384EH         LINE#         504
  C:384EH         LINE#         505
  C:3865H         LINE#         506
  C:3865H         LINE#         507
  C:3868H         LINE#         508
BL51 BANKED LINKER/LOCATER V6.22                                                      05/06/2023  16:56:16  PAGE 19


  C:3879H         LINE#         509
  C:38A3H         LINE#         510
  C:38C6H         LINE#         511
  C:38DEH         LINE#         512
  C:38DEH         LINE#         513
  C:390FH         LINE#         514
  C:3942H         LINE#         515
  C:3970H         LINE#         516
  C:399EH         LINE#         517
  C:39B3H         LINE#         518
  C:39B3H         LINE#         519
  C:39CAH         LINE#         520
  C:39CAH         LINE#         521
  C:39CDH         LINE#         522
  C:39DEH         LINE#         523
  -------         ENDPROC       _FILL_TRIANGEL
  C:52E2H         SYMBOL        L?0266
  -------         PROC          L?0265
  -------         ENDPROC       L?0265
  C:52E2H         SYMBOL        L?0266
  -------         PROC          _LCD_SHOWCHAR
  X:0050H         SYMBOL        x
  X:0052H         SYMBOL        y
  X:0054H         SYMBOL        fc
  X:0056H         SYMBOL        bc
  X:0058H         SYMBOL        num
  X:0059H         SYMBOL        size
  X:005AH         SYMBOL        mode
  -------         DO            
  X:005BH         SYMBOL        temp
  X:005CH         SYMBOL        pos
  X:005DH         SYMBOL        t
  X:005EH         SYMBOL        colortemp
  -------         ENDDO         
  C:52E7H         LINE#         538
  C:52FFH         LINE#         539
  C:52FFH         LINE#         542
  C:530EH         LINE#         544
  C:5315H         LINE#         545
  C:5353H         LINE#         546
  C:535CH         LINE#         547
  C:535CH         LINE#         549
  C:5371H         LINE#         550
  C:5371H         LINE#         551
  C:538CH         LINE#         552
  C:53B3H         LINE#         553
  C:53C7H         LINE#         554
  C:53C7H         LINE#         555
  C:53D3H         LINE#         556
  C:53DEH         LINE#         557
  C:53E5H         LINE#         559
  C:53EDH         LINE#         561
  C:53F6H         LINE#         562
  C:53F6H         LINE#         563
  C:53F6H         LINE#         564
  C:540CH         LINE#         565
  C:540CH         LINE#         566
BL51 BANKED LINKER/LOCATER V6.22                                                      05/06/2023  16:56:16  PAGE 20


  C:5427H         LINE#         567
  C:544EH         LINE#         568
  C:5463H         LINE#         569
  C:5463H         LINE#         570
  C:5472H         LINE#         571
  C:549DH         LINE#         572
  C:54A4H         LINE#         573
  C:54ACH         LINE#         574
  C:54B5H         LINE#         575
  C:54B5H         LINE#         576
  C:54C4H         LINE#         577
  -------         ENDPROC       _LCD_SHOWCHAR
  -------         PROC          _LCD_SHOWSTRING
  X:0004H         SYMBOL        x
  X:0006H         SYMBOL        y
  X:0008H         SYMBOL        size
  X:0009H         SYMBOL        p
  X:000CH         SYMBOL        mode
  C:6E79H         LINE#         591
  C:6E8AH         LINE#         592
  C:6E8AH         LINE#         593
  C:6EAAH         LINE#         594
  C:6EAAH         LINE#         595
  C:6EE2H         LINE#         597
  C:6F19H         LINE#         598
  C:6F2DH         LINE#         599
  C:6F37H         LINE#         600
  C:6F3AH         LINE#         601
  -------         ENDPROC       _LCD_SHOWSTRING
  -------         PROC          _MYPOW
  X:000EH         SYMBOL        m
  X:000FH         SYMBOL        n
  -------         DO            
  X:0010H         SYMBOL        result
  -------         ENDDO         
  C:787EH         LINE#         611
  C:7886H         LINE#         612
  C:7886H         LINE#         613
  C:788EH         LINE#         614
  C:78B8H         LINE#         615
  C:78C6H         LINE#         616
  -------         ENDPROC       _MYPOW
  -------         PROC          _LCD_SHOWNUM
  X:0001H         SYMBOL        x
  X:0003H         SYMBOL        y
  X:0005H         SYMBOL        num
  X:0009H         SYMBOL        len
  X:000AH         SYMBOL        size
  -------         DO            
  X:000BH         SYMBOL        t
  X:000CH         SYMBOL        temp
  X:000DH         SYMBOL        enshow
  -------         ENDDO         
  C:6A31H         LINE#         629
  C:6A3FH         LINE#         630
  C:6A3FH         LINE#         632
  C:6A44H         LINE#         633
BL51 BANKED LINKER/LOCATER V6.22                                                      05/06/2023  16:56:16  PAGE 21


  C:6A59H         LINE#         634
  C:6A59H         LINE#         635
  C:6A8AH         LINE#         636
  C:6A9DH         LINE#         637
  C:6A9DH         LINE#         638
  C:6AA1H         LINE#         639
  C:6AA1H         LINE#         640
  C:6ADDH         LINE#         641
  C:6ADFH         LINE#         642
  C:6AE5H         LINE#         644
  C:6AE5H         LINE#         645
  C:6B38H         LINE#         646
  C:6B41H         LINE#         647
  -------         ENDPROC       _LCD_SHOWNUM
  -------         PROC          _GUI_DRAWFONT16
  X:0050H         SYMBOL        x
  X:0052H         SYMBOL        y
  X:0054H         SYMBOL        fc
  X:0056H         SYMBOL        bc
  X:0058H         SYMBOL        s
  X:005BH         SYMBOL        mode
  -------         DO            
  X:005CH         SYMBOL        i
  X:005DH         SYMBOL        j
  X:005EH         SYMBOL        k
  X:0060H         SYMBOL        HZnum
  X:0062H         SYMBOL        x0
  -------         ENDDO         
  C:4C0DH         LINE#         661
  C:4C23H         LINE#         662
  C:4C23H         LINE#         666
  C:4C2BH         LINE#         667
  C:4C34H         LINE#         670
  C:4C54H         LINE#         671
  C:4C54H         LINE#         672
  C:4CA4H         LINE#         673
  C:4CDAH         LINE#         674
  C:4CDFH         LINE#         675
  C:4CDFH         LINE#         676
  C:4CF1H         LINE#         677
  C:4CF1H         LINE#         678
  C:4CF7H         LINE#         679
  C:4CF7H         LINE#         680
  C:4D43H         LINE#         681
  C:4D4EH         LINE#         682
  C:4D51H         LINE#         684
  C:4D51H         LINE#         685
  C:4D60H         LINE#         686
  C:4DBFH         LINE#         687
  C:4DCDH         LINE#         688
  C:4DE8H         LINE#         689
  C:4DE8H         LINE#         690
  C:4DEDH         LINE#         691
  C:4DFBH         LINE#         692
  C:4DFDH         LINE#         693
  C:4DFDH         LINE#         694
  C:4DFDH         LINE#         696
BL51 BANKED LINKER/LOCATER V6.22                                                      05/06/2023  16:56:16  PAGE 22


  C:4E06H         LINE#         698
  C:4E15H         LINE#         701
  C:4E15H         LINE#         702
  C:4E15H         LINE#         703
  C:4E26H         LINE#         705
  -------         ENDPROC       _GUI_DRAWFONT16
  -------         PROC          _GUI_DRAWFONT24
  X:0050H         SYMBOL        x
  X:0052H         SYMBOL        y
  X:0054H         SYMBOL        fc
  X:0056H         SYMBOL        bc
  X:0058H         SYMBOL        s
  X:005BH         SYMBOL        mode
  -------         DO            
  X:005CH         SYMBOL        i
  X:005DH         SYMBOL        j
  X:005EH         SYMBOL        k
  X:0060H         SYMBOL        HZnum
  X:0062H         SYMBOL        x0
  -------         ENDDO         
  C:4E50H         LINE#         720
  C:4E66H         LINE#         721
  C:4E66H         LINE#         725
  C:4E6EH         LINE#         726
  C:4E77H         LINE#         728
  C:4E97H         LINE#         729
  C:4E97H         LINE#         730
  C:4EE7H         LINE#         731
  C:4F1DH         LINE#         732
  C:4F22H         LINE#         733
  C:4F22H         LINE#         734
  C:4F34H         LINE#         735
  C:4F34H         LINE#         736
  C:4F3AH         LINE#         737
  C:4F3AH         LINE#         738
  C:4F86H         LINE#         739
  C:4F91H         LINE#         740
  C:4F94H         LINE#         742
  C:4F94H         LINE#         743
  C:4FA3H         LINE#         744
  C:5002H         LINE#         745
  C:5010H         LINE#         746
  C:502BH         LINE#         747
  C:502BH         LINE#         748
  C:5030H         LINE#         749
  C:503EH         LINE#         750
  C:5040H         LINE#         751
  C:5040H         LINE#         752
  C:5040H         LINE#         753
  C:5049H         LINE#         754
  C:5058H         LINE#         757
  C:5058H         LINE#         758
  C:5058H         LINE#         759
  C:5069H         LINE#         761
  -------         ENDPROC       _GUI_DRAWFONT24
  -------         PROC          _GUI_DRAWFONT32
  X:0050H         SYMBOL        x
BL51 BANKED LINKER/LOCATER V6.22                                                      05/06/2023  16:56:16  PAGE 23


  X:0052H         SYMBOL        y
  X:0054H         SYMBOL        fc
  X:0056H         SYMBOL        bc
  X:0058H         SYMBOL        s
  X:005BH         SYMBOL        mode
  -------         DO            
  X:005CH         SYMBOL        i
  X:005DH         SYMBOL        j
  X:005EH         SYMBOL        k
  X:0060H         SYMBOL        HZnum
  X:0062H         SYMBOL        x0
  -------         ENDDO         
  C:5093H         LINE#         776
  C:50A9H         LINE#         777
  C:50A9H         LINE#         781
  C:50B1H         LINE#         782
  C:50BAH         LINE#         783
  C:50DAH         LINE#         784
  C:50DAH         LINE#         785
  C:512AH         LINE#         786
  C:5160H         LINE#         787
  C:5165H         LINE#         788
  C:5165H         LINE#         789
  C:5177H         LINE#         790
  C:5177H         LINE#         791
  C:517DH         LINE#         792
  C:517DH         LINE#         793
  C:51C9H         LINE#         794
  C:51D4H         LINE#         795
  C:51D7H         LINE#         797
  C:51D7H         LINE#         798
  C:51E6H         LINE#         799
  C:5245H         LINE#         800
  C:5253H         LINE#         801
  C:526EH         LINE#         802
  C:526EH         LINE#         803
  C:5273H         LINE#         804
  C:5281H         LINE#         805
  C:5283H         LINE#         806
  C:5283H         LINE#         807
  C:5283H         LINE#         808
  C:528CH         LINE#         809
  C:529BH         LINE#         812
  C:529BH         LINE#         813
  C:529BH         LINE#         814
  C:52ACH         LINE#         816
  -------         ENDPROC       _GUI_DRAWFONT32
  -------         PROC          _SHOW_STR
  X:0040H         SYMBOL        x
  X:0042H         SYMBOL        y
  X:0044H         SYMBOL        fc
  X:0046H         SYMBOL        bc
  X:0048H         SYMBOL        str
  X:004BH         SYMBOL        size
  X:004CH         SYMBOL        mode
  -------         DO            
  X:004DH         SYMBOL        x0
BL51 BANKED LINKER/LOCATER V6.22                                                      05/06/2023  16:56:16  PAGE 24


  X:004FH         SYMBOL        bHz
  -------         ENDDO         
  C:3FEFH         LINE#         832
  C:4005H         LINE#         833
  C:4005H         LINE#         834
  C:400DH         LINE#         835
  C:4010H         LINE#         836
  C:4023H         LINE#         837
  C:4023H         LINE#         838
  C:402CH         LINE#         839
  C:402CH         LINE#         840
  C:4071H         LINE#         842
  C:408DH         LINE#         844
  C:408DH         LINE#         845
  C:4091H         LINE#         846
  C:4091H         LINE#         847
  C:40A3H         LINE#         848
  C:40B2H         LINE#         849
  C:40BCH         LINE#         850
  C:40BFH         LINE#         852
  C:40BFH         LINE#         853
  C:40D0H         LINE#         854
  C:40D0H         LINE#         855
  C:40F7H         LINE#         856
  C:40FDH         LINE#         857
  C:40FFH         LINE#         859
  C:40FFH         LINE#         860
  C:4130H         LINE#         861
  C:4144H         LINE#         862
  C:4144H         LINE#         863
  C:4144H         LINE#         864
  C:414EH         LINE#         866
  C:414EH         LINE#         867
  C:4151H         LINE#         868
  C:4151H         LINE#         869
  C:4194H         LINE#         871
  C:4199H         LINE#         872
  C:419DH         LINE#         873
  C:41DFH         LINE#         874
  C:41EAH         LINE#         875
  C:422EH         LINE#         877
  C:4270H         LINE#         879
  C:427AH         LINE#         880
  C:428CH         LINE#         881
  C:428CH         LINE#         882
  C:428FH         LINE#         883
  -------         ENDPROC       _SHOW_STR
  -------         PROC          _GUI_STRCENTER
  X:0033H         SYMBOL        x
  X:0035H         SYMBOL        y
  X:0037H         SYMBOL        fc
  X:0039H         SYMBOL        bc
  X:003BH         SYMBOL        str
  X:003EH         SYMBOL        size
  X:003FH         SYMBOL        mode
  -------         DO            
  D:0006H         SYMBOL        len
BL51 BANKED LINKER/LOCATER V6.22                                                      05/06/2023  16:56:16  PAGE 25


  D:0006H         SYMBOL        x1
  -------         ENDDO         
  C:7350H         LINE#         898
  C:7364H         LINE#         899
  C:7364H         LINE#         900
  C:7372H         LINE#         901
  C:738FH         LINE#         902
  -------         ENDPROC       _GUI_STRCENTER
  -------         PROC          _GUI_DRAWBMP16
  X:000DH         SYMBOL        x
  X:000FH         SYMBOL        y
  X:0011H         SYMBOL        p
  -------         DO            
  X:0014H         SYMBOL        i
  X:0016H         SYMBOL        picH
  X:0017H         SYMBOL        picL
  -------         ENDDO         
  C:6B42H         LINE#         914
  C:6B5DH         LINE#         915
  C:6B5DH         LINE#         918
  C:6B89H         LINE#         919
  C:6B90H         LINE#         920
  C:6B90H         LINE#         921
  C:6BB3H         LINE#         922
  C:6BC3H         LINE#         923
  C:6BCCH         LINE#         924
  C:6BEBH         LINE#         925
  -------         ENDPROC       _GUI_DRAWBMP16
  -------         ENDMOD        GUI

  -------         MODULE        MAIN
  C:0000H         SYMBOL        _ICE_DUMMY_
  D:0090H         PUBLIC        P1
  D:00B0H         PUBLIC        P3
  C:7A76H         PUBLIC        main
  -------         PROC          MAIN
  C:7A76H         LINE#         62
  C:7A76H         LINE#         63
  C:7A76H         LINE#         65
  C:7A79H         LINE#         68
  C:7A79H         LINE#         69
  C:7A79H         LINE#         70
  C:7A7CH         LINE#         71
  C:7A7FH         LINE#         72
  C:7A82H         LINE#         73
  C:7A85H         LINE#         74
  C:7A88H         LINE#         75
  C:7A8BH         LINE#         76
  C:7A8EH         LINE#         77
  C:7A91H         LINE#         78
  C:7A94H         LINE#         79
  C:7A97H         LINE#         80
  C:7A9AH         LINE#         82
  C:7A9DH         LINE#         83
  -------         ENDPROC       MAIN
  -------         ENDMOD        MAIN

BL51 BANKED LINKER/LOCATER V6.22                                                      05/06/2023  16:56:16  PAGE 26


  -------         MODULE        TEST
  C:0000H         SYMBOL        _ICE_DUMMY_
  C:60ACH         PUBLIC        Test_Read
  D:0090H         PUBLIC        P1
  D:00B0H         PUBLIC        P3
  C:56F8H         PUBLIC        Test_Color
  C:7B44H         PUBLIC        Touch_Test
  X:006CH         PUBLIC        ColornTab
  C:623BH         PUBLIC        Touch_Pen_Test
  C:1C28H         PUBLIC        gImage_qq
  X:007CH         PUBLIC        ColorTab
  C:5ECCH         PUBLIC        Test_FillRec
  X:0086H         PUBLIC        POINT_COLOR_TBL
  C:6C15H         PUBLIC        _DrawTestPage
  C:4290H         PUBLIC        Test_Triangle
  C:6DB1H         PUBLIC        Pic_test
  C:28A8H         SYMBOL        _?ix1000
  C:28B4H         SYMBOL        _?ix1001
  C:28BEH         SYMBOL        _?ix1002
  C:6F3BH         PUBLIC        main_test
  C:651FH         PUBLIC        Test_Circle
  C:450CH         PUBLIC        Test_Dynamic_Num
  C:6FFAH         PUBLIC        Chinese_Font_test
  C:28E1H         PUBLIC        Touch_Button_Test
  C:6CE4H         PUBLIC        English_Font_test
  C:72B0H         PUBLIC        Rotate_Test
  -------         PROC          _DRAWTESTPAGE
  X:0030H         SYMBOL        str
  C:6C15H         LINE#         77
  C:6C20H         LINE#         78
  C:6C20H         LINE#         80
  C:6C27H         LINE#         81
  C:6C47H         LINE#         83
  C:6C73H         LINE#         84
  C:6C7BH         LINE#         85
  C:6CAFH         LINE#         86
  -------         ENDPROC       _DRAWTESTPAGE
  -------         PROC          MAIN_TEST
  C:6F3BH         LINE#         98
  C:6F3BH         LINE#         99
  C:6F3BH         LINE#         100
  C:6F44H         LINE#         102
  C:6F6FH         LINE#         103
  C:6F9AH         LINE#         104
  C:6FC5H         LINE#         105
  C:6FF0H         LINE#         106
  C:6FF5H         LINE#         107
  -------         ENDPROC       MAIN_TEST
  -------         PROC          TEST_COLOR
  C:56F8H         LINE#         117
  C:56F8H         LINE#         118
  C:56F8H         LINE#         120
  C:571BH         LINE#         121
  C:574AH         LINE#         122
  C:576BH         LINE#         123
  C:579DH         LINE#         124
  C:57C0H         LINE#         125
BL51 BANKED LINKER/LOCATER V6.22                                                      05/06/2023  16:56:16  PAGE 27


  C:57F2H         LINE#         126
  C:5817H         LINE#         127
  C:5849H         LINE#         128
  C:586DH         LINE#         129
  C:589FH         LINE#         130
  C:58C4H         LINE#         131
  -------         ENDPROC       TEST_COLOR
  -------         PROC          TEST_FILLREC
  -------         DO            
  X:0000H         SYMBOL        i
  -------         ENDDO         
  C:5ECCH         LINE#         144
  C:5ECCH         LINE#         145
  C:5ECCH         LINE#         146
  C:5ED1H         LINE#         147
  C:5EDAH         LINE#         148
  C:5F06H         LINE#         149
  C:5F0BH         LINE#         150
  C:5F0BH         LINE#         151
  C:5F27H         LINE#         152
  C:5FAFH         LINE#         153
  C:5FBEH         LINE#         154
  C:5FC3H         LINE#         155
  C:5FEFH         LINE#         156
  C:5FF4H         LINE#         157
  C:5FF4H         LINE#         158
  C:6010H         LINE#         159
  C:6098H         LINE#         160
  C:60A7H         LINE#         161
  -------         ENDPROC       TEST_FILLREC
  -------         PROC          TEST_CIRCLE
  -------         DO            
  X:0000H         SYMBOL        i
  -------         ENDDO         
  C:651FH         LINE#         174
  C:651FH         LINE#         175
  C:651FH         LINE#         176
  C:6524H         LINE#         177
  C:652DH         LINE#         178
  C:6559H         LINE#         179
  C:655EH         LINE#         180
  C:65CCH         LINE#         181
  C:65D1H         LINE#         182
  C:65FDH         LINE#         183
  C:6602H         LINE#         184
  C:6671H         LINE#         185
  -------         ENDPROC       TEST_CIRCLE
  -------         PROC          TEST_TRIANGLE
  -------         DO            
  X:0000H         SYMBOL        i
  -------         ENDDO         
  C:4290H         LINE#         198
  C:4290H         LINE#         199
  C:4290H         LINE#         200
  C:4295H         LINE#         201
  C:429EH         LINE#         202
  C:42CAH         LINE#         203
BL51 BANKED LINKER/LOCATER V6.22                                                      05/06/2023  16:56:16  PAGE 28


  C:42DCH         LINE#         204
  C:42DCH         LINE#         205
  C:42F4H         LINE#         206
  C:43C7H         LINE#         207
  C:43D0H         LINE#         208
  C:43D5H         LINE#         209
  C:4401H         LINE#         210
  C:4413H         LINE#         211
  C:4413H         LINE#         212
  C:442BH         LINE#         213
  C:44FEH         LINE#         214
  C:4507H         LINE#         215
  -------         ENDPROC       TEST_TRIANGLE
  -------         PROC          ENGLISH_FONT_TEST
  C:6CE4H         LINE#         225
  C:6CE4H         LINE#         226
  C:6CE4H         LINE#         227
  C:6CEDH         LINE#         228
  C:6CF6H         LINE#         229
  C:6CFEH         LINE#         230
  C:6D1AH         LINE#         231
  C:6D39H         LINE#         232
  C:6D55H         LINE#         233
  C:6D71H         LINE#         234
  C:6D90H         LINE#         235
  C:6DACH         LINE#         236
  -------         ENDPROC       ENGLISH_FONT_TEST
  -------         PROC          CHINESE_FONT_TEST
  C:6FFAH         LINE#         246
  C:6FFAH         LINE#         247
  C:6FFAH         LINE#         248
  C:7003H         LINE#         249
  C:702CH         LINE#         250
  C:7055H         LINE#         251
  C:7082H         LINE#         252
  C:70AFH         LINE#         253
  -------         ENDPROC       CHINESE_FONT_TEST
  -------         PROC          PIC_TEST
  C:6DB1H         LINE#         263
  C:6DB1H         LINE#         264
  C:6DB1H         LINE#         265
  C:6DBAH         LINE#         267
  C:6DCBH         LINE#         268
  C:6DF8H         LINE#         269
  C:6E09H         LINE#         270
  C:6E36H         LINE#         271
  C:6E47H         LINE#         272
  C:6E74H         LINE#         273
  -------         ENDPROC       PIC_TEST
  -------         PROC          ROTATE_TEST
  -------         DO            
  X:0000H         SYMBOL        i
  X:0001H         SYMBOL        Direction
  -------         ENDDO         
  C:72B0H         LINE#         283
  C:72B0H         LINE#         284
  C:72B0H         LINE#         285
BL51 BANKED LINKER/LOCATER V6.22                                                      05/06/2023  16:56:16  PAGE 29


  C:72B5H         LINE#         286
  C:72C7H         LINE#         288
  C:72D6H         LINE#         289
  C:72D6H         LINE#         290
  C:72D9H         LINE#         291
  C:72E2H         LINE#         292
  C:7328H         LINE#         293
  C:7339H         LINE#         294
  C:7343H         LINE#         295
  C:734BH         LINE#         296
  -------         ENDPROC       ROTATE_TEST
  -------         PROC          TOUCH_PEN_TEST
  -------         DO            
  X:0000H         SYMBOL        lastpos
  -------         ENDDO         
  C:623BH         LINE#         300
  C:623BH         LINE#         301
  C:623BH         LINE#         304
  C:6244H         LINE#         305
  C:626DH         LINE#         306
  C:6276H         LINE#         307
  C:6276H         LINE#         308
  C:6276H         LINE#         310
  C:6282H         LINE#         313
  C:628CH         LINE#         314
  C:628CH         LINE#         315
  C:62B8H         LINE#         316
  C:62B8H         LINE#         317
  C:62C4H         LINE#         318
  C:62C4H         LINE#         319
  C:62CCH         LINE#         320
  C:62D2H         LINE#         321
  C:62D2H         LINE#         322
  C:62FBH         LINE#         323
  C:62FBH         LINE#         328
  C:6303H         LINE#         329
  C:6309H         LINE#         330
  C:6311H         LINE#         331
  C:633AH         LINE#         332
  C:6343H         LINE#         333
  C:6345H         LINE#         335
  C:6345H         LINE#         336
  C:6385H         LINE#         337
  C:6385H         LINE#         338
  C:6394H         LINE#         339
  C:63A3H         LINE#         340
  C:63A3H         LINE#         341
  C:63AEH         LINE#         351
  -------         ENDPROC       TOUCH_PEN_TEST
  -------         PROC          TOUCH_BUTTON_TEST
  C:28E1H         LINE#         354
  C:28E1H         LINE#         355
  C:28E1H         LINE#         356
  C:28EAH         LINE#         357
  C:28F1H         LINE#         358
  C:291AH         LINE#         359
  C:2923H         LINE#         360
BL51 BANKED LINKER/LOCATER V6.22                                                      05/06/2023  16:56:16  PAGE 30


  C:294DH         LINE#         361
  C:2956H         LINE#         362
  C:297BH         LINE#         363
  C:2983H         LINE#         364
  C:29AFH         LINE#         365
  C:29B9H         LINE#         366
  C:29E9H         LINE#         367
  C:29F3H         LINE#         368
  C:2A23H         LINE#         369
  C:2A47H         LINE#         370
  C:2A4EH         LINE#         371
  C:2A56H         LINE#         372
  C:2A82H         LINE#         373
  C:2AADH         LINE#         374
  C:2AB6H         LINE#         375
  C:2AEAH         LINE#         376
  C:2AF1H         LINE#         377
  C:2B21H         LINE#         378
  C:2B2BH         LINE#         379
  C:2B5BH         LINE#         380
  C:2B65H         LINE#         381
  C:2B91H         LINE#         382
  C:2BC7H         LINE#         383
  C:2BC7H         LINE#         384
  C:2BC7H         LINE#         385
  C:2BD3H         LINE#         386
  C:2BDAH         LINE#         387
  C:2BDAH         LINE#         388
  C:2BF8H         LINE#         389
  C:2BF8H         LINE#         390
  C:2C2DH         LINE#         391
  C:2C2DH         LINE#         392
  C:2C36H         LINE#         393
  C:2C60H         LINE#         394
  C:2C69H         LINE#         395
  C:2C8EH         LINE#         396
  C:2C96H         LINE#         397
  C:2CC2H         LINE#         398
  C:2CC2H         LINE#         399
  C:2CEFH         LINE#         400
  C:2CEFH         LINE#         401
  C:2CF8H         LINE#         402
  C:2D22H         LINE#         403
  C:2D2BH         LINE#         404
  C:2D50H         LINE#         405
  C:2D58H         LINE#         406
  C:2D83H         LINE#         407
  C:2D83H         LINE#         408
  C:2D83H         LINE#         409
  C:2DD4H         LINE#         410
  C:2DD4H         LINE#         411
  C:2DDEH         LINE#         412
  C:2E17H         LINE#         413
  C:2E21H         LINE#         414
  C:2E57H         LINE#         415
  C:2E78H         LINE#         416
  C:2E81H         LINE#         417
BL51 BANKED LINKER/LOCATER V6.22                                                      05/06/2023  16:56:16  PAGE 31


  C:2ECFH         LINE#         418
  C:2ECFH         LINE#         419
  C:2F20H         LINE#         420
  C:2F20H         LINE#         421
  C:2F28H         LINE#         422
  C:2F58H         LINE#         423
  C:2F62H         LINE#         424
  C:2F92H         LINE#         425
  C:2F9CH         LINE#         426
  C:2FC8H         LINE#         427
  C:2FD0H         LINE#         428
  C:2FD0H         LINE#         429
  C:2FD0H         LINE#         430
  C:2FD0H         LINE#         431
  C:2FD0H         LINE#         432
  -------         ENDPROC       TOUCH_BUTTON_TEST
  -------         PROC          TOUCH_TEST
  C:7B44H         LINE#         441
  C:7B44H         LINE#         442
  C:7B44H         LINE#         443
  C:7B53H         LINE#         444
  C:7B53H         LINE#         446
  C:7B53H         LINE#         448
  C:7B56H         LINE#         449
  C:7B59H         LINE#         450
  -------         ENDPROC       TOUCH_TEST
  -------         PROC          TEST_READ
  -------         DO            
  D:0006H         SYMBOL        lcd_id
  X:0000H         SYMBOL        color
  X:0002H         SYMBOL        buf
  X:000CH         SYMBOL        i
  X:000DH         SYMBOL        cbuf
  -------         ENDDO         
  C:60ACH         LINE#         459
  C:60ACH         LINE#         460
  C:60ACH         LINE#         462
  C:60BFH         LINE#         463
  C:60D2H         LINE#         464
  C:60DBH         LINE#         465
  C:60DEH         LINE#         466
  C:60FBH         LINE#         467
  C:6128H         LINE#         468
  C:613AH         LINE#         469
  C:613AH         LINE#         470
  C:6152H         LINE#         471
  C:6178H         LINE#         472
  C:6196H         LINE#         473
  C:61A2H         LINE#         474
  C:61A2H         LINE#         475
  C:61AEH         LINE#         476
  C:61B0H         LINE#         478
  C:61B0H         LINE#         479
  C:61BFH         LINE#         480
  C:61BFH         LINE#         481
  C:61F1H         LINE#         482
  C:622DH         LINE#         483
BL51 BANKED LINKER/LOCATER V6.22                                                      05/06/2023  16:56:16  PAGE 32


  C:6236H         LINE#         484
  -------         ENDPROC       TEST_READ
  -------         PROC          TEST_DYNAMIC_NUM
  -------         DO            
  X:0000H         SYMBOL        i
  -------         ENDDO         
  C:450CH         LINE#         494
  C:450CH         LINE#         495
  C:450CH         LINE#         497
  C:4515H         LINE#         498
  C:451EH         LINE#         499
  C:4525H         LINE#         500
  C:4544H         LINE#         501
  C:4563H         LINE#         502
  C:4582H         LINE#         503
  C:45A1H         LINE#         504
  C:45C0H         LINE#         505
  C:45DFH         LINE#         506
  C:45FEH         LINE#         507
  C:4607H         LINE#         508
  C:460FH         LINE#         509
  C:4614H         LINE#         510
  C:4614H         LINE#         511
  C:4643H         LINE#         512
  C:4672H         LINE#         513
  C:46A1H         LINE#         514
  C:46D0H         LINE#         515
  C:46FFH         LINE#         516
  C:472EH         LINE#         517
  C:475DH         LINE#         518
  C:4762H         LINE#         519
  C:4771H         LINE#         520
  -------         ENDPROC       TEST_DYNAMIC_NUM
  -------         ENDMOD        TEST

  -------         MODULE        SYS
  C:0000H         SYMBOL        _ICE_DUMMY_
  C:7BD8H         PUBLIC        _delay_ms
  C:7BE9H         PUBLIC        _delay_us
  -------         PROC          _DELAY_MS
  D:0007H         SYMBOL        ms
  -------         DO            
  D:0004H         SYMBOL        i
  -------         ENDDO         
  C:7BD8H         LINE#         56
  C:7BD8H         LINE#         57
  C:7BD8H         LINE#         59
  C:7BD8H         LINE#         60
  C:7BD9H         LINE#         61
  C:7BDDH         LINE#         62
  C:7BE6H         LINE#         63
  C:7BE8H         LINE#         64
  -------         ENDPROC       _DELAY_MS
  -------         PROC          _DELAY_US
  D:0007H         SYMBOL        us
  -------         DO            
  D:0004H         SYMBOL        i
BL51 BANKED LINKER/LOCATER V6.22                                                      05/06/2023  16:56:16  PAGE 33


  -------         ENDDO         
  C:7BE9H         LINE#         66
  C:7BE9H         LINE#         67
  C:7BE9H         LINE#         69
  C:7BE9H         LINE#         70
  C:7BEAH         LINE#         71
  C:7BEEH         LINE#         72
  C:7BF7H         LINE#         73
  C:7BF9H         LINE#         74
  -------         ENDPROC       _DELAY_US
  -------         ENDMOD        SYS

  -------         MODULE        LCD
  C:0000H         SYMBOL        _ICE_DUMMY_
  D:00B2H         PUBLIC        P3M0
  D:0090H         PUBLIC        P1
  D:00B1H         PUBLIC        P3M1
  D:00B0H         PUBLIC        P3
  C:7C28H         PUBLIC        _LCD_WR_REG
  C:720EH         PUBLIC        _LCD_Clear
  C:70B4H         PUBLIC        LCD_Read_ID
  C:7C4EH         PUBLIC        BL_GPIOInit
  B:00B0H.3       PUBLIC        LCD_RESET
  C:7B5AH         PUBLIC        LCD_Reset
  C:7C5EH         PUBLIC        _LCD_ReadPoint
  C:7AEBH         PUBLIC        _LCD_WR_DATA_16Bit
  B:00B0H.2       PUBLIC        LCD_BL
  C:7C71H         SYMBOL        _?ix1000
  C:7C32H         PUBLIC        LCD_RD_DATA
  C:7C45H         PUBLIC        LCD_ReadRAM_Prepare
  C:63B1H         PUBLIC        LCD_Init
  B:0090H.3       PUBLIC        LCD_CS
  C:7C57H         PUBLIC        _LCD_ReadReg
  C:76DBH         PUBLIC        _LCD_SetWindows
  C:7A4CH         PUBLIC        _LCD_DrawPoint
  C:790BH         PUBLIC        Lcd_ReadData_16Bit
  C:7C3CH         PUBLIC        LCD_WriteRAM_Prepare
  C:7C1EH         PUBLIC        _LCD_WR_DATA
  B:0090H.2       PUBLIC        LCD_RS
  C:7C0BH         PUBLIC        _LCD_WriteReg
  C:7B0BH         PUBLIC        _LCD_SetCursor
  X:0088H         PUBLIC        POINT_COLOR
  X:008AH         PUBLIC        BACK_COLOR
  X:008CH         PUBLIC        lcddev
  C:73E2H         PUBLIC        _LCD_direction
  -------         PROC          _LCD_WR_REG
  D:0007H         SYMBOL        Reg
  C:7C28H         LINE#         72
  C:7C28H         LINE#         73
  C:7C28H         LINE#         74
  C:7C2AH         LINE#         75
  C:7C2CH         LINE#         76
  C:7C2FH         LINE#         77
  C:7C31H         LINE#         78
  -------         ENDPROC       _LCD_WR_REG
  -------         PROC          L?0040
  -------         ENDPROC       L?0040
BL51 BANKED LINKER/LOCATER V6.22                                                      05/06/2023  16:56:16  PAGE 34


  -------         PROC          _LCD_WR_DATA
  D:0007H         SYMBOL        Data
  C:7C1EH         LINE#         87
  C:7C1EH         LINE#         88
  C:7C1EH         LINE#         89
  C:7C20H         LINE#         90
  C:7C22H         LINE#         91
  C:7C25H         LINE#         92
  C:7C27H         LINE#         93
  -------         ENDPROC       _LCD_WR_DATA
  -------         PROC          LCD_RD_DATA
  -------         DO            
  D:0007H         SYMBOL        value
  -------         ENDDO         
  C:7C32H         LINE#         95
  C:7C32H         LINE#         96
  C:7C32H         LINE#         98
  C:7C34H         LINE#         99
  C:7C36H         LINE#         101
  C:7C39H         LINE#         103
  C:7C3BH         LINE#         104
  C:7C3BH         LINE#         105
  -------         ENDPROC       LCD_RD_DATA
  -------         PROC          _LCD_WR_DATA_16BIT
  X:0064H         SYMBOL        Data
  C:7AEBH         LINE#         114
  C:7AF3H         LINE#         115
  C:7AF3H         LINE#         116
  C:7AF5H         LINE#         117
  C:7AF7H         LINE#         118
  C:7AFFH         LINE#         119
  C:7B08H         LINE#         120
  C:7B0AH         LINE#         121
  -------         ENDPROC       _LCD_WR_DATA_16BIT
  -------         PROC          _LCD_WRITEREG
  D:0007H         SYMBOL        LCD_Reg
  X:000DH         SYMBOL        LCD_RegValue
  C:7C0BH         LINE#         131
  C:7C10H         LINE#         132
  C:7C10H         LINE#         133
  C:7C13H         LINE#         134
  -------         ENDPROC       _LCD_WRITEREG
  -------         PROC          _LCD_READREG
  D:0007H         SYMBOL        LCD_Reg
  C:7C57H         LINE#         137
  C:7C57H         LINE#         138
  C:7C57H         LINE#         139
  C:7C5AH         LINE#         140
  C:7C5DH         LINE#         141
  -------         ENDPROC       _LCD_READREG
  -------         PROC          LCD_WRITERAM_PREPARE
  C:7C3CH         LINE#         150
  C:7C3CH         LINE#         151
  C:7C3CH         LINE#         152
  -------         ENDPROC       LCD_WRITERAM_PREPARE
  -------         PROC          LCD_READRAM_PREPARE
  C:7C45H         LINE#         155
BL51 BANKED LINKER/LOCATER V6.22                                                      05/06/2023  16:56:16  PAGE 35


  C:7C45H         LINE#         156
  C:7C45H         LINE#         157
  -------         ENDPROC       LCD_READRAM_PREPARE
  -------         PROC          LCD_READDATA_16BIT
  -------         DO            
  X:0030H         SYMBOL        r
  D:0004H         SYMBOL        g
  -------         ENDDO         
  C:790BH         LINE#         160
  C:790BH         LINE#         161
  C:790BH         LINE#         163
  C:790DH         LINE#         164
  C:790FH         LINE#         165
  C:7918H         LINE#         167
  C:791AH         LINE#         168
  C:791DH         LINE#         169
  C:7928H         LINE#         170
  C:792DH         LINE#         172
  C:792FH         LINE#         173
  C:793DH         LINE#         174
  C:7947H         LINE#         175
  C:7947H         LINE#         176
  -------         ENDPROC       LCD_READDATA_16BIT
  -------         PROC          _LCD_CLEAR
  X:0033H         SYMBOL        Color
  -------         DO            
  X:0035H         SYMBOL        i
  X:0037H         SYMBOL        j
  -------         ENDDO         
  C:720EH         LINE#         185
  C:7216H         LINE#         186
  C:7216H         LINE#         188
  C:7240H         LINE#         189
  C:7242H         LINE#         190
  C:7244H         LINE#         191
  C:7260H         LINE#         192
  C:7260H         LINE#         193
  C:727CH         LINE#         194
  C:727CH         LINE#         195
  C:7284H         LINE#         196
  C:728DH         LINE#         197
  C:729DH         LINE#         198
  C:72ADH         LINE#         199
  C:72AFH         LINE#         200
  -------         ENDPROC       _LCD_CLEAR
  -------         PROC          _LCD_DRAWPOINT
  D:0002H         SYMBOL        x
  D:0082H         SYMBOL        y
  C:7A4CH         LINE#         210
  C:7A54H         LINE#         211
  C:7A54H         LINE#         212
  C:7A6BH         LINE#         213
  -------         ENDPROC       _LCD_DRAWPOINT
  -------         PROC          _LCD_READPOINT
  D:0006H         SYMBOL        x
  D:0004H         SYMBOL        y
  -------         DO            
BL51 BANKED LINKER/LOCATER V6.22                                                      05/06/2023  16:56:16  PAGE 36


  D:0006H         SYMBOL        color
  -------         ENDDO         
  C:7C5EH         LINE#         216
  C:7C5EH         LINE#         217
  C:7C5EH         LINE#         219
  C:7C61H         LINE#         220
  C:7C64H         LINE#         221
  C:7C64H         LINE#         222
  -------         ENDPROC       _LCD_READPOINT
  -------         PROC          BL_GPIOINIT
  C:7C4EH         LINE#         224
  C:7C4EH         LINE#         225
  C:7C4EH         LINE#         228
  C:7C51H         LINE#         229
  C:7C54H         LINE#         230
  C:7C56H         LINE#         231
  -------         ENDPROC       BL_GPIOINIT
  -------         PROC          LCD_RESET
  C:7B5AH         LINE#         240
  C:7B5AH         LINE#         241
  C:7B5AH         LINE#         242
  C:7B5CH         LINE#         243
  C:7B61H         LINE#         244
  C:7B63H         LINE#         245
  C:7B68H         LINE#         246
  C:7B6AH         LINE#         247
  -------         ENDPROC       LCD_RESET
  -------         PROC          LCD_INIT
  C:63B1H         LINE#         257
  C:63B1H         LINE#         258
  C:63B1H         LINE#         259
  C:63B4H         LINE#         260
  C:63B7H         LINE#         261
  C:63BAH         LINE#         263
  C:63BFH         LINE#         265
  C:63C4H         LINE#         267
  C:63C9H         LINE#         268
  C:63CEH         LINE#         270
  C:63D3H         LINE#         271
  C:63D8H         LINE#         273
  C:63DDH         LINE#         274
  C:63E2H         LINE#         276
  C:63E7H         LINE#         277
  C:63ECH         LINE#         279
  C:63F1H         LINE#         280
  C:63F6H         LINE#         282
  C:63FBH         LINE#         283
  C:6400H         LINE#         289
  C:6405H         LINE#         290
  C:640AH         LINE#         291
  C:640FH         LINE#         293
  C:6414H         LINE#         294
  C:6419H         LINE#         296
  C:641EH         LINE#         297
  C:6423H         LINE#         299
  C:6428H         LINE#         300
  C:642DH         LINE#         302
BL51 BANKED LINKER/LOCATER V6.22                                                      05/06/2023  16:56:16  PAGE 37


  C:6432H         LINE#         303
  C:6437H         LINE#         304
  C:643CH         LINE#         305
  C:6441H         LINE#         306
  C:6446H         LINE#         307
  C:644BH         LINE#         308
  C:6450H         LINE#         309
  C:6455H         LINE#         310
  C:645AH         LINE#         312
  C:645FH         LINE#         313
  C:6464H         LINE#         314
  C:6469H         LINE#         315
  C:646EH         LINE#         316
  C:6473H         LINE#         317
  C:6478H         LINE#         318
  C:647DH         LINE#         319
  C:6482H         LINE#         320
  C:6487H         LINE#         321
  C:648CH         LINE#         322
  C:6491H         LINE#         323
  C:6496H         LINE#         324
  C:649BH         LINE#         325
  C:64A0H         LINE#         326
  C:64A5H         LINE#         328
  C:64AAH         LINE#         329
  C:64AFH         LINE#         330
  C:64B4H         LINE#         331
  C:64B9H         LINE#         332
  C:64BEH         LINE#         333
  C:64C3H         LINE#         334
  C:64C8H         LINE#         335
  C:64CDH         LINE#         336
  C:64D2H         LINE#         337
  C:64D7H         LINE#         338
  C:64DCH         LINE#         339
  C:64E1H         LINE#         340
  C:64E6H         LINE#         341
  C:64EBH         LINE#         342
  C:64F0H         LINE#         345
  C:64F5H         LINE#         346
  C:64FAH         LINE#         348
  C:64FFH         LINE#         349
  C:6504H         LINE#         351
  C:6509H         LINE#         353
  C:650EH         LINE#         355
  C:6513H         LINE#         358
  C:6518H         LINE#         359
  -------         ENDPROC       LCD_INIT
  -------         PROC          _LCD_SETWINDOWS
  X:0064H         SYMBOL        xStar
  X:0066H         SYMBOL        yStar
  X:0068H         SYMBOL        xEnd
  X:006AH         SYMBOL        yEnd
  C:76DBH         LINE#         372
  C:76EFH         LINE#         373
  C:76EFH         LINE#         374
  C:76F8H         LINE#         375
BL51 BANKED LINKER/LOCATER V6.22                                                      05/06/2023  16:56:16  PAGE 38


  C:7700H         LINE#         376
  C:7706H         LINE#         377
  C:770EH         LINE#         378
  C:7714H         LINE#         380
  C:771DH         LINE#         381
  C:7725H         LINE#         382
  C:772EH         LINE#         383
  C:7736H         LINE#         384
  C:773FH         LINE#         386
  -------         ENDPROC       _LCD_SETWINDOWS
  -------         PROC          _LCD_SETCURSOR
  D:0002H         SYMBOL        Xpos
  D:0082H         SYMBOL        Ypos
  C:7B0BH         LINE#         397
  C:7B13H         LINE#         398
  C:7B13H         LINE#         399
  -------         ENDPROC       _LCD_SETCURSOR
  -------         PROC          _LCD_DIRECTION
  D:0007H         SYMBOL        direction
  C:73E2H         LINE#         412
  C:73E2H         LINE#         413
  C:73E2H         LINE#         414
  C:73EBH         LINE#         415
  C:73F2H         LINE#         416
  C:73FBH         LINE#         417
  C:7402H         LINE#         418
  C:7409H         LINE#         419
  C:7416H         LINE#         420
  C:7416H         LINE#         421
  C:7420H         LINE#         422
  C:7428H         LINE#         423
  C:742AH         LINE#         424
  C:742CH         LINE#         425
  C:742CH         LINE#         426
  C:7436H         LINE#         427
  C:743EH         LINE#         428
  C:7440H         LINE#         429
  C:7442H         LINE#         430
  C:7442H         LINE#         431
  C:744CH         LINE#         432
  C:7454H         LINE#         433
  C:7456H         LINE#         434
  C:7458H         LINE#         435
  C:7458H         LINE#         436
  C:7462H         LINE#         437
  C:746AH         LINE#         438
  C:7471H         LINE#         439
  C:7471H         LINE#         440
  C:7471H         LINE#         441
  C:7471H         LINE#         442
  -------         ENDPROC       _LCD_DIRECTION
  -------         PROC          LCD_READ_ID
  -------         DO            
  X:0030H         SYMBOL        i
  X:0031H         SYMBOL        val
  -------         ENDDO         
  C:70B4H         LINE#         444
BL51 BANKED LINKER/LOCATER V6.22                                                      05/06/2023  16:56:16  PAGE 39


  C:70B4H         LINE#         445
  C:70B4H         LINE#         446
  C:70C7H         LINE#         447
  C:70CCH         LINE#         448
  C:70D1H         LINE#         450
  C:70D6H         LINE#         451
  C:70DBH         LINE#         452
  C:70DDH         LINE#         453
  C:70E3H         LINE#         454
  C:70E3H         LINE#         455
  C:70E5H         LINE#         456
  C:70EAH         LINE#         457
  C:70ECH         LINE#         458
  C:70F6H         LINE#         459
  C:70F8H         LINE#         460
  C:70FDH         LINE#         462
  C:70FFH         LINE#         463
  C:7111H         LINE#         465
  C:7113H         LINE#         466
  C:7118H         LINE#         467
  C:711AH         LINE#         468
  C:711FH         LINE#         469
  C:712BH         LINE#         470
  C:712DH         LINE#         471
  C:7132H         LINE#         472
  C:7137H         LINE#         473
  C:713CH         LINE#         474
  C:7141H         LINE#         475
  C:714EH         LINE#         476
  C:7159H         LINE#         477
  C:7168H         LINE#         478
  C:7168H         LINE#         479
  -------         ENDPROC       LCD_READ_ID
  -------         ENDMOD        LCD

  -------         MODULE        CTPIIC
  C:0000H         SYMBOL        _ICE_DUMMY_
  D:00B2H         PUBLIC        P3M0
  C:7948H         PUBLIC        _CTP_IIC_Send_Byte
  D:00B1H         PUBLIC        P3M1
  D:00B0H         PUBLIC        P3
  C:79EDH         PUBLIC        CTP_IIC_Wait_Ack
  C:7B99H         PUBLIC        CTP_IIC_Ack
  C:7B6FH         PUBLIC        CTP_IIC_Start
  C:7BFAH         PUBLIC        CTP_IIC_Init
  C:7B84H         PUBLIC        CTP_IIC_Stop
  C:7C6CH         PUBLIC        CTP_Delay
  B:00B0H.4       PUBLIC        CTP_IIC_SDA
  C:7BAEH         PUBLIC        CTP_IIC_NAck
  B:00B0H.6       PUBLIC        CTP_IIC_SCL
  C:7833H         PUBLIC        _CTP_IIC_Read_Byte
  -------         PROC          CTP_DELAY
  C:7C6CH         LINE#         63
  C:7C6CH         LINE#         64
  C:7C6CH         LINE#         65
  -------         ENDPROC       CTP_DELAY
  -------         PROC          CTP_IIC_INIT
BL51 BANKED LINKER/LOCATER V6.22                                                      05/06/2023  16:56:16  PAGE 40


  C:7BFAH         LINE#         75
  C:7BFAH         LINE#         76
  C:7BFAH         LINE#         77
  C:7BFDH         LINE#         78
  C:7C00H         LINE#         79
  C:7C03H         LINE#         80
  C:7C06H         LINE#         81
  C:7C08H         LINE#         82
  C:7C0AH         LINE#         83
  -------         ENDPROC       CTP_IIC_INIT
  -------         PROC          CTP_IIC_START
  C:7B6FH         LINE#         92
  C:7B6FH         LINE#         93
  C:7B6FH         LINE#         94
  C:7B75H         LINE#         95
  C:7B77H         LINE#         96
  C:7B79H         LINE#         97
  C:7B7CH         LINE#         98
  C:7B7EH         LINE#         99
  C:7B81H         LINE#         100
  C:7B83H         LINE#         101
  -------         ENDPROC       CTP_IIC_START
  -------         PROC          CTP_IIC_STOP
  C:7B84H         LINE#         110
  C:7B84H         LINE#         111
  C:7B84H         LINE#         112
  C:7B8AH         LINE#         113
  C:7B8CH         LINE#         114
  C:7B8EH         LINE#         115
  C:7B91H         LINE#         116
  C:7B93H         LINE#         117
  C:7B96H         LINE#         118
  C:7B98H         LINE#         119
  -------         ENDPROC       CTP_IIC_STOP
  -------         PROC          CTP_IIC_WAIT_ACK
  -------         DO            
  X:000EH         SYMBOL        ucErrTime
  -------         ENDDO         
  C:79EDH         LINE#         129
  C:79EDH         LINE#         130
  C:79EDH         LINE#         131
  C:79F2H         LINE#         132
  C:79F8H         LINE#         133
  C:79FFH         LINE#         134
  C:7A06H         LINE#         135
  C:7A09H         LINE#         136
  C:7A09H         LINE#         137
  C:7A0FH         LINE#         138
  C:7A15H         LINE#         139
  C:7A15H         LINE#         140
  C:7A18H         LINE#         141
  C:7A1BH         LINE#         142
  C:7A1BH         LINE#         143
  C:7A1BH         LINE#         144
  C:7A1DH         LINE#         145
  C:7A1FH         LINE#         146
  -------         ENDPROC       CTP_IIC_WAIT_ACK
BL51 BANKED LINKER/LOCATER V6.22                                                      05/06/2023  16:56:16  PAGE 41


  -------         PROC          CTP_IIC_ACK
  C:7B99H         LINE#         155
  C:7B99H         LINE#         156
  C:7B99H         LINE#         157
  C:7B9BH         LINE#         158
  C:7BA1H         LINE#         159
  C:7BA3H         LINE#         160
  C:7BA6H         LINE#         161
  C:7BA8H         LINE#         162
  C:7BABH         LINE#         163
  C:7BADH         LINE#         164
  -------         ENDPROC       CTP_IIC_ACK
  -------         PROC          CTP_IIC_NACK
  C:7BAEH         LINE#         173
  C:7BAEH         LINE#         174
  C:7BAEH         LINE#         175
  C:7BB0H         LINE#         176
  C:7BB6H         LINE#         177
  C:7BB8H         LINE#         178
  C:7BBBH         LINE#         179
  C:7BBDH         LINE#         180
  C:7BC0H         LINE#         181
  C:7BC2H         LINE#         182
  -------         ENDPROC       CTP_IIC_NACK
  -------         PROC          _CTP_IIC_SEND_BYTE
  X:000EH         SYMBOL        txd
  -------         DO            
  X:000FH         SYMBOL        t
  -------         ENDDO         
  C:7948H         LINE#         191
  C:794DH         LINE#         192
  C:794DH         LINE#         193
  C:794DH         LINE#         194
  C:7953H         LINE#         195
  C:7955H         LINE#         196
  C:7958H         LINE#         197
  C:7958H         LINE#         198
  C:796AH         LINE#         199
  C:796EH         LINE#         200
  C:7970H         LINE#         201
  C:7973H         LINE#         202
  C:7975H         LINE#         203
  C:7978H         LINE#         204
  C:7984H         LINE#         205
  -------         ENDPROC       _CTP_IIC_SEND_BYTE
  -------         PROC          _CTP_IIC_READ_BYTE
  X:000EH         SYMBOL        ack
  -------         DO            
  X:000FH         SYMBOL        i
  X:0010H         SYMBOL        receive
  -------         ENDDO         
  C:7833H         LINE#         215
  C:7838H         LINE#         216
  C:7838H         LINE#         217
  C:783DH         LINE#         218
  C:7843H         LINE#         219
  C:7847H         LINE#         220
BL51 BANKED LINKER/LOCATER V6.22                                                      05/06/2023  16:56:16  PAGE 42


  C:7847H         LINE#         221
  C:7849H         LINE#         222
  C:784EH         LINE#         223
  C:7850H         LINE#         224
  C:7858H         LINE#         225
  C:785EH         LINE#         226
  C:786AH         LINE#         227
  C:7875H         LINE#         228
  C:7878H         LINE#         229
  C:787DH         LINE#         230
  -------         ENDPROC       _CTP_IIC_READ_BYTE
  -------         ENDMOD        CTPIIC

  -------         MODULE        FT6336
  C:0000H         SYMBOL        _ICE_DUMMY_
  D:00B2H         PUBLIC        P3M0
  D:0090H         PUBLIC        P1
  D:00B1H         PUBLIC        P3M1
  D:00B0H         PUBLIC        P3
  X:00B3H         PUBLIC        FT6336_TPX_TBL
  C:4772H         PUBLIC        FT6336_Scan
  C:74FEH         PUBLIC        FT6336_Init
  C:7585H         PUBLIC        _FT6336_RD_Reg
  B:00B0H.7       PUBLIC        FT_RST
  C:766BH         PUBLIC        _FT6336_WR_Reg
  -------         PROC          _FT6336_WR_REG
  X:00AAH         SYMBOL        reg
  X:00ACH         SYMBOL        buf
  X:00AFH         SYMBOL        len
  -------         DO            
  X:00B0H         SYMBOL        i
  X:00B1H         SYMBOL        ret
  -------         ENDDO         
  C:766BH         LINE#         70
  C:767CH         LINE#         71
  C:767CH         LINE#         73
  C:7681H         LINE#         74
  C:7684H         LINE#         75
  C:7689H         LINE#         76
  C:768CH         LINE#         77
  C:7695H         LINE#         78
  C:7698H         LINE#         79
  C:76A9H         LINE#         80
  C:76A9H         LINE#         81
  C:76C0H         LINE#         82
  C:76C8H         LINE#         83
  C:76CAH         LINE#         84
  C:76CAH         LINE#         85
  C:76CAH         LINE#         86
  C:76CAH         LINE#         87
  C:76D2H         LINE#         88
  C:76D5H         LINE#         89
  C:76DAH         LINE#         90
  -------         ENDPROC       _FT6336_WR_REG
  -------         PROC          _FT6336_RD_REG
  X:0007H         SYMBOL        reg
  X:0009H         SYMBOL        buf
BL51 BANKED LINKER/LOCATER V6.22                                                      05/06/2023  16:56:16  PAGE 43


  X:000CH         SYMBOL        len
  -------         DO            
  X:000DH         SYMBOL        i
  -------         ENDDO         
  C:7585H         LINE#         101
  C:7596H         LINE#         102
  C:7596H         LINE#         104
  C:7599H         LINE#         105
  C:759EH         LINE#         106
  C:75A1H         LINE#         107
  C:75AAH         LINE#         108
  C:75ADH         LINE#         109
  C:75B0H         LINE#         110
  C:75B5H         LINE#         111
  C:75B8H         LINE#         112
  C:75C9H         LINE#         113
  C:75C9H         LINE#         114
  C:75EFH         LINE#         115
  C:75F7H         LINE#         116
  -------         ENDPROC       _FT6336_RD_REG
  -------         PROC          FT6336_INIT
  -------         DO            
  X:0000H         SYMBOL        temp
  -------         ENDDO         
  C:74FEH         LINE#         127
  C:74FEH         LINE#         128
  C:74FEH         LINE#         130
  C:7501H         LINE#         131
  C:7504H         LINE#         132
  C:7507H         LINE#         133
  C:7509H         LINE#         134
  C:750EH         LINE#         135
  C:7510H         LINE#         136
  C:7515H         LINE#         142
  C:7528H         LINE#         143
  C:7530H         LINE#         144
  C:7530H         LINE#         145
  C:7533H         LINE#         146
  C:7533H         LINE#         147
  C:7546H         LINE#         148
  C:754EH         LINE#         149
  C:754EH         LINE#         150
  C:7551H         LINE#         151
  C:7551H         LINE#         152
  C:7561H         LINE#         153
  C:7561H         LINE#         154
  C:7564H         LINE#         155
  C:7564H         LINE#         156
  C:7577H         LINE#         157
  C:757FH         LINE#         158
  C:757FH         LINE#         159
  C:7582H         LINE#         160
  C:7582H         LINE#         170
  C:7584H         LINE#         171
  -------         ENDPROC       FT6336_INIT
  -------         PROC          FT6336_SCAN
  -------         DO            
BL51 BANKED LINKER/LOCATER V6.22                                                      05/06/2023  16:56:16  PAGE 44


  X:0000H         SYMBOL        buf
  X:0004H         SYMBOL        i
  X:0005H         SYMBOL        res
  D:0007H         SYMBOL        temp
  X:0006H         SYMBOL        mode
  X:00B2H         SYMBOL        t
  -------         ENDDO         
  C:4772H         LINE#         184
  C:4772H         LINE#         185
  C:4772H         LINE#         187
  C:4777H         LINE#         188
  C:4779H         LINE#         192
  C:477FH         LINE#         193
  C:4792H         LINE#         194
  C:4792H         LINE#         195
  C:47A5H         LINE#         196
  C:47B7H         LINE#         197
  C:47B7H         LINE#         198
  C:47C2H         LINE#         199
  C:47C9H         LINE#         200
  C:47DBH         LINE#         201
  C:47DBH         LINE#         202
  C:47FBH         LINE#         203
  C:481DH         LINE#         204
  C:481DH         LINE#         205
  C:4837H         LINE#         206
  C:4837H         LINE#         207
  C:4837H         LINE#         208
  C:4859H         LINE#         209
  C:4867H         LINE#         210
  C:486AH         LINE#         211
  C:486AH         LINE#         212
  C:489DH         LINE#         213
  C:48ADH         LINE#         214
  C:48B0H         LINE#         215
  C:48B0H         LINE#         216
  C:48E3H         LINE#         217
  C:490BH         LINE#         218
  C:490DH         LINE#         219
  C:490DH         LINE#         220
  C:4933H         LINE#         221
  C:4962H         LINE#         222
  C:4962H         LINE#         223
  C:4962H         LINE#         226
  C:4962H         LINE#         227
  C:496BH         LINE#         228
  C:4971H         LINE#         229
  C:4989H         LINE#         230
  C:498EH         LINE#         231
  C:498EH         LINE#         232
  C:498EH         LINE#         233
  C:4994H         LINE#         234
  C:4994H         LINE#         235
  C:499BH         LINE#         236
  C:499BH         LINE#         237
  C:499EH         LINE#         238
  C:49A0H         LINE#         239
BL51 BANKED LINKER/LOCATER V6.22                                                      05/06/2023  16:56:16  PAGE 45


  C:49A0H         LINE#         240
  C:49A8H         LINE#         241
  C:49AEH         LINE#         242
  C:49B5H         LINE#         243
  C:49B5H         LINE#         244
  C:49B5H         LINE#         245
  C:49C1H         LINE#         246
  C:49C6H         LINE#         247
  -------         ENDPROC       FT6336_SCAN
  -------         ENDMOD        FT6336

  -------         MODULE        TOUCH
  C:0000H         SYMBOL        _ICE_DUMMY_
  D:0090H         PUBLIC        P1
  D:00B0H         PUBLIC        P3
  X:009BH         PUBLIC        tp_dev
  C:7B2AH         PUBLIC        TP_Init
  -------         PROC          TP_INIT
  C:7B2AH         LINE#         77
  C:7B2AH         LINE#         78
  C:7B2AH         LINE#         79
  C:7B30H         LINE#         80
  C:7B30H         LINE#         81
  C:7B33H         LINE#         82
  C:7B33H         LINE#         83
  C:7B41H         LINE#         84
  C:7B43H         LINE#         85
  -------         ENDPROC       TP_INIT
  -------         ENDMOD        TOUCH

  -------         MODULE        SPI
  C:0000H         SYMBOL        _ICE_DUMMY_
  D:0092H         PUBLIC        P1M0
  D:0091H         PUBLIC        P1M1
  D:0090H         PUBLIC        P1
  C:7C65H         PUBLIC        SPI_init
  B:0090H.7       PUBLIC        SCLK
  B:0090H.5       PUBLIC        MOSI
  B:0090H.6       PUBLIC        MISO
  C:7985H         PUBLIC        SPI_ReadByte
  C:7A20H         PUBLIC        _SPI_WriteByte
  -------         PROC          SPI_INIT
  C:7C65H         LINE#         55
  C:7C65H         LINE#         56
  C:7C65H         LINE#         57
  C:7C68H         LINE#         58
  C:7C6BH         LINE#         59
  -------         ENDPROC       SPI_INIT
  -------         PROC          _SPI_WRITEBYTE
  D:0005H         SYMBOL        byte
  -------         DO            
  D:0004H         SYMBOL        i
  -------         ENDDO         
  C:7A20H         LINE#         68
  C:7A22H         LINE#         69
  C:7A22H         LINE#         70
  C:7A24H         LINE#         71
BL51 BANKED LINKER/LOCATER V6.22                                                      05/06/2023  16:56:16  PAGE 46


  C:7A24H         LINE#         72
  C:7A24H         LINE#         73
  C:7A3CH         LINE#         74
  C:7A3CH         LINE#         75
  C:7A3EH         LINE#         76
  C:7A40H         LINE#         78
  C:7A40H         LINE#         79
  C:7A42H         LINE#         80
  C:7A42H         LINE#         81
  C:7A44H         LINE#         82
  C:7A46H         LINE#         83
  C:7A4BH         LINE#         84
  -------         ENDPROC       _SPI_WRITEBYTE
  -------         PROC          SPI_READBYTE
  -------         DO            
  D:0005H         SYMBOL        tmp
  D:0004H         SYMBOL        i
  -------         ENDDO         
  C:7985H         LINE#         86
  C:7985H         LINE#         87
  C:7985H         LINE#         88
  C:7988H         LINE#         89
  C:7988H         LINE#         90
  C:7988H         LINE#         91
  C:798CH         LINE#         92
  C:799FH         LINE#         93
  C:799FH         LINE#         94
  C:79A1H         LINE#         95
  C:79A3H         LINE#         97
  C:79A3H         LINE#         98
  C:79A5H         LINE#         99
  C:79A5H         LINE#         100
  C:79A7H         LINE#         101
  C:79AAH         LINE#         102
  C:79AAH         LINE#         103
  C:79AEH         LINE#         104
  C:79B0H         LINE#         106
  C:79B0H         LINE#         107
  C:79B0H         LINE#         108
  C:79B0H         LINE#         109
  C:79B2H         LINE#         110
  C:79B7H         LINE#         111
  C:79B9H         LINE#         112
  -------         ENDPROC       SPI_READBYTE
  -------         ENDMOD        SPI

  -------         MODULE        ?C?COPY
  C:30A1H         PUBLIC        ?C?COPY
  -------         ENDMOD        ?C?COPY

  -------         MODULE        ?C?CLDPTR
  C:30C7H         PUBLIC        ?C?CLDPTR
  -------         ENDMOD        ?C?CLDPTR

  -------         MODULE        ?C?CLDOPTR
  C:30E0H         PUBLIC        ?C?CLDOPTR
  -------         ENDMOD        ?C?CLDOPTR
BL51 BANKED LINKER/LOCATER V6.22                                                      05/06/2023  16:56:16  PAGE 47



  -------         MODULE        ?C?CSTOPTR
  C:310DH         PUBLIC        ?C?CSTOPTR
  -------         ENDMOD        ?C?CSTOPTR

  -------         MODULE        ?C?IMUL
  C:312FH         PUBLIC        ?C?IMUL
  -------         ENDMOD        ?C?IMUL

  -------         MODULE        ?C?SIDIV
  C:3141H         PUBLIC        ?C?SIDIV
  -------         ENDMOD        ?C?SIDIV

  -------         MODULE        ?C?IILDX
  C:3177H         PUBLIC        ?C?IILDX
  -------         ENDMOD        ?C?IILDX

  -------         MODULE        ?C?ILDPTR
  C:318DH         PUBLIC        ?C?ILDPTR
  -------         ENDMOD        ?C?ILDPTR

  -------         MODULE        ?C?ISTPTR
  C:31B8H         PUBLIC        ?C?ISTPTR
  -------         ENDMOD        ?C?ISTPTR

  -------         MODULE        ?C?LMUL
  C:31D7H         PUBLIC        ?C?LMUL
  -------         ENDMOD        ?C?LMUL

  -------         MODULE        ?C?ULDIV
  C:3262H         PUBLIC        ?C?ULDIV
  -------         ENDMOD        ?C?ULDIV

  -------         MODULE        ?C?SLDIV
  C:78C7H         PUBLIC        ?C?SLDIV
  -------         ENDMOD        ?C?SLDIV

  -------         MODULE        ?C?LSTXDATA
  C:32F4H         PUBLIC        ?C?LSTXDATA
  -------         ENDMOD        ?C?LSTXDATA

  -------         MODULE        ?C?LSTKXDATA
  C:3300H         PUBLIC        ?C?LSTKXDATA
  -------         ENDMOD        ?C?LSTKXDATA

  -------         MODULE        ?C?OFFXADD
  C:3331H         PUBLIC        ?C?OFFXADD
  -------         ENDMOD        ?C?OFFXADD

  -------         MODULE        ?C?ICALL
  C:333DH         PUBLIC        ?C?ICALL
  C:3341H         PUBLIC        ?C?ICALL2
  -------         ENDMOD        ?C?ICALL

  -------         MODULE        PRINTF
  X:0030H         PUBLIC        ?_PRINTF517?BYTE
  X:0030H         PUBLIC        ?_PRINTF?BYTE
BL51 BANKED LINKER/LOCATER V6.22                                                      05/06/2023  16:56:16  PAGE 48


  X:0030H         PUBLIC        ?_SPRINTF517?BYTE
  X:0030H         PUBLIC        ?_SPRINTF?BYTE
  C:3A4AH         PUBLIC        _PRINTF
  C:3A4AH         PUBLIC        _PRINTF517
  C:3A44H         PUBLIC        _SPRINTF
  C:3A44H         PUBLIC        _SPRINTF517
  -------         ENDMOD        PRINTF

  -------         MODULE        RAND
  X:00B7H         PUBLIC        ?SRAND?BYTE
  C:77E6H         PUBLIC        RAND
  C:7824H         PUBLIC        _SRAND
  -------         ENDMOD        RAND

  -------         MODULE        ?C?STRCPY
  C:340FH         PUBLIC        ?C?STRCPY
  -------         ENDMOD        ?C?STRCPY

  -------         MODULE        STRLEN
  C:7BC3H         PUBLIC        _STRLEN
  -------         ENDMOD        STRLEN

  -------         MODULE        ?C?CSTPTR
  C:342CH         PUBLIC        ?C?CSTPTR
  -------         ENDMOD        ?C?CSTPTR

  -------         MODULE        ?C?UIDIV
  C:343EH         PUBLIC        ?C?UIDIV
  -------         ENDMOD        ?C?UIDIV

  -------         MODULE        ?C?LLDXDATA
  C:3493H         PUBLIC        ?C?LLDXDATA
  -------         ENDMOD        ?C?LLDXDATA

  -------         MODULE        ?C?PLDIXDATA
  C:349FH         PUBLIC        ?C?PLDIXDATA
  -------         ENDMOD        ?C?PLDIXDATA

  -------         MODULE        ?C?PSTXDATA
  C:34B6H         PUBLIC        ?C?PSTXDATA
  -------         ENDMOD        ?C?PSTXDATA

  -------         MODULE        ?C?CCASE
  C:34BFH         PUBLIC        ?C?CCASE
  -------         ENDMOD        ?C?CCASE

  -------         MODULE        PUTCHAR
  C:7A9FH         PUBLIC        _PUTCHAR
  -------         ENDMOD        PUTCHAR

Program Size: data=15.1 xdata=187 code=31860
LINK/LOCATE RUN COMPLETE.  0 WARNING(S),  0 ERROR(S)
