:020000040800F2
:100000002007002439030008A13B0008053400083C
:10001000450300082F040008CD4D00080000000033
:10002000000000000000000000000000DB420008AB
:100030006507000800000000A33B0008E144000839
:100040005303000853030008530300085303000838
:100050005303000853030008530300085303000828
:100060005303000853030008530300085303000818
:100070005303000853030008530300085303000808
:1000800053030008530300085303000853030008F8
:1000900053030008530300085303000853030008E8
:1000A00053030008530300085303000853030008D8
:1000B00053030008530300085303000853030008C8
:1000C00053030008530300085303000853030008B8
:1000D00053030008530300085303000853030008A8
:1000E00053030008530300080000000053030008F6
:1000F0005303000853030008530300085303000888
:100100005303000853030008530300085303000877
:100110005303000853030008530300085303000867
:100120005303000853030008530300085303000857
:100130005303000853030008530300085303000847
:1001400000000000000000000000000000000000AF
:100150005303000853030008530300085303000827
:100160005303000853030008530300085303000817
:100170005303000853030008530300080000000065
:1001800053030008530300085303000853030008F7
:1001900053030008530300085303000853030008E7
:1001A00053030008530300085303000853030008D7
:1001B00053030008530300085303000853030008C7
:1001C00053030008530300085303000853030008B7
:1001D00053030008530300085303000853030008A7
:1001E0005303000853030008530300085303000897
:1001F0005303000853030008530300085303000887
:100200005303000853030008530300085303000876
:100210005303000853030008530300085303000866
:1002200053030008530300085303000800000000B4
:1002300053030008530300080000000053030008A4
:100240005303000853030008530300085303000836
:100250005303000853030008530300085303000826
:100260005303000853030008530300085303000816
:100270005303000853030008530300080000000064
:1002800053030008000000005303000800000000B2
:10029000000000005303000800F002F800F03CF8F2
:1002A0000AA090E8000C82448344AAF10107DA45D1
:1002B00001D100F031F8AFF2090EBAE80F0013F0E7
:1002C000010F18BFFB1A43F001031847C074000068
:1002D000E0740000103A24BF78C878C1FAD85207F9
:1002E00024BF30C830C144BF04680C6070470000B0
:1002F0000023002400250026103A28BF78C1FBD82F
:10030000520728BF30C148BF0B6070471FB505F0CA
:1003100019F81FBD10B510BD00F054F81146FFF7D5
:10032000F5FF04F040FE00F072F803B4FFF7F2FFAF
:1003300003BC00F075F800000948804709480047F1
:10034000FEE7FEE7FEE7FEE7FEE7FEE7FEE7FEE785
:10035000FEE7FEE704480549054A064B70470000E2
:10036000E944000899020008200100242007002425
:10037000200300242003002410B5431C02E010F8E1
:10038000011B71B18107FAD14FF0013202C88C1AFA
:100390008C4314EAC211F9D0C01A0A0603D0C01E59
:1003A00010BDC01A10BD0A0401D0801E10BD090284
:1003B000FCD0401E10BD7047704770470048704722
:1003C000C00000247546FFF7F9FFAE4605006946F8
:1003D000534620F00700854618B020B5FFF7BAFF56
:1003E000BDE820404FF000064FF000074FF0000836
:1003F0004FF0000B21F00701AC46ACE8C009ACE8B7
:10040000C009ACE8C009ACE8C0098D46704710B51A
:100410000446AFF300802046BDE81040FFF785BFDB
:1004200001491820ABBEFEE726000200704700BF5E
:10043000FEE7000010B503F025FE03F0D5FD0348EC
:10044000006840F004000149086010BD9CEF00E026
:100450000EB5AA488079012803D0A84880790328DE
:100460007ED14FF6FF7002F0CFFF1F200090A3480F
:100470004088401E83B214220021084603F094F8FD
:100480004FF6FF709E490880012010219DA21F2376
:10049000CDE9002102904FF6FF720821022003F0FF
:1004A0001DFF0120102198A21F23CDE900210290F9
:1004B0004FF6FF721821022003F010FF01201021D7
:1004C00092A21F23CDE9002102904FF6FF7228214E
:1004D000022003F003FF012010218DA21F23CDE98C
:1004E000002102904FF6FF723821022003F0F6FE41
:1004F0000020102187A24FF6E073CDE90021029081
:100500004FF478420321162003F0E8FE0120182161
:1005100084A24FF6E073CDE9002102901F2213213F
:10052000162003F0DBFE0120202181A24FF6E073AC
:10053000CDE90021029000222F21162003F0CEFEEB
:1005400040F2DC5004F0B2FC002000906B48408880
:10055000401E83B269480088401E82B2002100E03C
:100560002CE0152003F020F80020102169A24FF69E
:10057000E073CDE9002102904FF478420321162068
:1005800003F0ACFE0120182166A24FF6E073CDE91E
:10059000002102901F221321162003F09FFE01204C
:1005A000202163A24FF6E073CDE9002102904FF6BF
:1005B000FF722F21162003F091FE9AE05FA000F059
:1005C0001BF90020102160A24FF6E073CDE9002155
:1005D00002904FF478421A21022003F07FFE01209E
:1005E00018215CA24FF6E073CDE9002102901F2292
:1005F0002A21022003F072FE012018214AA24FF6A0
:10060000E073CDE9002102901F224221022003F075
:1006100065FE0120202151A24FF6E073CDE90021B3
:10062000029000225A21022003F058FE01202021CE
:100630003DA24FF6E073CDE90021029000227A211D
:10064000022003F04BFE40F2DC5004F02FFC0020AF
:1006500000902A484088401E83B228480088401EE7
:1006600082B21521002002F09FFF0020102136A247
:100670004FF6E073CDE9002102904FF478421A2141
:10068000022003F02BFE0120182132A24FF6E07366
:10069000CDE9002102901F222A21022003F01EFE34
:1006A0000120182120A24FF6E073CDE9002102902D
:1006B0001F224221022003F011FE0120202127A247
:1006C0004FF6E073CDE9002102904FF6FF725A21F8
:1006D000022003F003FE0120202113A24FF6E07355
:1006E000CDE9002102904FF6FF727A21022003F03B
:1006F000F5FD4FF4966004F0D9FB0EBD28000024F0
:1007000022000024D6D00000CEC40000CFD40000C8
:10071000CABE0000C8ABB6AFB5E7D7D3BBB6D3AD42
:10072000C4FA0000D6D0CEC4B2E2CAD400000000A1
:10073000D7D6CCE5B2E2CAD400000000D6D0CEC4F1
:10074000CFD4CABE00000000C8ABB6AFB5E7D7D360
:1007500000000000D6D0CEC400000000D7D6CCE503
:1007600000000000704700002DE9F04106460F46EA
:1007700014461D464FF6FF701E4908803B46224630
:100780003946304602F08AFE2B463246394630461C
:1007900002F084FE48F21040164908806A1E93B2A7
:1007A00091B2721C90B2224602F078FE44F2082008
:1007B000104908802B4622462946304602F06EFE3C
:1007C00048F210400B490880631E9AB27B1C99B214
:1007D000631E98B22B4602F061FE44F208200549E0
:1007E00008802B4622463946204602F057FEBDE8D7
:1007F000F0810000220000243EB504464FF6FF7051
:1008000002F002FE1F2000900B48028814230021F2
:10081000084602F0C9FE4FF6FF7008490880012023
:1008200010211F234FF6FF72CDE9004102900221F3
:10083000002000F025FD3EBD2800002422000024F9
:100840002DE9F04704460D4616461F46DDE90889A6
:100850003B4632462946204602F020FE4B464246A1
:100860003946304602F01AFE2B462246494640469B
:1008700002F014FEBDE8F0870EB5DA488079012851
:1008800003D0D848807903287ED14FF6FF7002F05C
:10089000BBFD1F200090D3484088401E83B2142225
:1008A0000021084602F080FE4FF6FF70CE49088016
:1008B00001201021CDA21F23CDE9002102904FF687
:1008C000FF720821022003F009FD01201021C8A2B7
:1008D0001F23CDE9002102904FF6FF72182102205C
:1008E00003F0FCFC01201021C2A21F23CDE900214E
:1008F00002904FF6FF722821022003F0EFFC012046
:100900001021BDA21F23CDE9002102904FF6FF72F6
:100910003821022003F0E2FC00200C21B7A24FF4A2
:10092000FC63CDE9002102901F22162003F0D6FCC3
:1009300001200C21B7A24FF6E073CDE9002102900F
:100940001F221821162003F0C9FC00201021B7A295
:100950004FF6E073CDE9002102901F2228211620D6
:1009600003F0BCFC01201021B5A24FF6E073CDE9E5
:10097000002102901F223821162003F0AFFC40F224
:10098000DC5004F093FA00E041E00020009095482C
:100990004088401E83B293480088401E82B20021E6
:1009A000152002F001FE00200C2194A24FF4FC63FC
:1009B000CDE9002102901F22162003F08FFC0120B8
:1009C0000C2194A24FF6E073CDE9002102901F2282
:1009D0001821162003F082FC0020102193A24FF66C
:1009E000E073CDE9002102901F222821162003F098
:1009F00075FC0120102192A24FF6E073CDE9002191
:100A000002901F223821162003F068FCE4E091A038
:100A1000FFF7F2FE00200C2191A24FF4FC63CDE918
:100A2000002102901F222221022003F057FC012006
:100A30000C218FA24FF6E073CDE9002102901F2216
:100A40002E21022003F04AFC00200C218CA24FF63C
:100A50000743CDE9002102901F223A21022003F032
:100A60003DFC01200C218AA24FF6E073CDE9002164
:100A700002901F224621022003F030FC00201021AA
:100A800087A24FF4FC63CDE9002102901F2256217A
:100A9000022003F023FC0120102184A24FF6E07312
:100AA000CDE9002102901F226621022003F016FCEE
:100AB0000020102180A24FF60743CDE900210290CB
:100AC0001F227621022003F009FC012010217DA2C3
:100AD0004FF6E073CDE9002102901F22862102200B
:100AE00003F0FCFB40F2DC5004F0E0F90020009041
:100AF0003C484088401E83B23A480088401E82B27B
:100B00001521002002F050FD00200C2154A24FF4CA
:100B1000FC63CDE9002102901F222221022003F074
:100B2000DDFB01200C2152A24FF6E073CDE900213C
:100B300002901F222E21022003F0D0FB00200C2166
:100B40004FA24FF60743CDE9002102901F223A2120
:100B5000022003F0C3FB01200C214DA24FF6E073ED
:100B6000CDE9002102901F224621022003F0B6FBAE
:100B7000002010214AA24FF4FC63CDE9002102902D
:100B80001F225621022003F0A9FB0120102147A2B9
:100B90004FF6E073CDE9002102901F22662102206A
:100BA00003F09CFB0020102143A24FF60743CDE940
:100BB000002102901F227621022003F08FFB0120EA
:100BC000102140A24FF6E073CDE9002102901F22D0
:100BD0008621022003F082FB4FF4966004F066F950
:100BE0000EBD00002800002422000024D3A2000033
:100BF000CEC40000CFD40000CABE00003658313247
:100C00003A61626364654142434445303132333472
:100C100035000000365831323A7E21402324255ECB
:100C2000262A28295F2B7B7D3A0000003858313670
:100C30003A61626364414243443031323300000020
:100C4000385831363A7E21402324255E262A282929
:100C500000000000D3A2CEC4CFD4CABE0000000062
:100C6000365831323A61626364656667000000009D
:100C7000365831323A41424344454647000000006D
:100C8000365831323A3031323334353600000000D4
:100C9000365831323A7E21402324255E0000000080
:100CA000385831363A61626364650000385831362D
:100CB0003A41424344450000385831363A303132E7
:100CC00033000000385831363A7E214023000000BE
:100CD0002DE9FF4F85B000260027BDF81800BDF8AC
:100CE0002010884207DD08A906A804F0CFF807A95C
:100CF00005A804F0CBF8BDF82000BDF84C108842E0
:100D000007DD08A913A804F0C1F807A912A804F088
:100D1000BDF8BDF81800BDF82010884207DD08A90D
:100D200006A804F0B3F807A905A804F0AFF8BDF8C9
:100D30001800BDF84C10884238D1BDF8140003905B
:100D40000490BDF81C00BDF81010884203DABDF80D
:100D50001C00049008E0BDF81C00BDF80C1088428F
:100D600002DDBDF81C000390BDF84800BDF810106E
:100D7000884203DABDF84800049008E0BDF8480056
:100D8000BDF80C10884202DDBDF8480003905348BE
:100D900000880090BDF81830BDF80C201946BDF849
:100DA000100002F001FC09B0BDE8F08FBDF81C0096
:100DB000BDF81410A0EB010BBDF82000BDF8181011
:100DC000401A0290BDF84800BDF81410451ABDF84D
:100DD0004C00BDF81810A0EB0109BDF84800BDF8A3
:100DE0001C10A0EB010ABDF84C00BDF82010401A01
:100DF0000190BDF82000BDF84C10884202D1BDF82A
:100E0000208004E0BDF82000401E1FFA80F8BDF8E5
:100E1000184027E0029896FBF0F0BDF81410084443
:100E200080B2049097FBF9F0BDF81410084480B22A
:100E300003905E442F44BDF81000BDF80C108842AA
:100E400003DD03A904A804F021F824480088234600
:100E50000090BDF80C202146BDF8100002F0A4FB64
:100E6000601C84B24445D5DDBDF82000201A00FB8B
:100E70000AF6BDF81800201A00FB05F727E00198D4
:100E800096FBF0F0BDF81C10084480B2049097FB6C
:100E9000F9F0BDF81410084480B2039056442F4472
:100EA000BDF81000BDF80C10884203DD03A904A8AA
:100EB00003F0ECFF0948008823460090BDF80C20A1
:100EC0002146BDF8100002F06FFB601C84B2BDF833
:100ED0004C008442D3DD00BF65E7000022000024FF
:100EE0002DE9FC5F0546884691469A46DDF830B00C
:100EF00000954020019000245FE004EB0410374986
:100F000011F810009BF80010884253D104EB041034
:100F1000324901EB400040789BF80110884249D1EA
:100F200008F10F0083B205F10F0082B24146284656
:100F300002F0B4FC00263BE0002734E00D9890B9A5
:100F400004EB0410254901EB4000801C805D8021EA
:100F50003941084018B1484602F006FE21E05046EB
:100F600002F002FE1DE01E48A0F8009004EB041001
:100F70001A4901EB4000801C805D80213941084006
:100F800018B14146284602F0E1FA681C85B2009883
:100F9000281A102805D1009D08F101001FFA80F8D9
:100FA00003E0781CC7B2082FC8DB00BF701CC6B2B4
:100FB000202EC1DB00BF601C84B2019884429CDB00
:100FC00008484088401E83B206480088401E82B20E
:100FD0000021084602F062FCBDE8FC9FE25D0008CB
:100FE00022000024280000242DE9FC5F05468846E5
:100FF00091469A46DDF830B0009507200190002414
:1010000067E004EB840000EB44103A4911F810004B
:101010009BF80010884259D104EB840000EB441087
:10102000344901EB400040789BF8011088424DD1D3
:1010300008F1170083B205F1170082B24146284635
:1010400002F02CFC00263FE0002738E00D98A0B904
:1010500004EB840000EB4410264901EB4000801CA7
:10106000805D80213941084018B1484602F07CFD7E
:1010700023E0504602F078FD1FE01F48A0F80090E2
:1010800004EB840000EB44101A4901EB4000801C83
:10109000805D80213941084018B14146284602F060
:1010A00055FA681C85B20098281A182805D1009DA9
:1010B00008F101001FFA80F803E0781CC7B2082F7E
:1010C000C4DB00BF701CC6B2482EBDDB00BF601C75
:1010D00084B20198844294DB08484088401E83B261
:1010E00006480088401E82B20021084602F0D6FB66
:1010F000BDE8FC9F6266000822000024280000244E
:101100002DE9FC5F0546884691469A46DDF830B0E9
:1011100000950420019000245FE004EB841037491F
:1011200011F810009BF80010884253D104EB841092
:10113000324901EB400040789BF80110884249D1C8
:1011400008F11F0083B205F11F0082B24146284614
:1011500002F0A4FB00263BE0002734E00D9890B994
:1011600004EB8410254901EB4000801C805D802148
:101170003941084018B1484602F0F6FC21E05046DB
:1011800002F0F2FC1DE01E48A0F8009004EB841071
:101190001A4901EB4000801C805D802139410840E4
:1011A00018B14146284602F0D1F9681C85B2009872
:1011B000281A202805D1009D08F101001FFA80F8A7
:1011C00003E0781CC7B2082FC8DB00BF701CC6B292
:1011D000802EC1DB00BF601C84B2019884429CDB7E
:1011E00008484088401E83B206480088401E82B2EC
:1011F0000021084602F052FBBDE8FC9F6868000829
:10120000220000242800002470B505460E4614462E
:101210003146284602F038FB204602F0A5FC70BD9E
:101220002DE9F04706460F46154607F1270083B221
:1012300006F1270082B23946304602F02FFB002427
:101240000AE015F8149005EB440090F8018049EA93
:10125000082002F089FC641CB4F5C86FF1DB074874
:101260004088401E83B205480088401E82B200219B
:10127000084602F013FBBDE8F087000028000024B8
:101280002DE9FE4F0E4617469846DDE90D9A0C9C57
:101290002046FFF771F885B208490988A1EBC5001F
:1012A00000EBD071C1F34F0B43463A4631465846E6
:1012B0008DE8100603F012F8BDE8FE8F2800002428
:1012C0000348006840F001000149086070470000D1
:1012D00020040058F8B502460B46002100260024E1
:1012E0000020824D00BFFCE0012707FA01F61F68CD
:1012F00007EA0604B4427CD15F68022F02D05F681F
:10130000122F1AD14FEAD10C02F1200757F82C0006
:101310004F074FEAD76C0F2707FA0CF7B8434FEA8D
:10132000417C4FEADC6C1F6907FA0CF738434FEA3F
:10133000D10C02F1200747F82C0010684FEA410C4D
:10134000032707FA0CF7B8431F7907F003074FEAA2
:10135000410C07FA0CF7384310605F68012F08D082
:101360005F68022F05D05F68112F02D05F68122FCF
:1013700017D190684FEA410C032707FA0CF7B843DE
:101380004FEA410CDF6807FA0CF738439060506869
:1013900001278F40B8431F79C7F300178F403843A8
:1013A0005060D0684FEA410C032707FA0CF7B843A6
:1013B0004FEA410C9F6807FA0CF73843D0605F682A
:1013C00007F08057B7F1805F95D100BF484F3F6865
:1013D00047F00207DFF818C1CCF8007067463F6895
:1013E00007F00207009700BF00BF424F4FEA910C81
:1013F00000E075E057F82C008F074FEA177C0F27A5
:1014000007FA0CF7B8433C4FBA4201D100272DE050
:101410003A4FBA4201D1012728E0394FBA4201D1EF
:10142000022723E0374FBA4201D103271EE0364F8F
:10143000BA4201D1042719E0344FBA4201D105273D
:1014400014E0334FBA4201D106270FE0314FBA42C0
:1014500001D107270AE0304FBA4201D1082705E041
:101460002E4FBA4201D1092700E00A274FEA817CBA
:101470004FEA1C7C07FA0CF738431E4F4FEA910CD9
:1014800047F82C002868A0435F6807F48037B7F559
:10149000803F00D1204328606868A0435F6807F45C
:1014A0000037B7F5003F00D1204368604FF0B047E8
:1014B0003868A0435F6807F48017B7F5801F00D134
:1014C00020434FF0B04738607868A0435F6807F466
:1014D0000017B7F5001F00D120434FF0B0477860E8
:1014E000491C1029FFF400AFF8BD0000800000582F
:1014F000F44402580804005800000258000402583E
:1015000000080258000C025800100258001402583B
:1015100000180258001C02580020025800240258EB
:101520000AB1018300E04183704700000148006870
:101530007047000018000024034800680349097838
:101540000844014908607047180000242000002466
:1015500010B5032000F06EF80F2000F007F808B176
:10156000012010BD00F028F80020FAE770B504460D
:101570000E4800784FF47A71B1FBF0F00C4909681D
:10158000B1FBF0F5284601F023FF08B1012070BD42
:10159000102C07D200222146501E00F00EF80548FC
:1015A000046001E00120F2E70020F0E720000024C1
:1015B000000000241C00002470472DE9F05F8046E5
:1015C0000D46164603F004FC074639462A463346C4
:1015D00001F00700C0F1070ABAF1040F02D94FF079
:1015E000040A01E0C0F1070AD14600F1040ABAF189
:1015F000070F02D24FF0000A01E0A0F1030AD4461F
:101600004FF0010A0AFA09FAAAF1010A0AEA020AE3
:101610000AFA0CFA4FF0010B0BFA0CFBABF1010BC1
:101620000BEA030B4AEA0B042146404603F0D8FBC1
:10163000BDE8F09F00BF00F00702064B19684FF6A7
:10164000FF031940044B0B4343EA0221014B19608D
:1016500000BF70470CED00E00000FA052DE9F041F5
:10166000044600250026206800F00060B0F1006FFD
:1016700030D1606E48B1B0F5801F0DD0B0F5001FBD
:1016800010D0B0F5401F15D113E0F948006840F4C0
:101690000030F74908600FE00221201D02F020FB16
:1016A000054609E0022104F1240002F0B1FB0546E1
:1016B00002E001E0012500BF00BF55B9EC4824302D
:1016C000006820F44010616E0843E9492431086045
:1016D00000E02E43208800F48070B0F5807F2DD18B
:1016E000606D05281AD2DFE800F0030A1017180011
:1016F000DF48006840F40030DD49086010E0002158
:10170000201D02F0EDFA05460AE0002104F1240054
:1017100002F07EFB054603E002E001E0012500BF88
:1017200000BF55B9D2482430006820F00700616D31
:101730000843CF492431086000E02E43208800F49C
:101740000070B0F5007F33D1A06D802817D003DC86
:1017500040B140281CD10CE0C02817D0B0F5807FE4
:1017600016D114E0C248006840F40030C049086057
:1017700010E00021201D02F0B3FA05460AE0002126
:1017800004F1240002F044FB054603E002E001E01E
:10179000012500BF00BF55B9B5482430006820F4CA
:1017A000E070A16D0843B2492431086000E02E4387
:1017B000208800F48060B0F5806F38D1D4F8A400A0
:1017C000B0F5800F19D004DC50B1B0F5001F1DD169
:1017D0000DE0B0F5C00F17D0B0F5000F16D114E032
:1017E000A348006840F40030A149086010E00021DF
:1017F000201D02F075FA05460AE0002104F12400DC
:1018000002F006FB054603E002E001E0012500BF0F
:1018100000BF5DB996482C30006820F46000D4F811
:10182000A410084392492C31086000E02E43208820
:1018300000F40060B0F5006F38D1D4F8A800B0F122
:10184000007F19D004DC50B1B0F1807F1DD10DE0D4
:10185000B0F1407F17D0B0F1806F16D114E084480A
:10186000006840F400308249086010E00021201D2B
:1018700002F036FA05460AE0002104F1240002F0E5
:10188000C7FA054603E002E001E0012500BF00BF02
:101890005DB977482C30006820F0E060D4F8A810DB
:1018A000084373492C31086000E02E43206800F0A3
:1018B0000070B0F1007F27D1A06CA0B1102804D037
:1018C000202809D030280FD10CE06948006840F486
:1018D00000306749086009E00221201D02F000FA8B
:1018E000054603E002E001E0012500BF00BF55B955
:1018F0005F482030006820F03000A16C08435C494C
:101900002031086000E02E43208800F48050B0F5BC
:10191000805F36D1E06DB0F5005F19D004DC50B1C6
:10192000B0F5805F1DD10DE0B0F5405F17D0B0F588
:10193000804F16D114E04E48006840F400304C4906
:10194000086010E00021201D02F0CAF905460AE0F7
:10195000002104F1240002F05BFA054603E002E0F6
:1019600001E0012500BF00BF55B94148243000689F
:1019700020F4E040E16D08433D492431086000E077
:101980002E43208800F40050B0F5005F34D1206E63
:10199000B0F5403F1DD007DC68B1B0F5803F0BD0FB
:1019A000B0F5003F18D10DE0B0F5802F12D0B0F5A2
:1019B000A02F11D10FE011E00121201D02F090F9BC
:1019C00005460BE0012104F1240002F021FA05464E
:1019D00004E003E002E001E0012500BF00BF55B9CB
:1019E00023482430006820F4E020216E0843204979
:1019F0002431086000E02E43208800F48040B0F5D8
:101A0000804F38D1D4F8AC00B0F1405F1DD007DC76
:101A100068B1B0F1805F0BD0B0F1005F18D10DE07C
:101A2000B0F1804F12D0B0F1A04F11D10FE011E012
:101A30000121201D02F054F905460BE0012104F1BB
:101A4000240002F0E5F9054604E003E002E001E0CD
:101A5000012500BF00BF6DB905482C30006820F09B
:101A6000E040D4F8AC10084301492C31086002E092
:101A70002C4402582E43208800F40040B0F5004F5B
:101A800026D1E06E98B1B0F1805F03D0B0F1005F75
:101A90000ED106E0FA48006840F40030F8490860CA
:101AA00008E00121201D02F01BF9054602E001E0DB
:101AB000012500BF00BF55B9F1482430006820F06F
:101AC0004050E16E0843EE492431086000E02E43A7
:101AD000206800F08070B0F1807F27D1606CA0B1E9
:101AE000012804D0022809D003280FD10CE0E448D3
:101AF000006840F40030E249086009E00221201D3E
:101B000002F0EEF8054603E002E001E0012500BF27
:101B100000BF55B9DA482030006820F00300616C3E
:101B20000843D7492031086000E02E43206800F4C4
:101B30008000B0F5800F7DD1D248006840F48070FD
:101B4000D0490860FFF7F2FC074606E0FFF7EEFC1D
:101B5000C01B642801D9032505E0CA48006800F4C9
:101B600080700028F2D000BF8DBBC54844300068AB
:101B700000F44070B4F8B01001F44071884214D001
:101B8000BF484430006820F44078BD4844300068C5
:101B900040F48030BA49443108600846006820F4B7
:101BA000803008600846C0F80080D4F8B000B0F576
:101BB000807F15D1FFF7BAFC074609E0FFF7B6FCB6
:101BC000C01B41F28831884202D9032507E038E082
:101BD000AB4844300068C0F340000028EED000BF9E
:101BE0004DBB00BFB4F8B00000F44070B0F5407FCA
:101BF0000ED1A3481C38006820F47C51A24AD4F8C6
:101C0000B000104041EA10109D491C39086007E0FF
:101C10009B481C38006820F47C5099491C390860A6
:101C2000974844300068B4F8B010C1F30B01084382
:101C3000934901E006E002E04431086002E02E43EF
:101C400000E02E43207800F0010068B3A06F182850
:101C500019D005DC48B1082808D0102816D10BE0AF
:101C6000202811D0282811D10FE011E00121201DDA
:101C700002F036F805460BE0012104F1240002F0E1
:101C8000C7F8054604E003E002E001E0012500BFDB
:101C900000BF55B97A482830006820F03800A16F9D
:101CA000084377492831086000E02E43207800F08F
:101CB0000200022828D1606F062815D2DFE800F064
:101CC00003040A11121311E00121201D02F008F88B
:101CD00005460BE0012104F1240002F099F80546C5
:101CE00004E003E002E001E0012500BF00BF55B9B8
:101CF00063482830006820F00700616F084360499E
:101D00002831086000E02E43207800F00400042809
:101D10002AD1D4F89000062815D2DFE800F0030499
:101D20000A11121311E00121201D01F0D9FF05460F
:101D30000BE0012104F1240002F06AF8054604E0FA
:101D400003E002E001E0012500BF00BF5DB94C489F
:101D50002C30006820F00700D4F890100843484960
:101D60002C31086000E02E43207800F0200020286D
:101D700036D1D4F88C00B0F1405F1DD007DC68B1DB
:101D8000B0F1805F0BD0B0F1005F18D10DE0B0F181
:101D9000804F12D0B0F1A04F11D10FE011E000211F
:101DA000201D01F09DFF05460BE0022104F12400F7
:101DB00002F02EF8054604E003E002E001E0012510
:101DC00000BF00BF5DB92E482830006820F0E04019
:101DD000D4F88C1008432A492831086000E02E43CB
:101DE000207800F04000402836D1D4F89800B0F5B3
:101DF000406F1DD007DC68B1B0F5806F0BD0B0F537
:101E0000006F18D10DE0B0F5805F12D0B0F5A05F83
:101E100011D10FE011E00021201D01F061FF054606
:101E20000BE0022104F1240001F0F2FF054604E07A
:101E300003E002E001E0012500BF00BF5DB91048EA
:101E40002C30006820F4E050D4F8981008430C4976
:101E50002C31086000E02E43207800F080008028BC
:101E60003BD1D4F89C00B0F5C04F24D00EDCA0B11B
:101E7000B0F5005F12D0B0F5804F1FD114E0000024
:101E80002C44025800480258FFFCFF0FB0F5004FE9
:101E900012D0B0F5204F11D10FE011E00021201D2C
:101EA00001F01EFF05460BE0022104F1240001F0C1
:101EB000AFFF054604E003E002E001E0012500BFBA
:101EC00000BF4DB9B248006820F46040D4F89C10BF
:101ED0000843AF49086000E02E43207800F0080076
:101EE000082816D1D4F88000B0F5805F06D1022111
:101EF00004F1240001F08CFF06430AE0A448001F0F
:101F0000006820F44050D4F880100843A049091F0D
:101F10000860207800F01000102814D1D4F8940044
:101F2000B0F5807F06D1022104F1240001F070FF9A
:101F3000064308E09648006820F44070D4F89410F6
:101F4000084393490860206800F40020B0F5002F92
:101F500026D1D4F8A00030B1B0F5803F09D0B0F55B
:101F6000003F0ED10CE00021201D01F0B9FE054616
:101F700009E0022104F1240001F04AFF054602E0D5
:101F800001E0012500BF00BF4DB98148006820F481
:101F90004030D4F8A01008437D49086000E02E438B
:101FA000206800F48020B0F5802F2DD1D4F8840073
:101FB000B0F5801F06D0B0F5001F0CD0B0F5401F63
:101FC00011D10FE072482C38006840F4003070499D
:101FD0002C39086009E0012104F1240001F018FF08
:101FE000054602E001E0012500BF00BF5DB9684879
:101FF000001F006820F44010D4F88410084364499E
:10200000091F086000E02E43206800F48030B0F51E
:10201000803F24D1E06C18B1B0F5803F0FD108E0CB
:102020005B482C38006840F4003059492C3908606E
:1020300007E00221201D01F053FE054601E00125C5
:1020400000BF00BF55B952480C38006820F48030FA
:10205000E16C08434E490C39086000E02E432068CB
:1020600000F00050B0F1005F05D1022104F124001E
:1020700001F0CEFE0643206800F40030B0F5003FCA
:1020800027D1E06FA0B1B0F5807F06D0B0F5007F1A
:102090000CD0B0F5407F0CD109E03D482C380068E9
:1020A00040F400303A492C39086004E003E002E0D3
:1020B00001E0012500BF00BF55B93548001F006889
:1020C00020F44070E16F08433149091F086000E0C7
:1020D0002E43206800F48010B0F5801F09D12C48F1
:1020E0000838006820F00040216F0843284908396B
:1020F0000860206800F08050B0F1805F0AD1244869
:102100004838006820F48040D4F8B41008432049CF
:1021100048390860206800F40010B0F5001F09D1AC
:102120001B480838006820F08070A16E08431849E9
:1021300008390860206800F08040B0F1804F11D16C
:1021400000BF13484838006820F40040104948395F
:10215000086008460068D4F8B81008430C494839AC
:10216000086000BF206800F00040B0F1004F09D1C6
:1021700007480C38006820F04050216D084304499E
:102180000C39086016B90020BDE8F0810120FBE79A
:102190005844025870B504460D4600268D48006824
:1021A00000F00700A8420ED28A48006820F007001D
:1021B0002843884908600846006800F00700A842E4
:1021C00001D0012070BD207800F00200022807D164
:1021D0008148006820F00F00E16808437E490860EC
:1021E000207800F00100002851D07B48006820F4DE
:1021F0007060A1680843784908606068022807D1C8
:10220000754818380068C0F34040F8B90120D9E794
:102210006068032807D1704818380068C0F3406030
:10222000A0B90120CEE76068012807D16A481838B4
:102230000068C0F3002048B90120C3E76648183899
:102240000068C0F3800008B90120BBE76248083885
:10225000006820F00700616808435F49083908609A
:10226000FFF764F906466068022811D108E0FFF71D
:102270005DF9801B41F28831884201D90320A1E732
:1022800055480838006800F038001028EFD13AE0CF
:102290006068032811D108E0FFF748F9801B41F27C
:1022A0008831884201D903208CE74B480838006800
:1022B00000F038001828EFD125E06068012811D11E
:1022C00008E0FFF733F9801B41F28831884201D9D9
:1022D000032077E740480838006800F038000828F5
:1022E000EFD110E008E0FFF721F9801B41F28831BF
:1022F000884201D9032065E737480838006800F0B4
:1023000038000028EFD13348006800F00700A842E9
:102310000ED93048006820F0070028432D49086096
:102320000846006800F00700A84201D0012049E7F4
:10233000207800F00400042807D12748006820F026
:1023400070002169084324490860207800F00800E3
:10235000082809D12048001D006820F0700061693C
:1023600008431D49091D0860207800F0100010285E
:1023700009D11948001D006820F4E060A1690843F4
:102380001549091D0860207800F02000202809D197
:1023900011480830006820F07000E16908430E49D8
:1023A0000831086000F01EF80B49096801F47061FB
:1023B0004FF4807292FAA2F2B2FA82F2D140074A46
:1023C000515CC840064908600F20FFF7CFF8002095
:1023D000F8E600000020005218440258A06A0008E5
:1023E0000000002470B5012500EE905A0022012162
:1023F00000230024DFED861AB0EE610ADFED841AB7
:10240000B0EE611A0020834D2D6805F0380535B116
:10241000082D15D0102D15D0182D7CD114E07D4D30
:10242000103D2D68C5F3401545B17A4D103D2D681E
:10243000C5F3C106784D25FA06F000E07648E5E0E0
:102440007648E3E07648E1E0724D18352D6805F0F6
:102450000302704D18352D68C5F305116D4D1C35FF
:102460002D6805F001036B4D24352D68C5F3CC05AF
:1024700015FB03F501EE905AF8EE611AB0EE610A11
:1024800022B1012A4FD0022A7DD16BE0614D103D6F
:102490002D68C5F340152DB35E4D103D2D68C5F375
:1024A000C1065D4D25FA06F4B4FBF1F501EE905A34
:1024B000B8EE612ADFED5B1AC0EE212A554D2035BA
:1024C0002D68C5F3080501EE905AF8EE611A72EE18
:1024D000A11AF7EE002A71EEA21A62EE211AB0EEEE
:1024E000611A1FE04C4DB5FBF1F501EE905AB8EEC4
:1024F000612ADFED4C1AC0EE212A464D20352D68A9
:10250000C5F3080501EE905AF8EE611A72EEA11AB1
:10251000F7EE002A00E077E071EEA21A62EE211ACF
:10252000B0EE611A5EE03D4DB5FBF1F501EE905A5B
:10253000B8EE612ADFED3B1AC0EE212A354D203579
:102540002D68C5F3080501EE905AF8EE611A72EE97
:10255000A11AF7EE002A71EEA21A62EE211AB0EE6D
:10256000611A3FE02E4DB5FBF1F501EE905AB8EE41
:10257000612ADFED2C1AC0EE212A264D20352D6868
:10258000C5F3080500E00EE001EE905AF8EE611A7E
:1025900072EEA11AF7EE002A71EEA21A62EE211A6B
:1025A000B0EE611A1EE01D4DB5FBF1F501EE905A3B
:1025B000F8EE612ADFED1B1A80EE212A154D203539
:1025C0002D68C5F3080501EE905AF8EE611A72EE17
:1025D000211AB7EE002A71EE821A62EEA11AB0EE4D
:1025E000611A00BF00BF0B4D20352D68C5F346258D
:1025F0006D1C00EE905AF8EE601A81EE212AFCEE76
:10260000C21A11EE900A01E0044800BF00BF70BD7D
:1026100000000000104402580090D00300093D0063
:1026200040787D010000004670B504460025207802
:1026300000F00100002872D0F948006800F038006E
:1026400010280CD0F648006800F03800182812D185
:10265000F3481830006800F0030002280BD1F0485E
:1026600010380068C0F3404000286DD06068002832
:102670006AD1012070BD00BF6068B0F5803F08D10D
:10268000E7481038006840F48030E54910390860A8
:102690002EE0606868B9E2481038006820F48030A5
:1026A000DF49103908600846006820F4802008607F
:1026B0001EE06068B0F5A02F0DD1D9481038006831
:1026C00040F48020D649103908600846006840F47C
:1026D000803008600CE0D2481038006820F4803068
:1026E000CF49103908600846006820F4802008604F
:1026F00000BF6068A0B1FEF719FF054608E0FEF7CD
:1027000015FF401B41F28831884201D90320B1E70F
:10271000C34810380068C0F340400028EFD013E0F1
:10272000FEF704FF054608E0FEF700FF401B41F2FC
:102730008831884201D903209CE7B94810380068E5
:10274000C0F340400028EFD1207800F002000228BA
:1027500047D1B348006800F0380058B1B04800686D
:1027600000F0380018283ED1AD481830006800F05D
:102770000300B8BBAA4810380068C0F3800018B145
:10278000E06808B9012075E7A5481038006820F016
:102790001900E1680843A24910390860FEF7C6FE37
:1027A000054606E0FEF7C2FE401B022801D90320C1
:1027B00060E79B4810380068C0F380000028F1D023
:1027C00097480C38006820F47C304FF47C3292FA41
:1027D000A2F2B2FA82F221699140084390490C3981
:1027E00008604AE0FFE7E06868B38D481038006889
:1027F00020F01900E1680843894910390860FEF7A4
:1028000095FE054606E0FEF791FE401B022801D921
:1028100003202FE7824810380068C0F380000028AA
:10282000F1D07F480C38006820F47C304FF47C32C3
:1028300092FAA2F2B2FA82F22169914008437849F1
:102840000C39086019E076481038006820F0010063
:10285000734910390860FEF769FE054606E0FEF789
:1028600065FE401B022801D9032003E76C4810389D
:102870000068C0F380000028F1D1207800F010003B
:10288000102877D16648006800F0380008280CD07E
:102890006348006800F03800182823D160481830D9
:1028A000006800F0030001281CD15D481038006862
:1028B000C0F3002020B1E069802801D00120D9E6D2
:1028C00057480C38006820F0F8404FF0F84292FA70
:1028D000A2F2B2FA82F2216A9140084350490C39BF
:1028E000086047E0E06958B34D481038006840F090
:1028F00080004B4910390860FEF718FE054606E0D7
:10290000FEF714FE401B022801D90320B2E644481A
:1029100010380068C0F300200028F1D040480C387F
:10292000006820F0F8404FF0F84292FAA2F2B2FAB2
:1029300082F2216A9140084339490C39086019E054
:1029400037481038006820F0800035491039086099
:10295000FEF7ECFD054606E0FEF7E8FD401B022809
:1029600001D9032086E62E4810380068C0F3002005
:102970000028F1D1207800F00800082836D16069DD
:10298000D0B127486430006840F001002449643128
:102990000860FEF7CBFD054606E0FEF7C7FD401BCD
:1029A000022801D9032065E61D4864300068C0F3A1
:1029B00040000028F1D019E019486430006820F088
:1029C0000100174964310860FEF7B0FD054606E0D6
:1029D000FEF7ACFD401B022801D903204AE610484F
:1029E00064300068C0F340000028F1D1207800F086
:1029F0002000202834D1A069D8B1094810380068D7
:102A000040F48050064910390860FEF78FFD0546F6
:102A100008E0FEF78BFD401B022803D9032029E6BE
:102A200010440258AF480068C0F340300028F0D08E
:102A300016E0AC48006820F48050AA490860FEF710
:102A400075FD054606E0FEF771FD401B022801D921
:102A500003200FE6A3480068C0F340300028F2D1FD
:102A6000207800F0040004287DD19F48006840F4DD
:102A700080709D490860FEF759FD054606E0FEF7A7
:102A800055FD401B642801D90320F3E596480068F2
:102A900000F480700028F2D000BFA068012808D19F
:102AA00090487030006840F001008E497031086035
:102AB0002DE0A06868B98B487030006820F00100F4
:102AC0008849703108600846006820F004000860FA
:102AD0001DE0A06805280DD182487030006840F0E4
:102AE00004008049703108600846006840F0010029
:102AF00008600CE07B487030006820F001007949E4
:102B0000703108600846006820F00400086000BFCB
:102B1000A068A0B1FEF70AFD054608E0FEF706FD35
:102B2000401B41F28831884201D90320A2E56D485B
:102B300070300068C0F340000028EFD013E0FEF7CB
:102B4000F5FC054608E0FEF7F1FC401B41F2883138
:102B5000884201D903208DE5624870300068C0F3D7
:102B600040000028EFD1606A00287CD05D4810301A
:102B7000006800F03800182876D0606A022874D106
:102B80005848006820F0807056490860FEF7CEFC77
:102B9000054606E0FEF7CAFC401B022801D90320C7
:102BA00068E550480068C0F340600028F2D100BFDB
:102BB000D4E90A1041EA00104A492831096840F274
:102BC000F33291430843474928310860208E401E64
:102BD000C0F30800616B491E4FF47E4202EA4121B6
:102BE0000843218F491ED20102EA014108433C21DA
:102BF000095D491E120202EA016108433949303178
:102C0000086000BF081D00684FF6F87188434FF652
:102C1000F87292FAA2F2B2FA82F2A16C91400843E1
:102C20003049343108602F482C30006820F00C0007
:102C3000216C08432B492C3108600846006820F0BD
:102C40000200616C084327492C310860084600687F
:102C500040F4803008600846006840F400300860A6
:102C60000846006802E03BE038E01FE040F48020C6
:102C700008600846006840F00100086019480068D4
:102C800040F0807017490860FEF750FC054606E0EA
:102C9000FEF74CFC401B022801D90320EAE411484E
:102CA0000068C0F340600028F2D019E00D480068C9
:102CB00020F080700B490860FEF738FC054606E0FE
:102CC000FEF734FC401B022801D90320D2E405485A
:102CD0000068C0F340600028F2D101E00120C9E49F
:102CE0000020C7E4004402580048025870B504466A
:102CF000002500260CB9012070BD606A00B900BF34
:102D0000A06AB0F5800F00D100BF8E4920688842CC
:102D10000CD08D492068884208D08C4920688842B0
:102D200004D0E0680F2801D90120E5E7204601F032
:102D3000A7FA064683492068884209D0824920685C
:102D4000884205D081492068884201D0082E0DD8DC
:102D50007C492068884207D07B492068884203D09C
:102D60007A492068884203D1102E01D90120C3E797
:102D7000A06AB0F5800F1DD17249206888420DD03D
:102D800071492068884209D070492068884205D07E
:102D9000206BB0F5702F01D90120ADE7206B10B981
:102DA000A089050400E0256BE068B0EB154F01D960
:102DB0000120A1E794F8810028B9002084F8800060
:102DC000204600F0C5F8022084F8810020680068E1
:102DD00020F0010021680860A069B0F1806F0BD17C
:102DE0006068B0F5800F07D1A06B28B92068006833
:102DF00040F4805021680860A16AE06908432843D4
:102E0000E16B0843E168084321688860616A606B90
:102E10000843A16B0843A16908432169084361691C
:102E20000843216A084361680843E16C0843A168CC
:102E30000843A16C0843A16D08432168C860A06ADB
:102E4000B0F5800F4DD1206C012806D120680068B4
:102E500040F400402168086005E02068006820F424
:102E6000004021680860606C012806D12068006875
:102E700040F480402168086005E02068006820F484
:102E80008040216808602F49206888420AD02E4976
:102E90002068884206D02D492068884202D0B5F5C6
:102EA000702F0ED027492068884207D02649206815
:102EB000884203D025492068884209D1B5F5F81F1A
:102EC00006D12068006840F400502168086005E0E1
:102ED0002068006820F40050216808602168E06ADA
:102EE0000864606888B9A06A38B92068806820F4EE
:102EF000C05040F40060216888602068806820F439
:102F0000C06040F48060216888602068006D20F017
:102F1000010021680865606800F48000B0F5800F4A
:102F200007D12068C06820F00040616D0843216827
:102F3000C8600020C4F88400012084F881000020CB
:102F4000DAE600000030014000380040003C00405C
:102F500010B5B6B0044600BF1A48006840F0020041
:102F6000184908600846006800F00200019000BFA0
:102F700000BF00BF13480830006840F4804011498A
:102F8000083108600846006800F48040019000BFE6
:102F900000BF4FF4805002900020199002A8FEF765
:102FA0005DFB4FF46040319002203290012033905D
:102FB000032034900520359031A90348FEF78AF9A3
:102FC00036B010BDE0440258000402582DE9F84F15
:102FD0000446884691461D460A9E0027BA4600BF11
:102FE00094F88000012802D10220BDE8F88F01206A
:102FF00084F8800000BFFEF799FA074694F8810034
:10300000012812D06068B0F5800F05D1A06818B90A
:1030100094F88100042808D04FF0020A00BF002075
:1030200084F8800000BF5046DFE7B8F1000F03D0FE
:10303000B9F1000F00D045B94FF0010A00BF0020E0
:1030400084F8800000BF5046CFE794F88100042840
:1030500002D0052084F881000020C4F88400C4F860
:103060006490A4F86A50A4F86850C4F85C80A4F88E
:103070006250A4F8605020676067206840686FF372
:103080000F002843216848602068006840F0010074
:10309000216808606068B0F5800F05D1206800687D
:1030A00040F4007021680860E0680F284CD942E0C5
:1030B000B4F8620088B12068406900F0020002287C
:1030C0000BD1E06D006821680862E06D001DE065CD
:1030D000B4F86200401EA4F86200B4F86A0088B137
:1030E0002068406948F20801084058B12068006B28
:1030F000616E0860606E001D6066B4F86A00401E74
:10310000A4F86A00701CB0B1FEF710FAC01BB04200
:1031100011D3204601F036F800BF002084F880006B
:1031200000BFD4F8840040F48070C4F8840001200B
:1031300084F8810059E7B4F862000028B8D1B4F8E7
:103140006A000028B4D10FE1E068072871D966E071
:10315000B4F8620020B32068406900F00200022841
:103160001ED1B4F8620001280ED9E06B60B1E06DA9
:10317000006821680862E06D001DE065B4F8620037
:10318000801EA4F862000BE0E06D008821680884CE
:10319000E06D801CE065B4F86200401EA4F8620097
:1031A000B4F86A0010B32068406900F46040E8B1E8
:1031B0002068406900F4004060B12068006B616ED7
:1031C0000860606E001D6066B4F86A00801EA4F896
:1031D0006A000BE02068008E616E0880606E801CC3
:1031E0006066B4F86A00401EA4F86A00701CB0B1B2
:1031F000FEF79CF9C01BB04211D3204600F0C2FF7D
:1032000000BF002084F8800000BFD4F8840040F4A0
:103210008070C4F88400012084F88100E5E6B4F8E9
:103220006200002894D1B4F86A00002890D19BE095
:10323000FFE790E0B4F8620058B32068406900F0FE
:103240000200022833D1B4F8620003280FD9E06BE2
:1032500040280CD9E06D006821680862E06D001D0F
:10326000E065B4F86200001FA4F862001FE0B4F843
:10327000620001280ED9E06B60B1E06D0088216822
:103280000884E06D801CE065B4F86200801EA4F83C
:1032900062000CE0E06D0078216881F82000E06DAC
:1032A000401CE065B4F86200401EA4F86200B4F867
:1032B0006A0048B32068406900F4604020B3206889
:1032C000406900F4004060B12068006B616E0860E6
:1032D000606E001D6066B4F86A00001FA4F86A0002
:1032E00020E02068406900F4C040B0F5005F0CD9D0
:1032F0002068008E616E0880606E801C6066B4F885
:103300006A00801EA4F86A000CE0206890F8300083
:10331000616E0870606E401C6066B4F86A00401E02
:10332000A4F86A00701CB0B1FEF700F9C01BB042EF
:1033300011D3204600F026FF00BF002084F8800053
:1033400000BFD4F8840040F48070C4F884000120E9
:1033500084F8810049E6B4F8620000287FF46AAF7F
:10336000B4F86A000028F9D13B4600220821204623
:10337000009600F092FF28B1D4F8840040F02000BD
:10338000C4F88400204600F0FDFE00BF002084F851
:10339000800000BF012084F88100D4F8840008B1C7
:1033A000012022E6002020E6042808D14FF0E02189
:1033B000096941F004014FF0E022116107E04FF08C
:1033C000E021096921F004014FF0E022116170470A
:1033D00070B504462546681EB0F1807F01D30120F8
:1033E0000FE0681E4FF0E02148610F214FF0FF30E1
:1033F00001F0F6FC00204FF0E02188610720086111
:10340000002070BD00BFFEE770B504461848408834
:10341000401E83B216480088401E82B20021084632
:1034200000F03CFA00224FF400611248FEF778F8F1
:10343000012220210F48FEF773F800250DE0002639
:1034400006E0201200F08EFEE0B200F08BFE761C4B
:1034500007480088B042F4D86D1C05484088A8424F
:10346000EDD80122D1020348FEF75AF870BD0000E2
:1034700028000024000C0258F8B504460D461646F4
:103480001F46054800883B463246294600902046A4
:1034900000F08AF8F8BD0000220000242DE9FF4F5B
:1034A00085B081468A460020049003900798A0EBDF
:1034B00009050898A0EB0A06CDF80890CDF804A0FD
:1034C000002D01DD012705E00DB9002702E04FF0D6
:1034D000FF376D42002E02DD4FF0010806E016B9FD
:1034E0004FF0000802E04FF0FF387642B54201DDB0
:1034F0002C4600E034464FF0000B21E0019A91B2D7
:10350000029A90B200F022F804982844049003989C
:10351000304403900498A04205DD0498001B0490F9
:103520000298384402900398A04205DD0398001BDE
:1035300003900198404401900BF101001FFA80FBB9
:10354000601C8345DADD09B0BDE8F08F70B5044634
:103550000D462946204600F097F90248008800F001
:1035600003FB70BD220000242DE9F04104460D4606
:1035700016461F462B46324629462046FFF78EFF49
:103580003B46224629462046FFF788FF3B46324607
:1035900039462046FFF782FF3B46324629463046F1
:1035A000FFF77CFFBDE8F0812DE9F05F04460D4692
:1035B00016461F46301B401C1FFA80FA781B401C21
:1035C0001FFA80FB3B4632462946204600F066F94A
:1035D0004FF000080FE04FF0000906E00A9800F0F5
:1035E000C3FA09F101001FFA80F9D145F6DB08F1B1
:1035F00001001FFA80F8D845EDDB07484088401EDF
:1036000083B205480088401E82B20021084600F0BF
:1036100045F9BDE8F09F00002800002400B587B000
:1036200000BF0D48006840F008000B4908600846DC
:10363000006800F00800019000BF00BF4FF4C350C5
:1036400002900120039004900320059002A90348F2
:10365000FDF740FE07B000BDE0440258000C0258E0
:1036600010B500F04DFDFFF7D9FF00F0F7F8782016
:1036700001F01CFC112000F0F3F9782001F016FC99
:10368000212000F0EDF9B12000F0EAF9052000F06A
:10369000CFF93A2000F0CCF93A2000F0C9F9B22075
:1036A00000F0DEF9052000F0C3F93A2000F0C0F97F
:1036B0003A2000F0BDF9B32000F0D2F9052000F067
:1036C000B7F93A2000F0B4F93A2000F0B1F905203A
:1036D00000F0AEF93A2000F0ABF93A2000F0A8F97A
:1036E000B42000F0BDF9032000F0A2F9C02000F0E2
:1036F000B7F9622000F09CF9022000F099F904204B
:1037000000F096F9C12000F0ABF9C02000F090F96C
:10371000C22000F0A5F90D2000F08AF9002000F089
:1037200087F9C32000F09CF98D2000F081F96A2010
:1037300000F07EF9C42000F093F98D2000F078F9B4
:10374000EE2000F075F9C52000F08AF90E2000F097
:103750006FF9E02000F084F9102000F069F90E20E4
:1037600000F066F9022000F063F9032000F060F930
:103770000E2000F05DF9072000F05AF9022000F059
:1037800057F9072000F054F90A2000F051F91220EF
:1037900000F04EF9272000F04BF9372000F048F9EF
:1037A000002000F045F90D2000F042F90E2000F055
:1037B0003FF9102000F03CF9E12000F051F9102011
:1037C00000F036F90E2000F033F9032000F030F954
:1037D000032000F02DF90F2000F02AF9062000F058
:1037E00027F9022000F024F9082000F021F90A202E
:1037F00000F01EF9132000F01BF9262000F018F944
:10380000362000F015F9002000F012F90D2000F02C
:103810000FF90E2000F00CF9102000F009F93A2001
:1038200000F01EF9052000F003F9362000F018F929
:10383000C82000F0FDF8292000F012F9002000F067
:1038400039F9012240210448FDF76AFE4FF6FF7066
:10385000FFF7DAFD10BD0000000C025810B5002281
:103860004FF480510748FDF75BFE642001F01EFB1A
:10387000012211030348FDF753FE322001F016FB2D
:1038800010BD0000000C025870B504460D462B46D2
:1038900022462946204600F001F870BD2DE9F0418E
:1038A00004460D4616461F461749887A00F0D8F898
:1038B000002000F0BDF81449897B2144C8B200F013
:1038C000B7F8002000F0B4F80F49897B3144C8B242
:1038D00000F0AEF80C49087B00F0C2F8002000F0C0
:1038E000A7F80949C97B2944C8B200F0A1F8002013
:1038F00000F09EF80449C97B3944C8B200F098F83A
:1039000000F0C6F8BDE8F081280000242DE9FF4F43
:1039100083B081468A469346DDE9106440480088BA
:103920000290A6F12000C6B204EBD47009EB60004F
:10393000401E82B20AEB0400401E83B25146484644
:103940000194FFF7ABFF129850BB002525E00C2C2B
:1039500007D106EB4600334901EB800010F80580E3
:1039600004E0314800EB061010F8058000270DE058
:1039700008F0010018B1584600F0F6F802E0069889
:1039800000F0F2F84FEA6808781CC7B204EBD47173
:10399000B7EB610FECDB681CC5B2A542D7DB2DE0AD
:1039A000002529E00C2C07D106EB46001D4901EB50
:1039B000800010F8058004E01B4800EB061010F8AA
:1039C0000580002711E01648A0F800B008F00100BB
:1039D00038B10AEB050291B209EB070290B2FFF78A
:1039E000B5FD4FEA6808781CC7B204EBD471B7EB99
:1039F000610FE8DB681CC5B2A542D3DB0849029819
:103A000008800A484088401E83B208480088401E4B
:103A100082B200210846FFF741FF07B0BDE8F08FF2
:103A2000220000247E530008F257000828000024DA
:103A300010B5044600224FF400610848FDF770FD00
:103A4000012220210548FDF76BFD204600F08AFB8E
:103A50000122D1020148FDF763FD10BD000C0258A0
:103A600010B5044600224FF400610848FDF758FDE8
:103A7000002220210548FDF753FD204600F072FB8F
:103A80000122D1020148FDF74BFD10BD000C025888
:103A900010B50249087AFFF7E3FF10BD28000024A3
:103AA00070B505460C462846FFF7DAFFE0B2FFF78F
:103AB000BFFF70BD10B504462A202A4948812B203B
:103AC00088812C2008812046E11704EB9171891030
:103AD000A4EB8101234A91711046807930B101280D
:103AE00012D002281ED0032838D129E050201D49C9
:103AF0000880A02048801A2088730120C873C8213C
:103B00003620FFF7CDFF2AE0A0201649088050207C
:103B10004880012088731A20C873A8213620FFF737
:103B2000BFFF1CE050200F490880A02048801A20C9
:103B300088730120C87308213620FFF7B1FF0EE01B
:103B4000A0200849088050204880012088731A204E
:103B5000C87368213620FFF7A3FF00E000BF00BF55
:103B600010BD00002800002410B5044600224FF4C8
:103B700000610A48FDF7D4FC012220210748FDF727
:103B8000CFFC201200F0EEFAE0B200F0EBFA0122D6
:103B9000D1020248FDF7C4FC10BD0000000C025821
:103BA000704770473EB500240025434880790128BE
:103BB00003D04148807903285ED14FF6FF70FFF7AC
:103BC00023FC1F2000903C484088401E83B21422F2
:103BD00000210846FFF7E8FC4FF6FF7037490880E0
:103BE0000120102136A21F23CDE9002102904FF6BB
:103BF000FF720821022000F071FB0120102131A288
:103C00001F23CDE9002102904FF6FF7218210220F8
:103C100000F064FB012010212BA21F23CDE900211D
:103C200002904FF6FF722821022000F057FB01207E
:103C3000102126A21F23CDE9002102904FF6FF722A
:103C40003821022000F04AFB002412E000250CE09D
:103C500004EB8402D10005EB85021E2303EBC200B6
:103C60001B4AFDF7DDFA681CC5B2032DF0DB601CB2
:103C7000C4B2022CEADB19E016A0FCF7BDFD00245B
:103C800012E000250CE004EB84021E2303EBC201CA
:103C900005EB8502D0000E4AFDF7C2FA681CC5B2DA
:103CA000022DF0DB601CC4B2032CEADB4FF49660FB
:103CB00001F0FCF83EBD0000280000242200002492
:103CC000CDBC0000C6AC0000CFD40000CABE0000CE
:103CD000E06A0008CDBCC6ACCFD4CABE000000006C
:103CE0002DE9F04104460E4600274848006800F0E0
:103CF0000300032802D10120BDE8F08143482838A1
:103D0000006820F08060414928390860FDF70EFC0A
:103D1000054606E0FDF70AFC401B022801D90320F6
:103D2000EAE73A4828380068C0F3C0600028F1D1BB
:103D300000BF3648006820F47C30216840EA01303A
:103D400032490860A088401EC0F30800A168491EDF
:103D50004FF47E4202EA41210843A189491ED20163
:103D600002EA01410843217C491E120202EA016174
:103D7000084326491031086000BF2448001D006830
:103D800020F0C000616908432049091D0860084609
:103D9000006820F02000A16908431C49091D086043
:103DA0002EB90846006840F40020086012E0012E99
:103DB00008D11648001D006840F480101349091D01
:103DC000086007E01148001D006840F400100F492A
:103DD000091D08600D482838006840F080600B49D4
:103DE00028390860FDF7A2FB054606E0FDF79EFBBB
:103DF000401B022801D903207EE7044828380068C8
:103E0000C0F3C0600028F1D0384675E72844025856
:103E10002DE9F04104460E4600274848006800F0AE
:103E20000300032802D10120BDE8F081434828386F
:103E3000006820F08050414928390860FDF776FB82
:103E4000054606E0FDF772FB401B022801D903205E
:103E5000EAE73A4828380068C0F340700028F1D1FA
:103E600000BF3648006820F07C70218840EA01508D
:103E700032490860A088401EC0F30800A168491EAE
:103E80004FF47E4202EA41210843A189491ED20132
:103E900002EA01410843217C491E120202EA016143
:103EA000084326491831086000BF2448001D0068F7
:103EB00020F44060616908432049091D08600846F4
:103EC000006820F40070A16908431C49091D0860BE
:103ED0002EB90846006840F48000086012E0012E08
:103EE00008D11648001D006840F400001349091D60
:103EF000086007E01148001D006840F080700F491D
:103F0000091D08600D482838006840F080500B49B2
:103F100028390860FDF70AFB054606E0FDF706FBB9
:103F2000401B022801D903207EE704482838006896
:103F3000C0F340700028F1D0384675E72844025895
:103F400070B588B00024224BD3E90020D3E90213D6
:103F500005AD0BC5049200BF32E02046FFF7AAFD75
:103F60001CA0FCF749FC0121102204A850F82400F1
:103F70004FF6E073CDE9012100901F2215210220A8
:103F800000F0ACF9164A5288A2F1280505EBD5726B
:103F90005210521D91B2124A1288A2F1280606EB65
:103FA000D672C2F34F000F4AFDF73AF94FF47A7018
:103FB00000F07CFF4FF47A7000F078FF601CC4B210
:103FC000042CCADB0020FFF775FD08B070BD0000AF
:103FD00060770008C6C1C4BBD0FDD7AA00000000AE
:103FE00028000024E06A000810B50023234C236059
:103FF00000BF00BF00BFBFF34F8F00BF00BF00BFB7
:10400000231F1868C0F34E3100BFC0F3C90200BFC0
:1040100043F6E07303EA41134FF0404404EA82742C
:104020002343174C236000BF00BF131EA2F10102FF
:10403000EED10B1EA1F10101E7D100BF00BF00BF0F
:10404000BFF34F8F00BF00BF00BF0C4B703B1B681E
:1040500043F48033094C703C236000BF00BF00BFB5
:10406000BFF34F8F00BF00BF00BF00BF00BF00BF46
:10407000BFF36F8F00BF00BF00BF10BD84ED00E035
:1040800060EF00E000BF00BF00BFBFF34F8F00BF75
:1040900000BF00BF00BF00BF00BFBFF36F8F00BFF6
:1040A00000BF00BF00201449086000BF00BF00BF70
:1040B000BFF34F8F00BF00BF00BF00BF00BF00BFF6
:1040C000BFF36F8F00BF00BF00BF0C48006840F413
:1040D00000300A49086000BF00BF00BFBFF34F8F28
:1040E00000BF00BF00BF00BF00BF00BFBFF36F8FA6
:1040F00000BF00BF00BF704750EF00E014ED00E0CC
:1041000010B51648164908604FF480004860002139
:10411000134881600721C1604FF0007101614910AF
:10412000416189008161002141634FF00041416597
:104130008908C16100210162416281620721C16277
:10414000FEF7D4FD06480068006840F0010004490D
:1041500009680860FF2000F005F810BD0038004035
:104160003800002401B582B04FF47A70012301AA0F
:1041700002A900900248FEF729FF9DF804000EBD39
:1041800038000024026851690268926942F008020E
:1041900003689A610268926942F0100203689A61AA
:1041A0000268126822F0010203681A60026812694C
:1041B00040F26B339A4303681A610268926822F4F2
:1041C000404203689A6090F88120042A0ED001F0E2
:1041D00020025AB1D0F8842042F08002C0F8842036
:1041E0000268926942F0200203689A6190F8812087
:1041F000032A21D001F040025AB1D0F8842042F0C5
:104200000402C0F884200268926942F04002036808
:104210009A61826AB2F5800F0ED101F080025AB124
:10422000D0F8842042F00202C0F88420026892692B
:1042300042F0800203689A6101F400725AB1D0F82A
:10424000842042F00102C0F884200268926942F49E
:10425000007203689A6101F480725AB1D0F8842028
:1042600042F00802C0F884200268926942F4807229
:1042700003689A610022A0F86220A0F86A207047C3
:1042800010B501460124C86B04EB5013C868421CEA
:10429000D01DC20802FB03F010BD2DE9F041064617
:1042A0000C4617469846069D0BE0681C48B12DB198
:1042B000FDF73CF9A0EB0800A84202D90320BDE8B5
:1042C000F081306840692040A04201D1012000E027
:1042D0000020B842E9D00020F1E770472DE9FF4FF8
:1042E00083B0064688469146DDE91147109DB246E7
:1042F0004FF0000B71E0BBF1000F40D104EBD47123
:10430000384A1288A2EB6101B14204DB3549498881
:10431000091B414502DA07B0BDE8F08F28788028F4
:1043200002DD4FF0010B58E028780D2806D108EB8C
:1043300004001FFA80F856466D1C1EE0102C0DDD9F
:10434000102128788DE883004A4641463046069B76
:10435000FFF7DCFA06F1080086B20EE028788DE857
:1043600091004A4641463046069BFFF7CFFA204669
:1043700004EBD07106EB61018EB26D1C2DE0194883
:104380000088001BB04204DB16484088001B4045F3
:1043900000DAC0E74FF0000B202C08D1CDE9005720
:1043A0004A4641463046069BFCF7AAFE12E0182C0E
:1043B00008D1CDE900574A4641463046069BFCF7F6
:1043C00013FE07E0CDE900574A4641463046069BBA
:1043D000FCF786FDAD1C301986B2287800288AD1FA
:1043E00000BF98E7280000242DE9F0419CB08046EA
:1043F0000C4615461E4600273748006820F004008A
:104400003549086000BF0020009033480C30006838
:1044100040F4404030490C3108600846006800F420
:104420004040009000BF00BF00BF2B480C30006828
:1044300000F40050B0F5005FF7D1012001900004B6
:10444000029000200490089002200A9002210B9113
:10445000CDF834800C940E950F960021129108210E
:10446000119101A8FEF7E0F807460FB100BFFEE783
:104470003F201490032015900020169008201790DC
:104480004020199000011A904020189050201B9055
:10449000022114A8FDF77EFE07460FB100BFFEE71C
:1044A0000E48006840F080000C49086000BF0B48CF
:1044B000F430006840F002000849F4310860084612
:1044C000006800F00200009000BF00BFFCF7F8FE9B
:1044D0001CB0BDE8F08100000C48025800440258AE
:1044E00010B5FDF729F810BD2048006840F47000B1
:1044F0001E4908601E48006840F001001C49086021
:1045000000201B491031086019480068194908400B
:10451000174908600020164918310860091D086015
:10452000091D0860124928310860091D0860091D2D
:104530000860091D0860091D0860091D0860091D43
:104540000860091D08600A48006820F480200849B6
:1045500008600020064960310860012006490860B3
:10456000C0060249803908607047000088ED00E00D
:10457000004402587FEDF6EA08810051FEB50024A0
:1045800065488079012803D063488079032847D1A2
:104590004FF6FF70FEF738FF1F2000905E484088FE
:1045A000401E83B2142200210846FEF7FDFF4FF69D
:1045B000FF705A4908800120102159A21F23CDE91C
:1045C000002102904FF6FF7208210220FFF786FEBD
:1045D0000120102153A21F23CDE9002102904FF6A4
:1045E000FF7218210220FFF779FE012010214EA250
:1045F0001F23CDE9002102904FF6FF7228210220EF
:10460000FFF76CFE0120102148A21F23CDE90021F5
:1046100002904FF6FF7238210220FFF75FFE02E0A2
:1046200043A0FCF7E9F800241FE000203A4B00907B
:104630005D8805EBD5735B10173B04EB440707EB74
:10464000C407D919344B1E8806EBD6735B10173B91
:1046500004EB440707EBC407D819384B33F8142090
:104660000F2300F053FC601CC4B2052CDDDB40F2CC
:10467000DC5000F01BFC28488079012803D0264834
:10468000807903280FD14FF6FF70009022484088B0
:10469000401E83B220480088401E82B200211520AF
:1046A000FEF782FF0EE04FF6FF7000901A48408838
:1046B000401E83B218480088401E82B21521002097
:1046C000FEF772FF00241FE00120134B00905D886D
:1046D00005EBD5735B10173B04EB440707EBC407EE
:1046E000D9190D4B1E8806EBD6735B10173B04EBF4
:1046F000440707EBC407D819104B33F814200F23D5
:1047000000F004FC601CC4B2052CDDDB40F2DC5080
:1047100000F0CCFBFEBD0000280000242200002495
:10472000BBAD0000D4B20000CCEE0000B3E400004A
:10473000BBADD4B2CCEEB3E400000000080000240E
:104740000EB54FF6FF700090344843880288002170
:104750000846FEF729FF0120102131A24FF6E07331
:10476000CDE9002102901F221E211420FFF7B6FD83
:104770004FF4487000F09AFB4FF4784000902748BF
:104780004388028800210846FEF70EFF0120102111
:1047900025A24FF6E073CDE9002102901F221E21D1
:1047A0001420FFF79BFD4FF4487000F07FFB4FF49F
:1047B000FC60009019484388028800210846FEF7F3
:1047C000F3FE012010211AA24FF6E073CDE900217B
:1047D00002901F221E211420FFF780FD4FF4487025
:1047E00000F064FB1F2000900C48438802880021E1
:1047F0000846FEF7D9FE012010210FA24FF6E07304
:10480000CDE9002102904FF478421E211420FFF7D9
:1048100065FD4FF4487000F049FB0EBD28000024F0
:10482000424C20546573740052454420000000003F
:10483000475245454E200000424C5545200000009F
:104840002DE9FE43002497488079012803D095483C
:104850008079032847D14FF6FF70FEF7D5FD1F2062
:10486000009090484088401E83B2142200210846E0
:10487000FEF79AFE4FF6FF708B4908800120102149
:104880008AA21F23CDE9002102904FF6FF72082172
:104890000220FFF723FD0120102185A21F23CDE96F
:1048A000002102904FF6FF7218210220FFF716FD3B
:1048B000012010217FA21F23CDE9002102904FF695
:1048C000FF7228210220FFF709FD012010217AA2A2
:1048D0001F23CDE9002102904FF6FF7238210220FC
:1048E000FFF7FCFC02E075A0FBF786FF002450E018
:1048F000754830F814006C490880DFF8A8C1BCF88E
:10490000025005EBD57C4FEA6C0CACF1260C04EBA5
:10491000440909EBC409CC440CF11E0C1FFA8CF3BA
:10492000DFF880C1BCF8006006EBD67C4FEA6C0C67
:10493000ACF1260C04EB440909EBC409CC440CF19E
:104940001E0C1FFA8CF2DFF85CC1BCF8027007EB9A
:10495000D77C4FEA6C0CACF1260C04EB440909EB54
:10496000C409CC441FFA8CF1DFF838C1BCF80080D0
:1049700008EBD87C4FEA6C0CACF1260C04EB440934
:1049800009EBC409CC441FFA8CF0FEF7EDFD601C66
:10499000C4B2052CACDB40F2DC5000F087FA414891
:1049A0008079012803D03F48807903280FD14FF642
:1049B000FF7000903B484088401E83B23948008811
:1049C000401E82B200211520FEF7EEFD0EE04FF6EC
:1049D000FF70009033484088401E83B23148008801
:1049E000401E82B215210020FEF7DEFD002450E0BB
:1049F000354830F814002C490880DFF8A8C0BCF80E
:104A0000026006EBD67C4FEA6C0CACF1260C04EB92
:104A1000440909EBC409CC440CF11E0C1FFA8CF3B9
:104A2000DFF880C0BCF8007007EBD77C4FEA6C0C55
:104A3000ACF1260C04EB440909EBC409CC440CF19D
:104A40001E0C1FFA8CF2DFF85CC0BCF8028008EB89
:104A5000D87C4FEA6C0CACF1260C04EB440909EB52
:104A6000C409CC441FFA8CF1DFF838C0BCF8005000
:104A700005EBD57C4FEA6C0CACF1260C04EB440939
:104A800009EBC409CC441FFA8CF0FEF7F5FC601C5E
:104A9000C4B2052CACDB40F2DC5000F007FABDE8F4
:104AA000FE8300002800002422000024BED800005D
:104AB000D0CE0000CCEE0000B3E40000BED8D0CED3
:104AC000CCEEB3E400000000080000242DE9FE4F06
:104AD0000024B3488079012803D0B14880790328A5
:104AE00053D14FF6FF70FEF78FFC1F200090AC48AB
:104AF0004088401E83B2142200210846FEF754FD70
:104B00004FF6FF70A749088001201021A6A21F239D
:104B1000CDE9002102904FF6FF7200210220FFF73D
:104B2000DDFB01201021A1A21F23CDE9002102906D
:104B30004FF6FF720220FFF7D1FB012010219CA24B
:104B40001F23CDE9002102904FF6FF7220210220A1
:104B5000FFF7C4FB0120102196A21F23CDE90021FD
:104B600002904FF6FF7230210220FFF7B7FB0120C1
:104B7000102191A21F23CDE9002102904FF6FF7270
:104B800040210220FFF7AAFB02E08CA0FBF734FED5
:104B9000002466E08C4830F8140082490880804880
:104BA000458805EBD57040100A3804EB440101EB51
:104BB000C401084481B27A48068806EBD6704010DA
:104BC000093804EB440202EBC402104480B2DFF85F
:104BD000D0C1CDE90001BCF8027007EBD77C4FEAE9
:104BE0006C0CACF1250C04EB440B0BEBC40BDC445C
:104BF0001FFA8CF3DFF8A8C1BCF8008008EBD87C62
:104C00004FEA6C0CACF1180C04EB440B0BEBC40B2F
:104C1000DC441FFA8CF2DFF888C1BCF8029009EB83
:104C2000D97C4FEA6C0CACF10A0C04EB440B0BEB97
:104C3000C40BDC441FFA8CF1DFF864C1BCF800A09F
:104C40000AEBDA7C4FEA6C0CACF1260C04EB440B5B
:104C50000BEBC40BDC441FFA8CF0FBF7F1FD601C7E
:104C6000C4B2052C96DB40F2DC5000F01FF94C4832
:104C70008079012803D04A48807903280FD14FF664
:104C8000FF70009046484088401E83B24448008828
:104C9000401E82B200211520FEF786FC0EE04FF682
:104CA000FF7000903E484088401E83B23C48008818
:104CB000401E82B215210020FEF776FC002466E03B
:104CC000414830F81400374908803548458805EBDD
:104CD000D57040100A3804EB440101EBC4010844CC
:104CE00081B22F48068806EBD6704010093804EBD5
:104CF000440202EBC402104480B2DFF8A4C0CDE944
:104D00000001BCF8027007EBD77C4FEA6C0CACF1E9
:104D1000250C04EB440B0BEBC40BDC441FFA8CF3A7
:104D2000DFF87CC0BCF8008008EBD87C4FEA6C0C44
:104D3000ACF1180C04EB440B0BEBC40BDC441FFA76
:104D40008CF2DFF85CC0BCF8029009EBD97C4FEA2A
:104D50006C0CACF10A0C04EB440B0BEBC40BDC4405
:104D60001FFA8CF1DFF838C0BCF800A00AEBDA7C3F
:104D70004FEA6C0CACF1260C04EB440B0BEBC40BB0
:104D8000DC441FFA8CF0FBF7A3FF601CC4B2052CB7
:104D900096DB40F2DC5000F089F8BDE8FE8F0000A1
:104DA0002800002422000024C8FD0000BDC7000028
:104DB000D0CE0000CCEE0000B3E40000C8FDBDC7BB
:104DC000D0CECCEEB3E400000800002400BFFEE724
:104DD00002480068C0F30220704700000CED00E0BC
:104DE00010B5002804DB0A07130E054A135406E029
:104DF0000A07140E034A00F00F031B1FD45410BD02
:104E000000E400E018ED00E02DE9F04104460D4615
:104E100016461F46DDF81880EA1991B2A21990B221
:104E20004246FCF7F1F9EA1991B2A21B90B2424650
:104E3000FCF7EAF9EA1B91B2A21990B24246FCF7DC
:104E4000E3F9EA1B91B2A21B90B24246FCF7DCF9EF
:104E5000AA1991B2E21990B24246FCF7D5F9AA1903
:104E600091B2E21B90B24246FCF7CEF9AA1B91B276
:104E7000E21990B24246FCF7C7F9AA1B91B2E21BB5
:104E800090B24246FCF7C0F9BDE8F08102880B8879
:104E900003800A807047000010B504460420FEF726
:104EA00083FA0148046010BD1400002430B50446A4
:104EB000002504E04FF47A7000F004F86D1CA54260
:104EC000F8D330BD70B5034600224FF0E026756977
:104ED0000D4E366803FB06F44FF0E026B16910E092
:104EE0004FF0E026B06988420BD0884202D20E1AF9
:104EF000324402E02E1A0E4432440146A24200D34C
:104F000000E0EDE700BF70BD140000242DE9FF4F65
:104F100081B0824617469846DDF838B000244546F1
:104F20004FEA4800C0F10306BBF1000F1FD01BE0A1
:104F3000A14608E04B462246009750460299FFF7EB
:104F400063FF09F10109A945F4DD002E04DA04200C
:104F500000FB0460861D06E0601B042101FB00606D
:104F600000F10A066D1E641CAC42E1DD18E015E09C
:104F70002B462246009750460299FFF745FF002E28
:104F800004DA042000FB0460861D06E0601B042197
:104F900001FB006000F10A066D1E641CAC42E7DDF7
:104FA00005B0BDE8F08FFBF745FAFCF7D1FA042312
:104FB00002220521A020FFF717FA4FF4C870FFF76F
:104FC0006BFFFEF74DFB13E000F014F800F0E8F87B
:104FD000FFF7B6FBFFF734FCFFF7D0FAFFF776FDDB
:104FE000FBF74AFCFBF734FAFEF7DCFDFEF7A8FFFF
:104FF000EAE700000EB54FF6FF70FEF705FA4C48E1
:105000008079012803D04A48807903283CD10120C7
:10501000102148A21F23CDE900210290DA020021CD
:105020000846FCF72DF90120102145A21F23CDE9E8
:1050300000210290DA020020FCF722F90120102161
:1050400043A21F23CDE9002102904FF4FC622021EE
:105050000020FCF715F90120102142A21F23CDE901
:1050600000210290002230211046FCF709F90120AE
:1050700010213EA21F23CDE9002102901A464021B3
:105080000020FCF7FDF849E00120102129A21F2390
:10509000CDE900210290DA0220210020FCF7F0F88F
:1050A0000120102134A21F23CDE900210290DA0251
:1050B00030210020FCF7E4F80120102131A21F2349
:1050C000CDE9002102904FF4FC6240210020FCF762
:1050D000D7F8012010212EA21F23CDE90021029034
:1050E000002250211046FCF7CBF8012010212AA203
:1050F0001F23CDE9002102904BF6404260210020A1
:10510000FCF7BEF80120102118A21F23CDE90021D1
:1051100002901A4670210020FCF7B2F840F2DC50F1
:10512000FFF7C4FE40F2DC50FFF7C0FE0EBD0000EA
:1051300028000024C8ABB6AFB5E7D7D30000000005
:10514000D7DBBACFB2E2CAD4B3CCD0F200000000B1
:10515000302E3936222049505320535437373335B7
:1051600053000000383058313630000032303139C9
:105170002D30372D30380000D7DBBACFB2E2CAD499
:1051800000000000302E3936222049505300000024
:1051900053543737333553003830783136300000C8
:1051A0000EB54EF67D70FEF72FF94D488079012837
:1051B00003D04B48807903283AD115238522012159
:1051C0001B20FBF7D1FA0120102146A21F23CDE9B5
:1051D000002102904FF61F0202210020FCF750F838
:1051E000312385221D211B20FBF7BEFA012010214F
:1051F00040A24EF67D73CDE9002102904BF640426D
:105200001E210020FCF73CF84E2385223A211B206A
:10521000FBF7AAFA012010213AA24EF67D73CDE9E0
:10522000002102901F223B210020FCF729F84DE0CD
:105230002D234D2219210220FBF796FA012010217F
:1052400034A21F23CDE9002102904FF61F021A213C
:105250000020FCF715F84B234D2237210220FBF7E5
:1052600083FA012010212EA24EF67D73CDE9002194
:1052700002904BF6404238210020FCF701F86923E8
:105280004D2255210220FBF76FFA0120102127A2A1
:105290004EF67D73CDE9002102901F225621002099
:1052A000FBF7EEFF87234D2273210220FBF75CFA08
:1052B0000120102120A24EF67D73CDE9002102903D
:1052C0004FF4784274210020FBF7DAFF40F2DC5003
:1052D000FFF7ECFD4FF4FA70FFF7E8FD0EBD00009C
:1052E00028000024CDBCD0CECFD4CABEB2E2CAD4EE
:1052F00000000000B4BFC9ABCCEEB3E4B2E2CAD444
:1053000000000000D6D0CEC4CFD4CABEB2E2CAD408
:1053100000000000CDBCD0CECFD4CABE000000003B
:10532000B4BFC9ABCCEEB3E400000000D6D0CEC40D
:10533000CFD4CABE00000000CDBCC6ACCFD4CABE1C
:10534000000000004FF04070E1EE100A70470100CD
:1053500002000400060008000A000C0010002000F3
:105360004000800000010100020004000600080067
:105370000A000C0010002000400080000001000026
:10538000000000000000000000000000040404040D
:1053900004040004000000140A0A000000000000D9
:1053A0000000000014143F140A3F0A0A0000000421
:1053B0001E1505060C14150F0400000012150D0A29
:1053C000142C2A1200000000040A0A1E15150936C2
:1053D00000000002020100000000000000000020A8
:1053E000100808080808081020000002040808082F
:1053F00008080804020000000004150E0E15040041
:10540000000000000404041F040404000000000065
:105410000000000000000002020100000000001F68
:10542000000000000000000000000000000000027A
:105430000000001008080804040202020100000035
:105440000E1111111111110E0000000004060404C8
:105450000404040E000000000E1111080402011FD4
:10546000000000000E11100C1010110E00000000C2
:10547000080C0A0A091E0818000000001F01010F8D
:105480001010110E000000000E09010F1111110E75
:10549000000000001F0908040404040400000000C8
:1054A0000E11110E1111110E000000000E1111113C
:1054B0001E10120E00000000000004000000000496
:1054C00000000000000000040000000404000020B0
:1054D00010080402040810200000000000001F0053
:1054E000001F000000000002040810201008040241
:1054F000000000000E111108040400040000000068
:105500000E111915151D011E0000000004040C0ADF
:105510000A1E1233000000000F12120E1212120F98
:10552000000000001E1101010101110E0000000029
:105530000F1212121212120F000000001F120A0E98
:105540000A02121F000000001F120A0E0A020207C0
:10555000000000001C1201013911120C00000000B3
:105560003312121E12121233000000001F04040432
:105570000404041F000000003E0808080808080989
:105580000700000037120A060A0A1237000000005E
:10559000070202020202223F000000001B1B1B1B2D
:1055A00015151515000000003B1216161A1A1217D1
:1055B000000000000E1111111111110E0000000069
:1055C0000F12120E02020207000000000E1111114C
:1055D0001117190E180000000F12120E0A121237BE
:1055E000000000001E1101060810110F000000004D
:1055F0001F1504040404040E0000000033121212EC
:105600001212120C000000003312120A0A0C0404D9
:10561000000000001515150E0A0A0A0A0000000015
:105620001B0A0A04040A0A1B000000001B0A0A04E1
:105630000404040E000000001F0908040402121FE5
:105640000000001C04040404040404041C00000200
:1056500002020404080808100000000E08080808E8
:10566000080808080E0000040A00000000000000FE
:10567000000000000000000000000000003F0004E7
:105680000000000000000000000000000000000C0E
:10569000121C123C000000000302020E1212120E35
:1056A000000000000000001C1202021C00000000AC
:1056B0001810101C1212123C000000000000000C18
:1056C000121E021C000000003804041E0404041E04
:1056D000000000000000003C120C021E221C000012
:1056E0000302020E1212123700000000040000062E
:1056F0000404040E000000000800000C080808085C
:10570000080700000302023A0A0E123700000000E8
:10571000070404040404041F000000000000000F3C
:1057200015151515000000000000000F12121237A9
:10573000000000000000000C1212120C000000001B
:105740000000000F1212120E020700000000001CE1
:105750001212121C103800000000001B0602020783
:10576000000000000000001E020C101E00000000DF
:105770000004040E04040418000000000000001BD4
:105780001212123C0000000000000037120A0C0444
:105790000000000000000015150E0A0A00000000BD
:1057A0000000001B0A040A1B000000000000003774
:1057B000120A0C04040300000000001E0804041E6A
:1057C000000000180808080408080808180008085D
:1057D000080808080808080808080006040404085F
:1057E0000404040406000225180000000000000064
:1057F00000000000000000000000000000000000A9
:105800000000000000080808080808080000181830
:10581000000000486C24120000000000000000009E
:1058200000000000002424247F1212127F121212A2
:1058300000000000081C2A2A0A0C1828282A2A1C02
:10584000080800000022251515152A585454542222
:1058500000000000000C1212120A76252911916E28
:105860000000000606040300000000000000000025
:105870000000004020101008080808080810102038
:10588000400000020408081010101010100808044E
:1058900002000000000008086B1C1C6B08080000D8
:1058A000000000000000080808087F080808080039
:1058B00000000000000000000000000000000606DC
:1058C00004030000000000000000FE0000000000D3
:1058D00000000000000000000000000000000606BC
:1058E000000000008040402020101008080404023E
:1058F0000200000000182442424242424242241860
:105900000000000000080E08080808080808083E03
:1059100000000000003C4242422020100804427E69
:1059200000000000003C4242201820404042221C5F
:105930000000000000203028242422227E2020782D
:1059400000000000007E0202021A26404042221C93
:105950000000000000382402021A264242422418A5
:1059600000000000007E2222101008080808080825
:1059700000000000003C4242422418244242423CC3
:105980000000000000182442424264584040241C99
:1059900000000000000000001818000000001818A7
:1059A00000000000000000000008000000000008E7
:1059B00008040000004020100804020408102040E1
:1059C00000000000000000007F0000007F000000D9
:1059D000000000000002040810204020100804020B
:1059E00000000000003C4242464020101000181801
:1059F00000000000001C225A555555552D42221C0E
:105A000000000000000808181414243C224242E759
:105A100000000000001F2222221E22424242221FBA
:105A200000000000007C4242010101010142221CF1
:105A300000000000001F2242424242424242221F16
:105A400000000000003F4212121E12120242423FAA
:105A500000000000003F4212121E12120202020752
:105A600000000000003C2222010101712122221CC1
:105A70000000000000E7424242427E42424242E7CA
:105A800000000000003E0808080808080808083E52
:105A900000000000007C10101010101010101010EA
:105AA000110F0000007722120A0E0A12122222772A
:105AB0000000000000070202020202020202427F0E
:105AC000000000000077363636362A2A2A2A2A6B4A
:105AD0000000000000E346464A4A525252626247C2
:105AE00000000000001C2241414141414141221C73
:105AF00000000000003F424242423E020202020712
:105B000000000000001C2241414141414D53321C24
:105B100060000000003F4242423E1212222242C771
:105B200000000000007C4242020418204042423E35
:105B300000000000007F4908080808080808081C41
:105B40000000000000E74242424242424242423CE0
:105B50000000000000E74242222424141418080820
:105B600000000000006B4949494955553622222260
:105B70000000000000E7422424181818242442E7FB
:105B80000000000000772222141408080808081CEE
:105B900000000000007E2120101008040442423F53
:105BA000000000780808080808080808080808081D
:105BB00078000000020204040808081010202020C9
:105BC0004040001E10101010101010101010101077
:105BD0001E0000384400000000000000000000002B
:105BE00000000000000000000000000000000000B5
:105BF00000FF000608000000000000000000000098
:105C00000000000000000000003C4278444242FCDA
:105C10000000000000030202021A26424242261A35
:105C20000000000000000000003844020202443876
:105C3000000000000060404040784442424264D886
:105C40000000000000000000003C427E0202423CD6
:105C50000000000000F08808087E08080808083ED8
:105C60000000000000000000007C22221C023C42D8
:105C7000423C000000030202023A4642424242E72E
:105C800000000000000C0C00000E08080808083E88
:105C900000000000003030000038202020202020AC
:105CA000221E0000000302020272120A161222775C
:105CB00000000000000E0808080808080808083E50
:105CC0000000000000000000007F9292929292B7C4
:105CD0000000000000000000003B4642424242E754
:105CE0000000000000000000003C42424242423CF2
:105CF0000000000000000000001B26424242221E5D
:105D0000020700000000000000784442424244784C
:105D100040E000000000000000774C040404041F71
:105D20000000000000000000007C42023C40423EB7
:105D30000000000000000008083E080808080830BD
:105D4000000000000000000000634242424262DCAA
:105D5000000000000000000000E7422424140808AE
:105D6000000000000000000000EB494955552222C8
:105D70000000000000000000007624181818246EAF
:105D8000000000000000000000E74224241418086E
:105D90000807000000000000007E22100808447E72
:105DA000000000C0202020202010202020202020C3
:105DB000C000101010101010101010101010101043
:105DC0001010000608080808081008080808080845
:105DD00006000C32C20000000000000000000000BD
:105DE0000000C9EE000027FC140414A4811042082E
:105DF0004040104017FC2040E0E0215022482C4653
:105E000020400040DBDA1104112411241124112454
:105E1000FD24112411241124112411241D24E12412
:105E2000422402040404CAD00200010000007FFCE6
:105E30000100010001003FF8210821082108210884
:105E40002128211001000100C8AB000000000180E2
:105E500002400430180860061FF90100010001002B
:105E60003FF80100010001007FFEB6AF0000000016
:105E700000203E20007C002200227F2210221022DF
:105E800012221222224223423D82009CB5E70000EA
:105E9000010001001FF0610C410441047FFC41043A
:105EA000410441047FFC01000102010201FCD7D33F
:105EB000000000003FF8001000600080010000803A
:105EC0007FFE004000400020002000201840078096
:105ED000BCBC10201020102013FEFC20102010202D
:105EE00015FC18843088D04810501020105051886C
:105EF0002606CAF501000120011001107FFC038075
:105F000005400540092011102108410481020100CB
:105F100001000100D3D002000200FFFE04000400D3
:105F20000FF0081018102FF0481088100FF008100C
:105F3000081008500820CFDE00007BF84A085208FD
:105F400053F8620852084BF84A444A486A305220D3
:105F50004210428843064200B9AB008004800480AE
:105F60000840084010202010420882060400044027
:105F7000082010203FF010100000CBBE00003FF8BA
:105F8000000800087FE8000800081F8810881088B3
:105F9000108810881F88108800280010BBB6008069
:105FA0000080FC8004FC050449082A40144010408D
:105FB00028A024A045108110020804040802D3ADD3
:105FC00000002080133C122402240224F224122414
:105FD000122412B4132812201020282047FE00009B
:105FE000C4FA0900090011FC3204544899501148C0
:105FF00012441444114010800200510451129012B6
:106000000FF0B4BF00000020102013FE2020262433
:106010004A247A241224222423FC7C2000220422F5
:106020007822003CC9AB0000000004000FF01020F3
:1060300020207FFC20842084208420843FF82000BE
:10604000200220021FFECCEE00000000204023FEB4
:10605000204079FC220423FC220423FC220423FC9C
:106060003A0465FA01980204B3E40000010001005B
:106070007FFE02200410040808043FFC0442044090
:106080000440044208421042607EBED80000000076
:10609000207E3E804880488048FE48827F82088279
:1060A0000C8214FA12842280218040FED0CE00009F
:1060B00000007F842208223022C0220222047FC8EE
:1060C000223022C222022204220822304040BBADEC
:1060D000000000007FFE00000FF0111011101110E1
:1060E00051125FF25112511251124FF240027FFCD5
:1060F000D4B2000000007FFE47E24812481247E297
:106100004FF2501250125112511242924472580AD8
:106110003FFCCDBC000000003FFE440247F24C2291
:106120005362408243625E1A41824062430240C22F
:1061300040223FFCC6AC00000040204020402040F0
:106140003FFE2000200020003FE020102010201003
:10615000201040104010CFD4000000003FFC20046D
:1061600020043FFC200420041FF824441448144851
:1061700014480C5004407FFECABE000000003FFCE3
:106180000000000000007FFE008008900888108852
:1061900010842084208240820780B2CB000000203F
:1061A00008207FFE002000783F8811080890092011
:1061B0007FFE018003400D30310C4002B5A5000088
:1061C0000010081004203FF8210421043FFC2104A2
:1061D00021043FF801007FFE010001000100D6D03C
:1061E00000000100010001003FFC21042104210402
:1061F0002104210421043FFC0100010001000100F1
:10620000D3A20000000008207FFE08200920010022
:106210003FF82108210821081FF4014002200C103A
:10622000700ECEC400000100010000803F7C081009
:106230000810041004200220024001800180026046
:106240001C18E006D7DB00000000102011FE22021F
:10625000220249FC5800300013FE2528792401242D
:106260000D24722202A2BACF000000000180024079
:106270000430180860061FF800001FF820042004EE
:106280002004200420041FF8C1C100000100010007
:106290007FFE00003FF820083FF83FF8400647C265
:1062A0004824082008221022603EB6C800000000E2
:1062B00000803FFE44105FFC4410441043F0400057
:1062C0005FF84408423041C04360BC1EB2E20000A7
:1062D000000067C2145205520552C552255205529C
:1062E000055215521752228222424442483ECAD4D5
:1062F000000000002014101417FE0012001060109F
:1063000013F0109010901090149214EA1F0A0006D7
:10631000B3CC0000000019FE7202120212027DFCD2
:1063200018001BFE3420502053FE10201020102097
:1063300013FED0F20000000000803FFE400047FC4A
:106340004208413040C05FFE404240424044404825
:1063500040404440B5F70000000023FE122202FA3C
:106360000222E22212FE1272128A128A128A16BACD
:106370001A421202040EB9E20000010001041108E1
:106380000908091009207FFE04400440044004402D
:10639000084208421042607CB0E60000000048FE5F
:1063A0004900490049007EFE418241447944452824
:1063B00045284510452846440382C8A8000010001F
:1063C000100013FC7D04110419041884348850480B
:1063D000505010201050108813041402CBF9000004
:1063E00000003F7C204020403E40227E2244224448
:1063F00022443E8420842084408441044204C6C157
:1064000000003FF8200820083FF8241022202FF831
:10641000222022203FFC22204220442084200820E9
:10642000C4BB04407FFC04401FF010101FF010108C
:106430001FF00400FFFE11103FF8D116115011207B
:106440000100D0FD2080108010FE0100FE0021FC24
:1064500020243C2424A024A024BC24A024A0456003
:10646000553E8A00D7AA202020202020FDFC402075
:10647000504093FEFC40108011FC1C04F0885050EA
:10648000102010101010BFAA00007FFC0820082068
:10649000082008200820FFFE0820082008200820E7
:1064A0001020102020204020D4B4000027FE14200B
:1064B000144085FC450445FC150415FC2524E42006
:1064C00024A829242A2230A00040D2BA00802040EB
:1064D00017FE11208120423C424416641294234846
:1064E000E24822302220225022880306BEA70FE075
:1064F000082008200FE0082008200FE000007EFCA4
:10650000428442847EFC428442847EFC4284CDF8F4
:1065100000007FFC40044004421452944A54442436
:1065200044244A544A54529461044004401440089C
:10653000D5BE1020082008207E20003E04204420E4
:10654000442025FC290429040F04F104410401FC22
:106550000104B0B410401020102013FEFA021444BD
:1065600010401BFE3088D088110810D01020105029
:1065700050882304BCFC201020103B7C211441FED9
:106580007A14A27C2710F97C251025FE22102A10EF
:10659000350028FE0000D0A310401020102011FE6E
:1065A000FC00108831043A025488508890501050F2
:1065B0001020105010881306D7BC01404120212024
:1065C00023FE022016201BFC1220222023FCE220A6
:1065D0002220222023FE22000200B4A52020202019
:1065E000782049FC91247D24552455247DFC552494
:1065F00054207C28542457FE45028C00C3FE111001
:10660000111017FC1110FC0013F8120817F81A08E3
:1066100033F8D04017FC10A0111052082406C8FD12
:10662000000000007FFC00000000000000003FF8B8
:1066300000000000000000000000FFFE000000005D
:10664000BDC7080008001FE020204040BFF8210817
:1066500021083FF8210821083FF821084108412876
:106660008010C9EE000000000000100000080008C3
:106670000C7FFC04401001C8A002186042301832A0
:10668000231812C30014030004030C047FF0080F46
:1066900080080B4078136018332018631818831C87
:1066A000190308180300000300000000DBDA0000F3
:1066B0000000000004100C04180C04108C04108C52
:1066C00004108C04108C04D08C3F108C04108C04AB
:1066D000108C04108C04108C04108C04108C05F0A9
:1066E0008C0E208C78208C20408C00808C01000C3B
:1066F00002000C000000CAD00000000000000030C2
:106700000000180000180800001C1FFFE00018001F
:1067100000182007FFF00418200418200418200493
:106720001820041820041820041820041820041825
:10673000200418E0041840001800001800000000B1
:10674000D6D000000000000000000000000000188B
:10675000000018000018000018003FFFFE30180667
:106760003018063018063018063018063FFFFE3085
:106770001806001800001800001800001800001883
:1067800000000000000000000000CEC40000000077
:106790000000000000003800001C00000600FFFFA1
:1067A000FF0600300600300300600300600180C077
:1067B00000C18000E300003600001C0000770003E9
:1067C000C1E01E003C600007000000000000000067
:1067D00000000000B2E20000000000000000000025
:1067E000000040000321FF33398333118333019BC1
:1067F00033C19B33719B33199B33019B33019B3313
:10680000119B3319B333303033306C0330C603631C
:1068100083032E01BE000000000000000000CAD467
:106820000000000000000000000000004000D83020
:1068300000CE1800C21C00C001FFFF0000C0F8001D
:10684000C01800C019FFC018184018186019186047
:106850001B18611E18311C1FB139F01910000F00F0
:106860000000000000000000D7D600000000000675
:106870000000000300000000C0000001C0C00001D3
:1068800007C00001FF00021FFE0007F01C0007C048
:1068900070000F00E0000E03F0001C0FF0003C0F32
:1068A00070003C00E0001800C0000000C0000000C4
:1068B000C000000060000000200000003700000160
:1068C000FF00007FF80007F830001F8030000080D4
:1068D000300000C03000006060000018E000000FD1
:1068E000C0000006000000000000CCE50000000031
:1068F00000000000000000C0000000E0002001B81F
:1069000000703FF80061FFC000C3030001C606002D
:10691000038C060003080C0006080C000E18183F34
:106920001E101BF31F903F0700803C1C0190707CE1
:10693000019060FE01A0C3F801A00FD803A00818C1
:10694000036000180340001803C0001803800018FB
:1069500003000018000000180000001000000030C4
:10696000000000300000000000000000B2E2000063
:106970000000000000000000000000000000020C09
:106980001008071FF80403BFF00201BC300303EC3A
:106990003003015C600300D8600300D86003809876
:1069A000620361B8430771B143063132430633765F
:1069B000C3063A64C7063EECC0063E78C0063C30CB
:1069C00040067C70000678E060067BFFF006F7C0AA
:1069D0000006E4000006400000060000000600007B
:1069E000007C00008FF000007C0000000000CAD492
:1069F00000000000000000000000000000003F0058
:106A000000007F8000000180000000C0000000C086
:106A1000000000CE038000CFFFC000DD41800FFEEC
:106A20000007FFFC000C00F000180FC03E19FF40EB
:106A3000F311BC6083307FE003B1FE20033380207C
:106A400003700030036000100360001807C0000CE2
:106A500007C00004078000020100000300000001DD
:106A60000000000000000000000000000000000026
:106A7000010002000400060008000A000C001000DB
:106A80002000400080000001010002000400060018
:106A900008000A000C0010002000400080000001E7
:106AA00000000000010203040102030406070809B4
:106AB000010002000400060008000A000C0010009B
:106AC00020004000800000010100020004000600D8
:106AD00008000A000C0010002000400080000001A7
:106AE000FFFFFFFFFFFFFFFFFFFFFFFFFFFFFFFFB6
:106AF000FFFFFFFFFFFFFFFFFFFFFFFFFFFFBEF7EF
:106B0000FFFFDEFF38C6928C8E6B6E6B107C96ADED
:106B10003CE7FFFFFFFFFFFFFFFFFFFFFFFFFFFF60
:106B2000FFFFFFFFFFFFFFFFFFFFFFFFFFFFFFFF75
:106B3000FFFFFFFFFFFFFFFFFFFFFFFFFFFFFFFF65
:106B4000FFFFFFFFFFFFFFFFFFFFFFFFFFFF5DEF07
:106B5000159D4F636C420A32882946192519452133
:106B6000E8318E6B38C6FFFFFFFFFFFFFFFFFFFF1F
:106B7000FFFFFFFFFFFFFFFFFFFFFFFFFFFFFFFF25
:106B8000FFFFFFFFFFFFFFFFFFFFFFFFFFFFFFFF15
:106B9000FFFFFFFFFFFFFFFFFFFFFFFF36A51053C3
:106BA000104B51530F4B6C3AE93167212519E41012
:106BB000A30862008308CB529AD6FFFFFFFFFFFFB6
:106BC000FFFFFFFFFFFFFFFFFFFFFFFFFFFFFFFFD5
:106BD000FFFFFFFFFFFFFFFFFFFFFFFFFFFFFFFFC5
:106BE000FFFFFFFFFFFFFFFF3CE77063B363B87C6D
:106BF000F56311434D32EA29882126190519051933
:106C000004110411E4108300A308728CFFFFFFFF3E
:106C1000FFFFFFFFFFFFFFFFFFFFFFFFFFFFFFFF84
:106C2000FFFFFFFFFFFFFFFFFFFFFFFFFFFFFFFF74
:106C3000FFFFFFFFFFFFDBDE4B3AF042356C544BAA
:106C4000B1322E2AEB21A92167190519041104116B
:106C50000411041104110519E4104200AF73FFFF81
:106C6000FFFFFFFFFFFFFFFFFFFFFFFFFFFFFFFF34
:106C7000FFFFFFFFFFFFFFFFFFFFFFFFFFFFFFFF24
:106C8000FFFFFFFF5DEF09324C32104B8F324F2A6E
:106C90002E2ACC19891989214719051904110411C3
:106CA000C410C410041104110411E4104200318412
:106CB000FFFFFFFFFFFFFFFFFFFFFFFFFFFFFFFFE4
:106CC000FFFFFFFFFFFFFFFFFFFFFFFFFFFFFFFFD4
:106CD000FFFFFFFFEC5247194C320B2AEC21EC214D
:106CE0000C22915BEE4A061126190419E410E410F7
:106CF000A7296621A308051904110411E4108200D4
:106D0000F7BDFFFFFFFFFFFFFFFFFFFFFFFFFFFFDD
:106D1000FFFFFFFFFFFFFFFFFFFFFFFFFFFFFFFF83
:106D2000FFFF35A58308882188218921AA218A218E
:106D30006B42718CFFFF728C83080411C4082942D6
:106D4000FBDE5DEFEC5A8308041104110411830883
:106D5000E831DFFFFFFFFFFFFFFFFFFFFFFFFFFF48
:106D6000FFFFFFFFFFFFFFFFFFFFFFFFFFFFFFFF33
:106D7000BEF7C731C4102519261947194719A82984
:106D80008A52284A55ADFFFFE831A30805194D6B1B
:106D90004D6BFFFF7DEF4521C41004110411041158
:106DA000620076ADFFFFFFFFFFFFFFFFFFFFFFFF6A
:106DB000FFFFFFFFFFFFFFFFFFFFFFFFFFFFFFFFE3
:106DC00096B562000411041905110519C4088B4A0F
:106DD000B6B55DEFF7BDFFFF8E6B62002942AA5A80
:106DE0000842FFFFFFFFCC52830804110411041175
:106DF000A308AD52FFFFFFFFFFFFFFFFFFFFFFFFF5
:106E0000FFFFFFFFFFFF1CE7FFFFFFFFFFFFFFFF8D
:106E10004E636200041104110411E41062008E63D9
:106E2000FFFFFFFFFFFFFFFFCF730100F39C2C6309
:106E300096B5FFFFFFFF2D5B8300041104110411C1
:106E4000E41067213DEFFFFFFFFFFFFFFFFFFFFFA4
:106E5000F8BDB7B59EEFCB52B394FFFFFFFFDFFF46
:106E6000E831A3080411041104110411A3084942D4
:106E7000FFF7FFF7FFFFFFFF6A4A01007284FFFF81
:106E8000FFFFFFF7DFEF093AA30804110411041113
:106E90000411051118BEFFFFFFFFFFFFFFFFFFFFFB
:106EA000F07B6200E831C731410035A5FFFF5DEF9F
:106EB0004621C4100411041104110411E410A308A4
:106EC000769DFFF7FFFFB7ADA308A308C7319EE784
:106ED000FFF7FFF776A5A308E410041104110411CD
:106EE0000511051135A5FFFFFFFFFFFFFFFFFFFFA6
:106EF000DBDEA7298300C410C410C4101CE79EEF7A
:106F00000511E41004110411041104110419C4083A
:106F1000E510D16BD16BC5086400A50843002B3286
:106F2000779DB3842519C4100411041104110411B0
:106F300025192609359DFFFFFFFFFFFFFFFFFFFF1C
:106F4000FFFFAF7362000419051982000D5B8E9B71
:106F500062100511041104110419E41085000511D3
:106F6000C439815A407B229C43AC03A4839B827228
:106F70008249C218A400C500E410041904110519BF
:106F800047196711EC5ABEFFFFFFFFFFFFFFFFFF2E
:106F9000DFFFDBDEC410E41004110511A41801C0EA
:106FA0008388E40005190419C5084421438323D5C7
:106FB00042FEE4FE27FF07FFA4FE64FE03FEA3FDDE
:106FC000E2FC42EC83B32462E510C40804192619DC
:106FD000A81987210090D3BCFFFFFFFFFFFFFFFF31
:106FE000DFFFFFFF107C420005190511832801D047
:106FF00044F8A348E400C508445A02EDE2FD02FE4D
:1070000066FE74FFB8FF73FFE7F6A6F645F6A4F533
:10701000C3FC62FCC2FCC2FCE3CBC4490611881964
:107020008701A49001F8EC9AFFFFFFFFFFFFFFFF2D
:10703000FFFFFFFFBEF7E83183000509824001C072
:1070400023F885F0A348A400445A02FD23CCC2DCF7
:1070500004FE28FE48F646F624F6E4F564FDE3FC5B
:1070600062FCC2FC02E402DCE2FCA47A4801670193
:10707000C47824F802F884B07DE7FFFFFFFFFFFF2C
:10708000FFFFFFFFFFFFDBDE2519A300C43802E08E
:1070900022D844F8A6F8A478630043218372833988
:1070A000829B21F561FD22FDE2FCA2FC42FC42FC38
:1070B00042FC22AB8341C392045226012519A498B5
:1070C00044F823F802F8A4D09EEFFFFFFFFFFFFF74
:1070D000FFFFFFFFFFFFFFFF9AD68729A50043B8F8
:1070E00022F823E065F8E8F807C983484200A300C6
:1070F00084006329A27A62B3A2CB62D302BB828AE4
:107100008339A400E500E500E508C46064D844F8CC
:1071100024F823F802F88388DBC6FFFFFFFFFFFF98
:10712000FFFFFFFFFFFFFFFFFFFF3DE7505B083161
:1071300023E843F844F065F809F9ABF989D10689E9
:10714000A34842180200420061008200620062000F
:107150008300A320C450A58885D865F844F844F876
:1071600023F823F803D08210C7295DEFFFFFFFFF4C
:10717000FFFFFFFFFFFFFFFFFFFFFFFFFFFF6C327F
:10718000A53802D823F865F866F8A7F84AF90CFA8A
:107190004DFA4CEA0BD2A9B968B147A927B107B992
:1071A00007D1E7E8C7F8A7F865F865F844F823F8C9
:1071B00003F802D0A3280509C408EC5AFFFFFFFF1B
:1071C000FFFFFFFFFFFFFFFFFFFFFFFFFBDE0519D4
:1071D000C400A741E6C003F886F8A7F887F886F848
:1071E000C7F829F98AF9ABF9ABF98BF96AF929F9EA
:1071F00008F9C7F8A6F886F865F864F823F802F0ED
:1072000006B12529E400E41025192519149DFFFF76
:10721000FFFFFFFFFFFFFFFFFFFFFFFF96AD6200D5
:1072200082083595BACE8BA244D025F887F8A7F806
:10723000C7F8A7F887F886F886F886F887F8A7F8D9
:10724000A7F8A6F885F865F864F824F064B80D93FB
:10725000BBB6CF6383080411E4106621493A5DEFA1
:10726000FFFFFFFFFFFFFFFFFFFFFFFFD394420081
:10727000E410BBCEFFFFBEE776B5CCAA07C145E060
:1072800045F846F866F886F886F886F886F865F8D0
:1072900045F865F865E844D043A8018882903CD75A
:1072A000FFEF559583080411041105194619B3948D
:1072B000FFFFFFFFFFFFFFFFFFFFFFFFB394410052
:1072C00086215DDFFFFFFFFFFFFFDFE77AC6D3B454
:1072D0004EB32AC268D1E6E0A6E8A5E8A5E8E6D85C
:1072E00088C906A922A802A800A000C800D8F7E50E
:1072F000FFE7F8ADC410E4100411E41005118B4A47
:10730000FFFFFFFFFFFFFFFFFFFFFFFF55A541004E
:10731000A7295DDFFFF7FFFFFFFFFFFFFFFFFFFF75
:10732000FFEF7DDFDBCE59CEF8CDD7CDF7C579CED7
:10733000FBBEABA203F045F842D043E800F072D4A4
:10734000FFDF39AEE410E4100411E41005118729C1
:10735000FFFFFFFFFFFFFFFFFFFFFFFF59CE830887
:1073600046211CD7FFF7FFFFFFFFFFFFFFFFFFFFD7
:10737000FFFFFFFFFFFFFFFFFFFFFFFFFFFFFFFF1D
:10738000FFEF8BBA04F845F862E044F000F88EDBBA
:10739000FFDFF8A5C410E410E4100411E41025196F
:1073A000FFFFFFFFFFFFFFFFFFFFFFFFBEF7872984
:1073B000830839B6FFF7DFF7FFFFFFFFFFFFFFFF8F
:1073C000FFFFFFFFFFFFFFFFFFFFFFFFFFFFFFFFCD
:1073D000BEE74ABA03F845F864F844F800F86EE3EB
:1073E000FFD7F48C83080411E410E410E4100519AD
:1073F000FFFFFFFFFFFFFFFFFFFFFFFFFFFFEF7339
:1074000000007284FFEFBEEFDFFFFFFFFFFFFFFF13
:10741000FFFFFFFFFFFFFFFFFFFFFFFFFFFFFFFF7C
:10742000DFE78BBA03F845F845F823F800F8D3D422
:10743000FFD74E5B2100293A55A58308C4102519B2
:10744000FFFFFFFFFFFFFFFFFFFFFFFFFFFFFBDE71
:10745000A308E8319EDF9EE7BFEFFFFFFFFFFFFFBE
:10746000FFFFFFFFFFFFFFFFFFFFFFFFFFFFFFFF2C
:10747000FFF751BC02E003F803F043E0ECC27ECF1B
:10748000FCBE46212100D394FFFF518400008729D0
:10749000FFFFFFFFFFFFFFFFFFFFFFFFFFFFFFFFFC
:1074A00051840000F48CFFEF9EE7BFEFDFFFFFFF8A
:1074B000FFFFFFFFFFFFFFFFFFFFFFFFFFFFFFFFDC
:1074C000FFFF3DDF55BD52BC72BCB7B55DC7FFDFE6
:1074D000F06B0000093ABFF7FFFFFFFF149D55A5B1
:1074E000FFFFFFFFFFFFFFFFFFFFFFFFFFFFFFFFAC
:1074F000FFFFAC4AA408BBBEDFE77EE7BEEFDFF7C5
:10750000DFFFFFFFFFFFFFFFFFFFFFFFFFFFFFFFAB
:10751000DFFFDFF7FFEFDFDFBFD79ED7DFDFD8A5C5
:1075200083082611DBD6FFFFFFFFFFFFFFFFFFFFF2
:10753000FFFFFFFFFFFFFFFFFFFFFFFFFFFFFFFF5B
:1075400079EE8BDC2131A9213DCFBFDF7EDF9EE7C5
:10755000BEEFBFEFDFF7DFF7DFF7DFF7DFF7BFEFF4
:10756000BEEF9EE77EDF5ED75ED7DFDF9AB62619D5
:107570004208EDA3BFFFFFFFFFFFFFFFFFFFFFFF7D
:10758000FFFFFFFFFFFFFFFFFFFFFFFFFFFF74DDB8
:10759000C0DB00FE42EE024289217BB6DFDF7ED7F0
:1075A0007EDF7EDF9EE79EE79EE79EE79EE77EDF2B
:1075B0007EDF5DD75DD79EDFFFE7F8A50711E318F3
:1075C00002C560FDE6D3DBEEFFFFFFFFFFFFFFFF1D
:1075D000FFFFFFFFFFFFFFFFFFFFFFFF9EF784BAE4
:1075E000C1FC42FE82FEA2FE8183452174745EC707
:1075F000DFDF7ED75ED75DD75ED75ED75DD75DD73D
:107600005ED79EDFFFE73DC7F1638408425226E65E
:1076100029FF86FEE0F36AC3FFFFFFFFFFFFFFFFC6
:10762000FFFFFFFFFFFFFFFFFFFFFFFF18DEC1D2DD
:10763000A2FD22FE42FE42FE62FEE2D4416A4942BF
:1076400053743BA63EC7BFD7BFD7BFD7BFDFBFD797
:107650003EC71AA6F263A729824122B462FE83FEC6
:10766000AAFE0FFF67FD63BA3CEFFFFFFFFFFFFFBE
:10767000FFFFFFFFFFFFFFFFFFFFFFFF9AE680D244
:1076800021FDC2FDE2F5C2F582F582FD62FD61DCFD
:10769000219B846AE96A2C63AF6311746E632C6367
:1076A000895A0452817AC2CBE2FC62FD82FDC2FD9E
:1076B000C2FDE4FD24FD62CA1CE7FFFFFFFFFFFFE0
:1076C000FFFFFFFFFFFFFFFFFFFFFFFFFFFFB1CC4B
:1076D00081D2C0F3C1FC02FD02FDE2FCC2FCC2FC8F
:1076E00081FC80FBC0C9A48135AD59CE719C21813C
:1076F00000DAA1FB82FCA2FC82FCA2FC02FD22FDBE
:10770000E2FC00FC60DA90CCFFFFFFFFFFFFFFFF11
:10771000FFFFFFFFFFFFFFFFFFFFFFFFFFFFFFFF79
:1077200059DE0DC406CBE4D203DB03DBE3DAC3D2BC
:10773000A4C209B3D2BC9EF7FFFFFFFFFFFFFBE629
:107740000EB4A6BA83D2E3E202EB22EB22E303DB20
:10775000E4D26AC3B6D5FFFFFFFFFFFFFFFFFFFFC5
:10776000887700088077000878770008707700082D
:10777000523A323730000000523A313830000000BF
:10778000523A393000000000523A3000AC7700081D
:107790000000002428000000D4020008D47700086C
:1077A00028000024F8060000F00200080090D00332
:1077B0000090D00300F8E0071F00E0FF1FF8000072
:1077C00000000000000000001000000001000000A8
:0477D000FFFF0000B7
:040000050800029954
:00000001FF
