:020000040800F2
:10000000300800248103000869470008F93B000814
:100010008D030008BD0800082562000800000000EC
:10002000000000000000000000000000274E000853
:10003000F50C0008000000006B4700082D50000878
:100040009B0300089B0300089B0300089B03000818
:100050009B0300089B0300089B0300089B03000808
:100060009B0300089B0300089B0300089B030008F8
:100070009B0300089B0300089B0300089B030008E8
:100080009B0300089B0300089B0300089B030008D8
:100090009B0300089B0300089B0300089B030008C8
:1000A0009B0300089B0300089B0300089B030008B8
:1000B0009B0300089B0300089B0300089B030008A8
:1000C0009B0300089B0300089B0300089B03000898
:1000D0009B0300089B0300089B0300089B03000888
:1000E0009B0300089B030008000000009B0300081E
:1000F0009B0300089B0300089B0300089B03000868
:100100009B0300089B0300089B0300089B03000857
:100110009B0300089B0300089B0300089B03000847
:100120009B0300089B0300089B0300089B03000837
:100130009B0300089B0300089B0300089B03000827
:1001400000000000000000000000000000000000AF
:100150009B0300089B0300089B0300089B03000807
:100160009B0300089B0300089B0300089B030008F7
:100170009B0300089B0300089B030008000000008D
:100180009B0300089B0300089B0300089B030008D7
:100190009B0300089B0300089B0300089B030008C7
:1001A0009B0300089B0300089B0300089B030008B7
:1001B0009B0300089B0300089B0300089B030008A7
:1001C0009B0300089B0300089B0300089B03000897
:1001D0009B0300089B0300089B0300089B03000887
:1001E0009B0300089B0300089B0300089B03000877
:1001F0009B0300089B0300089B0300089B03000867
:100200009B0300089B0300089B0300089B03000856
:100210009B0300089B0300089B0300089B03000846
:100220009B0300089B0300089B03000800000000DC
:100230009B0300089B030008000000009B030008CC
:100240009B0300089B0300089B0300089B03000816
:100250009B0300089B0300089B0300089B03000806
:100260009B0300089B0300089B0300089B030008F6
:100270009B0300089B0300089B030008000000008C
:100280009B030008000000009B0300080000000022
:10029000000000009B03000800F002F800F046F8A0
:1002A0000AA090E8000C82448344AAF10107DA45D1
:1002B00001D100F03BF8AFF2090EBAE80F0013F0DD
:1002C000010F18BFFB1A43F001031847CC88000048
:1002D000EC880000103A24BF78C878C1FAD85207D9
:1002E00024BF30C830C144BF04680C6070470000B0
:1002F0000023002400250026103A28BF78C1FBD82F
:10030000520728BF30C148BF0B607047782900F002
:10031000BB80732900F09382002070471FB506F060
:1003200014F900F08EF91FBD10B510BD00F08BFA66
:100330001146FFF7F3FF06F068F800F0A9FA03B4DE
:10034000FFF7F2FF03BC00F0B3FA00000B49D1F84D
:1003500000C04A685CF8043B1068184442F8040B7B
:100360008C4528BFA1F1DC0C8A4228BFA1F1DC0238
:10037000C1F800C04A6020F000407047C40100246A
:100380000948804709480047FEE7FEE7FEE7FEE729
:10039000FEE7FEE7FEE7FEE7FEE7FEE70448054965
:1003A000054A064B704700003550000899020008C6
:1003B00030020024300800243004002430040024DB
:1003C0000FB41CB5074B06AA7B44694600900598FC
:1003D00000F00BFA0020694600F01AFA1CBC5DF828
:1003E00014FB00004504000070B5044685690068F0
:1003F000C10601D5302600E02026C00707D070BD19
:10040000D4E9012130469047206A401C20626D1ECD
:10041000F6D570BD70B5044685690078C00707D170
:1004200070BDD4E9012120209047206A401C206241
:100430006D1EF6D570BD70B50C460546012A05D077
:100440002878800600D5EA69002302E0012305E050
:100450005B1C934202D2E05C0028F9D1A869E6183F
:10046000C01AA861286A184428622846FFF7BCFF12
:1004700004E0D5E9012114F8010B9047B442F8D308
:100480002846FFF7C7FF70BD70B504460D462146EC
:100490001068AFF300802188090502D50F4A7A441D
:1004A00002E00E4A7A440E32002104F1240305E0F2
:1004B00000F00F060009965D5E54491C0028F7D134
:1004C00020780023000704D5702D02D009B1022343
:1004D00011322046BDE8704000F029B98286000044
:1004E0002DE9F05F894604464FF0000ADFF824B199
:1004F000FB44C0F820A02046E168884700287DD052
:10050000252806D0D4E901219047206A401C2062AA
:10051000F1E700255F462046E16888472028064627
:1005200007DB312E05D2B81910F8200C08B10543AD
:10053000F1E7A80701D525F00405C4F81CA00027A1
:10054000C4F818A02A2E09D0304605F0CBFE38B3E7
:1005500004EB8708303EC8F8186019E059F8041B0E
:10056000204604EB87029161E1688847012F064627
:1005700018D1E069002820DA25F020051DE0D8F820
:10058000180000EB800006EB40003038C8F8180077
:100590002046E1688847064605F0A4FE0028EED113
:1005A000012F0AD02E2E08D12046E16888477F1CF3
:1005B0000646022F45F02005C4DBA069002803DAB7
:1005C000404245F00105A061E80701D025F0100583
:1005D000A6B1A6F14100192802D8203645F40065DD
:1005E0004A463146204625604D46FFF78FFE60B1F2
:1005F000012807D0ED1D25F0070000E007E000F11D
:10060000080978E705F1040975E730467AE7206ABA
:10061000BDE8F09F588600000B4910B5A1F17C029F
:100620000A4CC2E93712372106E000EB104342F8CA
:100630002130074B00FB03400B1EA1F10101F4DC4C
:1006400010BD0120E8E7000064010024E119D6662E
:10065000CD0D010040EA0103024630B59B0710D1E1
:100660004FF0013400E008C208C91D1B9D4315EA84
:10067000C41FF8D013F0FF0102F8011B0DD01B0AB4
:10068000F8E711F8013B002B02F8013B05D011F807
:10069000013B002B02F8013BF3D130BD10B5431CE8
:1006A00002E010F8011B71B18107FAD14FF001325D
:1006B00002C88C1A8C4314EAC211F9D0C01A0A0677
:1006C00003D0C01E10BDC01A10BD0A0401D0801E88
:1006D00010BD0902FCD0401E10BD4FF0000200B555
:1006E000134694469646203922BFA0E80C50A0E855
:1006F0000C50B1F12001BFF4F7AF090728BFA0E803
:100700000C5048BF0CC05DF804EB890028BF40F8CE
:10071000042B08BF704748BF20F8022B11F0804F10
:1007200018BF00F8012B70477047704770472DE9DC
:10073000F0470D4699469246044600F124080168A8
:10074000880604D5E06921F01001216000E0012055
:10075000A84201DD471B00E00027A1697A1902EBDE
:100760000900081AA0612078C00602D42046FFF7CD
:100770003BFE002608E0D4E901211AF80600904764
:10078000206A401C761C20624E45F4DB2078C006AF
:100790000AD52046FFF728FE06E0D4E901213020E3
:1007A0009047206A401C2062381EA7F10107F4DC44
:1007B00007E0D4E9012118F805009047206A401CA1
:1007C0002062281EA5F10105F3DC2046FFF722FE7A
:1007D0002078000602D50220BDE8F0870120FBE763
:1007E00001694A1C02610878704700B58FB0CDE9F5
:1007F00001310021059105497944CDE903101146E5
:100800006846FFF76DFE0FB000BD0000E5FFFFFF7B
:100810000A6802F8010B0A60704710B5436913B10A
:10082000AFF3008001E0FFF706FE012010BD127853
:1008300000F124010A7000224A700122EDE71168DC
:100840004FF0FF32E9E7754600F02CF8AE460500A0
:100850006946534620F00700854618B020B5FFF7DB
:100860009DFDBDE820404FF000064FF000074FF01F
:1008700000084FF0000B21F00701AC46ACE8C009BE
:10088000ACE8C009ACE8C009ACE8C0098D467047C7
:1008900010B50446AFF300802046BDE81040FFF7D6
:1008A0004EBD000000487047CC0100247047000096
:1008B00001491820ABBEFEE72600020000BFFEE79C
:1008C00010B5012005F030FD10BD000010B500226C
:1008D0004021114801F01EFA1048006820F0C000C5
:1008E0000E4908600846006840F040000860002299
:1008F00008210A4801F00EFAFFF7E2FF0122402129
:10090000054801F007FAFFF7DBFF0022402102480B
:1009100001F000FA10BD0000001C0258002002582F
:1009200000B587B000BF1B48006840F0800019493F
:1009300008600846006800F08000019000BF00BF1A
:1009400000BF0846006840F48070086008460068F0
:1009500000F48070019000BF00BF40200290012091
:10096000039004900320059002A90B4801F0A4F81D
:100970000820029002A9094801F09EF801224021B6
:10098000054801F0C7F901220821044801F0C2F925
:1009900007B000BDE0440258001C02580020025875
:1009A00010B500224021114801F0B4F91048006848
:1009B00020F0C0000E4908600846006840F0400082
:1009C0000860012208210A4801F0A4F9FFF778FF26
:1009D00001224021054801F09DF9FFF771FF002237
:1009E0004021024801F096F910BD0000001C025899
:1009F0000020025870B5054600241648006820F013
:100A0000C00014490860084600680860002617E026
:100A100000224021104801F07DF9032005F084FCFC
:100A2000012240210C4801F075F96006040E0821EE
:100A3000084801F067F908B1601CC4B2701CC6B266
:100A4000082EE5DB15B9FFF7ABFF01E0FFF73EFF2E
:100A5000204670BD00200258001C025870B50446A4
:100A60001948006820F0C00017490860084600686F
:100A700040F04000086000224021144801F04AF98B
:100A800000251EE0E00928B1012208210E4801F0EE
:100A900041F904E0002208210B4801F03BF960060F
:100AA000040E01224021094801F034F9FFF708FF44
:100AB00000224021054801F02DF9FFF701FF681CD5
:100AC000C5B2082DDEDB70BD00200258001C0258A4
:100AD00010B51248006820F0C000104908600846B0
:100AE000006840F040000860012208210B4801F036
:100AF00011F9012240210A4801F00CF9FFF7E0FE4C
:100B000000220821054801F005F9FFF7D9FE00226F
:100B10004021034801F0FEF810BD000000200258FB
:100B2000001C025810B51248006820F0C00010499F
:100B300008600846006840F040000860002240213C
:100B40000C4801F0E7F800220821094801F0E2F81A
:100B5000FFF7B6FE01224021064801F0DBF8FFF75F
:100B6000AFFE01220821024801F0D4F810BD0000B8
:100B700000200258001C025810B5002417480068D5
:100B800020F0C0001549086008460068086001228E
:100B90000821124801F0BEF8012005F0C5FB012232
:100BA00040210F4801F0B6F8012005F0BDFB07E039
:100BB000601CC4B2FA2C03DDFFF7B4FF012010BDA6
:100BC0000821064801F09EF80028F1D100224021BA
:100BD000034801F09FF80020F1E7000000200258D0
:100BE000001C025810B503F0D1FF03F081FF034849
:100BF000006840F004000149086010BD9CEF00E06F
:100C00000EB51EA000F078F80020102120A24FF6AB
:100C1000E073CDE9002102901F221E210A2004F07A
:100C200003F90020102123A24FF6E073CDE9002143
:100C300002901F2232210A2004F0F6F80120182128
:100C400022A24FF6E073CDE9002102901F22462137
:100C50000A2004F0E9F80120202122A24FF6E073D7
:100C6000CDE9002102901F2264210A2004F0DCF863
:100C70004FF4966005F04CFB0EBD0000B2E2CAD402
:100C8000373AD6D0CEC4CFD4CABEB2E2CAD400005E
:100C900031365831363AC8ABB6AFB5E7D7D3BCBC5E
:100CA000CAF5D3D0CFDEB9ABCBBEBBB6D3ADC4FA99
:100CB0000000000031365831363A57656C636F6D6D
:100CC00065C8ABB6AFB5E7D7D300000032345832B1
:100CD000343AC9EEDBDACAD0D6D0CEC4B2E2CAD436
:100CE0000000000033325833323AD7D6CCE5B2E2B6
:100CF000CAD40000704700003EB504464FF6FF70AE
:100D000002F07CFF1F200090194802881423002164
:100D1000084603F0E3F81F20009015484388028836
:100D20004088143881B2002003F0D8F84FF6FF70E5
:100D300010490880012010211F234FF6FF72CDE9D2
:100D4000004102900221002000F08CFE01201021C1
:100D500009A2CDE90021029005484088123881B2ED
:100D60001F234FF6FF72002000F07CFE3EBD000006
:100D70005000002432000024687474703A2F2F77DA
:100D800077772E6C636477696B692E636F6D0000F3
:100D90002DE9F84F06460F4691469846C9F10100E5
:100DA0000FFA80FA4FF0010B4FEA4900404200B2BF
:100DB000009000244D4652E0BAF1000F09DB681E96
:100DC00085B20098801C00B20090009850440FFA41
:100DD00080FA601C84B20BF102000FFA80FB0AEB70
:100DE0000B000FFA80FA08F0040058B17A1991B29A
:100DF000321990B202F0F6FF3A1991B2721990B21C
:100E000002F0F0FF08F0020058B17A1B91B23219DB
:100E100090B202F0E7FF3A1B91B2721990B202F061
:100E2000E1FF08F0080058B13A1991B2721B90B274
:100E300002F0D8FF7A1991B2321B90B202F0D2FFC1
:100E400008F0010058B13A1B91B2721B90B202F047
:100E5000C9FF7A1B91B2321B90B202F0C3FFAC42C1
:100E6000AADBBDE8F88F2DE9F04704460D4616468B
:100E70001F46DDE908893B4632462946204602F0F6
:100E800003FF4B4642463946304602F0FDFE2B46F4
:100E900022464946404602F0F7FEBDE8F0870000D2
:100EA0000EB52BA0FFF728FF00200C212DA24FF636
:100EB000E073CDE9002102901F221E210A2003F0D9
:100EC000B3FF01200C2132A24FF6E073CDE90021DF
:100ED00002901F222D210A2003F0A6FF00200C21E2
:100EE00036A24FF6E073CDE9002102901F223C218B
:100EF0000A2003F099FF0020102138A24FF6E0737A
:100F0000CDE9002102901F2250210A2003F08CFF1E
:100F1000012010213CA24FF6E073CDE900210290A0
:100F20001F2264210A2003F07FFF0020102141A22C
:100F30004FF6E073CDE9002102901F2278210A20AC
:100F400003F072FF4FF4966005F0E2F90EBD000069
:100F5000B2E2CAD4363AD3A2CEC4CFD4CABEB2E229
:100F6000CAD40000365831323A61626364656667FC
:100F700068696A6B6C6D6E6F707172737475767779
:100F800078797A30313233343536373839000000E9
:100F9000365831323A4142434445464748494A4B24
:100FA0004C4D4E4F505152535455565758595A3034
:100FB0003132333435363738390000003658313263
:100FC0003A7E21402324255E262A28295F2B7B7D1B
:100FD0003A3C3E3F2F7C2D2B2E00000038583136F6
:100FE0003A6162636465666768696A6B6C6D6E6FAF
:100FF000707172737475767778797A3031323334F0
:101000003536373839000000385831363A414243D6
:101010004445464748494A4B4C4D4E4F5051525318
:101020005455565758595A3031323334353637388B
:1010300039000000385831363A7E21402324255E9D
:10104000262A28295F2B7B7D3A3C3E3F2F7C2D2B87
:101050002E00000000B587B000BF3A48006840F09D
:101060008000384908600846006800F08000009061
:1010700000BF00BF00BF0846006840F480700860F1
:101080000846006800F48070009000BF00BF802018
:10109000019000200290012003900320049001A9F8
:1010A000294800F009FD4FF4807001900120029062
:1010B00001A9264800F000FDFFF732FC00224FF4A2
:1010C0008071224800F026FE0A2005F021F9012255
:1010D00011021E4800F01EFE4FF4FA7005F018F9D8
:1010E000012206A9A82000F033F89DF81800112865
:1010F00002D0012007B000BD022206A99F2000F007
:1011000027F89DF81800262801D00120F2E79DF865
:10111000190048B19DF81900012805D09DF8190063
:10112000022801D00120E5E7012206A9A32000F052
:101130000FF89DF81800642801D00120DAE700209C
:10114000D8E70000E0440258001C02580020025872
:101150002DE9F04106460F461546FFF7B9FC702011
:10116000FFF77CFCFFF708FDF0B2FFF777FCFFF715
:1011700003FDFFF7ADFC7120FFF770FCFFF7FCFCEF
:1011800000240BE0691EA14201D0012100E00021F2
:101190000846FFF72FFC3855601CC4B2AC42F1DBA7
:1011A000FFF7C0FCBDE8F0817CB50024002677483D
:1011B0000078401C75490870084600780A2190FBA9
:1011C000F1F201FB120018B1704800780A287CDAAD
:1011D000012269460220FFF7BBFF9DF800000028AE
:1011E00073D09DF800000328F1DA9DF80010FF206D
:1011F0008840C5B2E843C0B240F0C00064490874FA
:10120000002492E0634931F81400042201A9FFF799
:101210009FFF5F48007C0121A140084000287DD04D
:101220005D48807930B101281DD0022838D00328CC
:1012300078D158E09DF805009DF8041001F00F01E9
:1012400000EB01205249083121F814009DF80700F5
:101250009DF8061001F00F0100EB01214C480C3005
:1012600020F814105EE09DF805009DF8041001F0D0
:101270000F0100EB012048494988081A81B244480F
:101280000C3020F814109DF807009DF8061001F0AE
:101290000F0100EB01203E49083121F8140041E024
:1012A0009DF805009DF8041001F00F0100EB0120EE
:1012B00039490988081A81B23548083020F81410D5
:1012C0009DF807009DF8061000E03DE001F00F01D9
:1012D00000EB012030494988081A81B22C480C30B3
:1012E00020F814101EE09DF805009DF8041001F090
:1012F0000F0100EB012026490C3121F814009DF864
:1013000007009DF8061001F00F0100EB01202249B3
:101310000988081A81B21E48083000E003E020F86E
:10132000141000BF00BF601CC4B2022CFFF66AAFED
:1013300001261748008920B91548808908B900207E
:1013400000900020114908709DF80000A8B91048CD
:10135000007C00F0800030B10D48007C20F080005F
:101360000B49087409E04FF6FF700949088188812C
:101370000846007C00F0E000087404480078F0287B
:1013800002DD0A200149087030467CBD4C00002473
:1013900038000024208B0008500000242DE9FC5F59
:1013A00006460F4690469A46DDF83090C8F1010097
:1013B0000FFA80FB012001904FEA4800404200B242
:1013C00000900024454670E0BBF1000F09DB681E69
:1013D00085B20098801C00B20090009858440FFA23
:1013E00080FB601C84B20198801C00B201900198BF
:1013F00058440FFA80FB0AF0010048B307EB050CD4
:101400000CF1010CCC441FFA8CF306EB040C1FFA10
:101410008CF2A7EB050C1FFA8CF106EB040C1FFAFB
:101420008CF002F031FC07EB040C0CF1010CCC4405
:101430001FFA8CF306EB050C1FFA8CF2A7EB040CD9
:101440001FFA8CF106EB050C1FFA8CF002F01CFC65
:101450000AF0020048B307EB050C0CF1010CCC4478
:101460001FFA8CF3A6EB040C1FFA8CF2A7EB050C09
:101470001FFA8CF1A6EB040C1FFA8CF002F004FCAE
:1014800007EB040C0CF1010CCC441FFA8CF3A6EB17
:10149000050C1FFA8CF2A7EB040C1FFA8CF1A6EBDB
:1014A000050C1FFA8CF002F0EFFBAC428CDBBDE8C0
:1014B000FC9F00002DE9FF4F85B000260027BDF8F6
:1014C0001800BDF82010884207DD08A906A804F01E
:1014D00010FF07A905A804F00CFFBDF82000BDF817
:1014E0004C10884207DD08A913A804F002FF07A9E1
:1014F00012A804F0FEFEBDF81800BDF820108842C6
:1015000007DD08A906A804F0F4FE07A905A804F061
:10151000F0FEBDF81800BDF84C10884238D1BDF877
:10152000140003900490BDF81C00BDF81010884210
:1015300003DABDF81C00049008E0BDF81C00BDF8FB
:101540000C10884202DDBDF81C000390BDF8480075
:10155000BDF81010884203DABDF84800049008E096
:10156000BDF84800BDF80C10884202DDBDF8480007
:101570000390534800880090BDF81830BDF80C2047
:101580001946BDF8100002F0A9FC09B0BDE8F08FC3
:10159000BDF81C00BDF81410A0EB010BBDF8200035
:1015A000BDF81810401A0290BDF84800BDF814109C
:1015B000451ABDF84C00BDF81810A0EB0109BDF8A4
:1015C0004800BDF81C10A0EB010ABDF84C00BDF8A6
:1015D0002010401A0190BDF82000BDF84C10884240
:1015E00002D1BDF8208004E0BDF82000401E1FFAA3
:1015F00080F8BDF8184027E0029896FBF0F0BDF89F
:101600001410084480B2049097FBF9F0BDF8141050
:10161000084480B203905E442F44BDF81000BDF82A
:101620000C10884203DD03A904A804F062FE2448DC
:10163000008823460090BDF80C202146BDF810001C
:1016400002F04CFC601C84B24445D5DDBDF820009E
:10165000201A00FB0AF6BDF81800201A00FB05F757
:1016600027E0019896FBF0F0BDF81C10084480B20A
:10167000049097FBF9F0BDF81410084480B2039071
:1016800056442F44BDF81000BDF80C10884203DD0D
:1016900003A904A804F02DFE094800882346009001
:1016A000BDF80C202146BDF8100002F017FC601CAC
:1016B00084B2BDF84C008442D3DD00BF65E7000072
:1016C000320000242DE9FC5F0546884691469A4683
:1016D000DDF830B000954B20019000245FE004EB72
:1016E0000410374911F810009BF80010884253D1BC
:1016F00004EB0410324901EB400040789BF80110E4
:10170000884249D108F10F0083B205F10F0082B27F
:101710004146284602F004FE00263BE0002734E064
:101720000D9890B904EB0410254901EB4000801C92
:10173000805D80213941084018B1484602F0FCFF25
:1017400021E0504602F0F8FF1DE01E48A0F800908E
:1017500004EB04101A4901EB4000801C805D8021DD
:101760003941084018B14146284602F03BFB681C4D
:1017700085B20098281A102805D1009D08F10100B3
:101780001FFA80F803E0781CC7B2082FC8DB00BF3F
:10179000701CC6B2202EC1DB00BF601C84B2019851
:1017A00084429CDB08484088401E83B2064800887B
:1017B000401E82B20021084602F0B2FDBDE8FC9F47
:1017C000E86F000832000024500000242DE9FC5F7F
:1017D0000546884691469A46DDF830B000950720C8
:1017E0000190002467E004EB840000EB44103A49C8
:1017F00011F810009BF80010884259D104EB8400C6
:1018000000EB4410344901EB400040789BF8011094
:1018100088424DD108F1170083B205F1170082B25A
:101820004146284602F07CFD00263FE0002738E0D4
:101830000D98A0B904EB840000EB4410264901EB9D
:101840004000801C805D80213941084018B1484625
:1018500002F072FF23E0504602F06EFF1FE01F48C7
:10186000A0F8009004EB840000EB44101A4901EB4F
:101870004000801C805D80213941084018B14146FC
:10188000284602F0AFFA681C85B20098281A18287A
:1018900005D1009D08F101001FFA80F803E0781CD3
:1018A000C7B2082FC4DB00BF701CC6B2482EBDDB18
:1018B00000BF601C84B20198844294DB08484088D1
:1018C000401E83B206480088401E82B200210846AE
:1018D00002F026FDBDE8FC9FDE79000832000024FE
:1018E000500000242DE9FC5F0546884691469A4643
:1018F000DDF830B000950420019000245FE004EB97
:101900008410374911F810009BF80010884253D119
:1019100004EB8410324901EB400040789BF8011041
:10192000884249D108F11F0083B205F11F0082B23D
:101930004146284602F0F4FC00263BE0002734E054
:101940000D9890B904EB8410254901EB4000801CF0
:10195000805D80213941084018B1484602F0ECFE14
:1019600021E0504602F0E8FE1DE01E48A0F800907D
:1019700004EB84101A4901EB4000801C805D80213B
:101980003941084018B14146284602F02BFA681C3C
:1019900085B20098281A202805D1009D08F1010081
:1019A0001FFA80F803E0781CC7B2082FC8DB00BF1D
:1019B000701CC6B2802EC1DB00BF601C84B20198CF
:1019C00084429CDB08484088401E83B20648008859
:1019D000401E82B20021084602F0A2FCBDE8FC9F36
:1019E000E47B0008320000245000002470B5054656
:1019F0000E4614463146284602F088FC204602F086
:101A00009BFE70BD2DE9F04706460F46154607F1CF
:101A1000270083B206F1270082B23946304602F031
:101A20007FFC00240AE015F8149005EB440090F8C0
:101A3000018049EA082002F07FFE641CB4F5C86FFB
:101A4000F1DB07484088401E83B205480088401EED
:101A500082B20021084602F063FCBDE8F087000076
:101A6000500000242DE9FE4F0E4617469846DDE94A
:101A70000D9A0C9C2046FEF711FE85B20849098894
:101A8000A1EBC50000EBD071C1F34F0B43463A46C2
:101A9000314658468DE8100603F0C6F9BDE8FE8FC2
:101AA000500000240348006840F00100014908602C
:101AB0007047000020040058F8B502460B4600218C
:101AC000002600240020824D00BFFCE0012707FA19
:101AD00001F61F6807EA0604B4427CD15F68022F52
:101AE00002D05F68122F1AD14FEAD10C02F1200701
:101AF00057F82C004F074FEAD76C0F2707FA0CF75F
:101B0000B8434FEA417C4FEADC6C1F6907FA0CF7D7
:101B100038434FEAD10C02F1200747F82C00106837
:101B20004FEA410C032707FA0CF7B8431F7907F077
:101B300003074FEA410C07FA0CF7384310605F685F
:101B4000012F08D05F68022F05D05F68112F02D0E7
:101B50005F68122F17D190684FEA410C032707FAEC
:101B60000CF7B8434FEA410CDF6807FA0CF738432B
:101B70009060506801278F40B8431F79C7F3001762
:101B80008F4038435060D0684FEA410C032707FA72
:101B90000CF7B8434FEA410C9F6807FA0CF738433B
:101BA000D0605F6807F08057B7F1805F95D100BFC4
:101BB000484F3F6847F00207DFF818C1CCF80070C3
:101BC00067463F6807F00207009700BF00BF424F1B
:101BD0004FEA910C00E075E057F82C008F074FEAB0
:101BE000177C0F2707FA0CF7B8433C4FBA4201D1D4
:101BF00000272DE03A4FBA4201D1012728E0394FA2
:101C0000BA4201D1022723E0374FBA4201D103275C
:101C10001EE0364FBA4201D1042719E0344FBA42D0
:101C200001D1052714E0334FBA4201D106270FE056
:101C3000314FBA4201D107270AE0304FBA4201D1F1
:101C4000082705E02E4FBA4201D1092700E00A27F4
:101C50004FEA817C4FEA1C7C07FA0CF738431E4F91
:101C60004FEA910C47F82C002868A0435F6807F4FE
:101C70008037B7F5803F00D1204328606868A043D3
:101C80005F6807F40037B7F5003F00D12043686074
:101C90004FF0B0473868A0435F6807F48017B7F586
:101CA000801F00D120434FF0B04738607868A043D0
:101CB0005F6807F40017B7F5001F00D120434FF00D
:101CC000B0477860491C1029FFF400AFF8BD000050
:101CD00080000058F44402580804005800000258DC
:101CE0000004025800080258000C02580010025864
:101CF0000014025800180258001C02580020025814
:101D000000240258024613690B400BB1012000E089
:101D1000002070470AB1018300E041837047000052
:101D2000014800687047000028000024034800684C
:101D300003490978084401490860704728000024D5
:101D40003000002410B5032000F06EF80F2000F0E2
:101D500007F808B1012010BD00F028F80020FAE7CC
:101D600070B504460E4800784FF47A71B1FBF0F07C
:101D70000C490968B1FBF0F5284601F023FF08B1D2
:101D8000012070BD102C07D200222146501E00F009
:101D90000EF80548046001E00120F2E70020F0E7BA
:101DA00030000024000000242C00002470472DE99E
:101DB000F05F80460D46164604F036FA074639466F
:101DC0002A46334601F00700C0F1070ABAF1040FB2
:101DD00002D94FF0040A01E0C0F1070AD14600F130
:101DE000040ABAF1070F02D24FF0000A01E0A0F195
:101DF000030AD4464FF0010A0AFA09FAAAF1010AC5
:101E00000AEA020A0AFA0CFA4FF0010B0BFA0CFB71
:101E1000ABF1010B0BEA030B4AEA0B0421464046E7
:101E200004F00AFABDE8F09F00BF00F00702064B7D
:101E300019684FF6FF031940044B0B4343EA022194
:101E4000014B196000BF70470CED00E00000FA057F
:101E50002DE9F041044600250026206800F00060CE
:101E6000B0F1006F30D1606E48B1B0F5801F0DD079
:101E7000B0F5001F10D0B0F5401F15D113E0F948A0
:101E8000006840F40030F74908600FE00221201D8F
:101E900002F0BAFC054609E0022104F1240002F038
:101EA0004BFD054602E001E0012500BF00BF55B92A
:101EB000EC482430006820F44010616E0843E94982
:101EC0002431086000E02E43208800F48070B0F5D3
:101ED000807F2DD1606D05281AD2DFE800F0030A5B
:101EE00010171800DF48006840F40030DD49086032
:101EF00010E00021201D02F087FC05460AE00021C9
:101F000004F1240002F018FD054603E002E001E0C0
:101F1000012500BF00BF55B9D2482430006820F029
:101F20000700616D0843CF492431086000E02E436B
:101F3000208800F40070B0F5007F33D1A06D8028B8
:101F400017D003DC40B140281CD10CE0C02817D0CA
:101F5000B0F5807F16D114E0C248006840F400302C
:101F6000C049086010E00021201D02F04DFC05462C
:101F70000AE0002104F1240002F0DEFC054603E043
:101F800002E001E0012500BF00BF55B9B54824308B
:101F9000006820F4E070A16D0843B2492431086064
:101FA00000E02E43208800F48060B0F5806F38D1C7
:101FB000D4F8A400B0F5800F19D004DC50B1B0F50E
:101FC000001F1DD10DE0B0F5C00F17D0B0F5000F08
:101FD00016D114E0A348006840F40030A14908601D
:101FE00010E00021201D02F00FFC05460AE0002150
:101FF00004F1240002F0A0FC054603E002E001E049
:10200000012500BF00BF5DB996482C30006820F460
:102010006000D4F8A410084392492C31086000E015
:102020002E43208800F40060B0F5006F38D1D4F85A
:10203000A800B0F1007F19D004DC50B1B0F1807F6E
:102040001DD10DE0B0F1407F17D0B0F1806F16D1F7
:1020500014E08448006840F400308249086010E0D1
:102060000021201D02F0D0FB05460AE0002104F10A
:10207000240002F061FC054603E002E001E00125D6
:1020800000BF00BF5DB977482C30006820F0E060E9
:10209000D4F8A810084373492C31086000E02E439F
:1020A000206800F00070B0F1007F27D1A06CA0B1D3
:1020B000102804D0202809D030280FD10CE069481E
:1020C000006840F400306749086009E00221201DE3
:1020D00002F09AFB054603E002E001E0012500BFA3
:1020E00000BF55B95F482030006820F03000A16C77
:1020F00008435C492031086000E02E43208800F44A
:102100008050B0F5805F36D1E06DB0F5005F19D03A
:1021100004DC50B1B0F5805F1DD10DE0B0F5405F3B
:1021200017D0B0F5804F16D114E04E48006840F447
:1021300000304C49086010E00021201D02F064FBD3
:1021400005460AE0002104F1240002F0F5FB0546F3
:1021500003E002E001E0012500BF00BF55B941489E
:102160002430006820F4E040E16D08433D4924310B
:10217000086000E02E43208800F40050B0F5005FB6
:1021800034D1206EB0F5403F1DD007DC68B1B0F50A
:10219000803F0BD0B0F5003F18D10DE0B0F5802F97
:1021A00012D0B0F5A02F11D10FE011E00121201DB8
:1021B00002F02AFB05460BE0012104F1240002F0A5
:1021C000BBFB054604E003E002E001E0012500BF9F
:1021D00000BF55B923482430006820F4E020216E68
:1021E000084320492431086000E02E43208800F491
:1021F0008040B0F5804F38D1D4F8AC00B0F1405FEA
:102200001DD007DC68B1B0F1805F0BD0B0F1005F8A
:1022100018D10DE0B0F1804F12D0B0F1A04F11D124
:102220000FE011E00121201D02F0EEFA05460BE05F
:10223000012104F1240002F07FFB054604E003E0E5
:1022400002E001E0012500BF00BF6DB905482C3058
:10225000006820F0E040D4F8AC10084301492C316C
:10226000086002E02C4402582E43208800F400400D
:10227000B0F5004F26D1E06E98B1B0F1805F03D089
:10228000B0F1005F0ED106E0FA48006840F400307B
:10229000F849086008E00121201D02F0B5FA054662
:1022A00002E001E0012500BF00BF55B9F14824302C
:1022B000006820F04050E16E0843EE492431086088
:1022C00000E02E43206800F08070B0F1807F27D1BD
:1022D000606CA0B1012804D0022809D003280FD1D6
:1022E0000CE0E448006840F40030E249086009E08E
:1022F0000221201D02F088FA054603E002E001E019
:10230000012500BF00BF55B9DA482030006820F031
:102310000300616C0843D7492031086000E02E4378
:10232000206800F48000B0F5800F7DD1D2480068AD
:1023300040F48070D0490860FFF7F2FC074606E0E1
:10234000FFF7EEFCC01B642801D9032505E0CA484D
:10235000006800F480700028F2D000BF8DBBC54833
:102360004430006800F44070B4F8B01001F44071DB
:10237000884214D0BF484430006820F44078BD48FB
:102380004430006840F48030BA494431086008465F
:10239000006820F4803008600846C0F80080D4F857
:1023A000B000B0F5807F15D1FFF7BAFC074609E011
:1023B000FFF7B6FCC01B41F28831884202D90325E1
:1023C00007E038E0AB4844300068C0F34000002824
:1023D000EED000BF4DBB00BFB4F8B00000F44070B9
:1023E000B0F5407F0ED1A3481C38006820F47C5122
:1023F000A24AD4F8B000104041EA10109D491C399F
:10240000086007E09B481C38006820F47C5099491C
:102410001C390860974844300068B4F8B010C1F324
:102420000B010843934901E006E002E044310860F3
:1024300002E02E4300E02E43207800F0010068B354
:10244000A06F182819D005DC48B1082808D010283A
:1024500016D10BE0202811D0282811D10FE011E06F
:102460000121201D02F0D0F905460BE0012104F105
:10247000240002F061FA054604E003E002E001E016
:10248000012500BF00BF55B97A482830006820F008
:102490003800A16F084377492831086000E02E43D7
:1024A000207800F00200022828D1606F062815D29B
:1024B000DFE800F003040A11121311E00121201DCE
:1024C00002F0A2F905460BE0012104F1240002F01C
:1024D00033FA054604E003E002E001E0012500BF15
:1024E00000BF55B963482830006820F00700616FCD
:1024F000084360492831086000E02E43207800F04E
:10250000040004282AD1D4F89000062815D2DFE868
:1025100000F003040A11121311E00121201D02F042
:1025200073F905460BE0012104F1240002F004FADE
:10253000054604E003E002E001E0012500BF00BF22
:102540005DB94C482C30006820F00700D4F890109A
:10255000084348492C31086000E02E43207800F001
:102560002000202836D1D4F88C00B0F1405F1DD077
:1025700007DC68B1B0F1805F0BD0B0F1005F18D11B
:102580000DE0B0F1804F12D0B0F1A04F11D10FE0AB
:1025900011E00021201D02F037F905460BE0022171
:1025A00004F1240002F0C8F9054604E003E002E06B
:1025B00001E0012500BF00BF5DB92E48283000684A
:1025C00020F0E040D4F88C1008432A4928310860F4
:1025D00000E02E43207800F04000402836D1D4F8A7
:1025E0009800B0F5406F1DD007DC68B1B0F5806F82
:1025F0000BD0B0F5006F18D10DE0B0F5805F12D0B0
:10260000B0F5A05F11D10FE011E00021201D02F014
:10261000FBF805460BE0022104F1240002F08CF9DE
:10262000054604E003E002E001E0012500BF00BF31
:102630005DB910482C30006820F4E050D4F89810B0
:1026400008430C492C31086000E02E43207800F04C
:10265000800080283BD1D4F89C00B0F5C04F24D036
:102660000EDCA0B1B0F5005F12D0B0F5804F1FD1E5
:1026700014E000002C44025800480258FFFCFF0FF1
:10268000B0F5004F12D0B0F5204F11D10FE011E09E
:102690000021201D02F0B8F805460BE0022104F1EC
:1026A000240002F049F9054604E003E002E001E0FD
:1026B000012500BF00BF4DB9B248006820F460405A
:1026C000D4F89C100843AF49086000E02E432078FE
:1026D00000F00800082816D1D4F88000B0F5805F1B
:1026E00006D1022104F1240002F026F906430AE093
:1026F000A448001F006820F44050D4F8801008431C
:10270000A049091F0860207800F01000102814D19B
:10271000D4F89400B0F5807F06D1022104F12400A2
:1027200002F00AF9064308E09648006820F4407079
:10273000D4F89410084393490860206800F40020FE
:10274000B0F5002F26D1D4F8A00030B1B0F5803F0D
:1027500009D0B0F5003F0ED10CE00021201D02F0A1
:1027600053F8054609E0022104F1240002F0E4F8E0
:10277000054602E001E0012500BF00BF4DB98148D8
:10278000006820F44030D4F8A01008437D49086068
:1027900000E02E43206800F48020B0F5802F2DD17A
:1027A000D4F88400B0F5801F06D0B0F5001F0CD01F
:1027B000B0F5401F11D10FE072482C38006840F48A
:1027C000003070492C39086009E0012104F124002F
:1027D00002F0B2F8054602E001E0012500BF00BFAB
:1027E0005DB96848001F006820F44010D4F88410D8
:1027F00008436449091F086000E02E43206800F484
:102800008030B0F5803F24D1E06C18B1B0F5803F46
:102810000FD108E05B482C38006840F4003059497B
:102820002C39086007E00221201D01F0EDFF05466C
:1028300001E0012500BF00BF55B952480C380068BF
:1028400020F48030E16C08434E490C39086000E008
:102850002E43206800F00050B0F1005F05D1022146
:1028600004F1240002F068F80643206800F4003008
:10287000B0F5003F27D1E06FA0B1B0F5807F06D062
:10288000B0F5007F0CD0B0F5407F0CD109E03D4899
:102890002C38006840F400303A492C39086004E0D4
:1028A00003E002E001E0012500BF00BF55B9354853
:1028B000001F006820F44070E16F08433149091F90
:1028C000086000E02E43206800F48010B0F5801FFF
:1028D00009D12C480838006820F00040216F0843D7
:1028E000284908390860206800F08050B0F1805F06
:1028F0000AD124484838006820F48040D4F8B41045
:102900000843204948390860206800F40010B0F5F9
:10291000001F09D11B480838006820F08070A16EA4
:102920000843184908390860206800F08040B0F179
:10293000804F11D100BF13484838006820F4004090
:1029400010494839086008460068D4F8B8100843B0
:102950000C494839086000BF206800F00040B0F121
:10296000004F09D107480C38006820F04050216D15
:10297000084304490C39086016B90020BDE8F0810D
:102980000120FBE75844025870B504460D46002666
:102990008D48006800F00700A8420ED28A480068FF
:1029A00020F007002843884908600846006800F0C6
:1029B0000700A84201D0012070BD207800F002007D
:1029C000022807D18148006820F00F00E168084321
:1029D0007E490860207800F00100002851D07B4833
:1029E000006820F47060A168084378490860606856
:1029F000022807D1754818380068C0F34040F8B97C
:102A00000120D9E76068032807D1704818380068AA
:102A1000C0F34060A0B90120CEE76068012807D16B
:102A20006A4818380068C0F3002048B90120C3E79D
:102A3000664818380068C0F3800008B90120BBE779
:102A400062480838006820F00700616808435F4961
:102A500008390860FFF764F906466068022811D15A
:102A600008E0FFF75DF9801B41F28831884201D907
:102A70000320A1E755480838006800F03800102806
:102A8000EFD13AE06068032811D108E0FFF748F978
:102A9000801B41F28831884201D903208CE74B48E2
:102AA0000838006800F038001828EFD125E0606889
:102AB000012811D108E0FFF733F9801B41F288317A
:102AC000884201D9032077E740480838006800F0C1
:102AD00038000828EFD110E008E0FFF721F9801B4B
:102AE00041F28831884201D9032065E73748083828
:102AF000006800F038000028EFD13348006800F08B
:102B00000700A8420ED93048006820F0070028438B
:102B10002D4908600846006800F00700A84201D06F
:102B2000012049E7207800F00400042807D1274855
:102B3000006820F07000216908432449086020786B
:102B400000F00800082809D12048001D006820F086
:102B50007000616908431D49091D0860207800F074
:102B60001000102809D11948001D006820F4E06009
:102B7000A16908431549091D0860207800F020006C
:102B8000202809D111480830006820F07000E16960
:102B900008430E490831086000F01EF80B49096827
:102BA00001F470614FF4807292FAA2F2B2FA82F2EA
:102BB000D140074A515CC840064908600F20FFF722
:102BC000CFF80020F8E60000002000521844025818
:102BD0001C7E00080000002470B5012500EE905A0C
:102BE0000022012100230024DFED861AB0EE610AE5
:102BF000DFED841AB0EE611A0020834D2D6805F0D8
:102C0000380535B1082D15D0102D15D0182D7CD1D3
:102C100014E07D4D103D2D68C5F3401545B17A4D4A
:102C2000103D2D68C5F3C106784D25FA06F000E089
:102C30007648E5E07648E3E07648E1E0724D183505
:102C40002D6805F00302704D18352D68C5F3051188
:102C50006D4D1C352D6805F001036B4D24352D6835
:102C6000C5F3CC0515FB03F501EE905AF8EE611A99
:102C7000B0EE610A22B1012A4FD0022A7DD16BE069
:102C8000614D103D2D68C5F340152DB35E4D103DCF
:102C90002D68C5F3C1065D4D25FA06F4B4FBF1F5C8
:102CA00001EE905AB8EE612ADFED5B1AC0EE212AE0
:102CB000554D20352D68C5F3080501EE905AF8EE04
:102CC000611A72EEA11AF7EE002A71EEA21A62EEF4
:102CD000211AB0EE611A1FE04C4DB5FBF1F501EE83
:102CE000905AB8EE612ADFED4C1AC0EE212A464D0B
:102CF00020352D68C5F3080501EE905AF8EE611AEB
:102D000072EEA11AF7EE002A00E077E071EEA21A47
:102D100062EE211AB0EE611A5EE03D4DB5FBF1F5B1
:102D200001EE905AB8EE612ADFED3B1AC0EE212A7F
:102D3000354D20352D68C5F3080501EE905AF8EEA3
:102D4000611A72EEA11AF7EE002A71EEA21A62EE73
:102D5000211AB0EE611A3FE02E4DB5FBF1F501EE00
:102D6000905AB8EE612ADFED2C1AC0EE212A264DCA
:102D700020352D68C5F3080500E00EE001EE905AFD
:102D8000F8EE611A72EEA11AF7EE002A71EEA21A9D
:102D900062EE211AB0EE611A1EE01D4DB5FBF1F591
:102DA00001EE905AF8EE612ADFED1B1A80EE212A1F
:102DB000154D20352D68C5F3080501EE905AF8EE43
:102DC000611A72EE211AB7EE002A71EE821A62EED3
:102DD000A11AB0EE611A00BF00BF0B4D20352D685F
:102DE000C5F346256D1C00EE905AF8EE601A81EE90
:102DF000212AFCEEC21A11EE900A01E0044800BF3D
:102E000000BF70BD00000000104402580090D003C5
:102E100000093D0040787D010000004670B5044681
:102E20000025207800F00100002872D0F9480068E1
:102E300000F0380010280CD0F648006800F0380088
:102E4000182812D1F3481830006800F00300022857
:102E50000BD1F04810380068C0F3404000286DD016
:102E6000606800286AD1012070BD00BF6068B0F5BD
:102E7000803F08D1E7481038006840F48030E549C9
:102E8000103908602EE0606868B9E24810380068C0
:102E900020F48030DF49103908600846006820F4CB
:102EA000802008601EE06068B0F5A02F0DD1D948E1
:102EB0001038006840F48020D64910390860084670
:102EC000006840F4803008600CE0D2481038006898
:102ED00020F48030CF49103908600846006820F49B
:102EE0008020086000BF6068A0B1FEF719FF0546AA
:102EF00008E0FEF715FF401B41F28831884201D9F6
:102F00000320B1E7C34810380068C0F340400028F0
:102F1000EFD013E0FEF704FF054608E0FEF700FFE0
:102F2000401B41F28831884201D903209CE7B9480F
:102F300010380068C0F340400028EFD1207800F03E
:102F40000200022847D1B348006800F0380058B1A9
:102F5000B048006800F0380018283ED1AD4818305D
:102F6000006800F00300B8BBAA4810380068C0F33E
:102F7000800018B1E06808B9012075E7A54810384D
:102F8000006820F01900E1680843A2491039086080
:102F9000FEF7C6FE054606E0FEF7C2FE401B02280D
:102FA00001D9032060E79B4810380068C0F3800017
:102FB0000028F1D097480C38006820F47C304FF49A
:102FC0007C3292FAA2F2B2FA82F22169914008436D
:102FD00090490C3908604AE0FFE7E06868B38D4823
:102FE0001038006820F01900E16808438949103959
:102FF0000860FEF795FE054606E0FEF791FE401BD1
:10300000022801D903202FE7824810380068C0F356
:1030100080000028F1D07F480C38006820F47C3014
:103020004FF47C3292FAA2F2B2FA82F22169914014
:10303000084378490C39086019E076481038006870
:1030400020F00100734910390860FEF769FE05465B
:1030500006E0FEF765FE401B022801D9032003E7C6
:103060006C4810380068C0F380000028F1D1207847
:1030700000F01000102877D16648006800F0380092
:1030800008280CD06348006800F03800182823D1C5
:1030900060481830006800F0030001281CD15D482A
:1030A00010380068C0F3002020B1E069802801D00A
:1030B0000120D9E657480C38006820F0F8404FF05E
:1030C000F84292FAA2F2B2FA82F2216A91400843DF
:1030D00050490C39086047E0E06958B34D48103852
:1030E000006840F080004B4910390860FEF718FE78
:1030F000054606E0FEF714FE401B022801D9032016
:10310000B2E6444810380068C0F300200028F1D02F
:1031100040480C38006820F0F8404FF0F84292FA2E
:10312000A2F2B2FA82F2216A9140084339490C397D
:10313000086019E037481038006820F080003549F1
:1031400010390860FEF7ECFD054606E0FEF7E8FDE5
:10315000401B022801D9032086E62E48103800685B
:10316000C0F300200028F1D1207800F008000828E2
:1031700036D16069D0B127486430006840F0010062
:10318000244964310860FEF7CBFD054606E0FEF7F2
:10319000C7FD401B022801D9032065E61D486430A5
:1031A0000068C0F340000028F1D019E019486430ED
:1031B000006820F00100174964310860FEF7B0FD97
:1031C000054606E0FEF7ACFD401B022801D90320AE
:1031D0004AE6104864300068C0F340000028F1D18E
:1031E000207800F02000202834D1A069D8B1094807
:1031F0001038006840F48050064910390860FEF726
:103200008FFD054608E0FEF78BFD401B022803D921
:10321000032029E610440258AF480068C0F340304C
:103220000028F0D016E0AC48006820F48050AA498D
:103230000860FEF775FD054606E0FEF771FD401BD0
:10324000022801D903200FE6A3480068C0F34030EC
:103250000028F2D1207800F0040004287DD19F4896
:10326000006840F480709D490860FEF759FD0546EE
:1032700006E0FEF755FD401B642801D90320F3E565
:103280009648006800F480700028F2D000BFA06863
:10329000012808D190487030006840F001008E4944
:1032A000703108602DE0A06868B98B487030006804
:1032B00020F001008849703108600846006820F05D
:1032C000040008601DE0A06805280DD18248703018
:1032D000006840F0040080497031086008460068CA
:1032E00040F0010008600CE07B487030006820F07E
:1032F00001007949703108600846006820F0040038
:10330000086000BFA068A0B1FEF70AFD054608E00E
:10331000FEF706FD401B41F28831884201D90320A7
:10332000A2E56D4870300068C0F340000028EFD07F
:1033300013E0FEF7F5FC054608E0FEF7F1FC401B44
:1033400041F28831884201D903208DE5624870300E
:103350000068C0F340000028EFD1606A00287CD0EC
:103360005D481030006800F03800182876D0606A98
:10337000022874D15848006820F0807056490860CF
:10338000FEF7CEFC054606E0FEF7CAFC401B02280D
:1033900001D9032068E550480068C0F34060002868
:1033A000F2D100BFD4E90A1041EA00104A4928319D
:1033B000096840F2F33291430843474928310860D5
:1033C000208E401EC0F30800616B491E4FF47E4200
:1033D00002EA41210843218F491ED20102EA01413C
:1033E00008433C21095D491E120202EA01610843BB
:1033F00039493031086000BF081D00684FF6F87188
:1034000088434FF6F87292FAA2F2B2FA82F2A16CF5
:10341000914008433049343108602F482C3000680F
:1034200020F00C00216C08432B492C310860084621
:10343000006820F00200616C084327492C310860C5
:103440000846006840F4803008600846006840F490
:10345000003008600846006802E03BE038E01FE00A
:1034600040F4802008600846006840F001000860D1
:103470001948006840F0807017490860FEF750FC5A
:10348000054606E0FEF74CFC401B022801D903204C
:10349000EAE411480068C0F340600028F2D019E067
:1034A0000D48006820F080700B490860FEF738FC7A
:1034B000054606E0FEF734FC401B022801D9032034
:1034C000D2E405480068C0F340600028F2D101E072
:1034D0000120C9E40020C7E4004402580048025813
:1034E00070B50446002500260CB9012070BD606A45
:1034F00000B900BFA06AB0F5800F00D100BF8E49AF
:10350000206888420CD08D492068884208D08C49B8
:103510002068884204D0E0680F2801D90120E5E73F
:10352000204601F053FC064683492068884209D0B2
:1035300082492068884205D081492068884201D0AC
:10354000082E0DD87C492068884207D07B49206826
:10355000884203D07A492068884203D1102E01D9CD
:103560000120C3E7A06AB0F5800F1DD17249206821
:1035700088420DD071492068884209D0704920687E
:10358000884205D0206BB0F5702F01D90120ADE73E
:10359000206B10B9A089050400E0256BE068B0EB52
:1035A000154F01D90120A1E794F8810028B9002026
:1035B00084F88000204600F0C5F8022084F88100DD
:1035C0002068006820F0010021680860A069B0F15F
:1035D000806F0BD16068B0F5800F07D1A06B28B960
:1035E0002068006840F4805021680860A16AE069A2
:1035F00008432843E16B0843E16808432168886079
:10360000616A606B0843A16B0843A16908432169A3
:10361000084361690843216A084361680843E16C13
:103620000843A1680843A16C0843A16D08432168C1
:10363000C860A06AB0F5800F4DD1206C012806D17A
:103640002068006840F400402168086005E02068B8
:10365000006820F4004021680860606C012806D1F1
:103660002068006840F480402168086005E0206818
:10367000006820F48040216808602F492068884253
:103680000AD02E492068884206D02D4920688842F9
:1036900002D0B5F5702F0ED027492068884207D098
:1036A00026492068884203D025492068884209D1EC
:1036B000B5F5F81F06D12068006840F40050216875
:1036C000086005E02068006820F400502168086068
:1036D0002168E06A0864606888B9A06A38B920681F
:1036E000806820F4C05040F4006021688860206841
:1036F000806820F4C06040F48060216888602068A1
:10370000006D20F0010021680865606800F4800009
:10371000B0F5800F07D12068C06820F00040616DCF
:1037200008432168C8600020C4F88400012084F8A0
:1037300081000020DAE6000000300140003800403F
:10374000003C004010B5B6B0044600BF1A480068FF
:1037500040F00200184908600846006800F00200C6
:10376000019000BF00BF00BF13480830006840F45C
:1037700080401149083108600846006800F4804024
:10378000019000BF00BF4FF48050029000201990BC
:1037900002A8FEF75DFB4FF46040319002203290AA
:1037A00001203390032034900520359031A903483F
:1037B000FEF782F936B010BDE0440258000402580A
:1037C0002DE9F84F0446884691461D460A9E00277B
:1037D000BA4600BF94F88000012802D10220BDE85B
:1037E000F88F012084F8800000BFFEF799FA0746A1
:1037F00094F88100012812D06068B0F5800F05D1DF
:10380000A06818B994F88100042808D04FF0020A83
:1038100000BF002084F8800000BF5046DFE7B8F109
:10382000000F03D0B9F1000F00D045B94FF0010AE5
:1038300000BF002084F8800000BF5046CFE794F816
:103840008100042802D0052084F881000020C4F8FB
:103850008400C4F86490A4F86A50A4F86850C4F8CE
:103860005C80A4F86250A4F860502067606720680C
:1038700040686FF30F0028432168486020680068A3
:1038800040F00100216808606068B0F5800F05D144
:103890002068006840F4007021680860E0680F2824
:1038A0004CD942E0B4F8620088B12068406900F069
:1038B000020002280BD1E06D006821680862E06D0B
:1038C000001DE065B4F86200401EA4F86200B4F880
:1038D0006A0088B12068406948F20801084058B180
:1038E0002068006B616E0860606E001D6066B4F851
:1038F0006A00401EA4F86A00701CB0B1FEF710FA0E
:10390000C01BB04211D3204601F0E2F900BF0020F5
:1039100084F8800000BFD4F8840040F48070C4F8BC
:103920008400012084F8810059E7B4F8620000287F
:10393000B8D1B4F86A000028B4D10FE1E0680728D4
:1039400071D966E0B4F8620020B32068406900F0E5
:10395000020002281ED1B4F8620001280ED9E06BE3
:1039600060B1E06D006821680862E06D001DE065EF
:10397000B4F86200801EA4F862000BE0E06D0088DD
:1039800021680884E06D801CE065B4F86200401E88
:10399000A4F86200B4F86A0010B32068406900F42B
:1039A0006040E8B12068406900F4004060B12068E0
:1039B000006B616E0860606E001D6066B4F86A009E
:1039C000801EA4F86A000BE02068008E616E0880FB
:1039D000606E801C6066B4F86A00401EA4F86A003D
:1039E000701CB0B1FEF79CF9C01BB04211D3204649
:1039F00001F06EF900BF002084F8800000BFD4F809
:103A0000840040F48070C4F88400012084F88100B0
:103A1000E5E6B4F86200002894D1B4F86A00002802
:103A200090D19BE0FFE790E0B4F8620058B32068C3
:103A3000406900F00200022833D1B4F86200032884
:103A40000FD9E06B40280CD9E06D0068216808624E
:103A5000E06D001DE065B4F86200001FA4F862008C
:103A60001FE0B4F8620001280ED9E06B60B1E06D90
:103A7000008821680884E06D801CE065B4F862006D
:103A8000801EA4F862000CE0E06D0078216881F8E7
:103A90002000E06D401CE065B4F86200401EA4F810
:103AA0006200B4F86A0048B32068406900F46040DE
:103AB00020B32068406900F4004060B12068006BCA
:103AC000616E0860606E001D6066B4F86A00001FD9
:103AD000A4F86A0020E02068406900F4C040B0F516
:103AE000005F0CD92068008E616E0880606E801CBB
:103AF0006066B4F86A00801EA4F86A000CE02068D2
:103B000090F83000616E0870606E401C6066B4F81A
:103B10006A00401EA4F86A00701CB0B1FEF700F9FC
:103B2000C01BB04211D3204601F0D2F800BF0020E4
:103B300084F8800000BFD4F8840040F48070C4F89A
:103B40008400012084F8810049E6B4F8620000286E
:103B50007FF46AAFB4F86A000028F9D13B4600222E
:103B600008212046009601F03EF928B1D4F88400DF
:103B700040F02000C4F88400204601F0A9F800BFFE
:103B8000002084F8800000BF012084F88100D4F870
:103B9000840008B1012022E6002020E6042808D194
:103BA0004FF0E021096941F004014FF0E02211617A
:103BB00007E04FF0E021096921F004014FF0E02215
:103BC0001161704770B504462546681EB0F1807FCC
:103BD00001D301200FE0681E4FF0E02148610F2162
:103BE0004FF0FF3002F028FB00204FF0E021886109
:103BF00007200861002070BD00BFFEE770B50446D5
:103C000016484088401E83B214480088401E82B285
:103C10000021084600F084FB4FF400601049088042
:103C20002020891E088000250DE0002606E02012D5
:103C300001F01CF8E0B201F019F8761C0748008882
:103C4000B042F4D86D1C05484088A842EDD84FF426
:103C500000600349891E088070BD000050000024E8
:103C60001A0C0258F8B504460D4616461F4605487C
:103C700000883B46324629460090204600F02EF947
:103C8000F8BD0000320000242DE9FF4F85B08146C9
:103C90008A460020049003900798A0EB0905089835
:103CA000A0EB0A06CDF80890CDF804A0002D01DDA8
:103CB000012705E00DB9002702E04FF0FF376D4204
:103CC000002E02DD4FF0010806E016B94FF00008A3
:103CD00002E04FF0FF387642B54201DD2C4600E0AD
:103CE00034464FF0000B21E0019A91B2029A90B253
:103CF00000F078F804982844049003983044039026
:103D00000498A04205DD0498001B049002983844F2
:103D100002900398A04205DD0398001B03900198D0
:103D2000404401900BF101001FFA80FB601C8345A9
:103D3000DADD09B0BDE8F08F2DE9FF4F85B081468F
:103D40000020049083460798A0EB0905069908987F
:103D5000461ACDF80C9006980290002D01DD01273F
:103D600005E00DB9002702E04FF0FF376D42002E4D
:103D700002DD4FF0010806E016B94FF0000802E03E
:103D80004FF0FF387642B54201DD2C4600E0344664
:103D90004FF0000A1FE001200090DDE91232DDE95A
:103DA000021002F0E5FA049828440490B344049801
:103DB000A04205DD0498001B04900398384403904A
:103DC000A34504DDABEB040B0298404402900AF1DA
:103DD00001001FFA80FA601C8245DCDD09B0BDE8F5
:103DE000F08F000070B504460D462946204600F0CD
:103DF0008DFA0248008800F09FFC70BD320000245C
:103E00002DE9F04104460D4616461F462B46324624
:103E100029462046FFF738FF3B46224629462046E2
:103E2000FFF732FF3B46324639462046FFF72CFF6C
:103E30003B46324629463046FFF726FFBDE8F08173
:103E40002DE9F04105460E4617469846069C391B5B
:103E50008AB2291988B233463146FFF715FFA8EB1D
:103E6000040083B2301981B22A462846FFF70CFFBE
:103E7000391B8AB2291988B243464146FFF704FF2D
:103E8000A8EB040083B2301981B23A463846FFF7F6
:103E9000FBFE321991B22A1990B201232246FCF797
:103EA00077FF321991B23A1B90B202232246FCF7F7
:103EB0006FFFA8EB040291B23A1B90B20423224692
:103EC000FCF766FFA8EB040291B22A1990B208230E
:103ED0002246FCF75DFFBDE8F08100002DE9F05FB0
:103EE00004460D4616461F46301B401C1FFA80FA3A
:103EF000781B401C1FFA80FB3B4632462946204671
:103F000000F00EFA4FF000080FE04FF0000906E055
:103F10000A9800F011FC09F101001FFA80F9D1455F
:103F2000F6DB08F101001FFA80F8D845EDDB074801
:103F30004088401E83B205480088401E82B200219E
:103F4000084600F0EDF9BDE8F09F000050000024A5
:103F50002DE9F84307460D4690461E46089C184832
:103F60000088711C8BB2A8EB04018AB23919009049
:103F700088B22946FFF7B2FF701B401C022101FBEB
:103F80001400401E80B22A1991B2A8EB04020090DE
:103F900090B201232246FDF701FA701B401C02215A
:103FA00001FB1400401E80B22A1991B23A19009008
:103FB00090B202232246FDF7F1F9BDE8F883000034
:103FC0003200002400B587B000BF1348006840F0FD
:103FD0000800114908600846006800F008000190D8
:103FE00000BF00BF4FF4C350029001200390049023
:103FF0000320059002A90948FDF75EFD01224FF458
:10400000C3510648FDF786FE012240210348FDF713
:1040100081FE07B000BD0000E0440258000C0258C9
:1040200010B500F0F1FDFFF7CDFF00F0D7F811203B
:1040300000F0D6FA782002F06BF9362000F0D0FAC2
:10404000482000F0B9FA3A2000F0CAFA552000F0F2
:10405000B3FAF02000F0C4FAC32000F0ADFAF0206B
:1040600000F0BEFA962000F0A7FAB42000F0B8FAEB
:10407000012000F0A1FAB72000F0B2FAC62000F04B
:104080009BFAC02000F0ACFA802000F095FA4520A1
:1040900000F092FAC12000F0A3FA132000F08CFA8D
:1040A000C22000F09DFAA72000F086FAC52000F09B
:1040B00097FA0A2000F080FAE82000F091FA4020F8
:1040C00000F07AFA8A2000F077FA002000F074FA03
:1040D000002000F071FA292000F06EFA192000F09B
:1040E0006BFAA52000F068FA332000F065FAE020B2
:1040F00000F076FAD02000F05FFA082000F05CFAB9
:104100000F2000F059FA062000F056FA062000F0C1
:1041100053FA332000F050FA302000F04DFA3320EB
:1041200000F04AFA472000F047FA172000F044FA5E
:10413000132000F041FA132000F03EFA2B2000F08B
:104140003BFA312000F038FAE12000F049FAD020A3
:1041500000F032FA0A2000F02FFA112000F02CFAB9
:104160000B2000F029FA092000F026FA072000F0C1
:1041700023FA2F2000F020FA332000F01DFA472008
:1041800000F01AFA382000F017FA152000F014FA9F
:10419000162000F011FA2C2000F00EFA322000F068
:1041A0000BFAF02000F01CFA3C2000F005FAF02099
:1041B00000F016FA692000F0FFF9782002F0A8F864
:1041C000212000F00DFA292000F00AFA002000F06A
:1041D0002DFA4FF6FF70FFF711FD10BD10B54FF42B
:1041E000805007490880642002F092F84FF4805014
:1041F0000349891E0880322002F08AF810BD0000B1
:104200001A0C025870B504460D462946204600F0A7
:104210007DF800F05FFA0646304670BD38B50020E4
:104220000090F02000F0DCF9C32000F0C5F9F02088
:1042300000F0D6F9962000F0BFF94FF40060314944
:104240000880012431E020202E490880FB2000F066
:104250000DFD20202B49891E088004F11001C8B2F1
:1042600000F004FD202027490880D32000F0FEFC48
:104270004FF0804000F00AFD20202249891E08806E
:10428000FF2000F0F3FC611E0DF8010020201D4905
:104290000880FB2000F0EAFC20201A49891E0880D3
:1042A000002000F0E3FC601CC4B2042CCBDB4FF018
:1042B000005000F0EBFC4FF400601249891E0880AA
:1042C000F02000F08DF93C2000F076F9F02000F0AD
:1042D00087F9692000F070F99DF801000A4988808B
:1042E000084680884FF6FF7101EA00200649888061
:1042F000084680889DF802100843034988800846D4
:10430000808838BD1A0C02585000002470B504464D
:104310000D462B4622462946204600F001F870BD86
:104320002DE9F04104460D4616461F461149087B0B
:1043300000F056F9201200F03FF9E0B200F03CF92D
:10434000301200F039F9F0B200F036F90949887BF3
:1043500000F046F9281200F02FF9E8B200F02CF92D
:10436000381200F029F9F8B200F026F900F04CF903
:10437000BDE8F081500000242DE9FF4F83B0814655
:104380008A469346DDE91064404800880290A6F111
:104390002000C6B204EBD47009EB6000401E82B26C
:1043A0000AEB0400401E83B2514648460194FFF7D1
:1043B000B7FF129850BB002525E00C2C07D106EB67
:1043C0004600334901EB800010F8058004E03148D5
:1043D00000EB061010F8058000270DE008F0010042
:1043E00018B1584600F0A8F902E0069800F0A4F9C8
:1043F0004FEA6808781CC7B204EBD471B7EB610FC1
:10440000ECDB681CC5B2A542D7DB2DE0002529E016
:104410000C2C07D106EB46001D4901EB800010F87B
:10442000058004E01B4800EB061010F8058000270B
:1044300011E01648A0F800B008F0010038B10AEB0E
:10444000050291B209EB070290B2FFF7CBFC4FEAED
:104450006808781CC7B204EBD471B7EB610FE8DBD6
:10446000681CC5B2A542D3DB0849029808800A48F7
:104470004088401E83B208480088401E82B2002156
:104480000846FFF74DFF07B0BDE8F08F320000246B
:1044900084650008F8690008500000242DE9FF4FEA
:1044A00083B0074691461E46109C4FF0000A002537
:1044B00043E0701B401EC1B20A2002F03BF8B9FB7A
:1044C000F0F00A21B0FBF1F201FB1208BAF1000F83
:1044D0001BD1701EA84218DDB8F1000F13D10020C7
:1044E0002021A346CDE90014029004EBDB714910B2
:1044F00001FB057188B213490B8813490A88049996
:10450000FFF73AFF17E04FF0010A002108F13000F1
:10451000C0B2A346CDE90141009004EBDB71491024
:1045200001FB057188B207490B8807490A8804997D
:10453000FFF722FF00BF681CC5B2B542B9DB07B068
:10454000BDE8F08F34000024320000242DE9FE4342
:1045500006460F4615461C46DDF828801DE0134828
:104560000088401EB04204DB10484088401EB8421C
:1045700001DABDE8FE8320788DE821010C4803882C
:104580000C48028839463046FFF7F6FE284605EB10
:10459000D07106EB61018EB2641C20787E2802DCAB
:1045A00020782028DBDA00BFE3E700005000002479
:1045B000340000243200002410B504464FF400609B
:1045C000064908802020891E0880204600F04EFB06
:1045D0004FF400600149891E088010BD1A0C025872
:1045E00010B504464FF4006006490880202008807A
:1045F000204600F03BFB4FF400600249891E088012
:1046000010BD00001A0C025810B50249087AFFF7D5
:10461000E7FF10BD5000002470B505460C46284643
:10462000FFF7DEFFE0B2FFF7C7FF70BD10B504462D
:104630002A20274988812B20C8812C2008812E2000
:1046400048812046E11704EB91718910A4EB8101A8
:104650001F4A91711046807930B1012810D002288C
:104660001AD0032830D123E04FF4A07018490880F5
:104670004FF4F070488048213620FFF7CDFF24E04A
:104680004FF4F070124908804FF4A0704880282140
:104690003620FFF7C1FF18E04FF4A0700C490880E6
:1046A0004FF4F070488088213620FFF7B5FF0CE00A
:1046B0004FF4F070064908804FF4A0704880E8215C
:1046C0003620FFF7A9FF00E000BF00BF10BD0000CB
:1046D0005000002470B54FF4006015490880202078
:1046E00008801449887A00F0C1FA4FF0804000F049
:1046F000CDFA20200E49891E0880FF2000F0B6FA6E
:10470000FF2000F0B3FA0446FF2000F0AFFA0546A0
:104710004FF0005000F0BAFA4FF400600449891ECF
:1047200008804FF6FF7000EA04242C43204670BD39
:104730001A0C02585000002410B504464FF40060D3
:10474000084908802020891E0880201200F08EFA77
:10475000E0B200F08BFA4FF400600249891E088035
:1047600010BD00001A0C0258704770470EB51FA00C
:10477000FCF7C2FA224A1E210846FDF743F9012040
:10478000102120A24FF6E073CDE9002102901F22F4
:104790004B212A2000F048FB194A1E215A20FDF720
:1047A00031F90120102117A24FF6E073CDE9002165
:1047B00002901F224B21662000F036FB104A1E217A
:1047C0009620FDF71FF9012010210EA24FF6E0738D
:1047D000CDE9002102901F224B21A22000F024FBF2
:1047E0004FF4966001F094FD0EBD0000B2E2CAD411
:1047F000383ACDBCC6ACCFD4CABEB2E2CAD40000EF
:104800005C7E0008515100002DE9F04104460E463F
:1048100000274848006800F00300032802D1012067
:10482000BDE8F08143482838006820F080604149A5
:1048300028390860FDF774FA054606E0FDF770FABE
:10484000401B022801D90320EAE73A4828380068CB
:10485000C0F3C0600028F1D100BF3648006820F4E2
:104860007C30216840EA013032490860A088401E4F
:10487000C0F30800A168491E4FF47E4202EA4121BC
:104880000843A189491ED20102EA01410843217C63
:10489000491E120202EA01610843264910310860EC
:1048A00000BF2448001D006820F0C0006169084373
:1048B0002049091D08600846006820F02000A16911
:1048C00008431C49091D08602EB90846006840F4D9
:1048D0000020086012E0012E08D11648001D006873
:1048E00040F480101349091D086007E01148001DBD
:1048F000006840F400100F49091D08600D48283871
:10490000006840F080600B4928390860FDF708FA1C
:10491000054606E0FDF704FA401B022801D90320F2
:104920007EE7044828380068C0F3C0600028F1D052
:10493000384675E7284402582DE9F04104460E46F2
:1049400000274848006800F00300032802D1012036
:10495000BDE8F08143482838006820F08050414984
:1049600028390860FDF7DCF9054606E0FDF7D8F9BF
:10497000401B022801D90320EAE73A48283800689A
:10498000C0F340700028F1D100BF3648006820F025
:104990007C70218840EA015032490860A088401E9E
:1049A000C0F30800A168491E4FF47E4202EA41218B
:1049B0000843A189491ED20102EA01410843217C32
:1049C000491E120202EA01610843264918310860B3
:1049D00000BF2448001D006820F44060616908435E
:1049E0002049091D08600846006820F40070A1698C
:1049F00008431C49091D08602EB90846006840F4A8
:104A00008000086012E0012E08D11648001D0068E1
:104A100040F400001349091D086007E01148001D1B
:104A2000006840F080700F49091D08600D48283863
:104A3000006840F080500B4928390860FDF770F994
:104A4000054606E0FDF76CF9401B022801D903205A
:104A50007EE7044828380068C0F340700028F1D091
:104A6000384675E72844025810B588B00024194B21
:104A70000FCBCDE90623CDE9040100BF23E020469A
:104A8000FFF7D4FD14A0FCF737F90121102204A888
:104A900050F824004FF6E073CDE9012100901F2269
:104AA0001E21142000F0C0F9104A32211E20FCF70C
:104AB000A9FF4FF47A7001F02BFC4FF47A7001F0EB
:104AC00027FC601CC4B2042CD9DB0020FFF7AEFD2C
:104AD00008B010BDE08A0008B2E2CAD431303AC64C
:104AE000C1C4BBD0FDD7AAB2E2CAD4005C7E000824
:104AF00010B50023234C236000BF00BF00BFBFF3ED
:104B00004F8F00BF00BF00BF231F1868C0F34E3196
:104B100000BFC0F3C90200BF43F6E07303EA4113CC
:104B20004FF0404404EA82742343174C236000BFD3
:104B300000BF131EA2F10102EED10B1EA1F1010173
:104B4000E7D100BF00BF00BFBFF34F8F00BF00BF62
:104B500000BF0C4B703B1B6843F48033094C703C26
:104B6000236000BF00BF00BFBFF34F8F00BF00BF77
:104B700000BF00BF00BF00BFBFF36F8F00BF00BF0B
:104B800000BF10BD84ED00E060EF00E000BF00BF9B
:104B900000BFBFF34F8F00BF00BF00BF00BF00BF0B
:104BA00000BFBFF36F8F00BF00BF00BF00201449DC
:104BB000086000BF00BF00BFBFF34F8F00BF00BF42
:104BC00000BF00BF00BF00BFBFF36F8F00BF00BFBB
:104BD00000BF0C48006840F400300A49086000BF7C
:104BE00000BF00BFBFF34F8F00BF00BF00BF00BFBB
:104BF00000BF00BFBFF36F8F00BF00BF00BF704793
:104C000050EF00E014ED00E010B5164816490860BA
:104C10004FF4800048600021134881600721C16083
:104C20004FF00071016149104161890081610021EB
:104C300041634FF0004141658908C1610021016273
:104C4000416281620721C162FEF74AFC06480068A2
:104C5000006840F00100044909680860FF2000F086
:104C600005F810BD003800406000002401B582B096
:104C70004FF47A70012301AA02A900900248FEF7BE
:104C80009FFD9DF804000EBD600000240F490968D7
:104C9000096821F001010D4A126811600B49096889
:104CA000896821F0E041094A126891600749096862
:104CB00089680143054A12689160044909680968D6
:104CC00041F00101014A1268116070476000002440
:104CD000026851690268926942F0080203689A61A9
:104CE0000268926942F0100203689A6102681268D1
:104CF00022F0010203681A600268126940F26B3305
:104D00009A4303681A610268926822F44042036879
:104D10009A6090F88120042A0ED001F020025AB146
:104D2000D0F8842042F08002C0F8842002689269A2
:104D300042F0200203689A6190F88120032A21D072
:104D400001F040025AB1D0F8842042F00402C0F8C9
:104D500084200268926942F0400203689A61826A84
:104D6000B2F5800F0ED101F080025AB1D0F8842044
:104D700042F00202C0F884200268926942F0800288
:104D800003689A6101F400725AB1D0F8842042F0AD
:104D90000102C0F884200268926942F4007203683C
:104DA0009A6101F480725AB1D0F8842042F008026E
:104DB000C0F884200268926942F4807203689A61A4
:104DC0000022A0F86220A0F86A20704710B50146C2
:104DD0000124C86B04EB5013C868421CD01DC208E4
:104DE00002FB03F010BD2DE9F04106460C461746C4
:104DF0009846069D0BE0681C48B12DB1FCF790FF6A
:104E0000A0EB0800A84202D90320BDE8F081306879
:104E100040692040A04201D1012000E00020B842BA
:104E2000E9D00020F1E770472DE9FF4F83B0064637
:104E300088469146DDE91147109DB2464FF0000BC0
:104E400071E0BBF1000F40D104EBD471384A1288F5
:104E5000A2EB6101B14204DB35494988091B414598
:104E600002DA07B0BDE8F08F2878802802DD4FF025
:104E7000010B58E028780D2806D108EB04001FFA32
:104E800080F856466D1C1EE0102C0DDD1021287890
:104E90008DE883004A4641463046069BFFF76CFA90
:104EA00006F1080086B20EE028788DE891004A46A7
:104EB00041463046069BFFF75FFA204604EBD0716F
:104EC00006EB61018EB26D1C2DE019480088001BB5
:104ED000B04204DB16484088001B404500DAC0E7BA
:104EE0004FF0000B202C08D1CDE900574A4641462F
:104EF0003046069BFCF7F6FC12E0182C08D1CDE9F1
:104F000000574A4641463046069BFCF75FFC07E0E7
:104F1000CDE900574A4641463046069BFCF7D2FB96
:104F2000AD1C301986B2287800288AD100BF98E7D6
:104F3000500000242DE9F0419CB080460C461546F7
:104F40001E4600273748006820F0040035490860F5
:104F500000BF0020009033480C30006840F440400F
:104F600030490C3108600846006800F44040009069
:104F700000BF00BF00BF2B480C30006800F4005099
:104F8000B0F5005FF7D101200190000402900020ED
:104F90000490089002200A9002210B91CDF83480F1
:104FA0000C940E950F96002112910821119101A8E1
:104FB000FDF734FF07460FB100BFFEE73F20149016
:104FC000032015900020169008201790402019907B
:104FD00000011A904020189050201B90022114A824
:104FE000FDF7D2FC07460FB100BFFEE70E48006890
:104FF00040F080000C49086000BF0B48F4300068A6
:1050000040F002000849F43108600846006800F0EA
:105010000200009000BF00BFFCF744FD1CB0BDE8DB
:10502000F08100000C4802580044025810B5FCF70B
:105030007DFE10BD2048006840F470001E490860E5
:105040001E48006840F001001C49086000201B4910
:10505000103108601948006819490840174908606C
:105060000020164918310860091D0860091D0860F4
:10507000124928310860091D0860091D0860091DD2
:105080000860091D0860091D0860091D0860091DE8
:1050900008600A48006820F4802008490860002061
:1050A000064960310860012006490860C0060249CF
:1050B000803908607047000088ED00E00044025825
:1050C0007FEDF6EA0881005110B5FBF7C3FF08B188
:1050D000012010BD0248034948600020F9E70000A4
:1050E000A911000838000024F8B5002436A0FBF709
:1050F00003FE4FF6FF70009039484088143883B2A1
:105100003748028814210020FEF7E8FE00BF1FE0A8
:105110000020334B00905D8805EBD5735B10323B6C
:1051200004EBC40707EB0417D9192D4B1E8806EBB7
:10513000D6735B10503B04EBC40707EB0417D81978
:10514000284B33F814201E2301F012F9601CC4B25E
:10515000052CDDDB40F2DC5001F0DAF84FF6FF7091
:1051600000901F484088143883B21D4802881421DB
:105170000020FEF7B3FE00241FE00120184B009032
:105180005D8805EBD5735B10323B04EBC40707EB7E
:105190000417D919124B1E8806EBD6735B10503BCF
:1051A00004EBC40707EB0417D8190E4B33F814208F
:1051B0001E2301F0DDF8601CC4B2052CDDDB40F2DB
:1051C000DC5001F0A5F8F8BDB2E2CAD4343A475534
:1051D00049BBADD4B2CCEEB3E4B2E2CAD400000015
:1051E00050000024080000240EB54FF6FF70009018
:1051F00050484388028800210846FEF76FFE0120D0
:1052000010214DA24FF6E073CDE90021029000225B
:105210001E211420FFF708FE4FF4487001F078F8C3
:105220000020009043484388028800210846FEF78A
:1052300055FE0120102142A24FF6E073CDE9002176
:1052400002904FF6FF721E211420FFF7EDFD4FF480
:10525000487001F05DF84FF478400090354843887D
:10526000028800210846FEF739FE0120102136A2EF
:105270004FF6E073CDE9002102901F221E21142079
:10528000FFF7D2FD4FF4487001F042F84FF4FC6094
:10529000009028484388028800210846FEF71EFE39
:1052A000012010212AA24FF6E073CDE900210290DF
:1052B0001F221E211420FFF7B7FD4FF4487001F0A4
:1052C00027F81F2000901B484388028800210846C9
:1052D000FEF704FE012010211FA24FF6E073CDE976
:1052E000002102904FF478421E211420FFF79CFD0C
:1052F0004FF4487001F00CF848F2304000900D482F
:105300004388028800210846FEF7E8FD01201021AD
:1053100013A24FF6E073CDE9002102904FF61F0271
:105320001E211420FFF780FD4FF4487000F0F0FFBD
:105330000EBD0000500000245748495445000000AD
:10534000424C41434B000000524544200000000005
:10535000475245454E200000424C55452000000074
:10536000475241590000000038B55FA0FBF7C4FC6C
:105370001F20624908806248FBF74EF9012061A3B3
:105380001022322100900F20FFF7E0F8012063A3E4
:105390001022462100900F20FFF7D8F8012065A3C6
:1053A00010225A2100900F20FFF7D0F8012067A3A8
:1053B00010226E2100900F20FFF7C8F8012069A38A
:1053C0001022822100900F20FFF7C0F801206BA36C
:1053D0001022962100900F20FFF7B8F801206CA34F
:1053E0001022AA2100900F20FFF7B0F84FF4784068
:1053F00042490880002473E0FAF7A8FF42F21071D6
:1054000090FBF1F201FB1205102005232A46322100
:1054100000906420FFF742F8FAF798FF42F210710B
:1054200090FBF1F201FB1205102005232A464621CC
:1054300000906420FFF732F8FAF788FF42F210710B
:1054400090FBF1F201FB1205102005232A465A2198
:1054500000906420FFF722F8FAF778FF42F210710B
:1054600090FBF1F201FB1205102005232A466E2164
:1054700000906420FFF712F8FAF768FF42F210710B
:1054800090FBF1F201FB1205102005232A46822130
:1054900000906420FFF702F8FAF758FF322190FBE2
:1054A000F1F201FB1205102005232A4696210090F7
:1054B0006420FEF7F3FFFAF749FF642190FBF1F255
:1054C00001FB1205102005232A46AA210090642022
:1054D000FEF7E4FF4FF4FA7000F01AFF601CC4B24C
:1054E0000F2C89DB38BD0000B2E2CAD4393AB6AF1E
:1054F000CCACCAFDD7D6CFD4CABE0000320000243F
:1055000040E20100204843484F3A2020202020203C
:10551000202020202075672F6D3300002020434F6E
:10552000323A202020202020202020202070706D62
:10553000000000002054564F433A20202020202015
:10554000202020202075672F6D330000504D322E13
:10555000353A202020202020202020202075672F71
:105560006D33000020504D31303A20202020202083
:10557000202020202075672F6D3300002020544507
:10558000503A2020202020202020202020430000EE
:10559000202048554D3A2020202020202020202067
:1055A000202500002DE9F843002460A0FBF7A4FBB0
:1055B0004FF6FF70009063484088143883B261480A
:1055C000028814210020FEF789FC00BF48E05E48F5
:1055D00030F814005D490880DFF868C1BCF802505B
:1055E00005EBD57C4FEA6C0CACF1500CC4EB041904
:1055F000CC440CF13C0C1FFA8CF3DFF848C1BCF82A
:10560000006006EBD67C4FEA6C0CACF1500CC4EB9E
:105610000419CC440CF13C0C1FFA8CF2DFF824C1C5
:10562000BCF8027007EBD77C4FEA6C0CACF1500C65
:10563000C4EB0419CC441FFA8CF1DFF808C1BCF8A4
:10564000008008EBD87C4FEA6C0CACF1500CC4EB3A
:105650000419CC441FFA8CF0FEF7D2FB601CC4B2D4
:10566000052CB4DB40F2DC5000F052FE4FF6FF7028
:10567000009034484088143883B23248028814219C
:105680000020FEF72BFC002448E02F4830F81400DF
:105690002E490880DFF8ACC0BCF8026006EBD67C6F
:1056A0004FEA6C0CACF1500CC4EB0419CC440CF177
:1056B0003C0C1FFA8CF3DFF88CC0BCF8007007EBD1
:1056C000D77C4FEA6C0CACF1500CC4EB0419CC4401
:1056D0000CF13C0C1FFA8CF2DFF868C0BCF80280B9
:1056E00008EBD87C4FEA6C0CACF1500CC4EB0419FD
:1056F000CC441FFA8CF1DFF84CC0BCF8005005EB2D
:10570000D57C4FEA6C0CACF1500CC4EB0419CC44C2
:105710001FFA8CF0FEF7A6FA601CC4B2052CB4DBAD
:1057200040F2DC5000F0F4FDBDE8F883B2E2CAD4E8
:10573000333A475549BED8D0CECCEEB3E4B2E2CA34
:10574000D40000005000002408000024320000248F
:1057500070B590B000200D900E900F90242104A8F9
:10576000FAF7BBFF34A0FBF7C7FAFEF757FD064672
:10577000324637A10DA8FAF723FE012010210DAA09
:105780004FF6E073CDE9002102901F22192132204B
:10579000FFF74AFB002446E02F4830F814002F4959
:1057A000088004EBC40000EB041000F1410304EB9B
:1057B000C40000EB04102D3081B21E220A20FEF737
:1057C00051FA04EBC40000EB041000F1370114207F
:1057D000FEF718FD054621480088A84204D120A103
:1057E0000DA8FAF737FF03E01EA10DA8FAF732FF64
:1057F0000DAB2A461DA104A8FAF7E2FD01201021F5
:1058000004AACDE90021029004EBC40000EB0410CF
:105810002F3081B24FF6E073104802882820FFF73E
:1058200003FB601CC4B2072CB6DB40F2DC5000F076
:105830006FFD10B070BD0000B2E2CAD4323AB6C1FA
:105840004944BACDD1D5C9ABD6B5B2E2CAD400006D
:1058500049443A30782578001200002432000024B0
:105860004F4B00004552524F520000007265616478
:1058700020636F6C6F723A307825303458202025C1
:10588000730000002DE9FC5F002475A0FBF734FADB
:105890004FF6FF70009079484088143883B27748FB
:1058A000028814210020FEF719FB00BF5DE0744858
:1058B00030F81400734908807048458805EBD570AE
:1058C00040101438C4EB0411084481B26B480688B8
:1058D00006EBD6704010153804EB840200EB820012
:1058E00080B2DFF898C1CDE90001BCF8027007EB87
:1058F000D77C4FEA6C0CACF1490CC4EB041BDC44C4
:105900001FFA8CF3DFF874C1BCF8008008EBD87C78
:105910004FEA6C0CACF1330C04EB840B0CEB8B0CEE
:105920001FFA8CF2DFF854C1BCF8029009EBD97C65
:105930004FEA6C0CACF1140CC4EB041BDC441FFAF2
:105940008CF1DFF838C1BCF800A00AEBDA7C4FEA32
:105950006C0CACF1500C04EB840B0CEB8B0C1FFAB1
:105960008CF0FBF780FA601CC4B2052C9FDB40F280
:10597000DC5000F0CDFC4FF6FF7000903F484088AF
:10598000143883B23D48028814210020FEF7A6FA9D
:1059900000245DE03A4830F814003A49088037485E
:1059A000458805EBD57040101438C4EB0411084449
:1059B00081B23248068806EBD6704010153804EBE9
:1059C000840200EB820080B2DFF8B0C0CDE90001B4
:1059D000BCF8027007EBD77C4FEA6C0CACF1490CB9
:1059E000C4EB041BDC441FFA8CF3DFF890C0BCF856
:1059F000008008EBD87C4FEA6C0CACF1330C04EB64
:105A0000840B0CEB8B0C1FFA8CF2DFF870C0BCF827
:105A1000029009EBD97C4FEA6C0CACF1140CC4EB8E
:105A2000041BDC441FFA8CF1DFF850C0BCF800A066
:105A30000AEBDA7C4FEA6C0CACF1500C04EB840BF3
:105A40000CEB8B0C1FFA8CF0FBF734FD601CC4B21E
:105A5000052C9FDB40F2DC5000F05AFCBDE8FC9FB7
:105A6000B2E2CAD4353A47554920547269616E672B
:105A70006C65CCEEB3E4B2E2CAD40000500000245E
:105A8000080000243200002400B587B0FBA0FBF71B
:105A900033F90020FE490880FE480088069000EB9C
:105AA000D0704010323080B20490FA4800880590DF
:105AB00000EBD0704010323880B25A230390282176
:105AC000049AFEF79DF94FF47840F1490880F148B7
:105AD0000088069000EBD0704010401E80B2049009
:105AE000EC480088059000EBD0704010313880B24F
:105AF000592303902921049AFEF7B4F81F20E449A2
:105B00000880E4480088069000EBD07040103130E7
:105B100080B20490DF480088059000EBD070401000
:105B2000592303902921049AFEF79CF84FF6FF7041
:105B3000D749088001200090D6480088069000EBE5
:105B4000D0704010203880B2D3A3102239210590A4
:105B5000FEF7FCFC48F23040CD4908800A20009056
:105B6000CC480088069000EBD07040106E3080B2B8
:105B70000490C8480088059000EBD07040106E3843
:105B800080B2A92303909621049AFEF7E1F94FF61B
:105B90001F00BF4908800A200090BE480088069078
:105BA00000EBD07040100A3080B20490B9480088F1
:105BB000059000EBD07040106E3880B2A92303909E
:105BC0009621049AFEF7C4F9B24800880690012095
:105BD0000090069800EBD07040100A2340F2CF12DC
:105BE000A021059000F0C4FB0020A94908800120F5
:105BF0000090A8480088069000EBD07040107D38D7
:105C000080B2A6A3102298210590FEF79FFC0120E8
:105C10000090A0480088069000EBD07040107330D0
:105C200080B29FA3102298210590FEF78FFC4FF4BD
:105C30007840974908801020009096480088069088
:105C400000EBD07040100C3880B2032332227D214B
:105C50000590FEF723FC00208D4908800820009065
:105C60008C480088069000EBD07040101E3080B247
:105C7000049088480088059000EBD07040101E38D2
:105C800080B2FA230390DC21049AFEF7D9F84AF295
:105C900051607F490880072000907E480088069068
:105CA00000EBD07040101D3080B20490794800881D
:105CB000059000EBD07040101D3880B2F82303909F
:105CC000DD21049AFEF744F94FF61F007049088061
:105CD000012000906F480088069000EBD0704010C3
:105CE0000F3880B26FA31022E3210590FEF72EFC3F
:105CF000012010216DA2CDE90021029065480088A5
:105D0000069000EBD07040102F3880B24FF6FF7332
:105D10004FF47842C3210590FFF786F8E2E1674827
:105D20004068069080476548007C00F0010000282C
:105D3000F4D06248808928287EDD604880895A280E
:105D40007ADA54480088059000EBD0704010323861
:105D50005A490989884251DA4E480088069000EB7A
:105D6000D0704010401E55490989884246DD4FF4E5
:105D700078404749088047480088069000EBD0707B
:105D80004010401E80B2049042480088059000EB0D
:105D9000D0704010313880B2592303902921049AE1
:105DA000FDF760FF1F203A4908803A4800880690B6
:105DB00000EBD0704010313080B20490354800883C
:105DC000059000EBD0704010592303902921049ACC
:105DD000FDF748FF4FF6FF702D4908800120009025
:105DE0002C480088069000EBD0704010203880B21C
:105DF00029A3102239210590FEF7A8FB2548008829
:105E0000059000EBD07040102C490989884276DA61
:105E100020480088069000EBD070401032302749AF
:105E2000098988426BDD1F201949088019480088BC
:105E3000069000EBD07000E061E04010401E80B2A0
:105E4000049014480088059000EBD0704010313861
:105E500080B2592303902921049AFDF703FF4FF4E0
:105E600078400B4908800B480088069000EBD07002
:105E70004010313080B20490064821E0B2E2CAD42A
:105E800031313AB4A5C3FEB0B4BCFCB2E2CAD4000E
:105E900032000024500000244F4E0000300000006B
:105EA000313030004558495400000000B0B4455826
:105EB0004954BCFCCDCBB3F60000000038000024F0
:105EC0000088059000EBD0704010592303902921E1
:105ED000049AFDF7C7FE4FF6FF7084490880012041
:105EE000009083480088069000EBD07040100D3081
:105EF00080B280A3102239210590FEF727FB7C4851
:105F00000088059000EBD070401064387A49098908
:105F1000884275DC76480088069000EBD07040100F
:105F200064307549098988426ADB734880899628FC
:105F300066DD71488089A92862DA48F230406B49F1
:105F400008800A2000906A480088069000EBD07014
:105F500040106E3080B20590674800890A3880B2E0
:105F6000A92304909621059AFDF7F2FF4FF61F0032
:105F70005E4908800A2000905D480088069000EB8A
:105F8000D07040106E3880B204905B4800890A30AF
:105F900080B2A9230246962105900498FDF7D8FF08
:105FA00001200090544800890A2340F2CF12A0211A
:105FB000069000F0DDF94FF478404C4908804C48D9
:105FC0000088059000EBD070401064384A49098978
:105FD000081A06901020009045480088049000EBB5
:105FE000D07040100C3880B20290069800EBD07050
:105FF0004010032302467D2103900298FEF74EFADB
:106000003B480088059000EBD07040101E383A499C
:106010000989884266DC36480088069000EBD0701B
:1060200040101E303449098988425BDB3248808940
:10603000DC2857DD30488089FA2853DA4FF6FF70A4
:106040002A4908800820009029480088069000EB23
:10605000D07040101E3080B2049025480088059012
:1060600000EBD07040101E3880B2FA230390DC2180
:10607000049AFDF7E5FE42F612301C49088007201D
:1060800000901B480088069000EBD07040101D3037
:1060900080B2049016480088059000EBD070401044
:1060A0001D3880B2F8230390DD21049AFDF750FFDC
:1060B00048F21F400D490880012000900C480088DC
:1060C000069000EBD07040100F3880B2AFF22C2356
:1060D0001022E3210590FEF739FA4FF6FF700649CA
:1060E000088100E01BE600BF07B000BD32000024BD
:1060F000500000244F464600380000240EB53AA058
:10610000FAF7FAFD01203D4900900988203988B24C
:106110003BA310220221FEF719FA4FF478403949C7
:10612000088060E03849486880473748007C00F0C4
:106130000100002853D0344800893049098888423A
:1061400051DA314880892D49498888424BDABDF8B7
:1061500008004FF6FF71884207D12B480089ADF83F
:10616000080029488089ADF80A002748018923489A
:106170000088203881421BDD23488089122817DAE5
:106180004FF6FF7020490881088117A0FAF7B4FD87
:1061900001201A4900900988203988B218A31022DA
:1061A0000221FEF7D3F94FF47840164908800DE03C
:1061B0004FF478400221144CCDE90010A3892289C4
:1061C000BDF80A10BDF80800FDF7B6FD0E480089BD
:1061D000ADF808000C488089ADF80A0003E04FF6DE
:1061E000FF70ADF808009DE7B2E2CAD431323AB48C
:1061F000A5C3FE50454EB2E2CAD4000050000024B0
:1062000052535400320000243800002410B50449D1
:106210000868804700B110BDFFF736FCFFF76EFF3E
:106220003800002400BFFEE702480068C0F30220E7
:10623000704700000CED00E010B5002804DB0A07F1
:10624000130E054A135406E00A07140E034A00F021
:106250000F031B1FD45410BD00E400E018ED00E054
:106260002DE9F04104460D4616461F46DDF818801C
:10627000EA1991B2A21990B24246FBF7B7FBEA19AC
:1062800091B2A21B90B24246FBF7B0FBEA1B91B25F
:10629000A21990B24246FBF7A9FBEA1B91B2A21BDE
:1062A00090B24246FBF7A2FBAA1991B2E21990B252
:1062B0004246FBF79BFBAA1991B2E21B90B2424601
:1062C000FBF794FBAA1B91B2E21990B24246FBF78E
:1062D0008DFBAA1B91B2E21B90B24246FBF786FBF4
:1062E000BDE8F08130380A2801D201207047002033
:1062F000704702880B8803800A80704710B50446F7
:106300000420FDF74BFC0148046010BD240000246C
:1063100030B50446002504E04FF47A7000F004F82C
:106320006D1CA542F8D330BD70B5034600224FF076
:10633000E02675690D4E366803FB06F44FF0E02643
:10634000B16910E04FF0E026B06988420BD0884276
:1063500002D20E1A324402E02E1A0E443244014692
:10636000A24200D300E0EDE700BF70BD240000248E
:106370002DE9FF4F81B0824617469846DDF838B0C8
:10638000002445464FEA4800C0F10306BBF1000F68
:106390001FD01BE0A14608E04B462246009750461E
:1063A0000299FFF75DFF09F10109A945F4DD002E0F
:1063B00004DA042000FB0460861D06E0601B042153
:1063C00001FB006000F10A066D1E641CAC42E1DDB9
:1063D00018E015E02B462246009750460299FFF739
:1063E0003FFF002E04DA042000FB0460861D06E057
:1063F000601B042101FB006000F10A066D1E641C95
:10640000AC42E7DD05B0BDE8F08FFAF7EBFBFBF738
:1064100099FC042302220521A020FEF78BFD4FF4F6
:10642000C870FFF76BFFFDF7FBFD17E000F018F8F1
:10643000FFF78EF9FEF7D8FEFFF7B4F8FEF754FE2B
:10644000FFF720FAFAF72CFDFAF7DAFBFEF78EF9E0
:10645000FEF78AFFFEF708FBFFF7D8FEE6E700002D
:106460000EB51EA0FAF748FC0120102121A21F231F
:10647000CDE900210290DA021E210020FBF7F2FA9A
:106480000120102117A21F23CDE900210290DA027A
:106490003C210020FBF7E6FA0120102118A21F235F
:1064A000CDE9002102904FF61F025A210020FBF790
:1064B000D9FA0120102118A21F23CDE90021029052
:1064C0001A4678210020FBF7CDFA40F2DC50FFF7A6
:1064D0001FFF40F2DC50FFF71BFF0EBDC8ABB6AF8D
:1064E000B5E7D7D3D7DBBACFB2E2CAD4B3CCD0F2B8
:1064F00000000000C8ABB6AFB5E7D7D3000000007E
:10650000332E352220495053205354373739362003
:1065100033323058343830007869616F46656E67C1
:106520004051447465636820323032322D31322D4F
:106530003230000010B50246012000E050430B1E2F
:10654000A1F10104E1B2F9D110BD4FF04070E1EECC
:10655000100A7047010002000400060008000A004B
:106560000C0010002000400080000001010002002B
:106570000400060008000A000C0010002000400083
:10658000800000010000000000000000000000008A
:1065900000000404040404040004000000140A0AB7
:1065A0000000000000000000000014143F140A3F27
:1065B0000A0A000000041E1505060C14150F04003D
:1065C000000012150D0A142C2A1200000000040A03
:1065D0000A1E151509360000000202010000000025
:1065E000000000000020100808080808081020001B
:1065F000000204080808080808040200000000045B
:10660000150E0E150400000000000404041F04040D
:106610000400000000000000000000000002020171
:1066200000000000001F000000000000000000004B
:106630000000000000020000001008080804040226
:106640000202010000000E1111111111110E0000C3
:106650000000040604040404040E000000000E11EF
:1066600011080402011F000000000E11100C101090
:10667000110E00000000080C0A0A091E081800008C
:1066800000001F01010F1010110E000000000E0984
:10669000010F1111110E000000001F09080404046D
:1066A0000404000000000E11110E1111110E000063
:1066B00000000E1111111E10120E0000000000004B
:1066C00004000000000400000000000000040000BE
:1066D0000004040000201008040204081020000038
:1066E000000000001F00001F00000000000204085E
:1066F000102010080402000000000E11110804040C
:106700000004000000000E111915151D011E0000E7
:10671000000004040C0A0A1E1233000000000F12CD
:10672000120E1212120F000000001E1101010101D1
:10673000110E000000000F1212121212120F0000B0
:1067400000001F120A0E0A02121F000000001F1292
:106750000A0E0A020207000000001C120101391192
:10676000120C000000003312121E1212123300002D
:1067700000001F0404040404041F000000003E087D
:106780000808080808090700000037120A060A0A64
:10679000123700000000070202020202223F00003E
:1067A00000001B1B1B1B15151515000000003B12DC
:1067B00016161A1A1217000000000E1111111111ED
:1067C000110E000000000F12120E0202020700005C
:1067D00000000E1111111117190E180000000F12F0
:1067E000120E0A121237000000001E1101060810D6
:1067F000110F000000001F1504040404040E000023
:106800000000331212121212120C00000000331298
:10681000120A0A0C0404000000001515150E0A0ADD
:106820000A0A000000001B0A0A04040A0A1B0000EE
:1068300000001B0A0A040404040E000000001F09E3
:1068400008040402121F0000001C040404040404D1
:1068500004041C00000202020404080808100000DE
:10686000000E08080808080808080E0000040A00BE
:106870000000000000000000000000000000000018
:106880000000003F000400000000000000000000C5
:1068900000000000000C121C123C0000000003026B
:1068A000020E1212120E000000000000001C120264
:1068B000021C000000001810101C1212123C0000F4
:1068C00000000000000C121E021C00000000380432
:1068D000041E0404041E000000000000003C120C12
:1068E000021E221C00000302020E121212370000C8
:1068F0000000040000060404040E0000000008006C
:10690000000C08080808080700000302023A0A0EF3
:10691000123700000000070404040404041F0000F0
:1069200000000000000F1515151500000000000004
:10693000000F12121237000000000000000C1212AB
:10694000120C000000000000000F1212120E0207CD
:1069500000000000001C1212121C10380000000081
:10696000001B06020207000000000000001E020CCF
:10697000101E000000000004040E040404180000AF
:1069800000000000001B1212123C0000000000007A
:106990000037120A0C040000000000000015150E5C
:1069A0000A0A000000000000001B0A040A1B000085
:1069B000000000000037120A0C040403000000006D
:1069C000001E0804041E0000001808080804080837
:1069D000080818000808080808080808080808082F
:1069E0000006040404080404040406000225180038
:1069F0000000000000000000000000000000000097
:106A0000000000000000000000000008080808085E
:106A1000080800001818000000486C24120000004C
:106A200000000000000000000000002424247F1269
:106A300012127F12121200000000081C2A2A0A0CEF
:106A40001828282A2A1C08080000002225151515D8
:106A50002A585454542200000000000C1212120A4A
:106A600076252911916E000000060604030000003F
:106A7000000000000000000000402010100808087E
:106A80000808081010204000000204080810101028
:106A900010101008080402000000000008086B1C19
:106AA0001C6B08080000000000000000080808082F
:106AB0007F08080808000000000000000000000037
:106AC00000000000060604030000000000000000B3
:106AD000FE000000000000000000000000000000B8
:106AE000000000000606000000008040402020104A
:106AF0001008080404020200000000182442424268
:106B00004242424224180000000000080E08080813
:106B100008080808083E00000000003C42424220ED
:106B200020100804427E00000000003C4242201871
:106B300020404042221C0000000000203028242475
:106B400022227E20207800000000007E0202021A2D
:106B500026404042221C0000000000382402021A95
:106B600026424242241800000000007E222210101B
:106B700008080808080800000000003C42424224BF
:106B800018244242423C00000000001824424242C5
:106B900064584040241C0000000000000000181849
:106BA00000000000181800000000000000000008AD
:106BB0000000000000080804000000402010080445
:106BC00002040810204000000000000000007F00C8
:106BD00000007F00000000000000000204081020F8
:106BE00040201008040200000000003C42424640E1
:106BF00020101000181800000000001C225A5555E3
:106C000055552D42221C00000000000808181414DD
:106C1000243C224242E700000000001F2222221EE4
:106C200022424242221F00000000007C4242010139
:106C300001010142221C00000000001F22424242CA
:106C400042424242221F00000000003F4212121E38
:106C500012120242423F00000000003F4212121E88
:106C600012120202020700000000003C2222010171
:106C700001712122221C0000000000E74242424232
:106C80007E42424242E700000000003E0808080839
:106C900008080808083E00000000007C10101010D2
:106CA000101010101010110F0000007722120A0EA1
:106CB0000A121222227700000000000702020202DC
:106CC00002020202427F00000000007736363636AC
:106CD0002A2A2A2A2A6B0000000000E346464A4A74
:106CE00052525262624700000000001C22414141A2
:106CF00041414141221C00000000003F424242420B
:106D00003E020202020700000000001C2241414135
:106D100041414D53321C60000000003F4242423E60
:106D20001212222242C700000000007C42420204EC
:106D300018204042423E00000000007F4908080839
:106D400008080808081C0000000000E74242424210
:106D500042424242423C0000000000E742422224FC
:106D600024141418080800000000006B4949494920
:106D70005555362222220000000000E74224241844
:106D80001818242442E7000000000077222214147F
:106D900008080808081C00000000007E21201010D0
:106DA00008040442423F0000007808080808080868
:106DB000080808080808780000000202040408080F
:106DC0000810102020204040001E1010101010103D
:106DD0001010101010101E000038440000000000B9
:106DE00000000000000000000000000000000000A3
:106DF00000000000000000FF000608000000000086
:106E00000000000000000000000000000000003C46
:106E10004278444242FC0000000000030202021AD1
:106E200026424242261A00000000000000000038FE
:106E300044020202443800000000006040404078F4
:106E40004442424264D80000000000000000003CC0
:106E5000427E0202423C0000000000F08808087EEA
:106E600008080808083E0000000000000000007C40
:106E700022221C023C42423C000000030202023A71
:106E80004642424242E700000000000C0C00000EA7
:106E900008080808083E00000000003030000038F4
:106EA000202020202020221E000000030202027267
:106EB000120A1612227700000000000E08080808C7
:106EC00008080808083E0000000000000000007FDD
:106ED0009292929292B70000000000000000003BE6
:106EE0004642424242E70000000000000000003C31
:106EF00042424242423C0000000000000000001BF1
:106F000026424242221E02070000000000000078D4
:106F100044424242447840E0000000000000007714
:106F20004C040404041F0000000000000000007C6A
:106F300042023C40423E0000000000000008083EC3
:106F40000808080808300000000000000000006386
:106F50004242424262DC000000000000000000E704
:106F6000422424140808000000000000000000EB88
:106F7000494955552222000000000000000000761B
:106F800024181818246E000000000000000000E71C
:106F90004224241418080807000000000000007EA6
:106FA00022100808447E000000C02020202020106D
:106FB000202020202020C0001010101010101010D1
:106FC0001010101010101010000608080808081003
:106FD00008080808080806000C32C200000000007B
:106FE0000000000000000000C9EE000027FC1404AF
:106FF00014A4811042084040104017FC2040E0E0FB
:10700000215022482C4620400040DBDA1104112494
:10701000112411241124FD241124112411241124DC
:1070200011241D24E124422402040404CAD00200D5
:10703000010000007FFC0100010001003FF8210871
:107040002108210821082128211001000100C8ABD6
:1070500000000000018002400430180860061FF99B
:107060000100010001003FF80100010001007FFE66
:10707000B6AF0000000000203E20007C002200226D
:107080007F221022102212221222224223423D820B
:10709000009CB5E70000010001001FF0610C4104F5
:1070A00041047FFC4104410441047FFC01000102D2
:1070B000010201FCD7D3000000003FF8001000607F
:1070C0000080010000807FFE004000400020002082
:1070D000002018400780BCBC10201020102013FE98
:1070E000FC201020102015FC18843088D048105047
:1070F0001020105051882606CAF501000120011009
:1071000001107FFC03800540054009201110210873
:1071100041048102010001000100D3D002000200FD
:10712000FFFE040004000FF0081018102FF04810A4
:1071300088100FF00810081008500820CFDE00005B
:107140007BF84A08520853F8620852084BF84A4440
:107150004A486A3052204210428843064200B9AB86
:10716000008004800480084008401020201042085D
:10717000820604000440082010203FF01010000098
:10718000CBBE00003FF8000800087FE800080008B8
:107190001F8810881088108810881F881088002881
:1071A0000010BBB600800080FC8004FC0504490888
:1071B0002A401440104028A024A045108110020845
:1071C00004040802D3AD00002080133C12240224E2
:1071D0000224F2241224122412B4132812201020A4
:1071E000282047FE0000C4FA0900090011FC3204FF
:1071F0005448995011481244144411401080020020
:107200005104511290120FF0B4BF00000020102062
:1072100013FE202026244A247A241224222423FC2C
:107220007C20002204227822003CC9AB0000000030
:1072300004000FF0102020207FFC20842084208474
:1072400020843FF82000200220021FFECCEE000028
:107250000000204023FE204079FC220423FC22046D
:1072600023FC220423FC3A0465FA01980204B3E4E7
:107270000000010001007FFE022004100408080441
:107280003FFC044204400440044208421042607E35
:10729000BED800000000207E3E804880488048FE26
:1072A00048827F8208820C8214FA12842280218014
:1072B00040FED0CE000000007F842208223022C091
:1072C000220222047FC8223022C222022204220883
:1072D00022304040BBAD000000007FFE00000FF0F8
:1072E00011101110111051125FF25112511251125E
:1072F0004FF240027FFCD4B2000000007FFE47E264
:107300004812481247E24FF25012501251125112D5
:1073100042924472580A3FFCCDBC000000003FFE80
:10732000440247F24C225362408243625E1A418219
:107330004062430240C240223FFCC6AC0000004015
:107340002040204020403FFE2000200020003FE061
:10735000201020102010201040104010CFD400002A
:1073600000003FFC200420043FFC200420041FF800
:1073700024441448144814480C5004407FFECABEEC
:10738000000000003FFC0000000000007FFE0080C5
:10739000089008881088108420842082408207800A
:1073A000B2CB0000002008207FFE002000783F883C
:1073B0001108089009207FFE018003400D30310C38
:1073C0004002B5A500000010081004203FF8210479
:1073D00021043FFC210421043FF801007FFE01004D
:1073E00001000100D6D000000100010001003FFCB7
:1073F0002104210421042104210421043FFC010073
:10740000010001000100D3A20000000008207FFE5F
:107410000820092001003FF82108210821081FF455
:10742000014002200C10700ECEC4000001000100CB
:1074300000803F7C08100810041004200220024045
:107440000180018002601C18E006D7DB000000000C
:10745000102011FE2202220249FC5800300013FEC7
:107460002528792401240D24722202A2BACF00001B
:107470000000018002400430180860061FF8000078
:107480001FF8200420042004200420041FF8C1C198
:107490000000010001007FFE00003FF820083FF8D7
:1074A0003FF8400647C24824082008221022603EC8
:1074B000B6C80000000000803FFE44105FFC44108E
:1074C000441043F040005FF84408423041C043603C
:1074D000BC1EB2E20000000067C214520552055201
:1074E000C552255205520552155217522282224288
:1074F0004442483ECAD4000000002014101417FE75
:1075000000120010601013F0109010901090149260
:1075100014EA1F0A0006B3CC0000000019FE720234
:10752000120212027DFC18001BFE3420502053FE74
:1075300010201020102013FED0F200000000008068
:107540003FFE400047FC4208413040C05FFE4042E1
:1075500040424044404840404440B5F700000000ED
:1075600023FE122202FA0222E22212FE1272128A72
:10757000128A128A16BA1A421202040EB9E20000E6
:107580000100010411080908091009207FFE0440C8
:10759000044004400440084208421042607CB0E6C7
:1075A0000000000048FE4900490049007EFE41827B
:1075B00041447944452845284510452846440382DE
:1075C000C8A800001000100013FC7D041104190469
:1075D00018843488504850501020105010881304DC
:1075E0001402CBF9000000003F7C204020403E40C8
:1075F000227E2244224422443E84208420844084EB
:1076000041044204C6C100003FF8200820083FF8AA
:10761000241022202FF8222022203FFC222042206A
:10762000442084200820C4BB04407FFC04401FF099
:1076300010101FF010101FF00400FFFE11103FF893
:10764000D116115011200100D0FD2080108010FEB5
:107650000100FE0021FC20243C2424A024A024BC02
:1076600024A024A04560553E8A00D7AA20202020CF
:107670002020FDFC4020504093FEFC40108011FC77
:107680001C04F0885050102010101010BFAA0000E9
:107690007FFC08200820082008200820FFFE082082
:1076A0000820082008201020102020204020D4B4DA
:1076B000000027FE1420144085FC450445FC1504F9
:1076C00015FC2524E42024A829242A2230A00040E7
:1076D000D2BA0080204017FE11208120423C424453
:1076E000166412942348E248223022202250228835
:1076F0000306BEA70FE0082008200FE0082008209E
:107700000FE000007EFC428442847EFC428442847E
:107710007EFC4284CDF800007FFC4004400442140B
:1077200052944A54442444244A544A54529461047E
:10773000400440144008D5BE1020082008207E20B8
:10774000003E04204420442025FC290429040F0481
:10775000F104410401FC0104B0B4104010201020D9
:1077600013FEFA02144410401BFE3088D088110822
:1077700010D01020105050882304BCFC2010201082
:107780003B7C211441FE7A14A27C2710F97C251041
:1077900025FE22102A10350028FE0000D0A310403C
:1077A0001020102011FEFC00108831043A02548889
:1077B0005088905010501020105010881306D7BCDD
:1077C00001404120212023FE022016201BFC122014
:1077D000222023FCE2202220222023FE220002007D
:1077E000B4A520202020782049FC91247D24552414
:1077F00055247DFC552454207C28542457FE4502F2
:107800008C00C3FE1110111017FC1110FC0013F8AE
:10781000120817F81A0833F8D04017FC10A01110FE
:1078200052082406B6C10020202011FC10200020A0
:1078300003FEF002109410501110109013FE142843
:10784000184410820302BACD04000E007800087CB0
:107850000844FF44084418441C442A442A44484429
:10786000887C084408000800D1D5100008FE7F106D
:107870002220147C7F444454485452544454485465
:1078800051544228442488423082D6B508400840EA
:107890000FFC1040104033F8320853F8920813F8E8
:1078A000120813F8120812081FFE1000C8DD0200AB
:1078B00001007FFE40028824111022880440082025
:1078C0003018DFF61010101010101FF01010D6A78F
:1078D0000100010001007FFC0100010001003FF0F8
:1078E0001010082004400280010006C01830E00E8D
:1078F000B3D610201020102011FCFC20102013FE05
:107900001008180833FED0081088104810085028B6
:107910002010B5E302000200020003FC0200020096
:107920003FF02010201020103FF000002488224457
:1079300042448004CCAC010001007FFC01000280C5
:1079400004400A203118C006010008884884481203
:10795000481287F00000CAFD082049202A20083E6E
:10796000FF442A44494488A41028FE2822104210CB
:10797000642818283444C282D7D6020001007FFE52
:10798000400280041FE0004000800100FFFE010073
:1079900001000100010005000200CDCB03F8220820
:1079A000120813F802080208F3F812441228121001
:1079B000128813041204280047FE0000B3F60100E9
:1079C000010021082108210821083FF801080100D1
:1079D000010041044104410441047FFC0004C9EE5C
:1079E0000000000000001000000800080C7FFC04EC
:1079F000401001C8A002186042301832231812C388
:107A00000014030004030C047FF0080F80080B40EF
:107A100078136018332018631818831C190308188A
:107A20000300000300000000DBDA0000000000009B
:107A300004100C04180C04108C04108C04108C041A
:107A4000108C04D08C3F108C04108C04108C04100B
:107A50008C04108C04108C04108C05F08C0E208C7F
:107A600078208C20408C00808C01000C02000C00DF
:107A70000000CAD000000000000000300000180024
:107A800000180800001C1FFFE00018000018200765
:107A9000FFF00418200418200418200418200418EB
:107AA000200418200418200418200418200418E0CA
:107AB000041840001800001800000000D6D0000094
:107AC0000000000000000000000000180000180086
:107AD0000018000018003FFFFE301806301806306E
:107AE00018063018063018063FFFFE30180600183A
:107AF0000000180000180000180000180000000026
:107B0000000000000000CEC40000000000000000E3
:107B100000003800001C00000600FFFFFF060030D8
:107B20000600300300600300600180C000C18000D7
:107B3000E300003600001C0000770003C1E01E00D7
:107B40003C60000700000000000000000000000092
:107B5000B2E2000000000000000000000000400051
:107B60000321FF33398333118333019B33C19B33AB
:107B7000719B33199B33019B33019B33119B331949
:107B8000B333303033306C0330C6036383032E01CC
:107B9000BE000000000000000000CAD40000000089
:107BA00000000000000000004000D83000CE1800A7
:107BB000C21C00C001FFFF0000C0F800C01800C0D8
:107BC00019FFC01818401818601918601B18611E9A
:107BD00018311C1FB139F01910000F00000000000F
:107BE00000000000D7D600000000000600000003DF
:107BF00000000000C0000001C0C0000107C000017B
:107C0000FF00021FFE0007F01C0007C070000F00FD
:107C1000E0000E03F0001C0FF0003C0F70003C0071
:107C2000E0001800C0000000C0000000C00000001C
:107C3000600000002000000037000001FF00007F0E
:107C4000F80007F830001F8030000080300000C0CE
:107C50003000006060000018E000000FC000000667
:107C6000000000000000CCE5000000000000000063
:107C7000000000C0000000E0002001B800703FF8E4
:107C80000061FFC000C3030001C60600038C0600AC
:107C900003080C0006080C000E18183F1E101BF3FA
:107CA0001F903F0700803C1C0190707C019060FE9B
:107CB00001A0C3F801A00FD803A0081803600018A2
:107CC0000340001803C000180380001803000018C8
:107CD000000000180000001000000030000000301C
:107CE0000000000000000000B2E200000000000000
:107CF00000000000000000000000020C1008071F38
:107D0000F80403BFF00201BC300303EC3003015C54
:107D1000600300D8600300D860038098620361B8F4
:107D2000430771B14306313243063376C3063A64E2
:107D3000C7063EECC0063E78C0063C3040067C706C
:107D4000000678E060067BFFF006F7C00006E4005E
:107D5000000640000006000000060000007C000055
:107D60008FF000007C0000000000CAD4000000007A
:107D7000000000000000000000003F0000007F80C5
:107D800000000180000000C0000000C0000000CE24
:107D9000038000CFFFC000DD41800FFE0007FFFC25
:107DA000000C00F000180FC03E19FF40F311BC603A
:107DB00083307FE003B1FE20033380200370003066
:107DC000036000100360001807C0000C07C0000427
:107DD0000780000201000003000000010000000015
:107DE0000000000000000000000000000100020090
:107DF0000400060008000A000C00100020004000EB
:107E000080000001010002000400060008000A00D2
:107E10000C00100020004000800000010000000065
:107E2000010203040102030406070809010002001D
:107E30000400060008000A000C00100020004000AA
:107E400080000001010002000400060008000A0092
:107E50000C0010002000400080000001FFFFFFFF29
:107E6000FFFFFFFFFFFFFFFFFFFFFFFFFFFFFFFF22
:107E7000FFFFFFFFFFFFFFFFFFFFBEF7FFFFDEFF7C
:107E800038C6928C8E6B6E6B107C96AD3CE7FFFF14
:107E9000FFFFFFFFFFFFFFFFFFFFFFFFFFFFFFFFF2
:107EA000FFFFFFFFFFFFFFFFFFFFFFFFFFFFFFFFE2
:107EB000FFFFFFFFFFFFFFFFFFFFFFFFFFFFFFFFD2
:107EC000FFFFFFFFFFFFFFFFFFFF5DEF159D4F630C
:107ED0006C420A328829461925194521E8318E6BF2
:107EE00038C6FFFFFFFFFFFFFFFFFFFFFFFFFFFFA2
:107EF000FFFFFFFFFFFFFFFFFFFFFFFFFFFFFFFF92
:107F0000FFFFFFFFFFFFFFFFFFFFFFFFFFFFFFFF81
:107F1000FFFFFFFFFFFFFFFF36A51053104B51532C
:107F20000F4B6C3AE93167212519E410A308620070
:107F30008308CB529AD6FFFFFFFFFFFFFFFFFFFF33
:107F4000FFFFFFFFFFFFFFFFFFFFFFFFFFFFFFFF41
:107F5000FFFFFFFFFFFFFFFFFFFFFFFFFFFFFFFF31
:107F6000FFFFFFFF3CE77063B363B87CF563114329
:107F70004D32EA2988212619051905190411041121
:107F8000E4108300A308728CFFFFFFFFFFFFFFFFD9
:107F9000FFFFFFFFFFFFFFFFFFFFFFFFFFFFFFFFF1
:107FA000FFFFFFFFFFFFFFFFFFFFFFFFFFFFFFFFE1
:107FB000FFFFDBDE4B3AF042356C544BB1322E2AD8
:107FC000EB21A921671905190411041104110411E9
:107FD00004110519E4104200AF73FFFFFFFFFFFF1C
:107FE000FFFFFFFFFFFFFFFFFFFFFFFFFFFFFFFFA1
:107FF000FFFFFFFFFFFFFFFFFFFFFFFFFFFFFFFF91
:108000005DEF09324C32104B8F324F2A2E2ACC1999
:10801000891989214719051904110411C410C410C4
:10802000041104110411E41042003184FFFFFFFF2A
:10803000FFFFFFFFFFFFFFFFFFFFFFFFFFFFFFFF50
:10804000FFFFFFFFFFFFFFFFFFFFFFFFFFFFFFFF40
:10805000EC5247194C320B2AEC21EC210C22915B9B
:10806000EE4A061126190419E410E410A729662126
:10807000A308051904110411E4108200F7BDFFFFE5
:10808000FFFFFFFFFFFFFFFFFFFFFFFFFFFFFFFF00
:10809000FFFFFFFFFFFFFFFFFFFFFFFFFFFF35A514
:1080A0008308882188218921AA218A216B42718C29
:1080B000FFFF728C83080411C4082942FBDE5DEFC8
:1080C000EC5A83080411041104118308E831DFFF1E
:1080D000FFFFFFFFFFFFFFFFFFFFFFFFFFFFFFFFB0
:1080E000FFFFFFFFFFFFFFFFFFFFFFFFBEF7C731EF
:1080F000C4102519261947194719A8298A52284A50
:1081000055ADFFFFE831A30805194D6B4D6BFFFF1F
:108110007DEF4521C410041104110411620076ADF5
:10812000FFFFFFFFFFFFFFFFFFFFFFFFFFFFFFFF5F
:10813000FFFFFFFFFFFFFFFFFFFFFFFF96B562009E
:108140000411041905110519C4088B4AB6B55DEF71
:10815000F7BDFFFF8E6B62002942AA5A0842FFFF5B
:10816000FFFFCC528308041104110411A308AD527F
:10817000FFFFFFFFFFFFFFFFFFFFFFFFFFFFFFFF0F
:10818000FFFF1CE7FFFFFFFFFFFFFFFF4E636200E3
:10819000041104110411E41062008E63FFFFFFFF5D
:1081A000FFFFFFFFCF730100F39C2C6396B5FFFF29
:1081B000FFFF2D5B8300041104110411E4106721FB
:1081C0003DEFFFFFFFFFFFFFFFFFFFFFF8BDB7B56C
:1081D0009EEFCB52B394FFFFFFFFDFFFE831A30810
:1081E0000411041104110411A3084942FFF7FFF719
:1081F000FFFFFFFF6A4A01007284FFFFFFFFFFF7E6
:10820000DFEF093AA3080411041104110411051148
:1082100018BEFFFFFFFFFFFFFFFFFFFFF07B6200C5
:10822000E831C731410035A5FFFF5DEF4621C4109D
:108230000411041104110411E410A308769DFFF742
:10824000FFFFB7ADA308A308C7319EE7FFF7FFF70D
:1082500076A5A308E41004110411041105110511F9
:1082600035A5FFFFFFFFFFFFFFFFFFFFDBDEA729B5
:108270008300C410C410C4101CE79EEF0511E41065
:1082800004110411041104110419C408E510D16B80
:10829000D16BC5086400A50843002B32779DB384D9
:1082A0002519C410041104110411041125192609FB
:1082B000359DFFFFFFFFFFFFFFFFFFFFFFFFAF73D6
:1082C00062000419051982000D5B8E9B6210051176
:1082D000041104110419E41085000511C439815AF0
:1082E000407B229C43AC03A4839B82728249C218C8
:1082F000A400C500E41004190411051947196711F9
:10830000EC5ABEFFFFFFFFFFFFFFFFFFDFFFDBDEDB
:10831000C410E41004110511A41801C08388E400FE
:1083200005190419C5084421438323D542FEE4FE00
:1083300027FF07FFA4FE64FE03FEA3FDE2FC42EC60
:1083400083B32462E510C40804192619A8198721EB
:108350000090D3BCFFFFFFFFFFFFFFFFDFFFFFFF2A
:10836000107C420005190511832801D044F8A34868
:10837000E400C508445A02EDE2FD02FE66FE74FF09
:10838000B8FF73FFE7F6A6F645F6A4F5C3FC62FC5A
:10839000C2FCC2FCE3CBC449061188198701A49032
:1083A00001F8EC9AFFFFFFFFFFFFFFFFFFFFFFFF5A
:1083B000BEF7E83183000509824001C023F885F04B
:1083C000A348A400445A02FD23CCC2DC04FE28FECC
:1083D00048F646F624F6E4F564FDE3FC62FCC2FCD4
:1083E00002E402DCE2FCA47A48016701C47824F8C4
:1083F00002F884B07DE7FFFFFFFFFFFFFFFFFFFFF5
:10840000FFFFDBDE2519A300C43802E022D844F8C0
:10841000A6F8A4786300432183728339829B21F5F7
:1084200061FD22FDE2FCA2FC42FC42FC42FC22ABCC
:108430008341C392045226012519A49844F823F8D5
:1084400002F8A4D09EEFFFFFFFFFFFFFFFFFFFFF3B
:10845000FFFFFFFF9AD68729A50043B822F823E043
:1084600065F8E8F807C983484200A300840063293F
:10847000A27A62B3A2CB62D302BB828A8339A40000
:10848000E500E500E508C46064D844F824F823F862
:1084900002F88388DBC6FFFFFFFFFFFFFFFFFFFF40
:1084A000FFFFFFFFFFFF3DE7505B083123E843F884
:1084B00044F065F809F9ABF989D10689A348421857
:1084C0000200420061008200620062008300A3207B
:1084D000C450A58885D865F844F844F823F823F8F3
:1084E00003D08210C7295DEFFFFFFFFFFFFFFFFFF3
:1084F000FFFFFFFFFFFFFFFFFFFF6C32A53802D831
:1085000023F865F866F8A7F84AF90CFA4DFA4CEA30
:108510000BD2A9B968B147A927B107B907D1E7E8D4
:10852000C7F8A7F865F865F844F823F803F802D00F
:10853000A3280509C408EC5AFFFFFFFFFFFFFFFF58
:10854000FFFFFFFFFFFFFFFFFBDE0519C400A74190
:10855000E6C003F886F8A7F887F886F8C7F829F97F
:108560008AF9ABF9ABF98BF96AF929F908F9C7F877
:10857000A6F886F865F864F823F802F006B1252914
:10858000E400E41025192519149DFFFFFFFFFFFFEC
:10859000FFFFFFFFFFFFFFFF96AD620082083595EA
:1085A000BACE8BA244D025F887F8A7F8C7F8A7F869
:1085B00087F886F886F886F887F8A7F8A7F8A6F867
:1085C00085F865F864F824F064B80D93BBB6CF6302
:1085D00083080411E4106621493A5DEFFFFFFFFFB5
:1085E000FFFFFFFFFFFFFFFFD3944200E410BBCE6D
:1085F000FFFFBEE776B5CCAA07C145E045F846F8CF
:1086000066F886F886F886F886F865F845F865F81D
:1086100065E844D043A8018882903CD7FFEF559588
:1086200083080411041105194619B394FFFFFFFFD5
:10863000FFFFFFFFFFFFFFFFB394410086215DDFD7
:10864000FFFFFFFFFFFFDFE77AC6D3B44EB32AC2B6
:1086500068D1E6E0A6E8A5E8A5E8E6D888C906A9B5
:1086600022A802A800A000C800D8F7E5FFE7F8ADEF
:10867000C410E4100411E41005118B4AFFFFFFFF42
:10868000FFFFFFFFFFFFFFFF55A54100A7295DDFAB
:10869000FFF7FFFFFFFFFFFFFFFFFFFFFFEF7DDFA4
:1086A000DBCE59CEF8CDD7CDF7C579CEFBBEABA288
:1086B00003F045F842D043E800F072D4FFDF39AE52
:1086C000E410E4100411E41005118729FFFFFFFFF7
:1086D000FFFFFFFFFFFFFFFF59CE830846211CD796
:1086E000FFF7FFFFFFFFFFFFFFFFFFFFFFFFFFFFA2
:1086F000FFFFFFFFFFFFFFFFFFFFFFFFFFEF8BBA53
:1087000004F845F862E044F000F88EDBFFDFF8A5DE
:10871000C410E410E4100411E4102519FFFFFFFF5A
:10872000FFFFFFFFFFFFFFFFBEF78729830839B672
:10873000FFF7DFF7FFFFFFFFFFFFFFFFFFFFFFFF79
:10874000FFFFFFFFFFFFFFFFFFFFFFFFBEE74ABA8C
:1087500003F845F864F844F800F86EE3FFD7F48CAA
:1087600083080411E410E410E4100519FFFFFFFF73
:10877000FFFFFFFFFFFFFFFFFFFFEF7300007284AB
:10878000FFEFBEEFDFFFFFFFFFFFFFFFFFFFFFFF7A
:10879000FFFFFFFFFFFFFFFFFFFFFFFFDFE78BBADA
:1087A00003F845F845F823F800F8D3D4FFD74E5B1B
:1087B0002100293A55A58308C4102519FFFFFFFFA2
:1087C000FFFFFFFFFFFFFFFFFFFFFBDEA308E83116
:1087D0009EDF9EE7BFEFFFFFFFFFFFFFFFFFFFFFF3
:1087E000FFFFFFFFFFFFFFFFFFFFFFFFFFF751BC92
:1087F00002E003F803F043E0ECC27ECFFCBE46216A
:108800002100D394FFFF518400008729FFFFFFFF61
:10881000FFFFFFFFFFFFFFFFFFFFFFFF518400008F
:10882000F48CFFEF9EE7BFEFDFFFFFFFFFFFFFFFCF
:10883000FFFFFFFFFFFFFFFFFFFFFFFFFFFF3DDF2A
:1088400055BD52BC72BCB7B55DC7FFDFF06B000011
:10885000093ABFF7FFFFFFFF149D55A5FFFFFFFF7C
:10886000FFFFFFFFFFFFFFFFFFFFFFFFFFFFAC4A20
:10887000A408BBBEDFE77EE7BEEFDFF7DFFFFFFF49
:10888000FFFFFFFFFFFFFFFFFFFFFFFFDFFFDFF740
:10889000FFEFDFDFBFD79ED7DFDFD8A58308261124
:1088A000DBD6FFFFFFFFFFFFFFFFFFFFFFFFFFFF25
:1088B000FFFFFFFFFFFFFFFFFFFFFFFF79EE8BDCF6
:1088C0002131A9213DCFBFDF7EDF9EE7BEEFBFEFA5
:1088D000DFF7DFF7DFF7DFF7DFF7BFEFBEEF9EE78A
:1088E0007EDF5ED75ED7DFDF9AB626194208EDA39A
:1088F000BFFFFFFFFFFFFFFFFFFFFFFFFFFFFFFFC8
:10890000FFFFFFFFFFFFFFFFFFFF74DDC0DB00FE87
:1089100042EE024289217BB6DFDF7ED77EDF7EDF3B
:108920009EE79EE79EE79EE79EE77EDF7EDF5DD7C0
:108930005DD79EDFFFE7F8A50711E31802C560FDCC
:10894000E6D3DBEEFFFFFFFFFFFFFFFFFFFFFFFFB1
:10895000FFFFFFFFFFFFFFFF9EF784BAC1FC42FE4F
:1089600082FEA2FE8183452174745EC7DFDF7ED75D
:108970005ED75DD75ED75ED75DD75DD75ED79EDF0A
:10898000FFE73DC7F1638408425226E629FF86FED1
:10899000E0F36AC3FFFFFFFFFFFFFFFFFFFFFFFFE3
:1089A000FFFFFFFFFFFFFFFF18DEC1D2A2FD22FE87
:1089B00042FE42FE62FEE2D4416A494253743BA643
:1089C0003EC7BFD7BFD7BFD7BFDFBFD73EC71AA6E7
:1089D000F263A729824122B462FE83FEAAFE0FFF42
:1089E00067FD63BA3CEFFFFFFFFFFFFFFFFFFFFFE5
:1089F000FFFFFFFFFFFFFFFF9AE680D221FDC2FDD0
:108A0000E2F5C2F582F582FD62FD61DC219B846A9C
:108A1000E96A2C63AF6311746E632C63895A045244
:108A2000817AC2CBE2FC62FD82FDC2FDC2FDE4FDA3
:108A300024FD62CA1CE7FFFFFFFFFFFFFFFFFFFFF0
:108A4000FFFFFFFFFFFFFFFFFFFFB1CC81D2C0F3AD
:108A5000C1FC02FD02FDE2FCC2FCC2FC81FC80FB09
:108A6000C0C9A48135AD59CE719C218100DAA1FB2A
:108A700082FCA2FC82FCA2FC02FD22FDE2FC00FCC6
:108A800060DA90CCFFFFFFFFFFFFFFFFFFFFFFFF5C
:108A9000FFFFFFFFFFFFFFFFFFFFFFFF59DE0DC4DA
:108AA00006CBE4D203DB03DBE3DAC3D2A4C209B30F
:108AB000D2BC9EF7FFFFFFFFFFFFFBE60EB4A6BA96
:108AC00083D2E3E202EB22EB22E303DBE4D26AC3CC
:108AD000B6D5FFFFFFFFFFFFFFFFFFFF00F800001D
:108AE0008C8B0008808B0008708B0008608B00085E
:108AF000010002000400060008000A000C0010003B
:108B00002000400080000001010002000400060077
:108B100008000A000C001000200040008000000146
:108B200003000900303132333435363738394142A9
:108B300043444546403058003031323334353637BF
:108B4000383961626364656640307800040000086B
:108B50000000000000000002000100001000000002
:108B6000526F746174696F6E3A32373000000000E2
:108B7000526F746174696F6E3A31383000000000D2
:108B8000526F746174696F6E3A393000526F74615C
:108B900074696F6E3A300000B88B00080000002442
:108BA00050000000D4020008088C00085000002487
:108BB000E0070000F00200080090D0030090D0030E
:108BC00000F8E0071F00E0FF1FF800F81FF8E007BB
:108BD000CF011F0000001F84000000000000000003
:108BE000000000001000000001000000FFFF000076
:108BF000C950000800000000000000000000000054
:088C000000000000000000006C
:040000050800029954
:00000001FF
