:020000040800F2
:10000000B8070020DD380008591200085B1200080C
:100010005F12000863120008671200080000000069
:100020000000000000000000000000006B1200084B
:100030006D120008000000006F1200087112000825
:10004000F7380008F7380008F7380008F7380008D4
:10005000F7380008F7380008F7380008F7380008C4
:10006000F7380008F7380008F7380008F7380008B4
:10007000F7380008F7380008F7380008F7380008A4
:10008000F7380008F7380008F7380008F738000894
:10009000F7380008F7380008F7380008F738000884
:1000A000F7380008F7380008F7380008F738000874
:1000B000F7380008F7380008F7380008F738000864
:1000C000F7380008F7380008F7380008F738000854
:1000D000F7380008F7380008F7380008F738000844
:1000E000F7380008F7380008F7380008F738000834
:1000F000F7380008F7380008F7380008F738000824
:10010000F7380008F7380008F7380008F738000813
:10011000F7380008F7380008F7380008F738000803
:10012000F7380008F7380008F7380008F7380008F3
:10013000F7380008F7380008F7380008F7380008E3
:10014000F7380008F7380008F7380008F7380008D3
:10015000F7380008F7380008F7380008F7380008C3
:10016000F7380008F7380008F7380008F7380008B3
:10017000F7380008F7380008F7380008F7380008A3
:10018000F7380008F738000800F002F800F046F8E9
:100190000AA090E8000C82448344AAF10107DA45E2
:1001A00001D100F03BF8AFF2090EBAE80F0013F0EE
:1001B000010F18BFFB1A43F0010318473870000005
:1001C00058700000103A24BF78C878C1FAD8520796
:1001D00024BF30C830C144BF04680C6070470000C1
:1001E0000023002400250026103A28BF78C1FBD840
:1001F000520728BF30C148BF0B607047782904F010
:100200001983732904F0F184002070471FB504F0AE
:1002100032FD04F0ECFB1FBD10B510BD04F0E9FC8D
:100220001146FFF7F3FF00F023F804F007FD03B4D5
:10023000FFF7F2FF03BC04F011FD00000B49D1F8F9
:1002400000C04A685CF8043B1068184442F8040B8C
:100250008C4528BFA1F1DC0C8A4228BFA1F1DC0249
:10026000C1F800C04A6020F0004070474C010020F7
:10027000A82003F0B1FA02F0CEFD17E001F03DF93D
:1002800002F067FA01F077F901F01AFA01F0DCFAEE
:1002900001F011FC01F0B8FB01F0FBFC01F036FDB0
:1002A00002F0E3FA01F052FE02F049FAE6E700003C
:1002B00070B505460E4614463146284602F0D9FC74
:1002C000204602F062FC70BD2DE9F05F04460D4649
:1002D00016461F46301B401C1FFA80FA781B401C34
:1002E0001FFA80FB3B4632462946204602F097FC27
:1002F0004FF000080FE04FF0000906E00A9802F006
:1003000044FC09F101001FFA80F9D145F6DB08F140
:1003100001001FFA80F8D845EDDBFD484088401EFB
:1003200083B2FB480088401E82B20021084602F0DA
:1003300076FCBDE8F09F2DE9FF4F85B081468A46E7
:100340000020049003900798A0EB09050898A0EB03
:100350000A06CDF80890CDF804A0002D01DD012794
:1003600005E00DB9002702E04FF0FF376D42002E87
:1003700002DD4FF0010806E016B94FF0000802E078
:100380004FF0FF387642B54201DD2C4600E034469E
:100390004FF0000B21E0019A91B2029A90B202F064
:1003A00072FC049828440490039830440390049805
:1003B000A04205DD0498001B049002983844029086
:1003C0000398A04205DD0398001B03900198404468
:1003D00001900BF101001FFA80FB601C8345DADD00
:1003E00009B0BDE8F08F2DE9F04104460D461646F0
:1003F0001F46DDF81880EA1991B2A21990B2424660
:10040000FFF756FFEA1991B2A21B90B24246FFF7DE
:100410004FFFEA1B91B2A21990B24246FFF748FF84
:10042000EA1B91B2A21B90B24246FFF741FFAA1904
:1004300091B2E21990B24246FFF73AFFAA1991B27F
:10044000E21B90B24246FFF733FFAA1B91B2E219BA
:1004500090B24246FFF72CFFAA1B91B2E21B90B26A
:100460004246FFF725FFBDE8F0812DE9FF4F81B03F
:10047000824617469846DDF838B0002445464FEAD4
:100480004800C0F10306BBF1000F1FD01BE0A146DE
:1004900008E04B462246009750460299FFF7A3FF1B
:1004A00009F10109A945F4DD002E04DA042000FB5E
:1004B0000460861D06E0601B042101FB006000F162
:1004C0000A066D1E641CAC42E1DD18E015E02B4607
:1004D0002246009750460299FFF785FF002E04DA66
:1004E000042000FB0460861D06E0601B042101FB64
:1004F000006000F10A066D1E641CAC42E7DD05B029
:10050000BDE8F08F2DE9FF4F85B0814600200490B3
:1005100083460798A0EB090506990898461ACDF876
:100520000C9006980290002D01DD012705E00DB921
:10053000002702E04FF0FF376D42002E02DD4FF042
:10054000010806E016B94FF0000802E04FF0FF384E
:100550007642B54201DD2C4600E034464FF0000AF9
:100560001FE001200090DDE91232DDE90210FFF703
:100570007CFF049828440490B3440498A04205DD0D
:100580000498001B0490039838440390A34504DDAD
:10059000ABEB040B0298404402900AF101001FFAF1
:1005A00080FA601C8245DCDD09B0BDE8F08F2DE9E2
:1005B000F04104460D4616461F462B463246294654
:1005C0002046FFF7B8FE3B46224629462046FFF765
:1005D000B2FE3B46324639462046FFF7ACFE3B466C
:1005E000324629463046FFF7A6FEBDE8F081F8B551
:1005F00004460D4616461F46464800883B4632468E
:10060000294600902046FFF75FFEF8BD2DE9F84F20
:1006100006460F4691469846C9F101000FFA80FA46
:100620004FF0010B4FEA4900404200B20090002415
:100630004D4652E0BAF1000F09DB681E85B2009802
:10064000801C00B20090009850440FFA80FA601CA1
:1006500084B20BF102000FFA80FB0AEB0B000FFAD9
:1006600080FA08F0040058B17A1991B2321990B2A8
:1006700002F009FB3A1991B2721990B202F003FB31
:1006800008F0020058B17A1B91B2321990B202F010
:10069000FAFA3A1B91B2721990B202F0F4FA08F029
:1006A000080058B13A1991B2721B90B202F0EBFAFD
:1006B0007A1991B2321B90B202F0E5FA08F001000B
:1006C00058B13A1B91B2721B90B202F0DCFA7A1B5D
:1006D00091B2321B90B202F0D6FAAC42AADBBDE86E
:1006E000F88F2DE9FC5F06460F4690469A46DDF8E6
:1006F0003090C8F101000FFA80FB012001904FEA11
:100700004800404200B200900024454675E00000D9
:10071000600000202E000020BBF1000F09DB681EE6
:1007200085B20098801C00B20090009858440FFADF
:1007300080FB601C84B20198801C00B2019001987B
:1007400058440FFA80FB0AF0010048B307EB050C90
:100750000CF1010CCC441FFA8CF306EB040C1FFACD
:100760008CF2A7EB050C1FFA8CF106EB040C1FFAB8
:100770008CF0FFF7E0FD07EB040C0CF1010CCC440E
:100780001FFA8CF306EB050C1FFA8CF2A7EB040C96
:100790001FFA8CF106EB050C1FFA8CF0FFF7CBFD6E
:1007A0000AF0020048B307EB050C0CF1010CCC4435
:1007B0001FFA8CF3A6EB040C1FFA8CF2A7EB050CC6
:1007C0001FFA8CF1A6EB040C1FFA8CF0FFF7B3FDB7
:1007D00007EB040C0CF1010CCC441FFA8CF3A6EBD4
:1007E000050C1FFA8CF2A7EB040C1FFA8CF1A6EB98
:1007F000050C1FFA8CF0FFF79EFDAC428CDBBDE8C8
:10080000FC9F2DE9F04105460E4617469846069C8A
:10081000391B8AB2291988B233463146FFF78BFD5E
:10082000A8EB040083B2301981B22A462846FFF7AC
:1008300082FD391B8AB2291988B243464146FFF727
:100840007AFDA8EB040083B2301981B23A463846EB
:10085000FFF771FD321991B22A1990B20123224695
:10086000FFF7D4FE321991B23A1B90B2022322460E
:10087000FFF7CCFEA8EB040291B23A1B90B204231E
:100880002246FFF7C3FEA8EB040291B22A1990B2E8
:1008900008232246FFF7BAFEBDE8F0812DE9F843B0
:1008A00007460D4690461E46089CFA480088711C73
:1008B0008BB2A8EB04018AB23919009088B229469C
:1008C000FFF702FD701B401C022101FB1400401EBB
:1008D00080B22A1991B2A8EB0402009090B20123D1
:1008E0002246FFF7FEFE701B401C022101FB140094
:1008F000401E80B22A1991B23A19009090B2022398
:100900002246FFF7EEFEBDE8F8832DE9F0470446E6
:100910000D4616461F46DDE908893B463246294604
:100920002046FFF708FD4B46424639463046FFF762
:1009300002FD2B46224649464046FFF7FCFCBDE837
:10094000F08702880B8803800A8070472DE9FF4FEB
:1009500085B000260027BDF81800BDF82010884299
:1009600007DD08A906A8FFF7ECFF07A905A8FFF710
:10097000E8FFBDF82000BDF84C10884207DD08A94B
:1009800013A8FFF7DEFF07A912A8FFF7DAFFBDF8EB
:100990001800BDF82010884207DD08A906A8FFF757
:1009A000D0FF07A905A8FFF7CCFFBDF81800BDF8D8
:1009B0004C10884238D1BDF8140003900490BDF863
:1009C0001C00BDF81010884203DABDF81C0004902A
:1009D00008E0BDF81C00BDF80C10884202DDBDF82F
:1009E0001C000390BDF84800BDF81010884203DADF
:1009F000BDF84800049008E0BDF84800BDF80C10B0
:100A0000884202DDBDF848000390A24800880090AB
:100A1000BDF81830BDF80C201946BDF81000FFF7DE
:100A200053FC09B0BDE8F08FBDF81C00BDF81410F0
:100A3000A0EB010BBDF82000BDF81810401A029081
:100A4000BDF84800BDF81410451ABDF84C00BDF8BB
:100A50001810A0EB0109BDF84800BDF81C10A0EB70
:100A6000010ABDF84C00BDF82010401A0190BDF8F5
:100A70002000BDF84C10884202D1BDF8208004E06F
:100A8000BDF82000401E1FFA80F8BDF8184027E08E
:100A9000029896FBF0F0BDF81410084480B2049060
:100AA00097FBF9F0BDF81410084480B203905E443F
:100AB0002F44BDF81000BDF80C10884203DD03A9D7
:100AC00004A8FFF73EFF7348008823460090BDF856
:100AD0000C202146BDF81000FFF7F6FB601C84B225
:100AE0004445D5DDBDF82000201A00FB0AF6BDF80C
:100AF0001800201A00FB05F727E0019896FBF0F09C
:100B0000BDF81C10084480B2049097FBF9F0BDF8C2
:100B10001410084480B2039056442F44BDF81000CE
:100B2000BDF80C10884203DD03A904A8FFF709FFF4
:100B30005848008823460090BDF80C202146BDF897
:100B40001000FFF7C1FB601C84B2BDF84C0084426A
:100B5000D3DD00BF65E72DE9FF4F83B081468A46AC
:100B60009346DDE910644B4800880290A6F120000E
:100B7000C6B204EBD47009EB6000401E82B20AEBEF
:100B80000400401E83B251464846019402F047F8E3
:100B9000129850BB002525E00C2C07D106EB46002F
:100BA0003D4901EB800010F8058004E03B4800EB74
:100BB000061010F8058000270DE008F0010018B1BC
:100BC000584601F0E2FF02E0069801F0DEFF4FEA2E
:100BD0006808781CC7B204EBD471B7EB610FECDB8B
:100BE000681CC5B2A542D7DB2DE0002529E00C2CFE
:100BF00007D106EB4600284901EB800010F805807C
:100C000004E0264800EB061010F80580002711E0EC
:100C10002048A0F800B008F0010038B10AEB050246
:100C200091B209EB070290B202F02DF84FEA680882
:100C3000781CC7B204EBD471B7EB610FE8DB681C1A
:100C4000C5B2A542D3DB13490298088014484088F6
:100C5000401E83B212480088401E82B2002108461E
:100C600001F0DDFF07B0BDE8F08F2DE9FE43064639
:100C70000F4615461C46DDF8288025E00848008808
:100C8000401EB04204DB06484088401EB84209DAE4
:100C9000BDE8FE832E000020804C0008F4500008C0
:100CA0006000002020788DE82101FC480388FC4882
:100CB000028839463046FFF74EFF284605EBD071D3
:100CC00006EB61018EB2641C20787E2802DC20785D
:100CD0002028D3DA00BFDBE710B50246012000E090
:100CE00050430B1EA1F10104E1B2F9D110BD2DE971
:100CF000FF4F83B0074691461E46109C4FF0000AF6
:100D0000002543E0701B401EC1B20A20FFF7E4FF3C
:100D1000B9FBF0F00A21B0FBF1F201FB1208BAF1C5
:100D2000000F1BD1701EA84218DDB8F1000F13D1BF
:100D300000202021A346CDE90014029004EBDB71D2
:100D4000491001FB057188B2D4490B88D4490A883F
:100D50000499FFF700FF17E04FF0010A002108F1A6
:100D60003000C0B2A346CDE90141009004EBDB7135
:100D7000491001FB057188B2C8490B88C8490A8827
:100D80000499FFF7E8FE00BF681CC5B2B542B9DBA5
:100D900007B0BDE8F08F2DE9FC5F05468846914617
:100DA0009A46DDF830B000954B20019000245FE0BA
:100DB00004EB0410BB4911F810009BF800108842A6
:100DC00053D104EB0410B74901EB400040789BF885
:100DD0000110884249D108F10F0083B205F10F00DC
:100DE00082B24146284601F01AFF00263BE0002768
:100DF00034E00D9890B904EB0410AA4901EB4000CF
:100E0000801C805D80213941084018B1484601F0BE
:100E1000BCFE21E0504601F0B8FE1DE0A048A0F85D
:100E2000009004EB04109F4901EB4000801C805DA2
:100E300080213941084018B14146284601F023FF7E
:100E4000681C85B20098281A102805D1009D08F169
:100E500001001FFA80F803E0781CC7B2082FC8DB36
:100E600000BF701CC6B2202EC1DB00BF601C84B264
:100E7000019884429CDB8C484088401E83B28A489B
:100E80000088401E82B20021084601F0C8FEBDE87D
:100E9000FC9F2DE9FC5F0546884691469A46DDF8A1
:100EA00030B0009507200190002467E004EB840037
:100EB00000EB44107D4911F810009BF800108842A7
:100EC00059D104EB840000EB4410784901EB400059
:100ED00040789BF8011088424DD108F1170083B289
:100EE00005F1170082B24146284601F098FE00261F
:100EF0003FE0002738E00D98A0B904EB840000EB38
:100F000044106A4901EB4000801C805D802139411A
:100F1000084018B1484601F038FE23E0504601F081
:100F200034FE1FE05E48A0F8009004EB840000EB64
:100F300044105E4901EB4000801C805D80213941F6
:100F4000084018B14146284601F09DFE681C85B254
:100F50000098281A182805D1009D08F101001FFAF1
:100F600080F803E0781CC7B2082FC4DB00BF701CF8
:100F7000C6B2482EBDDB00BF601C84B2019884421B
:100F800094DB49484088401E83B247480088401E91
:100F900082B20021084601F042FEBDE8FC9F2DE927
:100FA000FC5F0546884691469A46DDF830B00095CC
:100FB0000420019000245FE004EB84103C4911F808
:100FC00010009BF80010884253D104EB841038497C
:100FD00001EB400040789BF80110884249D108F1AC
:100FE0001F0083B205F11F0082B24146284601F07E
:100FF00016FE00263BE0002734E00D9890B904EB84
:1010000084102B4901EB4000801C805D8021394118
:10101000084018B1484601F0B8FD21E0504601F003
:10102000B4FD1DE01E48A0F8009004EB8410204998
:1010300001EB4000801C805D80213941084018B1DF
:101040004146284601F01FFE681C85B20098281A08
:10105000202805D1009D08F101001FFA80F803E067
:10106000781CC7B2082FC8DB00BF701CC6B2802E28
:10107000C1DB00BF601C84B2019884429CDB0A483B
:101080004088401E83B208480088401E82B200217A
:10109000084601F0C4FDBDE8FC9F000030000020C0
:1010A0002E000020E456000860000020DA600008EE
:1010B000E06200082DE9FF4F83B00646884691465E
:1010C000DDE91147109DB2464FF0000B71E0BBF116
:1010D000000F40D104EBD4715E4A1288A2EB61018B
:1010E000B14204DB5B494988091B414502DA07B07C
:1010F000BDE8F08F2878802802DD4FF0010B58E022
:1011000028780D2806D108EB04001FFA80F856460F
:101110006D1C1EE0102C0DDD102128788DE8830059
:101120004A4641463046069BFFF715FD06F108008A
:1011300086B20EE028788DE891004A464146304656
:10114000069BFFF708FD204604EBD07106EB61011A
:101150008EB26D1C2DE03F480088001BB04204DBBE
:101160003C484088001B404500DAC0E74FF0000BC8
:10117000202C08D1CDE900574A4641463046069B0F
:10118000FFF70DFF12E0182C08D1CDE900574A46B1
:1011900041463046069BFFF77CFE07E0CDE900574D
:1011A0004A4641463046069BFFF7F5FDAD1C301917
:1011B00086B2287800288AD100BF98E72DE9FE4F33
:1011C0000E4617469846DDE90D9A0C9C204603F022
:1011D0003BFC85B21F490988A1EBC50000EBD0712B
:1011E000C1F34F0B43463A46314658468DE8100648
:1011F000FFF760FFBDE8FE8F2DE9F04706460F467A
:10120000154607F1270083B206F1270082B239465E
:10121000304601F004FD00240AE015F8149005EBB7
:10122000440090F8018049EA082001F0AEFC641CFB
:10123000B4F5C86FF1DB07484088401E83B205480B
:101240000088401E82B20021084601F0E8FCBDE89B
:10125000F087000060000020704700BFFEE700BF7D
:10126000FEE700BFFEE700BFFEE77047704770472C
:10127000704700000CB5002001900090764800688F
:1012800040F480307449086000BF7348006800F47F
:10129000003000900198401C0190009818B9019806
:1012A000B0F5A04FF1D16C48006800F4003010B1E7
:1012B0000120009001E0002000900098012846D114
:1012C00065484030006840F0805063494031086014
:1012D0006248006840F44040604908605E48083059
:1012E00000685D49083108600846006840F4004025
:1012F00008600846006840F4A05008605848091F7C
:101300000860081F006840F08070091F086000BF77
:101310005148006800F000700028F9D040F20570D4
:10132000504908604C480830006820F003004A49E2
:10133000083108600846006840F00200086000BFFD
:1013400045480830006800F00C000828F8D10CBDB2
:1013500010B54548006840F47000434908603E48B5
:10136000006840F001003C49086000203A4908311B
:101370000860394800683D490840374908603C48E2
:10138000091D0860081F006820F48020091F0860FC
:10139000002031490C310860FFF76CFF4FF000600E
:1013A00031498039086010BD70B500200022022349
:1013B00000240221284D08352D6805F00C0020B1CD
:1013C000042806D0082834D107E02A4D2A4E35607B
:1013D00033E02A4D284E35602FE01F4D2D1D2D681E
:1013E000C5F380541C4D2D1D2D6805F03F0154B1EF
:1013F000224DB5FBF1F5184E361D3668C6F388163A
:1014000005FB06F209E01B4DB5FBF1F5124E361D4A
:101410003668C6F3881605FB06F20F4D2D1D2D68A4
:10142000C5F301456D1C6B00B2FBF3F5124E356040
:1014300003E0104D104E356000BF00BF064D08356B
:101440002D68C5F303150E4E705D0B4D2D68C5401C
:10145000094E356070BD0000003802400070004049
:1014600008544007003C024088ED00E0FFFFF6FE14
:10147000103000240024F4000000002000127A0044
:10148000040000203EB504464FF6FF7001F013FC47
:101490001F200090FE480288142300210846FEF712
:1014A00013FF1F200090FA484388028840881438B0
:1014B00081B20020FEF708FF4FF6FF70F549088063
:1014C000012010211F234FF6FF72CDE90041029049
:1014D00002210020FFF772FE01201021EEA2CDE9CB
:1014E00000210290EA484088123881B21F234FF64B
:1014F000FF720020FFF762FE3EBD0EB5ECA0FFF7C5
:10150000C1FF01201021F0A21F23CDE9002102908C
:10151000DA021E210020FFF751FE01201021E6A271
:101520001F23CDE900210290DA023C210020FFF7C1
:1015300045FE01201021E7A21F23CDE900210290E2
:101540004FF61F025A210020FFF738FE012010211C
:10155000E6A21F23CDE9002102901A46782100203F
:10156000FFF72CFE40F2DC5002F098F940F2DC501C
:1015700002F094F90EBD0EB54FF6FF700090C4480E
:101580004388028800210846FEF79EFE01201021B4
:10159000DDA24FF6E073CDE90021029000221E216A
:1015A0001420FFF787FD4FF4487002F077F9002010
:1015B0000090B7484388028800210846FEF784FE61
:1015C00001201021D2A24FF6E073CDE90021029054
:1015D0004FF6FF721E211420FFF76CFD4FF4487088
:1015E00002F05CF94FF478400090A94843880288E3
:1015F00000210846FEF768FE01201021C6A24FF622
:10160000E073CDE9002102901F221E211420FFF774
:1016100051FD4FF4487002F041F94FF4FC60009026
:101620009B484388028800210846FEF74DFE0120B2
:101630001021BBA24FF6E073CDE9002102901F22DA
:101640001E211420FFF736FD4FF4487002F026F9F2
:101650001F2000908E484388028800210846FEF72C
:1016600033FE01201021B0A24FF6E073CDE9002136
:1016700002904FF478421E211420FFF71BFD4FF417
:10168000487002F00BF948F23040009080484388DF
:10169000028800210846FEF717FE01201021A4A2AF
:1016A0004FF6E073CDE9002102904FF61F021E2194
:1016B0001420FFF7FFFC4FF4487002F0EFF80EBD66
:1016C0002DE9F84300249CA0FFF7DCFE4FF6FF70E5
:1016D00000906F484088143883B26D480288142106
:1016E0000020FEF7F1FD00BF48E0994830F81400F3
:1016F00068490880DFF898C1BCF8025005EBD57C3A
:101700004FEA6C0CACF1500CC4EB0419CC440CF156
:101710003C0C1FFA8CF3DFF878C1BCF8006006EBD4
:10172000D67C4FEA6C0CACF1500CC4EB0419CC44E1
:101730000CF13C0C1FFA8CF2DFF854C1BCF80270BB
:1017400007EBD77C4FEA6C0CACF1500CC4EB0419DE
:10175000CC441FFA8CF1DFF838C1BCF8008008EBEC
:10176000D87C4FEA6C0CACF1500CC4EB0419CC449F
:101770001FFA8CF0FEF71BFF601CC4B2052CB4DB13
:1017800040F2DC5002F08AF84FF6FF7000904048BB
:101790004088143883B23E48028814210020FEF7A6
:1017A00093FD002448E06A4830F814003949088065
:1017B000DFF8DCC0BCF8026006EBD67C4FEA6C0CAC
:1017C000ACF1500CC4EB0419CC440CF13C0C1FFAE6
:1017D0008CF3DFF8BCC0BCF8007007EBD77C4FEA95
:1017E0006C0CACF1500CC4EB0419CC440CF13C0C67
:1017F0001FFA8CF2DFF898C0BCF8028008EBD87CA6
:101800004FEA6C0CACF1500CC4EB0419CC441FFA39
:101810008CF1DFF87CC0BCF8005005EBD57C4FEABA
:101820006C0CACF1500CC4EB0419CC441FFA8CF0D6
:10183000FEF7DDFE601CC4B2052CB4DB40F2DC50C8
:1018400002F02CF8BDE8F883F8B5002441A0FFF7BA
:1018500019FE4FF6FF7000900D484088143883B28F
:101860000B48028814210020FEF72EFD00BF8EE0F9
:101870000020074B00905D8805EBD5735B10323B71
:1018800004EBC40707EB0417D919014B1E886DE060
:10189000600000202E000020687474703A2F2F77AB
:1018A00077772E6C636477696B692E636F6D0000C8
:1018B000C8ABB6AFB5E7D7D3D7DBBACFB2E2CAD49D
:1018C000B3CCD0F200000000C8ABB6AFB5E7D7D3B9
:1018D00000000000332E3522204950532053543746
:1018E0003739362033323058343830007869616FF8
:1018F00046656E6740514474656368203230323209
:101900002D31322D32300000574849544500000037
:10191000424C41434B00000052454420000000006F
:10192000475245454E200000424C554520000000DE
:101930004752415900000000B2E2CAD4333A475539
:1019400049BED8D0CECCEEB3E4B2E2CAD400000097
:1019500014000020B2E2CAD4343A475549BBADD492
:10196000B2CCEEB3E4B2E2CAD400000006EBD67308
:101970005B10503B04EBC40707EB0417D819FE4B70
:1019800033F814201E23FEF770FD601CC4B2052C32
:10199000FFF66EAF40F2DC5001F080FF4FF6FF70B3
:1019A0000090F6484088143883B2F4480288142125
:1019B0000020FEF789FC00241FE00120EF4B00907F
:1019C0005D8805EBD5735B10323B04EBC40707EB76
:1019D0000417D919E94B1E8806EBD6735B10503BF0
:1019E00004EBC40707EB0417D819E34B33F81420B2
:1019F0001E23FEF73AFD601CC4B2052CDDDB40F26D
:101A0000DC5001F04BFFF8BD0EB5DDA0FFF73AFD4D
:101A100000200C21DFA24FF6E073CDE900210290F7
:101A20001F221E210A20FFF745FB01200C21E4A202
:101A30004FF6E073CDE9002102901F222D210A20EC
:101A4000FFF738FB00200C21E8A24FF6E073CDE948
:101A5000002102901F223C210A20FFF72BFB0020CF
:101A60001021EAA24FF6E073CDE9002102901F2277
:101A700050210A20FFF71EFB01201021EEA24FF695
:101A8000E073CDE9002102901F2264210A20FFF7B4
:101A900011FB00201021F3A24FF6E073CDE90021E5
:101AA00002901F2278210A20FFF704FB4FF4966072
:101AB00001F0F4FE0EBD2DE9FC5F0024F1A0FFF75C
:101AC000E1FC4FF6FF700090AC484088143883B2B8
:101AD000AA48028814210020FEF7F6FB00BF5DE053
:101AE000A54830F81400EE490880A448458805EB65
:101AF000D57040101438C4EB0411084481B29F48DB
:101B0000068806EBD6704010153804EB840200EB13
:101B1000820080B2DFF864C2CDE90001BCF8027037
:101B200007EBD77C4FEA6C0CACF1490CC4EB041BFF
:101B3000DC441FFA8CF3DFF844C2BCF8008008EBE9
:101B4000D87C4FEA6C0CACF1330C04EB840B0CEB3F
:101B50008B0C1FFA8CF2DFF824C2BCF8029009EB60
:101B6000D97C4FEA6C0CACF1140CC4EB041BDC44C4
:101B70001FFA8CF1DFF804C2BCF800A00AEBDA7C93
:101B80004FEA6C0CACF1500C04EB840B0CEB8B0C9F
:101B90001FFA8CF0FEF7B9FE601CC4B2052C9FDB67
:101BA00040F2DC5001F07AFE4FF6FF70009073486F
:101BB0004088143883B27148028814210020FEF74F
:101BC00083FB00245DE06C4830F81400B4490880C1
:101BD0006A48458805EBD57040101438C4EB0411F1
:101BE000084481B26548068806EBD6704010153867
:101BF00004EB840200EB820080B2DFF880C1CDE903
:101C00000001BCF8027007EBD77C4FEA6C0CACF11A
:101C1000490CC4EB041BDC441FFA8CF3DFF85CC1F5
:101C2000BCF8008008EBD87C4FEA6C0CACF1330CAC
:101C300004EB840B0CEB8B0C1FFA8CF2DFF83CC12D
:101C4000BCF8029009EBD97C4FEA6C0CACF1140C97
:101C5000C4EB041BDC441FFA8CF1DFF820C1BCF894
:101C600000A00AEBDA7C4FEA6C0CACF1500C04EBF0
:101C7000840B0CEB8B0C1FFA8CF0FEF767FE601CDC
:101C8000C4B2052C9FDB40F2DC5001F007FEBDE83A
:101C9000FC9F0EB583A0FFF7F5FB0020102186A264
:101CA0004FF6E073CDE9002102901F221E210A2089
:101CB000FFF700FA0020102188A24FF6E073CDE96B
:101CC000002102901F2232210A20FFF7F3F90120A0
:101CD000182188A24FF6E073CDE9002102901F225F
:101CE00046210A20FFF7E6F90120202187A24FF6BE
:101CF000E073CDE9002102901F2264210A20FFF742
:101D0000D9F94FF4966001F0C9FD0EBD0EB583A060
:101D1000FFF7B8FB864A1E210846FFF76DFA01203F
:101D2000102184A24FF6E073CDE9002102901F221A
:101D30004B212A20FFF7BEF97D4A1E215A20FFF7CA
:101D40005BFA012010217BA24FF6E073CDE9002160
:101D500002901F224B216620FFF7ACF9744A1E2126
:101D60009620FFF749FA0120102172A24FF6E07386
:101D7000CDE900210290DFE0140000206000002087
:101D8000B2E2CAD4363AD3A2CEC4CFD4CABEB2E2EB
:101D9000CAD40000365831323A61626364656667BE
:101DA00068696A6B6C6D6E6F70717273747576773B
:101DB00078797A30313233343536373839000000AB
:101DC000365831323A4142434445464748494A4BE6
:101DD0004C4D4E4F505152535455565758595A30F6
:101DE0003132333435363738390000003658313225
:101DF0003A7E21402324255E262A28295F2B7B7DDD
:101E00003A3C3E3F2F7C2D2B2E00000038583136B7
:101E10003A6162636465666768696A6B6C6D6E6F70
:101E2000707172737475767778797A3031323334B1
:101E30003536373839000000385831363A41424398
:101E40004445464748494A4B4C4D4E4F50515253DA
:101E50005455565758595A3031323334353637384D
:101E600039000000385831363A7E21402324255E5F
:101E7000262A28295F2B7B7D3A3C3E3F2F7C2D2B49
:101E80002E000000B2E2CAD4353A475549205472B8
:101E900069616E676C65CCEEB3E4B2E2CAD400004F
:101EA0002E000020B2E2CAD4373AD6D0CEC4CFD466
:101EB000CABEB2E2CAD4000031365831363AC8AB95
:101EC000B6AFB5E7D7D3BCBCCAF5D3D0CFDEB9AB7C
:101ED000CBBEBBB6D3ADC4FA0000000031365831DA
:101EE000363A57656C636F6D65C8ABB6AFB5E7D76B
:101EF000D300000032345832343AC9EEDBDACAD0AB
:101F0000D6D0CEC4B2E2CAD4000000003332583377
:101F1000323AD7D6CCE5B2E2CAD40000B2E2CAD493
:101F2000383ACDBCC6ACCFD4CABEB2E2CAD40000E7
:101F3000E8640008515100001F224B21A220FFF746
:101F4000B9F84FF4966001F0A9FC0EBD10B588B049
:101F50000024FA4B0FCBCDE90623CDE9040100BFE5
:101F600023E0204600F006FFF5A0FFF78BFA0121E1
:101F7000102204A850F824004FF6E073CDE90121A7
:101F800000901F221E211420FFF794F8F14A3221FD
:101F90001E20FFF731F94FF47A7001F07FFC4FF407
:101FA0007A7001F07BFC601CC4B2042CD9DB0020E9
:101FB00000F0E0FE08B010BD0EB5E7A0FFF762FA32
:101FC0000120EA4900900988203988B2E8A310224C
:101FD0000221FEF74AFE4FF47840E649088060E0AF
:101FE000E54948688047E448007C00F0010000288B
:101FF00053D0E1480089DD490988884251DADE483A
:102000008089DA49498888424BDABDF808004FF6E2
:10201000FF71884207D1D8480089ADF80800D6483A
:102020008089ADF80A00D4480189D048008820385A
:1020300081421BDDD0488089122817DA4FF6FF70E5
:10204000CD4908810881C4A0FFF71CFA0120C749C7
:1020500000900988203988B2C5A310220221FEF71A
:1020600004FE4FF47840C34908800DE04FF47840F7
:102070000221C14CCDE90010A3892289BDF80A10C4
:10208000BDF80800FEF73EFABB480089ADF808002D
:10209000B9488089ADF80A0003E04FF6FF70ADF84B
:1020A00008009DE700B587B0B4A0FFF7EBF900206A
:1020B000B0490880AD480088069000EBD070401011
:1020C000323080B20490A9480088059000EBD070AF
:1020D0004010323880B25A2303902821049AFEF728
:1020E00066FA4FF47840A3490880A048008806901B
:1020F00000EBD0704010401E80B204909B480088D6
:10210000059000EBD0704010313880B25923039015
:102110002921049AFEF76BFA1F20964908809348FC
:102120000088069000EBD0704010313080B20490EF
:102130008E480088059000EBD07040105923039022
:102140002921049AFEF753FA4FF6FF708949088057
:102150000120009085480088069000EBD070401068
:10216000203880B28AA3102239210590FEF77DFD28
:1021700048F230407F4908800A2000907B48008860
:10218000069000EBD07040106E3080B2049077481B
:102190000088059000EBD07040106E3880B2A92303
:1021A00003909621049AFEF779FB4FF61F007149C0
:1021B00008800A2000906D480088069000EBD070DF
:1021C00040100A3080B2049068480088059000EB07
:1021D000D07040106E3880B2A92303909621049AE3
:1021E000FEF75CFB6148008806900120009006988D
:1021F00000EBD07040100A2340F2CF12A0210590CE
:10220000FEF733F900205B49088001200090574811
:102210000088069000EBD07040107D3880B25DA33E
:10222000102298210590FEF720FD012000904F48D4
:102230000088069000EBD0704010733080B256A337
:10224000102298210590FEF710FD4FF4784049497F
:1022500008801020009045480088069000EBD07060
:1022600040100C3880B2032332227D210590FEF706
:102270003EFD00203F490880082000903B48008830
:10228000069000EBD07040101E3080B204903748AA
:102290000088059000EBD07040101E3880B2FA2301
:1022A0000390DC21049AFEF7ACFA4AF251603149FE
:1022B0000880072000902D480088069000EBD07021
:1022C00040101D3080B2049028480088059000EB33
:1022D000D07040101D3880B2F8230390DD21049A9D
:1022E000FEF7DCFA4FF61F0022490880012000901B
:1022F0001E480088069000EBD07040100F3880B266
:1023000026A31022E3210590FEF7AFFC0120102147
:1023100024A2CDE90021029014480088069000EB29
:10232000D07040102F3880B24FF6FF734FF47842D0
:10233000C3210590FEF7BEFEFDE100006C710008B0
:10234000B2E2CAD431303AC6C1C4BBD0FDD7AAB2BA
:10235000E2CAD400E8640008B2E2CAD431323AB426
:10236000A5C3FE50454EB2E2CAD400006000002072
:10237000525354002E00002034000020B2E2CAD490
:1023800031313AB4A5C3FEB0B4BCFCB2E2CAD40049
:102390004F4E0000300000003130300045584954A5
:1023A00000000000B0B445584954BCFCCDCBB3F696
:1023B00000000000F948406806908047F748007C1C
:1023C00000F001000028B7D0F448808928287DDD7E
:1023D000F24880895A2879DAF1480088059000EBA4
:1023E000D07040103238ED490989884252DAEC4801
:1023F0000088069000EBD0704010401EE749098924
:10240000884247DD4FF47840E6490880E448008878
:10241000069000EBD0704010401E80B20490E0485F
:102420000088059000EBD0704010313880B25923FD
:1024300003902921049AFEF7DAF81F20D949088071
:10244000D7480088069000EBD0704010313080B241
:102450000490D3480088059000EBD07040105923B9
:1024600003902921049AFEF7C2F84FF6FF70CD4978
:10247000088001200090CA480088069000EBD070C8
:102480004010203880B2AFF2F803102239210590B5
:10249000FEF7EBFBC2480088059000EBD0704010BF
:1024A000BE490989884253DABD480088069000EB8E
:1024B000D07040103230B9490989884248DD1F2068
:1024C000B8490880B6480088069000E040E000EB7C
:1024D000D0704010401E80B20490B1480088059032
:1024E00000EBD0704010313880B25923039029217D
:1024F000049AFEF77CF84FF47840AA490880A8486F
:102500000088069000EBD0704010313080B204900B
:10251000A3480088059000EBD07040105923039029
:102520002921049AFEF763F84FF6FF709D49088051
:10253000012000909A480088069000EBD07040106F
:102540000D3080B298A3102239210590FEF78DFB43
:1025500093480088059000EBD070401064388F4994
:102560000989884275DC8E480088069000EBD0709F
:10257000401064308949098988426ADB874880892C
:10258000962866DD85488089A92862DA48F23040BD
:10259000844908800A20009081480088069000EB5A
:1025A000D07040106E3080B205907C4800890A38A7
:1025B00080B2A92304909621059AFEF76FF94FF691
:1025C0001F00784908800A2000907548008806900E
:1025D00000EBD07040106E3880B204906F480089D4
:1025E0000A3080B2A9230246962105900498FEF78E
:1025F00055F901200090694800890A2340F2CF1262
:10260000A0210690FDF731FF4FF47840654908801E
:1026100063480088059000EBD070401064385F4933
:102620000989081A0690102000905D4800880490DF
:1026300000EBD07040100C3880B20290069800EB8E
:10264000D0704010032302467D2103900298FEF7CC
:102650004EFB53480088059000EBD07040101E38A8
:102660004E490989884266DC4D480088069000EB97
:10267000D07040101E304949098988425BDB4748C9
:102680008089DC2857DD45488089FA2853DA4FF6DF
:10269000FF70444908800820009041480088069057
:1026A00000EBD07040101E3080B204903C4800888F
:1026B000059000EBD07040101E3880B2FA230390D2
:1026C000DC21049AFEF79DF842F612303549088065
:1026D0000720009032480088069000EBD070401030
:1026E0001D3080B204902E480088059000EBD07019
:1026F00040101D3880B2F8230390DD21049AFEF7C4
:10270000CDF848F21F402749088001200090244856
:102710000088069000EBD07040100F3880B2AFF206
:1027200084331022E3210590FEF79FFA4FF6FF70E5
:102730001A49088100E03DE600BF07B000BD10B5B2
:1027400016490868804700B110BDFFF7ABFCFFF7E2
:1027500033FC70B590B000200D900E900F902421A6
:1027600004A802F090F911A0FEF78CFE00F03CFCEA
:102770000646324613A10DA801F0F8FF01201021F2
:102780000DAA4FF6E073CDE9002102901F22192116
:102790003220FEF78FFC00245FE0000034000020B0
:1027A000600000202E0000204F464600B2E2CAD44E
:1027B000323AB6C14944BACDD1D5C9ABD6B5B2E2E9
:1027C000CAD4000049443A3078257800864830F869
:1027D00014008649088004EBC40000EB041000F1EB
:1027E000410304EBC40000EB04102D3081B21E2223
:1027F0000A20FDF7FCFE04EBC40000EB041000F11E
:102800003701142000F04BFA054678480088A842AA
:1028100004D177A10DA802F0F3F803E075A10DA88B
:1028200002F0EEF80DAB2A4674A104A801F09EFF59
:102830000120102104AACDE90021029004EBC4007C
:1028400000EB04102F3081B24FF6E0736748028826
:102850002820FEF72FFC601CC4B2072CB6DB40F228
:10286000DC5001F01BF810B070BD38B569A0FEF760
:1028700009FE1F205D4908806B4802F0A3F8012083
:102880006AA31022322100900F20FEF7EEF90120FA
:102890006CA31022462100900F20FEF7E6F90120DC
:1028A0006EA310225A2100900F20FEF7DEF90120BE
:1028B00070A310226E2100900F20FEF7D6F90120A0
:1028C00072A31022822100900F20FEF7CEF9012082
:1028D00074A31022962100900F20FEF7C6F9012064
:1028E00075A31022AA2100900F20FEF7BEF94FF425
:1028F00078403E490880002473E0FDF79FFC42F2D7
:10290000107190FBF1F201FB1205102005232A46FD
:10291000322100906420FEF7EAF9FDF78FFC42F2C5
:10292000107190FBF1F201FB1205102005232A46DD
:10293000462100906420FEF7DAF9FDF77FFC42F2B1
:10294000107190FBF1F201FB1205102005232A46BD
:102950005A2100906420FEF7CAF9FDF76FFC42F29D
:10296000107190FBF1F201FB1205102005232A469D
:102970006E2100906420FEF7BAF9FDF75FFC42F289
:10298000107190FBF1F201FB1205102005232A467D
:10299000822100906420FEF7AAF9FDF74FFC322156
:1029A00090FBF1F201FB1205102005232A46962127
:1029B00000906420FEF79BF9FDF740FC642190FB3A
:1029C000F1F201FB1205102005232A46AA210090EE
:1029D0006420FEF78CF94FF4FA7000F05FFF601C82
:1029E000C4B20F2C89DB38BD1E0000202E00002051
:1029F0004F4B00004552524F520000007265616417
:102A000020636F6C6F723A3078253034582020255F
:102A100073000000B2E2CAD4393AB6AFCCACCAFDFA
:102A2000D7D6CFD4CABE000040E2010020484348B8
:102A30004F3A202020202020202020202075672FA2
:102A40006D3300002020434F323A202020202020E8
:102A5000202020202070706D000000002054564F70
:102A6000433A202020202020202020202075672F7E
:102A70006D330000504D322E353A2020202020208A
:102A8000202020202075672F6D33000020504D310D
:102A9000303A202020202020202020202075672F61
:102AA0006D33000020205445503A20202020202063
:102AB0002020202020430000202048554D3A20208F
:102AC00020202020202020202025000010B50446B2
:102AD0004FF40040FE490880401008802146FD4820
:102AE00000F008FB4FF40040F949891E088010BD32
:102AF00010B504464FF40040F54908804010891E87
:102B000008802146F34800F0F5FA4FF40040F04900
:102B1000891E088010BD10B54FF40040EC490880B4
:102B20004010891E08800021EA4800F0F4FAFF21D5
:102B3000E84800F0DFFA04460121E64800F0EBFA2D
:102B40004FF40040E249891E0880204610BD70B550
:102B500005460C462846FFF7B9FFE0B2FFF7C8FF6D
:102B600070BD10B504462046FFF7B0FFFFF7D3FF56
:102B700010BD10B5D849087AFFF7A8FF10BD10B5F1
:102B8000D549887AFFF7A2FF10BD10B504464FF46F
:102B90000040CF4908804010891E08802112CD488E
:102BA00000F0A8FAE1B2CB4800F0A4FA4FF40040DC
:102BB000C749891E088010BD70B54FF40040C44954
:102BC000088040100880C448817AC24800F092FA18
:102BD0000021C04800F09FFA4FF48040BC49891E94
:102BE0000880FF21BB4800F085FAFF21B94800F0BA
:102BF00081FA0446FF21B74800F07CFA054601211E
:102C0000B44800F088FA4FF40040B149891E0880AA
:102C10004FF6FF7000EA04242C43204670BD2DE9D6
:102C2000F04104460D4616461F46AB49087BFFF7A8
:102C30004DFF2012FFF75CFFE0B2FFF759FF3012A3
:102C4000FFF756FFF0B2FFF753FFA349887BFFF76A
:102C50003DFF2812FFF74CFFE8B2FFF749FF38129B
:102C6000FFF746FFF8B2FFF743FFFFF782FFBDE82B
:102C7000F08170B504460D462B4622462946204673
:102C8000FFF7CDFF70BD70B504460D4629462046BE
:102C9000FFF7EFFF91480088FFF777FF70BD70B531
:102CA00004460D4629462046FFF7E3FFFFF784FF61
:102CB0000646304670BD70B5044687484088401EC1
:102CC00083B285480088401E82B200210846FFF783
:102CD000A6FF4FF400407E4908804010891E0880FE
:102CE00000250FE0002608E021127A4800F002FAE1
:102CF000E1B2784800F0FEF9761C77480088B042CF
:102D0000F2D86D1C74484088A842EBD84FF40040BC
:102D10006F49891E088070BD1CB50121022001F099
:102D200091F94FF47040009001208DF804000320C9
:102D30008DF8050000208DF8060001208DF80700B1
:102D4000694663481A3800F0DFFE012064490860D4
:102D50001CBD10B54FF480505D490880642000F020
:102D60009DFD4FF480505A49891E0880322000F0A2
:102D700095FD10BD10B504462A20574988812B20A7
:102D8000C8812C2008812E2048812046E11704EBC1
:102D900091718910A4EB81014F4A9171104680799D
:102DA00030B1012810D002281AD0032830D123E0F6
:102DB0004FF4A070484908804FF4F07048804821D3
:102DC0003620FFF7C4FE24E04FF4F070424908803B
:102DD0004FF4A070488028213620FFF7B8FE18E095
:102DE0004FF4A0703C4908804FF4F070488088216F
:102DF0003620FFF7ACFE0CE04FF4F0703649088047
:102E00004FF4A0704880E8213620FFF7A0FE00E0D4
:102E100000BF00BF10BD10B500F090F9FFF77CFFB8
:102E2000FFF797FF1120FFF751FE782000F036FDE5
:102E30003620FFF74BFE4820FFF75AFE3A20FFF7F7
:102E400045FE5520FFF754FEF020FFF73FFEC3205C
:102E5000FFF74EFEF020FFF739FE9620FFF748FE01
:102E6000B420FFF733FE0120FFF742FEB720FFF743
:102E70002DFEC620FFF73CFEC020FFF727FE802076
:102E8000FFF736FE4520FFF733FEC120FFF71EFE99
:102E90001320FFF72DFEC220FFF718FEA720FFF733
:102EA00027FEC520FFF712FE0A20FFF721FEE820CB
:102EB000FFF70CFE4020FFF71BFE8A20FFF718FEED
:102EC0000020FFF715FE0020FFF712FE292009E081
:102ED0001A04024000300140600000202E00002053
:102EE000B4824042FFF704FE1920FFF701FEA5203F
:102EF000FFF7FEFD3320FFF7FBFDE020FFF7E6FDC7
:102F0000D020FFF7F5FD0820FFF7F2FD0F20FFF7B7
:102F1000EFFD0620FFF7ECFD0620FFF7E9FD33206B
:102F2000FFF7E6FD3020FFF7E3FD3320FFF7E0FD7C
:102F30004720FFF7DDFD1720FFF7DAFD1320FFF72D
:102F4000D7FD1320FFF7D4FD2B20FFF7D1FD312053
:102F5000FFF7CEFDE120FFF7B9FDD020FFF7C8FD58
:102F60000A20FFF7C5FD1120FFF7C2FD0B20FFF778
:102F7000BFFD0920FFF7BCFD0720FFF7B9FD2F209B
:102F8000FFF7B6FD3320FFF7B3FD4720FFF7B0FD95
:102F90003820FFF7ADFD1520FFF7AAFD1620FFF73B
:102FA000A7FD2C20FFF7A4FD3220FFF7A1FDF020A4
:102FB000FFF78CFD3C20FFF79BFDF020FFF786FD1F
:102FC0006920FFF795FD782000F068FC2120FFF7CD
:102FD0007DFD2920FFF77AFD0020FFF7CBFE4FF69D
:102FE000FF70FFF768FE10BD38B500200090F0209C
:102FF000FFF76CFDC320FFF77BFDF020FFF766FDB8
:103000009620FFF775FD4FF40040374908800124F2
:1030100041E04FF4804034490880FB21334800F000
:1030200069F84FF480403049891E088004F110008F
:10303000C1B22E4800F05EF84FF480402A49088063
:10304000D3212A4800F056F80021284800F063F800
:103050004FF480402449891E0880FF21234800F056
:1030600049F8611E0DF801000121204800F053F8D5
:103070004FF480401C490880FB211C4800F03AF8BE
:103080004FF480401849891E08800021174800F03D
:1030900031F8601CC4B2042CBBDB4FF40040124971
:1030A000891E0880F020FFF711FD3C20FFF720FD6E
:1030B000F020FFF70BFD6920FFF71AFD9DF80100D6
:1030C0000B498880084680884FF6FF7101EA00208E
:1030D00007498880084680889DF802100843044903
:1030E00088800846808838BD1A04024000300140BC
:1030F00060000020024600BF108900F00200002896
:10310000FAD0918100BF108900F001000028FAD0A8
:103110009089C0B2704702884FF6C7731A40028088
:10312000012902D10288028003E0028842F01802DD
:103130000280028842F040020280704700B587B0EA
:103140000121022000F07EFF0121080300F0D4FFDE
:103150003820059002208DF8180000208DF81A0004
:1031600003208DF8190001208DF81B0005A92048C7
:1031700000F0CAFC052203211D4800F050FD052285
:1031800004211B4800F04BFD05221146184800F0B1
:1031900046FD0121080301F004F800214FF480509E
:1031A00000F0FFFF0020ADF800004FF48270ADF892
:1031B00002000020ADF804000220ADF80600012056
:1031C000ADF808004002ADF80A000020ADF80C0090
:1031D000ADF80E000720ADF810006946054801F073
:1031E000D1F80121034801F0C7F907B000BD000084
:1031F000000402400030014010B500F08CF908B125
:10320000012010BD0248034948600020F9E7000092
:10321000D53500083400002010B5012000F0F6FA82
:1032200010BD1CB50121222000F00CFF01200090F0
:103230008DF8040000208DF8060003208DF80500AD
:1032400001208DF807006946824800F05DFC4FF4CC
:10325000006000906946804800F056FC01207F49DC
:1032600008607F49C1F8AC021CBD10B57A480068FF
:1032700020F44000784908600846006840F4800067
:1032800008600120774908607749C1F88002FFF79C
:10329000C3FF002073490860FFF7BEFF002072499A
:1032A000C1F8800210BD10B56B48006820F44000E2
:1032B000694908600846006840F480000860002002
:1032C000664908606649C1F8AC02FFF7A5FF012016
:1032D00062490860FFF7A0FF01206149C1F8AC0214
:1032E00010BD10B500245C48006820F440005A4925
:1032F000086008460068086001205A49086000F02C
:1033000085FA01205849C1F8800200F07FFA07E0F1
:10331000601CC4B2FA2C03DDFFF7C5FF012010BD0D
:103320005048803800680028F2D14C49086000BF3E
:10333000F5E710B50020494908604748006820F4C7
:103340004000454908600846006840F48000086075
:1033500000204349C1F8AC02FFF75EFF01203F495E
:103360000860FFF759FF00203F49C1F8800210BDF7
:1033700010B50020394908603748006820F4400043
:10338000354908600846006840F480000860012064
:103390003349C1F8AC02FFF73FFF01202F49086015
:1033A000FFF73AFF00203049C1F8800210BD70B528
:1033B00004462948006820F4400027490860084670
:1033C000006840F48000086000202449086000255F
:1033D00011E0E009234908606006040E012022493B
:1033E000C1F88002FFF718FF00201C490860FFF7B2
:1033F00013FF681CC5B2082DEBDB70BD70B5054628
:1034000000241548006820F440001349086008466D
:1034100000680860002613E00020104908600320BF
:1034200000F0F4F901201049C1F880026006040E92
:103430000C488038006808B1601CC4B2701CC6B269
:10344000082EE9DB15B9FFF793FF01E0FFF771FFE5
:10345000204670BD000402400014024080824042B9
:1034600000804242AC824242008040422DE9F0415D
:1034700005460E4617464FF00008FFF7F6FE70208F
:10348000FFF795FFFFF72DFFE8B2FFF790FFFFF77B
:1034900028FF00240BE0305DFFF789FFFFF721FFD5
:1034A0008046B8F1000F00D003E0601CC4B2BC42FB
:1034B000F1DB00BFFFF7F7FE4046BDE8F0812DE9E4
:1034C000F04106460F461546FFF7CFFE7020FFF786
:1034D0006EFFFFF706FFF0B2FFF769FFFFF701FF8E
:1034E000FFF7C3FE7120FFF762FFFFF7FAFE00242B
:1034F0000BE0691EA14201D0012100E00021084635
:10350000FFF77CFF3855601CC4B2AC42F1DBFFF71B
:10351000CAFEBDE8F0810EB50121062000F092FD43
:103520000220009000208DF804008DF80600032092
:103530008DF8050001208DF8070069469E4800F0CF
:10354000E3FA2020009001208DF8040069469B4892
:1035500000F0DAFAFFF765FE0020994908600A20BA
:1035600000F09CF901209749C1F894024FF4FA70D9
:1035700000F094F9012202A9A820FFF7A0FF9DF80E
:103580000800112801D001200EBD022202A99F20AF
:10359000FFF795FF9DF80800262801D00120F3E7EA
:1035A0009DF8090048B19DF80900012805D09DF853
:1035B0000900022801D00120E6E7012202A9A32088
:1035C000FFF77DFF9DF80800642801D00120DBE7AC
:1035D0000020D9E77CB5002400267B480078401CF9
:1035E00079490870084600780A2190FBF1F201FB46
:1035F000120018B1744800780A287CDA0122694662
:103600000220FFF75CFF9DF80000002873D09DF8B2
:1036100000000328F1DA9DF80010FF208840C5B2B1
:10362000E843C0B240F0C00068490874002492E04A
:10363000674931F81400042201A9FFF740FF6348ED
:10364000007C0121A140084000287DD0614880799C
:1036500030B101281DD0022838D0032878D158E095
:103660009DF805009DF8041001F00F0100EB01200A
:103670005649083121F814009DF807009DF80610FE
:1036800001F00F0100EB012150480C3020F814101C
:103690005EE09DF805009DF8041001F00F0100EBBD
:1036A00001204C494988081A81B248480C3020F85A
:1036B00014109DF807009DF8061001F00F0100EBB3
:1036C00001204249083121F8140041E09DF805002D
:1036D0009DF8041001F00F0100EB01203D4909881D
:1036E000081A81B23948083020F814109DF80700F4
:1036F0009DF8061000E03DE001F00F0100EB012015
:1037000034494988081A81B230480C3020F8141026
:103710001EE09DF805009DF8041001F00F0100EB7C
:1037200001202A490C3121F814009DF807009DF86A
:10373000061001F00F0100EB012026490988081A44
:1037400081B22248083000E003E020F8141000BFE6
:1037500000BF601CC4B2022CFFF66AAF01261B48F2
:10376000008920B91948808908B9002000900020FC
:10377000154908709DF80000A8B91448007C00F0B5
:10378000800030B11148007C20F080000F4908749F
:1037900009E04FF6FF700D49088188810846007CDA
:1037A00000F0E000087408480078F02802DD0A20E4
:1037B0000549087030467CBD000402400008024004
:1037C00094024142000041424800002034000020A1
:1037D0007C7100086000002010B504466FF0040002
:1037E00000F0EEF8E11704EB5171C1F3C701394A5B
:1037F00011701046007800EB4001C1EBC0104FF68D
:10380000FF7101EAC0003449088010BD0146314A09
:1038100012784A434FF0E0235A6100229A611A4617
:10382000126942F001021A6100BF4FF0E0221069F4
:1038300000F001021AB100F48032002AF5D04FF0F6
:10384000E022126922F001024FF0E0231A61002207
:103850009A6170470146204A12884A434FF0E0239C
:103860005A6100229A611A46126942F001021A61F5
:1038700000BF4FF0E022106900F001021AB100F41D
:103880008032002AF5D04FF0E022126922F00102C6
:103890004FF0E0231A6100229A61704770B5044628
:1038A0004FF4077094FBF0F0C6B24FF4077094FB2E
:1038B000F0F100FB114085B205E04FF40770FFF70F
:1038C000C9FF701EC6B2002EF7D115B12846FFF70A
:1038D000C1FF70BD4A0000204C000020094880470D
:1038E00009480047FEE7FEE7FEE7FEE7FEE7FEE7E2
:1038F000FEE7FEE7FEE7FEE704480549054A064BFA
:10390000704700005113000889010008B801002029
:10391000B8070020B8030020B80300203249014353
:10392000324A1160704770B5002100230F22C4781D
:103930001CB32E4C246804F4E064C4F5E064C4F3C2
:103940000721C1F10404E3B20A4144789C40E1B28A
:103950008478144021430C07210E254C05786155CD
:10396000047804F01F050124AC4005786D11AD000A
:1039700005F1E025C5F8004109E0047804F01F05D1
:103980000124AC401B4D0678761145F8264070BDE9
:10399000194A0A400243154B1B1F1A60704739B180
:1039A000124A121D12680243104B1B1D1A6006E0DA
:1039B0000E4A121D126882430C4B1B1D1A60704781
:1039C000042808D14FF0E021096941F004014FF0CB
:1039D000E022116107E04FF0E021096921F00401C4
:1039E0004FF0E022116170470000FA050CED00E095
:1039F00000E400E080E100E080FFFF1F10B5044616
:103A00009848844208D10121084600F086FB002135
:103A1000012000F082FB76E09348844208D1012126
:103A2000022000F07AFB0021022000F076FB6AE021
:103A30008E48844208D10121042000F06EFB002151
:103A4000042000F06AFB5EE08948844208D101212D
:103A5000082000F062FB0021082000F05EFB52E02D
:103A60008448844208D10121102000F056FB002137
:103A7000102000F052FB46E07F48844208D101212B
:103A8000202000F04AFB0021202000F046FB3AE015
:103A90007A48844208D10121402000F03EFB0021F9
:103AA000402000F03AFB2EE07548844208D1012105
:103AB000802000F032FB0021802000F02EFB22E06D
:103AC0007048844208D10121801500F026FB0021B6
:103AD000A01500F022FB16E06B48844208D10121BA
:103AE000401500F01AFB0021601500F016FB0AE0FB
:103AF0006648844207D10121001500F00EFB002129
:103B0000201500F00AFB10BDF0B50A460021002385
:103B1000002400BF3DE0012505FA01F3156805EA20
:103B200003049C4234D105684F000326BE40B543D0
:103B3000056015794E00B540066835430560157976
:103B4000012D02D01579022D16D185684F0003266C
:103B5000BE40B543856055794E00B5408668354313
:103B60008560456801268E40B54345604568967975
:103B70008E40B6B235434560C5684F000326BE404F
:103B8000B543C560D5794E00B540C6683543C560BC
:103B9000491C1029BFD3F0BD4FF6FF710160002111
:103BA000017141718171C171704708B54FF4803264
:103BB0000092009A0A430092009AC261C161009A81
:103BC000C261C2690092C269009208BD024600202B
:103BD00013690B400BB1012000E000207047014643
:103BE000086980B270470246002053690B400BB150
:103BF000012000E0002070470146486980B270470C
:103C000001837047418370470AB1018300E041831B
:103C100070474161704742694A4042617047F0B560
:103C2000002300244D07ED0E02FA05F3CE1000F13B
:103C3000200555F826504E07F70E0F26BE40B54317
:103C4000CF1000F1200646F82750CE1000F12005D5
:103C500055F8265045EA0304CE1000F1200545F83A
:103C60002640F0BD0000024000040240000802406F
:103C7000000C0240001002400014024000180240F4
:103C8000001C0240002002400024024000280240A4
:103C9000F948006840F00100F74908600020F64943
:103CA00008310860F4480068F4490840F2490860A7
:103CB000F348091D0860F348EF4984310860F04873
:103CC0001038091D0860EC48006820F48020EA499B
:103CD00008600020E8490C310860E7498C31086031
:103CE00070470021E44A921C117011460870704719
:103CF00010B501460022002300204A11012A02D1FA
:103D0000DD4C236808E0022A03D1DB4C70342368C1
:103D100002E0D94C7434236801F01F02012494405E
:103D20001C400CB1012000E0002010BD38B500207F
:103D300000900024002500BF3120FFF7D9FF054681
:103D40000098401C00900098B0F5A04F01D0002DC5
:103D5000F2D03120FFF7CCFF08B1012400E00024AD
:103D6000204638BD01460020C34A106820F0F80004
:103D700040EAC10010607047C349086070470021E5
:103D8000BD4A703211701170012802D004280AD186
:103D900004E00121B84A7032117005E00521B64AED
:103DA0007032117000E000BF00BF7047B749086073
:103DB000704770B5049C41EA82150126C6EB530694
:103DC00045EA0645054345EA0465AB4E361D3560B8
:103DD00070BDAD4908667047820142EA0172A64B88
:103DE00084331A607047A8498866704710B583010C
:103DF00043EA016343EA02739F4C8834236010BD99
:103E0000A14908677047A049C8647047024600206E
:103E1000994B0833186820F0EC6042EA010318431C
:103E2000954B08331860704702460020924B0833C8
:103E3000186820F0784042EA010318438E4B08339B
:103E400018607047014600208B4A0832106820F045
:103E5000030008431060704787480830006800F08E
:103E60000C00704701460020834A0832106820F099
:103E7000F000084310607047014600207E4A083277
:103E8000106820F4E050084310607047014600209D
:103E9000794A0832106820F4604040EAC10010609E
:103EA0007047F0B5002100220024022500260223DD
:103EB000714F08373F6807F00C0121B1042905D084
:103EC000082937D105E0724F076036E0714F07606F
:103ED00033E0694F3F1D3F68C7F38056664F3F1D73
:103EE0003F6807F03F036EB16A4FB7FBF3F7DFF8A7
:103EF00088C10CF1040CDCF800C0CCF3881C07FB73
:103F00000CF40CE0624FB7FBF3F7DFF86CC10CF177
:103F1000040CDCF800C0CCF3881C07FB0CF4564FF3
:103F20003F1D3F68C7F301477F1C7D00B4FBF5F7D9
:103F3000076002E0564F076000BF00BF4E4F0837D2
:103F40003F6807F0F0010909534F7A5C0768D740D2
:103F50004760494F08373F6807F4E051890A4E4FE0
:103F60007A5C4768D7408760434F08373F6807F45B
:103F70006041490B484F7A5C4768D740C760F0BD45
:103F8000002100F44072B2F5407F0AD13A4A08326B
:103F9000116821F4F811414A02401143364A0832AF
:103FA0001160354A70321268C0F30B031A43324B6A
:103FB00070331A6070473549443908607047334997
:103FC0004039086070473649086070470146002054
:103FD000294A8C32106820F01F004A1E1043264ADE
:103FE0008C321060704701460020234A8C321068E2
:103FF00020F4F8504A1E40EA02201F4A8C3210601A
:104000007047014600201C4A8C32106820F4401092
:1040100008431060704701460020174A8C32106830
:1040200020F4400008431060704701460020124A07
:104030008C32106820F440300843106070471949F2
:104040000860704739B10C4A3032126802430A4B9B
:1040500030331A6006E0084A303212688243064B59
:1040600030331A607047F9B1034A343212680243A0
:10407000014B34331A601CE000380240FFFFF6EABF
:10408000103000240030002000004742800E4742DC
:104090000024F40000127A004E000020FFFCFF0F05
:1040A0005C014742E01147428F4A126882438E4BBF
:1040B0001A60704739B18C4A121D126802438A4B4C
:1040C0001B1D1A6006E0884A121D12688243864B47
:1040D0001B1D1A60704739B1834A0C3212680243C3
:1040E000814B0C331A6006E07F4A0C32126882431F
:1040F0007D4B0C331A60704739B17B4A103212681D
:104100000243794B10331A6006E0774A1032126886
:104110008243754B10331A60704739B1724A243AA2
:1041200012680243704B243B1A6006E06E4A243A40
:10413000126882436C4B243B1A60704739B16A4A5B
:10414000203A12680243684B203B1A6006E0664A38
:10415000203A12688243644B203B1A60704739B1A1
:10416000614A1C3A126802435F4B1C3B1A6006E02E
:104170005D4A1C3A126882435B4B1C3B1A607047D5
:1041800039B1594A143A12680243574B143B1A602A
:1041900006E0554A143A12688243534B143B1A60A6
:1041A000704739B1504A103A126802434E4B103BE7
:1041B0001A6006E04C4A103A126882434A4B103BA0
:1041C0001A60704739B1484A1C3212680243464BA4
:1041D0001C331A6006E0444A1C3212688243424B88
:1041E0001C331A60704739B13F4A203212680243CB
:1041F0003D4B20331A6006E03B4A2032126882436E
:10420000394B20331A60704739B1374A243212686B
:104210000243354B24331A6006E0334A24321268D5
:104220008243314B24331A60704739B12E4A2C3205
:10423000126802432C4B2C331A6006E02A4A2C32B7
:1042400012688243284B2C331A60704739B1264AD2
:10425000303212680243244B30331A6006E0224A9F
:10426000303212688243204B30331A607047012885
:1042700008D11D493C31096841F008011A4A3C3215
:10428000116007E018493C31096821F00801164A1D
:104290003C321160704739B1134A273A1278024311
:1042A000114B273B1A7006E00F4A273A12788243D7
:1042B0000D4B273B1A7070470B484030006840F0A8
:1042C0008070094940310860704701460020064A65
:1042D000283A12680A400AB1012000E00020704725
:1042E00001492639087070473438024010B5044639
:1042F000FB48844208D101218014FFF752FF0021BE
:10430000A014FFF74EFF3CE0F648844208D101219B
:104310000014FFF735FF00212014FFF731FF30E0D4
:10432000F148844208D10121C013FFF729FF002181
:10433000E013FFF725FF24E0EC48844208D1012177
:104340004014FFF72EFF00216014FFF72AFF18E04A
:10435000E748844209D101210805FFF722FF002127
:104360004FF48010FFF71DFF0BE0E248844208D1B4
:1043700001214805FFF715FF00214FF40010FFF75A
:1043800010FF10BD10B50022028802F441520B88C4
:104390004C8823438C882343CC8823430C892343B4
:1043A0004C8923438C892343CC8923431A430280BD
:1043B000838B4FF2FF74234083830B8A038210BDEB
:1043C0002DE9F04F0025022300244FF001090022BF
:1043D0000026002794469046B0F81CA04FF2400BF0
:1043E0000AEA0B0AA0F81CA04FF0020AA0F820A0CD
:1043F000858BD1F808A0BAF1020F01D100BF82E08D
:10440000B1F804A0BAF1000F02D14FF0010901E0A8
:104410004FF00209DFF8E0A2DAF800A00AF4000A7F
:10442000BAF1000F09D0DFF8D0A2DAF800A02AF420
:10443000000ADFF8C4B2CBF800A0DFF8BCA20AF192
:104440007C0ADAF800A0CAF3881CDFF8ACA20AF1F3
:104450007C0ADAF800A0CAF30278DFF89CA2AAF17D
:10446000040ADAF800A00AF03F07DFF88CA2AAF1EC
:10447000040ADAF800A00AF4800ABAF5800F08D11D
:10448000DFF878A2BAFBF7FA0AFB0CFABAFBF8F6E7
:1044900007E0DFF86CA2BAFBF7FA0AFB0CFABAFBEA
:1044A000F8F6B1F806A0BAF5007F0ED14FEA162A49
:1044B0000AEB8A0A4FEA4A0AD1F808B0BAFBFBFABB
:1044C0000AF1050A1FFA8AF20FE04FEA491AB6FB11
:1044D000FAFA0AEB8A0A4FEA4A0AD1F808B0BAFB9C
:1044E000FBFA0AF1050A1FFA8AF24FF00A0AB2FB38
:1044F000FAF202F00104A2EB040ACAF34F034FF6EA
:10450000FF7A0AEA0424022B01DBFF2B01DD0223E0
:104510000024B1F806A04AEA040A4AEA030AA0F80D
:1045200020A0B1F804A0B1F80CB04AEA0B0AB1F827
:1045300002B04AEA0B0AB1F800B04AEA0B0A4AF4A0
:10454000006A4AEA05058583BDE8F08F00210180F5
:1045500041808180C180018141818181C1810721A8
:10456000018270470021018041808180C180022149
:10457000816000218181704721B1028842F04002B0
:10458000028004E002884FF6BF731A400280704731
:1045900021B1828B42F48062828304E0828B4FF6E9
:1045A000FF331A408283704702884FF2FF731A402C
:1045B000028002880A4302807047B1F5804F04D11F
:1045C000028842F48042028004E002884BF6FF73C6
:1045D0001A40028070474FF6FF62914204D0028871
:1045E00042F48072028004E002884FF6FF631A40B2
:1045F0000280704721B1828842F00402828004E088
:1046000082884FF6FB731A408280704721B18288FE
:1046100042F01002828004E082884FF6EF731A4065
:104620008280704730B500220023848B4FF2400512
:104630002C40848302240484828B0C88B4F5007F90
:1046400001D00C8814B94FF4807308E00C88B4F5DD
:10465000407F03D00C88B4F5807F00D100238C8884
:104660008D892C434D882C431C4344F40064224321
:10467000828330BD0146888970478181704721B1AE
:10468000028842F40052028004E002884DF6FF7373
:104690001A4002807047018841F4805101807047C0
:1046A00002460020012901D0108B00E0908A70475B
:1046B0000146088A70471AB183880B43838002E061
:1046C00083888B438380704730B5002400230C110E
:1046D0000125A540ABB2AAB185881D43858014E0B1
:1046E0000030014000380040003C004000340140F0
:1046F00000500140005401400838024000127A0086
:104700000024F40085889D43858030BD024600204A
:1047100013890B400BB1012000E000207047CA4311
:1047200002817047F0B502460020002400230025D6
:1047300001F00F070126BE40B4B20B1101269E40C6
:10474000B3B2968806EA03051689264016B10DB164
:10475000012000E00020F0BD10B5002201F00F04A0
:104760000123A3409AB2D343038110BD0FB41CB5FB
:10477000074B06AA7B4469460090059800F00BFAA7
:104780000020694600F01AFA1CBC5DF814FB00001A
:104790004504000070B5044685690068C10601D56E
:1047A000302600E02026C00707D070BDD4E90121E3
:1047B00030469047206A401C20626D1EF6D570BDC1
:1047C00070B5044685690078C00707D170BDD4E98B
:1047D000012120209047206A401C20626D1EF6D5E2
:1047E00070BD70B50C460546012A05D028788006B4
:1047F00000D5EA69002302E0012305E05B1C934237
:1048000002D2E05C0028F9D1A869E618C01AA861B4
:10481000286A184428622846FFF7BCFF04E0D5E95F
:10482000012114F8010B9047B442F8D32846FFF752
:10483000C7FF70BD70B504460D4621461068AFF342
:1048400000802188090502D50F4A7A4402E00E4A09
:104850007A440E32002104F1240305E000F00F0633
:104860000009965D5E54491C0028F7D1207800238A
:10487000000704D5702D02D009B102231132204661
:10488000BDE8704000F029B9322900002DE9F05F41
:10489000894604464FF0000ADFF824B1FB44C0F813
:1048A00020A02046E168884700287DD0252806D032
:1048B000D4E901219047206A401C2062F1E70025DD
:1048C0005F462046E16888472028064607DB312EF0
:1048D00005D2B81910F8200C08B10543F1E7A80774
:1048E00001D525F00405C4F81CA00027C4F818A0C1
:1048F0002A2E09D0304600F0B7F938B304EB870808
:10490000303EC8F8186019E059F8041B204604EB43
:1049100087029161E1688847012F064618D1E06956
:10492000002820DA25F020051DE0D8F8180000EB5B
:10493000800006EB40003038C8F818002046E168D7
:104940008847064600F090F90028EED1012F0AD0E2
:104950002E2E08D12046E16888477F1C0646022F8C
:1049600045F02005C4DBA069002803DA404245F089
:104970000105A061E80701D025F01005A6B1A6F158
:104980004100192802D8203645F400654A463146D0
:10499000204625604D46FBF731FC60B1012807D069
:1049A000ED1D25F0070000E007E000F1080978E7B9
:1049B00005F1040975E730467AE7206ABDE8F09F03
:1049C000082900000B4910B5A1F17C020A4CC2E98C
:1049D0003712372106E000EB104342F82130074B35
:1049E00000FB03400B1EA1F10101F4DC10BD01200E
:1049F000E8E70000EC000020E119D666CD0D0100CB
:104A000040EA0103024630B59B0710D14FF0013454
:104A100000E008C208C91D1B9D4315EAC41FF8D059
:104A200013F0FF0102F8011B0DD01B0AF8E711F883
:104A3000013B002B02F8013B05D011F8013B002B94
:104A400002F8013BF3D130BD10B5431C02E010F871
:104A5000011B71B18107FAD14FF0013202C88C1AE3
:104A60008C4314EAC211F9D0C01A0A0603D0C01E42
:104A700010BDC01A10BD0A0401D0801E10BD09026D
:104A8000FCD0401E10BD4FF0000200B51346944606
:104A90009646203922BFA0E80C50A0E80C50B1F196
:104AA0002001BFF4F7AF090728BFA0E80C5048BFAA
:104AB0000CC05DF804EB890028BF40F8042B08BF48
:104AC000704748BF20F8022B11F0804F18BF00F844
:104AD000012B70477047704770472DE9F0470D462E
:104AE00099469246044600F124080168880604D5D8
:104AF000E06921F01001216000E00120A84201DD01
:104B0000471B00E00027A1697A1902EB0900081A87
:104B1000A0612078C00602D42046FFF73BFE0026A5
:104B200008E0D4E901211AF806009047206A401CE9
:104B3000761C20624E45F4DB2078C0060AD520465C
:104B4000FFF728FE06E0D4E9012130209047206AD3
:104B5000401C2062381EA7F10107F4DC07E0D4E90D
:104B6000012118F805009047206A401C2062281E89
:104B7000A5F10105F3DC2046FFF722FE20780006B0
:104B800002D50220BDE8F0870120FBE701694A1C3D
:104B900002610878704700B58FB0CDE9013100217E
:104BA000059105497944CDE9031011466846FFF7A0
:104BB0006DFE0FB000BD0000E5FFFFFF0A6802F8C0
:104BC000010B0A60704710B5436913B1AFF3008061
:104BD00001E0FFF706FE012010BD127800F124016C
:104BE0000A7000224A700122EDE711684FF0FF328F
:104BF000E9E7754600F02CF8AE46050069465346D5
:104C000020F00700854618B020B5FEF775FEBDE818
:104C100020404FF000064FF000074FF000084FF023
:104C2000000B21F00701AC46ACE8C009ACE8C009B4
:104C3000ACE8C009ACE8C0098D46704710B5044621
:104C4000AFF300802046BDE81040FBF7F0BA00004B
:104C500000487047540100207047000001491820A7
:104C6000ABBEFEE72600020030380A2801D2012040
:104C70007047002070474FF04070E1EE100A704717
:104C8000000000000000000000000000000004041C
:104C9000040404040004000000140A0A00000000D8
:104CA00000000000000014143F140A3F0A0A00002C
:104CB00000041E1505060C14150F04000000121543
:104CC0000D0A142C2A1200000000040A0A1E1515F1
:104CD0000936000000020201000000000000000090
:104CE0000020100808080808081020000002040826
:104CF000080808080804020000000004150E0E153C
:104D00000400000000000404041F04040400000068
:104D1000000000000000000000020201000000008E
:104D2000001F000000000000000000000000000064
:104D3000000200000010080808040402020201003A
:104D400000000E1111111111110E000000000406D7
:104D500004040404040E000000000E1111080402F3
:104D6000011F000000000E11100C1010110E0000A9
:104D70000000080C0A0A091E0818000000001F01A4
:104D8000010F1010110E000000000E09010F11118B
:104D9000110E000000001F090804040404040000B0
:104DA00000000E11110E1111110E000000000E1165
:104DB00011111E10120E000000000000040000007F
:104DC00000040000000000000004000000040400D3
:104DD0000020100804020408102000000000000059
:104DE0001F00001F0000000000020408102010082F
:104DF0000402000000000E11110804040004000069
:104E000000000E111915151D011E000000000404FC
:104E10000C0A0A1E1233000000000F12120E1212AA
:104E2000120F000000001E1101010101110E00000F
:104E300000000F1212121212120F000000001F12B7
:104E40000A0E0A02121F000000001F120A0E0A02B8
:104E50000207000000001C1201013911120C0000B1
:104E600000003312121E12121233000000001F0441
:104E700004040404041F000000003E080808080899
:104E800008090700000037120A060A0A1237000054
:104E90000000070202020202223F000000001B1B6A
:104EA0001B1B15151515000000003B1216161A1ACB
:104EB0001217000000000E1111111111110E000047
:104EC00000000F12120E02020207000000000E1175
:104ED00011111117190E180000000F12120E0A12EC
:104EE0001237000000001E1101060810110F00000B
:104EF00000001F1504040404040E00000000331217
:104F000012121212120C000000003312120A0A0CC4
:104F10000404000000001515150E0A0A0A0A000014
:104F200000001B0A0A04040A0A1B000000001B0AF6
:104F30000A040404040E000000001F09080404020F
:104F4000121F0000001C04040404040404041C00D8
:104F5000000202020404080808100000000E0808FD
:104F60000808080808080E0000040A0000000000F5
:104F70000000000000000000000000000000003FF2
:104F8000000400000000000000000000000000001D
:104F9000000C121C123C000000000302020E121250
:104FA000120E000000000000001C1202021C000093
:104FB00000001810101C1212123C0000000000002B
:104FC000000C121E021C000000003804041E040421
:104FD000041E000000000000003C120C021E221CF7
:104FE00000000302020E121212370000000004003B
:104FF00000060404040E000000000800000C08086D
:105000000808080700000302023A0A0E12370000DF
:105010000000070404040404041F00000000000052
:10502000000F15151515000000000000000F1212EA
:105030001237000000000000000C1212120C0000D9
:1050400000000000000F1212120E02070000000004
:10505000001C1212121C103800000000001B060277
:105060000207000000000000001E020C101E0000DD
:1050700000000004040E04040418000000000000F6
:10508000001B1212123C0000000000000037120A40
:105090000C040000000000000015150E0A0A0000B4
:1050A00000000000001B0A040A1B000000000000B2
:1050B0000037120A0C04040300000000001E08045C
:1050C000041E000000180808080408080808180052
:1050D0000808080808080808080808080006040462
:1050E000040804040404060002251800000000005F
:1050F00000000000000000000000000000000000B0
:105100000000000000000008080808080808000067
:105110001818000000486C24120000000000000075
:10512000000000000000002424247F1212127F12CD
:10513000121200000000081C2A2A0A0C1828282A2B
:105140002A1C080800000022251515152A58545459
:10515000542200000000000C1212120A76252911B8
:10516000916E00000006060403000000000000002D
:10517000000000000040201010080808080808106F
:105180001020400000020408081010101010100831
:10519000080402000000000008086B1C1C6B0808D3
:1051A0000000000000000000080808087F08080848
:1051B00008000000000000000000000000000000E7
:1051C000060604030000000000000000FE000000CE
:1051D00000000000000000000000000000000000CF
:1051E000060600000000804040202010100808043F
:1051F000040202000000001824424242424242429D
:1052000024180000000000080E0808080808080814
:10521000083E00000000003C4242422020100804EA
:10522000427E00000000003C4242201820404042E4
:10523000221C0000000000203028242422227E208E
:10524000207800000000007E0202021A2640404240
:10525000221C0000000000382402021A26424242AA
:10526000241800000000007E222210100808080800
:10527000080800000000003C424242241824424238
:10528000423C000000000018244242426458404062
:10529000241C00000000000000001818000000009E
:1052A00018180000000000000000000800000000C6
:1052B0000008080400000040201008040204081040
:1052C000204000000000000000007F0000007F0080
:1052D0000000000000000002040810204020100818
:1052E000040200000000003C424246402010100032
:1052F000181800000000001C225A555555552D4223
:10530000221C00000000000808181414243C22424B
:1053100042E700000000001F2222221E22424242D9
:10532000221F00000000007C4242010101010142F5
:10533000221C00000000001F224242424242424220
:10534000221F00000000003F4212121E12120242F1
:10535000423F00000000003F4212121E12120202E1
:10536000020700000000003C2222010101712122FD
:10537000221C0000000000E7424242427E424242BC
:1053800042E700000000003E080808080808080876
:10539000083E00000000007C1010101010101010CB
:1053A0001010110F0000007722120A0E0A121222AA
:1053B000227700000000000702020202020202023D
:1053C000427F000000000077363636362A2A2A2A25
:1053D0002A6B0000000000E346464A4A52525262DD
:1053E000624700000000001C22414141414141410F
:1053F000221C00000000003F424242423E020202E4
:10540000020700000000001C2241414141414D5370
:10541000321C60000000003F4242423E1212222233
:1054200042C700000000007C4242020418204042B3
:10543000423E00000000007F4908080808080808EC
:10544000081C0000000000E7424242424242424241
:10545000423C0000000000E74242222424141418B9
:10546000080800000000006B49494949555536229B
:1054700022220000000000E74224241818182424E7
:1054800042E70000000000772222141408080808F0
:10549000081C00000000007E2120101008040442B7
:1054A000423F0000007808080808080808080808B3
:1054B0000808780000000202040408080810102000
:1054C00020204040001E101010101010101010105E
:1054D00010101E0000384400000000000000000012
:1054E00000000000000000000000000000000000BC
:1054F000000000FF0006080000000000000000009F
:1055000000000000000000000000003C427844421F
:1055100042FC0000000000030202021A264242423E
:10552000261A0000000000000000003844020202B9
:10553000443800000000006040404078444242424D
:1055400064D80000000000000000003C427E02021F
:10555000423C0000000000F08808087E08080808A7
:10556000083E0000000000000000007C22221C0217
:105570003C42423C000000030202023A46424242E0
:1055800042E700000000000C0C00000E08080808AC
:10559000083E0000000000303000003820202020AD
:1055A0002020221E0000000302020272120A1612BC
:1055B000227700000000000E080808080808080804
:1055C000083E0000000000000000007F92929292CE
:1055D00092B70000000000000000003B464242423B
:1055E00042E70000000000000000003C424242424E
:1055F000423C0000000000000000001B2642424226
:10560000221E0207000000000000007844424242CF
:10561000447840E000000000000000774C040404DF
:10562000041F0000000000000000007C42023C401B
:10563000423E0000000000000008083E080808087C
:1056400008300000000000000000006342424242B7
:1056500062DC000000000000000000E74224241487
:105660000808000000000000000000EB4949555503
:105670002222000000000000000000762418181804
:10568000246E000000000000000000E74224241403
:1056900018080807000000000000007E221008081B
:1056A000447E000000C02020202020102020202048
:1056B0002020C0001010101010101010101010102A
:1056C000101010100006080808080810080808083C
:1056D000080806000C32C2000000000000000000B4
:1056E00000000000C9EE000027FC140414A481107F
:1056F00042084040104017FC2040E0E02150224882
:105700002C4620400040DBDA11041124112411241E
:105710001124FD24112411241124112411241D24E9
:10572000E124422402040404CAD002000100000063
:105730007FFC0100010001003FF821082108210839
:1057400021082128211001000100C8AB0000000041
:10575000018002400430180860061FF901000100B2
:1057600001003FF80100010001007FFEB6AF00001C
:10577000000000203E20007C002200227F22102218
:10578000102212221222224223423D82009CB5E7BF
:105790000000010001001FF0610C410441047FFC86
:1057A0004104410441047FFC01000102010201FCAB
:1057B000D7D3000000003FF8001000600080010017
:1057C00000807FFE004000400020002000201840A4
:1057D0000780BCBC10201020102013FEFC201020DD
:1057E000102015FC18843088D0481050102010501C
:1057F00051882606CAF501000120011001107FFC26
:105800000380054005400920111021084104810250
:10581000010001000100D3D002000200FFFE0400DD
:1058200004000FF0081018102FF0481088100FF027
:105830000810081008500820CFDE00007BF84A0846
:10584000520853F8620852084BF84A444A486A30F2
:1058500052204210428843064200B9AB00800480C7
:1058600004800840084010202010420882060400EE
:105870000440082010203FF010100000CBBE0000B4
:105880003FF8000800087FE8000800081F8810881B
:105890001088108810881F88108800280010BBB658
:1058A00000800080FC8004FC050449082A40144064
:1058B000104028A024A0451081100208040408020A
:1058C000D3AD00002080133C122402240224F224D1
:1058D0001224122412B4132812201020282047FE6C
:1058E0000000C4FA0900090011FC32045448995020
:1058F0001148124414441140108002005104511206
:1059000090120FF0B4BF00000020102013FE2020E2
:1059100026244A247A241224222423FC7C200022D8
:1059200004227822003CC9AB0000000004000FF004
:10593000102020207FFC20842084208420843FF8B5
:105940002000200220021FFECCEE000000002040BC
:1059500023FE204079FC220423FC220423FC2204A1
:1059600023FC3A0465FA01980204B3E40000010044
:1059700001007FFE02200410040808043FFC0442DA
:1059800004400440044208421042607EBED8000039
:105990000000207E3E804880488048FE48827F820A
:1059A00008820C8214FA12842280218040FED0CE1C
:1059B000000000007F842208223022C0220222043C
:1059C0007FC8223022C22202220422082230404014
:1059D000BBAD000000007FFE00000FF011101110A1
:1059E000111051125FF25112511251124FF2400236
:1059F0007FFCD4B2000000007FFE47E2481248124C
:105A000047E24FF250125012511251124292447218
:105A1000580A3FFCCDBC000000003FFE440247F2A4
:105A20004C225362408243625E1A418240624302CA
:105A300040C240223FFCC6AC000000402040204055
:105A400020403FFE2000200020003FE020102010DA
:105A50002010201040104010CFD4000000003FFC68
:105A6000200420043FFC200420041FF82444144890
:105A7000144814480C5004407FFECABE00000000C9
:105A80003FFC0000000000007FFE008008900888B6
:105A9000108810842084208240820780B2CB0000CE
:105AA000002008207FFE002000783F881108089021
:105AB00009207FFE018003400D30310C4002B5A566
:105AC00000000010081004203FF8210421043FFCCE
:105AD000210421043FF801007FFE010001000100C4
:105AE000D6D000000100010001003FFC2104210488
:105AF00021042104210421043FFC010001000100D4
:105B00000100D3A20000000008207FFE0820092029
:105B100001003FF82108210821081FF4014002205C
:105B20000C10700ECEC400000100010000803F7C0C
:105B30000810081004100420022002400180018097
:105B400002601C18E006D7DB00000000102011FEE8
:105B50002202220249FC5800300013FE2528792435
:105B600001240D24722202A2BACF0000000001809D
:105B700002400430180860061FF800001FF82004D7
:105B800020042004200420041FF8C1C100000100EB
:105B900001007FFE00003FF820083FF83FF8400674
:105BA00047C24824082008221022603EB6C80000E0
:105BB000000000803FFE44105FFC4410441043F09E
:105BC00040005FF84408423041C04360BC1EB2E26E
:105BD0000000000067C2145205520552C5522552FA
:105BE0000552055215521752228222424442483E23
:105BF000CAD4000000002014101417FE0012001078
:105C0000601013F0109010901090149214EA1F0A74
:105C10000006B3CC0000000019FE7202120212024C
:105C20007DFC18001BFE3420502053FE1020102055
:105C3000102013FED0F20000000000803FFE400064
:105C400047FC4208413040C05FFE40424042404471
:105C5000404840404440B5F70000000023FE1222B7
:105C600002FA0222E22212FE1272128A128A128AA8
:105C700016BA1A421202040EB9E200000100010431
:105C800011080908091009207FFE0440044004405F
:105C90000440084208421042607CB0E60000000068
:105CA00048FE4900490049007EFE41824144794452
:105CB000452845284510452846440382C8A80000C9
:105CC0001000100013FC7D0411041904188434889A
:105CD0005048505010201050108813041402CBF973
:105CE000000000003F7C204020403E40227E2244B5
:105CF000224422443E84208420844084410442047F
:105D0000C6C100003FF8200820083FF824102220D8
:105D10002FF8222022203FFC2220422044208420F1
:105D20000820C4BB04407FFC04401FF010101FF08B
:105D300010101FF00400FFFE11103FF8D116115093
:105D400011200100D0FD2080108010FE0100FE0017
:105D500021FC20243C2424A024A024BC24A024A092
:105D60004560553E8A00D7AA202020202020FDFC37
:105D70004020504093FEFC40108011FC1C04F08831
:105D80005050102010101010BFAA00007FFC0820F7
:105D90000820082008200820FFFE082008200820EE
:105DA00008201020102020204020D4B4000027FE1E
:105DB0001420144085FC450445FC150415FC2524DD
:105DC000E42024A829242A2230A00040D2BA00804E
:105DD000204017FE11208120423C42441664129458
:105DE0002348E24822302220225022880306BEA700
:105DF0000FE0082008200FE0082008200FE0000036
:105E00007EFC428442847EFC428442847EFC428446
:105E1000CDF800007FFC40044004421452944A54E0
:105E2000442444244A544A54529461044004401483
:105E30004008D5BE1020082008207E20003E042007
:105E40004420442025FC290429040F04F1044104C2
:105E500001FC0104B0B410401020102013FEFA021F
:105E6000144410401BFE3088D088110810D0102038
:105E7000105050882304BCFC201020103B7C2114BF
:105E800041FE7A14A27C2710F97C251025FE2210F1
:105E90002A10350028FE0000D0A31040102010204A
:105EA00011FEFC00108831043A025488508890504A
:105EB00010501020105010881306D7BC014041200C
:105EC000212023FE022016201BFC1220222023FC6E
:105ED000E2202220222023FE22000200B4A520205E
:105EE0002020782049FC91247D24552455247DFCD4
:105EF000552454207C28542457FE45028C00C3FEB0
:105F00001110111017FC1110FC0013F8120817F8EB
:105F10001A0833F8D04017FC10A0111052082406BC
:105F2000B6C10020202011FC1020002003FEF0024A
:105F3000109410501110109013FE14281844108261
:105F40000302BACD04000E007800087C0844FF4428
:105F5000084418441C442A442A444844887C084481
:105F600008000800D1D5100008FE7F102220147C04
:105F70007F44445448545254445448545154422841
:105F8000442488423082D6B5084008400FFC1040B7
:105F9000104033F8320853F8920813F8120813F837
:105FA000120812081FFE1000C8DD020001007FFE6B
:105FB0004002882411102288044008203018DFF69F
:105FC0001010101010101FF01010D6A701000100C3
:105FD00001007FFC0100010001003FF010100820CB
:105FE00004400280010006C01830E00EB3D6102035
:105FF0001020102011FCFC20102013FE100818089F
:1060000033FED00810881048100850282010B5E33F
:1060100002000200020003FC020002003FF0201018
:10602000201020103FF000002488224442448004C5
:10603000CCAC010001007FFC0100028004400A207A
:106040003118C0060100088848844812481287F0B9
:106050000000CAFD082049202A20083EFF442A44A7
:10606000494488A41028FE282210421064281828C9
:106070003444C282D7D6020001007FFE4002800471
:106080001FE0004000800100FFFE01000100010050
:10609000010005000200CDCB03F82208120813F816
:1060A00002080208F3F8124412281210128813048E
:1060B0001204280047FE0000B3F601000100210889
:1060C0002108210821083FF80108010001004104CE
:1060D0004104410441047FFC0004C9EE00000000BB
:1060E00000001000000800080C7FFC04401001C8EC
:1060F000A002186042301832231812C300140300A3
:1061000004030C047FF0080F80080B40781360181C
:10611000332018631818831C1903081803000003A0
:1061200000000000DBDA00000000000004100C0496
:10613000180C04108C04108C04108C04108C04D0E7
:106140008C3F108C04108C04108C04108C04108C68
:1061500004108C04108C05F08C0E208C78208C2080
:10616000408C00808C01000C02000C000000CAD0A2
:1061700000000000000000300000180000180800B7
:10618000001C1FFFE000180000182007FFF0041893
:1061900020041820041820041820041820041820B3
:1061A0000418200418200418200418E004184000E3
:1061B0001800001800000000D6D000000000000009
:1061C0000000000000000018000018000018000087
:1061D00018003FFFFE301806301806301806301839
:1061E000063018063FFFFE301806001800001800A1
:1061F0000018000018000018000000000000000057
:106200000000CEC4000000000000000000003800C4
:10621000001C00000600FFFFFF06003006003003F0
:1062200000600300600180C000C18000E300003610
:1062300000001C0000770003C1E01E003C60000766
:10624000000000000000000000000000B2E20000BA
:106250000000000000000000000040000321FF33A8
:10626000398333118333019B33C19B33719B3319C2
:106270009B33019B33019B33119B3319B333303074
:1062800033306C0330C6036383032E01BE0000006D
:10629000000000000000CAD4000000000000000060
:1062A000000000004000D83000CE1800C21C00C022
:1062B00001FFFF0000C0F800C01800C019FFC0189F
:1062C00018401818601918601B18611E18311C1F1F
:1062D000B139F01910000F000000000000000000AC
:1062E000D7D60000000000060000000300000000F8
:1062F000C0000001C0C0000107C00001FF00021F74
:10630000FE0007F01C0007C070000F00E0000E0345
:10631000F0001C0FF0003C0F70003C00E000180083
:10632000C0000000C0000000C000000060000000CD
:106330002000000037000001FF00007FF80007F890
:1063400030001F8030000080300000C0300000604E
:1063500060000018E000000FC00000060000000010
:106360000000CCE50000000000000000000000C0BC
:10637000000000E0002001B800703FF80061FFC09D
:1063800000C3030001C60600038C060003080C00CE
:1063900006080C000E18183F1E101BF31F903F0735
:1063A00000803C1C0190707C019060FE01A0C3F84D
:1063B00001A00FD803A008180360001803400018BC
:1063C00003C0001803800018030000180000001824
:1063D000000000100000003000000030000000004D
:1063E00000000000B2E20000000000000000000019
:1063F000000000000000020C1008071FF80403BF93
:10640000F00201BC300303EC3003015C600300D8F0
:10641000600300D860038098620361B8430771B1DC
:106420004306313243063376C3063A64C7063EEC70
:10643000C0063E78C0063C3040067C70000678E01E
:1064400060067BFFF006F7C00006E400000640008F
:106450000006000000060000007C00008FF0000035
:106460007C0000000000CAD4000000000000000012
:106470000000000000003F0000007F80000001805D
:10648000000000C0000000C0000000CE038000CF6C
:10649000FFC000DD41800FFE0007FFFC000C00F094
:1064A00000180FC03E19FF40F311BC6083307FE03D
:1064B00003B1FE200333802003700030036000101E
:1064C0000360001807C0000C07C00004078000022A
:1064D00001000003000000010000000000000000B7
:1064E0000000000000000000FFFFFFFFFFFFFFFFB4
:1064F000FFFFFFFFFFFFFFFFFFFFFFFFFFFFFFFFAC
:10650000FFFFFFFFFFFFBEF7FFFFDEFF38C6928CE5
:106510008E6B6E6B107C96AD3CE7FFFFFFFFFFFFBD
:10652000FFFFFFFFFFFFFFFFFFFFFFFFFFFFFFFF7B
:10653000FFFFFFFFFFFFFFFFFFFFFFFFFFFFFFFF6B
:10654000FFFFFFFFFFFFFFFFFFFFFFFFFFFFFFFF5B
:10655000FFFFFFFFFFFF5DEF159D4F636C420A32A7
:106560008829461925194521E8318E6B38C6FFFF69
:10657000FFFFFFFFFFFFFFFFFFFFFFFFFFFFFFFF2B
:10658000FFFFFFFFFFFFFFFFFFFFFFFFFFFFFFFF1B
:10659000FFFFFFFFFFFFFFFFFFFFFFFFFFFFFFFF0B
:1065A000FFFFFFFF36A51053104B51530F4B6C3AB2
:1065B000E93167212519E410A30862008308CB5252
:1065C0009AD6FFFFFFFFFFFFFFFFFFFFFFFFFFFF69
:1065D000FFFFFFFFFFFFFFFFFFFFFFFFFFFFFFFFCB
:1065E000FFFFFFFFFFFFFFFFFFFFFFFFFFFFFFFFBB
:1065F0003CE77063B363B87CF56311434D32EA291D
:10660000882126190519051904110411E4108300C5
:10661000A308728CFFFFFFFFFFFFFFFFFFFFFFFFDD
:10662000FFFFFFFFFFFFFFFFFFFFFFFFFFFFFFFF7A
:10663000FFFFFFFFFFFFFFFFFFFFFFFFFFFFDBDEAF
:106640004B3AF042356C544BB1322E2AEB21A92142
:106650006719051904110411041104110411051915
:10666000E4104200AF73FFFFFFFFFFFFFFFFFFFFDC
:10667000FFFFFFFFFFFFFFFFFFFFFFFFFFFFFFFF2A
:10668000FFFFFFFFFFFFFFFFFFFFFFFF5DEF09328F
:106690004C32104B8F324F2A2E2ACC19891989215E
:1066A0004719051904110411C410C4100411041170
:1066B0000411E41042003184FFFFFFFFFFFFFFFFE2
:1066C000FFFFFFFFFFFFFFFFFFFFFFFFFFFFFFFFDA
:1066D000FFFFFFFFFFFFFFFFFFFFFFFFEC52471928
:1066E0004C320B2AEC21EC210C22915BEE4A061174
:1066F00026190419E410E410A7296621A308051936
:1067000004110411E4108200F7BDFFFFFFFFFFFF3B
:10671000FFFFFFFFFFFFFFFFFFFFFFFFFFFFFFFF89
:10672000FFFFFFFFFFFFFFFFFFFF35A58308882165
:1067300088218921AA218A216B42718CFFFF728CEA
:1067400083080411C4082942FBDE5DEFEC5A83087C
:106750000411041104118308E831DFFFFFFFFFFF7C
:10676000FFFFFFFFFFFFFFFFFFFFFFFFFFFFFFFF39
:10677000FFFFFFFFFFFFFFFFBEF7C731C410251962
:10678000261947194719A8298A52284A55ADFFFFEB
:10679000E831A30805194D6B4D6BFFFF7DEF4521D7
:1067A000C410041104110411620076ADFFFFFFFF55
:1067B000FFFFFFFFFFFFFFFFFFFFFFFFFFFFFFFFE9
:1067C000FFFFFFFFFFFFFFFF96B5620004110419F2
:1067D00005110519C4088B4AB6B55DEFF7BDFFFF7B
:1067E0008E6B62002942AA5A0842FFFFFFFFCC527B
:1067F0008308041104110411A308AD52FFFFFFFF29
:10680000FFFFFFFFFFFFFFFFFFFFFFFFFFFF1CE793
:10681000FFFFFFFFFFFFFFFF4E6362000411041143
:106820000411E41062008E63FFFFFFFFFFFFFFFF14
:10683000CF730100F39C2C6396B5FFFFFFFF2D5B28
:106840008300041104110411E41067213DEFFFFFE0
:10685000FFFFFFFFFFFFFFFFF8BDB7B59EEFCB5275
:10686000B394FFFFFFFFDFFFE831A3080411041119
:1068700004110411A3084942FFF7FFF7FFFFFFFFD0
:106880006A4A01007284FFFFFFFFFFF7DFEF093A5A
:10689000A3080411041104110411051118BEFFFF0F
:1068A000FFFFFFFFFFFFFFFFF07B6200E831C73112
:1068B000410035A5FFFF5DEF4621C410041104110E
:1068C00004110411E410A308769DFFF7FFFFB7AD94
:1068D000A308A308C7319EE7FFF7FFF776A5A30833
:1068E000E4100411041104110511051135A5FFFF71
:1068F000FFFFFFFFFFFFFFFFDBDEA7298300C410C0
:10690000C410C4101CE79EEF0511E410041104111B
:10691000041104110419C408E510D16BD16BC5082A
:106920006400A50843002B32779DB3842519C41059
:10693000041104110411041125192609359DFFFFC6
:10694000FFFFFFFFFFFFFFFFFFFFAF7362000419B0
:10695000051982000D5B8E9B621005110411041154
:106960000419E41085000511C439815A407B229C2A
:1069700043AC03A4839B82728249C218A400C50061
:10698000E41004190411051947196711EC5ABEFFE8
:10699000FFFFFFFFFFFFFFFFDFFFDBDEC410E410A0
:1069A00004110511A41801C08388E4000519041915
:1069B000C5084421438323D542FEE4FE27FF07FF99
:1069C000A4FE64FE03FEA3FDE2FC42EC83B324625A
:1069D000E510C40804192619A81987210090D3BC12
:1069E000FFFFFFFFFFFFFFFFDFFFFFFF107C420005
:1069F00005190511832801D044F8A348E400C5080F
:106A0000445A02EDE2FD02FE66FE74FFB8FF73FF1A
:106A1000E7F6A6F645F6A4F5C3FC62FCC2FCC2FC90
:106A2000E3CBC449061188198701A49001F8EC9AB8
:106A3000FFFFFFFFFFFFFFFFFFFFFFFFBEF7E83194
:106A400083000509824001C023F885F0A348A40013
:106A5000445A02FD23CCC2DC04FE28FE48F646F66A
:106A600024F6E4F564FDE3FC62FCC2FC02E402DC13
:106A7000E2FCA47A48016701C47824F802F884B0E3
:106A80007DE7FFFFFFFFFFFFFFFFFFFFFFFFDBDEF5
:106A90002519A300C43802E022D844F8A6F8A47847
:106AA0006300432183728339829B21F561FD22FDBE
:106AB000E2FCA2FC42FC42FC42FC22AB8341C392BA
:106AC000045226012519A49844F823F802F8A4D00A
:106AD0009EEFFFFFFFFFFFFFFFFFFFFFFFFFFFFF37
:106AE0009AD68729A50043B822F823E065F8E8F88C
:106AF00007C983484200A30084006329A27A62B3D5
:106B0000A2CB62D302BB828A8339A400E500E500F0
:106B1000E508C46064D844F824F823F802F88388B0
:106B2000DBC6FFFFFFFFFFFFFFFFFFFFFFFFFFFFD2
:106B3000FFFF3DE7505B083123E843F844F065F878
:106B400009F9ABF989D10689A3484218020042002D
:106B500061008200620062008300A320C450A58807
:106B600085D865F844F844F823F823F803D0821058
:106B7000C7295DEFFFFFFFFFFFFFFFFFFFFFFFFFE5
:106B8000FFFFFFFFFFFF6C32A53802D823F865F83E
:106B900066F8A7F84AF90CFA4DFA4CEA0BD2A9B9F3
:106BA00068B147A927B107B907D1E7E8C7F8A7F83F
:106BB00065F865F844F823F803F802D0A32805091E
:106BC000C408EC5AFFFFFFFFFFFFFFFFFFFFFFFFBF
:106BD000FFFFFFFFFBDE0519C400A741E6C003F875
:106BE00086F8A7F887F886F8C7F829F98AF9ABF983
:106BF000ABF98BF96AF929F908F9C7F8A6F886F80C
:106C000065F864F823F802F006B12529E400E410E1
:106C100025192519149DFFFFFFFFFFFFFFFFFFFF51
:106C2000FFFFFFFF96AD620082083595BACE8BA2BA
:106C300044D025F887F8A7F8C7F8A7F887F886F8AA
:106C400086F886F887F8A7F8A7F8A6F885F865F813
:106C500064F824F064B80D93BBB6CF6383080411C5
:106C6000E4106621493A5DEFFFFFFFFFFFFFFFFFE2
:106C7000FFFFFFFFD3944200E410BBCEFFFFBEE74F
:106C800076B5CCAA07C145E045F846F866F886F81F
:106C900086F886F886F865F845F865F865E844D022
:106CA00043A8018882903CD7FFEF559583080411D3
:106CB000041105194619B394FFFFFFFFFFFFFFFF03
:106CC000FFFFFFFFB394410086215DDFFFFFFFFF61
:106CD000FFFFDFE77AC6D3B44EB32AC268D1E6E03D
:106CE000A6E8A5E8A5E8E6D888C906A922A802A8CA
:106CF00000A000C800D8F7E5FFE7F8ADC410E41025
:106D00000411E41005118B4AFFFFFFFFFFFFFFFF97
:106D1000FFFFFFFF55A54100A7295DDFFFF7FFFF3C
:106D2000FFFFFFFFFFFFFFFFFFEF7DDFDBCE59CE51
:106D3000F8CDD7CDF7C579CEFBBEABA203F045F8B1
:106D400042D043E800F072D4FFDF39AEE410E41023
:106D50000411E41005118729FFFFFFFFFFFFFFFF6C
:106D6000FFFFFFFF59CE830846211CD7FFF7FFFF27
:106D7000FFFFFFFFFFFFFFFFFFFFFFFFFFFFFFFF23
:106D8000FFFFFFFFFFFFFFFFFFEF8BBA04F845F89F
:106D900062E044F000F88EDBFFDFF8A5C410E410D9
:106DA000E4100411E4102519FFFFFFFFFFFFFFFFB0
:106DB000FFFFFFFFBEF78729830839B6FFF7DFF72C
:106DC000FFFFFFFFFFFFFFFFFFFFFFFFFFFFFFFFD3
:106DD000FFFFFFFFFFFFFFFFBEE74ABA03F845F8DA
:106DE00064F844F800F86EE3FFD7F48C83080411CC
:106DF000E410E410E4100519FFFFFFFFFFFFFFFFA1
:106E0000FFFFFFFFFFFFEF7300007284FFEFBEEF95
:106E1000DFFFFFFFFFFFFFFFFFFFFFFFFFFFFFFFA2
:106E2000FFFFFFFFFFFFFFFFDFE78BBA03F845F827
:106E300045F823F800F8D3D4FFD74E5B2100293A58
:106E400055A58308C4102519FFFFFFFFFFFFFFFFB3
:106E5000FFFFFFFFFFFFFBDEA308E8319EDF9EE799
:106E6000BFEFFFFFFFFFFFFFFFFFFFFFFFFFFFFF82
:106E7000FFFFFFFFFFFFFFFFFFF751BC02E003F83A
:106E800003F043E0ECC27ECFFCBE46212100D39448
:106E9000FFFF518400008729FFFFFFFFFFFFFFFF77
:106EA000FFFFFFFFFFFFFFFF51840000F48CFFEFA7
:106EB0009EE7BFEFDFFFFFFFFFFFFFFFFFFFFFFFCB
:106EC000FFFFFFFFFFFFFFFFFFFF3DDF55BD52BC90
:106ED00072BCB7B55DC7FFDFF06B0000093ABFF7C2
:106EE000FFFFFFFF149D55A5FFFFFFFFFFFFFFFF03
:106EF000FFFFFFFFFFFFFFFFFFFFAC4AA408BBBE81
:106F0000DFE77EE7BEEFDFF7DFFFFFFFFFFFFFFFFB
:106F1000FFFFFFFFFFFFFFFFDFFFDFF7FFEFDFDF19
:106F2000BFD79ED7DFDFD8A583082611DBD6FFFFAA
:106F3000FFFFFFFFFFFFFFFFFFFFFFFFFFFFFFFF61
:106F4000FFFFFFFFFFFFFFFF79EE8BDC2131A9215F
:106F50003DCFBFDF7EDF9EE7BEEFBFEFDFF7DFF79E
:106F6000DFF7DFF7DFF7BFEFBEEF9EE77EDF5ED72D
:106F70005ED7DFDF9AB626194208EDA3BFFFFFFFF9
:106F8000FFFFFFFFFFFFFFFFFFFFFFFFFFFFFFFF11
:106F9000FFFFFFFFFFFF74DDC0DB00FE42EE024299
:106FA00089217BB6DFDF7ED77EDF7EDF9EE79EE72F
:106FB0009EE79EE79EE77EDF7EDF5DD75DD79EDFA3
:106FC000FFE7F8A50711E31802C560FDE6D3DBEE85
:106FD000FFFFFFFFFFFFFFFFFFFFFFFFFFFFFFFFC1
:106FE000FFFFFFFF9EF784BAC1FC42FE82FEA2FEB5
:106FF0008183452174745EC7DFDF7ED75ED75DD79E
:107000005ED75ED75DD75DD75ED79EDFFFE73DC712
:10701000F1638408425226E629FF86FEE0F36AC344
:10702000FFFFFFFFFFFFFFFFFFFFFFFFFFFFFFFF70
:10703000FFFFFFFF18DEC1D2A2FD22FE42FE42FE8C
:1070400062FEE2D4416A494253743BA63EC7BFD7B1
:10705000BFD7BFD7BFDFBFD73EC71AA6F263A729E6
:10706000824122B462FE83FEAAFE0FFF67FD63BA6F
:107070003CEFFFFFFFFFFFFFFFFFFFFFFFFFFFFFF3
:10708000FFFFFFFF9AE680D221FDC2FDE2F5C2F5C7
:1070900082F582FD62FD61DC219B846AE96A2C63D2
:1070A000AF6311746E632C63895A0452817AC2CB28
:1070B000E2FC62FD82FDC2FDC2FDE4FD24FD62CA68
:1070C0001CE7FFFFFFFFFFFFFFFFFFFFFFFFFFFFCB
:1070D000FFFFFFFFFFFFB1CC81D2C0F3C1FC02FD77
:1070E00002FDE2FCC2FCC2FC81FC80FBC0C9A481A1
:1070F00035AD59CE719C218100DAA1FB82FCA2FC46
:1071000082FCA2FC02FD22FDE2FC00FC60DA90CCD5
:10711000FFFFFFFFFFFFFFFFFFFFFFFFFFFFFFFF7F
:10712000FFFFFFFFFFFFFFFF59DE0DC406CBE4D2D8
:1071300003DB03DBE3DAC3D2A4C209B3D2BC9EF7FC
:10714000FFFFFFFFFFFFFBE60EB4A6BA83D2E3E228
:1071500002EB22EB22E303DBE4D26AC3B6D5FFFFE6
:10716000FFFFFFFFFFFFFFFF00F80000E8710008CE
:10717000DC710008CC710008BC7100080300090034
:10718000303132333435363738394142434445465D
:107190004030580030313233343536373839616257
:1071A0006364656640307800040000080000000059
:1071B000000000020001000010000000526F746126
:1071C00074696F6E3A32373000000000526F74619C
:1071D00074696F6E3A31383000000000526F74618C
:1071E00074696F6E3A393000526F746174696F6EF2
:1071F0003A30000014720008000000206000000017
:10720000C4010008747200086000002058070000E4
:10721000E0010008007A030A0000000000000000FE
:10722000010203040607080900F8E0071F00E0FF59
:107230001FF800F81FF8E007CF011F0000001F84AF
:1072400000000000FFFF0000F9310008000000000E
:10725000000000000000000000000000000000002E
:1072600000000000000001020304010203040607FD
:047270000809000009
:040000050800018965
:00000001FF
