ARM Linker, 4.1 [Build 894] [Standard]

==============================================================================

Section Cross References

    startup_stm32f10x_hd.o(STACK) refers (Special) to heapauxi.o(.text) for __use_two_region_memory
    startup_stm32f10x_hd.o(HEAP) refers (Special) to heapauxi.o(.text) for __use_two_region_memory
    startup_stm32f10x_hd.o(RESET) refers (Special) to heapauxi.o(.text) for __use_two_region_memory
    startup_stm32f10x_hd.o(RESET) refers to startup_stm32f10x_hd.o(STACK) for __initial_sp
    startup_stm32f10x_hd.o(RESET) refers to startup_stm32f10x_hd.o(.text) for Reset_Handler
    startup_stm32f10x_hd.o(RESET) refers to stm32f10x_it.o(.text) for NMI_Handler
    startup_stm32f10x_hd.o(RESET) refers to usart2.o(.text) for USART2_IRQHandler
    startup_stm32f10x_hd.o(.text) refers (Special) to heapauxi.o(.text) for __use_two_region_memory
    startup_stm32f10x_hd.o(.text) refers to system_stm32f10x.o(.text) for SystemInit
    startup_stm32f10x_hd.o(.text) refers to __main.o(!!!main) for __main
    startup_stm32f10x_hd.o(.text) refers to startup_stm32f10x_hd.o(HEAP) for Heap_Mem
    startup_stm32f10x_hd.o(.text) refers to startup_stm32f10x_hd.o(STACK) for Stack_Mem
    stm32f10x_bkp.o(.text) refers to stm32f10x_rcc.o(.text) for RCC_BackupResetCmd
    stm32f10x_gpio.o(.text) refers to stm32f10x_rcc.o(.text) for RCC_APB2PeriphResetCmd
    stm32f10x_pwr.o(.text) refers to stm32f10x_rcc.o(.text) for RCC_APB1PeriphResetCmd
    stm32f10x_rcc.o(.text) refers to stm32f10x_rcc.o(.data) for APBAHBPrescTable
    stm32f10x_tim.o(.text) refers to stm32f10x_rcc.o(.text) for RCC_APB2PeriphResetCmd
    stm32f10x_usart.o(.text) refers to stm32f10x_rcc.o(.text) for RCC_APB2PeriphResetCmd
==============================================================================

Removing Unused input sections from the image.

    Removing stm32f10x_bkp.o(.text), (172 bytes).
    Removing stm32f10x_pwr.o(.text), (204 bytes).
    Removing stm32f10x_sdio.o(.text), (464 bytes).
    Removing core_cm3.o(.emb_text), (32 bytes).
    Removing common.o(.text), (96 bytes).
    Removing common.o(.data), (20 bytes).
    Removing driver.o(.data), (8 bytes).

7 unused section(s) (total 996 bytes) removed from the image.

==============================================================================

Image Symbol Table

    Local Symbols

    Symbol Name                              Value     Ov Type        Size  Object(Section)

    ../../angel/boardlib.s                   0x00000000   Number         0  boardinit1.o ABSOLUTE
    ../../angel/boardlib.s                   0x00000000   Number         0  boardinit2.o ABSOLUTE
    ../../angel/boardlib.s                   0x00000000   Number         0  boardinit3.o ABSOLUTE
    ../../angel/boardlib.s                   0x00000000   Number         0  boardshut.o ABSOLUTE
    ../../angel/handlers.s                   0x00000000   Number         0  __scatter_zi.o ABSOLUTE
    ../../angel/handlers.s                   0x00000000   Number         0  __scatter_copy.o ABSOLUTE
    ../../angel/kernel.s                     0x00000000   Number         0  rtentry2.o ABSOLUTE
    ../../angel/kernel.s                     0x00000000   Number         0  rtentry.o ABSOLUTE
    ../../angel/kernel.s                     0x00000000   Number         0  rtentry4.o ABSOLUTE
    ../../angel/kernel.s                     0x00000000   Number         0  rtexit.o ABSOLUTE
    ../../angel/kernel.s                     0x00000000   Number         0  rtexit2.o ABSOLUTE
    ../../angel/rt.s                         0x00000000   Number         0  rt_raise.o ABSOLUTE
    ../../angel/rt.s                         0x00000000   Number         0  rt_locale.o ABSOLUTE
    ../../angel/rt.s                         0x00000000   Number         0  rt_fp_status_addr.o ABSOLUTE
    ../../angel/rt.s                         0x00000000   Number         0  rt_errno_addr.o ABSOLUTE
    ../../angel/rt.s                         0x00000000   Number         0  rt_errno_addr_intlibspace.o ABSOLUTE
    ../../angel/rt.s                         0x00000000   Number         0  rt_ctype_table.o ABSOLUTE
    ../../angel/rt.s                         0x00000000   Number         0  rt_fp_status_addr_intlibspace.o ABSOLUTE
    ../../angel/rt.s                         0x00000000   Number         0  rt_locale_intlibspace.o ABSOLUTE
    ../../angel/scatter.s                    0x00000000   Number         0  __scatter.o ABSOLUTE
    ../../angel/startup.s                    0x00000000   Number         0  __main.o ABSOLUTE
    ../../angel/sys.s                        0x00000000   Number         0  indicate_semi.o ABSOLUTE
    ../../angel/sys.s                        0x00000000   Number         0  libspace.o ABSOLUTE
    ../../angel/sys.s                        0x00000000   Number         0  sys_stackheap_outer.o ABSOLUTE
    ../../angel/sys.s                        0x00000000   Number         0  use_no_semi.o ABSOLUTE
    ../../angel/sysapp.c                     0x00000000   Number         0  sys_command.o ABSOLUTE
    ../../angel/sysapp.c                     0x00000000   Number         0  sys_exit.o ABSOLUTE
    ../../angel/sysapp.c                     0x00000000   Number         0  sys_wrch.o ABSOLUTE
    ../../armsys.c                           0x00000000   Number         0  _get_argv_nomalloc.o ABSOLUTE
    ../../armsys.c                           0x00000000   Number         0  no_argv.o ABSOLUTE
    ../../armsys.c                           0x00000000   Number         0  argv_veneer.o ABSOLUTE
    ../../armsys.c                           0x00000000   Number         0  argv_veneer.o ABSOLUTE
    ../../fpinit.s                           0x00000000   Number         0  fpinit.o ABSOLUTE
    ../../heapalloc.c                        0x00000000   Number         0  hrguard.o ABSOLUTE
    ../../heapaux.c                          0x00000000   Number         0  heapauxi.o ABSOLUTE
    ../../libinit.s                          0x00000000   Number         0  libshutdown.o ABSOLUTE
    ../../libinit.s                          0x00000000   Number         0  libinit2.o ABSOLUTE
    ../../libinit.s                          0x00000000   Number         0  libinit.o ABSOLUTE
    ../../libinit.s                          0x00000000   Number         0  libshutdown2.o ABSOLUTE
    ../../locale.s                           0x00000000   Number         0  lc_ctype_c.o ABSOLUTE
    ../../memcpset.s                         0x00000000   Number         0  strcmpv7m.o ABSOLUTE
    ../../memcpset.s                         0x00000000   Number         0  rt_memclr.o ABSOLUTE
    ../../memcpset.s                         0x00000000   Number         0  rt_memclr_w.o ABSOLUTE
    ../../printf.c                           0x00000000   Number         0  __printf_ss.o ABSOLUTE
    ../../printf.c                           0x00000000   Number         0  __printf_flags_ss.o ABSOLUTE
    ../../printf.c                           0x00000000   Number         0  __printf_ss_wp.o ABSOLUTE
    ../../printf.c                           0x00000000   Number         0  _printf_char.o ABSOLUTE
    ../../printf.c                           0x00000000   Number         0  __2sprintf.o ABSOLUTE
    ../../printf.c                           0x00000000   Number         0  __printf_flags_ss_wp.o ABSOLUTE
    ../../printf.c                           0x00000000   Number         0  __printf.o ABSOLUTE
    ../../printf.c                           0x00000000   Number         0  __printf_wp.o ABSOLUTE
    ../../printf.c                           0x00000000   Number         0  _printf_char_common.o ABSOLUTE
    ../../printf.c                           0x00000000   Number         0  __printf_flags_wp.o ABSOLUTE
    ../../printf.c                           0x00000000   Number         0  _printf_str.o ABSOLUTE
    ../../printf.c                           0x00000000   Number         0  _sputc.o ABSOLUTE
    ../../printf.c                           0x00000000   Number         0  noretval__2sprintf.o ABSOLUTE
    ../../printf.c                           0x00000000   Number         0  _printf_dec.o ABSOLUTE
    ../../printf.c                           0x00000000   Number         0  _printf_intcommon.o ABSOLUTE
    ../../printf.c                           0x00000000   Number         0  __printf_flags.o ABSOLUTE
    ../../printf.c                           0x00000000   Number         0  __printf_nopercent.o ABSOLUTE
    ../../printf_percent.s                   0x00000000   Number         0  _printf_percent.o ABSOLUTE
    ../../printf_percent.s                   0x00000000   Number         0  _printf_d.o ABSOLUTE
    ../../printf_percent.s                   0x00000000   Number         0  _printf_s.o ABSOLUTE
    ../../printf_percent.s                   0x00000000   Number         0  _printf_percent_end.o ABSOLUTE
    ../../scanf.c                            0x00000000   Number         0  atoi.o ABSOLUTE
    ../../scanf.c                            0x00000000   Number         0  _chval.o ABSOLUTE
    ../../scanf.c                            0x00000000   Number         0  _strtoul.o ABSOLUTE
    ../../scanf.c                            0x00000000   Number         0  strtol.o ABSOLUTE
    ../../signal.c                           0x00000000   Number         0  defsig_rtmem_formal.o ABSOLUTE
    ../../signal.c                           0x00000000   Number         0  defsig_segv_inner.o ABSOLUTE
    ../../signal.c                           0x00000000   Number         0  defsig_rtmem_outer.o ABSOLUTE
    ../../signal.c                           0x00000000   Number         0  defsig_exit.o ABSOLUTE
    ../../signal.c                           0x00000000   Number         0  defsig_rtmem_inner.o ABSOLUTE
    ../../signal.c                           0x00000000   Number         0  defsig_other.o ABSOLUTE
    ../../signal.c                           0x00000000   Number         0  __raise.o ABSOLUTE
    ../../signal.c                           0x00000000   Number         0  defsig_general.o ABSOLUTE
    ../../signal.c                           0x00000000   Number         0  defsig_stak_inner.o ABSOLUTE
    ../../signal.c                           0x00000000   Number         0  defsig_abrt_inner.o ABSOLUTE
    ../../signal.c                           0x00000000   Number         0  defsig_fpe_inner.o ABSOLUTE
    ../../signal.c                           0x00000000   Number         0  defsig_pvfn_inner.o ABSOLUTE
    ../../signal.c                           0x00000000   Number         0  defsig_cppl_inner.o ABSOLUTE
    ../../signal.c                           0x00000000   Number         0  defsig_rtred_inner.o ABSOLUTE
    ../../signal.s                           0x00000000   Number         0  defsig.o ABSOLUTE
    ../../stdlib.c                           0x00000000   Number         0  exit.o ABSOLUTE
    ../../string.c                           0x00000000   Number         0  strlen.o ABSOLUTE
    ..\Driver\delay.c                        0x00000000   Number         0  delay.o ABSOLUTE
    ..\Driver\driver.c                       0x00000000   Number         0  driver.o ABSOLUTE
    ..\Driver\iic.c                          0x00000000   Number         0  iic.o ABSOLUTE
    ..\Driver\usart.c                        0x00000000   Number         0  usart.o ABSOLUTE
    ..\Driver\usart2.c                       0x00000000   Number         0  usart2.o ABSOLUTE
    ..\Libraries\CMSIS\CM3\CoreSupport\core_cm3.c 0x00000000   Number         0  core_cm3.o ABSOLUTE
    ..\Libraries\CMSIS\CM3\DeviceSupport\ST\STM32F10x\system_stm32f10x.c 0x00000000   Number         0  system_stm32f10x.o ABSOLUTE
    ..\Libraries\STM32F10x_StdPeriph_Driver\src\misc.c 0x00000000   Number         0  misc.o ABSOLUTE
    ..\Libraries\STM32F10x_StdPeriph_Driver\src\stm32f10x_bkp.c 0x00000000   Number         0  stm32f10x_bkp.o ABSOLUTE
    ..\Libraries\STM32F10x_StdPeriph_Driver\src\stm32f10x_flash.c 0x00000000   Number         0  stm32f10x_flash.o ABSOLUTE
    ..\Libraries\STM32F10x_StdPeriph_Driver\src\stm32f10x_gpio.c 0x00000000   Number         0  stm32f10x_gpio.o ABSOLUTE
    ..\Libraries\STM32F10x_StdPeriph_Driver\src\stm32f10x_pwr.c 0x00000000   Number         0  stm32f10x_pwr.o ABSOLUTE
    ..\Libraries\STM32F10x_StdPeriph_Driver\src\stm32f10x_rcc.c 0x00000000   Number         0  stm32f10x_rcc.o ABSOLUTE
    ..\Libraries\STM32F10x_StdPeriph_Driver\src\stm32f10x_sdio.c 0x00000000   Number         0  stm32f10x_sdio.o ABSOLUTE
    ..\Libraries\STM32F10x_StdPeriph_Driver\src\stm32f10x_tim.c 0x00000000   Number         0  stm32f10x_tim.o ABSOLUTE
    ..\Libraries\STM32F10x_StdPeriph_Driver\src\stm32f10x_usart.c 0x00000000   Number         0  stm32f10x_usart.o ABSOLUTE
    ..\User\common.c                         0x00000000   Number         0  common.o ABSOLUTE
    ..\User\main.c                           0x00000000   Number         0  main.o ABSOLUTE
    ..\User\stm32f10x_it.c                   0x00000000   Number         0  stm32f10x_it.o ABSOLUTE
    ..\\Libraries\\CMSIS\\CM3\\CoreSupport\\core_cm3.c 0x00000000   Number         0  core_cm3.o ABSOLUTE
    dc.s                                     0x00000000   Number         0  dc.o ABSOLUTE
    startup_stm32f10x_hd.s                   0x00000000   Number         0  startup_stm32f10x_hd.o ABSOLUTE
    RESET                                    0x08000000   Section      304  startup_stm32f10x_hd.o(RESET)
    !!!main                                  0x08000130   Section        8  __main.o(!!!main)
    !!!scatter                               0x08000138   Section       52  __scatter.o(!!!scatter)
    !!handler_copy                           0x0800016c   Section       26  __scatter_copy.o(!!handler_copy)
    !!handler_zi                             0x08000188   Section       28  __scatter_zi.o(!!handler_zi)
    .ARM.Collect$$_printf_percent$$00000000  0x080001a4   Section        0  _printf_percent.o(.ARM.Collect$$_printf_percent$$00000000)
    .ARM.Collect$$_printf_percent$$00000009  0x080001a4   Section        6  _printf_d.o(.ARM.Collect$$_printf_percent$$00000009)
    .ARM.Collect$$_printf_percent$$00000014  0x080001aa   Section        6  _printf_s.o(.ARM.Collect$$_printf_percent$$00000014)
    .ARM.Collect$$_printf_percent$$00000017  0x080001b0   Section        4  _printf_percent_end.o(.ARM.Collect$$_printf_percent$$00000017)
    .ARM.Collect$$libinit$$00000000          0x080001b4   Section        6  libinit.o(.ARM.Collect$$libinit$$00000000)
    .ARM.Collect$$libinit$$00000006          0x080001ba   Section        0  libinit2.o(.ARM.Collect$$libinit$$00000006)
    .ARM.Collect$$libinit$$00000008          0x080001ba   Section        0  libinit2.o(.ARM.Collect$$libinit$$00000008)
    .ARM.Collect$$libinit$$0000000A          0x080001ba   Section        0  libinit2.o(.ARM.Collect$$libinit$$0000000A)
    .ARM.Collect$$libinit$$0000000B          0x080001ba   Section        6  libinit2.o(.ARM.Collect$$libinit$$0000000B)
    .ARM.Collect$$libinit$$0000000D          0x080001c0   Section        0  libinit2.o(.ARM.Collect$$libinit$$0000000D)
    .ARM.Collect$$libinit$$0000000E          0x080001c0   Section       12  libinit2.o(.ARM.Collect$$libinit$$0000000E)
    .ARM.Collect$$libinit$$0000000F          0x080001cc   Section        0  libinit2.o(.ARM.Collect$$libinit$$0000000F)
    .ARM.Collect$$libinit$$00000011          0x080001cc   Section        0  libinit2.o(.ARM.Collect$$libinit$$00000011)
    .ARM.Collect$$libinit$$00000013          0x080001cc   Section        0  libinit2.o(.ARM.Collect$$libinit$$00000013)
    .ARM.Collect$$libinit$$00000015          0x080001cc   Section        0  libinit2.o(.ARM.Collect$$libinit$$00000015)
    .ARM.Collect$$libinit$$00000017          0x080001cc   Section        0  libinit2.o(.ARM.Collect$$libinit$$00000017)
    .ARM.Collect$$libinit$$00000019          0x080001cc   Section        0  libinit2.o(.ARM.Collect$$libinit$$00000019)
    .ARM.Collect$$libinit$$0000001B          0x080001cc   Section        0  libinit2.o(.ARM.Collect$$libinit$$0000001B)
    .ARM.Collect$$libinit$$0000001D          0x080001cc   Section        0  libinit2.o(.ARM.Collect$$libinit$$0000001D)
    .ARM.Collect$$libinit$$0000001F          0x080001cc   Section        0  libinit2.o(.ARM.Collect$$libinit$$0000001F)
    .ARM.Collect$$libinit$$00000021          0x080001cc   Section        0  libinit2.o(.ARM.Collect$$libinit$$00000021)
    .ARM.Collect$$libinit$$00000028          0x080001cc   Section        0  libinit2.o(.ARM.Collect$$libinit$$00000028)
    .ARM.Collect$$libinit$$0000002A          0x080001cc   Section        0  libinit2.o(.ARM.Collect$$libinit$$0000002A)
    .ARM.Collect$$libinit$$0000002C          0x080001cc   Section        0  libinit2.o(.ARM.Collect$$libinit$$0000002C)
    .ARM.Collect$$libinit$$0000002E          0x080001cc   Section        0  libinit2.o(.ARM.Collect$$libinit$$0000002E)
    .ARM.Collect$$libinit$$0000002F          0x080001cc   Section        2  libinit2.o(.ARM.Collect$$libinit$$0000002F)
    .ARM.Collect$$libshutdown$$00000000      0x080001ce   Section        2  libshutdown.o(.ARM.Collect$$libshutdown$$00000000)
    .ARM.Collect$$libshutdown$$00000003      0x080001d0   Section        0  libshutdown2.o(.ARM.Collect$$libshutdown$$00000003)
    .ARM.Collect$$libshutdown$$00000006      0x080001d0   Section        0  libshutdown2.o(.ARM.Collect$$libshutdown$$00000006)
    .ARM.Collect$$libshutdown$$00000009      0x080001d0   Section        0  libshutdown2.o(.ARM.Collect$$libshutdown$$00000009)
    .ARM.Collect$$libshutdown$$0000000B      0x080001d0   Section        0  libshutdown2.o(.ARM.Collect$$libshutdown$$0000000B)
    .ARM.Collect$$libshutdown$$0000000E      0x080001d0   Section        0  libshutdown2.o(.ARM.Collect$$libshutdown$$0000000E)
    .ARM.Collect$$libshutdown$$0000000F      0x080001d0   Section        2  libshutdown2.o(.ARM.Collect$$libshutdown$$0000000F)
    .ARM.Collect$$rtentry$$00000000          0x080001d2   Section        0  rtentry.o(.ARM.Collect$$rtentry$$00000000)
    .ARM.Collect$$rtentry$$00000002          0x080001d2   Section        0  rtentry2.o(.ARM.Collect$$rtentry$$00000002)
    .ARM.Collect$$rtentry$$00000004          0x080001d2   Section        6  rtentry4.o(.ARM.Collect$$rtentry$$00000004)
    .ARM.Collect$$rtentry$$00000009          0x080001d8   Section        0  rtentry2.o(.ARM.Collect$$rtentry$$00000009)
    .ARM.Collect$$rtentry$$0000000A          0x080001d8   Section        4  rtentry2.o(.ARM.Collect$$rtentry$$0000000A)
    .ARM.Collect$$rtentry$$0000000C          0x080001dc   Section        0  rtentry2.o(.ARM.Collect$$rtentry$$0000000C)
    .ARM.Collect$$rtentry$$0000000D          0x080001dc   Section        8  rtentry2.o(.ARM.Collect$$rtentry$$0000000D)
    .ARM.Collect$$rtexit$$00000000           0x080001e4   Section        2  rtexit.o(.ARM.Collect$$rtexit$$00000000)
    .ARM.Collect$$rtexit$$00000002           0x080001e6   Section        0  rtexit2.o(.ARM.Collect$$rtexit$$00000002)
    .ARM.Collect$$rtexit$$00000003           0x080001e6   Section        4  rtexit2.o(.ARM.Collect$$rtexit$$00000003)
    .ARM.Collect$$rtexit$$00000004           0x080001ea   Section        6  rtexit2.o(.ARM.Collect$$rtexit$$00000004)
    .text                                    0x080001f0   Section       64  startup_stm32f10x_hd.o(.text)
    .text                                    0x08000230   Section        0  stm32f10x_flash.o(.text)
    .text                                    0x080007e8   Section        0  stm32f10x_gpio.o(.text)
    .text                                    0x08000b40   Section        0  stm32f10x_rcc.o(.text)
    .text                                    0x08000ee0   Section        0  stm32f10x_tim.o(.text)
    TI4_Config                               0x0800136b   Thumb Code   118  stm32f10x_tim.o(.text)
    TI3_Config                               0x080013f3   Thumb Code   114  stm32f10x_tim.o(.text)
    TI2_Config                               0x0800147b   Thumb Code   118  stm32f10x_tim.o(.text)
    TI1_Config                               0x08001503   Thumb Code   106  stm32f10x_tim.o(.text)
    .text                                    0x08001c90   Section        0  stm32f10x_usart.o(.text)
    .text                                    0x0800209c   Section        0  misc.o(.text)
    .text                                    0x08002178   Section        0  system_stm32f10x.o(.text)
    SetSysClockTo72                          0x08002179   Thumb Code   192  system_stm32f10x.o(.text)
    SetSysClock                              0x08002239   Thumb Code     8  system_stm32f10x.o(.text)
    .text                                    0x08002340   Section        0  main.o(.text)
    .text                                    0x080024dc   Section        0  stm32f10x_it.o(.text)
    .text                                    0x08002548   Section        0  driver.o(.text)
    .text                                    0x080026f8   Section        0  usart.o(.text)
    .text                                    0x0800274c   Section        0  delay.o(.text)
    .text                                    0x08002830   Section        0  iic.o(.text)
    .text                                    0x08002a74   Section        0  usart2.o(.text)
    .text                                    0x080030cc   Section        0  noretval__2sprintf.o(.text)
    .text                                    0x080030f4   Section        0  __printf.o(.text)
    .text                                    0x0800315e   Section        0  _printf_str.o(.text)
    .text                                    0x080031b0   Section        0  _printf_dec.o(.text)
    .text                                    0x08003228   Section        0  atoi.o(.text)
    .text                                    0x08003242   Section        0  strlen.o(.text)
    .text                                    0x08003280   Section       68  rt_memclr.o(.text)
    .text                                    0x080032c4   Section       78  rt_memclr_w.o(.text)
    .text                                    0x08003314   Section      128  strcmpv7m.o(.text)
    .text                                    0x08003394   Section        0  heapauxi.o(.text)
    .text                                    0x0800339c   Section        8  rt_errno_addr_intlibspace.o(.text)
    .text                                    0x080033a4   Section        0  _printf_intcommon.o(.text)
    .text                                    0x0800345c   Section        0  _printf_char_common.o(.text)
    _printf_input_char                       0x0800345d   Thumb Code    10  _printf_char_common.o(.text)
    .text                                    0x0800348c   Section        0  _sputc.o(.text)
    .text                                    0x08003496   Section        0  _printf_char.o(.text)
    .text                                    0x080034c2   Section        0  strtol.o(.text)
    .text                                    0x08003534   Section        8  libspace.o(.text)
    .text                                    0x0800353c   Section       16  rt_ctype_table.o(.text)
    .text                                    0x0800354c   Section        0  _strtoul.o(.text)
    .text                                    0x080035ea   Section       74  sys_stackheap_outer.o(.text)
    .text                                    0x08003634   Section        8  rt_locale_intlibspace.o(.text)
    .text                                    0x0800363c   Section        0  _chval.o(.text)
    .text                                    0x08003658   Section        0  exit.o(.text)
    .text                                    0x08003664   Section        8  rt_fp_status_addr_intlibspace.o(.text)
    .text                                    0x0800366c   Section        0  sys_exit.o(.text)
    .text                                    0x08003678   Section        2  use_no_semi.o(.text)
    .text                                    0x0800367a   Section        0  indicate_semi.o(.text)
    locale$$code                             0x0800367c   Section       44  lc_ctype_c.o(locale$$code)
    x$fpl$fpinit                             0x080036a8   Section       14  fpinit.o(x$fpl$fpinit)
    locale$$data                             0x080036d8   Section      272  lc_ctype_c.o(locale$$data)
    __lcctype_c_name                         0x080036dc   Data           2  lc_ctype_c.o(locale$$data)
    __lcctype_c_start                        0x080036e4   Data           0  lc_ctype_c.o(locale$$data)
    __lcctype_c_end                          0x080037e8   Data           0  lc_ctype_c.o(locale$$data)
    .data                                    0x20000000   Section       20  stm32f10x_rcc.o(.data)
    APBAHBPrescTable                         0x20000000   Data          16  stm32f10x_rcc.o(.data)
    ADCPrescTable                            0x20000010   Data           4  stm32f10x_rcc.o(.data)
    .data                                    0x20000014   Section       20  system_stm32f10x.o(.data)
    .data                                    0x20000028   Section        4  delay.o(.data)
    .data                                    0x2000002c   Section        9  usart2.o(.data)
    .bss                                     0x20000038   Section     1152  usart2.o(.bss)
    .bss                                     0x200004b8   Section       96  libspace.o(.bss)
    HEAP                                     0x20000518   Section      512  startup_stm32f10x_hd.o(HEAP)
    Heap_Mem                                 0x20000518   Data         512  startup_stm32f10x_hd.o(HEAP)
    STACK                                    0x20000718   Section     1024  startup_stm32f10x_hd.o(STACK)
    Stack_Mem                                0x20000718   Data        1024  startup_stm32f10x_hd.o(STACK)
    __initial_sp                             0x20000b18   Data           0  startup_stm32f10x_hd.o(STACK)

    Global Symbols

    Symbol Name                              Value     Ov Type        Size  Object(Section)

    BuildAttributes$$THM_ISAv4$P$D$K$B$S$PE$A:L22UL41UL21$X:L11$S22US41US21$IEEE1$IW$USESV6$~STKCKD$USESV7$~SHL$OSPACE$ROPI$EBA8$UX$STANDARDLIB$REQ8$PRES8$EABIv2 0x00000000   Number         0  anon$$obj.o ABSOLUTE
    __ARM_use_no_argv                        0x00000000   Number         0  main.o ABSOLUTE
    __ARM_exceptions_init                     - Undefined Weak Reference
    __alloca_initialize                       - Undefined Weak Reference
    __cpp_initialize__aeabi_                  - Undefined Weak Reference
    __cxa_finalize                            - Undefined Weak Reference
    __sigvec_lookup                           - Undefined Weak Reference
    _atexit_init                              - Undefined Weak Reference
    _call_atexit_fns                          - Undefined Weak Reference
    _clock_init                               - Undefined Weak Reference
    _fp_trap_init                             - Undefined Weak Reference
    _fp_trap_shutdown                         - Undefined Weak Reference
    _get_lc_collate                           - Undefined Weak Reference
    _get_lc_monetary                          - Undefined Weak Reference
    _get_lc_numeric                           - Undefined Weak Reference
    _get_lc_time                              - Undefined Weak Reference
    _getenv_init                              - Undefined Weak Reference
    _handle_redirection                       - Undefined Weak Reference
    _init_alloc                               - Undefined Weak Reference
    _init_user_alloc                          - Undefined Weak Reference
    _initio                                   - Undefined Weak Reference
    _printf_mbtowc                            - Undefined Weak Reference
    _printf_post_padding                      - Undefined Weak Reference
    _printf_pre_padding                       - Undefined Weak Reference
    _printf_truncate_signed                   - Undefined Weak Reference
    _printf_truncate_unsigned                 - Undefined Weak Reference
    _rand_init                                - Undefined Weak Reference
    _signal_finish                            - Undefined Weak Reference
    _signal_init                              - Undefined Weak Reference
    _terminate_alloc                          - Undefined Weak Reference
    _terminate_user_alloc                     - Undefined Weak Reference
    _terminateio                              - Undefined Weak Reference
    __Vectors_Size                           0x00000130   Number         0  startup_stm32f10x_hd.o ABSOLUTE
    __Vectors                                0x08000000   Data           4  startup_stm32f10x_hd.o(RESET)
    __Vectors_End                            0x08000130   Data           0  startup_stm32f10x_hd.o(RESET)
    __main                                   0x08000131   Thumb Code     8  __main.o(!!!main)
    __scatterload                            0x08000139   Thumb Code     0  __scatter.o(!!!scatter)
    __scatterload_rt2                        0x08000139   Thumb Code    44  __scatter.o(!!!scatter)
    __scatterload_rt2_thumb_only             0x08000139   Thumb Code     0  __scatter.o(!!!scatter)
    __scatterload_null                       0x08000147   Thumb Code     0  __scatter.o(!!!scatter)
    __scatterload_copy                       0x0800016d   Thumb Code    26  __scatter_copy.o(!!handler_copy)
    __scatterload_zeroinit                   0x08000189   Thumb Code    28  __scatter_zi.o(!!handler_zi)
    _printf_d                                0x080001a5   Thumb Code     0  _printf_d.o(.ARM.Collect$$_printf_percent$$00000009)
    _printf_percent                          0x080001a5   Thumb Code     0  _printf_percent.o(.ARM.Collect$$_printf_percent$$00000000)
    _printf_s                                0x080001ab   Thumb Code     0  _printf_s.o(.ARM.Collect$$_printf_percent$$00000014)
    _printf_percent_end                      0x080001b1   Thumb Code     0  _printf_percent_end.o(.ARM.Collect$$_printf_percent$$00000017)
    __rt_lib_init                            0x080001b5   Thumb Code     0  libinit.o(.ARM.Collect$$libinit$$00000000)
    __rt_lib_init_heap_1                     0x080001bb   Thumb Code     0  libinit2.o(.ARM.Collect$$libinit$$00000006)
    __rt_lib_init_lc_common                  0x080001bb   Thumb Code     0  libinit2.o(.ARM.Collect$$libinit$$0000000B)
    __rt_lib_init_rand_1                     0x080001bb   Thumb Code     0  libinit2.o(.ARM.Collect$$libinit$$0000000A)
    __rt_lib_init_user_alloc_1               0x080001bb   Thumb Code     0  libinit2.o(.ARM.Collect$$libinit$$00000008)
    __rt_lib_init_lc_collate_1               0x080001c1   Thumb Code     0  libinit2.o(.ARM.Collect$$libinit$$0000000D)
    __rt_lib_init_lc_ctype_2                 0x080001c1   Thumb Code     0  libinit2.o(.ARM.Collect$$libinit$$0000000E)
    __rt_lib_init_alloca_1                   0x080001cd   Thumb Code     0  libinit2.o(.ARM.Collect$$libinit$$0000002A)
    __rt_lib_init_argv_1                     0x080001cd   Thumb Code     0  libinit2.o(.ARM.Collect$$libinit$$00000028)
    __rt_lib_init_atexit_1                   0x080001cd   Thumb Code     0  libinit2.o(.ARM.Collect$$libinit$$00000017)
    __rt_lib_init_clock_1                    0x080001cd   Thumb Code     0  libinit2.o(.ARM.Collect$$libinit$$0000001D)
    __rt_lib_init_cpp_1                      0x080001cd   Thumb Code     0  libinit2.o(.ARM.Collect$$libinit$$0000002E)
    __rt_lib_init_exceptions_1               0x080001cd   Thumb Code     0  libinit2.o(.ARM.Collect$$libinit$$0000002C)
    __rt_lib_init_fp_trap_1                  0x080001cd   Thumb Code     0  libinit2.o(.ARM.Collect$$libinit$$0000001B)
    __rt_lib_init_getenv_1                   0x080001cd   Thumb Code     0  libinit2.o(.ARM.Collect$$libinit$$0000001F)
    __rt_lib_init_lc_ctype_1                 0x080001cd   Thumb Code     0  libinit2.o(.ARM.Collect$$libinit$$0000000F)
    __rt_lib_init_lc_monetary_1              0x080001cd   Thumb Code     0  libinit2.o(.ARM.Collect$$libinit$$00000011)
    __rt_lib_init_lc_numeric_1               0x080001cd   Thumb Code     0  libinit2.o(.ARM.Collect$$libinit$$00000013)
    __rt_lib_init_lc_time_1                  0x080001cd   Thumb Code     0  libinit2.o(.ARM.Collect$$libinit$$00000015)
    __rt_lib_init_return                     0x080001cd   Thumb Code     0  libinit2.o(.ARM.Collect$$libinit$$0000002F)
    __rt_lib_init_signal_1                   0x080001cd   Thumb Code     0  libinit2.o(.ARM.Collect$$libinit$$00000019)
    __rt_lib_init_stdio_1                    0x080001cd   Thumb Code     0  libinit2.o(.ARM.Collect$$libinit$$00000021)
    __rt_lib_shutdown                        0x080001cf   Thumb Code     0  libshutdown.o(.ARM.Collect$$libshutdown$$00000000)
    __rt_lib_shutdown_fp_trap_1              0x080001d1   Thumb Code     0  libshutdown2.o(.ARM.Collect$$libshutdown$$00000006)
    __rt_lib_shutdown_heap_1                 0x080001d1   Thumb Code     0  libshutdown2.o(.ARM.Collect$$libshutdown$$0000000E)
    __rt_lib_shutdown_return                 0x080001d1   Thumb Code     0  libshutdown2.o(.ARM.Collect$$libshutdown$$0000000F)
    __rt_lib_shutdown_signal_1               0x080001d1   Thumb Code     0  libshutdown2.o(.ARM.Collect$$libshutdown$$00000009)
    __rt_lib_shutdown_stdio_1                0x080001d1   Thumb Code     0  libshutdown2.o(.ARM.Collect$$libshutdown$$00000003)
    __rt_lib_shutdown_user_alloc_1           0x080001d1   Thumb Code     0  libshutdown2.o(.ARM.Collect$$libshutdown$$0000000B)
    __rt_entry                               0x080001d3   Thumb Code     0  rtentry.o(.ARM.Collect$$rtentry$$00000000)
    __rt_entry_presh_1                       0x080001d3   Thumb Code     0  rtentry2.o(.ARM.Collect$$rtentry$$00000002)
    __rt_entry_sh                            0x080001d3   Thumb Code     0  rtentry4.o(.ARM.Collect$$rtentry$$00000004)
    __rt_entry_li                            0x080001d9   Thumb Code     0  rtentry2.o(.ARM.Collect$$rtentry$$0000000A)
    __rt_entry_postsh_1                      0x080001d9   Thumb Code     0  rtentry2.o(.ARM.Collect$$rtentry$$00000009)
    __rt_entry_main                          0x080001dd   Thumb Code     0  rtentry2.o(.ARM.Collect$$rtentry$$0000000D)
    __rt_entry_postli_1                      0x080001dd   Thumb Code     0  rtentry2.o(.ARM.Collect$$rtentry$$0000000C)
    __rt_exit                                0x080001e5   Thumb Code     0  rtexit.o(.ARM.Collect$$rtexit$$00000000)
    __rt_exit_ls                             0x080001e7   Thumb Code     0  rtexit2.o(.ARM.Collect$$rtexit$$00000003)
    __rt_exit_prels_1                        0x080001e7   Thumb Code     0  rtexit2.o(.ARM.Collect$$rtexit$$00000002)
    __rt_exit_exit                           0x080001eb   Thumb Code     0  rtexit2.o(.ARM.Collect$$rtexit$$00000004)
    Reset_Handler                            0x080001f1   Thumb Code     8  startup_stm32f10x_hd.o(.text)
    ADC3_IRQHandler                          0x0800020b   Thumb Code     0  startup_stm32f10x_hd.o(.text)
    DMA2_Channel1_IRQHandler                 0x0800020b   Thumb Code     0  startup_stm32f10x_hd.o(.text)
    DMA2_Channel2_IRQHandler                 0x0800020b   Thumb Code     0  startup_stm32f10x_hd.o(.text)
    DMA2_Channel3_IRQHandler                 0x0800020b   Thumb Code     0  startup_stm32f10x_hd.o(.text)
    DMA2_Channel4_5_IRQHandler               0x0800020b   Thumb Code     0  startup_stm32f10x_hd.o(.text)
    FSMC_IRQHandler                          0x0800020b   Thumb Code     0  startup_stm32f10x_hd.o(.text)
    SDIO_IRQHandler                          0x0800020b   Thumb Code     0  startup_stm32f10x_hd.o(.text)
    SPI3_IRQHandler                          0x0800020b   Thumb Code     0  startup_stm32f10x_hd.o(.text)
    TIM5_IRQHandler                          0x0800020b   Thumb Code     0  startup_stm32f10x_hd.o(.text)
    TIM6_IRQHandler                          0x0800020b   Thumb Code     0  startup_stm32f10x_hd.o(.text)
    TIM7_IRQHandler                          0x0800020b   Thumb Code     0  startup_stm32f10x_hd.o(.text)
    TIM8_BRK_IRQHandler                      0x0800020b   Thumb Code     0  startup_stm32f10x_hd.o(.text)
    TIM8_CC_IRQHandler                       0x0800020b   Thumb Code     0  startup_stm32f10x_hd.o(.text)
    TIM8_TRG_COM_IRQHandler                  0x0800020b   Thumb Code     0  startup_stm32f10x_hd.o(.text)
    TIM8_UP_IRQHandler                       0x0800020b   Thumb Code     0  startup_stm32f10x_hd.o(.text)
    UART4_IRQHandler                         0x0800020b   Thumb Code     0  startup_stm32f10x_hd.o(.text)
    USBWakeUp_IRQHandler                     0x0800020b   Thumb Code     0  startup_stm32f10x_hd.o(.text)
    USB_HP_CAN1_TX_IRQHandler                0x0800020b   Thumb Code     0  startup_stm32f10x_hd.o(.text)
    USB_LP_CAN1_RX0_IRQHandler               0x0800020b   Thumb Code     0  startup_stm32f10x_hd.o(.text)
    __user_initial_stackheap                 0x0800020d   Thumb Code     0  startup_stm32f10x_hd.o(.text)
    FLASH_SetLatency                         0x08000231   Thumb Code    18  stm32f10x_flash.o(.text)
    FLASH_HalfCycleAccessCmd                 0x08000243   Thumb Code    22  stm32f10x_flash.o(.text)
    FLASH_PrefetchBufferCmd                  0x08000259   Thumb Code    22  stm32f10x_flash.o(.text)
    FLASH_Unlock                             0x0800026f   Thumb Code    12  stm32f10x_flash.o(.text)
    FLASH_UnlockBank1                        0x0800027b   Thumb Code    12  stm32f10x_flash.o(.text)
    FLASH_Lock                               0x08000287   Thumb Code    14  stm32f10x_flash.o(.text)
    FLASH_LockBank1                          0x08000295   Thumb Code    14  stm32f10x_flash.o(.text)
    FLASH_GetBank1Status                     0x080002a3   Thumb Code    50  stm32f10x_flash.o(.text)
    FLASH_WaitForLastOperation               0x080002d5   Thumb Code    38  stm32f10x_flash.o(.text)
    FLASH_ErasePage                          0x080002fb   Thumb Code    72  stm32f10x_flash.o(.text)
    FLASH_EraseAllPages                      0x08000343   Thumb Code    68  stm32f10x_flash.o(.text)
    FLASH_WaitForLastBank1Operation          0x08000387   Thumb Code    38  stm32f10x_flash.o(.text)
    FLASH_EraseAllBank1Pages                 0x080003ad   Thumb Code    68  stm32f10x_flash.o(.text)
    FLASH_GetReadOutProtectionStatus         0x080003f1   Thumb Code    20  stm32f10x_flash.o(.text)
    FLASH_EraseOptionBytes                   0x08000405   Thumb Code   150  stm32f10x_flash.o(.text)
    FLASH_ProgramWord                        0x0800049b   Thumb Code    96  stm32f10x_flash.o(.text)
    FLASH_ProgramHalfWord                    0x080004fb   Thumb Code    60  stm32f10x_flash.o(.text)
    FLASH_ProgramOptionByteData              0x08000537   Thumb Code    72  stm32f10x_flash.o(.text)
    FLASH_EnableWriteProtection              0x0800057f   Thumb Code   200  stm32f10x_flash.o(.text)
    FLASH_ReadOutProtection                  0x08000647   Thumb Code   156  stm32f10x_flash.o(.text)
    FLASH_UserOptionByteConfig               0x080006e3   Thumb Code    88  stm32f10x_flash.o(.text)
    FLASH_GetUserOptionByte                  0x0800073b   Thumb Code     8  stm32f10x_flash.o(.text)
    FLASH_GetWriteProtectionOptionByte       0x08000743   Thumb Code     6  stm32f10x_flash.o(.text)
    FLASH_GetPrefetchBufferStatus            0x08000749   Thumb Code    20  stm32f10x_flash.o(.text)
    FLASH_ITConfig                           0x0800075d   Thumb Code    26  stm32f10x_flash.o(.text)
    FLASH_GetFlagStatus                      0x08000777   Thumb Code    42  stm32f10x_flash.o(.text)
    FLASH_ClearFlag                          0x080007a1   Thumb Code     6  stm32f10x_flash.o(.text)
    FLASH_GetStatus                          0x080007a7   Thumb Code    50  stm32f10x_flash.o(.text)
    GPIO_DeInit                              0x080007e9   Thumb Code   172  stm32f10x_gpio.o(.text)
    GPIO_AFIODeInit                          0x08000895   Thumb Code    20  stm32f10x_gpio.o(.text)
    GPIO_Init                                0x080008a9   Thumb Code   274  stm32f10x_gpio.o(.text)
    GPIO_StructInit                          0x080009bb   Thumb Code    16  stm32f10x_gpio.o(.text)
    GPIO_ReadInputDataBit                    0x080009cb   Thumb Code    18  stm32f10x_gpio.o(.text)
    GPIO_ReadInputData                       0x080009dd   Thumb Code     8  stm32f10x_gpio.o(.text)
    GPIO_ReadOutputDataBit                   0x080009e5   Thumb Code    18  stm32f10x_gpio.o(.text)
    GPIO_ReadOutputData                      0x080009f7   Thumb Code     8  stm32f10x_gpio.o(.text)
    GPIO_SetBits                             0x080009ff   Thumb Code     4  stm32f10x_gpio.o(.text)
    GPIO_ResetBits                           0x08000a03   Thumb Code     4  stm32f10x_gpio.o(.text)
    GPIO_WriteBit                            0x08000a07   Thumb Code    10  stm32f10x_gpio.o(.text)
    GPIO_Write                               0x08000a11   Thumb Code     4  stm32f10x_gpio.o(.text)
    GPIO_PinLockConfig                       0x08000a15   Thumb Code    18  stm32f10x_gpio.o(.text)
    GPIO_EventOutputConfig                   0x08000a27   Thumb Code    26  stm32f10x_gpio.o(.text)
    GPIO_EventOutputCmd                      0x08000a41   Thumb Code     6  stm32f10x_gpio.o(.text)
    GPIO_PinRemapConfig                      0x08000a47   Thumb Code   138  stm32f10x_gpio.o(.text)
    GPIO_EXTILineConfig                      0x08000ad1   Thumb Code    66  stm32f10x_gpio.o(.text)
    GPIO_ETH_MediaInterfaceConfig            0x08000b13   Thumb Code     6  stm32f10x_gpio.o(.text)
    RCC_DeInit                               0x08000b41   Thumb Code    64  stm32f10x_rcc.o(.text)
    RCC_HSEConfig                            0x08000b81   Thumb Code    70  stm32f10x_rcc.o(.text)
    RCC_GetFlagStatus                        0x08000bc7   Thumb Code    56  stm32f10x_rcc.o(.text)
    RCC_WaitForHSEStartUp                    0x08000bff   Thumb Code    48  stm32f10x_rcc.o(.text)
    RCC_AdjustHSICalibrationValue            0x08000c2f   Thumb Code    20  stm32f10x_rcc.o(.text)
    RCC_HSICmd                               0x08000c43   Thumb Code     6  stm32f10x_rcc.o(.text)
    RCC_PLLConfig                            0x08000c49   Thumb Code    24  stm32f10x_rcc.o(.text)
    RCC_PLLCmd                               0x08000c61   Thumb Code     6  stm32f10x_rcc.o(.text)
    RCC_SYSCLKConfig                         0x08000c67   Thumb Code    18  stm32f10x_rcc.o(.text)
    RCC_GetSYSCLKSource                      0x08000c79   Thumb Code    10  stm32f10x_rcc.o(.text)
    RCC_HCLKConfig                           0x08000c83   Thumb Code    18  stm32f10x_rcc.o(.text)
    RCC_PCLK1Config                          0x08000c95   Thumb Code    18  stm32f10x_rcc.o(.text)
    RCC_PCLK2Config                          0x08000ca7   Thumb Code    20  stm32f10x_rcc.o(.text)
    RCC_ITConfig                             0x08000cbb   Thumb Code    30  stm32f10x_rcc.o(.text)
    RCC_USBCLKConfig                         0x08000cd9   Thumb Code     6  stm32f10x_rcc.o(.text)
    RCC_ADCCLKConfig                         0x08000cdf   Thumb Code    18  stm32f10x_rcc.o(.text)
    RCC_LSEConfig                            0x08000cf1   Thumb Code    44  stm32f10x_rcc.o(.text)
    RCC_LSICmd                               0x08000d1d   Thumb Code     6  stm32f10x_rcc.o(.text)
    RCC_RTCCLKConfig                         0x08000d23   Thumb Code    12  stm32f10x_rcc.o(.text)
    RCC_RTCCLKCmd                            0x08000d2f   Thumb Code     8  stm32f10x_rcc.o(.text)
    RCC_GetClocksFreq                        0x08000d37   Thumb Code   192  stm32f10x_rcc.o(.text)
    RCC_AHBPeriphClockCmd                    0x08000df7   Thumb Code    26  stm32f10x_rcc.o(.text)
    RCC_APB2PeriphClockCmd                   0x08000e11   Thumb Code    26  stm32f10x_rcc.o(.text)
    RCC_APB1PeriphClockCmd                   0x08000e2b   Thumb Code    26  stm32f10x_rcc.o(.text)
    RCC_APB2PeriphResetCmd                   0x08000e45   Thumb Code    26  stm32f10x_rcc.o(.text)
    RCC_APB1PeriphResetCmd                   0x08000e5f   Thumb Code    26  stm32f10x_rcc.o(.text)
    RCC_BackupResetCmd                       0x08000e79   Thumb Code     8  stm32f10x_rcc.o(.text)
    RCC_ClockSecuritySystemCmd               0x08000e81   Thumb Code     6  stm32f10x_rcc.o(.text)
    RCC_MCOConfig                            0x08000e87   Thumb Code     6  stm32f10x_rcc.o(.text)
    RCC_ClearFlag                            0x08000e8d   Thumb Code    14  stm32f10x_rcc.o(.text)
    RCC_GetITStatus                          0x08000e9b   Thumb Code    20  stm32f10x_rcc.o(.text)
    RCC_ClearITPendingBit                    0x08000eaf   Thumb Code     6  stm32f10x_rcc.o(.text)
    TIM_DeInit                               0x08000ee1   Thumb Code   424  stm32f10x_tim.o(.text)
    TIM_TimeBaseInit                         0x08001089   Thumb Code   122  stm32f10x_tim.o(.text)
    TIM_OC1Init                              0x08001103   Thumb Code   132  stm32f10x_tim.o(.text)
    TIM_OC2Init                              0x08001187   Thumb Code   146  stm32f10x_tim.o(.text)
    TIM_OC3Init                              0x08001219   Thumb Code   142  stm32f10x_tim.o(.text)
    TIM_OC4Init                              0x080012a7   Thumb Code   174  stm32f10x_tim.o(.text)
    TIM_SetIC4Prescaler                      0x08001355   Thumb Code    22  stm32f10x_tim.o(.text)
    TIM_SetIC3Prescaler                      0x080013e1   Thumb Code    18  stm32f10x_tim.o(.text)
    TIM_SetIC2Prescaler                      0x08001465   Thumb Code    22  stm32f10x_tim.o(.text)
    TIM_SetIC1Prescaler                      0x080014f1   Thumb Code    18  stm32f10x_tim.o(.text)
    TIM_ICInit                               0x0800156d   Thumb Code   150  stm32f10x_tim.o(.text)
    TIM_PWMIConfig                           0x08001603   Thumb Code   124  stm32f10x_tim.o(.text)
    TIM_BDTRConfig                           0x0800167f   Thumb Code    32  stm32f10x_tim.o(.text)
    TIM_TimeBaseStructInit                   0x0800169f   Thumb Code    18  stm32f10x_tim.o(.text)
    TIM_OCStructInit                         0x080016b1   Thumb Code    20  stm32f10x_tim.o(.text)
    TIM_ICStructInit                         0x080016c5   Thumb Code    18  stm32f10x_tim.o(.text)
    TIM_BDTRStructInit                       0x080016d7   Thumb Code    18  stm32f10x_tim.o(.text)
    TIM_Cmd                                  0x080016e9   Thumb Code    24  stm32f10x_tim.o(.text)
    TIM_CtrlPWMOutputs                       0x08001701   Thumb Code    50  stm32f10x_tim.o(.text)
    TIM_ITConfig                             0x08001733   Thumb Code    24  stm32f10x_tim.o(.text)
    TIM_GenerateEvent                        0x0800174b   Thumb Code     4  stm32f10x_tim.o(.text)
    TIM_DMAConfig                            0x0800174f   Thumb Code    10  stm32f10x_tim.o(.text)
    TIM_DMACmd                               0x08001759   Thumb Code    24  stm32f10x_tim.o(.text)
    TIM_InternalClockConfig                  0x08001771   Thumb Code    12  stm32f10x_tim.o(.text)
    TIM_SelectInputTrigger                   0x0800177d   Thumb Code    18  stm32f10x_tim.o(.text)
    TIM_ITRxExternalClockConfig              0x0800178f   Thumb Code    24  stm32f10x_tim.o(.text)
    TIM_TIxExternalClockConfig               0x080017a7   Thumb Code    62  stm32f10x_tim.o(.text)
    TIM_ETRConfig                            0x080017e5   Thumb Code    24  stm32f10x_tim.o(.text)
    TIM_ETRClockMode1Config                  0x080017fd   Thumb Code    54  stm32f10x_tim.o(.text)
    TIM_ETRClockMode2Config                  0x08001833   Thumb Code    32  stm32f10x_tim.o(.text)
    TIM_PrescalerConfig                      0x08001853   Thumb Code     6  stm32f10x_tim.o(.text)
    TIM_CounterModeConfig                    0x08001859   Thumb Code    18  stm32f10x_tim.o(.text)
    TIM_EncoderInterfaceConfig               0x0800186b   Thumb Code    62  stm32f10x_tim.o(.text)
    TIM_ForcedOC1Config                      0x080018a9   Thumb Code    18  stm32f10x_tim.o(.text)
    TIM_ForcedOC2Config                      0x080018bb   Thumb Code    22  stm32f10x_tim.o(.text)
    TIM_ForcedOC3Config                      0x080018d1   Thumb Code    18  stm32f10x_tim.o(.text)
    TIM_ForcedOC4Config                      0x080018e3   Thumb Code    22  stm32f10x_tim.o(.text)
    TIM_ARRPreloadConfig                     0x080018f9   Thumb Code    24  stm32f10x_tim.o(.text)
    TIM_SelectCOM                            0x08001911   Thumb Code    24  stm32f10x_tim.o(.text)
    TIM_SelectCCDMA                          0x08001929   Thumb Code    24  stm32f10x_tim.o(.text)
    TIM_CCPreloadControl                     0x08001941   Thumb Code    24  stm32f10x_tim.o(.text)
    TIM_OC1PreloadConfig                     0x08001959   Thumb Code    18  stm32f10x_tim.o(.text)
    TIM_OC2PreloadConfig                     0x0800196b   Thumb Code    22  stm32f10x_tim.o(.text)
    TIM_OC3PreloadConfig                     0x08001981   Thumb Code    18  stm32f10x_tim.o(.text)
    TIM_OC4PreloadConfig                     0x08001993   Thumb Code    22  stm32f10x_tim.o(.text)
    TIM_OC1FastConfig                        0x080019a9   Thumb Code    18  stm32f10x_tim.o(.text)
    TIM_OC2FastConfig                        0x080019bb   Thumb Code    22  stm32f10x_tim.o(.text)
    TIM_OC3FastConfig                        0x080019d1   Thumb Code    18  stm32f10x_tim.o(.text)
    TIM_OC4FastConfig                        0x080019e3   Thumb Code    22  stm32f10x_tim.o(.text)
    TIM_ClearOC1Ref                          0x080019f9   Thumb Code    18  stm32f10x_tim.o(.text)
    TIM_ClearOC2Ref                          0x08001a0b   Thumb Code    20  stm32f10x_tim.o(.text)
    TIM_ClearOC3Ref                          0x08001a1f   Thumb Code    18  stm32f10x_tim.o(.text)
    TIM_ClearOC4Ref                          0x08001a31   Thumb Code    20  stm32f10x_tim.o(.text)
    TIM_OC1PolarityConfig                    0x08001a45   Thumb Code    18  stm32f10x_tim.o(.text)
    TIM_OC1NPolarityConfig                   0x08001a57   Thumb Code    18  stm32f10x_tim.o(.text)
    TIM_OC2PolarityConfig                    0x08001a69   Thumb Code    22  stm32f10x_tim.o(.text)
    TIM_OC2NPolarityConfig                   0x08001a7f   Thumb Code    22  stm32f10x_tim.o(.text)
    TIM_OC3PolarityConfig                    0x08001a95   Thumb Code    22  stm32f10x_tim.o(.text)
    TIM_OC3NPolarityConfig                   0x08001aab   Thumb Code    22  stm32f10x_tim.o(.text)
    TIM_OC4PolarityConfig                    0x08001ac1   Thumb Code    22  stm32f10x_tim.o(.text)
    TIM_CCxCmd                               0x08001ad7   Thumb Code    34  stm32f10x_tim.o(.text)
    TIM_CCxNCmd                              0x08001af9   Thumb Code    34  stm32f10x_tim.o(.text)
    TIM_SelectOCxM                           0x08001b1b   Thumb Code    82  stm32f10x_tim.o(.text)
    TIM_UpdateDisableConfig                  0x08001b6d   Thumb Code    24  stm32f10x_tim.o(.text)
    TIM_UpdateRequestConfig                  0x08001b85   Thumb Code    24  stm32f10x_tim.o(.text)
    TIM_SelectHallSensor                     0x08001b9d   Thumb Code    24  stm32f10x_tim.o(.text)
    TIM_SelectOnePulseMode                   0x08001bb5   Thumb Code    18  stm32f10x_tim.o(.text)
    TIM_SelectOutputTrigger                  0x08001bc7   Thumb Code    18  stm32f10x_tim.o(.text)
    TIM_SelectSlaveMode                      0x08001bd9   Thumb Code    18  stm32f10x_tim.o(.text)
    TIM_SelectMasterSlaveMode                0x08001beb   Thumb Code    18  stm32f10x_tim.o(.text)
    TIM_SetCounter                           0x08001bfd   Thumb Code     4  stm32f10x_tim.o(.text)
    TIM_SetAutoreload                        0x08001c01   Thumb Code     4  stm32f10x_tim.o(.text)
    TIM_SetCompare1                          0x08001c05   Thumb Code     4  stm32f10x_tim.o(.text)
    TIM_SetCompare2                          0x08001c09   Thumb Code     4  stm32f10x_tim.o(.text)
    TIM_SetCompare3                          0x08001c0d   Thumb Code     4  stm32f10x_tim.o(.text)
    TIM_SetCompare4                          0x08001c11   Thumb Code     6  stm32f10x_tim.o(.text)
    TIM_SetClockDivision                     0x08001c17   Thumb Code    18  stm32f10x_tim.o(.text)
    TIM_GetCapture1                          0x08001c29   Thumb Code     6  stm32f10x_tim.o(.text)
    TIM_GetCapture2                          0x08001c2f   Thumb Code     6  stm32f10x_tim.o(.text)
    TIM_GetCapture3                          0x08001c35   Thumb Code     6  stm32f10x_tim.o(.text)
    TIM_GetCapture4                          0x08001c3b   Thumb Code     8  stm32f10x_tim.o(.text)
    TIM_GetCounter                           0x08001c43   Thumb Code     6  stm32f10x_tim.o(.text)
    TIM_GetPrescaler                         0x08001c49   Thumb Code     6  stm32f10x_tim.o(.text)
    TIM_GetFlagStatus                        0x08001c4f   Thumb Code    18  stm32f10x_tim.o(.text)
    TIM_ClearFlag                            0x08001c61   Thumb Code     6  stm32f10x_tim.o(.text)
    TIM_GetITStatus                          0x08001c67   Thumb Code    34  stm32f10x_tim.o(.text)
    TIM_ClearITPendingBit                    0x08001c89   Thumb Code     6  stm32f10x_tim.o(.text)
    USART_DeInit                             0x08001c91   Thumb Code   134  stm32f10x_usart.o(.text)
    USART_Init                               0x08001d17   Thumb Code   210  stm32f10x_usart.o(.text)
    USART_StructInit                         0x08001de9   Thumb Code    24  stm32f10x_usart.o(.text)
    USART_ClockInit                          0x08001e01   Thumb Code    34  stm32f10x_usart.o(.text)
    USART_ClockStructInit                    0x08001e23   Thumb Code    12  stm32f10x_usart.o(.text)
    USART_Cmd                                0x08001e2f   Thumb Code    24  stm32f10x_usart.o(.text)
    USART_ITConfig                           0x08001e47   Thumb Code    74  stm32f10x_usart.o(.text)
    USART_DMACmd                             0x08001e91   Thumb Code    24  stm32f10x_usart.o(.text)
    USART_SetAddress                         0x08001ea9   Thumb Code    18  stm32f10x_usart.o(.text)
    USART_WakeUpConfig                       0x08001ebb   Thumb Code    18  stm32f10x_usart.o(.text)
    USART_ReceiverWakeUpCmd                  0x08001ecd   Thumb Code    24  stm32f10x_usart.o(.text)
    USART_LINBreakDetectLengthConfig         0x08001ee5   Thumb Code    18  stm32f10x_usart.o(.text)
    USART_LINCmd                             0x08001ef7   Thumb Code    24  stm32f10x_usart.o(.text)
    USART_SendData                           0x08001f0f   Thumb Code     8  stm32f10x_usart.o(.text)
    USART_ReceiveData                        0x08001f17   Thumb Code    10  stm32f10x_usart.o(.text)
    USART_SendBreak                          0x08001f21   Thumb Code    10  stm32f10x_usart.o(.text)
    USART_SetGuardTime                       0x08001f2b   Thumb Code    16  stm32f10x_usart.o(.text)
    USART_SetPrescaler                       0x08001f3b   Thumb Code    16  stm32f10x_usart.o(.text)
    USART_SmartCardCmd                       0x08001f4b   Thumb Code    24  stm32f10x_usart.o(.text)
    USART_SmartCardNACKCmd                   0x08001f63   Thumb Code    24  stm32f10x_usart.o(.text)
    USART_HalfDuplexCmd                      0x08001f7b   Thumb Code    24  stm32f10x_usart.o(.text)
    USART_OverSampling8Cmd                   0x08001f93   Thumb Code    22  stm32f10x_usart.o(.text)
    USART_OneBitMethodCmd                    0x08001fa9   Thumb Code    24  stm32f10x_usart.o(.text)
    USART_IrDAConfig                         0x08001fc1   Thumb Code    18  stm32f10x_usart.o(.text)
    USART_IrDACmd                            0x08001fd3   Thumb Code    24  stm32f10x_usart.o(.text)
    USART_GetFlagStatus                      0x08001feb   Thumb Code    26  stm32f10x_usart.o(.text)
    USART_ClearFlag                          0x08002005   Thumb Code    18  stm32f10x_usart.o(.text)
    USART_GetITStatus                        0x08002017   Thumb Code    84  stm32f10x_usart.o(.text)
    USART_ClearITPendingBit                  0x0800206b   Thumb Code    50  stm32f10x_usart.o(.text)
    NVIC_PriorityGroupConfig                 0x0800209d   Thumb Code    10  misc.o(.text)
    NVIC_Init                                0x080020a7   Thumb Code   102  misc.o(.text)
    NVIC_SetVectorTable                      0x0800210d   Thumb Code    14  misc.o(.text)
    NVIC_SystemLPConfig                      0x0800211b   Thumb Code    34  misc.o(.text)
    SysTick_CLKSourceConfig                  0x0800213d   Thumb Code    40  misc.o(.text)
    SystemInit                               0x08002241   Thumb Code    78  system_stm32f10x.o(.text)
    SystemCoreClockUpdate                    0x0800228f   Thumb Code   142  system_stm32f10x.o(.text)
    sendTempture                             0x08002341   Thumb Code    94  main.o(.text)
    main                                     0x0800239f   Thumb Code    92  main.o(.text)
    NMI_Handler                              0x080024dd   Thumb Code     2  stm32f10x_it.o(.text)
    HardFault_Handler                        0x080024df   Thumb Code     2  stm32f10x_it.o(.text)
    MemManage_Handler                        0x080024e1   Thumb Code     2  stm32f10x_it.o(.text)
    BusFault_Handler                         0x080024e3   Thumb Code     2  stm32f10x_it.o(.text)
    UsageFault_Handler                       0x080024e5   Thumb Code     2  stm32f10x_it.o(.text)
    DebugMon_Handler                         0x080024e7   Thumb Code     2  stm32f10x_it.o(.text)
    SVC_Handler                              0x080024e9   Thumb Code     2  stm32f10x_it.o(.text)
    PendSV_Handler                           0x080024eb   Thumb Code     2  stm32f10x_it.o(.text)
    SysTick_Handler                          0x080024ed   Thumb Code     2  stm32f10x_it.o(.text)
    WWDG_IRQHandler                          0x080024ef   Thumb Code     2  stm32f10x_it.o(.text)
    PVD_IRQHandler                           0x080024f1   Thumb Code     2  stm32f10x_it.o(.text)
    TAMPER_IRQHandler                        0x080024f3   Thumb Code     2  stm32f10x_it.o(.text)
    RTC_IRQHandler                           0x080024f5   Thumb Code     2  stm32f10x_it.o(.text)
    FLASH_IRQHandler                         0x080024f7   Thumb Code     2  stm32f10x_it.o(.text)
    RCC_IRQHandler                           0x080024f9   Thumb Code     2  stm32f10x_it.o(.text)
    EXTI0_IRQHandler                         0x080024fb   Thumb Code     2  stm32f10x_it.o(.text)
    EXTI1_IRQHandler                         0x080024fd   Thumb Code     2  stm32f10x_it.o(.text)
    EXTI2_IRQHandler                         0x080024ff   Thumb Code     2  stm32f10x_it.o(.text)
    EXTI3_IRQHandler                         0x08002501   Thumb Code     2  stm32f10x_it.o(.text)
    EXTI4_IRQHandler                         0x08002503   Thumb Code     2  stm32f10x_it.o(.text)
    DMA1_Channel1_IRQHandler                 0x08002505   Thumb Code     2  stm32f10x_it.o(.text)
    DMA1_Channel2_IRQHandler                 0x08002507   Thumb Code     2  stm32f10x_it.o(.text)
    DMA1_Channel3_IRQHandler                 0x08002509   Thumb Code     2  stm32f10x_it.o(.text)
    DMA1_Channel4_IRQHandler                 0x0800250b   Thumb Code     2  stm32f10x_it.o(.text)
    DMA1_Channel5_IRQHandler                 0x0800250d   Thumb Code     2  stm32f10x_it.o(.text)
    DMA1_Channel6_IRQHandler                 0x0800250f   Thumb Code     2  stm32f10x_it.o(.text)
    DMA1_Channel7_IRQHandler                 0x08002511   Thumb Code     2  stm32f10x_it.o(.text)
    ADC1_2_IRQHandler                        0x08002513   Thumb Code     2  stm32f10x_it.o(.text)
    CAN1_TX_IRQHandler                       0x08002515   Thumb Code     2  stm32f10x_it.o(.text)
    CAN1_RX0_IRQHandler                      0x08002517   Thumb Code     2  stm32f10x_it.o(.text)
    CAN1_RX1_IRQHandler                      0x08002519   Thumb Code     2  stm32f10x_it.o(.text)
    CAN1_SCE_IRQHandler                      0x0800251b   Thumb Code     2  stm32f10x_it.o(.text)
    CAN2_SCE_IRQHandler                      0x0800251d   Thumb Code     2  stm32f10x_it.o(.text)
    CAN2_RX0_IRQHandler                      0x0800251f   Thumb Code     2  stm32f10x_it.o(.text)
    EXTI9_5_IRQHandler                       0x08002521   Thumb Code     2  stm32f10x_it.o(.text)
    TIM1_BRK_IRQHandler                      0x08002523   Thumb Code     2  stm32f10x_it.o(.text)
    TIM1_UP_IRQHandler                       0x08002525   Thumb Code     2  stm32f10x_it.o(.text)
    TIM1_TRG_COM_IRQHandler                  0x08002527   Thumb Code     2  stm32f10x_it.o(.text)
    TIM1_CC_IRQHandler                       0x08002529   Thumb Code     2  stm32f10x_it.o(.text)
    TIM2_IRQHandler                          0x0800252b   Thumb Code     2  stm32f10x_it.o(.text)
    TIM3_IRQHandler                          0x0800252d   Thumb Code     2  stm32f10x_it.o(.text)
    TIM4_IRQHandler                          0x0800252f   Thumb Code     2  stm32f10x_it.o(.text)
    I2C1_EV_IRQHandler                       0x08002531   Thumb Code     2  stm32f10x_it.o(.text)
    I2C1_ER_IRQHandler                       0x08002533   Thumb Code     2  stm32f10x_it.o(.text)
    I2C2_EV_IRQHandler                       0x08002535   Thumb Code     2  stm32f10x_it.o(.text)
    I2C2_ER_IRQHandler                       0x08002537   Thumb Code     2  stm32f10x_it.o(.text)
    SPI1_IRQHandler                          0x08002539   Thumb Code     2  stm32f10x_it.o(.text)
    SPI2_IRQHandler                          0x0800253b   Thumb Code     2  stm32f10x_it.o(.text)
    USART1_IRQHandler                        0x0800253d   Thumb Code     2  stm32f10x_it.o(.text)
    USART3_IRQHandler                        0x0800253f   Thumb Code     2  stm32f10x_it.o(.text)
    UART5_IRQHandler                         0x08002541   Thumb Code     2  stm32f10x_it.o(.text)
    EXTI15_10_IRQHandler                     0x08002543   Thumb Code     2  stm32f10x_it.o(.text)
    RTCAlarm_IRQHandler                      0x08002545   Thumb Code     2  stm32f10x_it.o(.text)
    OTG_FS_WKUP_IRQHandler                   0x08002547   Thumb Code     2  stm32f10x_it.o(.text)
    RCC_Configuration                        0x08002549   Thumb Code   118  driver.o(.text)
    NVIC_Configuration                       0x080025bf   Thumb Code    48  driver.o(.text)
    HW_LED_PinInit                           0x080025ef   Thumb Code    58  driver.o(.text)
    USART1_PinInit                           0x08002629   Thumb Code    54  driver.o(.text)
    GPIO_Configuration                       0x0800265f   Thumb Code    12  driver.o(.text)
    USART1_Configuration                     0x0800266b   Thumb Code    96  driver.o(.text)
    InitAllPeriph                            0x080026cb   Thumb Code    32  driver.o(.text)
    Refresh_SFR                              0x080026eb   Thumb Code     2  driver.o(.text)
    SerialPutChar                            0x080026f9   Thumb Code    28  usart.o(.text)
    SerialPutChars                           0x08002715   Thumb Code    28  usart.o(.text)
    SerialPutString                          0x08002731   Thumb Code    22  usart.o(.text)
    DelayMs_init                             0x0800274d   Thumb Code    90  delay.o(.text)
    DelayMs                                  0x080027a7   Thumb Code    70  delay.o(.text)
    DelayUs                                  0x080027ed   Thumb Code    54  delay.o(.text)
    IIC_Init                                 0x08002831   Thumb Code    56  iic.o(.text)
    IIC_Start                                0x08002869   Thumb Code    60  iic.o(.text)
    IIC_Stop                                 0x080028a5   Thumb Code    60  iic.o(.text)
    IIC_Wait_Ack                             0x080028e1   Thumb Code    84  iic.o(.text)
    IIC_Ack                                  0x08002935   Thumb Code    62  iic.o(.text)
    IIC_NAck                                 0x08002973   Thumb Code    60  iic.o(.text)
    IIC_Send_Byte                            0x080029af   Thumb Code   104  iic.o(.text)
    IIC_Read_Byte                            0x08002a17   Thumb Code    88  iic.o(.text)
    tty_init                                 0x08002a75   Thumb Code   142  usart2.o(.text)
    tty_command                              0x08002b03   Thumb Code     6  usart2.o(.text)
    tty_putchar                              0x08002b09   Thumb Code    28  usart2.o(.text)
    tty_putchars                             0x08002b25   Thumb Code    28  usart2.o(.text)
    tty_printf                               0x08002b41   Thumb Code    40  usart2.o(.text)
    tty_receive                              0x08002b69   Thumb Code    28  usart2.o(.text)
    clearRXbytes                             0x08002b85   Thumb Code    22  usart2.o(.text)
    USART2_IRQHandler                        0x08002b9b   Thumb Code   422  usart2.o(.text)
    tty_recString                            0x08002d41   Thumb Code    48  usart2.o(.text)
    init_esp8266                             0x08002d71   Thumb Code     8  usart2.o(.text)
    send_ATCmdWithRetTypeAndTime             0x08002d79   Thumb Code   180  usart2.o(.text)
    send_ATCmdWithRetType                    0x08002e2d   Thumb Code    18  usart2.o(.text)
    send_ATCmd                               0x08002e3f   Thumb Code    14  usart2.o(.text)
    test_AT                                  0x08002e4d   Thumb Code    22  usart2.o(.text)
    changeToMode                             0x08002e63   Thumb Code   130  usart2.o(.text)
    connetRoute                              0x08002ee5   Thumb Code    44  usart2.o(.text)
    connectTCPServer                         0x08002f11   Thumb Code    52  usart2.o(.text)
    startpassthrough                         0x08002f45   Thumb Code    20  usart2.o(.text)
    stoppassthrough                          0x08002f59   Thumb Code    22  usart2.o(.text)
    buildTCPServer                           0x08002f6f   Thumb Code    50  usart2.o(.text)
    sendData                                 0x08002fa1   Thumb Code    68  usart2.o(.text)
    whetherHasRecData                        0x08002fe5   Thumb Code    24  usart2.o(.text)
    clearRecDataBuffer                       0x08002ffd   Thumb Code    20  usart2.o(.text)
    __2sprintf                               0x080030cd   Thumb Code    34  noretval__2sprintf.o(.text)
    __printf                                 0x080030f5   Thumb Code   106  __printf.o(.text)
    _printf_str                              0x0800315f   Thumb Code    82  _printf_str.o(.text)
    _printf_int_dec                          0x080031b1   Thumb Code   102  _printf_dec.o(.text)
    atoi                                     0x08003229   Thumb Code    26  atoi.o(.text)
    strlen                                   0x08003243   Thumb Code    62  strlen.o(.text)
    __aeabi_memclr                           0x08003281   Thumb Code     0  rt_memclr.o(.text)
    __rt_memclr                              0x08003281   Thumb Code    68  rt_memclr.o(.text)
    _memset                                  0x08003285   Thumb Code     0  rt_memclr.o(.text)
    __aeabi_memclr4                          0x080032c5   Thumb Code     0  rt_memclr_w.o(.text)
    __aeabi_memclr8                          0x080032c5   Thumb Code     0  rt_memclr_w.o(.text)
    __rt_memclr_w                            0x080032c5   Thumb Code    78  rt_memclr_w.o(.text)
    _memset_w                                0x080032c9   Thumb Code     0  rt_memclr_w.o(.text)
    strcmp                                   0x08003315   Thumb Code   128  strcmpv7m.o(.text)
    __use_two_region_memory                  0x08003395   Thumb Code     2  heapauxi.o(.text)
    __rt_heap_escrow$2region                 0x08003397   Thumb Code     2  heapauxi.o(.text)
    __rt_heap_expand$2region                 0x08003399   Thumb Code     2  heapauxi.o(.text)
    __aeabi_errno_addr                       0x0800339d   Thumb Code     8  rt_errno_addr_intlibspace.o(.text)
    __errno$intlibspace                      0x0800339d   Thumb Code     0  rt_errno_addr_intlibspace.o(.text)
    __rt_errno_addr$intlibspace              0x0800339d   Thumb Code     0  rt_errno_addr_intlibspace.o(.text)
    _printf_int_common                       0x080033a5   Thumb Code   184  _printf_intcommon.o(.text)
    _printf_char_common                      0x08003467   Thumb Code    32  _printf_char_common.o(.text)
    _sputc                                   0x0800348d   Thumb Code    10  _sputc.o(.text)
    _printf_cs_common                        0x08003497   Thumb Code    20  _printf_char.o(.text)
    _printf_char                             0x080034ab   Thumb Code    16  _printf_char.o(.text)
    _printf_string                           0x080034bb   Thumb Code     8  _printf_char.o(.text)
    strtol                                   0x080034c3   Thumb Code   112  strtol.o(.text)
    __user_libspace                          0x08003535   Thumb Code     8  libspace.o(.text)
    __user_perproc_libspace                  0x08003535   Thumb Code     0  libspace.o(.text)
    __user_perthread_libspace                0x08003535   Thumb Code     0  libspace.o(.text)
    __rt_ctype_table                         0x0800353d   Thumb Code    16  rt_ctype_table.o(.text)
    _strtoul                                 0x0800354d   Thumb Code   158  _strtoul.o(.text)
    __user_setup_stackheap                   0x080035eb   Thumb Code    74  sys_stackheap_outer.o(.text)
    __rt_locale                              0x08003635   Thumb Code     8  rt_locale_intlibspace.o(.text)
    _chval                                   0x0800363d   Thumb Code    28  _chval.o(.text)
    exit                                     0x08003659   Thumb Code    12  exit.o(.text)
    __rt_fp_status_addr                      0x08003665   Thumb Code     8  rt_fp_status_addr_intlibspace.o(.text)
    _sys_exit                                0x0800366d   Thumb Code     8  sys_exit.o(.text)
    __I$use$semihosting                      0x08003679   Thumb Code     0  use_no_semi.o(.text)
    __use_no_semihosting_swi                 0x08003679   Thumb Code     2  use_no_semi.o(.text)
    __semihosting_library_function           0x0800367b   Thumb Code     0  indicate_semi.o(.text)
    _get_lc_ctype                            0x0800367d   Thumb Code    44  lc_ctype_c.o(locale$$code)
    _fp_init                                 0x080036a9   Thumb Code    14  fpinit.o(x$fpl$fpinit)
    __fplib_config_pureend_doubles           0x080036b5   Thumb Code     0  fpinit.o(x$fpl$fpinit)
    Region$$Table$$Base                      0x080036b8   Number         0  anon$$obj.o(Region$$Table)
    Region$$Table$$Limit                     0x080036d8   Number         0  anon$$obj.o(Region$$Table)
    __ctype                                  0x080036e5   Data           0  lc_ctype_c.o(locale$$data)
    SystemCoreClock                          0x20000014   Data           4  system_stm32f10x.o(.data)
    AHBPrescTable                            0x20000018   Data          16  system_stm32f10x.o(.data)
    fac_us                                   0x20000028   Data           1  delay.o(.data)
    fac_ms                                   0x2000002a   Data           2  delay.o(.data)
    rxlen                                    0x2000002c   Data           1  usart2.o(.data)
    flag                                     0x2000002d   Data           1  usart2.o(.data)
    canRecFlag                               0x2000002e   Data           1  usart2.o(.data)
    startRecData                             0x2000002f   Data           1  usart2.o(.data)
    RecDataSize                              0x20000030   Data           4  usart2.o(.data)
    ptmode                                   0x20000034   Data           1  usart2.o(.data)
    RXbytes                                  0x20000038   Data         128  usart2.o(.bss)
    RecBuffer                                0x200000b8   Data        1024  usart2.o(.bss)
    __libspace_start                         0x200004b8   Data          96  libspace.o(.bss)
    __temporary_stack_top$libspace           0x20000518   Data           0  libspace.o(.bss)



==============================================================================

Memory Map of the image

  Image Entry point : 0x08000131

  Load Region LR_IROM1 (Base: 0x08000000, Size: 0x00003820, Max: 0x00080000, ABSOLUTE)

    Execution Region ER_IROM1 (Base: 0x08000000, Size: 0x000037e8, Max: 0x00080000, ABSOLUTE)

    Base Addr    Size         Type   Attr      Idx    E Section Name        Object

    0x08000000   0x00000130   Data   RO            3    RESET               startup_stm32f10x_hd.o
    0x08000130   0x00000008   Code   RO          407  * !!!main             c_w.l(__main.o)
    0x08000138   0x00000034   Code   RO          596    !!!scatter          c_w.l(__scatter.o)
    0x0800016c   0x0000001a   Code   RO          598    !!handler_copy      c_w.l(__scatter_copy.o)
    0x08000186   0x00000002   PAD
    0x08000188   0x0000001c   Code   RO          600    !!handler_zi        c_w.l(__scatter_zi.o)
    0x080001a4   0x00000000   Code   RO          394    .ARM.Collect$$_printf_percent$$00000000  c_w.l(_printf_percent.o)
    0x080001a4   0x00000006   Code   RO          393    .ARM.Collect$$_printf_percent$$00000009  c_w.l(_printf_d.o)
    0x080001aa   0x00000006   Code   RO          392    .ARM.Collect$$_printf_percent$$00000014  c_w.l(_printf_s.o)
    0x080001b0   0x00000004   Code   RO          423    .ARM.Collect$$_printf_percent$$00000017  c_w.l(_printf_percent_end.o)
    0x080001b4   0x00000006   Code   RO          469    .ARM.Collect$$libinit$$00000000  c_w.l(libinit.o)
    0x080001ba   0x00000000   Code   RO          474    .ARM.Collect$$libinit$$00000006  c_w.l(libinit2.o)
    0x080001ba   0x00000000   Code   RO          476    .ARM.Collect$$libinit$$00000008  c_w.l(libinit2.o)
    0x080001ba   0x00000000   Code   RO          478    .ARM.Collect$$libinit$$0000000A  c_w.l(libinit2.o)
    0x080001ba   0x00000006   Code   RO          479    .ARM.Collect$$libinit$$0000000B  c_w.l(libinit2.o)
    0x080001c0   0x00000000   Code   RO          481    .ARM.Collect$$libinit$$0000000D  c_w.l(libinit2.o)
    0x080001c0   0x0000000c   Code   RO          482    .ARM.Collect$$libinit$$0000000E  c_w.l(libinit2.o)
    0x080001cc   0x00000000   Code   RO          483    .ARM.Collect$$libinit$$0000000F  c_w.l(libinit2.o)
    0x080001cc   0x00000000   Code   RO          485    .ARM.Collect$$libinit$$00000011  c_w.l(libinit2.o)
    0x080001cc   0x00000000   Code   RO          487    .ARM.Collect$$libinit$$00000013  c_w.l(libinit2.o)
    0x080001cc   0x00000000   Code   RO          489    .ARM.Collect$$libinit$$00000015  c_w.l(libinit2.o)
    0x080001cc   0x00000000   Code   RO          491    .ARM.Collect$$libinit$$00000017  c_w.l(libinit2.o)
    0x080001cc   0x00000000   Code   RO          493    .ARM.Collect$$libinit$$00000019  c_w.l(libinit2.o)
    0x080001cc   0x00000000   Code   RO          495    .ARM.Collect$$libinit$$0000001B  c_w.l(libinit2.o)
    0x080001cc   0x00000000   Code   RO          497    .ARM.Collect$$libinit$$0000001D  c_w.l(libinit2.o)
    0x080001cc   0x00000000   Code   RO          499    .ARM.Collect$$libinit$$0000001F  c_w.l(libinit2.o)
    0x080001cc   0x00000000   Code   RO          501    .ARM.Collect$$libinit$$00000021  c_w.l(libinit2.o)
    0x080001cc   0x00000000   Code   RO          505    .ARM.Collect$$libinit$$00000028  c_w.l(libinit2.o)
    0x080001cc   0x00000000   Code   RO          507    .ARM.Collect$$libinit$$0000002A  c_w.l(libinit2.o)
    0x080001cc   0x00000000   Code   RO          509    .ARM.Collect$$libinit$$0000002C  c_w.l(libinit2.o)
    0x080001cc   0x00000000   Code   RO          511    .ARM.Collect$$libinit$$0000002E  c_w.l(libinit2.o)
    0x080001cc   0x00000002   Code   RO          512    .ARM.Collect$$libinit$$0000002F  c_w.l(libinit2.o)
    0x080001ce   0x00000002   Code   RO          537    .ARM.Collect$$libshutdown$$00000000  c_w.l(libshutdown.o)
    0x080001d0   0x00000000   Code   RO          551    .ARM.Collect$$libshutdown$$00000003  c_w.l(libshutdown2.o)
    0x080001d0   0x00000000   Code   RO          554    .ARM.Collect$$libshutdown$$00000006  c_w.l(libshutdown2.o)
    0x080001d0   0x00000000   Code   RO          557    .ARM.Collect$$libshutdown$$00000009  c_w.l(libshutdown2.o)
    0x080001d0   0x00000000   Code   RO          559    .ARM.Collect$$libshutdown$$0000000B  c_w.l(libshutdown2.o)
    0x080001d0   0x00000000   Code   RO          562    .ARM.Collect$$libshutdown$$0000000E  c_w.l(libshutdown2.o)
    0x080001d0   0x00000002   Code   RO          563    .ARM.Collect$$libshutdown$$0000000F  c_w.l(libshutdown2.o)
    0x080001d2   0x00000000   Code   RO          409    .ARM.Collect$$rtentry$$00000000  c_w.l(rtentry.o)
    0x080001d2   0x00000000   Code   RO          430    .ARM.Collect$$rtentry$$00000002  c_w.l(rtentry2.o)
    0x080001d2   0x00000006   Code   RO          442    .ARM.Collect$$rtentry$$00000004  c_w.l(rtentry4.o)
    0x080001d8   0x00000000   Code   RO          432    .ARM.Collect$$rtentry$$00000009  c_w.l(rtentry2.o)
    0x080001d8   0x00000004   Code   RO          433    .ARM.Collect$$rtentry$$0000000A  c_w.l(rtentry2.o)
    0x080001dc   0x00000000   Code   RO          435    .ARM.Collect$$rtentry$$0000000C  c_w.l(rtentry2.o)
    0x080001dc   0x00000008   Code   RO          436    .ARM.Collect$$rtentry$$0000000D  c_w.l(rtentry2.o)
    0x080001e4   0x00000002   Code   RO          470    .ARM.Collect$$rtexit$$00000000  c_w.l(rtexit.o)
    0x080001e6   0x00000000   Code   RO          516    .ARM.Collect$$rtexit$$00000002  c_w.l(rtexit2.o)
    0x080001e6   0x00000004   Code   RO          517    .ARM.Collect$$rtexit$$00000003  c_w.l(rtexit2.o)
    0x080001ea   0x00000006   Code   RO          518    .ARM.Collect$$rtexit$$00000004  c_w.l(rtexit2.o)
    0x080001f0   0x00000040   Code   RO            4    .text               startup_stm32f10x_hd.o
    0x08000230   0x000005b8   Code   RO           73    .text               stm32f10x_flash.o
    0x080007e8   0x00000358   Code   RO           85    .text               stm32f10x_gpio.o
    0x08000b40   0x000003a0   Code   RO          112    .text               stm32f10x_rcc.o
    0x08000ee0   0x00000dae   Code   RO          141    .text               stm32f10x_tim.o
    0x08001c8e   0x00000002   PAD
    0x08001c90   0x0000040c   Code   RO          153    .text               stm32f10x_usart.o
    0x0800209c   0x000000dc   Code   RO          165    .text               misc.o
    0x08002178   0x000001c8   Code   RO          187    .text               system_stm32f10x.o
    0x08002340   0x0000019c   Code   RO          205    .text               main.o
    0x080024dc   0x0000006c   Code   RO          239    .text               stm32f10x_it.o
    0x08002548   0x000001b0   Code   RO          284    .text               driver.o
    0x080026f8   0x00000054   Code   RO          302    .text               usart.o
    0x0800274c   0x000000e4   Code   RO          314    .text               delay.o
    0x08002830   0x00000244   Code   RO          329    .text               iic.o
    0x08002a74   0x00000658   Code   RO          341    .text               usart2.o
    0x080030cc   0x00000028   Code   RO          364    .text               c_w.l(noretval__2sprintf.o)
    0x080030f4   0x0000006a   Code   RO          366    .text               c_w.l(__printf.o)
    0x0800315e   0x00000052   Code   RO          368    .text               c_w.l(_printf_str.o)
    0x080031b0   0x00000078   Code   RO          370    .text               c_w.l(_printf_dec.o)
    0x08003228   0x0000001a   Code   RO          395    .text               c_w.l(atoi.o)
    0x08003242   0x0000003e   Code   RO          397    .text               c_w.l(strlen.o)
    0x08003280   0x00000044   Code   RO          399    .text               c_w.l(rt_memclr.o)
    0x080032c4   0x0000004e   Code   RO          401    .text               c_w.l(rt_memclr_w.o)
    0x08003312   0x00000002   PAD
    0x08003314   0x00000080   Code   RO          403    .text               c_w.l(strcmpv7m.o)
    0x08003394   0x00000006   Code   RO          405    .text               c_w.l(heapauxi.o)
    0x0800339a   0x00000002   PAD
    0x0800339c   0x00000008   Code   RO          413    .text               c_w.l(rt_errno_addr_intlibspace.o)
    0x080033a4   0x000000b8   Code   RO          415    .text               c_w.l(_printf_intcommon.o)
    0x0800345c   0x00000030   Code   RO          417    .text               c_w.l(_printf_char_common.o)
    0x0800348c   0x0000000a   Code   RO          419    .text               c_w.l(_sputc.o)
    0x08003496   0x0000002c   Code   RO          421    .text               c_w.l(_printf_char.o)
    0x080034c2   0x00000070   Code   RO          424    .text               c_w.l(strtol.o)
    0x08003532   0x00000002   PAD
    0x08003534   0x00000008   Code   RO          426    .text               c_w.l(libspace.o)
    0x0800353c   0x00000010   Code   RO          444    .text               c_w.l(rt_ctype_table.o)
    0x0800354c   0x0000009e   Code   RO          448    .text               c_w.l(_strtoul.o)
    0x080035ea   0x0000004a   Code   RO          450    .text               c_w.l(sys_stackheap_outer.o)
    0x08003634   0x00000008   Code   RO          455    .text               c_w.l(rt_locale_intlibspace.o)
    0x0800363c   0x0000001c   Code   RO          457    .text               c_w.l(_chval.o)
    0x08003658   0x0000000c   Code   RO          462    .text               c_w.l(exit.o)
    0x08003664   0x00000008   Code   RO          525    .text               c_w.l(rt_fp_status_addr_intlibspace.o)
    0x0800366c   0x0000000c   Code   RO          529    .text               c_w.l(sys_exit.o)
    0x08003678   0x00000002   Code   RO          540    .text               c_w.l(use_no_semi.o)
    0x0800367a   0x00000000   Code   RO          542    .text               c_w.l(indicate_semi.o)
    0x0800367a   0x00000002   PAD
    0x0800367c   0x0000002c   Code   RO          460    locale$$code        c_w.l(lc_ctype_c.o)
    0x080036a8   0x0000000e   Code   RO          513    x$fpl$fpinit        fz_ws.l(fpinit.o)
    0x080036b6   0x00000002   PAD
    0x080036b8   0x00000020   Data   RO          594    Region$$Table       anon$$obj.o
    0x080036d8   0x00000110   Data   RO          459    locale$$data        c_w.l(lc_ctype_c.o)


    Execution Region RW_IRAM1 (Base: 0x20000000, Size: 0x00000b18, Max: 0x00010000, ABSOLUTE)

    Base Addr    Size         Type   Attr      Idx    E Section Name        Object

    0x20000000   0x00000014   Data   RW          113    .data               stm32f10x_rcc.o
    0x20000014   0x00000014   Data   RW          188    .data               system_stm32f10x.o
    0x20000028   0x00000004   Data   RW          315    .data               delay.o
    0x2000002c   0x00000009   Data   RW          343    .data               usart2.o
    0x20000035   0x00000003   PAD
    0x20000038   0x00000480   Zero   RW          342    .bss                usart2.o
    0x200004b8   0x00000060   Zero   RW          427    .bss                c_w.l(libspace.o)
    0x20000518   0x00000200   Zero   RW            2    HEAP                startup_stm32f10x_hd.o
    0x20000718   0x00000400   Zero   RW            1    STACK               startup_stm32f10x_hd.o


==============================================================================

Image component sizes


      Code (inc. data)   RO Data    RW Data    ZI Data      Debug   Object Name

       228         14          0          4          0       1143   delay.o
       432         12          0          0          0       1807   driver.o
       580          6          0          0          0       1776   iic.o
       412        226          0          0          0        780   main.o
       220         20          0          0          0       1829   misc.o
        64         26        304          0       1536        768   startup_stm32f10x_hd.o
         0          0          0          0          0     259328   stm32f10x_bkp.o
      1464         32          0          0          0       8230   stm32f10x_flash.o
       856         40          0          0          0       5761   stm32f10x_gpio.o
       108          0          0          0          0       5757   stm32f10x_it.o
       928         44          0         20          0       8916   stm32f10x_rcc.o
      3502         86          0          0          0      22932   stm32f10x_tim.o
      1036         20          0          0          0       8508   stm32f10x_usart.o
       456         36          0         20          0       1931   system_stm32f10x.o
        84          6          0          0          0       1215   usart.o
      1624        264          0          9       1152       6993   usart2.o

    ----------------------------------------------------------------------
     11996        832        336         56       2688     337674   Object Totals
         0          0         32          0          0          0   (incl. Generated)
         2          0          0          3          0          0   (incl. Padding)

    ----------------------------------------------------------------------

      Code (inc. data)   RO Data    RW Data    ZI Data      Debug   Library Member Name

         8          0          0          0          0         68   __main.o
       106          0          0          0          0         84   __printf.o
        52          8          0          0          0          0   __scatter.o
        26          0          0          0          0          0   __scatter_copy.o
        28          0          0          0          0          0   __scatter_zi.o
        28          0          0          0          0         68   _chval.o
        44          0          0          0          0        108   _printf_char.o
        48          6          0          0          0         96   _printf_char_common.o
         6          0          0          0          0          0   _printf_d.o
       120         18          0          0          0         92   _printf_dec.o
       184          0          0          0          0         88   _printf_intcommon.o
         0          0          0          0          0          0   _printf_percent.o
         4          0          0          0          0          0   _printf_percent_end.o
         6          0          0          0          0          0   _printf_s.o
        82          0          0          0          0         80   _printf_str.o
        10          0          0          0          0         68   _sputc.o
       158          0          0          0          0         92   _strtoul.o
        26          0          0          0          0         80   atoi.o
        12          0          0          0          0         72   exit.o
         6          0          0          0          0        152   heapauxi.o
         0          0          0          0          0          0   indicate_semi.o
        44         10        272          0          0         76   lc_ctype_c.o
         6          0          0          0          0          0   libinit.o
        20          0          0          0          0          0   libinit2.o
         2          0          0          0          0          0   libshutdown.o
         2          0          0          0          0          0   libshutdown2.o
         8          4          0          0         96         68   libspace.o
        40          6          0          0          0         84   noretval__2sprintf.o
        16          4          0          0          0         76   rt_ctype_table.o
         8          4          0          0          0         68   rt_errno_addr_intlibspace.o
         8          4          0          0          0         68   rt_fp_status_addr_intlibspace.o
         8          4          0          0          0         68   rt_locale_intlibspace.o
        68          0          0          0          0         68   rt_memclr.o
        78          0          0          0          0         80   rt_memclr_w.o
         0          0          0          0          0          0   rtentry.o
        12          0          0          0          0          0   rtentry2.o
         6          0          0          0          0          0   rtentry4.o
         2          0          0          0          0          0   rtexit.o
        10          0          0          0          0          0   rtexit2.o
       128          0          0          0          0         68   strcmpv7m.o
        62          0          0          0          0         76   strlen.o
       112          0          0          0          0         88   strtol.o
        12          4          0          0          0         68   sys_exit.o
        74          0          0          0          0         80   sys_stackheap_outer.o
         2          0          0          0          0         68   use_no_semi.o
        14          0          0          0          0         76   fpinit.o

    ----------------------------------------------------------------------
      1708         72        272          0         96       2328   Library Totals
        12          0          0          0          0          0   (incl. Padding)

    ----------------------------------------------------------------------

      Code (inc. data)   RO Data    RW Data    ZI Data      Debug   Library Name

      1682         72        272          0         96       2252   c_w.l
        14          0          0          0          0         76   fz_ws.l

    ----------------------------------------------------------------------
      1708         72        272          0         96       2328   Library Totals

    ----------------------------------------------------------------------

==============================================================================


      Code (inc. data)   RO Data    RW Data    ZI Data      Debug   

     13704        904        608         56       2784     337246   Grand Totals
     13704        904        608         56       2784     337246   ELF Image Totals
     13704        904        608         56          0          0   ROM Totals

==============================================================================

    Total RO  Size (Code + RO Data)                14312 (  13.98kB)
    Total RW  Size (RW Data + ZI Data)              2840 (   2.77kB)
    Total ROM Size (Code + RO Data + RW Data)      14368 (  14.03kB)

==============================================================================

