BL51 BANKED LINKER/LOCATER V6.22                                                        02/04/2023  16:13:05  PAGE 1


BL51 BANKED LINKER/LOCATER V6.22, INVOKED BY:
D:\KEIL_V5\C51\BIN\BL51.EXE ..\obj\main.obj, ..\obj\sys.obj, ..\obj\LCD.obj, ..\obj\SPI.obj TO ..\obj\ceshi PRINT (.\ces
>> hi.m51) RAMSIZE (256) DISABLEWARNING (16)


MEMORY MODEL: LARGE


INPUT MODULES INCLUDED:
  ..\obj\main.obj (MAIN)
  ..\obj\sys.obj (SYS)
  ..\obj\LCD.obj (LCD)
  ..\obj\SPI.obj (SPI)
  D:\KEIL_V5\C51\LIB\C51L.LIB (?C_STARTUP)
  D:\KEIL_V5\C51\LIB\C51L.LIB (?C_INIT)


LINK MAP OF MODULE:  ..\obj\ceshi (MAIN)


            TYPE    BASE      LENGTH    RELOCATION   SEGMENT NAME
            -----------------------------------------------------

            * * * * * * *   D A T A   M E M O R Y   * * * * * * *
            REG     0000H     0008H     ABSOLUTE     "REG BANK 0"
            IDATA   0008H     0001H     UNIT         ?STACK

            * * * * * * *  X D A T A   M E M O R Y  * * * * * * *
            XDATA   0000H     0013H     UNIT         ?XD?LCD
            XDATA   0013H     000EH     UNIT         _XDATA_GROUP_
            XDATA   0021H     0002H     UNIT         ?XD?_LCD_WR_DATA_16BIT?LCD

            * * * * * * *   C O D E   M E M O R Y   * * * * * * *
            CODE    0000H     0003H     ABSOLUTE     
            CODE    0003H     0164H     UNIT         ?PR?LCD_INIT?LCD
            CODE    0167H     00A2H     UNIT         ?PR?_LCD_CLEAR?LCD
            CODE    0209H     0090H     UNIT         ?PR?_LCD_DIRECTION?LCD
            CODE    0299H     008CH     UNIT         ?C_C51STARTUP
            CODE    0325H     006AH     UNIT         ?PR?MAIN?MAIN
            CODE    038FH     0067H     UNIT         ?PR?_LCD_SETWINDOWS?LCD
            CODE    03F6H     0035H     UNIT         ?PR?SPI_READBYTE?SPI
            CODE    042BH     002CH     UNIT         ?PR?_SPI_WRITEBYTE?SPI
            CODE    0457H     002AH     UNIT         ?PR?_LCD_DRAWPOINT?LCD
            CODE    0481H     0020H     UNIT         ?PR?_LCD_WR_DATA_16BIT?LCD
            CODE    04A1H     001FH     UNIT         ?PR?_LCD_SETCURSOR?LCD
            CODE    04C0H     0015H     UNIT         ?PR?LCD_RESET?LCD
            CODE    04D5H     0011H     UNIT         ?PR?_DELAY_MS?SYS
            CODE    04E6H     0011H     UNIT         ?PR?_DELAY_US?SYS
            CODE    04F7H     0010H     UNIT         ?PR?_LCD_WRITEREG?LCD
            CODE    0507H     000DH     UNIT         ?PR?_LCD_WR_DATA?LCD
            CODE    0514H     000BH     UNIT         ?C_INITSEG
            CODE    051FH     000AH     UNIT         ?PR?_LCD_WR_REG?LCD
            CODE    0529H     0009H     UNIT         ?PR?LCD_WRITERAM_PREPARE?LCD
            CODE    0532H     0007H     UNIT         ?PR?SPI_INIT?SPI



OVERLAY MAP OF MODULE:   ..\obj\ceshi (MAIN)
BL51 BANKED LINKER/LOCATER V6.22                                                      02/04/2023  16:13:05  PAGE 2




SEGMENT                                XDATA_GROUP
  +--> CALLED SEGMENT                START    LENGTH
----------------------------------------------------
?C_C51STARTUP                        -----    -----
  +--> ?PR?MAIN?MAIN
  +--> ?C_INITSEG

?PR?MAIN?MAIN                        -----    -----
  +--> ?PR?LCD_INIT?LCD
  +--> ?PR?_LCD_CLEAR?LCD
  +--> ?PR?_DELAY_MS?SYS

?PR?LCD_INIT?LCD                     -----    -----
  +--> ?PR?SPI_INIT?SPI
  +--> ?PR?LCD_RESET?LCD
  +--> ?PR?_LCD_WR_REG?LCD
  +--> ?PR?_DELAY_MS?SYS
  +--> ?PR?_LCD_WR_DATA?LCD
  +--> ?PR?_LCD_DIRECTION?LCD

?PR?LCD_RESET?LCD                    -----    -----
  +--> ?PR?_DELAY_MS?SYS

?PR?_LCD_WR_REG?LCD                  -----    -----
  +--> ?PR?_SPI_WRITEBYTE?SPI

?PR?_LCD_WR_DATA?LCD                 -----    -----
  +--> ?PR?_SPI_WRITEBYTE?SPI

?PR?_LCD_DIRECTION?LCD               -----    -----
  +--> ?PR?_LCD_WRITEREG?LCD

?PR?_LCD_WRITEREG?LCD                0013H    0001H
  +--> ?PR?_LCD_WR_REG?LCD
  +--> ?PR?_LCD_WR_DATA?LCD

?PR?_LCD_CLEAR?LCD                   0013H    0006H
  +--> ?PR?_LCD_SETWINDOWS?LCD
  +--> ?PR?_SPI_WRITEBYTE?SPI

?PR?_LCD_SETWINDOWS?LCD              0019H    0008H
  +--> ?PR?_LCD_WR_REG?LCD
  +--> ?PR?_LCD_WR_DATA?LCD
  +--> ?PR?LCD_WRITERAM_PREPARE?LCD

?PR?LCD_WRITERAM_PREPARE?LCD         -----    -----
  +--> ?PR?_LCD_WR_REG?LCD



SYMBOL TABLE OF MODULE:  ..\obj\ceshi (MAIN)

  VALUE           TYPE          NAME
  ----------------------------------

BL51 BANKED LINKER/LOCATER V6.22                                                      02/04/2023  16:13:05  PAGE 3


  -------         MODULE        MAIN
  C:0000H         SYMBOL        _ICE_DUMMY_
  D:0090H         PUBLIC        P1
  D:00B0H         PUBLIC        P3
  C:0325H         PUBLIC        main
  -------         PROC          MAIN
  C:0325H         LINE#         54
  C:0325H         LINE#         55
  C:0325H         LINE#         58
  C:0328H         LINE#         61
  C:0328H         LINE#         62
  C:0328H         LINE#         63
  C:0339H         LINE#         64
  C:0349H         LINE#         65
  C:035AH         LINE#         66
  C:036BH         LINE#         67
  C:037CH         LINE#         68
  C:038DH         LINE#         69
  -------         ENDPROC       MAIN
  -------         ENDMOD        MAIN

  -------         MODULE        SYS
  C:0000H         SYMBOL        _ICE_DUMMY_
  C:04D5H         PUBLIC        _delay_ms
  C:04E6H         PUBLIC        _delay_us
  -------         PROC          _DELAY_MS
  D:0007H         SYMBOL        ms
  -------         DO            
  D:0004H         SYMBOL        i
  -------         ENDDO         
  C:04D5H         LINE#         49
  C:04D5H         LINE#         50
  C:04D5H         LINE#         52
  C:04D5H         LINE#         53
  C:04D6H         LINE#         54
  C:04DAH         LINE#         55
  C:04E3H         LINE#         56
  C:04E5H         LINE#         57
  -------         ENDPROC       _DELAY_MS
  -------         PROC          _DELAY_US
  D:0007H         SYMBOL        us
  -------         DO            
  D:0004H         SYMBOL        i
  -------         ENDDO         
  C:04E6H         LINE#         59
  C:04E6H         LINE#         60
  C:04E6H         LINE#         62
  C:04E6H         LINE#         63
  C:04E7H         LINE#         64
  C:04EBH         LINE#         65
  C:04F4H         LINE#         66
  C:04F6H         LINE#         67
  -------         ENDPROC       _DELAY_US
  -------         ENDMOD        SYS

  -------         MODULE        LCD
  C:0000H         SYMBOL        _ICE_DUMMY_
BL51 BANKED LINKER/LOCATER V6.22                                                      02/04/2023  16:13:05  PAGE 4


  D:0090H         PUBLIC        P1
  D:00B0H         PUBLIC        P3
  C:051FH         PUBLIC        _LCD_WR_REG
  C:0167H         PUBLIC        _LCD_Clear
  B:00B0H.3       PUBLIC        LCD_RESET
  C:04C0H         PUBLIC        LCD_Reset
  C:0481H         PUBLIC        _LCD_WR_DATA_16Bit
  C:0003H         PUBLIC        LCD_Init
  B:0090H.3       PUBLIC        LCD_CS
  C:038FH         PUBLIC        _LCD_SetWindows
  C:0457H         PUBLIC        _LCD_DrawPoint
  C:0529H         PUBLIC        LCD_WriteRAM_Prepare
  C:050AH         PUBLIC        _LCD_WR_DATA
  B:0090H.2       PUBLIC        LCD_RS
  C:04F7H         PUBLIC        _LCD_WriteReg
  C:04A1H         PUBLIC        _LCD_SetCursor
  X:0000H         PUBLIC        POINT_COLOR
  X:0002H         PUBLIC        BACK_COLOR
  X:0004H         PUBLIC        lcddev
  C:0209H         PUBLIC        _LCD_direction
  -------         PROC          _LCD_WR_REG
  D:0007H         SYMBOL        Reg
  C:051FH         LINE#         65
  C:051FH         LINE#         66
  C:051FH         LINE#         67
  C:0521H         LINE#         68
  C:0523H         LINE#         69
  C:0526H         LINE#         70
  C:0528H         LINE#         71
  -------         ENDPROC       _LCD_WR_REG
  -------         PROC          L?0030
  -------         ENDPROC       L?0030
  -------         PROC          _LCD_WR_DATA
  D:0007H         SYMBOL        Data
  C:050AH         LINE#         80
  C:050AH         LINE#         81
  C:050AH         LINE#         82
  C:050CH         LINE#         83
  C:050EH         LINE#         84
  C:0511H         LINE#         85
  C:0513H         LINE#         86
  -------         ENDPROC       _LCD_WR_DATA
  -------         PROC          _LCD_WR_DATA_16BIT
  X:0021H         SYMBOL        Data
  C:0481H         LINE#         96
  C:0489H         LINE#         97
  C:0489H         LINE#         98
  C:048BH         LINE#         99
  C:048DH         LINE#         100
  C:0495H         LINE#         101
  C:049EH         LINE#         102
  C:04A0H         LINE#         103
  -------         ENDPROC       _LCD_WR_DATA_16BIT
  -------         PROC          _LCD_WRITEREG
  D:0007H         SYMBOL        LCD_Reg
  X:0013H         SYMBOL        LCD_RegValue
  C:04F7H         LINE#         113
BL51 BANKED LINKER/LOCATER V6.22                                                      02/04/2023  16:13:05  PAGE 5


  C:04FCH         LINE#         114
  C:04FCH         LINE#         115
  C:04FFH         LINE#         116
  -------         ENDPROC       _LCD_WRITEREG
  -------         PROC          LCD_WRITERAM_PREPARE
  C:0529H         LINE#         127
  C:0529H         LINE#         128
  C:0529H         LINE#         129
  -------         ENDPROC       LCD_WRITERAM_PREPARE
  -------         PROC          _LCD_CLEAR
  X:0013H         SYMBOL        Color
  -------         DO            
  X:0015H         SYMBOL        i
  X:0017H         SYMBOL        j
  -------         ENDDO         
  C:0167H         LINE#         139
  C:016FH         LINE#         140
  C:016FH         LINE#         142
  C:0199H         LINE#         143
  C:019BH         LINE#         144
  C:019DH         LINE#         145
  C:01B9H         LINE#         146
  C:01B9H         LINE#         147
  C:01D5H         LINE#         148
  C:01D5H         LINE#         149
  C:01DDH         LINE#         150
  C:01E6H         LINE#         151
  C:01F6H         LINE#         152
  C:0206H         LINE#         153
  C:0208H         LINE#         154
  -------         ENDPROC       _LCD_CLEAR
  -------         PROC          _LCD_DRAWPOINT
  D:0002H         SYMBOL        x
  D:0082H         SYMBOL        y
  C:0457H         LINE#         164
  C:045FH         LINE#         165
  C:045FH         LINE#         166
  C:0476H         LINE#         167
  -------         ENDPROC       _LCD_DRAWPOINT
  -------         PROC          LCD_RESET
  C:04C0H         LINE#         178
  C:04C0H         LINE#         179
  C:04C0H         LINE#         180
  C:04C2H         LINE#         181
  C:04C7H         LINE#         182
  C:04C9H         LINE#         183
  C:04CEH         LINE#         184
  C:04D0H         LINE#         185
  -------         ENDPROC       LCD_RESET
  -------         PROC          LCD_INIT
  C:0003H         LINE#         195
  C:0003H         LINE#         196
  C:0003H         LINE#         197
  C:0006H         LINE#         198
  C:0009H         LINE#         200
  C:000EH         LINE#         202
  C:0013H         LINE#         204
BL51 BANKED LINKER/LOCATER V6.22                                                      02/04/2023  16:13:05  PAGE 6


  C:0018H         LINE#         205
  C:001DH         LINE#         207
  C:0022H         LINE#         208
  C:0027H         LINE#         210
  C:002CH         LINE#         211
  C:0031H         LINE#         213
  C:0036H         LINE#         214
  C:003BH         LINE#         216
  C:0040H         LINE#         217
  C:0045H         LINE#         219
  C:004AH         LINE#         220
  C:004FH         LINE#         226
  C:0054H         LINE#         227
  C:0059H         LINE#         228
  C:005EH         LINE#         230
  C:0063H         LINE#         231
  C:0068H         LINE#         233
  C:006DH         LINE#         234
  C:0072H         LINE#         236
  C:0077H         LINE#         237
  C:007CH         LINE#         239
  C:0081H         LINE#         240
  C:0086H         LINE#         241
  C:008BH         LINE#         242
  C:0090H         LINE#         243
  C:0095H         LINE#         244
  C:009AH         LINE#         245
  C:009FH         LINE#         246
  C:00A4H         LINE#         247
  C:00A9H         LINE#         249
  C:00AEH         LINE#         250
  C:00B3H         LINE#         251
  C:00B8H         LINE#         252
  C:00BDH         LINE#         253
  C:00C2H         LINE#         254
  C:00C7H         LINE#         255
  C:00CCH         LINE#         256
  C:00D1H         LINE#         257
  C:00D6H         LINE#         258
  C:00DBH         LINE#         259
  C:00E0H         LINE#         260
  C:00E5H         LINE#         261
  C:00EAH         LINE#         262
  C:00EFH         LINE#         263
  C:00F4H         LINE#         265
  C:00F9H         LINE#         266
  C:00FEH         LINE#         267
  C:0103H         LINE#         268
  C:0108H         LINE#         269
  C:010DH         LINE#         270
  C:0112H         LINE#         271
  C:0117H         LINE#         272
  C:011CH         LINE#         273
  C:0121H         LINE#         274
  C:0126H         LINE#         275
  C:012BH         LINE#         276
  C:0130H         LINE#         277
BL51 BANKED LINKER/LOCATER V6.22                                                      02/04/2023  16:13:05  PAGE 7


  C:0135H         LINE#         278
  C:013AH         LINE#         279
  C:013FH         LINE#         282
  C:0144H         LINE#         283
  C:0149H         LINE#         285
  C:014EH         LINE#         286
  C:0153H         LINE#         288
  C:0158H         LINE#         290
  C:015DH         LINE#         292
  C:0162H         LINE#         295
  -------         ENDPROC       LCD_INIT
  -------         PROC          _LCD_SETWINDOWS
  X:0019H         SYMBOL        xStar
  X:001BH         SYMBOL        yStar
  X:001DH         SYMBOL        xEnd
  X:001FH         SYMBOL        yEnd
  C:038FH         LINE#         308
  C:03A3H         LINE#         309
  C:03A3H         LINE#         310
  C:03ACH         LINE#         311
  C:03B4H         LINE#         312
  C:03BAH         LINE#         313
  C:03C2H         LINE#         314
  C:03C8H         LINE#         316
  C:03D1H         LINE#         317
  C:03D9H         LINE#         318
  C:03E2H         LINE#         319
  C:03EAH         LINE#         320
  C:03F3H         LINE#         322
  -------         ENDPROC       _LCD_SETWINDOWS
  -------         PROC          _LCD_SETCURSOR
  D:0002H         SYMBOL        Xpos
  D:0082H         SYMBOL        Ypos
  C:04A1H         LINE#         333
  C:04A9H         LINE#         334
  C:04A9H         LINE#         335
  -------         ENDPROC       _LCD_SETCURSOR
  -------         PROC          _LCD_DIRECTION
  D:0007H         SYMBOL        direction
  C:0209H         LINE#         348
  C:0209H         LINE#         349
  C:0209H         LINE#         350
  C:0212H         LINE#         351
  C:0219H         LINE#         352
  C:0222H         LINE#         353
  C:0229H         LINE#         354
  C:0230H         LINE#         355
  C:023DH         LINE#         356
  C:023DH         LINE#         357
  C:0247H         LINE#         358
  C:024FH         LINE#         359
  C:0251H         LINE#         360
  C:0253H         LINE#         361
  C:0253H         LINE#         362
  C:025DH         LINE#         363
  C:0265H         LINE#         364
  C:0267H         LINE#         365
BL51 BANKED LINKER/LOCATER V6.22                                                      02/04/2023  16:13:05  PAGE 8


  C:0269H         LINE#         366
  C:0269H         LINE#         367
  C:0273H         LINE#         368
  C:027BH         LINE#         369
  C:027DH         LINE#         370
  C:027FH         LINE#         371
  C:027FH         LINE#         372
  C:0289H         LINE#         373
  C:0291H         LINE#         374
  C:0298H         LINE#         375
  C:0298H         LINE#         376
  C:0298H         LINE#         377
  C:0298H         LINE#         378
  -------         ENDPROC       _LCD_DIRECTION
  -------         ENDMOD        LCD

  -------         MODULE        SPI
  C:0000H         SYMBOL        _ICE_DUMMY_
  D:0092H         PUBLIC        P1M0
  D:0091H         PUBLIC        P1M1
  D:0090H         PUBLIC        P1
  C:0532H         PUBLIC        SPI_init
  B:0090H.7       PUBLIC        SCLK
  B:0090H.5       PUBLIC        MOSI
  B:0090H.6       PUBLIC        MISO
  C:03F6H         PUBLIC        SPI_ReadByte
  C:042BH         PUBLIC        _SPI_WriteByte
  -------         PROC          SPI_INIT
  C:0532H         LINE#         48
  C:0532H         LINE#         49
  C:0532H         LINE#         50
  C:0535H         LINE#         51
  C:0538H         LINE#         52
  -------         ENDPROC       SPI_INIT
  -------         PROC          _SPI_WRITEBYTE
  D:0005H         SYMBOL        byte
  -------         DO            
  D:0004H         SYMBOL        i
  -------         ENDDO         
  C:042BH         LINE#         61
  C:042DH         LINE#         62
  C:042DH         LINE#         63
  C:042FH         LINE#         64
  C:042FH         LINE#         65
  C:042FH         LINE#         66
  C:0447H         LINE#         67
  C:0447H         LINE#         68
  C:0449H         LINE#         69
  C:044BH         LINE#         71
  C:044BH         LINE#         72
  C:044DH         LINE#         73
  C:044DH         LINE#         74
  C:044FH         LINE#         75
  C:0451H         LINE#         76
  C:0456H         LINE#         77
  -------         ENDPROC       _SPI_WRITEBYTE
  -------         PROC          SPI_READBYTE
BL51 BANKED LINKER/LOCATER V6.22                                                      02/04/2023  16:13:05  PAGE 9


  -------         DO            
  D:0005H         SYMBOL        tmp
  D:0004H         SYMBOL        i
  -------         ENDDO         
  C:03F6H         LINE#         79
  C:03F6H         LINE#         80
  C:03F6H         LINE#         81
  C:03F9H         LINE#         82
  C:03F9H         LINE#         83
  C:03F9H         LINE#         84
  C:03FDH         LINE#         85
  C:0410H         LINE#         86
  C:0410H         LINE#         87
  C:0412H         LINE#         88
  C:0414H         LINE#         90
  C:0414H         LINE#         91
  C:0416H         LINE#         92
  C:0416H         LINE#         93
  C:0418H         LINE#         94
  C:041BH         LINE#         95
  C:041BH         LINE#         96
  C:041FH         LINE#         97
  C:0421H         LINE#         99
  C:0421H         LINE#         100
  C:0421H         LINE#         101
  C:0421H         LINE#         102
  C:0423H         LINE#         103
  C:0428H         LINE#         104
  C:042AH         LINE#         105
  -------         ENDPROC       SPI_READBYTE
  -------         ENDMOD        SPI

Program Size: data=9.0 xdata=35 code=1337
LINK/LOCATE RUN COMPLETE.  0 WARNING(S),  0 ERROR(S)
