:1000030000000000000000000000000000000404E5
:10001300040404040004000000140A0A00000000A1
:1000230000000000000014143F140A3F0A0A0000F5
:1000330000041E1505060C14150F0400000012150C
:100043000D0A142C2A1200000000040A0A1E1515BA
:100053000936000000020201000000000000000059
:1000630000201008080808080810200000020408EF
:10007300080808080804020000000004150E0E1505
:100083000400000000000404041F04040400000032
:100093000000000000000000000202010000000058
:1000A300001F00000000000000000000000000002E
:1000B3000002000000100808080404020202010004
:1000C30000000E1111111111110E000000000406A1
:1000D30004040404040E000000000E1111080402BD
:1000E300011F000000000E11100C1010110E000073
:1000F3000000080C0A0A091E0818000000001F016E
:10010300010F1010110E000000000E09010F111154
:10011300110E000000001F09080404040404000079
:1001230000000E11110E1111110E000000000E112E
:1001330011111E10120E0000000000000400000048
:10014300000400000000000000040000000404009C
:100153000020100804020408102000000000000022
:100163001F00001F000000000002040810201008F8
:100173000402000000000E11110804040004000032
:1001830000000E111915151D011E000000000404C6
:100193000C0A0A1E1233000000000F12120E121274
:1001A300120F000000001E1101010101110E0000D9
:1001B30000000F1212121212120F000000001F1281
:1001C3000A0E0A02121F000000001F120A0E0A0282
:1001D3000207000000001C1201013911120C00007B
:1001E30000003312121E12121233000000001F040B
:1001F30004040404041F000000003E080808080863
:1002030008090700000037120A060A0A123700001D
:100213000000070202020202223F000000001B1B33
:100223001B1B15151515000000003B1216161A1A94
:100233001217000000000E1111111111110E000010
:1002430000000F12120E02020207000000000E113E
:1002530011111117190E180000000F12120E0A12B5
:100263001237000000001E1101060810110F0000D4
:1002730000001F1504040404040E000000003312E0
:1002830012121212120C000000003312120A0A0C8E
:100293000404000000001515150E0A0A0A0A0000DE
:1002A30000001B0A0A04040A0A1B000000001B0AC0
:1002B3000A040404040E000000001F0908040402D9
:1002C300121F0000001C04040404040404041C00A2
:1002D300000202020404080808100000000E0808C7
:1002E3000808080808080E0000040A0000000000BF
:1002F3000000000000000000000000000000003FBC
:1003030000040000000000000000000000000000E6
:10031300000C121C123C000000000302020E121219
:10032300120E000000000000001C1202021C00005C
:1003330000001810101C1212123C000000000000F4
:10034300000C121E021C000000003804041E0404EA
:10035300041E000000000000003C120C021E221CC0
:1003630000000302020E1212123700000000040004
:1003730000060404040E000000000800000C080836
:100383000808080700000302023A0A0E12370000A9
:100393000000070404040404041F0000000000001C
:1003A300000F15151515000000000000000F1212B4
:1003B3001237000000000000000C1212120C0000A3
:1003C30000000000000F1212120E020700000000CE
:1003D300001C1212121C103800000000001B060241
:1003E3000207000000000000001E020C101E0000A7
:1003F30000000004040E04040418000000000000C0
:10040300001B1212123C0000000000000037120A09
:100413000C040000000000000015150E0A0A00007D
:1004230000000000001B0A040A1B0000000000007B
:100433000037120A0C04040300000000001E080425
:10044300041E00000018080808040808080818001B
:10045300080808080808080808080808000604042B
:100463000408040404040600022518000000000028
:100473000000000000000000000000000000000079
:100483000000000000000008080808080808000031
:100493001818000000486C2412000000000000003F
:1004A300000000000000002424247F1212127F1297
:1004B300121200000000081C2A2A0A0C1828282AF5
:1004C3002A1C080800000022251515152A58545423
:1004D300542200000000000C1212120A7625291182
:1004E300916E0000000606040300000000000000F7
:1004F3000000000000402010100808080808081039
:1005030010204000000204080810101010101008FA
:10051300080402000000000008086B1C1C6B08089C
:100523000000000000000000080808087F08080811
:1005330008000000000000000000000000000000B0
:10054300060604030000000000000000FE00000097
:100553000000000000000000000000000000000098
:100563000606000000008040402020101008080408
:100573000402020000000018244242424242424266
:1005830024180000000000080E08080808080808DE
:10059300083E00000000003C4242422020100804B4
:1005A300427E00000000003C4242201820404042AE
:1005B300221C0000000000203028242422227E2058
:1005C300207800000000007E0202021A264040420A
:1005D300221C0000000000382402021A2642424274
:1005E300241800000000007E2222101008080808CA
:1005F300080800000000003C424242241824424202
:10060300423C00000000001824424242645840402B
:10061300241C000000000000000018180000000067
:10062300181800000000000000000008000000008F
:100633000008080400000040201008040204081009
:10064300204000000000000000007F0000007F0049
:1006530000000000000000020408102040201008E1
:10066300040200000000003C4242464020101000FB
:10067300181800000000001C225A555555552D42EC
:10068300221C00000000000808181414243C224215
:1006930042E700000000001F2222221E22424242A3
:1006A300221F00000000007C4242010101010142BF
:1006B300221C00000000001F2242424242424242EA
:1006C300221F00000000003F4212121E12120242BB
:1006D300423F00000000003F4212121E12120202AB
:1006E300020700000000003C2222010101712122C7
:1006F300221C0000000000E7424242427E42424286
:1007030042E700000000003E08080808080808083F
:10071300083E00000000007C101010101010101094
:100723001010110F0000007722120A0E0A12122273
:100733002277000000000007020202020202020206
:10074300427F000000000077363636362A2A2A2AEE
:100753002A6B0000000000E346464A4A52525262A6
:10076300624700000000001C2241414141414141D8
:10077300221C00000000003F424242423E020202AD
:10078300020700000000001C2241414141414D533A
:10079300321C60000000003F4242423E12122222FD
:1007A30042C700000000007C42420204182040427D
:1007B300423E00000000007F4908080808080808B6
:1007C300081C0000000000E742424242424242420B
:1007D300423C0000000000E7424222242414141883
:1007E300080800000000006B494949495555362265
:1007F30022220000000000E74224241818182424B1
:1008030042E70000000000772222141408080808B9
:10081300081C00000000007E212010100804044280
:10082300423F00000078080808080808080808087C
:1008330008087800000002020404080808101020C9
:1008430020204040001E1010101010101010101027
:1008530010101E00003844000000000000000000DB
:100863000000000000000000000000000000000085
:10087300000000FF00060800000000000000000068
:1008830000000000000000000000003C42784442E9
:1008930042FC0000000000030202021A2642424208
:1008A300261A000000000000000000384402020283
:1008B3004438000000000060404040784442424217
:1008C30064D80000000000000000003C427E0202E9
:1008D300423C0000000000F08808087E0808080871
:1008E300083E0000000000000000007C22221C02E1
:1008F3003C42423C000000030202023A46424242AA
:1009030042E700000000000C0C00000E0808080875
:10091300083E000000000030300000382020202076
:100923002020221E0000000302020272120A161285
:10093300227700000000000E0808080808080808CD
:10094300083E0000000000000000007F9292929297
:1009530092B70000000000000000003B4642424204
:1009630042E70000000000000000003C4242424217
:10097300423C0000000000000000001B26424242EF
:10098300221E020700000000000000784442424299
:10099300447840E000000000000000774C040404A9
:1009A300041F0000000000000000007C42023C40E5
:1009B300423E0000000000000008083E0808080846
:1009C3000830000000000000000000634242424281
:1009D30062DC000000000000000000E74224241451
:1009E3000808000000000000000000EB49495555CD
:1009F30022220000000000000000007624181818CE
:100A0300246E000000000000000000E742242414CC
:100A130018080807000000000000007E22100808E4
:100A2300447E000000C02020202020102020202011
:100A33002020C000101010101010101010101010F3
:100A43001010101000060808080808100808080805
:100A5300080806000C32C20000000000000000007D
:100A630000000000C9EE000027FC140414A4811048
:100A730042084040104017FC2040E0E0215022484B
:100A83002C4620400040DBDA1104112411241124E8
:100A93001124FD24112411241124112411241D24B3
:100AA300E124422402040404CAD00200010000002D
:100AB3007FFC0100010001003FF821082108210803
:100AC30021082128211001000100C8AB000000000B
:100AD300018002400430180860061FF9010001007C
:100AE30001003FF80100010001007FFEB6AF0000E6
:100AF300000000203E20007C002200227F221022E2
:100B0300102212221222224223423D82009CB5E788
:100B13000000010001001FF0610C410441047FFC4F
:100B23004104410441047FFC01000102010201FC74
:100B3300D7D3000000003FF80010006000800100E0
:100B430000807FFE0040004000200020002018406D
:100B53000780BCBC00000000104013FE10407C4026
:100B6300104013FC1104190830885050106010D045
:100B730013087C06CAF500000100013001080100DA
:100B83007FFE018003400540052009101108210460
:100B9300410201000100D3D00000010002007FFEEA
:100BA300040008001FFC700490041FFC10041004D0
:100BB3001FFC10041004103CCFDE000000007BFC7F
:100BC3004A044A044BFC52044A044BFC4A404A443C
:100BD3007A2842304210420843C6B9AB00000000F5
:100BE30004400420081010101008210442020220BF
:100BF30004100810080810081FFC0004CBBE0000F6
:100C030000003FFC000400043FF400043FE4202400
:100C130020242024202420241FC40004007CBBB6ED
:100C23000000000000807EFC02A202A222A4152480
:100C330014240C300C300C481248228442840102E4
:100C4300D3AD000000002398246414440444644496
:100C5300144414441444144415C4125C1040284032
:100C630047FEC4FA00000000120013FE24222522CE
:100C7300652862242224242020E0050814842444C7
:100C8300241A47F2B4BF00000020102013FE2020D6
:100C930026244A247A241224222423FC7C200022A2
:100CA30004227822003CC9AB0000000004000FF0CE
:100CB300102020207FFC20842084208420843FF87F
:100CC3002000200220021FFECCEE00000000204086
:100CD30023FE204079FC220423FC220423FC22046B
:100CE30023FC3A0465FA01980204B3E4000001000E
:100CF30001007FFE02200410040808043FFC0442A4
:100D030004400440044208421042607EBED8000002
:100D13000000207E3E804880488048FE48827F82D3
:100D230008820C8214FA12842280218040FED0CEE5
:100D3300000000007F842208223022C02202220405
:100D43007FC8223022C222022204220822304040DD
:100D5300BBAD000000007FFE00000FF0111011106A
:100D6300111051125FF25112511251124FF24002FF
:100D73007FFCD4B2000000007FFE47E24812481215
:100D830047E24FF2501250125112511242924472E2
:100D9300580A3FFCCDBC000000003FFE440247F26E
:100DA3004C225362408243625E1A41824062430294
:100DB30040C240223FFCC6AC00000040204020401F
:100DC30020403FFE2000200020003FE020102010A4
:100DD3002010201040104010CFD4000000003FFC32
:100DE300200420043FFC200420041FF8244414485A
:100DF300144814480C5004407FFECABE0000000093
:100E03003FFC0000000000007FFE0080089008887F
:100E1300108810842084208240820780B2CB000097
:100E2300002008207FFE002000783F8811080890EA
:100E330009207FFE018003400D30310C4002B5A52F
:100E430000000010081004203FF8210421043FFC97
:100E5300210421043FF801007FFE0100010001008D
:100E6300D6D000000100010001003FFC2104210451
:100E730021042104210421043FFC0100010001009D
:100E83000100D3A20000000008207FFE08200920F3
:100E930001003FF82108210821081FF40140022026
:100EA3000C10700ECEC400000100010000803F7CD6
:100EB3000810081004100420022002400180018061
:100EC30002601C18E006D7DB00000000102011FEB2
:100ED3002202220249FC5800300013FE25287924FF
:100EE30001240D24722202A2BACF00000000018067
:100EF30002400430180860061FF800001FF82004A1
:100F030020042004200420041FF8C1C100000100B4
:100F130001007FFE00003FF820083FF83FF840063D
:100F230047C24824082008221022603EB6C80000A9
:100F3300000000803FFE44105FFC4410441043F067
:100F430040005FF84408423041C04360BC1EB2E237
:100F53000000000067C2145205520552C5522552C3
:100F63000552055215521752228222424442483EEC
:100F7300CAD4000000002014101417FE0012001041
:100F8300601013F0109010901090149214EA1F0A3E
:100F93000006B3CC0000000019FE72021202120216
:100FA3007DFC18001BFE3420502053FE102010201F
:100FB300102013FED0F20000000000803FFE40002E
:100FC30047FC4208413040C05FFE4042404240443B
:100FD300404840404440B5F70000000023FE122281
:100FE30002FA0222E22212FE1272128A128A128A72
:100FF30016BA1A421202040EB9E2000001000104FB
:1010030011080908091009207FFE04400440044028
:101013000440084208421042607CB0E60000000031
:1010230048FE4900490049007EFE4182414479441B
:10103300452845284510452846440382C8A8000092
:101043001000100013FC7D04110419041884348863
:101053005048505010201050108813041402CBF93C
:10106300000000003F7C204020403E40227E22447E
:10107300224422443E842084208440844104420448
:10108300C6C100003FF8200820083FF824102220A2
:101093002FF8222022203FFC2220422044208420BB
:1010A3000820C4BB04407FFC04401FF010101FF055
:1010B30010101FF00400FFFE11103FF8D11611505D
:1010C30011200100D0002080108010FE0100FE00DE
:1010D30021FC20243C2424A024A024BC24A024A05C
:1010E3004560553E8A00D7AA202020202020FDFC01
:1010F3004020504093FEFC40108011FC1C04F088FB
:101103005050102010101010BFAA00007FFC0820C0
:101113000820082008200820FFFE082008200820B7
:1011230008201020102020204020D4B4000027FEE7
:101133001420144085FC450445FC150415FC2524A6
:10114300E42024A829242A2230A00040D2BA008017
:10115300204017FE11208120423C42441664129421
:101163002348E24822302220225022880306BEA7C9
:101173000FE0082008200FE0082008200FE00000FF
:101183007EFC428442847EFC428442847EFC428410
:10119300CDF800007FFC40044004421452944A54AA
:1011A300442444244A544A5452946104400440144D
:1011B3004008D5BE1020082008207E20003E0420D1
:1011C3004420442025FC290429040F04F10441048C
:1011D30001FC0104B0B410401020102013FEFA02E9
:1011E300144410401BFE3088D088110810D0102002
:1011F300105050882304BCFC201020103B7C211489
:1012030041FE7A14A27C2710F97C251025FE2210BA
:101213002A10350028FE0000D0A310401020102013
:1012230011FEFC00108831043A0254885088905013
:1012330010501020105010881306D7BC01404120D5
:10124300212023FE022016201BFC1220222023FC37
:10125300E2202220222023FE22000200B4A5202027
:101263002020782049FC91247D24552455247DFC9D
:10127300552454207C28542457FE45028C00C3FE79
:101283001110111017FC1110FC0013F8120817F8B5
:101293001A0833F8D04017FC10A011105208240686
:1012A300B6C10020202011FC1020002003FEF00214
:1012B300109410501110109013FE1428184410822B
:1012C3000302BACD04000E007800087C0844FF44F2
:1012D300084418441C442A442A444844887C08444B
:1012E30008000800D1D5100008FE7F102220147CCE
:1012F3007F4444544854525444544854515442280B
:10130300442488423082D6B5084008400FFC104080
:10131300104033F8320853F8920813F8120813F800
:10132300120812081FFE1000C8DD020001007FFE34
:101333004002882411102288044008203018DFF668
:101343001010101010101FF01010D6A7010001008C
:1013530001007FFC0100010001003FF01010082094
:1013630004400280010006C01830E00EB3D61020FE
:101373001020102011FCFC20102013FE1008180868
:1013830033FED00810881048100850282010B5E309
:1013930002000200020003FC020002003FF02010E2
:1013A300201020103FF0000024882244424480048F
:1013B300CCAC010001007FFC0100028004400A2044
:1013C3003118C0060100088848844812481287F083
:1013D3000000CA00082049202A20083EFF442A446E
:1013E300494488A41028FE28221042106428182893
:1013F3003444C282D7D6020001007FFE400280043B
:101403001FE0004000800100FFFE01000100010019
:10141300010005000200CDCB03F82208120813F8DF
:1014230002080208F3F81244122812101288130457
:101433001204280047FE0000B3F601000100210852
:101443002108210821083FF8010801000100410497
:101453004104410441047FFC0004BDC708000800A7
:101463001FE020204040BFF8210821083FF8210851
:1014730021083FF82108410841288010C9EE0000E7
:10148300000000001000000800080C7FFC0440105E
:1014930001C8A002186042301832231812C3001486
:1014A300030004030C047FF0080F80080B4078133B
:1014B3006018332018631818831C190308180300D5
:1014C300000300000000DBDA00000000000004104D
:1014D3000C04180C04108C04108C04108C04108C55
:1014E30004D08C3F108C04108C04108C04108C04DA
:1014F300108C04108C04108C05F08C0E208C78203A
:101503008C20408C00808C01000C02000C00000039
:10151300CAD00000000000000030000018000018CE
:101523000800001C1FFFE000180000182007FFF050
:101533000418200418200418200418200418200478
:1015430018200418200418200418200418E0041894
:1015530040001800001800000000D6D00000000072
:101563000000000000000000001800001800001830
:10157300000018003FFFFE3018063018063018062A
:101583003018063018063FFFFE301806001800001A
:1015930018000018000018000018000000000000E8
:1015A30000000000CEC400000000000000000000A6
:1015B3003800001C00000600FFFFFF060030060095
:1015C300300300600300600180C000C18000E300BD
:1015D300003600001C0000770003C1E01E003C60E1
:1015E3000007000000000000000000000000B2E25D
:1015F3000000000000000000000000004000032184
:10160300FF33398333118333019B33C19B33719B85
:1016130033199B33019B33019B33119B3319B33331
:10162300303033306C0330C6036383032E01BE00B6
:101633000000000000000000CAD400000000000009
:101643000000000000004000D83000CE1800C21C8B
:1016530000C001FFFF0000C0F800C01800C019FF60
:10166300C01818401818601918601B18611E18312B
:101673001C1FB139F01910000F000000000000001A
:101683000000D7D6000000000006000000030000A1
:101693000000C0000001C0C0000107C00001FF003E
:1016A300021FFE0007F01C0007C070000F00E000DF
:1016B3000E03F0001C0FF0003C0F70003C00E00034
:1016C3001800C0000000C0000000C000000060005F
:1016D30000002000000037000001FF00007FF80039
:1016E30007F830001F8030000080300000C0300059
:1016F300006060000018E000000FC000000600005A
:1017030000000000CCE50000000000000000000025
:1017130000C0000000E0002001B800703FF8006145
:10172300FFC000C3030001C60600038C06000308C4
:101733000C0006080C000E18183F1E101BF31F9018
:101743003F0700803C1C0190707C019060FE01A06B
:10175300C3F801A00FD803A00818036000180340C2
:10176300001803C0001803800018030000180000CD
:1017730000180000001000000030000000300000DE
:10178300000000000000B2E20000000000000000C2
:101793000000000000000000020C1008071FF804FE
:1017A30003BFF00201BC300303EC3003015C6003B0
:1017B30000D8600300D860038098620361B84307D0
:1017C30071B14306313243063376C3063A64C70622
:1017D3003EECC0063E78C0063C3040067C700006F6
:1017E30078E060067BFFF006F7C00006E400000621
:1017F30040000006000000060000007C00008FF09F
:1018030000007C0000000000CAD4000000000000BB
:1018130000000000000000003F0000007F80000087
:101823000180000000C0000000C0000000CE038063
:1018330000CFFFC000DD41800FFE0007FFFC000C5E
:1018430000F000180FC03E19FF40F311BC60833055
:101853007FE003B1FE200333802003700030036078
:1018630000100360001807C0000C07C000040780C5
:10187300000201000003000000010000000000005E
:0A188300000000000000000000005B
:1079BA0090003AFEE0FCA3E0FD900039E02DFD9036
:0D79CA000038E03CFC90003EE0FAA3E0FB3A
:1079D700900040EAF0A3EBF0127B0B900040E0FE32
:0679E700A3E0FF027AEBB1
:10690400900011E0FCA3E0FD90000FE0FAA3E0FB8F
:10691400A3E0FFA3E090003ECFF0A3EFF090008847
:10692400E0FFA3E0900040CFF0A3EFF090000DE073
:04693400FEA3E0FFDF
:0E693800900038EEF0A3EFF0A3ECF0A3EDF02A
:10694600900038E0FEA3E0FFC3EB9FFFEA9ECF2452
:1069560001CF3400900046F0A3EFF090003AE0FE3D
:10696600A3E0FFC390003FE09FFF90003EE09ECF74
:106976002401CF3400900048F0A3EFF090003AE0F5
:10698600FCA3E0FD90003EE0FFA3E090006ACFF09C
:10699600A3EFF0900038E0FEA3E0FF1276DBE49070
:1069A6000042F0A3F0900048E0FEA3E0FFC3900091
:1069B60043E09F900042E09E5047E4900044F0A3DD
:1069C600F0900046E0FEA3E0FFC3900045E09F90F4
:1069D6000044E09E501B900040E0FEA3E0FF127AC8
:1069E600EB900045E004F070D8900044E004F0809D
:1069F600D0900043E004F070AC900042E004F080D8
:106A0600A490008DE024FFFB90008CE034FFFA9008
:106A1600008FE024FFFE90008EE034FF90006AF0C5
:0B6A2600A3CEF0E4FDFCFFFE0276DBD7
:055AEC00E0FEA3E0FF55
:0E5AF10090001DEEF0A3EFF0A3ECF0A3EDF09B
:105AFF00E4900027F0A3F0A3F0A3F090001DE0FEC8
:105B0F00A3E0FFC3EB9FFFEA9E90002BF0A3EFF003
:105B1F0090001FE0FAA3E0FBC3900024E09BFE90EF
:105B2F000023E09A90002DF0A3CEF090001DE0FF2F
:105B3F00A3E0900035CFF0A3EFF0A3EAF0A3EBF0D2
:105B4F0090002BE0FEA3E0FFD39400EE64809480DE
:105B5F00400A900031E4F0A304F08021EF4E70086A
:105B6F00900031F0A3F0801574FF900031F0A3F096
:105B7F00C3E49FFFE49E90002BF0A3EFF090002D65
:105B8F00E0FEA3E0FFD39400EE64809480400A907F
:105B9F000033E4F0A304F08021EF4E70089000333F
:105BAF00F0A3F0801574FF900033F0A3F0C3E49FCF
:105BBF00FFE49E90002DF0A3EFF090002DE0FEA3E8
:105BCF00E0FF90002BE0FCA3E0FDD39FEE6480F894
:105BDF00EC64809890002F4007ECF0A3EDF0800567
:105BEF00EEF0A3EFF0E4900025F0A3F0900030E08A
:105BFF002401FF90002FE03400FED3900026E09F99
:105C0F00900025E09E4003025CDB900035E0FEA390
:105C1F00E0FFA3E0FCA3E0FD127A4C90002BE0FE26
:105C2F00A3E0FF900028E02FF0900027E03EF090D7
:105C3F00002DE0FEA3E0FF90002AE02FF090002956
:105C4F00E03EF090002FE0FEA3E0FF900027E0FC85
:105C5F00A3E0FDD39FEE6480F8EC6480984020EDC4
:105C6F009FFFEC9E900027F0A3EFF0900031E0FE35
:105C7F00A3E0FF900036E02FF0900035E03EF0906B
:105C8F00002FE0FEA3E0FF900029E0FCA3E0FDD38E
:105C9F009FEE6480F8EC6480984020ED9FFFEC9EAF
:105CAF00900029F0A3EFF0900033E0FEA3E0FF9007
:105CBF000038E02FF0900037E03EF0900026E0042F
:0C5CCF00F07006900025E004F0025BFB82
:015CDB0022A6
:0E54EE00900004EEF0A3EFF0A3ECF0A3EDF0BD
:1054FC00E4900012F0A3F0A3F0A3F0900004E0FEFF
:10550C00A3E0FFC3EB9FFFEA9E900016F0A3EFF021
:10551C00900006E0FAA3E0FBC390000BE09BFE902A
:10552C00000AE09A900018F0A3CEF0900004E0FF7F
:10553C00A3E0900020CFF0A3EFF0A3EAF0A3EBF0F0
:10554C00900016E0FEA3E0FFD39400EE64809480FC
:10555C00400A90001CE4F0A304F08021EF4E700888
:10556C0090001CF0A3F0801574FF90001CF0A3F0C9
:10557C00C3E49FFFE49E900016F0A3EFF090001898
:10558C00E0FEA3E0FFD39400EE64809480400A9088
:10559C00001EE4F0A304F08021EF4E700890001E72
:1055AC00F0A3F0801574FF90001EF0A3F0C3E49FED
:1055BC00FFE49E900018F0A3EFF0900018E0FEA31B
:1055CC00E0FF900016E0FCA3E0FDD39FEE6480F8B2
:1055DC00EC64809890001A4007ECF0A3EDF0800585
:1055EC00EEF0A3EFF0E4900010F0A3F090001BE0BD
:1055FC002401FF90001AE03400FED3900011E09FCC
:10560C00900010E09E40030256F7900022E0FCA3AD
:10561C00E0FD90000EE0FAA3E0FB90000CE0FFA38D
:10562C00E090002ACFF0A3EFF0A3E4F0A304F090F5
:10563C000020E0FEA3E0FF1258F6900016E0FEA357
:10564C00E0FF900013E02FF0900012E03EF090008D
:10565C0018E0FEA3E0FF900015E02FF0900014E09E
:10566C003EF090001AE0FEA3E0FF900012E0FCA3D5
:10567C00E0FDD39FEE6480F8EC6480984020ED9FB1
:10568C00FFEC9E900012F0A3EFF090001CE0FEA344
:10569C00E0FF900021E02FF0900020E03EF0900021
:1056AC001AE0FEA3E0FF900014E0FCA3E0FDD39F02
:1056BC00EE6480F8EC6480984020ED9FFFEC9E90A7
:1056CC000014F0A3EFF090001EE0FEA3E0FF9000AA
:1056DC0023E02FF0900022E03EF0900011E004F067
:0B56EC007006900010E004F00255F87A
:0156F7002290
:10716900900005EAF0A3EBF0900001EEF0A3EFF038
:10717900A3ECF0A3EDF0C007A3E0FAA3E0FB9000B5
:1071890003E0FFA3E0900023CFF0A3EFF0D00712B4
:107199005AF1900001E0FAA3E0FBFFAE02C007A399
:1071A900E0FCA3E0FD900007E0FFA3E0900023CFFF
:1071B900F0A3EFF0D007125AF1900007E0FCA3E02A
:1071C900FD900005E0FAA3E0FBA3E0FFA3E0900037
:1071D90023CFF0A3EFF0900001125AEC900005E0E4
:1071E900FAA3E0FBFFAE02C007900003E0FCA3E0B6
:1071F900FD900007E0FFA3E0900023CFF0A3EFF09C
:05720900D007025AF15C
:107AC600C007900036E0FFA3E090003ECFF0A3EFA2
:107AD600F0900088E0FFA3E0900040CFF0A3EFF025
:057AE600D00702693821
:1067C70090003CF0A3EFF0900028E0FFA3E09000DA
:0E67D7003ECFF0A3EFF0900024E0FEA3E0FF21
:1067E500900038ECF0A3EDF0900036EEF0A3EFF05A
:1067F50090003AEAF0A3EBF02FFFEE3AA31279BD31
:1068050090003AE0FEA3E0FFC3900037E09FFF90C1
:106815000036E09EFE90003C1279BE90003AE0FE04
:10682500A3E0FF900037E02FFF900036E03EFE909A
:10683500003CE0FCA3E0FDC3900039E09DFD900025
:1068450038E09C1279CE90003AE0FEA3E0FFC390B9
:106855000037E09FFF900036E09EFE90003CE0FC94
:10686500A3E0FDC3900039E09DFD900038E09C1247
:1068750079CE90003CE0FEA3E0FF900037E02FFFCB
:10688500900036E03E1279BA90003CE0FEA3E0FFAE
:10689500C3900037E09FFF900036E09E1279BA90D2
:1068A500003CE0FEA3E0FF900037E02FFF900036AC
:1068B500E03EFE90003AE0FCA3E0FDC3900039E025
:1068C5009DFD900038E09C1279CE90003CE0FEA33F
:1068D500E0FFC3900037E09FFF900036E09EFE90FA
:1068E500003AE0FCA3E0FDC3900039E09DFD900077
:0F68F50038E09CFC90003EE0FAA3E0FB0279D76C
:1058F600900024EEF0A3EFF0A3ECF0A3EDF0A3EA02
:04590600F0A3EBF02F
:10590A00E490002EF0A3F090002AE0FEA3E0FF90BE
:10591A000030EEF0A3EFF025E0FFEE33FEC3740390
:10592A009F900035F0E49E900034F090002CE070D7
:10593A0002A3E07003025A39900030E0FEA3E0FFB0
:10594A0090002EE0FCA3E0FDD39FEE6480F8EC64A7
:10595A0080984003025AEB900032ECF0A3EDF090ED
:10596A000030E0FEA3E0FFD3900033E09FEE6480B6
:10597A00F8900032E0648098502B900026E0FCA357
:10598A00E0FD90002EE0FAA3E0FB900032E0FFA3D6
:10599A00E0CF1267C7900033E004F070C290003283
:1059AA00E004F080BA900034E0FCA3E0FDC3EC64AC
:1059BA00809480502390002EE0FEA3E07802C33347
:1059CA00CE33CED8F92DFFEC3ECF2406CF3400904B
:1059DA000034F0A3EFF08043900030E0FEA3E0FF34
:1059EA00C390002FE09FFF90002EE09EFEEF78020A
:1059FA00C333CE33CED8F9FF900035E02FFF9000A5
:105A0A0034E03ECF240ACF3400F0A3EFF090003107
:105A1A00E024FFF0900030E034FFF090002FE00423
:105A2A00F0600302594290002EE004F002594290BD
:105A3A000030E0FEA3E0FF90002EE0FAA3E0FBD3E3
:105A4A009FEE6480F8EA6480984003025AEB900063
:105A5A0026E0FCA3E0FDEE1267C7900034E0FCA349
:105A6A00E0FDC3EC64809480502390002EE0FEA3F6
:105A7A00E07802C333CE33CED8F92DFFEC3ECF24E3
:105A8A0006CF3400900034F0A3EFF080439000304A
:105A9A00E0FEA3E0FFC390002FE09FFF90002EE0FE
:105AAA009EFEEF7802C333CE33CED8F9FF9000358D
:105ABA00E02FFF900034E03ECF240ACF3400F0A359
:105ACA00EFF0900031E024FFF0900030E034FFF076
:105ADA0090002FE004F0700690002EE004F0025AC5
:015AEA003982
:015AEB002298
:0449C700900010F05C
:0E49CB0090000AEEF0A3EFF0A3ECF0A3EDF0E5
:1049D900C374019B900012F0E49A900011F09000CA
:1049E90013E4F0A304F07CFF7DFEAF03AE021231A5
:1049F9002FA3EEF0A3EFF0E4A3F0A3F0AF03A3EA33
:104A0900F0A3EFF0900019E0FEA3E0FFC3900018B7
:104A1900E09F900017E09E4003024C0CC3900011E8
:104A2900E064809480402D90001AE024FFF090000B
:104A390019E034FFF0900016E02402F0900015E030
:104A49003400F0E0FEA3E0FF900012E02FF09000A8
:104A590011E03EF0900018E004F07006900017E0B5
:104A690004F0900014E02402F0900013E03400F008
:104A7900E0FEA3E0FF900012E02FF0900011E03E6D
:104A8900F0900010E030E256900017E0FEA3E0FF3E
:104A990090000BE02FFF90000AE03EFE900019E025
:104AA900FCA3E0FD90000DE02DFD90000CE03CFC26
:104AB900127A4C900019E0FEA3E0FF90000BE02F62
:104AC900FF90000AE03EFE900017E0FCA3E0FD9095
:104AD900000DE02DFD90000CE03CFC127A4C90009A
:104AE90010E030E158900017E0FEA3E0FF90000BC2
:104AF900E02FFF90000AE03EFE900019E0FCA3E0E1
:104B0900FDC390000DE09DFD90000CE09CFC127A25
:104B19004C900019E0FEA3E0FF90000BE02FFF90FE
:104B2900000AE03EFE900017E0FCA3E0FDC3900000
:104B39000DE09DFD90000CE09CFC127A4C90001059
:104B4900E030E358900019E0FEA3E0FFC390000BAA
:104B5900E09FFF90000AE09EFE900017E0FCA3E0B2
:104B6900FD90000DE02DFD90000CE03CFC127A4C0C
:104B7900900017E0FEA3E0FFC390000BE09FFF90B9
:104B8900000AE09EFE900019E0FCA3E0FD90000DF4
:104B9900E02DFD90000CE03CFC127A4C900010E0F6
:104BA90020E003024A0D900019E0FEA3E0FFC39044
:104BB900000BE09FFF90000AE09EFE900017E0FCCA
:104BC900A3E0FDC390000DE09DFD90000CE09CFC6E
:104BD900127A4C900017E0FEA3E0FFC390000BE0AF
:104BE9009FFF90000AE09EFE900019E0FCA3E0FD03
:104BF900C390000DE09DFD90000CE09CFC127A4CE6
:034C0900024A0D4F
:014C0C002285
:0E3D440090000AEEF0A3EFF0A3ECF0A3EDF078
:103D5200C374019B900014F0E49A900013F0900059
:103D620015E4F0A304F07CFF7DFEAF03AE02123136
:103D72002FA3EEF0A3EFF0E4A3F0A3F0AF03A3EAC6
:103D8200F0A3EFF090001BE0FEA3E0FFC390001A47
:103D9200E09F900019E09E4003023FEEC3900013A3
:103DA200E064809480402D90001CE024FFF090009D
:103DB2001BE034FFF0900018E02402F0900017E0BE
:103DC2003400F0E0FEA3E0FF900014E02FF090003A
:103DD20013E03EF090001AE004F07006900019E043
:103DE20004F0900016E02402F0900015E03400F098
:103DF200E0FEA3E0FF900014E02FF0900013E03EFD
:103E0200F0900010E020E003023EF5900019E0FE81
:103E1200A3E0FF90000BE02FFF90000AE03EFEC0FF
:103E220006C00790001BE0FEA3E0FFC390000DE078
:103E32009FFD90000CE09EFC900019E0FEA3E0FFC5
:103E420090000AE0FAA3E02FFBEA3EFA90001BE0A2
:103E5200FEA3E0FF90000CE0F8A3E02FFFE83ECFC6
:103E62002401CF3400FE900011E0F8A3E02FFFE818
:103E72003E900023F0A3EFF0D007D006125AF19043
:103E8200001BE0FEA3E0FF90000BE02FFF90000A72
:103E9200E03EFEC006C007900019E0FEA3E0FFC3AB
:103EA20090000DE09FFD90000CE09EFC90001BE056
:103EB200FEA3E0FF90000AE0FAA3E02FFBEA3EFA3D
:103EC200900019E0FEA3E0FF90000CE0F8A3E02FC1
:103ED200FFE83ECF2401CF3400FE900011E0F8A3AA
:103EE200E02FFFE83E900023F0A3EFF0D007D006CA
:103EF200125AF1900010E020E103023D8690001971
:103F0200E0FEA3E0FFC390000BE09FFF90000AE0F9
:103F12009EFEC006C00790001BE0FEA3E0FFC39018
:103F2200000DE09FFD90000CE09EFC900019E0FE69
:103F3200A3E0FF90000AE0FAA3E0C39FFBEA9EFA27
:103F420090001BE0FEA3E0FF90000CE0F8A3E02F3E
:103F5200FFE83ECF2401CF3400FE900011E0F8A329
:103F6200E02FFFE83E900023F0A3EFF0D007D00649
:103F7200125AF190001BE0FEA3E0FFC390000BE099
:103F82009FFF90000AE09EFEC006C007900019E065
:103F9200FEA3E0FFC390000DE09FFD90000CE09EA9
:103FA200FC90001BE0FEA3E0FF90000AE0FAA3E011
:103FB200C39FFBEA9EFA900019E0FEA3E0FF900087
:103FC2000CE0F8A3E02FFFE83ECF2401CF3400FE3F
:103FD200900011E0F8A3E02FFFE83E900023F0A349
:0C3FE200EFF0D007D006125AF1023D8625
:013FEE0022B0
:105CDC00900000EEF0A3EFF0A3ECF0A3EDF0A3EA3C
:105CEC00F0A3EBF0900008E0FEA3E0FF900001E0D1
:105CFC002FFF900000E03EFEC006C007900002E0BF
:105D0C00FCA3E0FD900008E0FEA3E0FF900004E09F
:105D1C00FAA3E0C39FFBEA9EFA900002E0FFA3E027
:105D2C00900023CFF0A3EFF0D007D006125AF190D9
:105D3C000008E0FEA3E0FF900003E02FFD900002BE
:105D4C00E03EFC900000E0FAA3E0FB900006E0F8D7
:105D5C00A3E0C39FFFE89E900023F0A3EFF0900018
:105D6C0000125AEC900008E0FEA3E0FF900001E066
:105D7C002FFF900000E03EFEC006C007900006E03A
:105D8C00FCA3E0FDA3E0FEA3E0FF900004E0FAA377
:105D9C00E0C39FFBEA9EFAA3E0FFA3E0900023CFB1
:105DAC00F0A3EFF0D007D006125AF1900008E0FEF5
:105DBC00A3E0FF900003E02FFD900002E03EFC907A
:105DCC000004E0FAA3E0FB900006E0F8A3E0C39F18
:105DDC00FFE89E900023F0A3EFF0900004125AEC21
:105DEC00900008E0FEA3E0FF900001E02FFF900080
:105DFC0000E03EFE900008E0FCA3E0FD900003E014
:105E0C002DFD900002E03CFC900008E0FAA3E0FBC2
:105E1C0074011249C7900008E0FEA3E0FFC3900094
:105E2C0005E09FFF900004E09EFE900008E0FCA3BC
:105E3C00E0FD900003E02DFD900002E03CFC9000A2
:105E4C0008E0FAA3E0FB74021249C7900008E0FED8
:105E5C00A3E0FFC3900005E09FFF900004E09EFECE
:105E6C00900008E0FCA3E0FDC3900007E09DFD90CE
:105E7C000006E09CFC900008E0FAA3E0FB90001008
:105E8C007404F01249CB900008E0FEA3E0FF9000F0
:105E9C0001E02FFF900000E03EFE900008E0FCA324
:105EAC00E0FDC3900007E09DFD900006E09CFC9097
:105EBC000008E0FAA3E0FB9000107408F00249CB54
:10667600900000EEF0A3EFF0A3ECF0A3EDF0A3EA98
:10668600F0A3EBF0900008E0FEA3E0FF900001E02D
:106696002FFF900000E03EFEC006C007900002E01B
:1066A600FCA3E0FD900008E0FEA3E0FF900004E0FC
:1066B600FAA3E0C39FFBEA9EFAA3E0FEA3E024014F
:1066C600FFE43E90003EF0A3EFF0900088E0FFA3C9
:1066D600E0900040CFF0A3EFF0D007D00612693863
:1066E600900008E0FCA3E0FDC3900005E09DFF904C
:1066F6000004E09CFEC006C007900003E02DFD905C
:106706000002E03CFCC004C005900008E0FAA3E0EB
:10671600FB9000107401F0900002E0FEA3E0FF90F1
:106726000006E0FCA3E0C39FFDEC9EFC900009E0A0
:1067360025E0FF900008E033FEC3ED9FFFEC9E903E
:106746000011F0A3EFF0D005D004D007D006123D1B
:1067560044900008E0FCA3E0FD900001E02DFF90CE
:106766000000E03CFEC006C007900003E02DFD904F
:106776000002E03CFCC004C005900008E0FAA3E07B
:10678600FB9000107402F0900002E0FEA3E0FF9080
:106796000006E0FCA3E0C39FFDEC9EFC900009E030
:1067A60025E0FF900008E033FEC3ED9FFFEC9E90CE
:1067B6000011F0A3EFF0D005D004D007D006023DBB
:0167C600448E
:1075FA00900001EEF0A3EFF0A3ECF0A3EDF0A3EA04
:10760A00F0A3EBF0C007A3E0FFA3E0900023CFF0C4
:10761A00A3EFF0D007125AF1900007E0FCA3E0FDB7
:10762A00A3E0FAA3E0FBA3E0FFA3E0900023CFF0DE
:10763A00A3EFF0900005125AEC90000BE0FCA3E0D7
:10764A00FD900001E0FAA3E0FBA3E0FFA3E09000B5
:10765A0023CFF0A3EFF0900009E0FEA3E0FF025A67
:01766A00F12E
:1077420090002C7401F0A37400F0A37407F07B0185
:047752007A0079033D
:0B775600900029EBF0A3EAF0A3E9F09B
:1077610012318DFFAEF090002CE0FBA3E0FAA3E014
:10777100F912318DFD900029E0FBA3E0FAA3E0F9B5
:10778100E5F08DF01231B890002CE0FBA3E0FAA3F4
:08779100E0F9EE8FF00231B8BF
:1034E500900001EEF0A3EFF0A3ECF0A3EDF0A3EA5A
:0434F500F0A3EBF065
:1034F90090002112330000000000900025123300D3
:1035090000000000900007E0FEA3E0FF900003E048
:10351900FCA3E0D39FEC9E401A12774290002C74D2
:1035290001F0A37400F0A37405F07B017A0079011E
:1035390012775690000BE0FEA3E0FF900007E0FC35
:10354900A3E0D39FEC9E402E90002C7401F0A3744D
:1035590000F0A37407F07B017A00790B127756907B
:10356900002C7401F0A37400F0A37405F07B017AB8
:10357900007909127756900007E0FEA3E0FF90005A
:1035890003E0FCA3E0D39FEC9E401A12774290001F
:103599002C7401F0A37400F0A37405F07B017A0088
:1035A900790112775690000BE0FEA3E0FF9000032B
:1035B900E0FCA3E0FD6F7002EC6E600302368D90B3
:1035C9000001E0FEA3E0FF90000FEEF0A3EFF09002
:1035D900000DEEF0A3EFF090000DE0FEA3E0FF90E8
:1035E9000005E0FAA3E0FBC39FEA9E500A90000D94
:1035F900EAF0A3EBF0801E90000FE0FEA3E0FFD3FA
:10360900EB9FEA9E400F900005E0FFA3E090000FBA
:10361900CFF0A3EFF090000DE0FEA3E0FF900009CA
:10362900E0FAA3E0FBC39FEA9E500A90000DEAF07E
:10363900A3EBF0801E90000FE0FEA3E0FFD3EB9F09
:10364900EA9E400F900009E0FFA3E090000FCFF041
:10365900A3EFF090000FE0FAA3E0FB900003E0FF76
:10366900A3E090003ECFF0A3EFF0900088E0FFA325
:10367900E0900040CFF0A3EFF090000DE0FEA3E052
:10368900FF026938900001E0FAA3E0FB900005E031
:10369900FEA3E0C39BFFEE9A900015F0A3EFF09014
:1036A9000003E0FEA3E0FF900007E0FCA3E0C39F56
:1036B900FFEC9E900017F0A3EFF0900009E0FEA345
:1036C900E0C39BFFEE9A900019F0A3EFF09000037E
:1036D900E0FEA3E0FF90000BE0FCA3E0C39FFFEC3A
:1036E9009E90001BF0A3EFF0900005E0FEA3E0FF21
:1036F900900009E0FCA3E0C39FFFEC9E90001DF041
:10370900A3EFF0900007E0FAA3E0FB90000BE0FCC8
:10371900A3E0FDC39BFEEC9A90001FF0A3CEF0EB53
:10372900B50510EAB5040C900007FFA3E09000135B
:10373900CF8010900007E0FEA3E024FFFFEE34FFE6
:10374900900013F0A3EFF0900003E0FFA3E09000D6
:1037590011CFF0A3EFF0900013E0FEA3E0FF90007B
:1037690011E0FCA3E0D39FEC9E400302387990005E
:1037790017E0FEA3E0FBAA06EA3395E0F9F890000A
:1037890021E0FCA3E0FDA3E0FEA3E0FF1278C790CF
:103799000001E0FCA3E02FFFEC3E90000DF0A3EF49
:1037A900F090001BE0FEA3E0FBAA06EA3395E0F9DE
:1037B900F8900025E0FCA3E0FDA3E0FEA3E0FF12E2
:1037C90078C7900001E0FCA3E02FFFEC3E90000FCA
:1037D900F0A3EFF0900021E0F8A3E0F9A3E0FAA349
:1037E900E0FB900015E0FEA3E0FFEE3395E0FDFC61
:1037F900EB2FFFEA3EFEE93DFDE83CFC900021127B
:1038090032F4900025E0F8A3E0F9A3E0FAA3E0FB85
:10381900900019E0FEA3E0FFEE3395E0FDFCEB2FED
:10382900FFEA3EFEE93DFDE83CFC9000251232F43A
:1038390090000FE0FEA3E0FF90000DE0FCA3E0D3B1
:103849009FEC9E401790002C7401F0A37400F0A324
:10385900740FF07B017A00790D1277561269049082
:103869000012E004F07006900011E004F002375FE6
:10387900900007E0FEA3E0FF900011E0FAA3E0FB4F
:10388900C39FFFEA9EFE90001DE0FCA3E0FD1231FC
:103899002FE4FCFD9000211232F4900003E0FEA316
:1038A900E0FFC3EB9FFFEA9EFE900019E0FCA3E056
:1038B900FD12312FE4FCFD9000251232F490000B2B
:1038C900E0FEA3E0FF900011E0FCA3E0D39FEC9E93
:1038D90040030239DE90001FE0FEA3E0FBAA06EADE
:1038E9003395E0F9F8A3E0FCA3E0FDA3E0FEA3E033
:1038F900FF1278C7900005E0FCA3E02FFFEC3E9093
:10390900000DF0A3EFF090001BE0FEA3E0FBAA0678
:10391900EA3395E0F9F8900025E0FCA3E0FDA3E087
:10392900FEA3E0FF1278C7900001E0FCA3E02FFF9F
:10393900EC3E90000FF0A3EFF0900021E0F8A3E037
:10394900F9A3E0FAA3E0FB90001DE0FEA3E0FFEE7F
:103959003395E0FDFCEB2FFFEA3EFEE93DFDE83C37
:10396900FC9000211232F4900025E0F8A3E0F9A3BD
:10397900E0FAA3E0FB900019E0FEA3E0FFEE339527
:10398900E0FDFCEB2FFFEA3EFEE93DFDE83CFC9043
:1039990000251232F490000FE0FEA3E0FF90000D25
:1039A900E0FCA3E0D39FEC9E401790002C7401F03B
:1039B900A37400F0A3740FF07B017A00790D1277DC
:1039C90056126904900012E004F07006900011E0AC
:0539D90004F00238C6F5
:0139DE0022C6
:1052D600F090004CE090005AF0900044E0FAA3E011
:0152E600FBCC
:1052E700900050EEF0A3EFF0900054EAF0A3EBF03B
:0852F700900052ECF0A3EDF071
:1052FF00900088E0FFA3E090005ECFF0A3EFF09066
:10530F000058E024E0F0A3E0F9C313FF7E00900003
:10531F0050E0FAA3E02FFFEE3ACF24FFFBEF34FF6C
:10532F00FAE9FFA3E0F8A3E02FFFEE38CF24FFCF79
:10533F0034FF90006AF0A3EFF0900050E0FEA3E07E
:10534F00FF1276DB90005AE060030253F690005C88
:10535F00F0900059E0FF90005CE0FEC39F40030215
:10536F0054B5EFB40C17900058E075F00CA424035B
:10537F00F582E5F03400F583E5822E801A90005C0B
:10538F00E0FF900058E075F010A42477F582E5F067
:10539F003404F583E5822FF582E43583F583E493B6
:1053AF0090005BF0E490005DF0900059E0C313FFB4
:1053BF0090005DE0C39F502690005BE030E00590C9
:1053CF0000548003900056E0FEA3E0FF127AEB90AA
:1053DF00005BE0C313F090005DE004F080CB900021
:1053EF005CE004F0025360E490005CF0900059E040
:1053FF00FF90005CE0FEC39F40030254B5EFB40C76
:10540F0017900058E075F00CA42403F582E5F034F2
:10541F0000F583E5822E801A90005CE0FF90005823
:10542F00E075F010A42477F582E5F03404F583E5F8
:10543F00822FF582E43583F583E49390005BF0E4EB
:10544F0090005DF0900059E0C313FF90005DE0FE07
:10545F00C39F5049900054E0FDA3E0900088CDF029
:10546F00A3EDF090005BE030E024EEFF900051E000
:10547F002FFF900050E03400FE90005CE0FD9000A4
:10548F0053E02DFD900052E03400FC127A4C900056
:10549F005BE0C313F090005DE004F080A790005C28
:1054AF00E004F00253FB90005EE0FFA3E090008861
:1054BF00CFF0A3EFF090008DE024FFFB90008CE085
:1054CF0034FFFA90008FE024FFFE90008EE034FF4F
:0F54DF0090006AF0A3CEF0E4FDFCFFFE0276DB46
:106E7900900004EEF0A3EFF0A3ECF0A3EDF0A3EB88
:106E8900F0900009E0FBA3E0FAA3E0F91230C7FF94
:106E9900D3947E4003026F3AEFC394205003026FEC
:106EA9003A90008DE024FFFD90008CE034FFFC90C7
:106EB9000004E0FEA3E0FFD39DEE9C507490008F88
:106EC900E024FFFB90008EE034FFFA900006E0FC1E
:106ED900A3E0FDD39BEC9A505890008AE0FBA3E015
:106EE900900056CBF0A3EBF0900009E0FBA3E0FA89
:106EF900A3E0F91230C7900058F0900008E0900024
:106F090059F090000CE090005AF09000881252E27B
:106F1900900008E0C313FF900005E02FF0900004F3
:106F2900E03400F090000AE475F001123177026E46
:026F39008A22AA
:08787E0090000EEFF0A3EDF005
:10788600A31233000000000190000FE0FF14F0EF98
:107896006020A3E0F8A3E0F9A3E0FAA3E0FB9000E0
:1078A6000EE0FFE4FCFDFE1231D79000101232F418
:1078B60080D6900010E0FCA3E0FDA3E0FEA3E0FF6D
:0178C600229F
:0E6A3100900001EEF0A3EFF0A3ECF0A3EDF067
:106A3F00E490000DF090000BF0900009E0FF900043
:106A4F000BE0FEC39F4003026B41C3EF9E14FD7F1B
:106A5F000A12787EA804A905AA06AB07900005E0E4
:106A6F00FCA3E0FDA3E0FEA3E0FF123262E47B0A89
:106A7F00FAF9F812326290000CEBF0A3E070579025
:106A8F000009E014FF90000BE0FEC39F5048A3E005
:106A9F00703E90000AE0F9C3138EF0A4FF9000023D
:106AAF00E02FFF900001E035F0FEC007900003E0FB
:106ABF00FCA3E0FD900088E0FAA3E0FB90008AE0E1
:106ACF00FFA3E0900056CFF0A3EFF0A37420804D0A
:106ADF0090000D7401F090000AE0F9C313FFA3E0DA
:106AEF00FEEF8EF0A4FF900002E02FFF900001E078
:106AFF0035F0FEC007900003E0FCA3E0FD90008896
:106B0F00E0FAA3E0FB90008AE0FFA3E0900056CFED
:106B1F00F0A3EFF090000CE02430900058F0A3E9C0
:106B2F00F0E4A3F0D0071252E790000BE004F0025C
:026B3F006A48A2
:016B41002231
:104C0D00900052ECF0A3EDF0A3EAF0A3EBF09000CE
:064C1D0050EEF0A3EFF0E1
:104C2300900062EEF0A3EFF0900060E4F0A3744C08
:104C3300F0E490005EF0A3F0900060E0FEA3E0FFDC
:104C430090005EE0FCA3E0FDC39FEC9E4003024E98
:104C530026900058E0FBA3E0FAA3E0F91230C7FF67
:104C6300900A6775F022ED123331EC75F022A4251A
:104C730083F583E4936F6003024E159000011230B5
:104C8300E0FF90005EA3E0900A6875F022123331D2
:104C9300EC75F022A42583F583E4936F6003024E41
:104CA30015900050E0FAA3E0FBFFAE02C006C00778
:104CB300A3E0FCA3E0FDEB240FFBE43AFA900052DF
:104CC300E0FEA3E0240FFFE43E90006AF0A3EFF0C0
:104CD300D007D0061276DBE490005CF0E490005D30
:104CE300F090005DE0FFC394084003024E0690007D
:104CF3005BE0705AA3E0FE90005EE0FCA3E0900A44
:104D03006975F022123331EC75F022A42583F58303
:104D1300E5822EF582E43583F583E493FD3395E054
:104D2300FC74807E00A807088006CEA2E713CE138A
:104D3300D8F8FFEE5CFEEF5D4E60059000548003F3
:104D4300900056E0FEA3E0FF127AEB024DFD9000C7
:104D530054E0FFA3E0900088CFF0A3EFF090005C55
:104D6300E0FF90005EE0FCA3E0900A6975F0221278
:104D73003331EC75F022A42583F583E5822FF58288
:104D8300E43583F583E493FD3395E0FC90005DE027
:104D9300FF74807E00A807088006CEA2E713CE1317
:104DA300D8F8FFEE5CFEEF5D4E6011900050E0FE20
:104DB300A3E0FFA3E0FCA3E0FD127A4C900051E0D6
:104DC30004F07006900050E004F0900062E0FEA34F
:104DD300E0FFC3900051E09FFD900050E09EFCED8A
:104DE30064104C7015EEF0A3EFF0900053E004F064
:104DF3007011900052E004F0800990005DE004F02F
:104E0300024CE490005CE004F0E0C3942050030201
:104E13004CDF90005FE004F0700690005EE004F069
:104E2300024C3B90008DE024FFFB90008CE034FFAC
:104E3300FA90008FE024FFFE90008EE034FF900094
:0D4E43006AF0A3CEF0E4FDFCFFFE0276DB7A
:104E5000900052ECF0A3EDF0A3EAF0A3EBF0900089
:064E600050EEF0A3EFF09C
:104E6600900062EEF0A3EFF0900060E4F0A3740708
:104E7600F0E490005EF0A3F0900060E0FEA3E0FF97
:104E860090005EE0FCA3E0FDC39FEC9E4003025051
:104E960069900058E0FBA3E0FAA3E0F91230C7FFDF
:104EA60090147F75F04AED123331EC75F04AA42563
:104EB60083F583E4936F600302505890000112302B
:104EC600E0FF90005EA3E090148075F04A12333143
:104ED600EC75F04AA42583F583E4936F60030250D2
:104EE60058900050E0FAA3E0FBFFAE02C006C007F0
:104EF600A3E0FCA3E0FDEB2417FBE43AFA90005292
:104F0600E0FEA3E02417FFE43E90006AF0A3EFF072
:104F1600D007D0061276DBE490005CF0E490005DEA
:104F2600F090005DE0FFC3940840030250499000F2
:104F36005BE0705AA3E0FE90005EE0FCA3E09014F4
:104F46008175F04A123331EC75F04AA42583F58356
:104F5600E5822EF582E43583F583E493FD3395E00F
:104F6600FC74807E00A807088006CEA2E713CE1345
:104F7600D8F8FFEE5CFEEF5D4E60059000548003AE
:104F8600900056E0FEA3E0FF127AEB02504090003C
:104F960054E0FFA3E0900088CFF0A3EFF090005C10
:104FA600E0FF90005EE0FCA3E090148175F04A12E9
:104FB6003331EC75F04AA42583F583E5822FF5821B
:104FC600E43583F583E493FD3395E0FC90005DE0E2
:104FD600FF74807E00A807088006CEA2E713CE13D2
:104FE600D8F8FFEE5CFEEF5D4E6011900050E0FEDB
:104FF600A3E0FFA3E0FCA3E0FD127A4C900051E091
:1050060004F07006900050E004F0900062E0FEA309
:10501600E0FFC3900051E09FFD900050E09EFCED44
:1050260064184C7015EEF0A3EFF0900053E004F016
:105036007011900052E004F0800990005DE004F0E9
:10504600024F2790005CE004F0E0C394485003024E
:105056004F2290005FE004F0700690005EE004F0DE
:10506600024E7E90008DE024FFFB90008CE034FF22
:10507600FA90008FE024FFFE90008EE034FF90004F
:0D5086006AF0A3CEF0E4FDFCFFFE0276DB35
:10509300900052ECF0A3EDF0A3EAF0A3EBF0900044
:0650A30050EEF0A3EFF057
:1050A900900062EEF0A3EFF0900060E4F0A37404C6
:1050B900F0E490005EF0A3F0900060E0FEA3E0FF52
:1050C90090005EE0FCA3E0FDC39FEC9E400302520A
:1050D900AC900058E0FBA3E0FAA3E0F91230C7FF57
:1050E90090168575F082ED123331EC75F082A425A6
:1050F90083F583E4936F600302529B9000011230A1
:10510900E0FF90005EA3E090168675F082123331BD
:10511900EC75F082A42583F583E4936F6003025252
:105129009B900050E0FAA3E0FBFFAE02C006C00767
:10513900A3E0FCA3E0FDEB241FFBE43AFA90005244
:10514900E0FEA3E0241FFFE43E90006AF0A3EFF025
:10515900D007D0061276DBE490005CF0E490005DA5
:10516900F090005DE0FFC39408400302528C900068
:105179005BE0705AA3E0FE90005EE0FCA3E09016AD
:105189008775F082123331EC75F082A42583F5839B
:10519900E5822EF582E43583F583E493FD3395E0CA
:1051A900FC74807E00A807088006CEA2E713CE1300
:1051B900D8F8FFEE5CFEEF5D4E6005900054800369
:1051C900900056E0FEA3E0FF127AEB0252839000B2
:1051D90054E0FFA3E0900088CFF0A3EFF090005CCB
:1051E900E0FF90005EE0FCA3E090168775F0821264
:1051F9003331EC75F082A42583F583E5822FF5829E
:10520900E43583F583E493FD3395E0FC90005DE09C
:10521900FF74807E00A807088006CEA2E713CE138C
:10522900D8F8FFEE5CFEEF5D4E6011900050E0FE95
:10523900A3E0FFA3E0FCA3E0FD127A4C900051E04B
:1052490004F07006900050E004F0900062E0FEA3C4
:10525900E0FFC3900051E09FFD900050E09EFCEDFF
:1052690064204C7015EEF0A3EFF0900053E004F0C9
:105279007011900052E004F0800990005DE004F0A4
:1052890002516A90005CE004F0E0C394805003028C
:10529900516590005FE004F0700690005EE004F054
:1052A9000250C190008DE024FFFB90008CE034FF98
:1052B900FA90008FE024FFFE90008EE034FF90000A
:0D52C9006AF0A3CEF0E4FDFCFFFE0276DBF0
:103FEF00900042ECF0A3EDF0A3EAF0A3EBF0900009
:063FFF0040EEF0A3EFF01C
:1040050090004DEEF0A3EFF0E4A3F0900048E0FB44
:10401500A3E0FAA3E0F91230C7700302428F9000C3
:104025004FE0600302415190004BE0FFC313FDC315
:1040350090008DE09DFD90008CE09400FCD39000F5
:1040450041E09D900040E09C400302428FC39000F8
:104055008FE09FFF90008EE09400FE900042E0FC10
:10406500A3E0FDD39FEC9E400302428F900048E001
:10407500FBA3E0FAA3E0F91230C7FFD39480400810
:1040850090004F7401F08083EFB40D2E90004BE04B
:10409500FF900043E02FF0900042E03400F09000E4
:1040A5004DE0FFA3E0900040CFF0A3EFF090004972
:1040B500E475F00112317702414490004BE0D3944E
:1040C50010900040E0FEA3E0FF402F900046E0FB8B
:1040D500A3E0900056CBF0A3EBF0900048E0FBA3E3
:1040E500E0FAA3E0F91230C7900058F0A37410125B
:1040F50052D6900041E02408803DA3E0FCA3E0FDFA
:10410500900046E0FBA3E0900056CBF0A3EBF090C7
:104115000048E0FBA3E0FAA3E0F91230C79000588D
:10412500F090004BE09000591252D690004BE0C33E
:1041350013FF900041E02FF0900040E03400F09034
:104145000049E475F00112317702401090004BE010
:10415500F9FF7E00C390008DE09FFD90008CE09EEE
:10416500FCD3900041E09D900040E09C400302425A
:104175008FC390008FE09FFF90008EE09EFE900021
:1041850042E0FCA3E0FDD39FEC9E400302428FE496
:1041950090004FF0E9B42042900040E0FEA3E0FF1C
:1041A500900046E0FBA3E0900056CBF0A3EBF09027
:1041B5000048E0F9A3E0FAA3E0900058C9F0A3EAAB
:1041C500F0A3E9F090004CE090005BF0900044E033
:1041D500FAA3E0FB12509302427090004BE0641882
:1041E5009000407044E0FEA3E0FFA3E0FCA3E0FDE7
:1041F500900046E0FBA3E0900056CBF0A3EBF090D7
:104205000048E0F9A3E0FAA3E0900058C9F0A3EA5A
:10421500F0A3E9F090004CE090005BF0900044E0E2
:10422500FAA3E0FB124E508042E0FEA3E0FFA3E0BC
:10423500FCA3E0FD900046E0FBA3E0900056CBF028
:10424500A3EBF0900048E0F9A3E0FAA3E090005852
:10425500C9F0A3EAF0A3E9F090004CE090005BF010
:10426500900044E0FAA3E0FB124C0D900049E47580
:10427500F00212317790004BE0FF900041E02FF003
:0A428500900040E03400F002401009
:01428F00220C
:10735000900033EEF0A3EFF0A3ECF0A3EDF0A3EA7E
:04736000F0A3EBF0BB
:1073640090003BE0FBA3E0FAA3E0F9127BC3EF78C3
:1073740003C333CE33CED8F9FFC390008DE09FFF13
:1073840090008CE09EC313FEEF13FF900034E02FB7
:10739400FF900033E03EFE900035E0FCA3E0FD905A
:1073A4000039E0FBA3E0900046CBF0A3EBF09000A3
:1073B4003BE0F9A3E0FAA3E0900048C9F0A3EAF0A7
:1073C400A3E9F090003EE090004BF090003FE09085
:0E73D400004CF0900037E0FAA3E0FB023FEF20
:106B420090000DEEF0A3EFF0900011EBF0A3EAF04D
:0B6B5200A3E9F090000FECF0A3EDF0C1
:106B5D0090000DE0FAA3E0FFAE02C006C0072427A7
:106B6D00FBE43AFAA3E0FEA3E02427FFE43E900005
:106B7D006AF0A3EFF0D007D0061276DBE490001494
:106B8D00F0A3F0900015E025E0FF900014E033FE37
:106B9D00900011E0FBA3E0FAA3E0F98F828E83123F
:106BAD0030E0900017F0E92FF9EA3EFA900001125B
:106BBD0030E0900016F0FEA3E0FDEDFF127AEB90B1
:106BCD000015E004F07006900014E004F0C390008E
:106BDD0015E09440900014E06480948640A59000E8
:106BED008DE024FFFB90008CE034FFFA90008FE0E5
:106BFD0024FFFE90008EE034FF90006AF0A3CEF0EB
:086C0D00E4FDFCFFFE0276DB52
:107A76001263B1126F3B1260AC1256F8125ECC1252
:107A8600651F124290126CE4126FFA126DB1124524
:097A96000C1272B0127B4480DA7C
:10188D00687474703A2F2F7777772E6C636477694D
:10189D006B692E636F6D00C8ABB6AFB5E7D7D3D705
:1018AD00DBBACFB2E2CAD4B3CCD0F200C8ABB6AF7C
:1018BD00B5E7D7D300D7DBBACFB2E2CAD4B3CCD019
:1018CD00F200332E352220495053205354373739E7
:1018DD00362033323058343830007869616F4665C0
:1018ED006E674051447465636820323032322D3159
:1018FD00322D323000574849544500424C41434B3C
:10190D00005245442000475245454E2000424C555B
:10191D004520004752415900B2E2CAD4333A4755E7
:10192D0049BED8D0CECCEEB3E4B2E2CAD400B2E216
:10193D00CAD4343A475549BBADD4B2CCEEB3E4B2B8
:10194D00E2CAD400B2E2CAD4353A4755492054729E
:10195D0069616E676C65CCEEB3E4B2E2CAD400B2D5
:10196D00E2CAD4363AD3A2CEC4CFD4CABEB2E2CAEA
:10197D00D400365831323A616263646566676869CE
:10198D006A6B6C6D6E6F7071727374757677787932
:10199D007A00365831323A41424344454647484928
:1019AD004A4B4C4D4E4F503031323334353637383B
:1019BD003900365831323A7E21402324255E262ABD
:1019CD0028295F2B7B7D3A3C3E3F2F7C2D2B2E0013
:1019DD00385831363A6162636465666768696A6B67
:1019ED006C6D6E6F707172737475767700385831D7
:1019FD00363A4142434445464748494A4B4C4D4E81
:101A0D00303132333435363700385831363A7E215D
:101A1D00402324255E262A28295F2B7B7D3A3C3ED8
:101A2D003F2F7C00B2E2CAD4373AD6D0CEC4CFD441
:101A3D00CABEB2E2CAD40031365831363AC8ABB656
:101A4D00AFB5E7D7D3BCBCCAF5D3D0CFDEB9ABCBDE
:101A5D00BEBBB6D3ADC4FA0031365831363A5765F0
:101A6D006C636F6D65C8ABB6AFB5E7D7D3003234D5
:101A7D005832343AC9EEDBDACAD0D6D0CEC4B2E28F
:101A8D00CAD40033325833323AD7D6CCE5B2E2CA93
:101A9D00D400B2E2CAD4383ACDBCC6ACCFD4CABE9B
:101AAD00B2E2CAD400515100526F746174696F6E05
:101ABD003A3000526F746174696F6E3A393000526A
:101ACD006F746174696F6E3A31383000526F7461A2
:101ADD0074696F6E3A32373000B2E2CAD431303A9F
:101AED00C6C1C4BBBDC7B6C8B2E2CAD400B2E2CA51
:101AFD00D431323AB4A5C3FE50454EB2E2CAD40039
:101B0D0052535400B2E2CAD431313AB4A5C3FEB037
:101B1D00B4BCFCB2E2CAD4004F4E003000313030BC
:101B2D00004558495400B0B445584954BCFCCDCB80
:101B3D00B3F6004F464600B2E2CAD4323AB6C149B6
:101B4D0044BACDD1D5C9ABD6B5B2E2CAD400494459
:101B5D003A30782578004F4B004552524F52007263
:101B6D0065616420636F6C6F723A3078253034583C
:101B7D002020257300B2E2CAD4393AB6AFCCACCF2F
:101B8D00D4CABE00204843484F3A202020202020B0
:101B9D00202020202075672F6D33002020434F32E9
:101BAD003A202020202020202020202070706D0041
:101BBD002054564F433A2020202020202020202042
:101BCD002075672F6D3300504D322E353A20202071
:101BDD00202020202020202075672F6D33002050DD
:101BED004D31303A2020202020202020202020752B
:101BFD00672F6D330020205445503A20202020209F
:101C0D002020202020204300202048554D3A202020
:101C1D002020202020202020202500FFFFFFFFFF77
:101C2D00FFFFFFFFFFFFFFFFFFFFFFFFFFFFFFFFB7
:101C3D00FFFFFFFFFFFFFFFFFFBEF7FFFFDEFF38D8
:101C4D00C6928C8E6B6E6B107C96AD3CE7FFFFFFE2
:101C5D00FFFFFFFFFFFFFFFFFFFFFFFFFFFFFFFF87
:101C6D00FFFFFFFFFFFFFFFFFFFFFFFFFFFFFFFF77
:101C7D00FFFFFFFFFFFFFFFFFFFFFFFFFFFFFFFF67
:101C8D00FFFFFFFFFFFFFFFFFF5DEF159D4F636C34
:101C9D00420A328829461925194521E8318E6B38BB
:101CAD00C6FFFFFFFFFFFFFFFFFFFFFFFFFFFFFF70
:101CBD00FFFFFFFFFFFFFFFFFFFFFFFFFFFFFFFF27
:101CCD00FFFFFFFFFFFFFFFFFFFFFFFFFFFFFFFF17
:101CDD00FFFFFFFFFFFFFF36A51053104B51530FB2
:101CED004B6C3AE93167212519E410A30862008392
:101CFD0008CB529AD6FFFFFFFFFFFFFFFFFFFFFF4D
:101D0D00FFFFFFFFFFFFFFFFFFFFFFFFFFFFFFFFD6
:101D1D00FFFFFFFFFFFFFFFFFFFFFFFFFFFFFFFFC6
:101D2D00FFFFFF3CE77063B363B87CF56311434D70
:101D3D0032EA29882126190519051904110411E41F
:101D4D00108300A308728CFFFFFFFFFFFFFFFFFF53
:101D5D00FFFFFFFFFFFFFFFFFFFFFFFFFFFFFFFF86
:101D6D00FFFFFFFFFFFFFFFFFFFFFFFFFFFFFFFF76
:101D7D00FFDBDE4B3AF042356C544BB1322E2AEB81
:101D8D0021A9216719051904110411041104110465
:101D9D00110519E4104200AF73FFFFFFFFFFFFFFB6
:101DAD00FFFFFFFFFFFFFFFFFFFFFFFFFFFFFFFF36
:101DBD00FFFFFFFFFFFFFFFFFFFFFFFFFFFFFF5DC8
:101DCD00EF09324C32104B8F324F2A2E2ACC198903
:101DDD001989214719051904110411C410C41004DF
:101DED001104110411E41042003184FFFFFFFFFFC5
:101DFD00FFFFFFFFFFFFFFFFFFFFFFFFFFFFFFFFE6
:101E0D00FFFFFFFFFFFFFFFFFFFFFFFFFFFFFFECE8
:101E1D005247194C320B2AEC21EC210C22915BEE2E
:101E2D004A061126190419E410E410A7296621A306
:101E3D0008051904110411E4108200F7BDFFFFFF1E
:101E4D00FFFFFFFFFFFFFFFFFFFFFFFFFFFFFFFF95
:101E5D00FFFFFFFFFFFFFFFFFFFFFFFFFF35A58325
:101E6D0008882188218921AA218A216B42718CFF42
:101E7D00FF728C83080411C4082942FBDE5DEFEC70
:101E8D005A83080411041104118308E831DFFFFFA0
:101E9D00FFFFFFFFFFFFFFFFFFFFFFFFFFFFFFFF45
:101EAD00FFFFFFFFFFFFFFFFFFFFFFBEF7C731C4BF
:101EBD00102519261947194719A8298A52284A5554
:101ECD00ADFFFFE831A30805194D6B4D6BFFFF7D8D
:101EDD00EF4521C410041104110411620076ADFF09
:101EED00FFFFFFFFFFFFFFFFFFFFFFFFFFFFFFFFF5
:101EFD00FFFFFFFFFFFFFFFFFFFFFF96B56200042F
:101F0D0011041905110519C4088B4AB6B55DEFF713
:101F1D00BDFFFF8E6B62002942AA5A0842FFFFFFE8
:101F2D00FFCC528308041104110411A308AD52FF14
:101F3D00FFFFFFFFFFFFFFFFFFFFFFFFFFFFFFFFA4
:101F4D00FF1CE7FFFFFFFFFFFFFFFF4E6362000473
:101F5D001104110411E41062008E63FFFFFFFFFFF7
:101F6D00FFFFFFCF730100F39C2C6396B5FFFFFFBE
:101F7D00FF2D5B8300041104110411E41067213D52
:101F8D00EFFFFFFFFFFFFFFFFFFFFFF8BDB7B59EA0
:101F9D00EFCB52B394FFFFFFFFDFFFE831A308043F
:101FAD0011041104110411A3084942FFF7FFF7FFB3
:101FBD00FFFFFF6A4A01007284FFFFFFFFFFF7DF9B
:101FCD00EF093AA3080411041104110411051118A5
:101FDD00BEFFFFFFFFFFFFFFFFFFFFF07B6200E88B
:101FED0031C731410035A5FFFF5DEF4621C4100417
:101FFD0011041104110411E410A308769DFFF7FFDD
:10200D00FFB7ADA308A308C7319EE7FFF7FFF7762B
:10201D00A5A308E4100411041104110511051135CF
:10202D00A5FFFFFFFFFFFFFFFFFFFFDBDEA72983FC
:10203D0000C410C410C4101CE79EEF0511E4100479
:10204D00110411041104110419C408E510D16BD148
:10205D006BC5086400A50843002B32779DB384251A
:10206D0019C4100411041104110411251926093580
:10207D009DFFFFFFFFFFFFFFFFFFFFFFFFAF73623E
:10208D00000419051982000D5B8E9B621005110469
:10209D001104110419E41085000511C439815A4049
:1020AD007B229C43AC03A4839B82728249C218A4F9
:1020BD0000C500E41004190411051947196711EC46
:1020CD005ABEFFFFFFFFFFFFFFFFFFDFFFDBDEC499
:1020DD0010E41004110511A41801C08388E4000553
:1020ED00190419C5084421438323D542FEE4FE2774
:1020FD00FF07FFA4FE64FE03FEA3FDE2FC42EC839A
:10210D00B32462E510C40804192619A81987210003
:10211D0090D3BCFFFFFFFFFFFFFFFFDFFFFFFF10AF
:10212D007C420005190511832801D044F8A348E429
:10213D0000C508445A02EDE2FD02FE66FE74FFB8CA
:10214D00FF73FFE7F6A6F645F6A4F5C3FC62FCC2E5
:10215D00FCC2FCE3CBC449061188198701A4900188
:10216D00F8EC9AFFFFFFFFFFFFFFFFFFFFFFFFBE32
:10217D00F7E83183000509824001C023F885F0A3FB
:10218D0048A400445A02FD23CCC2DC04FE28FE48BC
:10219D00F646F624F6E4F564FDE3FC62FCC2FC02AF
:1021AD00E402DCE2FCA47A48016701C47824F80259
:1021BD00F884B07DE7FFFFFFFFFFFFFFFFFFFFFF8D
:1021CD00FFDBDE2519A300C43802E022D844F8A6AF
:1021DD00F8A4786300432183728339829B21F561D2
:1021ED00FD22FDE2FCA2FC42FC42FC42FC22AB8340
:1021FD0041C392045226012519A49844F823F802EC
:10220D00F8A4D09EEFFFFFFFFFFFFFFFFFFFFFFFD3
:10221D00FFFFFF9AD68729A50043B822F823E06572
:10222D00F8E8F807C983484200A30084006329A297
:10223D007A62B3A2CB62D302BB828A8339A400E552
:10224D0000E500E508C46064D844F824F823F802DA
:10225D00F88388DBC6FFFFFFFFFFFFFFFFFFFFFFD8
:10226D00FFFFFFFFFF3DE7505B083123E843F844D4
:10227D00F065F809F9ABF989D10689A3484218022E
:10228D0000420061008200620062008300A320C44E
:10229D0050A58885D865F844F844F823F823F80349
:1022AD00D08210C7295DEFFFFFFFFFFFFFFFFFFF8C
:1022BD00FFFFFFFFFFFFFFFFFF6C32A53802D823A2
:1022CD00F865F866F8A7F84AF90CFA4DFA4CEA0BDE
:1022DD00D2A9B968B147A927B107B907D1E7E8C7AE
:1022ED00F8A7F865F865F844F823F803F802D0A3C9
:1022FD00280509C408EC5AFFFFFFFFFFFFFFFFFF92
:10230D00FFFFFFFFFFFFFFFBDE0519C400A741E63E
:10231D00C003F886F8A7F887F886F8C7F829F98A70
:10232D00F9ABF9ABF98BF96AF929F908F9C7F8A6F0
:10233D00F886F865F864F823F802F006B12529E46B
:10234D0000E41025192519149DFFFFFFFFFFFFFF66
:10235D00FFFFFFFFFFFFFF96AD620082083595BAC4
:10236D00CE8BA244D025F887F8A7F8C7F8A7F88731
:10237D00F886F886F886F887F8A7F8A7F8A6F885FE
:10238D00F865F864F824F064B80D93BBB6CF638399
:10239D00080411E4106621493A5DEFFFFFFFFFFFCE
:1023AD00FFFFFFFFFFFFFFD3944200E410BBCEFF02
:1023BD00FFBEE776B5CCAA07C145E045F846F866FD
:1023CD00F886F886F886F886F865F845F865F865B4
:1023DD00E844D043A8018882903CD7FFEF55958300
:1023ED00080411041105194619B394FFFFFFFFFFEF
:1023FD00FFFFFFFFFFFFFFB394410086215DDFFF6D
:10240D00FFFFFFFFFFDFE77AC6D3B44EB32AC268E2
:10241D00D1E6E0A6E8A5E8A5E8E6D888C906A92290
:10242D00A802A800A000C800D8F7E5FFE7F8ADC4E2
:10243D0010E4100411E41005118B4AFFFFFFFFFF9C
:10244D00FFFFFFFFFFFFFF55A54100A7295DDFFF40
:10245D00F7FFFFFFFFFFFFFFFFFFFFFFEF7DDFDB5D
:10246D00CE59CEF8CDD7CDF7C579CEFBBEABA203F5
:10247D00F045F842D043E800F072D4FFDF39AEE406
:10248D0010E4100411E41005118729FFFFFFFFFF71
:10249D00FFFFFFFFFFFFFF59CE830846211CD7FF2B
:1024AD00F7FFFFFFFFFFFFFFFFFFFFFFFFFFFFFF37
:1024BD00FFFFFFFFFFFFFFFFFFFFFFFFEF8BBA04E3
:1024CD00F845F862E044F000F88EDBFFDFF8A5C4B4
:1024DD0010E410E4100411E4102519FFFFFFFFFFB5
:1024ED00FFFFFFFFFFFFFFBEF78729830839B6FF08
:1024FD00F7DFF7FFFFFFFFFFFFFFFFFFFFFFFFFF0F
:10250D00FFFFFFFFFFFFFFFFFFFFFFBEE74ABA031D
:10251D00F845F864F844F800F86EE3FFD7F48C83BF
:10252D00080411E410E410E4100519FFFFFFFFFF8C
:10253D00FFFFFFFFFFFFFFFFFFEF7300007284FF40
:10254D00EFBEEFDFFFFFFFFFFFFFFFFFFFFFFFFF0F
:10255D00FFFFFFFFFFFFFFFFFFFFFFDFE78BBA036B
:10256D00F845F845F823F800F8D3D4FFD74E5B2192
:10257D0000293A55A58308C4102519FFFFFFFFFF59
:10258D00FFFFFFFFFFFFFFFFFFFBDEA308E8319E0C
:10259D00DF9EE7BFEFFFFFFFFFFFFFFFFFFFFFFF27
:1025AD00FFFFFFFFFFFFFFFFFFFFFFFFF751BC0224
:1025BD00E003F803F043E0ECC27ECFFCBE462121E0
:1025CD0000D394FFFF518400008729FFFFFFFFFF19
:1025DD00FFFFFFFFFFFFFFFFFFFFFF51840000F430
:1025ED008CFFEF9EE7BFEFDFFFFFFFFFFFFFFFFF5A
:1025FD00FFFFFFFFFFFFFFFFFFFFFFFFFF3DDF556A
:10260D00BD52BC72BCB7B55DC7FFDFF06B000009F2
:10261D003ABFF7FFFFFFFF149D55A5FFFFFFFFFF1B
:10262D00FFFFFFFFFFFFFFFFFFFFFFFFFFAC4AA410
:10263D0008BBBEDFE77EE7BEEFDFF7DFFFFFFFFF83
:10264D00FFFFFFFFFFFFFFFFFFFFFFDFFFDFF7FFD5
:10265D00EFDFDFBFD79ED7DFDFD8A583082611DBDD
:10266D00D6FFFFFFFFFFFFFFFFFFFFFFFFFFFFFF96
:10267D00FFFFFFFFFFFFFFFFFFFFFF79EE8BDC2169
:10268D0031A9213DCFBFDF7EDF9EE7BEEFBFEFDF7C
:10269D00F7DFF7DFF7DFF7DFF7BFEFBEEF9EE77E80
:1026AD00DF5ED75ED7DFDF9AB626194208EDA3BFEE
:1026BD00FFFFFFFFFFFFFFFFFFFFFFFFFFFFFFFF1D
:1026CD00FFFFFFFFFFFFFFFFFF74DDC0DB00FE42DA
:1026DD00EE024289217BB6DFDF7ED77EDF7EDF9E75
:1026ED00E79EE79EE79EE79EE77EDF7EDF5DD75D97
:1026FD00D79EDFFFE7F8A50711E31802C560FDE6D9
:10270D00D3DBEEFFFFFFFFFFFFFFFFFFFFFFFFFF2D
:10271D00FFFFFFFFFFFFFF9EF784BAC1FC42FE8261
:10272D00FEA2FE8183452174745EC7DFDF7ED75E16
:10273D00D75DD75ED75ED75DD75DD75ED79EDFFFFE
:10274D00E73DC7F1638408425226E629FF86FEE085
:10275D00F36AC3FFFFFFFFFFFFFFFFFFFFFFFFFF59
:10276D00FFFFFFFFFFFFFF18DEC1D2A2FD22FE42D9
:10277D00FE42FE62FEE2D4416A494253743BA63EDC
:10278D00C7BFD7BFD7BFD7BFDFBFD73EC71AA6F2C8
:10279D0063A729824122B462FE83FEAAFE0FFF6762
:1027AD00FD63BA3CEFFFFFFFFFFFFFFFFFFFFFFFE2
:1027BD00FFFFFFFFFFFFFF9AE680D221FDC2FDE282
:1027CD00F5C2F582F582FD62FD61DC219B846AE92B
:1027DD006A2C63AF6311746E632C63895A04528142
:1027ED007AC2CBE2FC62FD82FDC2FDC2FDE4FD2496
:1027FD00FD62CA1CE7FFFFFFFFFFFFFFFFFFFFFFAB
:10280D00FFFFFFFFFFFFFFFFFFB1CC81D2C0F3C180
:10281D00FC02FD02FDE2FCC2FCC2FC81FC80FBC09F
:10282D00C9A48135AD59CE719C218100DAA1FB82FD
:10283D00FCA2FC82FCA2FC02FD22FDE2FC00FC607D
:10284D00DA90CCFFFFFFFFFFFFFFFFFFFFFFFFFF52
:10285D00FFFFFFFFFFFFFFFFFFFFFF59DE0DC40668
:10286D00CBE4D203DB03DBE3DAC3D2A4C209B3D2D8
:10287D00BC9EF7FFFFFFFFFFFFFBE60EB4A6BA837A
:10288D00D2E3E202EB22EB22E303DBE4D26AC3B62E
:10289D00D5FFFFFFFFFFFFFFFFFFFFFF1AB5FF1A79
:1028AD00C0FF1ACCFF1AD900000000000000000084
:1028BD00000000000000000000000000000000000B
:1028CD0000000000000000000000000000000000FB
:0428DD0000000000F7
:107799004A007CF80007E0001FFFE0F81F50006C6A
:1077A900F800F81F07E001CF001F0000841F000048
:0577B900420086F8000B
:106C1500900030EBF0A3EAF0A3E9F074FFFFFE1259
:106C2500720E90008CE0FAA3E0FB90003EE4F0A326
:106C35007414F0A3E4F0A3741FF0E4FDFCFFFE124E
:106C4500693890008EE0FEA3E0FF24ECFDEE34FFF2
:106C5500FC90008CE0FAA3E0FB90003EEEF0A3EF81
:106C6500F0A3E4F0A3741FF0E4FFFE12693874FF8B
:106C7500900088F0A3F0900039E4F0A3741FF09021
:106C85000030E0F9A3E0FAA3E090003BC9F0A3EAE5
:106C9500F0A3E9F0A37410F0A37401F074FFFBFAFC
:106CA5007D027C00E4FFFE12735090008FE024EE1D
:106CB500FD90008EE034FFFC900039E4F0A3741FD2
:106CC500F0A374FFF0A37418F0A3748DF0A37410EF
:0F6CD500F0A37401F074FFFBFAE4FFFE027350AA
:106F3B007BFF7A1879A4126C15900039E4F0A374D6
:106F4B001FF0A374FFF0A37418F0A374B9F0A3742B
:106F5B0010F0A37401F07B007AF87D1E7C00E4FF37
:106F6B00FE127350900039E4F0A3741FF0A374FF6A
:106F7B00F0A37418F0A374C2F0A37410F0A37401FF
:106F8B00F07B007AF87D3C7C00E4FFFE127350909E
:106F9B000039E4F0A3741FF0A374FFF0A37418F08E
:106FAB00A374CFF0A37410F0A37401F07B1F7AF8D5
:106FBB007D5A7C00E4FFFE127350900039E4F0A37D
:106FCB00741FF0A374FFF0A37418F0A374E7F0A37D
:106FDB007410F0A37401F07B1F7A007D787C00E4C1
:0F6FEB00FFFE1273507FDC127BD87FDC027BD855
:1056F80090008CE0FAA3E0FBA3E0FFA3E090003E5B
:10570800CFF0A3EFF074FFA3F0A3F0E4FDFCFFFEDD
:1057180012693890004674FFF0A374E0F0A374FF98
:10572800F0A37419F0A37402F0A37410F0A3740129
:10573800F0E4FBFA7D1EFC7F14FE123FEF7F20127F
:105748007BD890008CE0FAA3E0FBA3E0FFA3E090F5
:10575800003ECFF0A3EFF0E4A3F0A3F0FDFCFFFEC2
:1057680012693890004674FFF0A374E0F0A374FF48
:10577800F0A37419F0A37408F0A37410F0A37401D3
:10578800F074FFFBFA7D1E7C007F147E00123FEF51
:105798007F20127BD890008CE0FAA3E0FBA3E0FF07
:1057A800A3E090003ECFF0A3EFF0A374F8F0A3E4D9
:1057B800F0FDFCFFFE12693890004674FFF0A374F8
:1057C800E0F0A374FFF0A37419F0A3740EF0A374AF
:1057D80010F0A37401F07B1F7A007D1E7C007F14FB
:1057E8007E00123FEF7F20127BD890008CE0FAA356
:1057F800E0FBA3E0FFA3E090003ECFF0A3EFF0A30F
:105808007407F0A374E0F0E4FDFCFFFE1269389021
:10581800004674FFF0A374E0F0A374FFF0A37419BA
:10582800F0A37413F0A37410F0A37401F07B1F7A33
:10583800007D1E7C007F147E00123FEF7F20127BCC
:10584800D890008CE0FAA3E0FBA3E0FFA3E090006F
:105858003ECFF0A3EFF0A3E4F0A3741FF0E4FDFC47
:10586800FFFE12693890004674FFF0A374E0F0A3BD
:1058780074FFF0A37419F0A3741AF0A37410F0A3C2
:105888007401F07B007AF87D1E7C007F147E001284
:105898003FEF7F20127BD890008CE0FAA3E0FBA3B7
:1058A800E0FFA3E090003ECFF0A3EFF0A37484F0F4
:1058B800A37430F0E4FDFCFFFE12693890004674D2
:1058C800FFF0A374E0F0A374FFF0A37419F0A374BD
:1058D80020F0A37410F0A37401F07B1F7AF87D1EEA
:0E58E8007C007F147E00123FEF7F20027BD8F1
:105ECC00E4900000F07BFF7A197925126C15900094
:105EDC008CE0FAA3E0FB90008FE024ECFE90008EA7
:105EEC00E034FF90003EF0A3CEF074FFA3F0A3F0DB
:105EFC007D147C00E4FFFE126938E4900000F09001
:105F0C000000E0FD25E0247CF582E43400F583E01C
:105F1C00FFA3E0900088CFF0A3EFF090008CE0C3DB
:105F2C0013FEA3E01324B0FBEE34FFFAED75F00F73
:105F3C00A4FDACF02BFFEC3AFEC006C007A3E0C3F7
:105F4C0013FEA3E01324B0FFEE34FFCF2DFDEF3C86
:105F5C00FCC004C00590008CE0C313FCA3E013FD4F
:105F6C00900000E0F975F00FA42DFFE5F03CCF2474
:105F7C00ECFBEF34FFFA90008EE0C313FCA3E013AC
:105F8C00FDE975F00FA42DFFE5F03CCF24ECCF34E8
:105F9C00FF900007F0A3EFF0D005D004D007D00697
:105FAC00127169900000E004F0E0C3940550030204
:105FBC005F0B7FDC127BD890008CE0FAA3E0FB90A7
:105FCC00008FE024ECFE90008EE034FF90003EF059
:105FDC00A3CEF074FFA3F0A3F07D147C00E4FFFECD
:105FEC00126938E4900000F0900000E0FD25E024F8
:105FFC007CF582E43400F583E0FFA3E0900088CFC9
:10600C00F0A3EFF090008CE0C313FEA3E01324B0D8
:10601C00FBEE34FFFAED75F00FA4FDACF02BFFECAA
:10602C003AFEC006C007A3E0C313FEA3E01324B0DE
:10603C00FFEE34FFCF2DFDEF3CFCC004C0059000FB
:10604C008CE0C313FCA3E013FD900000E0F975F0A5
:10605C000FA42DFFE5F03CCF24ECFBEF34FFFA90BE
:10606C00008EE0C313FCA3E013FDE975F00FA42D23
:10607C00FFE5F03CCF24ECCF34FF900036F0A3EFDB
:10608C00F0D005D004D007D006127AC6900000E0FC
:10609C0004F0E0C394055003025FF47FDC027BD86C
:10651F00E4900000F07BFF7A19793B126C15900024
:10652F008CE0FAA3E0FB90008FE024ECFE90008E4D
:10653F00E034FF90003EF0A3CEF074FFA3F0A3F081
:10654F007D147C00E4FFFE126938E4900000F090A7
:10655F00008CE0C313FEA3E01324B0FDEE34FFFC68
:10656F00900000E0F975F019A4FBAAF02DFFEA3CAA
:10657F00FEC006C00790008EE0C313FEA3E01324F5
:10658F00CEFFEE34FFCF2BFDEF3AFCE925E0247C64
:10659F00F582E43400F583E0FAA3E0FB90002AE4EF
:1065AF00F0A3741EF0E4A3F0A3F0D007D0061258A6
:1065BF00F6900000E004F0E0C3940540927FDC12F7
:1065CF007BD890008CE0FAA3E0FB90008FE024ECE6
:1065DF00FE90008EE034FF90003EF0A3CEF074FFEB
:1065EF00A3F0A3F07D147C00E4FFFE126938E49061
:1065FF000000F090008CE0C313FEA3E01324B0FD65
:10660F00EE34FFFC900000E0F975F019A4FBAAF03E
:10661F002DFFEA3CFEC006C00790008EE0C313FEBC
:10662F00A3E01324CEFFEE34FFCF2BFDEF3AFCE9AE
:10663F0025E0247CF582E43400F583E0FAA3E0FB47
:10664F0090002AE4F0A3741EF0A3E4F0A304F0D0AA
:10665F0007D0061258F6900000E004F0E0C394054E
:07666F0040917FDC027BD8A3
:10429000E4900000F07BFF7A197951126C159000C0
:1042A0008CE0FAA3E0FB90008FE024ECFE90008EFF
:1042B000E034FF90003EF0A3CEF074FFA3F0A3F033
:1042C0007D147C00E4FFFE126938E4900000F09059
:1042D0000000E0F9C3940540030243D0E925E0243F
:1042E0007CF582E43400F583E0FFA3E0900088CF02
:1042F000F0A3EFF090008CE0C313FAA3E013FB24CB
:10430000B0FDEA34FFFCE975F014A42DFFE5F03CA4
:10431000FEC006C007A3E0C313FEA3E01324ECFD18
:10432000EE34FFFCE975F00FA42DFDE5F03CFCC078
:1043300004C005EB24CDFDEA34FFFCE975F014A4BC
:104340002DFBE5F03CFAC002C00390008EE0C313E1
:10435000FEA3E01324B7FDEE34FFFCE975F00FA4D3
:104360002DFDE5F03CFCC005C00490008CE0C313BB
:10437000FEA3E01324EBFDEE34FFFCE975F014A47A
:104380002DFDE5F03CFCA3E0C313FEA3E01324ECF9
:10439000FBEE34FFFAE975F00FA42BFEE5F03A903E
:1043A000000BF0A3CEF0900009ECF0A3EDF090002C
:1043B00007D0E0F0A3D0E0F0D003D002D005D004C5
:1043C000D007D0061275FA900000E004F00242CF48
:1043D0007FDC127BD890008CE0FAA3E0FB90008F8A
:1043E000E024ECFE90008EE034FF90003EF0A3CE7F
:1043F000F074FFA3F0A3F07D147C00E4FFFE1269CB
:1044000038E4900000F0900000E0F9C39405400308
:10441000024507E925E0247CF582E43400F583E0D9
:10442000FFA3E0900088CFF0A3EFF090008CE0C3F2
:1044300013FAA3E013FB24B0FDEA34FFFCE975F0A6
:1044400014A42DFFE5F03CFEC006C007A3E0C31393
:10445000FEA3E01324ECFDEE34FFFCE975F00FA49D
:104460002DFDE5F03CFCC004C005EB24CDFDEA3495
:10447000FFFCE975F014A42DFBE5F03CFAC002C086
:104480000390008EE0C313FEA3E01324B7FDEE34C7
:10449000FFFCE975F00FA42DFDE5F03CFCC005C064
:1044A0000490008CE0C313FEA3E01324EBFDEE3474
:1044B000FFFCE975F014A42DFDE5F03CFCA3E0C37E
:1044C00013FEA3E01324ECFBEE34FFFAE975F00FC2
:1044D000A42BFEE5F03A90000BF0A3CEF09000097B
:1044E000ECF0A3EDF0900007D0E0F0A3D0E0F0D026
:1044F00003D002D005D004D007D0061234E59000D6
:0C45000000E004F00244067FDC027BD8DF
:106CE4007BFF7A19796C126C1590008874F8F0A304
:106CF400E4F090008AF0A3741FF090000974FFF090
:106D0400A37419F0A3747FF0E4A3F07B0C7D1EFC44
:106D14007F0AFE126E7990000974FFF0A37419F0D3
:106D2400A3749FF0A37401F07B0C7D2D7C007F0A7B
:106D34007E00126E7990000974FFF0A37419F0A319
:106D440074BFF0E4A3F07B0C7D3CFC7F0AFE126E62
:106D54007990000974FFF0A37419F0A374DDF0E4D2
:106D6400A3F07B107D50FC7F0AFE126E799000091F
:106D740074FFF0A37419F0A374FAF0A37401F07B08
:106D8400107D647C007F0A7E00126E799000097485
:106D9400FFF0A3741AF0A37416F0E4A3F07B107D43
:0D6DA40078FC7F0AFE126E797FB0027BD86A
:106FFA007BFF7A1A7931126C1590004674FFF0A360
:10700A0074E0F0A374FFF0A3741AF0A37444F0A31D
:10701A007410F0E4A3F07B1FFA7D1EFC7F0AFE12B7
:10702A003FEF90004674FFF0A374E0F0A374FFF002
:10703A00A3741AF0A37465F0A37410F0E4A3F07BB0
:10704A001FFA7D32FC7F0AFE123FEF90004674FF62
:10705A00F0A374E0F0A374FFF0A3741AF0A3747B96
:10706A00F0A37418F0A37401F07B1F7A007D467CAC
:10707A00007F0A7E00123FEF90004674FFF0A3746F
:10708A00E0F0A374FFF0A3741AF0A37490F0A37451
:10709A0020F0A37401F07B1F7A007D647C007F0AD4
:0A70AA007E00123FEF7FB0027BD89A
:106DB1007BFF7A1A799F126C157BFF7A1C79287DEB
:106DC1001E7C007F1E7E00126B4290004674FFF015
:106DD100A374E0F0A374FFF0A3741AF0A374B2F0EB
:106DE100A37410F0A37401F07B1F7A007D4B7C002B
:106DF1007F2A7E00123FEF7BFF7A1C79287D1E7C63
:106E0100007F5A7E00126B4290004674FFF0A3741B
:106E1100E0F0A374FFF0A3741AF0A374B2F0A374AA
:106E210010F0A37401F07B1F7A007D4B7C007F661C
:106E31007E00123FEF7BFF7A1C79287D1E7C007F4C
:106E4100967E00126B4290004674FFF0A374E0F04E
:106E5100A374FFF0A3741AF0A374B2F0A37410F03A
:106E6100A37401F07B1F7A007D4B7C007FA27E0022
:086E7100123FEF7FB0027BD855
:1072B000E4900000F078017C007D017BFF7A287962
:1072C000A8FE7F0C1230A1E4900000F0900000E0D6
:1072D000FFC3940450751273E27BFF7A1A79E612A9
:1072E0006C15900000E075F003A42401F582E434ED
:1072F00000F583E0F9A3E0FAA3E0900048C9F0A309
:10730000EAF0A3E9F090004674FFF0A374E0F09077
:10731000004B7410F0A37401F07B1F7A007D1E7C7B
:10732000007F147E00123FEF7BFF7A1C79287D32AC
:107330007C007F1E7E00126B427FE8127BD87FE8C4
:10734000127BD8900000E004F08081E4FF0273E239
:10623B007BFF7A1A79FA126C1590008DE024E0FF3F
:10624B0090008CE034FFFE90000974FFF0A3741BE8
:10625B00F0A3740DF0A37401F07B107D027C00128F
:10626B006E7990008874F8F0A3E4F090009EA3E0A0
:10627B00FAA3E0F912333D9000A9E020E00302639A
:10628B00A690008CE0FEA3E0FF9000A1E0FCA3E051
:10629B00FDC39FEC9E50D490008EE0FEA3E0FF90D8
:1062AB0000A5E0FAA3E0FBC39FEA9E50BE9000005E
:1062BB00E0B4FF13A3E0B4FF0E900000ECF0A3EDED
:1062CB00F0A3EAF0A3EBF090008DE024E0FF900048
:1062DB008CE034FFFED39000A2E09F9000A1E09EE3
:1062EB0040589000A6E094129000A5E09400504A0C
:1062FB0074FF9000A1F0A3F09000A1F0A3F0FB7A43
:10630B001A79FA126C1590008DE024E0FF90008C46
:10631B00E034FFFE90000974FFF0A3741BF0A3742C
:10632B000DF0A37401F07B107D027C00126E79904E
:10633B00008874F8F0A3E4F08040900002E0FCA326
:10634B00E0FD9000A1E0FAA3E0FB9000A5E0FFA325
:10635B00E090000ACFF0A3EFF0A3E4F0A37402F0F7
:10636B00900086E0FFA3E090000ECFF0A3EFF0903B
:10637B000000E0FEA3E0FF1254EE9000A1E0FFA3AB
:10638B00E0900000CFF0A3EFF09000A5E0FFA3E0BA
:10639B00900002CFF0A3EFF002627674FF90000042
:0663AB00F0A3F00262768F
:1028E1007BFF7A1B7911126C15E4900088F0A3F03C
:1028F10090008CE0C313FCA3E013FD24CEFFEC3465
:10290100FFFEED2432FBE43CFA900007E4F0A374EF
:102911005AF07D287C0012716990008874F8F0A348
:10292100E4F090008CE0C313FCA3E013FD24CFFF7F
:10293100EC34FFFEED24FFFBEC34FFFA900036E4AB
:10294100F0A37459F07D297C00127AC6900088E4C6
:10295100F0A3741FF090008CE0C313FEA3E013FFFB
:10296100C0062431FBE43EFA900036E4F0A374592A
:10297100F0D0067D297C00127AC674FF900088F0A1
:10298100A3F090008CE0C313FEA3E01324E0FFEE5C
:1029910034FFFE90000974FFF0A3741BF0A37425AB
:1029A100F0A37401F07B107D397C00126E799000E8
:1029B100887484F0A37430F090008CE0C313FCA3FE
:1029C100E013FD2492FFEC34FFFEED246EFBE43CAA
:1029D100FA900006E4F0A374A9F0A3E4F0A3740A4A
:1029E100F07D967C0012667690008874F8F0A374EE
:1029F1001FF090008CE0C313FCA3E013FD2492FFB1
:102A0100EC34FFFEED240AFBE43CFA900006E4F00E
:102A1100A374A9F0A3E4F0A3740AF07D967C0012DC
:102A2100667690008CE0C313FEA3E013FF90002AAA
:102A3100E4F0A3740AF0A3E4F0A304F07BCFFA7DE1
:102A4100A07C001258F6E4900088F0A3F074FF9087
:102A5100008AF0A3F090008CE0C313FEA3E01324DE
:102A610083FFEE34FFFE90000974FFF0A3741BF0A6
:102A7100A37428F0A37401F07B107D987C00126E82
:102A81007990008CE0C313FEA3E0132473FFE43EAE
:102A9100FE90000974FFF0A3741BF0A3742AF0A345
:102AA1007401F07B107D987C00126E79900088741F
:102AB100F8F0A3E4F090008CE0C313FEA3E013242C
:102AC100F4FFEE34FFFEC006C0079000051233008C
:102AD100000000329000097403F0A37410F0D007D5
:102AE100D0067D7D7C00126A31E4900088F0A3F06D
:102AF10090008CE0C313FCA3E013FD24E2FFEC344F
:102B0100FFFEED241EFBE43CFA900006E4F0A37402
:102B1100FAF0A3E4F0A37408F07DDC7C00125CDC25
:102B210090008874A6F0A37451F090008CE0C31358
:102B3100FCA3E013FD24E3FFEC34FFFEED241DFBB9
:102B4100E43CFA900006E4F0A374F8F0A3E4F0A3E7
:102B51007407F07DDD7C0012667690008874F8F0D1
:102B6100A3741FF090008CE0C313FEA3E01324F1C3
:102B7100FFEE34FFFE90000974FFF0A3741BF0A375
:102B8100742EF0A37401F07B107DE37C00126E794A
:102B910090008CE0C313FEA3E01324D1FFEE34FFB9
:102BA100FE74FF900046F0A3F0A3F0A3741BF0A302
:102BB1007433F0A37410F0A37401F07B007AF87DF4
:102BC100C37C00123FEF90009EA3E0FAA3E0F9124C
:102BD100333D9000A9E030E0ED9000A5E0FEA3E0D8
:102BE100FFD39428EE94005003022D83EF945AEE04
:102BF10094004003022D8390008CE0C313FEA3E0F8
:102C010013FF24CEFDEE34FFFC9000A1E0FAA3E017
:102C1100FBD39DEA9C5003022CC2EF24FFFFEE344C
:102C2100FFFEC3EB9FEA9E4003022CC29000887412
:102C3100F8F0A3E4F090008CE0C313FCA3E013FDD3
:102C410024CFFFEC34FFFEED24FFFBEC34FFFA90C0
:102C51000036E4F0A37459F07D297C00127AC69005
:102C61000088E4F0A3741FF090008CE0C313FEA36E
:102C7100E013FFC0062431FBE43EFA900036E4F095
:102C8100A37459F0D0067D297C00127AC674FF9096
:102C91000088F0A3F090008CE0C313FEA3E013249E
:102CA100E0FFEE34FFFE90000974FFF0A3741BF007
:102CB100A37425F0A37401F07B107D397C00126EA2
:102CC1007990008CE0C313FEA3E013FF9000A1E014
:102CD100FCA3E0FDD39FEC9E5003022D83EF243231
:102CE100FFE43EFEC3ED9FEC9E4003022D83900066
:102CF10088E4F0A3741FF090008CE0C313FCA3E000
:102D010013FD24CFFFEC34FFFEED24FFFBEC34FF79
:102D1100FA900036E4F0A37459F07D297C00127A10
:102D2100C690008874F8F0A3E4F090008CE0C3131F
:102D3100FEA3E013FFC0062431FBE43EFA90003607
:102D4100E4F0A37459F0D0067D297C00127AC67490
:102D5100FF900088F0A3F090008CE0C313FEA3E085
:102D610013240DFFE43EFE90000974FFF0A3741BD1
:102D7100F0A37440F0A37401F07B107D397C001244
:102D81006E7990008CE0C313FEA3E013FF249CFD39
:102D9100EE34FFFC9000A1E0FAA3E0FBC39DEA9CA6
:102DA1005003022ECFEF2464FFE43EFED3EB9FEAF3
:102DB1009E4003022ECF9000A5E0FEA3E0FF949673
:102DC100EE94005003022ECFEF94A9EE940040033D
:102DD100022ECF9000887484F0A37430F09000A28A
:102DE100E024F6FF9000A1E034FFFEC00690008CC5
:102DF100E0C313FEA3E013246EFBE43EFA90000649
:102E0100E4F0A374A9F0A3E4F0A3740AF0D0067D62
:102E1100967C0012667690008874F8F0A3741FF017
:102E210090008CE0C313FEA3E0132492FFEE34FF65
:102E3100FE9000A2E0240AFB9000A1E03400FA9089
:102E41000006E4F0A374A9F0A3E4F0A3740AF07DF2
:102E5100967C001266769000A1E0FEA3E0FF900050
:102E61002AE4F0A3740AF0A3E4F0A304F07BCFFA00
:102E71007DA07C001258F690008874F8F0A3E4F06D
:102E810090008CE0C313FCA3E013FD24F4FFEC34A9
:102E9100FFFEC006C007ED249CFFEC34FFFEC3908B
:102EA10000A2E09FFF9000A1E09EC313FEEF13FF7D
:102EB100E4FCFD9000051232F49000097403F0A3C4
:102EC1007410F0D007D0067D7D7C00126A3190002D
:102ED1008CE0C313FEA3E013FF24E2FDEE34FFFCFC
:102EE1009000A1E0FAA3E0FBC39DEA9C5003022BF2
:102EF100C7EF241EFFE43EFED3EB9FEA9E40030290
:102F01002BC79000A5E0FEA3E0FF94DCEE940050F7
:102F110003022BC7EF94FAEE94004003022BC7740F
:102F2100FF900088F0A3F090008CE0C313FCA3E0B5
:102F310013FD24E2FFEC34FFFEED241EFBE43CFA1A
:102F4100900006E4F0A374FAF0A3E4F0A37408F08F
:102F51007DDC7C00125CDC900088742BF0A3741281
:102F6100F090008CE0C313FCA3E013FD24E3FFEC1D
:102F710034FFFEED241DFBE43CFA900006E4F0A3CF
:102F810074F8F0A3E4F0A37407F07DDD7C00126611
:102F9100769000887484F0A3741FF090008CE0C3D5
:102FA10013FEA3E01324F1FFEE34FFFE9000097439
:102FB100FFF0A3741BF0A3742EF0A37401F07B1037
:102FC1007DE37C00126E7974FF9000A1F0A3F022E2
:107B440090009BA3E0FAA3E0F912333DEF70061214
:067B540028E112623B2251
:1060AC0078027C007D017BFF7A2879B47E007F0A20
:1060BC001230A1780D7C007D017BFF7A2879BE7EA1
:1060CC00007F231230A17BFF7A1B7944126C1512CE
:1060DC0070B490003374FFF0A3741BF0A3745BF0E6
:1060EC00A3EEF0A3EFF07B017A007902123A449010
:1060FC00004674FFF0A374E0F0A37401F0A37400E5
:10610C00F0A37402F0A37410F0A37401F07B1F7A57
:10611C00007D197C007F327E00123FEFE490000C72
:10612C00F090000CE0FFC394074003026236EF25A9
:10613C00E0246CF582E43400F583E0FDA3E09000EC
:10614C0088CDF0A3EDF0EF75F019A4FFAEF0242D7F
:10615C00FDE43EFCEF2441FFE43E900036F0A3EF5B
:10616C00F07B1E7A007F0A7E00127AC690000CE04B
:10617C0075F019A42437FDE435F0FC7F147E001271
:10618C007C5E900000EEF0A3EFF0900088E0B50686
:10619C0013A3E0B5070E78027C007D017BFF7A1B10
:1061AC007963800C78027C007D017BFF7A1B796619
:1061BC0012340F90003374FFF0A3741BF0A3746CB3
:1061CC00F0900000E0FFA3E0900036CFF0A3EFF0DA
:1061DC00A37401F0A37400F0A37402F07B017A00A5
:1061EC00790D123A4490000CE075F019A4242FFD9F
:1061FC00E435F0FC90004674FFF0A374E0F0A37457
:10620C0001F0A37400F0A3740DF0A37410F0A37448
:10621C0001F0900088E0FAA3E0FB7F287E00123F9B
:0F622C00EF90000CE004F002612D7FDC027BD8C4
:10450C007BFF7A1B7982126C15900088E4F0A374FF
:10451C001FF07F407EE212782490000974FFF0A314
:10452C00741BF0A37491F0A37401F07B107D327CAA
:10453C00007F0F7E00126E7990000974FFF0A37457
:10454C001BF0A374A8F0A37401F07B107D467C00D3
:10455C007F0F7E00126E7990000974FFF0A3741B1C
:10456C00F0A374BDF0A37401F07B107D5A7C007F26
:10457C000F7E00126E7990000974FFF0A3741BF08B
:10458C00A374D4F0A37401F07B107D6E7C007F0FBC
:10459C007E00126E7990000974FFF0A3741BF0A3D7
:1045AC0074EBF0A37401F07B107D827C007F0F7E96
:1045BC0000126E7990000974FFF0A3741CF0A374C0
:1045CC0002F0A37401F07B107D967C007F0F7E00BF
:1045DC00126E7990000974FFF0A3741CF0A374158B
:1045EC00F0A37401F07B107DAA7C007F0F7E00127B
:1045FC006E7990008874F8F0A3E4F074FF90008A50
:10460C00F0A3F0E4900000F01277E67C277D101206
:10461C003141AE04AF05EE3395E0FDFC9000051280
:10462C0032F49000097405F0A37410F07D327C0014
:10463C007F647E00126A311277E67C277D1012317E
:10464C0041AE04AF05EE3395E0FDFC90000512324F
:10465C00F49000097405F0A37410F07D467C007F83
:10466C00647E00126A311277E67C277D101231418C
:10467C00AE04AF05EE3395E0FDFC9000051232F46C
:10468C009000097405F0A37410F07D5A7C007F64CF
:10469C007E00126A311277E67C277D10123141AE12
:1046AC0004AF05EE3395E0FDFC9000051232F4905A
:1046BC0000097405F0A37410F07D6E7C007F647E9D
:1046CC0000126A311277E67C277D10123141AE045C
:1046DC00AF05EE3395E0FDFC9000051232F490002E
:1046EC00097405F0A37410F07D827C007F647E0059
:1046FC00126A311277E67C007D32123141AE04AF82
:10470C0005EE3395E0FDFC9000051232F4900009A3
:10471C007405F0A37410F07D967C007F647E00120B
:10472C006A311277E67C007D64123141AE04AF052C
:10473C00EE3395E0FDFC9000051232F49000097404
:10474C0005F0A37410F07DAA7C007F647E00126AD1
:10475C00317FFA127BD8900000E004F0E0C3940F94
:05476C00500302461499
:014771002225
:107BD800007D477C11ED1D70011C144C70F7DFF01F
:017BE800227A
:107BE900007D047C00ED1D70011C144C70F7DFF062
:017BF9002269
:037C710000000010
:0A77BE00420088000042008AFFFF2D
:0A7C2800C293C292127A20D2932276
:037C1B00A3E0FFE4
:0A7C1E00C293D292127A20D2932270
:097C3200C293D292127985D2931B
:017C3B002226
:107AEB00900064EEF0A3EFF0C293D292900064E0AA
:107AFB00FF127A20900064A3E0FF127A20D2932227
:107C0B0090000DEDF0127C2890000DE0FF027C1E21
:077C5700127C28127C32228E
:097C3C00900093A3E0FF027C28F4
:097C4500900095A3E0FF027C28E9
:10790B00C293C292900095A3E0FF127A20D29212FA
:10791B007985127985900030E4F0A3EFF012798528
:10792B00AD07D293900031E07F00FE900030F0A3C2
:0C793B00EFF0EDFF900030EEF0A3EFF055
:01794700221D
:08720E00900033EEF0A3EFF055
:1072160090008DE024FFFB90008CE034FFFA900094
:107226008FE024FFFE90008EE034FF90006AF0A30A
:10723600CEF0E4FDFCFFFE1276DBC293D292E49020
:107246000035F0A3F090008CE0FEA3E0FFC39000B1
:1072560036E09F900035E09E504DE4900037F0A355
:10726600F090008EE0FEA3E0FFC3900038E09F9010
:107276000037E09E5021900033E0FF127A20900004
:1072860033A3E0FF127A20900038E004F070D29029
:107296000037E004F080CA900036E004F070A69053
:0972A6000035E004F0809ED29353
:0172AF0022BC
:107A4C00AB07AA068D828C83C006C007AE83AF82BB
:107A5C0090006AEEF0A3EFF0D007D0061276DB9020
:0A7A6C000088E0FEA3E0FF027AEBC1
:067C5E00127B0B12790BF2
:017C640022FD
:097C4E0053B1FB43B204D2B2228F
:107B5A00D2B37F32127BD8C2B37F32127BD8D2B370
:057B6A007F32027BD810
:1063B100127C65127C4E127B5A7F11127C287F78E9
:1063C100127BD87F36127C287F48127C1E7F3A12BE
:1063D1007C287F55127C1E7FF0127C287FC3127CA3
:1063E1001E7FF0127C287F96127C1E7FB4127C28BF
:1063F1007F01127C1E7FB7127C287FC6127C1E7F14
:10640100C0127C287F80127C1E7F45127C1E7FC1BA
:10641100127C287F13127C1E7FC2127C287FA71258
:106421007C1E7FC5127C287F0A127C1E7FE8127CAD
:10643100287F40127C1E7F8A127C1EE4FF127C1E84
:10644100E4FF127C1E7F29127C1E7F19127C1E7FA5
:10645100A5127C1E7F33127C1E7FE0127C287FD028
:10646100127C1E7F08127C1E7F0F127C1E7F06127B
:106471007C1E7F06127C1E7F33127C1E7F30127CB5
:106481001E7F33127C1E7F47127C1E7F17127C1EDB
:106491007F13127C1E7F13127C1E7F2B127C1E7FAA
:1064A10031127C1E7FE1127C287FD0127C1E7F0A74
:1064B100127C1E7F11127C1E7F0B127C1E7F091223
:1064C1007C1E7F07127C1E7F2F127C1E7F33127C65
:1064D1001E7F47127C1E7F38127C1E7F15127C1E88
:1064E1007F16127C1E7F2C127C1E7F32127C1E7F37
:1064F100F0127C287F3C127C1E7FF0127C287F6981
:10650100127C1E7F78127BD87F21127C287F291272
:0E6511007C28E4FF1273E274FFFFFE02720E9C
:1076DB00900064EEF0A3EFF0A3ECF0A3EDF0A3EABF
:1076EB00F0A3EBF0900097A3E0FF127C28900064CE
:1076FB00E0FF127C1E900064127C1B900068E0FF80
:10770B00127C1E900068127C1B900099A3E0FF1264
:10771B007C28900066E0FF127C1E900066A3E0FFC1
:10772B00127C1E90006AE0FF127C1E90006AA3E0A0
:07773B00FF127C1E027C3CE2
:107B0B00AB07AA068D828C83C006C007AE83AF82FB
:0F7B1B0090006AEEF0A3EFF0D007D0060276DB01
:1073E200900097E4F0A3742AF0A3E4F0A3742BF0C6
:1073F200900093E4F0A3742CF0A3E4F0A3742EF0B5
:10740200EF5403900092F01460201460331460462D
:107412002403705B90008C7401F0A37440F0A37499
:1074220001F0A374E0F07D48804090008C7401F07C
:10743200A374E0F0A37401F0A37440F07D28802AC5
:1074420090008C7401F0A37440F0A37401F0A37453
:10745200E0F07D88801490008C7401F0A374E0F059
:10746200A37401F0A37440F07DE87F36127C0B22F6
:1070B40078317C007D017BFF7A7C79717E007F03CF
:1070C4001230A17FF0127C287FC3127C1E7FF01245
:1070D4007C287F96127C1EC2939000307401F0C20B
:1070E400927FFB127A20D292900030E02410FF129B
:1070F4007A20C2927FD3127A20D29212798590009C
:1071040030E02430F582E43400F583EFF0C2927F5E
:10711400FB127A20D292E4FF127A20900030E0042D
:10712400F0E0C3940440B8D2937FF0127C287F3CF3
:10713400127C1E7FF0127C287F69127C1E90003224
:10714400E0FF900090E4F0A3EFF0E07F00FE9000F9
:1071540090F0A3EFF0900033E0FDEDFF900090EE8F
:04716400F0A3EFF0B5
:017168002204
:057C6C007F01027BE92D
:107BFA0053B1EF53B2EF53B1BF53B2BFD2B6D2B4FF
:017C0A002257
:107B6F0053B1EF53B2EFD2B4D2B6127C6CC2B4128F
:057B7F007C6CC2B6227F
:107B840053B1EF53B2EFC2B6C2B4127C6CD2B61288
:057B94007C6CD2B4225C
:1079ED00E490000EF043B11053B2EFD2B47F011208
:1079FD007BE9D2B67F01127BE930B41290000EE024
:107A0D0004F0E0D394FA40F1127B847F0122C2B6D8
:027A1D007F00E8
:017A1F002244
:107B9900C2B653B1EF53B2EFC2B4127C6CD2B61273
:057BA9007C6CC2B62255
:107BAE00C2B653B1EF53B2EFD2B4127C6CD2B6124E
:057BBE007C6CC2B62240
:0579480090000EEFF0BD
:10794D0053B1EF53B2EFC2B6E4A3F090000EE0FFD7
:10795D005480FEC4131313540124FF92B4EF25E099
:10796D00F0D2B6127C6CC2B6127C6C90000FE004A3
:07797D00F0E0C3940840D4C0
:0179840022E0
:0578330090000EEFF0D3
:10783800E4900010F043B11053B2EF90000FF0C283
:10784800B67F03127BE9D2B6900010E0FF25E0F086
:1078580030B403E004F090000FE004F0E0C39408B3
:1078680040DD90000EE07005127BAE8003127B991C
:05787800900010E0FF8C
:01787D0022E8
:0B77C8004400B3000300094100B200C0
:10766B009000AAEEF0A3EFF0A3EBF0A3EAF0A3E9EE
:01767B00F01E
:10767C00E49000B1F0127B6F7F701279481279EDB3
:10768C009000AAA3E0FF1279481279EDE49000B0C3
:10769C00F09000AFE0FFA3E0FEC39F50299000AC38
:1076AC00E0FBA3E0FAA3E0F98E827583001230E0D0
:1076BC00FF1279481279ED9000B1EFF0700890004C
:0E76CC00B0E004F080CB127B849000B1E0FFB0
:0176DA00228D
:10758500900007EEF0A3EFF0A3EBF0A3EAF0A3E978
:01759500F005
:10759600127B6F7F701279481279ED900007A3E095
:1075A600FF1279481279ED127B6F7F7112794812BA
:1075B60079EDE490000DF090000CE0FFA3E0FEC32F
:1075C6009F502EEF14B506047F0080027F011278CB
:1075D60033900009E0FBA3E0FAA3E0F990000DE088
:1075E600F582758300EF12310D90000DE004F080F6
:0475F600C6027B84CA
:1074FE0043B12053B2DF127BFAC2B77F0A127BD898
:10750E00D2B77FF4127BD87B017A00790090000C01
:10751E007401F07FA87E00127585900000E0641162
:10752E0060037F01227B017A00790090000C7402C7
:10753E00F07F9F7E00127585900000E06426600348
:10754E007F0122900001E0FF600C64016008EF648F
:10755E000260037F01227B017A00790090000C7497
:10756E0001F07FA37E00127585900000E0646460D8
:06757E00037F01227F00E3
:0175840022E4
:10477200E4900004F0A3F09000B2E004F0E0FF75D2
:10478200F00A84E5F06009EFC3940A400302498EFF
:104792007B017A00790690000C7401F07F027E00A2
:1047A200127585900006E0FF700302498EC39403E0
:1047B200400302498E74FFA807088002C333D8FC65
:1047C200F444C09000A9F0E4900004F0900004E0EA
:1047D200FFC39402400302496BEF25E024B3F58244
:1047E200E43400F583E0FEA3E0FF7B017A00790068
:1047F20090000C7404F0127585900004E0FD7401C1
:104802007E00A805088005C333CE33CED8F9FF90C9
:1048120000A9E0FBEF5B7003024962900092E01492
:1048220060461470030248B014700302490D240359
:104832006003024962900000E0540FFEA3E07A0098
:104842002400FFEA3EFEED25E024A1F582E43400D7
:10485200F583EEF0A3EFF0900002E0540FFEA3E028
:104862002400FFEA3E024900900000E0540FFEA33C
:10487200E07C002400FFEC3EFEC390008FE09FFF2F
:1048820090008EE09EFE900004E0FD25E024A5F558
:1048920082E43400F583EEF0A3EFF0900002E054DE
:1048A2000FFEA3E07A002400FFEA3E024950900086
:1048B20000E0540FFEA3E07C002400FFEC3EFEC3A8
:1048C20090008DE09FFF90008CE09EFE900004E03F
:1048D200FD25E024A1F582E43400F583EEF0A3EF98
:1048E200F0900002E0540FFEA3E07A002400FFEAF9
:1048F2003EFEC390008FE09FFF90008EE09EFEED93
:1049020025E024A5F582E43400804E900000E054B6
:104912000FFEA3E07C002400FFEC3EFE900004E0CA
:10492200FD25E024A5F582E43400F583EEF0A3EF43
:10493200F0900002E0540FFEA3E07A002400FFEAA8
:104942003EFEC390008DE09FFF90008CE09EFEED46
:1049520025E024A1F582E43400F583EEF0A3EFF024
:10496200900004E004F00247CE9000057401F0903C
:1049720000A1E07002A3E0700E9000A5E07002A317
:10498200E07004900006F0E49000B2F0900006E0BF
:1049920070219000A9E030E705547FF0801574FF84
:1049A2009000A1F0A3F09000A5F0A3F09000A9E080
:1049B20054E0F09000B2E0D394F04003740AF09017
:0449C2000005E0FF0D
:0149C60022CE
:1077D3004F009BFF7B2A0000000000000000000018
:0277E3000000A4
:107B2A001274FEEF60037F012290009E74FFF0A39F
:0A7B3A007447F0A37472F07F00227C
:077C65004391405392BF223E
:027A2000AD07B0
:107A2200E4FC74807E00A804088006CEA2E713CE90
:107A320013D8F8FFEDFBEF5B6004D2958002C2958C
:097A4200C297D2970CECB408D9EC
:017A4B002218
:10798500E4FDFCED25E0FD74807E00A8040880067A
:10799500CEA2E713CE13D8F86004D2958002C29523
:1079A500C297309606ED4401FD8000D2970CECB4E9
:0479B50008D1AF0541
:0179B90022AB
:0300000002747215
:0C747200787FE4F6D8FD7581210274B922
:102FD100E709F608DFFA8046E709F208DFFA803EE2
:102FE10088828C83E709F0A3DFFA8032E309F608CF
:102FF100DFFA8078E309F208DFFA807088828C8337
:10300100E309F0A3DFFA806489828A83E0A3F608EA
:10301100DFFA805889828A83E0A3F208DFFA804CC4
:1030210080D280FA80C680D4806980F2803380109B
:1030310080A680EA809A80A880DA80E280CA803304
:1030410089828A83ECFAE493A3C8C582C8CCC5837C
:10305100CCF0A3C8C582C8CCC583CCDFE9DEE7804C
:103061000D89828A83E493A3F608DFF9ECFAA9F0CB
:10307100EDFB2289828A83ECFAE0A3C8C582C8CC21
:10308100C583CCF0A3C8C582C8CCC583CCDFEADE3A
:10309100E880DB89828A83E493A3F208DFF980CC9C
:1030A10088F0EF60010E4E60C388F0ED2402B40495
:1030B1000050B9F582EB2402B4040050AF2323453C
:0630C10082239030217310
:1030C700BB010689828A83E0225002E722BBFE0207
:0930D700E32289828A83E493223A
:1030E000BB010CE58229F582E5833AF583E02250A5
:1030F00006E92582F8E622BBFE06E92582F8E222EF
:0D310000E58229F582E5833AF583E4932208
:10310D00F8BB010DE58229F582E5833AF583E8F0F8
:10311D00225006E92582C8F622BBFE05E92582C8A4
:02312D00F2228C
:10312F00EF8DF0A4A8F0CF8CF0A428CE8DF0A42EB4
:02313F00FE226E
:10314100C2D5EC30E709B2D5E4C39DFDE49CFCEEA9
:1031510030E715B2D5E4C39FFFE49EFE12343EC3AF
:10316100E49DFDE49CFC800312343E30D507C3E4AA
:063171009FFFE49EFE2218
:10317700C5F0F8A3E028F0C5F0F8E58215827002E3
:063187001583E038F02280
:10318D00BB010A89828A83E0F5F0A3E0225006870D
:10319D00F009E71922BBFE07E3F5F009E3192289CF
:0B31AD00828A83E493F5F07401932202
:1031B800BB010A89828A83F0E5F0A3F0225006F762
:0F31C80009A7F01922BBFE06F3E5F009F319225F
:1031D700E88FF0A4CC8BF0A42CFCE98EF0A42CFC97
:1031E7008AF0EDA42CFCEA8EF0A4CDA8F08BF0A415
:1031F7002DCC3825F0FDE98FF0A42CCD35F0FCEB74
:103207008EF0A4FEA9F0EB8FF0A4CFC5F02ECD3938
:0F321700FEE43CFCEAA42DCE35F0FDE43CFC22A5
:1032260075F008758200EF2FFFEE33FECD33CDCC5F
:1032360033CCC58233C5829BED9AEC99E5829840E2
:103246000CF582EE9BFEED9AFDEC99FC0FD5F0D6BF
:10325600E4CEFBE4CDFAE4CCF9A88222B800C1B9E9
:103266000059BA002DEC8BF084CFCECDFCE5F0CB27
:10327600F97818EF2FFFEE33FEED33FDEC33FCEB60
:1032860033FB10D703994004EB99FB0FD8E5E4F91B
:10329600FA227818EF2FFFEE33FEED33FDEC33FC08
:1032A600C933C910D7059BE99A4007EC9BFCE99AFC
:1032B600F90FD8E0E4C9FAE4CCFB2275F010EF2F41
:1032C600FFEE33FEED33FDCC33CCC833C810D70741
:1032D6009BEC9AE899400AED9BFDEC9AFCE899F87C
:0E32E6000FD5F0DAE4CDFBE4CCFAE4C8F9220F
:1078C700C2D5E830E70FB2D5E4C39BFBE49AFAE4EC
:1078D70099F9E498F8EC30E717B2D51278FD12322F
:1078E70062E4C39BFBE49AFAE499F9E498F880030D
:1078F70012326230D50DE4C39FFFE49EFEE49DFD86
:04790700E49CFC22DE
:0C32F400ECF0A3EDF0A3EEF0A3EFF0224D
:10330000A8828583F0D083D082123317123317122C
:103310003317123317E473E493A3C583C5F0C58351
:10332000C8C582C8F0A3C583C5F0C583C8C582C817
:01333000227A
:0C333100A42582F582E5F03583F58322A7
:06333D008A838982E4731B
:1039DF00E5082433F582E43400F583E005082290EE
:1039EF000030300703900033E475F00112349F026A
:1039FF0030C72000E97F2ED2008018EF540F24909B
:103A0F00D43440D4FF30040BEF24BFB41A0050035A
:103A1F002461FFE50960021509050CE50C7002052C
:103A2F000B30070E900030E475F00112349FEF0257
:103A3F00342C027A9F7403D2078003E4C207F5087F
:103A4F009000301234B6E4F509F50BF50CE509607A
:103A5F00077F20123A2280F5750AFFC201C200C209
:103A6F0002C203C205C206C2081239EEFF700D3042
:103A7F0007057F00123A33AF0CAE0B22B4255FC29D
:103A8F00D5C2041239EEFF24D0B40A00501A75F0D3
:103A9F000A780930D50508B6FF0106C6A426F62018
:103AAF00D5047002D20380D924CFB41A00EF50048A
:103ABF00C2E5D204023C34D20180C6D20080C0D20B
:103ACF000280BCD2D580BAD20580B47F20123A22B0
:103ADF002002077401B5090040F11239DFFF123AD5
:103AEF0022023A5CD208D20680951239DFFB1239D6
:103AFF00DFFA1239DFF94A4B700679057A3D7BFF01
:103B0F0020022EE509602A7E008E82758300123016
:103B1F00E060060EEE650A70F0C2D5EBC0E0EAC0B9
:103B2F00E0E9C0E0EE123C7BD0E0F9D0E0FAD0E063
:103B3F00FB1230C7FF60AAEBC0E0EAC0E0E9C0E0CB
:103B4F00123A22D0E02401F9D0E03400FAD0E0FBA1
:103B5F00E50A0460DCD50AD980877BFF7A3C797748
:103B6F00D202809C791080027908C206C2088008B0
:103B7F00D2D5790A8004790AC2D5E50A047002F514
:103B8F000AE4FAFDFEFF1239DFFC7B082001131255
:103B9F0039DFFD7B1030000A1239DFFE1239DFFFEB
:103BAF007B20EC3382D592D55013C3E43000069FAF
:103BBF00FFE49EFEE42001039DFDE49CFCE4CBF8B2
:103BCF00C201EC700CCFCECDCCE824F8F870F380A6
:103BDF0017C3EF33FFEE33FEED33FDEC33FCEB3366
:103BEF00FB994002FB0FD8E9EB300105F8D0E0C498
:103BFF0048B201C0E00AEC4D4E4F78207B0070C2F6
:103C0F00EAB50A0040BCC0E0123C7DD0F0D0E02005
:103C1F000104C4C0E0C4B201C0F0123A0BD0F0D519
:103C2F00F0EB023A5C1234BF3AF9533B73583ACA7D
:103C3F004C3AC6423B774F3B7F443B7F493ADF4389
:083C4F003B85553B69463B69CA
:103C5700453B69473D25503ACE2D3AD22E3AF52BB2
:103C67003AD6233AF3203D0E2A3A8E4800003AED21
:103C77003F3F3F00790AA2D5200314300509B91048
:103C8700020404B9080104A2D52006025001042049
:103C970002689202B509005034C0E07F2030031952
:103CA7007F30A20272067205500F123CD4C202C2C4
:103CB70006C205C2087F30800F300503E9C0E01255
:103CC7003A22300503D0E0F9D0E0B509CC3005172A
:103CD7007F30B9100C123A227F583004077F788062
:103CE70003B90803123A223002057F2D023A227FD8
:103CF700202008F87F2B2006F322920280CF286E1F
:103D0700756C6C2900D2011239DF3001F8C20178D5
:103D17000930D50108F6023A8E2D50434958123919
:103D2700DF2403B405004001E4903D2093123A13C9
:0D3D3700743A123A13D203750904023B736B
:1077E6009000B71234937810EC4D4E4F70047CA580
:1077F6007DA5C3EC13FCED13FDEE13FEEF13FF5056
:1078060010EC64CCFCED644CFDEE644EFEEF64CEF1
:10781600FFD8DF9000B71232F4EE547FFE229000BC
:0D782600B7EEF0EFA3F0A374A5F0A3F022DD
:10334300E709F60870FA8046E709F20870FA803E4A
:1033530088828C83E709F0A370FA807EE309F6087C
:1033630070FA8076E309F20870FA806E88828C83A3
:10337300E309F0A370FA806289828A83E0A3F608E6
:1033830070FA805689828A83E0A3F20870FA804A31
:1033930080D280FA80C680D4806580F2803180102C
:1033A30080A680EA809A80A880DA80E280CA803191
:1033B30089828A83ECFAE493A3C8C582C8CCC58307
:1033C300CCF0A3C8C582C8CCC583CC70E9800D8975
:1033D300828A83E493A3F60870F9ECFAA9F0EDFB73
:1033E3002289828A83ECFAE0A3C8C582C8CCC5834C
:1033F300CCF0A3C8C582C8CCC583CC70EA80DD8974
:10340300828A83E493A3F20870F980CE88F0ED24D6
:1034130002B4040050C4F582EB2402B4040050BA91
:09342300232345822390339373A7
:107BC300E4FFFE1230C7600C0FEF70010E09E9707D
:057BD300F20A80EF2220
:10747E00027A76E493A3F8E493A34003F68001F234
:10748E0008DFF48029E493A3F85407240CC8C3330F
:10749E00C4540F4420C8834004F456800146F6DFDE
:1074AE00E4800B0102040810204080907799E47E5E
:1074BE00019360BCA3FF543F30E509541FFEE493D3
:1074CE00A360010ECF54C025E060A840B8E493A39A
:1074DE00FAE493A3F8E493A3C8C582C8CAC583CAC5
:1074EE00F0A3C8C582C8CAC583CADFE9DEE780BE7D
:0177E50000A3
:10342C00BB010689828A83F0225002F722BBFE017F
:02343C00F32279
:10343E00BC000BBE0029EF8DF084FFADF022E4CC72
:10344E00F875F008EF2FFFEE33FEEC33FCEE9DEC3B
:10345E00984005FCEE9DFE0FD5F0E9E4CEFD22ED81
:10346E00F8F5F0EE8420D21CFEADF075F008EF2FCB
:10347E00FFED33FD4007985006D5F0F222C398FDBC
:05348E000FD5F0EA2259
:0C349300E0FCA3E0FDA3E0FEA3E0FF22AC
:10349F00F8E0FBA3A3E0F925F0F0E58215827002B6
:0734AF001583E0FA38F0225A
:0934B600EBF0A3EAF0A3E9F02217
:1034BF00D083D082F8E4937012740193700DA3A39C
:1034CF0093F8740193F5828883E4737402936860B0
:0634DF00EFA3A3A380DFB0
:107A9F00EFB40A07740D127AAA740A309811A899D4
:107AAF00B8130CC2983098FDA899C298B811F63047
:077ABF0099FDC299F599221F
:00000001FF
