:020000040800F2
:10000000C007002071370008792800087D28000803
:1000100081280008852800088928000800000000C1
:100020000000000000000000000000008D28000813
:100030009128000800000000952800089928000871
:100040009F3700089F3700089F3700089F37000838
:100050009F3700089F3700089F3700089F37000828
:100060009F3700089F3700089F3700089F37000818
:100070009F3700089F3700089F3700089F37000808
:100080009F3700089F3700089F3700089F370008F8
:100090009F3700089F3700089F3700089F370008E8
:1000A0009F3700089F3700089F3700089F370008D8
:1000B0009F3700089F3700089F3700089F370008C8
:1000C0009F3700089F3700089F3700089F370008B8
:1000D0009F3700089F3700089F3700089F370008A8
:1000E0009F3700089F3700089F3700089F37000898
:1000F0009F3700089F3700089F37000800F002F87C
:1001000000F044F80AA090E8000C82448344AAF16D
:100110000107DA4501D100F039F8AFF2090EBAE86B
:100120000F0013F0010F18BFFB1A43F0010318472B
:10013000E874000008750000103A24BF78C878C140
:10014000FAD8520724BF30C830C144BF04680C60DD
:10015000704700000023002400250026103A28BF25
:1001600078C1FBD8520728BF30C148BF0B60704729
:10017000782904F07585732904F04D8700207047B5
:100180001FB504F04AFE1FBD10B510BD04F047FFB7
:100190001146FFF7F5FF00F023F804F065FF03B404
:1001A000FFF7F2FF03BC04F06FFF00000B49D1F82A
:1001B00000C04A685CF8043B1068184442F8040B1D
:1001C0008C4528BFA1F1DC0C8A4228BFA1F1DC02DA
:1001D000C1F800C04A6020F000407047580100207C
:1001E0004FF4A06003F0FEFC04F02CFC02F0DDFDF7
:1001F00017E001F026F802F085F901F068F801F047
:100200000BF901F0D5F901F014FB01F0B7FA01F098
:1002100006FC01F017FD02F0ECF901F056FD02F0CA
:1002200067F9E6E770B505460E461446314628469E
:1002300002F0EEFC204602F078FC70BD2DE9F05F84
:1002400004460D4616461F46301B401C1FFA80FA16
:10025000781B401C1FFA80FB3B463246294620464D
:1002600002F0ACFC4FF000080FE04FF0000906E090
:100270000A9802F05AFC09F101001FFA80F9D145F1
:10028000F6DB08F101001FFA80F8D845EDDBFD48E8
:100290004088401E83B2FB480088401E82B2002185
:1002A000084602F08BFCBDE8F09F2DE9FF4F85B0BA
:1002B00081468A460020049003900798A0EB090528
:1002C0000898A0EB0A06CDF80890CDF804A0002D00
:1002D00001DD012705E00DB9002702E04FF0FF37EF
:1002E0006D42002E02DD4FF0010806E016B94FF016
:1002F000000802E04FF0FF387642B54201DD2C469F
:1003000000E034464FF0000B21E0019A91B2029ACE
:1003100090B202F087FC049828440490039830447B
:1003200003900498A04205DD0498001B04900298F5
:10033000384402900398A04205DD0398001B039007
:100340000198404401900BF101001FFA80FB601CF2
:100350008345DADD09B0BDE8F08F2DE9F0410446B0
:100360000D4616461F46DDF81880EA1991B2A2190B
:1003700090B24246FFF756FFEA1991B2A21B90B223
:100380004246FFF74FFFEA1B91B2A21990B24246D4
:10039000FFF748FFEA1B91B2A21B90B24246FFF75B
:1003A00041FFAA1991B2E21990B24246FFF73AFF13
:1003B000AA1991B2E21B90B24246FFF733FFAA1B83
:1003C00091B2E21990B24246FFF72CFFAA1B91B2FC
:1003D000E21B90B24246FFF725FFBDE8F0812DE910
:1003E000FF4F81B0824617469846DDF838B00024AA
:1003F00045464FEA4800C0F10306BBF1000F1FD08D
:100400001BE0A14608E04B46224600975046029961
:10041000FFF7A3FF09F10109A945F4DD002E04DA75
:10042000042000FB0460861D06E0601B042101FB24
:10043000006000F10A066D1E641CAC42E1DD18E0AC
:1004400015E02B462246009750460299FFF785FF9C
:10045000002E04DA042000FB0460861D06E0601B09
:10046000042101FB006000F10A066D1E641CAC4211
:10047000E7DD05B0BDE8F08F2DE9FF4F85B081467F
:100480000020049083460798A0EB09050699089878
:10049000461ACDF80C9006980290002D01DD012738
:1004A00005E00DB9002702E04FF0FF376D42002E46
:1004B00002DD4FF0010806E016B94FF0000802E037
:1004C0004FF0FF387642B54201DD2C4600E034465D
:1004D0004FF0000A1FE001200090DDE91232DDE953
:1004E0000210FFF77CFF049828440490B34404985A
:1004F000A04205DD0498001B049003983844039043
:10050000A34504DDABEB040B0298404402900AF1D2
:1005100001001FFA80FA601C8245DCDD09B0BDE8ED
:10052000F08F2DE9F04104460D4616461F462B4636
:10053000324629462046FFF7B8FE3B46224629466A
:100540002046FFF7B2FE3B46324639462046FFF7CB
:10055000ACFE3B46324629463046FFF7A6FEBDE8D4
:10056000F081F8B504460D4616461F4646480088F9
:100570003B463246294600902046FFF75FFEF8BD15
:100580002DE9F84F06460F4691469846C9F10100FD
:100590000FFA80FA4FF0010B4FEA4900404200B2D7
:1005A000009000244D4652E0BAF1000F09DB681EAE
:1005B00085B20098801C00B20090009850440FFA59
:1005C00080FA601C84B20BF102000FFA80FB0AEB88
:1005D0000B000FFA80FA08F0040058B17A1991B2B2
:1005E000321990B202F01EFB3A1991B2721990B210
:1005F00002F018FB08F0020058B17A1B91B23219D0
:1006000090B202F00FFB3A1B91B2721990B202F055
:1006100009FB08F0080058B13A1991B2721B90B268
:1006200002F000FB7A1991B2321B90B202F0FAFA92
:1006300008F0010058B13A1B91B2721B90B202F05F
:10064000F1FA7A1B91B2321B90B202F0EBFAAC4293
:10065000AADBBDE8F88F2DE9FC5F06460F46904601
:100660009A46DDF83090C8F101000FFA80FB0120B6
:1006700001904FEA4800404200B2009000244546F5
:1006800075E000006C00002030000020BBF1000F7E
:1006900009DB681E85B20098801C00B200900098AB
:1006A00058440FFA80FB601C84B20198801C00B291
:1006B0000190019858440FFA80FB0AF0010048B3FA
:1006C00007EB050C0CF1010CCC441FFA8CF306EB84
:1006D000040C1FFA8CF2A7EB050C1FFA8CF106EB49
:1006E000040C1FFA8CF0FFF7E0FD07EB040C0CF193
:1006F000010CCC441FFA8CF306EB050C1FFA8CF2AC
:10070000A7EB040C1FFA8CF106EB050C1FFA8CF01A
:10071000FFF7CBFD0AF0020048B307EB050C0CF124
:10072000010CCC441FFA8CF3A6EB040C1FFA8CF2DC
:10073000A7EB050C1FFA8CF1A6EB040C1FFA8CF04A
:10074000FFF7B3FD07EB040C0CF1010CCC441FFACE
:100750008CF3A6EB050C1FFA8CF2A7EB040C1FFA26
:100760008CF1A6EB050C1FFA8CF0FFF79EFDAC4256
:100770008CDBBDE8FC9F2DE9F04105460E4617468F
:100780009846069C391B8AB2291988B233463146ED
:10079000FFF78BFDA8EB040083B2301981B22A4623
:1007A0002846FFF782FD391B8AB2291988B24346D1
:1007B0004146FFF77AFDA8EB040083B2301981B2FD
:1007C0003A463846FFF771FD321991B22A1990B2B4
:1007D00001232246FFF7D4FE321991B23A1B90B2A0
:1007E00002232246FFF7CCFEA8EB040291B23A1B8B
:1007F00090B204232246FFF7C3FEA8EB040291B295
:100800002A1990B208232246FFF7BAFEBDE8F0810C
:100810002DE9F84307460D4690461E46089CFA48C7
:100820000088711C8BB2A8EB04018AB239190090C0
:1008300088B22946FFF702FD701B401C022101FB14
:100840001400401E80B22A1991B2A8EB0402009055
:1008500090B201232246FFF7FEFE701B401C0221CE
:1008600001FB1400401E80B22A1991B23A1900907F
:1008700090B202232246FFF7EEFEBDE8F8832DE991
:10088000F04704460D4616461F46DDE908893B46FB
:10089000324629462046FFF708FD4B464246394678
:1008A0003046FFF702FD2B46224649464046FFF7F9
:1008B000FCFCBDE8F08702880B8803800A80704743
:1008C0002DE9FF4F85B000260027BDF81800BDF8C0
:1008D0002010884207DD08A906A8FFF7ECFF07A94A
:1008E00005A8FFF7E8FFBDF82000BDF84C108842CE
:1008F00007DD08A913A8FFF7DEFF07A912A8FFF775
:10090000DAFFBDF81800BDF82010884207DD08A9FD
:1009100006A8FFF7D0FF07A905A8FFF7CCFFBDF891
:100920001800BDF84C10884238D1BDF8140003906F
:100930000490BDF81C00BDF81010884203DABDF821
:100940001C00049008E0BDF81C00BDF80C108842A3
:1009500002DDBDF81C000390BDF84800BDF8101082
:10096000884203DABDF84800049008E0BDF848006A
:10097000BDF80C10884202DDBDF848000390A24883
:1009800000880090BDF81830BDF80C201946BDF85D
:100990001000FFF753FC09B0BDE8F08FBDF81C0054
:1009A000BDF81410A0EB010BBDF82000BDF8181025
:1009B000401A0290BDF84800BDF81410451ABDF861
:1009C0004C00BDF81810A0EB0109BDF84800BDF8B7
:1009D0001C10A0EB010ABDF84C00BDF82010401A15
:1009E0000190BDF82000BDF84C10884202D1BDF83E
:1009F000208004E0BDF82000401E1FFA80F8BDF8FA
:100A0000184027E0029896FBF0F0BDF81410084457
:100A100080B2049097FBF9F0BDF81410084480B23E
:100A200003905E442F44BDF81000BDF80C108842BE
:100A300003DD03A904A8FFF73EFF7348008823469F
:100A40000090BDF80C202146BDF81000FFF7F6FB22
:100A5000601C84B24445D5DDBDF82000201A00FB9F
:100A60000AF6BDF81800201A00FB05F727E00198E8
:100A700096FBF0F0BDF81C10084480B2049097FB80
:100A8000F9F0BDF81410084480B2039056442F4486
:100A9000BDF81000BDF80C10884203DD03A904A8BE
:100AA000FFF709FF5848008823460090BDF80C2046
:100AB0002146BDF81000FFF7C1FB601C84B2BDF8F1
:100AC0004C008442D3DD00BF65E72DE9FF4F83B0C2
:100AD00081468A469346DDE910644B4800880290BF
:100AE000A6F12000C6B204EBD47009EB6000401EF2
:100AF00082B20AEB0400401E83B25146484601947C
:100B000002F05CF8129850BB002525E00C2C07D1B0
:100B100006EB46003D4901EB800010F8058004E03B
:100B20003B4800EB061010F8058000270DE008F0A8
:100B3000010018B1584601F0F8FF02E0069801F0F4
:100B4000F4FF4FEA6808781CC7B204EBD471B7EB26
:100B5000610FECDB681CC5B2A542D7DB2DE0002598
:100B600029E00C2C07D106EB4600284901EB800058
:100B700010F8058004E0264800EB061010F8058008
:100B8000002711E02048A0F800B008F0010038B1BB
:100B90000AEB050291B209EB070290B202F042F8AB
:100BA0004FEA6808781CC7B204EBD471B7EB610F49
:100BB000E8DB681CC5B2A542D3DB13490298088064
:100BC00014484088401E83B212480088401E82B2FA
:100BD0000021084601F0F2FF07B0BDE8F08F2DE9D3
:100BE000FE4306460F4615461C46DDF8288025E0E4
:100BF00008480088401EB04204DB06484088401E7A
:100C0000B84209DABDE8FE8330000020A250000897
:100C1000165500086C00002020788DE82101FC4862
:100C20000388FC48028839463046FFF74EFF2846C5
:100C300005EBD07106EB61018EB2641C20787E2832
:100C400002DC20782028D3DA00BFDBE710B50246AB
:100C5000012000E050430B1EA1F10104E1B2F9D1E3
:100C600010BD2DE9FF4F83B0074691461E46109CEC
:100C70004FF0000A002543E0701B401EC1B20A205D
:100C8000FFF7E4FFB9FBF0F00A21B0FBF1F201FB42
:100C90001208BAF1000F1BD1701EA84218DDB8F17E
:100CA000000F13D100202021A346CDE900140290AB
:100CB00004EBDB71491001FB057188B2D4490B8844
:100CC000D4490A880499FFF700FF17E04FF0010AA2
:100CD000002108F13000C0B2A346CDE901410090E7
:100CE00004EBDB71491001FB057188B2C8490B8820
:100CF000C8490A880499FFF7E8FE00BF681CC5B21E
:100D0000B542B9DB07B0BDE8F08F2DE9FC5F0546C1
:100D1000884691469A46DDF830B000954B20019008
:100D200000245FE004EB0410BB4911F810009BF8AD
:100D30000010884253D104EB0410B74901EB400086
:100D400040789BF80110884249D108F10F0083B226
:100D500005F10F0082B24146284601F02FFF002620
:100D60003BE0002734E00D9890B904EB0410AA4949
:100D700001EB4000801C805D80213941084018B1A2
:100D8000484601F0D2FE21E0504601F0CEFE1DE0C3
:100D9000A048A0F8009004EB04109F4901EB40002C
:100DA000801C805D80213941084018B141462846A9
:100DB00001F038FF681C85B20098281A102805D168
:100DC000009D08F101001FFA80F803E0781CC7B20B
:100DD000082FC8DB00BF701CC6B2202EC1DB00BFCD
:100DE000601C84B2019884429CDB8C484088401E81
:100DF00083B28A480088401E82B20021084601F072
:100E0000DDFEBDE8FC9F2DE9FC5F05468846914666
:100E10009A46DDF830B0009507200190002467E085
:100E200004EB840000EB44107D4911F810009BF89E
:100E30000010884259D104EB840000EB441078493B
:100E400001EB400040789BF8011088424DD108F139
:100E5000170083B205F1170082B24146284601F01F
:100E6000ADFE00263FE0002738E00D98A0B904EB66
:100E7000840000EB44106A4901EB4000801C805D57
:100E800080213941084018B1484601F04EFE23E068
:100E9000504601F04AFE1FE05E48A0F8009004EBC7
:100EA000840000EB44105E4901EB4000801C805D33
:100EB00080213941084018B14146284601F0B2FE70
:100EC000681C85B20098281A182805D1009D08F1E1
:100ED00001001FFA80F803E0781CC7B2082FC4DBBA
:100EE00000BF701CC6B2482EBDDB00BF601C84B2C0
:100EF0000198844294DB49484088401E83B24748A9
:100F00000088401E82B20021084601F057FEBDE86D
:100F1000FC9F2DE9FC5F0546884691469A46DDF820
:100F200030B000950420019000245FE004EB8410B1
:100F30003C4911F810009BF80010884253D104EB93
:100F40008410384901EB400040789BF8011088423A
:100F500049D108F11F0083B205F11F0082B241465A
:100F6000284601F02BFE00263BE0002734E00D98D8
:100F700090B904EB84102B4901EB4000801C805D8C
:100F800080213941084018B1484601F0CEFD21E0EA
:100F9000504601F0CAFD1DE01E48A0F8009004EB89
:100FA0008410204901EB4000801C805D8021394184
:100FB000084018B14146284601F034FE681C85B24D
:100FC0000098281A202805D1009D08F101001FFA79
:100FD00080F803E0781CC7B2082FC8DB00BF701C84
:100FE000C6B2802EC1DB00BF601C84B2019884426F
:100FF0009CDB0A484088401E83B208480088401E97
:1010000082B20021084601F0D9FDBDE8FC9F000036
:101010003200002030000020065B00086C00002039
:10102000FC640008026700082DE9FF4F83B0064604
:1010300088469146DDE91147109DB2464FF0000BFE
:1010400071E0BBF1000F40D104EBD4715E4A12880D
:10105000A2EB6101B14204DB5B494988091B4145B0
:1010600002DA07B0BDE8F08F2878802802DD4FF063
:10107000010B58E028780D2806D108EB04001FFA70
:1010800080F856466D1C1EE0102C0DDD10212878CE
:101090008DE883004A4641463046069BFFF715FD22
:1010A00006F1080086B20EE028788DE891004A46E5
:1010B00041463046069BFFF708FD204604EBD07101
:1010C00006EB61018EB26D1C2DE03F480088001BCD
:1010D000B04204DB3C484088001B404500DAC0E7D2
:1010E0004FF0000B202C08D1CDE900574A4641466D
:1010F0003046069BFFF70DFF12E0182C08D1CDE912
:1011000000574A4641463046069BFFF77CFE07E003
:10111000CDE900574A4641463046069BFFF7F5FDAC
:10112000AD1C301986B2287800288AD100BF98E714
:101130002DE9FE4F0E4617469846DDE90D9A0C9CA8
:10114000204603F097FE85B21F490988A1EBC50030
:1011500000EBD071C1F34F0B43463A463146584637
:101160008DE81006FFF760FFBDE8FE8F2DE9F04720
:1011700006460F46154607F1270083B206F1270001
:1011800082B23946304601F019FD00240AE015F814
:10119000149005EB440090F8018049EA082001F022
:1011A000C4FC641CB4F5C86FF1DB07484088401EDE
:1011B00083B205480088401E82B20021084601F033
:1011C000FDFCBDE8F08700006C0000203EB5044641
:1011D0004FF6FF7001F03EFD1F200090FE48028890
:1011E000142300210846FFF729F81F200090FA4831
:1011F000438802884088143881B20020FFF71EF827
:101200004FF6FF70F5490880012010211F234FF68B
:10121000FF72CDE90041029002210020FFF788FF14
:1012200001201021EEA2CDE900210290EA48408879
:10123000123881B21F234FF6FF720020FFF778FFAC
:101240003EBD0EB5ECA0FFF7C1FF01201021F0A2BA
:101250001F23CDE900210290DA021E210020FFF7B2
:1012600067FF01201021E6A21F23CDE90021029093
:10127000DA023C210020FFF75BFF01201021E7A2EA
:101280001F23CDE9002102904FF61F025A210020B2
:10129000FFF74EFF01201021E6A21F23CDE9002118
:1012A00002901A4678210020FFF742FF40F2EE201C
:1012B00003F005FC40F2EE2003F001FC40F2EE20CA
:1012C00003F0FDFB40F2EE2003F0F9FB0EBD0EB57E
:1012D0004FF6FF700090C0484388028800210846FE
:1012E000FEF7ACFF01201021D9A24FF6E073CDE943
:1012F0000021029000221E211420FFF795FE4FF4DA
:10130000487003F0DCFB00200090B348438802885B
:1013100000210846FEF792FF01201021CEA24FF6D1
:10132000E073CDE9002102904FF6FF721E211420D8
:10133000FFF77AFE4FF4487003F0C1FB4FF478409A
:101340000090A5484388028800210846FEF776FFF2
:1013500001201021C2A24FF6E073CDE900210290D6
:101360001F221E211420FFF75FFE4FF4487003F088
:10137000A6FB4FF4FC600090974843880288002148
:101380000846FEF75BFF01201021B7A24FF6E0737D
:10139000CDE9002102901F221E211420FFF744FEF8
:1013A0004FF4487003F08BFB1F2000908A4843885D
:1013B000028800210846FEF741FF01201021ACA25F
:1013C0004FF6E073CDE9002102904FF478421E21E0
:1013D0001420FFF729FE4FF4487003F070FB48F229
:1013E000304000907C484388028800210846FEF780
:1013F00025FF01201021A0A24FF6E073CDE90021C6
:1014000002904FF61F021E211420FFF70DFE4FF42D
:10141000487003F054FB0EBD2DE9F843002498A05A
:10142000FFF7D4FE4FF6FF7000906B4840881438E9
:1014300083B26948028814210020FEF7FFFE00BF36
:1014400048E0954830F8140064490880DFF888C106
:10145000BCF8025005EBD57C4FEA6C0CACF1500C9B
:10146000C4EB0419CC440CF13C0C1FFA8CF3DFF8EC
:1014700068C1BCF8006006EBD67C4FEA6C0CACF19E
:10148000500CC4EB0419CC440CF13C0C1FFA8CF248
:10149000DFF844C1BCF8027007EBD77C4FEA6C0C54
:1014A000ACF1500CC4EB0419CC441FFA8CF1DFF8FA
:1014B00028C1BCF8008008EBD87C4FEA6C0CACF17A
:1014C000500CC4EB0419CC441FFA8CF0FFF729F838
:1014D000601CC4B2052CB4DB40F2EE2003F0EFFA3E
:1014E00040F2EE2003F0EBFA4FF6FF7000903A481E
:1014F0004088143883B23848028814210020FEF74F
:101500009DFE002448E0644830F814003349088008
:10151000DFF8C4C0BCF8026006EBD67C4FEA6C0C66
:10152000ACF1500CC4EB0419CC440CF13C0C1FFA88
:101530008CF3DFF8A4C0BCF8007007EBD77C4FEA4F
:101540006C0CACF1500CC4EB0419CC440CF13C0C09
:101550001FFA8CF2DFF880C0BCF8028008EBD87C60
:101560004FEA6C0CACF1500CC4EB0419CC441FFADC
:101570008CF1DFF864C0BCF8005005EBD57C4FEA75
:101580006C0CACF1500CC4EB0419CC441FFA8CF079
:10159000FEF7E7FF601CC4B2052CB4DB40F2EE207E
:1015A00003F08DFA40F2EE2003F089FABDE8F883EB
:1015B000F8B5002439A0FFF709FE4FF6FF70009040
:1015C00005484088143883B203480288142100205B
:1015D000FEF734FE00BF8DE06C00002030000020DC
:1015E000687474703A2F2F7777772E6C63647769FD
:1015F0006B692E636F6D0000C8ABB6AFB5E7D7D38C
:10160000D7DBBACFB2E2CAD4B3CCD0F2000000002C
:10161000C8ABB6AFB5E7D7D300000000332E3522F4
:1016200020495053205354373739362033323058FD
:10163000343830007869616F46656E674051447494
:1016400065636820323032322D31322D3230000065
:101650005748495445000000424C41434B000000AC
:101660005245442000000000475245454E200000EE
:10167000424C5545200000004752415900000000EF
:10168000B2E2CAD4333A475549BED8D0CECCEEB335
:10169000E4B2E2CAD400000000000020B2E2CAD4E2
:1016A000343A475549BBADD4B2CCEEB3E4B2E2CA4A
:1016B000D40000000020FA4B00905D8805EBD57344
:1016C0005B10323B04EBC40707EB0417D919F44B4A
:1016D0001E8806EBD6735B10503B04EBC40707EB88
:1016E0000417D819EF4B33F814201E23FEF777FEAA
:1016F000601CC4B2052CDDDB40F2EE2003F0DFF904
:1017000040F2EE2003F0DBF94FF6FF700090E44862
:101710004088143883B2E248028814210020FEF782
:101720008DFD00241FE00120DD4B00905D8805EB5E
:10173000D5735B10323B04EBC40707EB0417D919D0
:10174000D74B1E8806EBD6735B10503B04EBC407E7
:1017500007EB0417D819D34B33F814201E23FEF7D8
:101760003EFE601CC4B2052CDDDB40F2EE2003F02F
:10177000A6F940F2EE2003F0A2F9F8BD0EB5CAA01A
:10178000FFF724FD00200C21CCA24FF6E073CDE939
:10179000002102901F221E210A20FFF745FC012094
:1017A0000C21D1A24FF6E073CDE9002102901F2257
:1017B0002D210A20FFF738FC00200C21D5A24FF67E
:1017C000E073CDE9002102901F223C210A20FFF79F
:1017D0002BFC00201021D7A24FF6E073CDE90021A9
:1017E00002901F2250210A20FFF71EFC0120102129
:1017F000DBA24FF6E073CDE9002102901F226421A5
:101800000A20FFF711FC00201021E0A24FF6E07340
:10181000CDE9002102901F2278210A20FFF704FC65
:101820004FF4167003F04BF94FF4167003F047F9BC
:101830000EBD2DE9FC5F0024DCA0FFF7C7FC4FF6CE
:10184000FF70009096484088143883B2944802880C
:1018500014210020FEF7F2FC00BF5DE0914830F853
:101860001400D94908808E48458805EBD570401092
:101870001438C4EB0411084481B28948068806EB89
:10188000D6704010153804EB840200EB820080B261
:10189000DFF80CC2CDE90001BCF8027007EBD77C81
:1018A0004FEA6C0CACF1490CC4EB041BDC441FFA8E
:1018B0008CF3DFF8ECC1BCF8008008EBD87C4FEA71
:1018C0006C0CACF1330C04EB840B0CEB8B0C1FFA9F
:1018D0008CF2DFF8CCC1BCF8029009EBD97C4FEA5E
:1018E0006C0CACF1140CC4EB041BDC441FFA8CF13F
:1018F000DFF8ACC1BCF800A00AEBDA7C4FEA6C0C54
:10190000ACF1500C04EB840B0CEB8B0C1FFA8CF03D
:10191000FEF7B5FF601CC4B2052C9FDB40F2EE2041
:1019200003F0CDF840F2EE2003F0C9F84FF6FF7057
:1019300000905B484088143883B2594802881421CB
:101940000020FEF77BFC00245DE0564830F81400D0
:101950009D4908805248458805EBD57040101438E1
:10196000C4EB0411084481B24D48068806EBD670DA
:101970004010153804EB840200EB820080B2DFF8DF
:1019800020C1CDE90001BCF8027007EBD77C4FEA1B
:101990006C0CACF1490CC4EB041BDC441FFA8CF357
:1019A000DFF8FCC0BCF8008008EBD87C4FEA6C0C78
:1019B000ACF1330C04EB840B0CEB8B0C1FFA8CF2A8
:1019C000DFF8DCC0BCF8029009EBD97C4FEA6C0C64
:1019D000ACF1140CC4EB041BDC441FFA8CF1DFF8EF
:1019E000C0C0BCF800A00AEBDA7C4FEA6C0CACF18A
:1019F000500C04EB840B0CEB8B0C1FFA8CF0FEF7F5
:101A00005FFF601CC4B2052C9FDB40F2EE2003F0A8
:101A100056F840F2EE2003F052F8BDE8FC9F0EB5F8
:101A20006AA0FFF7D3FB002010216DA24FF6E073F0
:101A3000CDE9002102901F221E210A20FFF7F4FAAF
:101A4000002010216FA24FF6E073CDE90021029033
:101A50001F2232210A20FFF7E7FA012018216FA286
:101A60004FF6E073CDE9002102901F2246210A20A3
:101A7000FFF7DAFA012020216EA24FF6E073CDE9DC
:101A8000002102901F2264210A20FFF7CDFA4FF4B3
:101A9000167003F014F84FF4167003F010F80EBD32
:101AA0006C00002000000020B2E2CAD4363AD3A273
:101AB000CEC4CFD4CABEB2E2CAD400003658313246
:101AC0003A6162636465666768696A6B6C6D6E6FC4
:101AD000707172737475767778797A303132333405
:101AE0003536373839000000365831323A414243F2
:101AF0004445464748494A4B4C4D4E4F505152532E
:101B00005455565758595A303132333435363738A0
:101B100039000000365831323A7E21402324255EB8
:101B2000262A28295F2B7B7D3A3C3E3F2F7C2D2B9C
:101B30002E000000385831363A616263646566678A
:101B400068696A6B6C6D6E6F70717273747576779D
:101B500078797A303132333435363738390000000D
:101B6000385831363A4142434445464748494A4B42
:101B70004C4D4E4F505152535455565758595A3058
:101B80003132333435363738390000003858313681
:101B90003A7E21402324255E262A28295F2B7B7D3F
:101BA0003A3C3E3F2F7C2D2B2E000000B2E2CAD4DF
:101BB000353A47554920547269616E676C65CCEEC1
:101BC000B3E4B2E2CAD4000030000020B2E2CAD4CA
:101BD000373AD6D0CEC4CFD4CABEB2E2CAD40000FF
:101BE00031365831363AC8ABB6AFB5E7D7D3BCBCFF
:101BF000CAF5D3D0CFDEB9ABCBBEBBB6D3ADC4FA3A
:101C00000000000031365831363A57656C636F6D0D
:101C100065C8ABB6AFB5E7D7D30000003234583251
:101C2000343AC9EEDBDACAD0D6D0CEC4B2E2CAD4D6
:101C30000000000033325833323AD7D6CCE5B2E256
:101C4000CAD400000EB5FBA0FFF7C0FAFE4A1E2161
:101C50000846FFF78BFA01201021FCA24FF6E07333
:101C6000CDE9002102901F224B212A20FFF7DCF949
:101C7000F54A1E215A20FFF779FA01201021F3A21C
:101C80004FF6E073CDE9002102901F224B21662020
:101C9000FFF7CAF9EC4A1E219620FFF767FA0120E8
:101CA0001021EAA24FF6E073CDE9002102901F2235
:101CB0004B21A220FFF7B8F94FF4167002F0FFFE97
:101CC0004FF4167002F0FBFE0EBD10B588B0002474
:101CD000DF4B0FCBCDE90623CDE9040100BF27E0A0
:101CE000204601F011F8DBA0FFF770FA0121102265
:101CF00004A850F824004FF6E073CDE901210090CC
:101D00001F221E211420FFF78FF9CF4A32211E20F7
:101D1000FFF72CFA40F2EE2002F0D1FE40F2EE2066
:101D200002F0CDFE4FF4FA7002F0C9FE601CC4B29E
:101D3000042CD5DB002000F0E7FF08B010BD0EB585
:101D4000C9A0FFF743FA0120CC4900900988203947
:101D500088B2CBA310220221FEF741FF4FF4784056
:101D6000C849088060E0C84948688047C648007C88
:101D700000F00100002853D0C3480089BF490988FA
:101D8000884251DAC0488089BC49498888424BDA88
:101D9000BDF808004FF6FF71884207D1BA480089A4
:101DA000ADF80800B8488089ADF80A00B648018946
:101DB000B2480088203881421BDDB3488089122850
:101DC00017DA4FF6FF70B04908810881A6A0FFF727
:101DD000FDF90120A94900900988203988B2A8A3FB
:101DE00010220221FEF7FBFE4FF47840A54908803F
:101DF0000DE04FF478400221A34CCDE90010A389F7
:101E00002289BDF80A10BDF80800FEF735FB9E4890
:101E10000089ADF808009C488089ADF80A0003E00D
:101E20004FF6FF70ADF808009DE700B587B097A0AA
:101E3000FFF7CCF90020934908809048008806906D
:101E400000EBD0704010323080B204908B48008894
:101E5000059000EBD0704010323880B25A230390C6
:101E60002821049AFEF75DFB4FF4784085490880ED
:101E700082480088069000EBD0704010401E80B26F
:101E800004907E480088059000EBD07040103138F7
:101E900080B2592303902921049AFEF762FB1F2088
:101EA0007849088075480088069000EBD070401093
:101EB000313080B2049071480088059000EBD070FA
:101EC0004010592303902921049AFEF74AFB4FF64C
:101ED000FF706C49088001200090684800880690D7
:101EE00000EBD0704010203880B26DA31022392151
:101EF0000590FEF774FE48F23040624908800A20DF
:101F000000905E480088069000EBD07040106E3064
:101F100080B2049059480088059000EBD0704010C2
:101F20006E3880B2A92303909621049AFEF770FCC4
:101F30004FF61F00534908800A2000904F48008840
:101F4000069000EBD07040100A3080B204904B48ED
:101F50000088059000EBD07040106E3880B2A92345
:101F600003909621049AFEF753FC4448008806909B
:101F700001200090069800EBD07040100A2340F238
:101F8000CF12A0210590FEF72AFA00203D490880D3
:101F90000120009039480088069000EBD070401076
:101FA0007D3880B23FA3102298210590FEF717FEDE
:101FB0000120009031480088069000EBD07040105E
:101FC000733080B238A3102298210590FEF707FEE7
:101FD0004FF478402B490880102000902748008853
:101FE000069000EBD07040100C3880B203233222F0
:101FF0007D210590FEF735FE00202249088008204B
:1020000000901E480088069000EBD07040101E30F3
:1020100080B2049019480088059000EBD070401001
:102020001E3880B2FA230390DC21049AFEF7A3FB4A
:102030003CE00000B2E2CAD4383ACDBCC6ACCFD442
:10204000CABEB2E2CAD400000C69000851510000B7
:1020500090750008B2E2CAD431303AC6C1C4BBD0D0
:10206000FDD7AAB2E2CAD400B2E2CAD431323AB43D
:10207000A5C3FE50454EB2E2CAD400006C00002059
:10208000525354003000002038000020B2E2CAD47D
:1020900031313AB4A5C3FEB0B4BCFCB2E2CAD4003C
:1020A0004F4E000030000000313030004AF25160E5
:1020B000FE49088007200090FD480088069000EB4C
:1020C000D07040101D3080B20490F948008805900F
:1020D00000EBD07040101D3880B2F8230390DD2152
:1020E000049AFEF795FB4FF61F00F0490880012087
:1020F0000090EF480088069000EBD07040100F3839
:1021000080B2ECA31022E3210590FEF768FD0120C8
:102110001021EAA2CDE900210290E548008806904E
:1021200000EBD07040102F3880B24FF6FF734FF4A1
:102130007842C3210590FEF777FFD5E1E348406878
:1021400006908047E148007C00F001000028F4D0B0
:10215000DE48808928287DDDDC4880895A2879DAA4
:10216000D3480088059000EBD07040103238D74932
:102170000989884252DACE480088069000EBD07078
:102180004010401ED1490989884247DD4FF478400C
:10219000C6490880C6480088069000EBD070401001
:1021A000401E80B20490C2480088059000EBD070B9
:1021B0004010313880B2592303902921049AFEF748
:1021C000D0F91F20B9490880B9480088069000EB73
:1021D000D0704010313080B20490B548008805902E
:1021E00000EBD0704010592303902921049AFEF788
:1021F000B8F94FF6FF70AD49088001200090AC4857
:102200000088069000EBD0704010203880B2AFF20A
:102210007013102239210590FEF7E1FCA4480088D4
:10222000059000EBD0704010A8490989884253DA24
:102230009F480088069000EBD07040103230A349D0
:102240000989884248DD1F209849088098480088FD
:10225000069000E040E000EBD0704010401E80B2DD
:10226000049093480088059000EBD07040103138FE
:1022700080B2592303902921049AFEF772F94FF492
:1022800078408A4908808A480088069000EBD07020
:102290004010313080B2049085480088059000EBF2
:1022A000D0704010592303902921049AFEF759F960
:1022B0004FF6FF707D490880012000907C4800881F
:1022C000069000EBD07040100D3080B280A3102239
:1022D00039210590FEF783FC75480088059000EBD6
:1022E000D0704010643879490989884275DC70489B
:1022F0000088069000EBD070401064307349098963
:1023000088426ADB71488089962866DD6F4880893B
:10231000A92862DA48F23040644908800A20009017
:1023200063480088069000EBD07040106E3080B299
:102330000590664800890A3880B2A9230490962146
:10234000059AFEF765FA4FF61F00584908800A20E3
:10235000009057480088069000EBD07040106E380F
:1023600080B20490594800890A3080B2A9230246FD
:10237000962105900498FEF74BFA012000905348EF
:1023800000890A2340F2CF12A0210690FEF727F819
:102390004FF478404549088045480088059000EB97
:1023A000D0704010643849490989081A06901020F5
:1023B00000903F480088049000EBD07040100C382B
:1023C00080B20290069800EBD070401003230246C2
:1023D0007D2103900298FEF744FC35480088059063
:1023E00000EBD07040101E383849098988427BDCE8
:1023F0002F480088069000EBD07040101E30334903
:102400000989884270DB31488089DC286CDD2F48DF
:102410008089FA2868DA4FF6FF702449088008207E
:10242000009023480088069000EBD07040101E30CA
:1024300080B204901E480088059000EBD0704010D8
:102440001E3880B2FA230390DC21049AFEF793F938
:1024500042F6123015490880072000901448008881
:10246000069000EBD07040101D3080B204901048F0
:102470000088059000EBD07040101D3880B2F82322
:102480000390DD21049AFEF7C3F948F21F40074983
:1024900008800120009006480088069000EBD0706C
:1024A00040100F3880B203A3102214E03000002047
:1024B0006C0000204558495400000000B0B4455855
:1024C0004954BCFCCDCBB3F600000000380000201E
:1024D0004F46460008E0E3210590FEF780FB4FF6EB
:1024E000FF70A349088100E028E600BF07B000BDE7
:1024F00010B59F490868804700B110BDFFF795FCF3
:10250000FFF71DFC70B590B000200D900E900F905D
:10251000242104A802F0CDFC96A0FEF757FE00F09F
:102520002DFD0646324699A10DA802F035FB01208B
:1025300010210DAA4FF6E073CDE9002102901F2271
:1025400019213220FEF770FD002446E0914830F852
:1025500014009149088004EBC40000EB041000F162
:10256000410304EBC40000EB04102D3081B21E22A5
:102570000A20FDF7F6FF04EBC40000EB041000F1A5
:102580003701142000F05AFB054683480088A84212
:1025900004D182A10DA802F049FC03E080A10DA89E
:1025A00002F044FC0DAB2A467FA104A802F0F4FA25
:1025B0000120102104AACDE90021029004EBC400FF
:1025C00000EB04102F3081B24FF6E073724802889E
:1025D0002820FEF729FD601CC4B2072CB6DB40F2B0
:1025E000EE2002F06CFA40F2EE2002F068FA10B031
:1025F00070BD38B572A0FEF7E9FD1F20664908805E
:10260000744802F0F5FB012073A3102232210090E0
:102610000F20FEF7E4FA012075A310224621009056
:102620000F20FEF7DCFA012077A310225A21009038
:102630000F20FEF7D4FA012079A310226E2100901A
:102640000F20FEF7CCFA01207BA3102282210090FC
:102650000F20FEF7C4FA01207DA3102296210090DE
:102660000F20FEF7BCFA01207EA31022AA210090C1
:102670000F20FEF7B4FA4FF4784047490880002451
:1026800073E0FDF793FD42F2107190FBF1F201FB54
:102690001205102005232A46322100906420FEF7FF
:1026A000E0FAFDF783FD42F2107190FBF1F201FBBD
:1026B0001205102005232A46462100906420FEF7CB
:1026C000D0FAFDF773FD42F2107190FBF1F201FBBD
:1026D0001205102005232A465A2100906420FEF797
:1026E000C0FAFDF763FD42F2107190FBF1F201FBBD
:1026F0001205102005232A466E2100906420FEF763
:10270000B0FAFDF753FD42F2107190FBF1F201FBBC
:102710001205102005232A46822100906420FEF72E
:10272000A0FAFDF743FD322190FBF1F201FB120507
:10273000102005232A46962100906420FEF791FA86
:10274000FDF734FD642190FBF1F201FB120510202E
:1027500005232A46AA2100906420FEF782FA4FF44E
:10276000FA7002F0ACF9601CC4B20F2C89DB38BDE2
:1027700038000020B2E2CAD4323AB6C14944BACDD8
:10278000D1D5C9ABD6B5B2E2CAD4000049443A307B
:10279000782578000A000020300000204F4B000010
:1027A0004552524F520000007265616420636F6CA5
:1027B0006F723A307825303458202025730000009D
:1027C000B2E2CAD4393AB6AFCCACCAFDD7D6CFD470
:1027D000CABE000040E20100204843484F3A202092
:1027E00020202020202020202075672F6D3300001E
:1027F0002020434F323A202020202020202020205B
:102800002070706D000000002054564F433A202085
:1028100020202020202020202075672F6D330000ED
:10282000504D322E353A20202020202020202020FC
:102830002075672F6D33000020504D31303A202035
:1028400020202020202020202075672F6D330000BD
:1028500020205445503A20202020202020202020D5
:1028600020430000202048554D3A202020202020E1
:10287000202020202025000000BFFEE700BFFEE74B
:1028800000BFFEE700BFFEE700BFFEE700BFFEE7B8
:1028900000BFFEE700BFFEE700BFFEE70CB500206B
:1028A000019000906948006840F4803067490860F2
:1028B00000BF6648006800F4003000900198401C9A
:1028C0000190009818B90198B0F5805FF1D15F4888
:1028D000006800F4003010B10120009001E00020F9
:1028E00000900098012833D1584840685749486003
:1028F0000846406848600846406840F48060486088
:102900000846406820F47C1048600846406840F45F
:10291000741048600846006840F08070086000BF8E
:102920004A48006800F000700028F9D04748406825
:1029300020F00300454948600846406840F0020026
:10294000486000BF4148406800F00C000828F9D1F9
:102950000CBD10B5FFF7A2FF10BD10B53B480068D5
:1029600040F001003949086008464068384908408D
:1029700036494860084600683649084033490860CF
:102980000846006820F4802008600846406820F46B
:10299000FE0048604FF41F008860FFF7DAFF4FF039
:1029A00000602D49086010BD30B5002100200022D4
:1029B0000023264C646804F00C0121B1042906D0E0
:1029C000082932D107E0254C254D2C6031E0234CFD
:1029D000234D2C602DE01D4C646804F470101B4CDA
:1029E000646804F48032022404EB9040112800D182
:1029F000122022B91B4C4443194D2C600DE0134C9E
:102A0000646804F4003424B1164C4443144D2C6023
:102A100003E0124C4443124D2C60012B04D1104CA6
:102A2000246864080E4D2C6003E00C4C0C4D2C60A7
:102A300000BF00BF054C6468C4F303140A4D295D50
:102A4000074C2468CC40064D2C6030BD001002407D
:102A50000000FFF0FFFFF6FE08ED00E000127A0034
:102A60001C00002000093D002000002010B5044695
:102A70004FF40070FE490860802008602146FD4840
:102A800000F0FCFA4FF40070F949091F086010BD0E
:102A900010B504464FF40070F54908608020091F06
:102AA00008602146F34800F0E9FA4FF40070F0495D
:102AB000091F086010BD10B54FF40070EC490860A4
:102AC0008020091F08600021EA4800F0E8FAFF2191
:102AD000E84800F0D3FA04460121E64800F0DFFAA6
:102AE0004FF40070E249091F0860204610BD70B520
:102AF00005460C462846FFF7B9FFE0B2FFF7C8FFCE
:102B000070BD10B504462046FFF7B0FFFFF7D3FFB6
:102B100010BD10B5D849087AFFF7A8FF10BD10B551
:102B2000D549887AFFF7A2FF10BD10B504464FF4CF
:102B30000070CF4908608020091F08602112CD482D
:102B400000F09CFAE1B2CB4800F098FA4FF4007024
:102B5000C749091F086010BD70B54FF40070C44923
:102B6000086080200860C448817AC24800F086FA74
:102B70000021C04800F093FA8020BD49091F086079
:102B8000FF21BC4800F07AFAFF21BA4800F076FA3B
:102B90000446FF21B74800F071FA05460121B54807
:102BA00000F07DFA4FF40070B149091F08604FF63C
:102BB000FF7000EA04242C43204670BD2DE9F0414B
:102BC00004460D4616461F46AB49087BFFF74EFFED
:102BD0002012FFF75DFFE0B2FFF75AFF3012FFF758
:102BE00057FFF0B2FFF754FFA349887BFFF73EFF82
:102BF0002812FFF74DFFE8B2FFF74AFF3812FFF740
:102C000047FFF8B2FFF744FFFFF783FFBDE8F0810D
:102C100070B504460D462B46224629462046FFF74E
:102C2000CDFF70BD70B504460D4629462046FFF71E
:102C3000EFFF92480088FFF778FF70BD70B504463B
:102C40000D4629462046FFF7E3FFFFF785FF0646BE
:102C5000304670BD70B5044687484088401E83B238
:102C600085480088401E82B200210846FFF7A6FF73
:102C70004FF400707E4908608020091F086000251D
:102C80000FE0002608E021127A4800F0F7F9E1B2DF
:102C9000784800F0F3F9761C77480088B042F2D803
:102CA0006D1C75484088A842EBD84FF400707049FD
:102CB000091F086070BD08B50121082001F0B7F9AF
:102CC0004FF47070ADF8000003208DF80200102062
:102CD0008DF8030069466648143800F0BFFD0120F6
:102CE0006749086008BD10B54FF4807060490860FE
:102CF000642001F0E4FE4FF480705D49091F086014
:102D0000322001F0DCFE10BD10B504462A205A49DD
:102D100088812B20C8812C2008812E2048812046C4
:102D2000E11704EB91718910A4EB8101524A917172
:102D30001046807930B1012810D002281AD003281B
:102D400030D123E04FF4A0704B4908804FF4F0706D
:102D5000488048213620FFF7CAFE24E04FF4F07087
:102D6000454908804FF4A070488028213620FFF79D
:102D7000BEFE18E04FF4A0703F4908804FF4F07099
:102D8000488088213620FFF7B2FE0CE04FF4F07047
:102D9000394908804FF4A0704880E8213620FFF7B9
:102DA000A6FE00E000BF00BF10BD10B500F08AF91C
:102DB000FFF781FFFFF797FF1120FFF757FE7820FD
:102DC00001F07DFE3620FFF751FE4820FFF760FE40
:102DD0003A20FFF74BFE5520FFF75AFEF020FFF791
:102DE00045FEC320FFF754FEF020FFF73FFE96207C
:102DF000FFF74EFEB420FFF739FE0120FFF748FE33
:102E0000B720FFF733FEC620FFF742FEC020FFF7D2
:102E10002DFE8020FFF73CFE4520FFF739FEC12044
:102E2000FFF724FE1320FFF733FEC220FFF71EFE3C
:102E3000A720FFF72DFEC520FFF718FE0A20FFF799
:102E400027FEE820FFF712FE4020FFF721FE8A2030
:102E5000FFF71EFE0020FFF71BFE0020FFF718FE05
:102E60002920FFF715FE1920FFF712FEA52009E023
:102E7000140C0140003001406C00002030000020A4
:102E800098812142FFF704FE3320FFF701FEE02086
:102E9000FFF7ECFDD020FFF7FBFD0820FFF7F8FD62
:102EA0000F20FFF7F5FD0620FFF7F2FD0620FFF7E4
:102EB000EFFD3320FFF7ECFD3020FFF7E9FD332075
:102EC000FFF7E6FD4720FFF7E3FD1720FFF7E0FDE2
:102ED0001320FFF7DDFD1320FFF7DAFD2B20FFF7AE
:102EE000D7FD3120FFF7D4FDE120FFF7BFFDD02053
:102EF000FFF7CEFD0A20FFF7CBFD1120FFF7C8FD3D
:102F00000B20FFF7C5FD0920FFF7C2FD0720FFF7E3
:102F1000BFFD2F20FFF7BCFD3320FFF7B9FD472091
:102F2000FFF7B6FD3820FFF7B3FD1520FFF7B0FD22
:102F30001620FFF7ADFD2C20FFF7AAFD3220FFF78A
:102F4000A7FDF020FFF792FD3C20FFF7A1FDF02048
:102F5000FFF78CFD6920FFF79BFD782001F0AFFDA6
:102F60002120FFF783FD2920FFF780FD0020FFF7D8
:102F7000CBFE4FF6FF70FFF76DFE10BD38B5002099
:102F80000090F020FFF772FDC320FFF781FDF020D5
:102F9000FFF76CFD9620FFF77BFD4FF4007034497E
:102FA000086001243BE0802031490860FB21314862
:102FB00000F064F880202E49091F086004F1100019
:102FC000C1B22C4800F05AF8802029490860D3216A
:102FD000284800F053F80021264800F060F88020CF
:102FE0002349091F0860FF21224800F047F8611EAD
:102FF0000DF8010001211F4800F051F880201C4904
:103000000860FB211B4800F039F880201849091F8F
:1030100008600021174800F031F8601CC4B2042C8D
:10302000C1DB4FF400701249091F0860F020FFF760
:103030001DFD3C20FFF72CFDF020FFF717FD692058
:10304000FFF726FD9DF801000B498880084680881F
:103050004FF6FF7101EA0020074988800846808802
:103060009DF802100843044988800846808838BDCE
:10307000140C0140003001406C000020024600BFEB
:10308000108900F002000028FAD0918100BF108959
:1030900000F001000028FAD09089C0B27047028881
:1030A0004FF6C7731A400280012902D102880280BC
:1030B00003E0028842F018020280028842F04002D7
:1030C0000280704700B587B00121052000F0AFFFF6
:1030D000A020ADF8040003208DF8060018208DF81C
:1030E000070001A91C4800F0B9FB4020ADF804001E
:1030F00048208DF8070003208DF8060001A9164826
:1031000000F0ACFB0121080300F091FF0020ADF8B6
:1031100008004FF48270ADF80A000020ADF80C00F2
:103120000220ADF80E000120ADF810004002ADF80D
:1031300012000020ADF81400ADF816000720ADF81D
:10314000180002A9054801F00DF90121034801F01A
:10315000ADF907B000BD000000080140003001409B
:1031600010B500F09CF908B1012010BD02480349D8
:1031700048600020F9E700006F35000838000020A3
:1031800010B5012001F077FC10BD08B501210C201D
:1031900000F04DFF4FF40070ADF8000010208DF8E6
:1031A000030003208DF8020069468C4800F056FBAE
:1031B0002020ADF800006946894800F04FFB01204F
:1031C000884908608849C1F8A40108BD10B5834842
:1031D000001D006820F0F0008049091D08600846C5
:1031E000006840F030000860012080490860804994
:1031F000C1F89401FFF7C4FF00207C490860FFF785
:10320000BFFF00207A49C1F8940110BD10B5734882
:10321000001D006820F0F0007049091D0860084694
:10322000006840F03000086000206E4908606E4978
:10323000C1F8A401FFF7A4FF01206A490860FFF765
:103240009FFF01206849C1F8A40110BD10B50024FA
:103250006248001D006820F0F0006049091D086008
:103260000846006840F08000086001205F4908605F
:1032700001F001FC01205E49C1F8940101F0FBFB63
:1032800007E0601CC4B2FA2C03DDFFF7BFFF01208A
:1032900010BD5648803800680028F2D151490860B6
:1032A00000BFF5E710B500204E4908604B48001DEF
:1032B000006820F0F0004949091D086008460068D0
:1032C00040F03000086000204749C1F8A401FFF732
:1032D00057FF012043490860FFF752FF002044498F
:1032E000C1F8940110BD10B500203E4908603B486C
:1032F000001D006820F0F0003849091D08600846EC
:10330000006840F03000086001203749C1F8A4018E
:10331000FFF736FF012033490860FFF731FF002037
:103320003349C1F8940110BD70B504462B48001D07
:10333000006820F0F0002949091D0860084600686F
:1033400040F030000860002026490860002511E0A8
:10335000E009264908606006040E01202449C1F8EE
:103360009401FFF70DFF00201E490860FFF708FFDA
:10337000681CC5B2082DEBDB70BD70B50546002496
:103380001648001D006820F0F0001449091D08606F
:103390000846006840F080000860002613E0002026
:1033A00010490860032001F066FB01201049C1F8B4
:1033B00094016006040E0D488038006808B1601C56
:1033C000C4B2701CC6B2082EE9DB15B9FFF78BFF3B
:1033D00001E0FFF767FF204670BD000000080140D4
:1033E000000C01409481214200002142A4012142AD
:1033F000008021422DE9F04105460E4617464FF068
:103400000008FFF7E3FE7020FFF78EFFFFF71EFFB7
:10341000E8B2FFF789FFFFF719FF00240BE0305DEA
:10342000FFF782FFFFF712FF8046B8F1000F00D0D0
:1034300003E0601CC4B2BC42F1DB00BFFFF7E6FE54
:103440004046BDE8F0812DE9F04106460F4615469D
:10345000FFF7BCFE7020FFF767FFFFF7F7FEF0B243
:10346000FFF762FFFFF7F2FEFFF7B0FE7120FFF7F4
:103470005BFFFFF7EBFE00240BE0691EA14201D0C9
:10348000012100E000210846FFF777FF3855601C56
:10349000C4B2AC42F1DBFFF7B9FEBDE8F0811CB568
:1034A0000121042000F0C3FD4FF48060ADF800005E
:1034B00010208DF8030003208DF802006946A5480E
:1034C00000F0CCF94FF48061A24800F098FA4FF474
:1034D0008070ADF8000048208DF8030069469D48D3
:1034E00000F0BCF94FF480719A4800F088FAFFF7B9
:1034F0004CFE0020984908600A2001F0E0FA012003
:103500009649C1F8A8014FF4FA7001F0D8FA0122E7
:1035100001A9A820FFF797FF9DF80400112801D00A
:1035200001201CBD022201A99F20FFF78CFF9DF8FE
:103530000400262801D00120F3E79DF8050048B1DA
:103540009DF80500012805D09DF80500022801D04E
:103550000120E6E7012201A9A320FFF774FF9DF8EF
:103560000400642801D00120DBE70020D9E77CB506
:10357000002400267A480078401C794908700846E3
:1035800000780A2190FBF1F201FB120018B1744897
:1035900000780A287EDA012269460220FFF753FFED
:1035A0009DF80000002875D09DF800000328F1DA8E
:1035B0009DF80010FF208840C5B2E843C0B240F03B
:1035C000C00068490874002492E0674931F814008B
:1035D000042201A9FFF737FF6248007C0121A140C6
:1035E000084000287DD06148807930B101281DD085
:1035F000022838D0032878D158E09DF805009DF8BE
:10360000041001F00F0100EB01205649083121F8A8
:1036100014009DF807009DF8061001F00F0100EB63
:10362000012150480C3020F814105EE09DF8050090
:103630009DF8041001F00F0100EB01204B4949886F
:10364000081A81B247480C3020F814109DF8070082
:103650009DF8061001F00F0100EB012041490831EF
:1036600021F8140041E09DF805009DF8041001F0D8
:103670000F0100EB01203D490988081A81B2394841
:10368000083020F814109DF807009DF8061001F08E
:103690000F0100E03BE000EB012034494988081AA3
:1036A00081B230480C3020F814101EE09DF805005F
:1036B0009DF8041001F00F0100EB012029490C31A5
:1036C00021F814009DF807009DF8061001F00F0185
:1036D00000EB012025490988081A81B221480830E9
:1036E00000E003E020F8141000BF00BF601CC4B26B
:1036F000022CFFF66AAF01261A48008920B9194842
:10370000808908B9002000900020154908709DF8B4
:103710000000A8B91348007C00F0800030B11148C7
:10372000007C20F080000F49087409E04FF6FF701C
:103730000C49088188810846007C00F0E00008748C
:1037400007480078F02802DD0A2005490870304655
:103750007CBD000000080140A80121420000214278
:103760004C00002038000020A07500086C000020EC
:103770000E494FF44070A1F8B0010D48C16811F036
:10378000010FFBD10B4880470B480047FEE7FEE7DF
:10379000FEE7FEE7FEE7FEE7FEE7FEE7FEE7FEE701
:1037A00006480749074A084B7047000000F0FF1F12
:1037B000002002405B290008FD000008C001002035
:1037C000C0070020C0030020C003002010B504463D
:1037D000F948844208D10121042000F042FC002174
:1037E000042000F03EFC2EE0F448844208D1012180
:1037F000082000F036FC0021082000F032FC22E016
:10380000EF48844208D10121102000F02AFC002159
:10381000102000F026FC16E0EA48844208D101217D
:10382000202000F01EFC0021202000F01AFC0AE0FD
:10383000E548844207D10121402000F012FC00211C
:10384000402000F00EFC10BD10B50121084600F02C
:1038500008FC0021012000F004FC10BD2DE9F0411E
:10386000024600250026002000230024002791F8AE
:1038700003C00CF00F0591F803C00CF0100CBCF164
:10388000000F03D091F802C04CEA0505DFF830C301
:10389000624505D1B1F800C04FEA6C3CA1F800C008
:1038A00091F800C0BCF1000F31D0146800202BE06B
:1038B0004FF0010C0CFA00F3B1F800C00CEA03065B
:1038C0009E4220D183004FF00F0C0CFA03F7BC434B
:1038D00005FA03FC4CEA040491F803C0BCF1280F7C
:1038E00006D14FF0010C0CFA00FCC2F814C00AE03B
:1038F00091F803C0BCF1480F05D14FF0010C0CFA50
:1039000000FCC2F810C0401C0828D1D31460B1F8E4
:1039100000C0BCF1FF0F34DD546800202EE000F140
:10392000080C4FF0010808FA0CF3B1F800C00CEADB
:1039300003069E4221D183004FF00F0C0CFA03F7CF
:10394000BC4305FA03FC4CEA040491F803C0BCF143
:10395000280F05D100F1080C08FA0CF8C2F8148001
:1039600091F803C0BCF1480F07D100F1080C4FF0EB
:10397000010808FA0CF8C2F81080401C0828CED3C1
:103980005460BDE8F0814FF6FF7101800221817023
:103990000421C170704702460020894B9A4200D131
:1039A000491393680B400BB1012000E000207047E1
:1039B0000146834A914205D18A684FF6FF7303EAB4
:1039C000423001E08A6890B27047024600207C4B8A
:1039D0009A4200D14913D3680B400BB1012000E09B
:1039E000002070470146764A914205D1CA684FF6D9
:1039F000FF7303EA423001E0CA6890B27047704A30
:103A0000904200D14913016170476D4A904200D144
:103A10004913416170476A4B984200D149130AB17A
:103A2000016100E041617047654A904200D149134D
:103A3000C16070474FF48032614B984200D1491306
:103A40000A438261816182618269826970470246AC
:103A500000205E4B18684FF68073184040EA021051
:103A600008435A4B1860704730B15849096841F013
:103A70008001564A116005E05449096821F080012F
:103A8000524A11607047F0B50D4600220023002114
:103A9000002400F00046B6F1004F02D14B4EF16910
:103AA00005E04A4E71684E0861F30C063146C0F3DA
:103AB000034482B200F00046B6F1004F1BD100F47F
:103AC0004016B6F5401F06D104F11006032707FA89
:103AD00006F3994330E000F48016B6F5801F04D158
:103AE000032606FA04F3994326E0460D360102FA4E
:103AF00006F6B14320E000F44016B6F5401F08D1A9
:103B000021F07061314E766826F070662F4F7E602E
:103B100012E000F48016B6F5801F06D1032606FADF
:103B200004F3994341F0706106E0460D360102FA54
:103B300006F6B14341F0706125B1460D360102FA37
:103B400006F6314300F00046B6F1004F02D11F4E99
:103B5000F16101E01D4E7160F0BD30B50022022818
:103B600002D1A1F10D03D9B28B071C0F0F2303FA69
:103B700004F2164B08338C1053F824309343134C43
:103B800008348D1044F8253023468C1053F8244017
:103B90008B071B0F00FA03F31C430C4B08338D10EB
:103BA00043F8254030BD98B10849496841F4000107
:103BB000064A516012E0000000080140000C01407C
:103BC00000100140001401400018014000000140B5
:103BD0000349496821F40001014A5160704700001F
:103BE0000000014031490143314A1160704770B50E
:103BF000002100230F22C47804B32D4C246804F460
:103C0000E064C4F5E064210AC1F10403CA404478C9
:103C100004FA03F18478144021430901254C067805
:103C2000A155047804F01F050124AC4005786D11FE
:103C3000AD0005F1E025C5F8004109E0047804F085
:103C40001F050124AC401C4D0678761145F826402E
:103C500070BD1A4A0A400243154B1B1F1A60704779
:103C600039B1134A121D12680243114B1B1D1A6011
:103C700006E00F4A121D126882430D4B1B1D1A608D
:103C80007047042808D14FF0E021096941F0040190
:103C90004FF0E022116107E04FF0E021096921F0C7
:103CA00004014FF0E0221161704700000000FA05A6
:103CB0000CED00E000E400E080E100E080FFFF1F89
:103CC000F948006840F00100F7490860084640687C
:103CD000F6490840F449486008460068F44908403D
:103CE000F14908600846006820F480200860084612
:103CF000406820F4FE0048604FF41F008860704761
:103D0000E949096821F48031E74A116011460968E0
:103D100021F480211160B0F5803F03D0B0F5802FF1
:103D20000ED106E0E049096841F48031DE4A1160B5
:103D300007E0DD49096841F4A021DB4A116000E099
:103D400000BF00BF704710B50146002200230020CD
:103D50004A11012A02D1D44C236806E0022A02D17A
:103D6000D14C236A01E0D04C636A01F01F020124A8
:103D700094401C400CB1012000E0002010BD38B57B
:103D8000002000900024002500BF3120FFF7DBFF5A
:103D900005460098401C00900098B0F5805F01D067
:103DA000002DF2D03120FFF7CEFF08B1012400E052
:103DB0000024204638BD01460020BB4A106820F090
:103DC000F80040EAC1001060704730B1B649096898
:103DD00041F00101B44A116005E0B349096821F0DE
:103DE0000101B14A1160704702460020AE4B58688D
:103DF00020F47C1042EA01031843AB4B5860704733
:103E000030B1A949096841F08071A74A116005E005
:103E1000A549096821F08071A34A116070470146E5
:103E20000020A14A506820F003000843506070470A
:103E30009D48406800F00C007047014600209A4AF7
:103E4000506820F0F00008435060704701460020A1
:103E5000954A506820F4E06008435060704701467E
:103E60000020914A506820F4605040EAC100506040
:103E7000704729B18C4A527A02438B4B5A7204E044
:103E8000894A527A8243884B5A72704786494968F8
:103E900021F44001844A51601146496841EA805149
:103EA00051607047014600207F4A506820F440402E
:103EB00008435060704700217B4A203211707A4AD3
:103EC00082F82010012802D004280AD104E0012140
:103ED000754A2032117005E00521734A20321170B5
:103EE00000E000BF00BF704730B16F49496A41F040
:103EF00001016D4A516205E06B49496A21F00101F7
:103F0000694A516270476849096A0143664A116209
:103F1000704730B16449096A41F40041624A116254
:103F200005E06149096A21F400415F4A1162704766
:103F300070B5002100220024002300255A4E766827
:103F400006F00C0121B1042905D0082934D105E07F
:103F5000584E066033E0574E066030E0524E7668A9
:103F600006F47012504E766806F48034022606EB92
:103F70009242112A00D1122264B94F4E366806F0DF
:103F800010061EB14B4E564306600FE04B4E564393
:103F900006600BE0444E766806F400361EB1474ECC
:103FA0005643066002E0434E56430660012D02D19F
:103FB00006687608066002E03E4E066000BF00BF5D
:103FC000394E766806F0F00109093D4E735C0668CB
:103FD000DE404660344E766806F4E061090A384EE9
:103FE000735C4668DE4086602F4E766806F460514A
:103FF000C90A334E735C4668DE40C6602A4E766856
:1040000006F44041890B2F4E735CC668B6FBF3F68D
:10401000066170BD29B1244A52690243224B5A619C
:1040200004E0214A526982431F4B5A61704729B10B
:104030001D4A926902431C4B9A6104E01A4A926934
:104040008243194B9A61704729B1174AD2690243DA
:10405000154BDA6104E0144AD2698243124BDA61EB
:10406000704729B1104AD26802430F4BDA6004E06E
:104070000D4AD26882430C4BDA60704729B10A4A74
:1040800012690243084B1A6104E0074A126982432D
:10409000054B1A617047B8B10349096A41F4803190
:1040A000014A116216E00000001002400000FFF01B
:1040B000FFFFF6FE00127A000038024000093D00C2
:1040C0004D0000205D0000209149096A21F48031F3
:1040D0008F4A1162704730B18D49096841F400215F
:1040E0008B4A116005E08A49096821F40021884A59
:1040F000116070478649C87170478548406A40F032
:10410000807083494862704701460020804A926867
:104110000A400AB1012000E0002070477C49887203
:104120007047024600207A4BD86A7A4B184042EA20
:1041300001031843764BD862704701460020744A49
:10414000D06A20F0F0000843D0627047014600209A
:104150006F4AD06A20F470600843D062704730B173
:104160006B49096841F08061694A116005E068495E
:10417000096821F08061664A11607047014600209D
:10418000634AD06A20F470400843D062704730B16F
:104190005F49096841F080515D4A116005E05C4962
:1041A000096821F080515A4A11607047584949689E
:1041B00021F44001564A51601146496841EA805154
:1041C000516070475249C96A21F40031504AD162A6
:1041D0001146C96A41EA4041D16270474C49C96AF7
:1041E00021F480214A4AD1621146C96A41EA8041DC
:1041F000D162704729B1464A926A0243444B9A629F
:1042000004E0434A926A8243414B9A62704730B15C
:104210003F49496841F000413D4A516005E03C4951
:10422000496821F000413A4A516070473849C96AEB
:1042300021F40021364AD1621146C96A41EAC041DF
:10424000D16270473249C96A21F44011304AD162C3
:104250001146C96A41EA0051D162704730B12C4918
:10426000C96A41F480012A4AD16205E02849C96A35
:1042700021F48001264AD16270472549C96A21F09C
:10428000E061234AD1621146C96A41EA0061D16204
:1042900070471F49C96A21F000611D4AD162114669
:1042A000C96A41EAC061D16270471949C96A21F0FF
:1042B0004051174AD1621146C96A41EA0071D16280
:1042C000704730B11249C96A41F08041104AD16249
:1042D00005E00F49C96A21F080410D4AD16270475B
:1042E0000B49C96A21F00041094AD1621146C96AE5
:1042F00041EAC071D16270470549496821F0805197
:10430000034A51601146496841EA007151607047A3
:1043100000100240F0FFFEFF10B50446BD48844285
:1043200008D101218014FFF79CFE0021A014FFF7A3
:1043300098FE16E0B848844208D101210014FFF726
:104340009DFE00212014FFF799FE0AE0B348844245
:1043500007D10121C013FFF791FE0021E013FFF701
:104360008DFE10BD10B50022028802F441520B8868
:104370004C8823438C882343CC8823430C892343D4
:104380004C8923438C892343CC8923431A430280DD
:10439000838B4FF2FF74234083830B8A038210BD0B
:1043A0002DE9F04F85B005460C464FF00009022775
:1043B0004FF000084FF0010B0026B246A88B4FF2D9
:1043C00040010840A88302202884B5F81C90A0680A
:1043D000022801D100BF38E0A08810B94FF0010BCE
:1043E00001E04FF0020B8C48854200D100E000BF95
:1043F0006846FFF79DFDDDF800A0E088B0F5007F7E
:104400000AD14FEA1A2000EB80004000A168B0FBFF
:10441000F1F0401D86B20BE04FEA4B10BAFBF0F012
:1044200000EB80004000A168B0FBF1F0401D86B2B7
:104430000A20B6FBF0F606F00108A6EB0800C0F370
:104440004F074FF6FF7000EA0828022F01DBFF2F0D
:1044500002DD02274FF00008E08840EA08003843F8
:104460002884A088A18908436188084321880843DB
:1044700040F4006040EA0909A5F81C9005B0BDE8C9
:10448000F08F0021018041808180C1800181818184
:10449000C181072101827047002101804180818014
:1044A000C1800221816000218181704721B1028891
:1044B00042F04002028004E002884FF6BF731A40C7
:1044C0000280704721B1828B42F48062828304E0D3
:1044D000828B4FF6FF331A408283704730B5002439
:1044E00000230C110125A540ABB21AB185881D43EC
:1044F000858002E085889D43858030BD1AB1838820
:104500000B43838002E083888B43838070478181E3
:1045100070470146888970474FF6FF62914204D088
:10452000028842F48072028004E002884FF6FF6342
:104530001A400280704721B1828842F004028280D2
:1045400004E082884FF6FB731A408280704702882D
:104550004FF2FF731A40028002880A4302807047BC
:10456000018841F480510180704721B1028842F4F2
:104570000052028004E002884DF6FF731A40028068
:10458000704702460020012901D0108B00E0908A7C
:1045900070470146088A7047B1F5804F04D1028800
:1045A00042F48042028004E002884BF6FF731A4016
:1045B000028070470246002013890B400BB1012096
:1045C00000E000207047CA4302817047F0B5024600
:1045D000002000240023002501F00F070126BE4023
:1045E000B4B20B1101269E40B3B2968806EA0305C9
:1045F0001689264016B10DB1012000E00020F0BD63
:1046000010B5002201F00F040123A3409AB2D34356
:10461000038110BD0030014000380040003C0040E4
:1046200010B50446F948844209D101218803FFF7F7
:1046300018FD00214FF48040FFF713FD56E0F448C9
:10464000844209D101214804FFF718FD00214FF4ED
:104650000030FFF713FD49E0EE48844209D1012103
:104660008804FFF70BFD00214FF48020FFF706FDC3
:104670003CE0E948844209D10121C804FFF7FEFC6F
:1046800000214FF40020FFF7F9FC2FE0E3488442BB
:1046900009D101210805FFF7F1FC00214FF480103A
:1046A000FFF7ECFC22E0DE48844208D101214020E3
:1046B000FFF7E4FC00214020FFF7E0FC16E0D948BA
:1046C000844208D101218020FFF7D8FC00218020FE
:1046D000FFF7D4FC0AE0D448844207D101218015B9
:1046E000FFF7CCFC0021A015FFF7C8FC10BD2DE999
:1046F000F04786B005460E460024A24600BFA146FC
:1047000000272F462C8A4CF6FF700440F0880443A3
:104710002C82AC894EF6F3100440B08831890843EE
:10472000718908430443AC81AC8A4FF6FF400440D2
:10473000B0890443AC8201A8FFF7FAFBB348874273
:1047400002D1DDF810A001E0DDF80CA0A88900F48A
:10475000004040B10AEBCA0000EB0A103168490082
:10476000B0FBF1F807E00AEBCA0000EB0A10316871
:104770008900B0FBF1F86420B8FBF0F004012009D7
:10478000642101FB1089A88900F4004040B1322067
:1047900000EBC900B0FBF1F000F00700044308E0B3
:1047A000322000EB09106421B0FBF1F000F00F00A3
:1047B00004432C8106B0BDE8F0874FF41651016028
:1047C00000218180C18001810C21418100218181F2
:1047D000704710B502460020108A4FF2FF031840C0
:1047E0000B884C8823438C882343CC88234318436D
:1047F000108210BD0021018041808180C1807047FE
:1048000021B1828942F40052828104E082894DF60E
:10481000FF731A4082817047F0B5034600240026DA
:10482000002500201846C1F3421401F01F0601279D
:1048300007FA06F5012C01D10C3004E0022C01D15D
:10484000103000E014301AB107682F43076002E00F
:104850000768AF430760F0BD1AB1838A0B438382B8
:1048600002E0838A8B4383827047028A4FF6F0739B
:104870001A400282028A0A430282704782894FF2FA
:10488000FF731A40828182890A438281704721B175
:10489000828942F00202828104E082894FF6FD7330
:1048A0001A4082817047028A4FF6DF731A400282F3
:1048B000028A0A430282704721B1028A42F480428E
:1048C000028204E0028A4BF6FF731A4002827047AC
:1048D000C1F308028280704701468888C0F308004F
:1048E0007047818941F0010181817047028BD2B20A
:1048F0000283028B42EA012202837047028B02F498
:104900007F420283028B0A430283704721B1828A6D
:1049100042F02002828204E0828A4FF6DF731A405E
:104920008282704721B1828A42F01002828204E0C2
:10493000828A4FF6EF731A408282704721B1828AD1
:1049400042F00802828204E0828A4FF6F7731A402E
:104950008282704721B1828942F40042828103E061
:104960008289C2F30E028281704721B1828A42F4A9
:104970000062828204E0828A4FF2FF731A408282D0
:104980007047828A4FF6FB731A408282828A0A43FA
:104990008282704721B1828A42F00202828204E060
:1049A000828A4FF6FD731A408282704702460020C9
:1049B00013880B400BB1012000E000207047CA4370
:1049C0000280704770B502460B4600240021002586
:1049D0000020C3F3421503F01F01012606FA01F17E
:1049E000012D02D19689314006E0022D02D1168AAE
:1049F000314001E0968A31401C12012606FA04F487
:104A00001688344091B18CB1012010E0003801408B
:104A10000044004000480040004C0040005000406E
:104A200000180040001C004000200040002070BD25
:104A300010B5002200230A1201249440A3B2DC43E3
:104A4000048010BD10B56FF00400FFF71AF94C4850
:104A500000684C49B0FBF1F04B49087008460078FB
:104A600000EB4001C1EBC0104FF6FF7101EAC0003E
:104A70004649088010BD0146434A12784A434FF028
:104A8000E0235A6100229A611A46126942F001023B
:104A90001A6100BF4FF0E022106900F001021AB164
:104AA00000F48032002AF5D04FF0E022126922F0A3
:104AB00001024FF0E0231A6100229A61704701461B
:104AC000324A12884A434FF0E0235A6100229A6129
:104AD0001A46126942F001021A6100BF4FF0E0224B
:104AE000106900F001021AB100F48032002AF5D0FA
:104AF0004FF0E022126922F001024FF0E0231A6128
:104B000000229A61704770B504460D4600BF4021EF
:104B10001F48FFF74BFF0028F9D0E1B21C48FFF710
:104B2000D7FE204670BD10B586B00446012144F280
:104B30000400FFF77CFA4FF40070ADF81400032076
:104B40008DF8160018208DF8170005A91148FEF7FA
:104B500085FE01940020ADF80800ADF80A00ADF81C
:104B60000C00ADF810000820ADF80E0001A90848AF
:104B7000FFF7BDFD01210648FFF742FE06B010BD5C
:104B80001C00002000127A00680000206A0000204B
:104B900000380140000801400FB41CB5074B06AABD
:104BA0007B4469460090059800F00BFA00206946A6
:104BB00000F01AFA1CBC5DF814FB0000450400006C
:104BC00070B5044685690068C10601D5302600E04D
:104BD0002026C00707D070BDD4E901213046904798
:104BE000206A401C20626D1EF6D570BD70B504466B
:104BF00085690078C00707D170BDD4E90121202064
:104C00009047206A401C20626D1EF6D570BD70B5BD
:104C10000C460546012A05D02878800600D5EA69A9
:104C2000002302E0012305E05B1C934202D2E05C1A
:104C30000028F9D1A869E618C01AA861286A1844A2
:104C400028622846FFF7BCFF04E0D5E9012114F8EB
:104C5000010B9047B442F8D32846FFF7C7FF70BD59
:104C600070B504460D4621461068AFF300802188D8
:104C7000090502D50F4A7A4402E00E4A7A440E3200
:104C8000002104F1240305E000F00F060009965D01
:104C90005E54491C0028F7D120780023000704D572
:104CA000702D02D009B1022311322046BDE87040B8
:104CB00000F029B92A2900002DE9F05F8946044651
:104CC0004FF0000ADFF824B1FB44C0F820A02046D2
:104CD000E168884700287DD0252806D0D4E9012145
:104CE0009047206A401C2062F1E700255F4620467D
:104CF000E16888472028064607DB312E05D2B8191F
:104D000010F8200C08B10543F1E7A80701D525F0FC
:104D10000405C4F81CA00027C4F818A02A2E09D046
:104D2000304600F0B7F938B304EB8708303EC8F8D6
:104D3000186019E059F8041B204604EB87029161C2
:104D4000E1688847012F064618D1E069002820DA7B
:104D500025F020051DE0D8F8180000EB800006EBD8
:104D600040003038C8F818002046E16888470646F9
:104D700000F090F90028EED1012F0AD02E2E08D194
:104D80002046E16888477F1C0646022F45F0200533
:104D9000C4DBA069002803DA404245F00105A061A8
:104DA000E80701D025F01005A6B1A6F141001928A9
:104DB00002D8203645F400654A4631462046256033
:104DC0004D46FBF7D5F960B1012807D0ED1D25F060
:104DD000070000E007E000F1080978E705F10409A1
:104DE00075E730467AE7206ABDE8F09F00290000A9
:104DF0000B4910B5A1F17C020A4CC2E937123721E8
:104E000006E000EB104342F82130074B00FB034063
:104E10000B1EA1F10101F4DC10BD0120E8E7000048
:104E2000F8000020E119D666CD0D010040EA01032B
:104E3000024630B59B0710D14FF0013400E008C2A4
:104E400008C91D1B9D4315EAC41FF8D013F0FF01CC
:104E500002F8011B0DD01B0AF8E711F8013B002BEB
:104E600002F8013B05D011F8013B002B02F8013B91
:104E7000F3D130BD10B5431C02E010F8011B71B135
:104E80008107FAD14FF0013202C88C1A8C4314EA20
:104E9000C211F9D0C01A0A0603D0C01E10BDC01A34
:104EA00010BD0A0401D0801E10BD0902FCD0401EB6
:104EB00010BD4FF0000200B51346944696462039C7
:104EC00022BFA0E80C50A0E80C50B1F12001BFF4C3
:104ED000F7AF090728BFA0E80C5048BF0CC05DF829
:104EE00004EB890028BF40F8042B08BF704748BF77
:104EF00020F8022B11F0804F18BF00F8012B7047EB
:104F00007047704770472DE9F0470D469946924625
:104F1000044600F124080168880604D5E06921F000
:104F20001001216000E00120A84201DD471B00E0E4
:104F30000027A1697A1902EB0900081AA0612078FC
:104F4000C00602D42046FFF73BFE002608E0D4E965
:104F500001211AF806009047206A401C761C206246
:104F60004E45F4DB2078C0060AD52046FFF728FE20
:104F700006E0D4E9012130209047206A401C2062DD
:104F8000381EA7F10107F4DC07E0D4E9012118F885
:104F900005009047206A401C2062281EA5F10105EB
:104FA000F3DC2046FFF722FE2078000602D502201F
:104FB000BDE8F0870120FBE701694A1C026108781F
:104FC000704700B58FB0CDE9013100210591054949
:104FD0007944CDE9031011466846FFF76DFE0FB026
:104FE00000BD0000E5FFFFFF0A6802F8010B0A6040
:104FF000704710B5436913B1AFF3008001E0FFF7CC
:1050000006FE012010BD127800F124010A70002272
:105010004A700122EDE711684FF0FF32E9E775466B
:1050200000F02CF8AE4605006946534620F0070014
:10503000854618B020B5FEF7B3FBBDE820404FF021
:1050400000064FF000074FF000084FF0000B21F072
:105050000701AC46ACE8C009ACE8C009ACE8C0093F
:10506000ACE8C0098D46704710B50446AFF3008028
:105070002046BDE81040FBF792B80000004870479A
:10508000600100207047000001491820ABBEFEE718
:105090002600020030380A2801D201207047002083
:1050A0007047000000000000000000000000000049
:1050B0000404040404040004000000140A0A0000AC
:1050C000000000000000000014143F140A3F0A0A08
:1050D000000000041E1505060C14150F0400000046
:1050E00012150D0A142C2A1200000000040A0A1ED0
:1050F0001515093600000002020100000000000042
:10510000000000201008080808080810200000020D
:105110000408080808080804020000000004150E2E
:105120000E150400000000000404041F0404040021
:10513000000000000000000000000002020100006A
:105140000000001F00000000000000000000000040
:105150000000000200000010080808040402020217
:10516000010000000E1111111111110E00000000BC
:10517000040604040404040E000000000E111108CB
:105180000402011F000000000E11100C1010110E7F
:1051900000000000080C0A0A091E081800000000A0
:1051A0001F01010F1010110E000000000E09010F69
:1051B0001111110E000000001F090804040404046A
:1051C000000000000E11110E1111110E0000000060
:1051D0000E1111111E10120E00000000000004003C
:1051E00000000004000000000000000400000004B3
:1051F0000400002010080402040810200000000031
:1052000000001F00001F0000000000020408102022
:1052100010080402000000000E111108040400042C
:10522000000000000E111915151D011E00000000E0
:1052300004040C0A0A1E1233000000000F12120EA2
:105240001212120F000000001E1101010101110EC7
:10525000000000000F1212121212120F00000000C4
:105260001F120A0E0A02121F000000001F120A0E6F
:105270000A020207000000001C1201013911120C81
:10528000000000003312121E121212330000000040
:105290001F0404040404041F000000003E08080862
:1052A000080808090700000037120A060A0A123720
:1052B00000000000070202020202223F000000007C
:1052C0001B1B1B1B15151515000000003B121616A5
:1052D0001A1A1217000000000E1111111111110EEF
:1052E000000000000F12120E020202070000000070
:1052F0000E1111111117190E180000000F12120EC5
:105300000A121237000000001E1101060810110FCA
:10531000000000001F1504040404040E0000000037
:10532000331212121212120C000000003312120A71
:105330000A0C0404000000001515150E0A0A0A0ADA
:10534000000000001B0A0A04040A0A1B00000000F7
:105350001B0A0A040404040E000000001F090804CC
:105360000402121F0000001C0404040404040404CA
:105370001C00000202020404080808100000000ECD
:1053800008080808080808080E0000040A000000C1
:10539000000000000000000000000000000000000D
:1053A000003F0004000000000000000000000000BA
:1053B0000000000C121C123C000000000302020E50
:1053C0001212120E000000000000001C1202021C4B
:1053D000000000001810101C1212123C0000000007
:1053E0000000000C121E021C000000003804041E05
:1053F0000404041E000000000000003C120C021E09
:10540000221C00000302020E1212123700000000DC
:10541000040000060404040E000000000800000C54
:1054200008080808080700000302023A0A0E1237AB
:1054300000000000070404040404041F000000002E
:105440000000000F15151515000000000000000FEA
:1054500012121237000000000000000C1212120C91
:10546000000000000000000F1212120E02070000E0
:105470000000001C1212121C103800000000001B5B
:1054800006020207000000000000001E020C101EB1
:10549000000000000004040E0404041800000000D2
:1054A0000000001B1212123C000000000000003738
:1054B000120A0C040000000000000015150E0A0A74
:1054C000000000000000001B0A040A1B000000008E
:1054D00000000037120A0C04040300000000001E44
:1054E0000804041E0000001808080804080808083A
:1054F000180008080808080808080808080800062E
:105500000404040804040404060002251800000032
:10551000000000000000000000000000000000008B
:105520000000000000000000000808080808080843
:1055300000001818000000486C2412000000000051
:105540000000000000000000002424247F1212123A
:105550007F12121200000000081C2A2A0A0C1828C8
:10556000282A2A1C080800000022251515152A588B
:105570005454542200000000000C1212120A762526
:105580002911916E000000060604030000000000CF
:105590000000000000000040201010080808080863
:1055A000081010204000000204080810101010100D
:1055B0001008080402000000000008086B1C1C6BA7
:1055C00008080000000000000000080808087F0824
:1055D00008080800000000000000000000000000B3
:1055E0000000060604030000000000000000FE00AA
:1055F00000000000000000000000000000000000AB
:105600000000060600000000804040202010100826
:1056100008040402020000000018244242424242F0
:10562000424224180000000000080E08080808087C
:105630000808083E00000000003C424242202010C2
:105640000804427E00000000003C42422018204036
:105650004042221C00000000002030282424222286
:105660007E20207800000000007E0202021A264000
:105670004042221C0000000000382402021A264288
:105680004242241800000000007E22221010080868
:105690000808080800000000003C42424224182488
:1056A0004242423C0000000000182442424264583A
:1056B0004040241C000000000000000018180000FA
:1056C00000001818000000000000000000080000A2
:1056D0000000000808040000004020100804020434
:1056E0000810204000000000000000007F000000C3
:1056F0007F0000000000000000020408102040208D
:105700001008040200000000003C42424640201005
:105710001000181800000000001C225A555555555D
:105720002D42221C00000000000808181414243C1C
:10573000224242E700000000001F2222221E2242D5
:105740004242221F00000000007C42420101010190
:105750000142221C00000000001F2242424242423D
:105760004242221F00000000003F4212121E12128D
:105770000242423F00000000003F4212121E12127D
:105780000202020700000000003C22220101017118
:105790002122221C0000000000E7424242427E42D9
:1057A000424242E700000000003E080808080808DE
:1057B0000808083E00000000007C101010101010B7
:1057C00010101010110F0000007722120A0E0A129A
:1057D00012222277000000000007020202020202E9
:1057E0000202427F000000000077363636362A2A51
:1057F0002A2A2A6B0000000000E346464A4A525219
:105800005262624700000000001C224141414141B8
:105810004141221C00000000003F424242423E0241
:105820000202020700000000001C224141414141E8
:105830004D53321C60000000003F4242423E1212B3
:10584000222242C700000000007C424202041820CD
:105850004042423E00000000007F49080808080856
:105860000808081C0000000000E742424242424291
:105870004242423C0000000000E74242222424143D
:105880001418080800000000006B494949495555A3
:10589000362222220000000000E7422424181818B3
:1058A000242442E700000000007722221414080894
:1058B0000808081C00000000007E212010100804C9
:1058C0000442423F00000078080808080808080859
:1058D00008080808780000000202040408080810FC
:1058E000102020204040001E10101010101010102A
:1058F000101010101E0000384400000000000000CE
:105900000000000000000000000000000000000097
:105910000000000000FF000608000000000000007A
:10592000000000000000000000000000003C427881
:10593000444242FC0000000000030202021A264218
:105940004242261A00000000000000000038440215
:1059500002024438000000000060404040784442A9
:10596000424264D80000000000000000003C427E7B
:105970000202423C0000000000F08808087E08088F
:105980000808083E0000000000000000007C222201
:105990001C023C42423C000000030202023A464222
:1059A000424242E700000000000C0C00000E080814
:1059B0000808083E000000000030300000382020B9
:1059C00020202020221E0000000302020272120A80
:1059D0001612227700000000000E080808080808C8
:1059E0000808083E0000000000000000007F9292BE
:1059F000929292B70000000000000000003B464277
:105A0000424242E70000000000000000003C424229
:105A10004242423C0000000000000000001B264201
:105A20004242221E020700000000000000784442AB
:105A30004242447840E000000000000000774C043F
:105A40000404041F0000000000000000007C42026B
:105A50003C40423E0000000000000008083E0808EC
:105A60000808083000000000000000000063424207
:105A7000424262DC000000000000000000E7422417
:105A800024140808000000000000000000EB494951
:105A90005555222200000000000000000076241866
:105AA0001818246E000000000000000000E74224E7
:105AB000241418080807000000000000007E2210CF
:105AC0000808447E000000C0202020202010202054
:105AD00020202020C00010101010101010101010E6
:105AE0001010101010100006080808080810080808
:105AF0000808080806000C32C20000000000000080
:105B0000000000000000C9EE000027FC140414A4EB
:105B1000811042084040104017FC2040E0E0215036
:105B200022482C4620400040DBDA110411241124C5
:105B300011241124FD2411241124112411241124D1
:105B40001D24E124422402040404CAD002000100FE
:105B500000007FFC0100010001003FF8210821083E
:105B6000210821082128211001000100C8AB0000F4
:105B70000000018002400430180860061FF901008F
:105B8000010001003FF80100010001007FFEB6AFF7
:105B90000000000000203E20007C002200227F2226
:105BA0001022102212221222224223423D82009C05
:105BB000B5E70000010001001FF0610C4104410441
:105BC0007FFC4104410441047FFC01000102010209
:105BD00001FCD7D3000000003FF8001000600080F7
:105BE000010000807FFE00400040002000200020D7
:105BF00018400780BCBC10201020102013FEFC2091
:105C00001020102015FC18843088D0481050102027
:105C1000105051882606CAF501000120011001101C
:105C20007FFC038005400540092011102108410434
:105C30008102010001000100D3D002000200FFFE3A
:105C4000040004000FF0081018102FF048108810FE
:105C50000FF00810081008500820CFDE00007BF875
:105C60004A08520853F8620852084BF84A444A4816
:105C70006A3052204210428843064200B9AB00808D
:105C8000048004800840084010202010420882064A
:105C900004000440082010203FF010100000CBBE8C
:105CA00000003FF8000800087FE8000800081F888F
:105CB00010881088108810881F881088002800100D
:105CC000BBB600800080FC8004FC050449082A4023
:105CD0001440104028A024A045108110020804049C
:105CE0000802D3AD00002080133C122402240224B9
:105CF000F2241224122412B4132812201020282077
:105D000047FE0000C4FA0900090011FC320454489F
:105D1000995011481244144411401080020051045B
:105D2000511290120FF0B4BF00000020102013FE9B
:105D3000202026244A247A241224222423FC7C2096
:105D4000002204227822003CC9AB000000000400BD
:105D50000FF0102020207FFC2084208420842084C9
:105D60003FF82000200220021FFECCEE00000000C1
:105D7000204023FE204079FC220423FC220423FC43
:105D8000220423FC3A0465FA01980204B3E40000FB
:105D9000010001007FFE02200410040808043FFCFB
:105DA000044204400440044208421042607EBED8CF
:105DB00000000000207E3E804880488048FE4882E7
:105DC0007F8208820C8214FA12842280218040FE95
:105DD000D0CE000000007F842208223022C02202A0
:105DE00022047FC8223022C222022204220822304A
:105DF0004040BBAD000000007FFE00000FF011101E
:105E00001110111051125FF25112511251124FF232
:105E100040027FFCD4B2000000007FFE47E248123F
:105E2000481247E24FF25012501251125112429250
:105E30004472580A3FFCCDBC000000003FFE440203
:105E400047F24C225362408243625E1A41824062B2
:105E5000430240C240223FFCC6AC0000004020404C
:105E6000204020403FFE2000200020003FE0201086
:105E700020102010201040104010CFD4000000004F
:105E80003FFC200420043FFC200420041FF824448D
:105E90001448144814480C5004407FFECABE000049
:105EA00000003FFC0000000000007FFE0080089022
:105EB0000888108810842084208240820780B2CB1A
:105EC0000000002008207FFE002000783F88110895
:105ED000089009207FFE018003400D30310C400204
:105EE000B5A500000010081004203FF8210421048B
:105EF0003FFC210421043FF801007FFE0100010066
:105F00000100D6D000000100010001003FFC210487
:105F1000210421042104210421043FFC010001008B
:105F200001000100D3A20000000008207FFE08202D
:105F3000092001003FF82108210821081FF4014031
:105F400002200C10700ECEC4000001000100008081
:105F50003F7C081008100410042002200240018039
:105F6000018002601C18E006D7DB00000000102052
:105F700011FE2202220249FC5800300013FE25289F
:105F8000792401240D24722202A2BACF000000005D
:105F9000018002400430180860061FF800001FF856
:105FA000200420042004200420041FF8C1C10000A4
:105FB000010001007FFE00003FF820083FF83FF895
:105FC000400647C24824082008221022603EB6C876
:105FD0000000000000803FFE44105FFC44104410AD
:105FE00043F040005FF84408423041C04360BC1EAB
:105FF000B2E20000000067C2145205520552C552B9
:10600000255205520552155217522282224244420D
:10601000483ECAD4000000002014101417FE0012DD
:106020000010601013F0109010901090149214EA69
:106030001F0A0006B3CC0000000019FE7202120213
:1060400012027DFC18001BFE3420502053FE10204D
:106050001020102013FED0F20000000000803FFE50
:10606000400047FC4208413040C05FFE4042404291
:106070004044404840404440B5F70000000023FE43
:10608000122202FA0222E22212FE1272128A128AEC
:10609000128A16BA1A421202040EB9E20000010076
:1060A000010411080908091009207FFE044004407A
:1060B00004400440084208421042607CB0E6000000
:1060C000000048FE4900490049007EFE41824144EB
:1060D0007944452845284510452846440382C8A8E8
:1060E00000001000100013FC7D0411041904188432
:1060F0003488504850501020105010881304140257
:10610000CBF9000000003F7C204020403E40227E32
:106110002244224422443E8420842084408441043A
:106120004204C6C100003FF8200820083FF82410B0
:1061300022202FF8222022203FFC2220422044202F
:1061400084200820C4BB04407FFC04401FF01010D2
:106150001FF010101FF00400FFFE11103FF8D116C1
:10616000115011200100D0FD2080108010FE010090
:10617000FE0021FC20243C2424A024A024BC24A034
:1061800024A04560553E8A00D7AA20202020202048
:10619000FDFC4020504093FEFC40108011FC1C048C
:1061A000F0885050102010101010BFAA00007FFC83
:1061B00008200820082008200820FFFE08200820CA
:1061C000082008201020102020204020D4B40000F7
:1061D00027FE1420144085FC450445FC150415FCDD
:1061E0002524E42024A829242A2230A00040D2BA61
:1061F0000080204017FE11208120423C424416645A
:1062000012942348E248223022202250228803069A
:10621000BEA70FE0082008200FE0082008200FE0AC
:1062200000007EFC428442847EFC428442847EFCE8
:106230004284CDF800007FFC400440044214529494
:106240004A54442444244A544A5452946104400415
:1062500040144008D5BE1020082008207E20003EB3
:1062600004204420442025FC290429040F04F104BF
:10627000410401FC0104B0B410401020102013FEB2
:10628000FA02144410401BFE3088D088110810D048
:106290001020105050882304BCFC201020103B7CA0
:1062A000211441FE7A14A27C2710F97C251025FECA
:1062B00022102A10350028FE0000D0A31040102024
:1062C000102011FEFC00108831043A0254885088D6
:1062D000905010501020105010881306D7BC014069
:1062E0004120212023FE022016201BFC1220222008
:1062F00023FCE2202220222023FE22000200B4A55B
:1063000020202020782049FC91247D2455245524E8
:106310007DFC552454207C28542457FE45028C00D3
:10632000C3FE1110111017FC1110FC0013F8120815
:1063300017F81A0833F8D04017FC10A011105208B3
:106340002406B6C10020202011FC1020002003FEEE
:10635000F002109410501110109013FE14281844DD
:1063600010820302BACD04000E007800087C0844B5
:10637000FF44084418441C442A442A444844887C66
:10638000084408000800D1D5100008FE7F10222024
:10639000147C7F44445448545254445448545154F7
:1063A0004228442488423082D6B5084008400FFC79
:1063B0001040104033F8320853F8920813F81208CE
:1063C00013F8120812081FFE1000C8DD02000100B9
:1063D0007FFE4002882411102288044008203018D3
:1063E000DFF61010101010101FF01010D6A70100CB
:1063F000010001007FFC0100010001003FF01010CE
:10640000082004400280010006C01830E00EB3D618
:1064100010201020102011FCFC20102013FE10086A
:10642000180833FED0081088104810085028201093
:10643000B5E302000200020003FC020002003FF08C
:106440002010201020103FF00000248822444244F5
:106450008004CCAC010001007FFC010002800440FC
:106460000A203118C00601000888488448124812E2
:1064700087F00000CAFD082049202A20083EFF447A
:106480002A44494488A41028FE2822104210642877
:1064900018283444C282D7D6020001007FFE400291
:1064A00080041FE0004000800100FFFE01000100A9
:1064B0000100010005000200CDCB03F822081208FC
:1064C00013F802080208F3F8124412281210128876
:1064D00013041204280047FE0000B3F60100010077
:1064E00021082108210821083FF8010801000100C6
:1064F00041044104410441047FFC0004C9EE000052
:10650000000000001000000800080C7FFC04401090
:1065100001C8A002186042301832231812C30014B8
:10652000030004030C047FF0080F80080B4078136D
:106530006018332018631818831C19030818030007
:10654000000300000000DBDA00000000000004107F
:106550000C04180C04108C04108C04108C04108C87
:1065600004D08C3F108C04108C04108C04108C040C
:10657000108C04108C04108C05F08C0E208C78206C
:106580008C20408C00808C01000C02000C0000006C
:10659000CAD0000000000000003000001800001801
:1065A0000800001C1FFFE000180000182007FFF083
:1065B00004182004182004182004182004182004AB
:1065C00018200418200418200418200418E00418C7
:1065D00040001800001800000000D6D000000000A5
:1065E0000000000000000000001800001800001863
:1065F000000018003FFFFE3018063018063018065D
:106600003018063018063FFFFE301806001800004C
:10661000180000180000180000180000000000001A
:1066200000000000CEC400000000000000000000D8
:106630003800001C00000600FFFFFF0600300600C7
:10664000300300600300600180C000C18000E300EF
:10665000003600001C0000770003C1E01E003C6013
:106660000007000000000000000000000000B2E28F
:1066700000000000000000000000000040000321B6
:10668000FF33398333118333019B33C19B33719BB8
:1066900033199B33019B33019B33119B3319B33364
:1066A000303033306C0330C6036383032E01BE00E9
:1066B0000000000000000000CAD40000000000003C
:1066C0000000000000004000D83000CE1800C21CBE
:1066D00000C001FFFF0000C0F800C01800C019FF93
:1066E000C01818401818601918601B18611E18315E
:1066F0001C1FB139F01910000F000000000000004D
:106700000000D7D6000000000006000000030000D3
:106710000000C0000001C0C0000107C00001FF0070
:10672000021FFE0007F01C0007C070000F00E00011
:106730000E03F0001C0FF0003C0F70003C00E00066
:106740001800C0000000C0000000C0000000600091
:1067500000002000000037000001FF00007FF8006B
:1067600007F830001F8030000080300000C030008B
:10677000006060000018E000000FC000000600008C
:1067800000000000CCE50000000000000000000058
:1067900000C0000000E0002001B800703FF8006178
:1067A000FFC000C3030001C60600038C06000308F7
:1067B0000C0006080C000E18183F1E101BF31F904B
:1067C0003F0700803C1C0190707C019060FE01A09E
:1067D000C3F801A00FD803A00818036000180340F5
:1067E000001803C000180380001803000018000000
:1067F0000018000000100000003000000030000011
:10680000000000000000B2E20000000000000000F4
:106810000000000000000000020C1008071FF80430
:1068200003BFF00201BC300303EC3003015C6003E2
:1068300000D8600300D860038098620361B8430702
:1068400071B14306313243063376C3063A64C70654
:106850003EECC0063E78C0063C3040067C70000628
:1068600078E060067BFFF006F7C00006E400000653
:1068700040000006000000060000007C00008FF0D1
:1068800000007C0000000000CAD4000000000000EE
:1068900000000000000000003F0000007F800000BA
:1068A0000180000000C0000000C0000000CE038096
:1068B00000CFFFC000DD41800FFE0007FFFC000C91
:1068C00000F000180FC03E19FF40F311BC60833088
:1068D0007FE003B1FE2003338020037000300360AB
:1068E00000100360001807C0000C07C000040780F8
:1068F0000002010000030000000100000000000091
:10690000000000000000000000000000FFFFFFFF8B
:10691000FFFFFFFFFFFFFFFFFFFFFFFFFFFFFFFF87
:10692000FFFFFFFFFFFFFFFFFFFFBEF7FFFFDEFFE1
:1069300038C6928C8E6B6E6B107C96AD3CE7FFFF79
:10694000FFFFFFFFFFFFFFFFFFFFFFFFFFFFFFFF57
:10695000FFFFFFFFFFFFFFFFFFFFFFFFFFFFFFFF47
:10696000FFFFFFFFFFFFFFFFFFFFFFFFFFFFFFFF37
:10697000FFFFFFFFFFFFFFFFFFFF5DEF159D4F6371
:106980006C420A328829461925194521E8318E6B57
:1069900038C6FFFFFFFFFFFFFFFFFFFFFFFFFFFF07
:1069A000FFFFFFFFFFFFFFFFFFFFFFFFFFFFFFFFF7
:1069B000FFFFFFFFFFFFFFFFFFFFFFFFFFFFFFFFE7
:1069C000FFFFFFFFFFFFFFFF36A51053104B515392
:1069D0000F4B6C3AE93167212519E410A3086200D6
:1069E0008308CB529AD6FFFFFFFFFFFFFFFFFFFF99
:1069F000FFFFFFFFFFFFFFFFFFFFFFFFFFFFFFFFA7
:106A0000FFFFFFFFFFFFFFFFFFFFFFFFFFFFFFFF96
:106A1000FFFFFFFF3CE77063B363B87CF56311438E
:106A20004D32EA2988212619051905190411041186
:106A3000E4108300A308728CFFFFFFFFFFFFFFFF3E
:106A4000FFFFFFFFFFFFFFFFFFFFFFFFFFFFFFFF56
:106A5000FFFFFFFFFFFFFFFFFFFFFFFFFFFFFFFF46
:106A6000FFFFDBDE4B3AF042356C544BB1322E2A3D
:106A7000EB21A9216719051904110411041104114E
:106A800004110519E4104200AF73FFFFFFFFFFFF81
:106A9000FFFFFFFFFFFFFFFFFFFFFFFFFFFFFFFF06
:106AA000FFFFFFFFFFFFFFFFFFFFFFFFFFFFFFFFF6
:106AB0005DEF09324C32104B8F324F2A2E2ACC19FF
:106AC000891989214719051904110411C410C4102A
:106AD000041104110411E41042003184FFFFFFFF90
:106AE000FFFFFFFFFFFFFFFFFFFFFFFFFFFFFFFFB6
:106AF000FFFFFFFFFFFFFFFFFFFFFFFFFFFFFFFFA6
:106B0000EC5247194C320B2AEC21EC210C22915B00
:106B1000EE4A061126190419E410E410A72966218B
:106B2000A308051904110411E4108200F7BDFFFF4A
:106B3000FFFFFFFFFFFFFFFFFFFFFFFFFFFFFFFF65
:106B4000FFFFFFFFFFFFFFFFFFFFFFFFFFFF35A579
:106B50008308882188218921AA218A216B42718C8E
:106B6000FFFF728C83080411C4082942FBDE5DEF2D
:106B7000EC5A83080411041104118308E831DFFF83
:106B8000FFFFFFFFFFFFFFFFFFFFFFFFFFFFFFFF15
:106B9000FFFFFFFFFFFFFFFFFFFFFFFFBEF7C73154
:106BA000C4102519261947194719A8298A52284AB5
:106BB00055ADFFFFE831A30805194D6B4D6BFFFF85
:106BC0007DEF4521C410041104110411620076AD5B
:106BD000FFFFFFFFFFFFFFFFFFFFFFFFFFFFFFFFC5
:106BE000FFFFFFFFFFFFFFFFFFFFFFFF96B5620004
:106BF0000411041905110519C4088B4AB6B55DEFD7
:106C0000F7BDFFFF8E6B62002942AA5A0842FFFFC0
:106C1000FFFFCC528308041104110411A308AD52E4
:106C2000FFFFFFFFFFFFFFFFFFFFFFFFFFFFFFFF74
:106C3000FFFF1CE7FFFFFFFFFFFFFFFF4E63620048
:106C4000041104110411E41062008E63FFFFFFFFC2
:106C5000FFFFFFFFCF730100F39C2C6396B5FFFF8E
:106C6000FFFF2D5B8300041104110411E410672160
:106C70003DEFFFFFFFFFFFFFFFFFFFFFF8BDB7B5D1
:106C80009EEFCB52B394FFFFFFFFDFFFE831A30875
:106C90000411041104110411A3084942FFF7FFF77E
:106CA000FFFFFFFF6A4A01007284FFFFFFFFFFF74B
:106CB000DFEF093AA30804110411041104110511AE
:106CC00018BEFFFFFFFFFFFFFFFFFFFFF07B62002B
:106CD000E831C731410035A5FFFF5DEF4621C41003
:106CE0000411041104110411E410A308769DFFF7A8
:106CF000FFFFB7ADA308A308C7319EE7FFF7FFF773
:106D000076A5A308E410041104110411051105115E
:106D100035A5FFFFFFFFFFFFFFFFFFFFDBDEA7291A
:106D20008300C410C410C4101CE79EEF0511E410CA
:106D300004110411041104110419C408E510D16BE5
:106D4000D16BC5086400A50843002B32779DB3843E
:106D50002519C41004110411041104112519260960
:106D6000359DFFFFFFFFFFFFFFFFFFFFFFFFAF733B
:106D700062000419051982000D5B8E9B62100511DB
:106D8000041104110419E41085000511C439815A55
:106D9000407B229C43AC03A4839B82728249C2182D
:106DA000A400C500E410041904110519471967115E
:106DB000EC5ABEFFFFFFFFFFFFFFFFFFDFFFDBDE41
:106DC000C410E41004110511A41801C08388E40064
:106DD00005190419C5084421438323D542FEE4FE66
:106DE00027FF07FFA4FE64FE03FEA3FDE2FC42ECC6
:106DF00083B32462E510C40804192619A819872151
:106E00000090D3BCFFFFFFFFFFFFFFFFDFFFFFFF8F
:106E1000107C420005190511832801D044F8A348CD
:106E2000E400C508445A02EDE2FD02FE66FE74FF6E
:106E3000B8FF73FFE7F6A6F645F6A4F5C3FC62FCBF
:106E4000C2FCC2FCE3CBC449061188198701A49097
:106E500001F8EC9AFFFFFFFFFFFFFFFFFFFFFFFFBF
:106E6000BEF7E83183000509824001C023F885F0B0
:106E7000A348A400445A02FD23CCC2DC04FE28FE31
:106E800048F646F624F6E4F564FDE3FC62FCC2FC39
:106E900002E402DCE2FCA47A48016701C47824F829
:106EA00002F884B07DE7FFFFFFFFFFFFFFFFFFFF5A
:106EB000FFFFDBDE2519A300C43802E022D844F826
:106EC000A6F8A4786300432183728339829B21F55D
:106ED00061FD22FDE2FCA2FC42FC42FC42FC22AB32
:106EE0008341C392045226012519A49844F823F83B
:106EF00002F8A4D09EEFFFFFFFFFFFFFFFFFFFFFA1
:106F0000FFFFFFFF9AD68729A50043B822F823E0A8
:106F100065F8E8F807C983484200A30084006329A4
:106F2000A27A62B3A2CB62D302BB828A8339A40065
:106F3000E500E500E508C46064D844F824F823F8C7
:106F400002F88388DBC6FFFFFFFFFFFFFFFFFFFFA5
:106F5000FFFFFFFFFFFF3DE7505B083123E843F8E9
:106F600044F065F809F9ABF989D10689A3484218BC
:106F70000200420061008200620062008300A320E0
:106F8000C450A58885D865F844F844F823F823F858
:106F900003D08210C7295DEFFFFFFFFFFFFFFFFF58
:106FA000FFFFFFFFFFFFFFFFFFFF6C32A53802D896
:106FB00023F865F866F8A7F84AF90CFA4DFA4CEA96
:106FC0000BD2A9B968B147A927B107B907D1E7E83A
:106FD000C7F8A7F865F865F844F823F803F802D075
:106FE000A3280509C408EC5AFFFFFFFFFFFFFFFFBE
:106FF000FFFFFFFFFFFFFFFFFBDE0519C400A741F6
:10700000E6C003F886F8A7F887F886F8C7F829F9E4
:107010008AF9ABF9ABF98BF96AF929F908F9C7F8DC
:10702000A6F886F865F864F823F802F006B1252979
:10703000E400E41025192519149DFFFFFFFFFFFF51
:10704000FFFFFFFFFFFFFFFF96AD6200820835954F
:10705000BACE8BA244D025F887F8A7F8C7F8A7F8CE
:1070600087F886F886F886F887F8A7F8A7F8A6F8CC
:1070700085F865F864F824F064B80D93BBB6CF6367
:1070800083080411E4106621493A5DEFFFFFFFFF1A
:10709000FFFFFFFFFFFFFFFFD3944200E410BBCED2
:1070A000FFFFBEE776B5CCAA07C145E045F846F834
:1070B00066F886F886F886F886F865F845F865F883
:1070C00065E844D043A8018882903CD7FFEF5595EE
:1070D00083080411041105194619B394FFFFFFFF3B
:1070E000FFFFFFFFFFFFFFFFB394410086215DDF3D
:1070F000FFFFFFFFFFFFDFE77AC6D3B44EB32AC21C
:1071000068D1E6E0A6E8A5E8A5E8E6D888C906A91A
:1071100022A802A800A000C800D8F7E5FFE7F8AD54
:10712000C410E4100411E41005118B4AFFFFFFFFA7
:10713000FFFFFFFFFFFFFFFF55A54100A7295DDF10
:10714000FFF7FFFFFFFFFFFFFFFFFFFFFFEF7DDF09
:10715000DBCE59CEF8CDD7CDF7C579CEFBBEABA2ED
:1071600003F045F842D043E800F072D4FFDF39AEB7
:10717000E410E4100411E41005118729FFFFFFFF5C
:10718000FFFFFFFFFFFFFFFF59CE830846211CD7FB
:10719000FFF7FFFFFFFFFFFFFFFFFFFFFFFFFFFF07
:1071A000FFFFFFFFFFFFFFFFFFFFFFFFFFEF8BBAB8
:1071B00004F845F862E044F000F88EDBFFDFF8A544
:1071C000C410E410E4100411E4102519FFFFFFFFC0
:1071D000FFFFFFFFFFFFFFFFBEF78729830839B6D8
:1071E000FFF7DFF7FFFFFFFFFFFFFFFFFFFFFFFFDF
:1071F000FFFFFFFFFFFFFFFFFFFFFFFFBEE74ABAF2
:1072000003F845F864F844F800F86EE3FFD7F48C0F
:1072100083080411E410E410E4100519FFFFFFFFD8
:10722000FFFFFFFFFFFFFFFFFFFFEF730000728410
:10723000FFEFBEEFDFFFFFFFFFFFFFFFFFFFFFFFDF
:10724000FFFFFFFFFFFFFFFFFFFFFFFFDFE78BBA3F
:1072500003F845F845F823F800F8D3D4FFD74E5B80
:107260002100293A55A58308C4102519FFFFFFFF07
:10727000FFFFFFFFFFFFFFFFFFFFFBDEA308E8317B
:107280009EDF9EE7BFEFFFFFFFFFFFFFFFFFFFFF58
:10729000FFFFFFFFFFFFFFFFFFFFFFFFFFF751BCF7
:1072A00002E003F803F043E0ECC27ECFFCBE4621CF
:1072B0002100D394FFFF518400008729FFFFFFFFC7
:1072C000FFFFFFFFFFFFFFFFFFFFFFFF51840000F5
:1072D000F48CFFEF9EE7BFEFDFFFFFFFFFFFFFFF35
:1072E000FFFFFFFFFFFFFFFFFFFFFFFFFFFF3DDF90
:1072F00055BD52BC72BCB7B55DC7FFDFF06B000077
:10730000093ABFF7FFFFFFFF149D55A5FFFFFFFFE1
:10731000FFFFFFFFFFFFFFFFFFFFFFFFFFFFAC4A85
:10732000A408BBBEDFE77EE7BEEFDFF7DFFFFFFFAE
:10733000FFFFFFFFFFFFFFFFFFFFFFFFDFFFDFF7A5
:10734000FFEFDFDFBFD79ED7DFDFD8A58308261189
:10735000DBD6FFFFFFFFFFFFFFFFFFFFFFFFFFFF8A
:10736000FFFFFFFFFFFFFFFFFFFFFFFF79EE8BDC5B
:107370002131A9213DCFBFDF7EDF9EE7BEEFBFEF0A
:10738000DFF7DFF7DFF7DFF7DFF7BFEFBEEF9EE7EF
:107390007EDF5ED75ED7DFDF9AB626194208EDA3FF
:1073A000BFFFFFFFFFFFFFFFFFFFFFFFFFFFFFFF2D
:1073B000FFFFFFFFFFFFFFFFFFFF74DDC0DB00FEED
:1073C00042EE024289217BB6DFDF7ED77EDF7EDFA1
:1073D0009EE79EE79EE79EE79EE77EDF7EDF5DD726
:1073E0005DD79EDFFFE7F8A50711E31802C560FD32
:1073F000E6D3DBEEFFFFFFFFFFFFFFFFFFFFFFFF17
:10740000FFFFFFFFFFFFFFFF9EF784BAC1FC42FEB4
:1074100082FEA2FE8183452174745EC7DFDF7ED7C2
:107420005ED75DD75ED75ED75DD75DD75ED79EDF6F
:10743000FFE73DC7F1638408425226E629FF86FE36
:10744000E0F36AC3FFFFFFFFFFFFFFFFFFFFFFFF48
:10745000FFFFFFFFFFFFFFFF18DEC1D2A2FD22FEEC
:1074600042FE42FE62FEE2D4416A494253743BA6A8
:107470003EC7BFD7BFD7BFD7BFDFBFD73EC71AA64C
:10748000F263A729824122B462FE83FEAAFE0FFFA7
:1074900067FD63BA3CEFFFFFFFFFFFFFFFFFFFFF4A
:1074A000FFFFFFFFFFFFFFFF9AE680D221FDC2FD35
:1074B000E2F5C2F582F582FD62FD61DC219B846A02
:1074C000E96A2C63AF6311746E632C63895A0452AA
:1074D000817AC2CBE2FC62FD82FDC2FDC2FDE4FD09
:1074E00024FD62CA1CE7FFFFFFFFFFFFFFFFFFFF56
:1074F000FFFFFFFFFFFFFFFFFFFFB1CC81D2C0F313
:10750000C1FC02FD02FDE2FCC2FCC2FC81FC80FB6E
:10751000C0C9A48135AD59CE719C218100DAA1FB8F
:1075200082FCA2FC82FCA2FC02FD22FDE2FC00FC2B
:1075300060DA90CCFFFFFFFFFFFFFFFFFFFFFFFFC1
:10754000FFFFFFFFFFFFFFFFFFFFFFFF59DE0DC43F
:1075500006CBE4D203DB03DBE3DAC3D2A4C209B374
:10756000D2BC9EF7FFFFFFFFFFFFFBE60EB4A6BAFB
:1075700083D2E3E202EB22EB22E303DBE4D26AC331
:10758000B6D5FFFFFFFFFFFFFFFFFFFF00F8000082
:107590000C76000800760008F0750008E075000819
:1075A000030009003031323334353637383941423F
:1075B0004344454640305800303132333435363755
:1075C0003839616263646566403078000400000801
:1075D0000000000000000002000100001000000098
:1075E000526F746174696F6E3A3237300000000078
:1075F000526F746174696F6E3A3138300000000068
:10760000526F746174696F6E3A393000526F7461F1
:1076100074696F6E3A300000387600080000002070
:107620006C00000038010008A47600086C000020FF
:10763000540700005401000800F8E0071F00E0FFB5
:107640001FF800F81FF8E007CF011F0000001F849B
:107650000000000000449508000000000000000049
:1076600001020304060708090000FFFF00000000F4
:107670006131000800000000000000000000000070
:1076800000000000000000000001020304010203EA
:1076900004060708090204060800000000000000B4
:0476A00000000000E6
:04000005080000FDF2
:00000001FF
