:020000040800F2
:100000000008002095020008072E00084724000879
:10001000052E0008D10700088D3E000800000000F2
:100020000000000000000000000000007D3000081B
:10003000C90B000800000000292E0008ED3100085F
:10004000AF020008AF020008AF020008AF020008CC
:10005000AF020008AF020008AF020008AF020008BC
:10006000AF020008AF020008AF020008AF020008AC
:10007000AF020008AF020008AF020008AF0200089C
:10008000AF020008AF020008AF020008AF0200088C
:10009000AF020008AF020008AF020008AF0200087C
:1000A000AF020008AF020008AF020008AF0200086C
:1000B000AF020008AF020008AF020008AF0200085C
:1000C000AF020008AF020008AF020008AF0200084C
:1000D000AF020008AF020008AF020008AF0200083C
:1000E000AF020008AF020008AF020008AF0200082C
:1000F000AF020008AF020008AF020008AF0200081C
:10010000AF020008AF020008AF020008AF0200080B
:10011000AF020008AF020008AF020008AF020008FB
:10012000AF020008AF020008AF020008AF020008EB
:10013000AF020008AF020008AF020008AF020008DB
:10014000AF020008AF020008AF020008AF020008CB
:10015000AF020008AF020008AF020008AF020008BB
:10016000AF020008AF020008AF020008AF020008AB
:10017000AF020008AF020008AF0200080000000054
:10018000AF020008AF020008AF020008AF0200088B
:10019000AF020008AF020008AF020008AF0200087B
:1001A000AF020008AF020008AF02000800F002F83A
:1001B00000F046F80AA090E8000C82448344AAF1BB
:1001C0000107DA4501D100F03BF8AFF2090EBAE8B9
:1001D0000F0013F0010F18BFFB1A43F0010318477B
:1001E000EC6400000C650000103A24BF78C878C1A8
:1001F000FAD8520724BF30C830C144BF04680C602D
:10020000704700000023002400250026103A28BF74
:1002100078C1FBD8520728BF30C148BF0B60704778
:10022000782900F0BB80732900F09382002070478A
:100230001FB503F085FF00F08EF91FBD10B510BD8E
:1002400000F08BFA1146FFF7F3FF03F0E7FE00F032
:10025000A9FA03B4FFF7F2FF03BC00F0B3FA000001
:100260000B49D1F800C04A685CF8043B1068184498
:1002700042F8040B8C4528BFA1F1DC0C8A4228BF50
:10028000A1F1DC02C1F800C04A6020F000407047D4
:10029000980100200948804709480047FEE7FEE72B
:1002A000FEE7FEE7FEE7FEE7FEE7FEE7FEE7FEE726
:1002B00004480549054A064B70470000F131000823
:1002C000AD0100080002002000080020000400200A
:1002D000000400200FB41CB5074B06AA7B446946F6
:1002E0000090059800F00BFA0020694600F01AFA19
:1002F0001CBC5DF814FB00004504000070B504460A
:1003000085690068C10601D5302600E02026C007B7
:1003100007D070BDD4E9012130469047206A401CC7
:1003200020626D1EF6D570BD70B5044685690078F3
:10033000C00707D170BDD4E9012120209047206A71
:10034000401C20626D1EF6D570BD70B50C4605468A
:10035000012A05D02878800600D5EA69002302E04A
:10036000012305E05B1C934202D2E05C0028F9D136
:10037000A869E618C01AA861286A184428622846A5
:10038000FFF7BCFF04E0D5E9012114F8010B904709
:10039000B442F8D32846FFF7C7FF70BD70B50446D6
:1003A0000D4621461068AFF300802188090502D56B
:1003B0000F4A7A4402E00E4A7A440E32002104F1D8
:1003C000240305E000F00F060009965D5E54491C09
:1003D0000028F7D120780023000704D5702D02D023
:1003E00009B1022311322046BDE8704000F029B95E
:1003F000A26200002DE9F05F894604464FF0000A32
:10040000DFF824B1FB44C0F820A02046E16888470B
:1004100000287DD0252806D0D4E901219047206A04
:10042000401C2062F1E700255F462046E1688847CE
:100430002028064607DB312E05D2B81910F8200C0B
:1004400008B10543F1E7A80701D525F00405C4F874
:100450001CA00027C4F818A02A2E09D0304603F0AB
:1004600062FD38B304EB8708303EC8F8186019E025
:1004700059F8041B204604EB87029161E168884724
:10048000012F064618D1E069002820DA25F0200562
:100490001DE0D8F8180000EB800006EB4000303873
:1004A000C8F818002046E1688847064603F03BFD7F
:1004B0000028EED1012F0AD02E2E08D12046E16867
:1004C00088477F1C0646022F45F02005C4DBA06943
:1004D000002803DA404245F00105A061E80701D099
:1004E00025F01005A6B1A6F14100192802D8203642
:1004F00045F400654A463146204625604D46FFF7E3
:100500008FFE60B1012807D0ED1D25F0070000E047
:1005100007E000F1080978E705F1040975E73046BE
:100520007AE7206ABDE8F09F786200000B4910B5B9
:10053000A1F17C020A4CC2E93712372106E000EB38
:10054000104342F82130074B00FB03400B1EA1F182
:100550000101F4DC10BD0120E8E7000038010020B3
:10056000E119D666CD0D010040EA0103024630B51F
:100570009B0710D14FF0013400E008C208C91D1BD1
:100580009D4315EAC41FF8D013F0FF0102F8011BC8
:100590000DD01B0AF8E711F8013B002B02F8013BD4
:1005A00005D011F8013B002B02F8013BF3D130BD1F
:1005B00010B5431C02E010F8011B71B18107FAD19C
:1005C0004FF0013202C88C1A8C4314EAC211F9D0E0
:1005D000C01A0A0603D0C01E10BDC01A10BD0A04FE
:1005E00001D0801E10BD0902FCD0401E10BD4FF08E
:1005F000000200B5134694469646203922BFA0E873
:100600000C50A0E80C50B1F12001BFF4F7AF09077E
:1006100028BFA0E80C5048BF0CC05DF804EB89006F
:1006200028BF40F8042B08BF704748BF20F8022BB2
:1006300011F0804F18BF00F8012B704770477047CA
:1006400070472DE9F0470D4699469246044600F161
:1006500024080168880604D5E06921F010012160B2
:1006600000E00120A84201DD471B00E00027A1694E
:100670007A1902EB0900081AA0612078C00602D49A
:100680002046FFF73BFE002608E0D4E901211AF8D6
:1006900006009047206A401C761C20624E45F4DB21
:1006A0002078C0060AD52046FFF728FE06E0D4E9E8
:1006B000012130209047206A401C2062381EA7F19B
:1006C0000107F4DC07E0D4E9012118F805009047A0
:1006D000206A401C2062281EA5F10105F3DC20469B
:1006E000FFF722FE2078000602D50220BDE8F08741
:1006F0000120FBE701694A1C02610878704700B5D8
:100700008FB0CDE901310021059105497944CDE94A
:10071000031011466846FFF76DFE0FB000BD0000E4
:10072000E5FFFFFF0A6802F8010B0A60704710B589
:10073000436913B1AFF3008001E0FFF706FE01202B
:1007400010BD127800F124010A7000224A700122C3
:10075000EDE711684FF0FF32E9E7754600F02CF83D
:10076000AE4605006946534620F00700854618B09E
:1007700020B5FFF79DFDBDE820404FF000064FF08B
:1007800000074FF000084FF0000B21F00701AC46C6
:10079000ACE8C009ACE8C009ACE8C009ACE8C009E5
:1007A0008D46704710B50446AFF300802046BDE883
:1007B0001040FFF74EBD000000487047A001002028
:1007C0007047000001491820ABBEFEE7260002007A
:1007D000FEE7000010B5124C00224021204601F037
:1007E000B2F81048016821F0C0010160016841F0D1
:1007F000400101600022082101F0A5F8012003F06A
:10080000B1FB01224021204601F09DF8012003F0B8
:10081000A9FB20460022BDE81040402101F093B81A
:10082000001C02400020024030B5184887B0016823
:1008300041F080010160016801F0800105910168CB
:1008400041F4807101600068114C00F480700590E3
:1008500040200090012001900290032003906946FF
:10086000204600F07DFF08210A4D00916946284688
:1008700000F076FF01224021204601F064F80122B9
:100880000821284601F05FF807B030BD303802403B
:10089000001C02400020024010B5124C00224021F2
:1008A000204601F050F81048016821F0C0010160B5
:1008B000016841F0400101600122082101F043F884
:1008C000012003F04FFB01224021204601F03BF8BC
:1008D000012003F047FB20460022BDE810404021E4
:1008E00001F031B8001C0240002002402DE9F04127
:1008F000074617480024016821F0C0010160016823
:100900000160144E2546804600224021304601F009
:100910001AF8032003F026FB01224021304601F0A3
:1009200012F86006040E0821404601F007F808B1ED
:10093000641CE4B26D1CEDB2082DE5D327B1FFF7BE
:1009400049FF2046BDE8F081FFF7A6FFF9E7000068
:1009500000200240001C02402DE9F041184F0546DE
:10096000386820F0C0003860386840F040003860D7
:10097000144E00224021304600F0E5FF00242806F6
:1009800001D5012200E000220821384600F0DBFFFB
:100990006806050E01224021304600F0D4FF0120F8
:1009A00003F0E0FA00224021304600F0CCFF0120A5
:1009B00003F0D8FA641CE4B2082CE0D3BDE8F0815F
:1009C00000200240001C024070B5134C206820F04B
:1009D000C0002060206840F0400020600122082113
:1009E000204600F0B0FF0D4D01224021284600F0C6
:1009F000AAFF012003F0B6FA00220821204600F0E9
:100A0000A2FF012003F0AEFA2846BDE870400022A4
:100A1000402100F098BF000000200240001C02406E
:100A200070B5134C206820F0C0002060206840F0B2
:100A3000400020600F4D00224021284600F083FF37
:100A400000220821204600F07EFF012003F08AFAF0
:100A500001224021284600F076FF012003F082FAAF
:100A60002046BDE870400122082100F06CBF000064
:100A700000200240001C024070B5174D002428469B
:100A8000296821F0C0012960296829600122082114
:100A900000F059FF012003F065FA104E01224021B9
:100AA000304600F050FF012003F05CFA07E0641CC0
:100AB000E4B2FA2C03D9FFF7B3FF012070BD08217F
:100AC000284600F03BFF0028F1D1002240213046AB
:100AD00000F039FF002070BD00200240001C0240E1
:100AE000FEB51BA000F072F8002510241DA08DE8B3
:100AF00031004FF6E07633461F221E210A2002F015
:100B0000BFFA21A08DE8310033461F2232210A208E
:100B100002F0B6FA182022A1CDE9001001243346D4
:100B20001F22029446210A2002F0AAFA202022A1C4
:100B3000CDE9001033461F22029464210A2002F0FE
:100B40009FFABDE8FE404FF4966003F0FDB9000047
:100B5000B2E2CAD4373AD6D0CEC4CFD4CABEB2E2FB
:100B6000CAD4000031365831363AC8ABB6AFB5E713
:100B7000D7D3BCBCCAF5D3D0CFDEB9ABCBBEBBB6E6
:100B8000D3ADC4FA0000000031365831363A57650B
:100B90006C636F6D65C8ABB6AFB5E7D7D300000027
:100BA00032345832343AC9EEDBDACAD0D6D0CEC4A9
:100BB000B2E2CAD40000000033325833323AD7D6FA
:100BC000CCE5B2E2CAD40000704700002DE9FE4334
:100BD00080464FF6FF75284601F036FC164C1F265E
:100BE0000096002122881423084601F073FD009628
:100BF00063882288A3F1140081B2002001F06AFD0D
:100C00000E48012610270580CDF80080CDE9017639
:100C10001F232A460221002000F080FD08A0CDE914
:100C20000007029660881F23123881B22A460020EE
:100C300000F074FDBDE8FE83540000203800002061
:100C4000687474703A2F2F7777772E6C63647769A6
:100C50006B692E636F6D00002DE9F05F0746C2F1EE
:100C600001000FFA80F8C2EBC230400099460E46F0
:100C70004FF0010B0FFA80FA0025144652E0B8F14C
:100C8000000F09DB0AF102000FFA80FA641E08EB7C
:100C90000A00A4B20FFA80F80BF102000FFA80FBF1
:100CA0006D1C08EB0B000FFA80F8ADB25FEA4970DB
:100CB0000BD5301981B2781980B201F09FFC701900
:100CC00081B2381980B201F099FC5FEA89700BD5C6
:100CD000301B81B2781980B201F090FC701B81B298
:100CE000381980B201F08AFC5FEA09700BD57019DF
:100CF00081B2381B80B201F081FC301981B2781BBF
:100D000080B201F07BFC5FEAC9700BD0701B81B22E
:100D1000381B80B201F072FC301B81B2781B80B2AC
:100D200001F06CFCA542AAD3BDE8F09F2DE9F04785
:100D30009846DDE9085491460E46074601F0C4FB8B
:100D400023462A464146484601F0BEFB33463A4612
:100D500021462846BDE8F04701F0B6BBFEB524A009
:100D6000FFF734FF0C2527A0CDE9000500244FF63E
:100D7000E0773B461F221E2102940A2002F080F9F0
:100D800001262BA08DE861003B461F222D210A2061
:100D900002F076F931A0CDE900053B461F223C2147
:100DA00002940A2002F06CF9102534A0CDE9000568
:100DB0003B461F22502102940A2002F061F93AA01A
:100DC0008DE861003B461F2264210A2002F058F999
:100DD00040A0CDE900053B461F22782102940A205D
:100DE00002F04EF9BDE8FE404FF4966003F0ACB857
:100DF000B2E2CAD4363AD3A2CEC4CFD4CABEB2E28B
:100E0000CAD40000365831323A616263646566675D
:100E100068696A6B6C6D6E6F7071727374757677DA
:100E200078797A303132333435363738390000004A
:100E3000365831323A4142434445464748494A4B85
:100E40004C4D4E4F505152535455565758595A3095
:100E500031323334353637383900000036583132C4
:100E60003A7E21402324255E262A28295F2B7B7D7C
:100E70003A3C3E3F2F7C2D2B2E0000003858313657
:100E80003A6162636465666768696A6B6C6D6E6F10
:100E9000707172737475767778797A303132333451
:100EA0003536373839000000385831363A41424338
:100EB0004445464748494A4B4C4D4E4F505152537A
:100EC0005455565758595A303132333435363738ED
:100ED00039000000385831363A7E21402324255EFF
:100EE000262A28295F2B7B7D3A3C3E3F2F7C2D2BE9
:100EF0002E00000030B52F4887B00021026842F074
:100F000080020260026802F080020692026842F4E7
:100F1000807202600068012500F4807006908020D5
:100F20008DE82300032003906946234800F018FC55
:100F30002C02CDE90045214D6946284600F010FC01
:100F4000FFF772FC00222146284600F0FCFC0A2034
:100F500002F0FAFF01222146284600F0F4FC4FF48B
:100F6000FA7002F0F1FF012205A9A82000F028F88C
:100F70009DF81400112818D1022205A99F2000F025
:100F80001FF89DF8140026280FD19DF8150018B100
:100F9000012801D0022808D1012205A9A32000F0D0
:100FA0000FF89DF81400642802D0012007B030BD6E
:100FB0000020FBE730380240001C024000200240C5
:100FC0002DE9F04115460F460446FFF7FDFC702061
:100FD000FFF7C2FCFFF750FDE0B2FFF7BDFCFFF7E3
:100FE0004BFDFFF7F1FC7120FFF7B6FCFFF744FD66
:100FF00000246E1E09E0B44201D0012000E0002070
:10100000FFF774FC3855641CE4B2AC42F3D3BDE87E
:10101000F041FFF705BD00002DE9FC475E4E0024BE
:101020004FF00A0830785D4D401CC0B2B0FBF8F2BA
:1010300008FB12012746307009B10A287ED201222E
:1010400001A90220FFF7BCFF9DF80400002876D01C
:10105000032875D2FF218140C84340F0C000DFF86B
:1010600040A1504F28744FF001093AF814000422AF
:101070006946FFF7A5FF297C09FA04F0014265D013
:10108000B87930B1012818D002282CD003285DD1BE
:1010900042E09DF800109DF8010001F00F0100EB07
:1010A000012105EB440001819DF802209DF8031009
:1010B00002F00F0201EB02212CE09DF800109DF8D8
:1010C000010001F00F0100EB01207988091A05EBFE
:1010D000440081819DF802209DF8031002F00F0268
:1010E00001EB022131E09DF800109DF8010001F0B4
:1010F0000F0100EB01203988091A05EB440001813A
:101100009DF802209DF8031002F00F0201EB02216E
:101110007A88511A818119E09DF800109DF801002C
:1011200001F00F0100EB012105EB440081819DF8E6
:1011300002209DF8031002F00F0202E013E015E018
:1011400021E001EB02213A88511A0181641CE4B2CA
:10115000022C8AD301272A8900211AB9A88908B943
:101160008DF8041031709DF8040060B9287C0106E8
:1011700002D520F0800005E04FF6FF712981A9819A
:1011800000F0E00028743078F02801D986F800805B
:101190003846BDE8FC870000500000203C000020DD
:1011A00054660008540000202DE9FF5F8046C2F11C
:1011B000010007B2C2EBC23040000E464FF0010BF7
:1011C0000FFA80FA00251446DDF838904DE0002F24
:1011D00008DB0AF102000FFA80FA641E07EB0A002E
:1011E000A4B207B20BF102000FFA80FB07EB0B0071
:1011F00007B26D1C0398ADB2C00719D0311901EBCD
:101200000900401C83B208EB050082B2311B89B291
:1012100080B201F059F9711901EB0900401C83B249
:1012200008EB040082B2711B89B280B201F04CF964
:101230000398800719D5311901EB0900401C83B2CE
:10124000A8EB050082B2311B89B280B201F03CF9F3
:10125000711901EB0900401C83B2A8EB040082B2B3
:10126000711B89B280B201F02FF9A542AFD3BDE85E
:10127000FF9F00002DE9FF4F87B00027DDE9142311
:10128000BDF82840B846A14208D90D46214604467B
:10129000BDF82400ADF82850ADF82440BDF8285022
:1012A0009CB2A54207D9ADF828401446BDF82420C9
:1012B0002B46ADF82440BDF82840A14208D90D4680
:1012C00021460446BDF82400ADF82850ADF824406E
:1012D0001FFA83F90E46494521D1BDF82410ADF817
:1012E0000400814201D2084602E001D9ADF80410A1
:1012F00091B2814201D2084605E0BDF80420914236
:1013000001D9ADF804103C493346BDF804200988E2
:101310000091194601F0DEF90BB0BDE8F08FBDF881
:1013200024300546581BBDF828100690881B92B241
:101330000590D01A0290A9EB0100A2EB050AA9EBD7
:10134000060B0490494501D1039102E0491E88B281
:10135000039034461FE098FBFBF10598294497FB66
:10136000F0F01FFA81FCADF804C02844069980B261
:101370000F44D044604503D901466046ADF80410DF
:101380001D492346BDF8042009880091194601F043
:10139000A1F9641CA4B203988442DCD9BDF82800EA
:1013A000271A02984743A61B06FB0AF621E0049879
:1013B000BDF8241097FBF0F0084496FBFBF129449C
:1013C0001FFA81FC029980B2ADF804C00F44564464
:1013D000604503D901466046ADF80410064923462E
:1013E000BDF8042009880091194601F073F9641CC6
:1013F000A4B24C45DBD98FE7380000202DE9FF4F20
:1014000083B0054682464B2089464FF000084FF0D6
:10141000800B01903049109A08EB081011F8103039
:10142000127893423CD101EB400000904178109833
:101430004078814234D109F10F0083B205F10F00E9
:1014400082B24946284601F01BFB00260098002482
:101450008719119890B1214905980880B9782BFA1D
:1014600004F0014203D04946284601F0C7F86D1C3C
:10147000ADB2A5EB0A00102827D009E0B9782BFA05
:1014800004F0014201D0059800E0069801F0A6FCA6
:10149000641CE4B2082CDCD3761CF6B2202ED5D323
:1014A00008F1010001991FFA80F88845B2D30C4970
:1014B0004888401E83B2088807B0401EBDE8F04F40
:1014C00082B20021084601F0DBBA09F1010055465D
:1014D0001FFA80F9E0E70000AE4B0008380000205A
:1014E000540000202DE9FF4F83B0054682460720B7
:1014F00001900020894680464FF0800B00EB800170
:1015000001EB48102F49109A11F8103012789342CD
:101510003CD101EB40000090417810984078814226
:1015200034D109F1170083B205F1170082B24946A0
:10153000284601F0A5FA0026009800248719119882
:1015400090B1214905980880B9782BFA04F001423E
:1015500003D04946284601F051F86D1CADB2A5EB09
:101560000A00182827D009E0B9782BFA04F00142C4
:1015700001D0059800E0069801F030FC641CE4B24C
:10158000082CDCD3761CF6B2482ED5D308F1010026
:1015900080B2019980468842B0D30C494888401EE9
:1015A00083B2088807B0401EBDE8F04F82B2002128
:1015B000084601F065BA09F1010055461FFA80F9A5
:1015C000E0E70000A4550008380000205400002087
:1015D0002DE9FF4F83B005468246042089464FF02F
:1015E00000084FF0800B01903049109A08EB8810EA
:1015F00011F81030127893423CD101EB400000907A
:10160000417810984078814234D109F11F0083B2AB
:1016100005F11F0082B24946284601F031FA002642
:10162000009800248719119890B1214905980880E5
:10163000B9782BFA04F0014203D04946284600F05D
:10164000DDFF6D1CADB2A5EB0A00202827D009E014
:10165000B9782BFA04F0014201D0059800E0069811
:1016600001F0BCFB641CE4B2082CDCD3761CF6B29F
:10167000802ED5D308F1010001991FFA80F8884522
:10168000B2D30C494888401E83B2088807B0401E78
:10169000BDE8F04F82B20021084601F0F1B909F12E
:1016A000010055461FFA80F9E0E70000AA5700083C
:1016B000380000205400002010B5144601F0DCF979
:1016C0002046BDE8104001F089BB000070B515460A
:1016D00001F1270293B200F1270292B201F0D0F992
:1016E00000244FF4C86605EB440115F8140049784E
:1016F00040EA012001F072FB641CB442F3DB0648AF
:1017000041880088491E401EBDE870408BB282B2FD
:101710000021084601F0B4B9540000202DE9FE4331
:101720001F46DDE90A469046894620460C9DFEF795
:101730003FFF0A4980B240420988CDE9004601EBEB
:10174000C00000EBD070C0F34F003B464246494614
:10175000029501F095FCBDE8FE83000054000020D6
:101760002DE9F84FDFF8A091002209F1040A0AF1EF
:10177000040B4FF00F080BF1040E01260B68964086
:101780003340B34271D14C68022C01D0122C11D1DC
:10179000D40800EB84073D6A5407E40E08FA04FC01
:1017A00025EA0C05D1F810C00CFA04FC4CEA050C33
:1017B000C7F820C007685400032591F804C0A5406D
:1017C0000CF0030CAF430CFA04FC4CEA070CC0F815
:1017D00000C04F68012F05D0022F03D0112F01D078
:1017E000122F11D18768D1F80CC0AF430CFA04FC5A
:1017F0004CEA070CC0F808C04768B7430E79C6F337
:10180000001696403E434660C668AE438D68A540CC
:101810003543C5604C68E4006FD53C4C256845F401
:1018200080452560246822F0030504F48044009478
:10183000374C2E19D6F808789407250F08FA05F4C6
:10184000A743344CA04201D100242EE0324CA042E8
:1018500001D1012429E0314CA04201D1022424E02D
:101860002F4CA04202D103241FE046E02D4CA042A1
:1018700001D1042419E02C4CA04201D1052414E02C
:101880002A4CA04201D106240FE0294CA04201D1EC
:1018900007240AE0274CA04201D1082405E0264C89
:1018A000A04201D1092400E00A24AC403C43C6F820
:1018B0000848D9F800404D464E689C43F60300D5D1
:1018C0001C432C60DAF8004055464E689C43B60332
:1018D00000D51C432C60DBF800405D464E689C43FD
:1018E000F60200D51C432C60DEF8004075464E68B9
:1018F0009C43B60200D51C432C60521C102AFFF4F6
:101900003CAFBDE8F88F0000003C01404438024085
:101910000030014000000240000402400008024084
:10192000000C024000100240001402400018024067
:10193000001C0240002002400024024000690840D0
:1019400000D0012070470AB1816170470904FBE7AC
:10195000014800687047000030000020024801681C
:10196000491C016070470000300000200B4810B592
:10197000016841F400710160016841F48061016017
:10198000016841F480710160052000F03FF80F20EC
:1019900000F006F800F015F8002010BD003C0240F1
:1019A00010B5044600F08CF94FF47A71B0FBF1F0F9
:1019B00000F035FD00222146501E00F007F80020FF
:1019C00010BD08B50020009008BD0000F0B40E4B1B
:1019D0001B68C3F30223C3F10704042C00D90424B9
:1019E0001D1D072D01D2002300E0DB1E012606FA93
:1019F00004F56D1E0D409D409E40761E164045EA42
:101A00000601F0BC01F000BA0CED00E0064A00F05F
:101A1000070110684FF6FF03184040EA0120034910
:101A200008431060704700000CED00E00000FA056C
:101A30002DE9F8431D48016841F0805101600068BC
:101A4000012700F080500090380490FAA0F0DFF8F1
:101A50006080B0FA80F048F82070FFF779FF044604
:101A60004FF47A75134E04E0FFF772FF001BA84293
:101A700013D87068C003F7D54FF4003090FAA0F087
:101A8000B0FA80F048F82070FFF762FF044607E0E4
:101A9000FFF75EFF001BA84202D90320BDE8F883D0
:101AA00070688003F4D50020F8E700004038024059
:101AB00000000E42007000402DE9F05FDFF8F8A151
:101AC00004460F46DAF80000DFF8F08100F00F025C
:101AD000C8B27A49814641F2883608F10808BA420C
:101AE00061D202468AF80020DAF8000000F00F0008
:101AF000B8427DD12078800707D5D8F80020A368A8
:101B000022F0F0021A43C8F800202078C0072DD038
:101B1000606801281AD002281BD0032819D0096850
:101B20008907002964DAD8F80010474621F003013C
:101B30000143C8F80010FFF70BFF05466068012855
:101B40000FD0022818D003281CD027E00968890389
:101B5000E7E709688901E4E7FFF7FAFE401BB042B6
:101B600058D83868C0F381000128F5D188E0FFF724
:101B7000EFFE401BB0424DD83868C0F38100022808
:101B8000F5D17DE03868FFF7E3FE401BB042F9D99C
:101B900040E0FFF7DDFE401BB0423BD8386810F054
:101BA0000C0FF6D16CE02078800707D5D8F800201C
:101BB000A36822F0F0021A43C8F800202078C0077A
:101BC0004CD06068012828D0022829D0032827D0CB
:101BD00009688907002949DAD8F8002022F00302B1
:101BE0000243C8F80020FFF7B3FE0546606800E036
:101BF0003CE001281DD0022829D0032838D0B34664
:101C00004646306810F00C0F28D0FFF7A1FE411BAC
:101C10005945F6D90320BDE8F09F09688903D9E743
:101C200009688901D6E7FFF793FE411B594502D9A0
:101C3000F0E7B34646463068C0F381000128F2D190
:101C40000CE0FFF785FE411B594502D9E2E7B34698
:101C500046463068C0F381000228F2D18AF800902D
:101C6000DAF8000000F00F00B84209D00120D2E7F6
:101C700044462068FFF76CFE401BB042F9D9C9E723
:101C80002078400707D5D8F80010E26821F4E05129
:101C90001143C8F800102078000708D5D8F80010C4
:101CA000226921F4604141EAC201C8F800100F2006
:101CB000FFF776FE0020AEE7003C0240003802400D
:101CC00010B500F017F808490968F02292FAA2F25C
:101CD00001F0F001B2FA82F2D140044A515CC840EE
:101CE0000349086010BD000008380240446600083F
:101CF0001C00002030B51948006810F00C0118488D
:101D000012D0184C04290ED008290DD1134A121FE5
:101D10001168136801F03F015D0247F6C07304D5F6
:101D2000B4FBF1F003E0204630BDB0FBF1F01168E8
:101D3000194093FAA3F3B3FA83F3D94048431168E7
:101D40004FF4403292FAA2F201F44031B2FA82F238
:101D5000D140491C4900B0FBF1F030BD08380240C9
:101D60000024F40040787D012DE9F84F0446007806
:101D7000DFF8FCA2BF4DC0074FF0000648D0DAF8EC
:101D800000105046C1F38101012908D00068C0F35A
:101D9000810002280AD1281D0068400206D5286863
:101DA000800335D56068002873D031E0DFF8C49235
:101DB00009F1020989F80060FFF7CAFD074641F200
:101DC000883804E0FFF7C4FDC11B41457AD8286874
:101DD0008003F7D4207989F80000606860B1FFF7CC
:101DE000B7FD074604E0FFF7B3FDC11B4145EDD841
:101DF00028688003F7D50BE0FFF7AAFD074604E04B
:101E0000FFF7A6FDC11B4145E0D828688003F7D441
:101E10002078DFF86492800744D5DAF80010504645
:101E200011F00C0F4FF0F80809D00068C0F38100E2
:101E300002280BD18E48001F0068400206D4286893
:101E4000800714D5E068012823D110E0E068D0B104
:101E50000120C9F80000FFF77BFD074604E0FFF70B
:101E600077FDC01B6428B1D828688007F7D528689B
:101E700098FAA8F22169B2FA82F220F0F8009140B3
:101E8000084328600EE0C9F80060FFF761FD0746CF
:101E900005E0EAE0FFF75CFDC01B642812D8286863
:101EA0008007F7D42078000725D5DFF8C481734870
:101EB000616908F16C0881B101210160FFF748FDFB
:101EC000074605E07EE0FFF743FDC01B642879D894
:101ED000D8F800008007F6D50DE00660FFF738FD62
:101EE000074604E0FFF734FDC01B64286AD8D8F821
:101EF00000008007F6D42078400753D55C4838307E
:101F0000016841F0805101600068DFF8748100F0E1
:101F100080500090D8F8001041F48071C8F800108B
:101F2000FFF716FD074604E0FFF712FDC01B64280B
:101F300048D8D8F80000C005F6D5DFF834B10BF169
:101F4000680B8BF80060FFF703FD074641F2883805
:101F500004E0FFF7FDFCC11B41457ED8DBF8000023
:101F60008007F6D4207A8BF80000A06868B1FFF7EC
:101F7000EFFC074604E0FFF7EBFCC11B41456CD8C2
:101F8000DBF800008007F6D50CE0FFF7E1FC074620
:101F900004E0FFF7DDFCC11B41455ED8DBF8000023
:101FA0008007F6D4A069E8B3DAF80010C1F3810124
:101FB00002295AD0022806D0C9F86060FFF7C8FC91
:101FC00004464DE049E04F46C9F86060FFF7C0FCA9
:101FD000064604E0FFF7BCFC801B64283DD8286857
:101FE0008001F7D4D4E90701084347F6C07191FA9C
:101FF000A1F1626AB1FA81F18A40A16A4FF0FF3320
:1020000003EB51014FF4403393FAA3F3B3FA83F394
:1020100099400A4310434FF0706292FAA2F2B2FA6A
:1020200082F200E01FE0E16A914008431049091F75
:10203000086001203866FFF78BFC044604E0FFF7D8
:1020400087FC001B642808D828688001F7D50AE0BF
:10205000FFF77EFC001B642802D90320BDE8F88F3F
:1020600028688001F4D40020F8E70120F6E700009A
:10207000083802400038024000004742800E4742C4
:102080000070004070B5040004D094F851000025A1
:1020900010B106E0012070BD84F85050204600F0D9
:1020A00033F8022084F851002068016821F04001D3
:1020B0000160D4E901010843D4E903121143084344
:1020C00061690843218B01F400710843E169084309
:1020D000216A0843A16A084321680860A0690421B5
:1020E00001EA1040616A0843216848602168E06A9B
:1020F00008612068C16921F40061C1616565012042
:1021000084F85100002070BD124800B5016887B006
:1021100041F020010160006800F0200005900D48AA
:102120001430016841F4801101600068012100F45D
:10213000801005904FF4607000900220CDE90101FD
:1021400003900520049069460348FFF709FB07B098
:1021500000BD000030380240001402402DE9F84371
:10216000044690F85100DDF82080012801D0222893
:102170007ED169B162B15BB194F85000012877D08B
:10218000012784F8507094F85100012803D005E02D
:102190000120BDE8F883322084F8510000266665EE
:1021A000A263A387E3872163A386E386A664E6642C
:1021B000A06A4FF40055A84209D12068016821F4B3
:1021C000005101602068016841F4005101602068FD
:1021D0000168490603D4016841F040010160E068EC
:1021E0004FF48271B0F5006F606807D0002867D0A7
:1021F00088426ED1E08E012862D06AE020B1884228
:102200000CD1E08E012809D1206B21680088C860BC
:10221000206B801C2063E08E401EE086E08E80B93B
:10222000A06AA84244D12068016841F4805101604D
:102230003EE02068C068A16B0880A06B801CA06392
:102240009EE0434600220221204600F0B7FE00280F
:1022500074D1206B21680088C860206B801C2063CB
:10226000E08E401E0004000CE08609D1A06A00E068
:10227000C7E0A84204D12068016841F480510160A0
:10228000434600220121204600F098FE00286FD12D
:102290002068C068A16B0880A06B801CA063E08FE1
:1022A000401EE087E08E0028CBD1606800286AD10C
:1022B000434600220121204600F080FEF0BBB8E733
:1022C000206B411C216321680078C860E08E401EAD
:1022D000E086E08E98B9A06AA84204D1206801681F
:1022E00041F480510160434600220121204600F064
:1022F00065FE18BB2068C068A16B087040E04346CB
:1023000000220221204600F059FEB8B9206B411C82
:10231000216321680078C860E08E401E0004000C34
:10232000E08607D1A06AA84204D12068016841F480
:102330008051016000224346012100E018E0204660
:1023400000F03CFEA0B92068C168A06B421CA263EB
:102350000170E08F401EE087E08E0028CFD16068DA
:1023600088B9434600220121204600F027FE08B12B
:1023700003200EE72068C168A06B421CA2630170B5
:10238000E08F401EE087A06AA84210D14346002299
:102390000121204600F012FE18B1606D40F00200ED
:1023A0000FE02068C068ADF80000BDF800004346AB
:1023B00001228021204600F001FE20B1606D40F036
:1023C00020006065D4E784F8517020688168A26AB3
:1023D000C1F30011AA4210D179B1616D41F002013F
:1023E0006165016821F4005101602068016841F4D1
:1023F0000051016084F85060CAE684F85060002003
:10240000C7E60220C5E64FF0E0210428086903D0A2
:1024100020F004000861704740F00400FAE710B5AE
:10242000401EB0F1807F01D3012010BD4FF0E024A9
:1024300060610F21601700F0E7FC0020A061072019
:102440002061002010BDFEE72DE9F047174F06463A
:1024500000217888401E83B23888401E82B2084628
:1024600000F00EFBDFF848804FF00061C8F8001064
:102470002021C8F8001000254FEA16290CE000249E
:1024800006E0484600F0EAFDF0B200F0E7FD641C0B
:102490003888A042F5D86D1C7888A842EFD84FF450
:1024A0000061C8F80010BDE8F0870000540000206B
:1024B000180C024038B5034C2488009400F00AF947
:1024C00038BD0000380000202DE9FE4F0026A2EBA9
:1024D000000882465F1A701E35468946B8F1000F23
:1024E00002DD4FF0010102E003D14FF00001019144
:1024F00002E0C8F100080190002F02DD4FF001005A
:1025000002E003D14FF00000009002E0C7F10007A5
:1025100000904046B84501DD044600E03C46601CA2
:102520004FF0000B029015E01FFA89F11FFA8AF0B4
:1025300000F064F846443D44A64202DD0199361B92
:102540008A44A54202DD00992D1B89440BF101004C
:102550001FFA80FB02998B45E6DDBDE8FE8F2DE971
:10256000FF5F0026A2EB0008CDE901015F1A701E93
:102570003546B8F1000F02DD4FF0010102E003D152
:102580004FF000018B4602E08346C8F10008002F9F
:1025900002DD4FF0010002E003D14FF0000082465F
:1025A00002E08246C7F100074046B84501DD044617
:1025B00000E03C46601C4FF00009039019E0012048
:1025C0000090DDE90101DDE90E3201F0E5FC464451
:1025D0003D44A64203DD0198361B58440190A542B4
:1025E00003DD02982D1B5044029009F101001FFAEF
:1025F00080F903998945E2DDBDE8FF9F10B500F041
:102600003BFA03480088BDE8104000F0E7BB00003B
:10261000380000202DE9F0411C4615460E460746BD
:102620000B46FFF751FF3A46234631461046FFF767
:102630004BFF23462A4619463846FFF745FF2A46F0
:1026400023463146BDE8F0411046FFF73DBF2DE976
:10265000F05F9A460A9C93468146A2EB040807194C
:102660000D461FFA88F2B8B20B46FFF72DFFAAEB12
:10267000040625444A46B3B2A9B21046FFF724FF28
:1026800053461FFA88F2B8B21946FFF71DFF5A46A3
:10269000B3B2A9B21046FFF717FFA9B2B8B201232F
:1026A0002246FEF7D9FAA9B21FFA88F00223224681
:1026B000FEF7D2FAB1B21FFA88F004232246FEF7E1
:1026C000CBFAB1B2B8B22246BDE8F05F0823FEF7FC
:1026D000C3BA00002DE9F041141A641CA6B25C1ABA
:1026E000641CA7B2DDF8188000F0CAF900250AE0E2
:1026F000002404E0404600F071FB641CA4B2B44224
:10270000F8D36D1CADB2BD42F2D3064841880088B3
:10271000491EBDE8F041401E8BB282B2002108463E
:1027200000F0AEB9540000202DE9F8430E461349DD
:10273000089C1D4609880091591C8BB2171B00EBA1
:102740000408BAB21FFA88F03146FFF7C3FFA81B8E
:10275000614200EB410085B22644B1B2B8B2012318
:1027600022460095FEF720FDB1B21FFA88F0022341
:1027700022460095FEF718FDBDE8F88338000020DA
:102780000D4810B5016886B041F00801016000688D
:10279000012400F0080005904FF4C350CDE9000477
:1027A0000320CDE9024069460448FEF7D9FF0448FA
:1027B000C0F8984206B010BD30380240000C02400C
:1027C0000080414210B500F0BBFBFFF7D9FF00F0DD
:1027D000D9F8112000F08CFA782001F0B5FB3620F2
:1027E00000F086FA482000F075FA3A2000F080FAEE
:1027F000552000F06FFAF02000F07AFAC32000F0C4
:1028000069FAF02000F074FA962000F063FAB42020
:1028100000F06EFA012000F05DFAB72000F068FACF
:10282000C62000F057FAC02000F062FA802000F0C5
:1028300051FA452000F04EFAC12000F059FA132059
:1028400000F048FAC22000F053FAA72000F042FA44
:10285000C52000F04DFA0A2000F03CFAE82000F014
:1028600047FA402000F036FA8A2000F033FA0020C0
:1028700000F030FA002000F02DFA292000F02AFAAA
:10288000192000F027FAA52000F024FA332000F0E8
:1028900021FAE02000F02CFAD02000F01BFA0820EA
:1028A00000F018FA0F2000F015FA062000F012FAD6
:1028B000062000F00FFA332000F00CFA302000F070
:1028C00009FA332000F006FA472000F003FA172037
:1028D00000F000FA132000F0FDF9132000F0FAF9DF
:1028E0002B2000F0F7F9312000F0F4F9E12000F09E
:1028F000FFF9D02000F0EEF90A2000F0EBF91120EA
:1029000000F0E8F90B2000F0E5F9092000F0E2F909
:10291000072000F0DFF92F2000F0DCF9332000F071
:10292000D9F9472000F0D6F9382000F0D3F9152066
:1029300000F0D0F9162000F0CDF92C2000F0CAF9F3
:10294000322000F0C7F9F02000F0D2F93C2000F06E
:10295000C1F9F02000F0CCF9692000F0BBF9782033
:1029600001F0F2FA212000F0C3F9292000F0C0F9AB
:10297000002000F0DBF9BDE810404FF6FF70FFF7D4
:1029800063BD000010B5074C4FF0805020606420FC
:1029900001F0DAFAA0142060BDE81040322001F006
:1029A000D3BA0000180C024010B500F065F8BDE87D
:1029B000104000F0E7B900002DE9F8430020009036
:1029C000F02000F095F9C32000F084F9F02000F029
:1029D0008FF9962000F07EF9254D4FF000602860B9
:1029E00001248611E84620272E60FB2000F036FBEC
:1029F0002F6004F11000C0B200F030FB2E60D32035
:102A000000F02CFB182000F0BFFA2F60FF2000F030
:102A100025FB08EB040101F8010C002000F0B4FADA
:102A20002E60FB2000F01AFB2F60002000F016FB48
:102A3000641CE4B2042CD7D34FF400602860F0206B
:102A400000F056F93C2000F045F9F02000F050F974
:102A5000692000F03FF99DF801004FF6FF7202EA8D
:102A6000002004499DF8022010438880BDE8F883C7
:102A7000180C0240540000200B460246AFF30080C1
:102A80002DE9F041DFF8508007461C4615460E46FA
:102A900098F80C0000F02CF9380A00F01BF9F8B295
:102AA00000F018F9280A00F015F9E8B200F012F960
:102AB00098F80E0000F01CF9300A00F00BF9F0B2A3
:102AC00000F008F9200A00F005F9E0B200F002F980
:102AD000BDE8F04100F01AB9540000202DE9FF4F85
:102AE00081B00EAE824696E83100203800F0FF0833
:102AF0000298DFF8E0B02044401E83B20AEB540095
:102B0000BBF80010401E009182B250460299FFF7B8
:102B1000B7FF4FF000067DBB2F4908EB480001EBE3
:102B2000800901F2744000EB081817E00C2C03D068
:102B300018F8065000270CE019F80650FAE7E807E5
:102B400001D0039800E0049800F048F96D087F1C5C
:102B5000FFB2B7EB540FF2D3761CF6B2A642E5D320
:102B600027E00C2C09D01D4800EB08100025875DDC
:102B7000029800EB060915E019E0174808EB480138
:102B800000EB8100F2E70398ABF80000F80706D0ED
:102B90000AEB05001FFA89F180B2FFF72FFD7F08CD
:102BA0006D1CEDB2B5EB540FEDD3761CF6B2A64218
:102BB000D7D30098ABF8000009484188008805B0D9
:102BC000491EBDE8F04F401E8BB282B2002108467C
:102BD000FFF756BF380000204A410008BE450008F4
:102BE000540000202DE9FF4F83B00027DDF840801E
:102BF0001D4681463C46BA464FEA5806DFF864B0A7
:102C00002AE0281B401EC1B20A2001F091FA059962
:102C1000B1FBF0F00A21B0FBF1F201FB120027B981
:102C2000691E8C4201DA40B101273030C0B28DE814
:102C3000010506FB049080B205E0202206FB04900B
:102C40008DE8040580B20849BBF800300A88049971
:102C5000FFF744FF641CE4B2AC42D2D307B0BDE836
:102C6000F08F00003A000020380000202DE9FE4FD0
:102C70001C4616460F460546DFF84C90DFF84CA080
:102C8000DFF84CB0DDF8308017E0B9F80020521EB4
:102C9000AA4217DBB9F80210491EB94212DB8DE8CF
:102CA0004101BAF80030BBF8002039462846FFF74A
:102CB00015FF05EB560085B2641C2078A0F12001B9
:102CC0005E29E2D9BDE8FE8F540000203A000020C2
:102CD0003800002010B5054C4FF000612160202124
:102CE000216000F0BBF9E014206010BD180C024018
:102CF00010B5054C4FF0006121608911216000F092
:102D0000ADF9E014206010BD180C02400148007AB3
:102D1000FFF7EEBF5400002010B50C46FFF7E8FFA8
:102D2000E0B2BDE81040FFF7D5BF000014492A22E9
:102D30004FF4A0738A812B22CA812C220A812E2271
:102D40004A8110F0030088714FF4F0720BD0012813
:102D50000DD002280FD0032811D10A804B80E82122
:102D60003620FFF7D9BF0B804A804821F8E70A8058
:102D70004B802821F4E70B804A808821F0E77047D8
:102D80005400002070B5134C4FF00060206080119B
:102D900020601148807A00F061F9182000F0F4F802
:102DA00020202060FF2000F059F9FF2000F056F9A4
:102DB0000646FF2000F052F90546002000F0E4F836
:102DC000E01420604FF6FF7000EA062141EA05009A
:102DD00070BD0000180C02405400002070B5084C73
:102DE00005464FF00060206020202060280A00F097
:102DF00035F9E8B200F032F9E014206070BD00004F
:102E0000180C0240FEE770470907090E002806DA91
:102E100000F00F0000F1E02080F8141D704700F171
:102E2000E02080F80014704770470000FEB51BA03A
:102E3000FDF7CCFE1E211E4A0846FEF747FC012581
:102E400010241CA08DE831004FF6E07633461F2297
:102E50004B212A2000F014F9154A1E215A20FEF7B2
:102E600035FC14A08DE8310033461F224B2166202B
:102E700000F006F90E4A1E219620FEF727FC0DA051
:102E80008DE8310033461F224B21A22000F0F8F8D4
:102E9000BDE8FE404FF4966001F056B8B2E2CAD4E5
:102EA000383ACDBCC6ACCFD4CABEB2E2CAD4000058
:102EB000B4590008515100002DE9F043194887B07A
:102EC00003AE0FC886E80F0000244FF0010810275A
:102ED0004FF6E0794FF47A752046FFF727FF12A0EE
:102EE000FDF774FE56F824104B468DE882011F2230
:102EF0001E21142000F0C4F8104A32211E20FEF7D3
:102F0000E5FB284601F020F8284601F01DF8641C76
:102F1000E4B2042CE0D30020FFF708FF07B0BDE8BF
:102F2000F083000034660008B2E2CAD431303AC6F9
:102F3000C1C4BBD0FDD7AAB2E2CAD400B4590008BC
:102F400010B5104C0E48022120604FF48270606072
:102F50000020A060C4E90301012161614902C4E9C4
:102F6000061020626062A0620720E0622046FFF740
:102F700089F82068016841F04001016010BD00003F
:102F800000500140640000200B4A10B511680B6826
:102F900023F040030B6011680B684FF6C7742340A1
:102FA0000B6011680B6803430B601068016841F007
:102FB0004001016010BD0000640000202DE9F047D1
:102FC0001D4690460F460446FEF7C2FC06465FEAE1
:102FD00008004FF000084FF4005A4FF0010926D0C6
:102FE00034E0681C23D025B1FEF7B2FC801BA84258
:102FF0001DD92068416821F0E00141602068016826
:1030000021F040010160A06A504509D120680168A3
:1030100021F4005101602068016841F40051016011
:1030200084F8519084F850800320BDE8F087206830
:10303000806837EA0000D4D10DE0681C06D0002D6E
:10304000D7D0FEF785FC801BA842D2D820688068C4
:1030500037EA0000F1D00020E7E7000001B582B0B8
:103060004FF47A700090012301AA02A90248FFF7E9
:1030700075F89DF804000EBD640000207047000044
:103080002DE9FF4F83B08846DDE91054064682469D
:103090004FF00009DFF8CCB0129F1DE0B9F1000F2E
:1030A00020D0BBF80010091BB14218DBBBF80200AE
:1030B000011B414513DB4FF00009202C46D0CDE920
:1030C0000057DDE90523182C4146304647D0FEF76E
:1030D00095F9301986B2AD1C28780028DED107B0EA
:1030E000BDE8F08FBBF80020A2EB5402B242F6DB41
:1030F000BBF802100A1B41464245F0DB802802D98A
:103100004FF00109E8E70D280DD0102C12D910213D
:103110008DE88300DDE9052341463046FFF7DEFCFC
:103120000836B6B210E008EB04001FFA80F85646E5
:103130006D1C09E08DE89100DDE905233046FFF7BD
:10314000CDFC06EB540086B26D1CC5E7CDE90057F7
:10315000DDE9052341463046FEF73AFAB9E7FEF7C6
:10316000C1F9B6E75400002070B51E4C92B000259E
:10317000266846F080562660246804F08054119436
:10318000194C266846F44046266024680DF1240C4C
:1031900004F4404411940124009401940224069400
:1031A0008CE80D006605CDE907616846FEF7DCFD99
:1031B00000B1FEE7FEF73CFC00B1FEE70CA90F20D2
:1031C00081E831004FF4A0500F904FF480501090E0
:1031D00005210CA8FEF770FC002800D0FEE712B015
:1031E00070BD00004038024000700040FEF7B6BBE2
:1031F0001048016841F4700101600F48016841F016
:10320000010101600C4A00210832116002680B4B79
:103210001A400260031D0A4A1A60026822F48022E2
:10322000026005480C300160024958068039086088
:103230007047000088ED00E000380240FFFFF6FE16
:103240001030002410B5FDF755FE08B1012010BD67
:10325000034902484860002010BD00001910000812
:103260003C0000202DE9F843002429A0FDF7AEFC26
:103270002D4E4FF6FF77009770883288143883B24E
:1032800014210020FFF726FA284DA046CDF8008033
:1032900004EBC400718800EB041000EB510132888C
:1032A0001E2300EB520035F814205038323900F05C
:1032B00073FE641CE4B2052CE8D340F2DC584046AF
:1032C00000F042FE009770883288143883B21421CF
:1032D0000020FFF7FFF900240127009704EBC4004A
:1032E000718800EB041000EB510132881E2300EBC3
:1032F000520035F814205038323900F04DFE641C6D
:10330000E4B2052CE9D34046BDE8F84300F01CBE0A
:10331000B2E2CAD4343A475549BBADD4B2CCEEB3CD
:10332000E4B2E2CAD40000005400002000000020F3
:103330002DE9FE43454C4FF6FF7700970021638847
:1033400022880846FFF7C6F9102641A0CDE90006FD
:1033500001254FF6E078434600221E2102951420F5
:10336000FFF78EFE4FF44879484600F0EDFD00204F
:103370000090638822880146FFF7ACF936A0CDE9BA
:10338000000643463A461E2102951420FFF778FEB8
:10339000484600F0D9FD4FF4784700970021638834
:1033A00022880846FFF796F92DA0CDE9000643468E
:1033B0001F221E2102951420FFF762FE484600F0EE
:1033C000C3FD4FF4FC60009000216388228808460A
:1033D000FFF780F924A0CDE9000643461F221E21F5
:1033E00002951420FFF74CFE484600F0ADFD1F206B
:1033F00000900021638822880846FFF76BF91CA023
:10340000CDE9000643463A461E2102951420FFF7F7
:1034100037FE484600F098FD48F230400090002109
:10342000638822880846FFF755F913A0CDE9000606
:1034300043464FF61F021E2102951420FFF720FE7F
:103440004846BDE8FE4300F07FBD00005400002068
:103450005748495445000000424C41434B0000008E
:103460005245442000000000475245454E200000D0
:10347000424C5545200000004752415900000000D1
:103480002DE9F84351A0FDF7A1FB554D1F202880E1
:103490005448FDF74BF8012453A3102232210F208A
:1034A0000094FFF7E3FB56A3102246210F2000945F
:1034B000FFF7DCFB58A310225A210F200094FFF7DE
:1034C000D5FB5BA310226E210F200094FFF7CEFBEB
:1034D0005DA3102282210F200094FFF7C7FB60A399
:1034E000102296210F200094FFF7C0FB61A3102249
:1034F000AA210F200094FFF7B9FB4FF478402880F1
:1035000000251024322742F210764FF064084FF461
:10351000FA79FCF7A5FE90FBF6F106FB11020523F4
:10352000322164200094FFF75DFBFCF799FE90FBCD
:10353000F6F106FB11020523462164200094FFF7F3
:1035400051FBFCF78DFE90FBF6F106FB1102052303
:103550005A2164200094FFF745FBFCF781FE90FBA5
:10356000F6F106FB110205236E2164200094FFF79B
:1035700039FBFCF775FE90FBF6F106FB1102052303
:10358000822164200094FFF72DFBFCF769FE90FB7D
:10359000F7F107FB11020523962164200094FFF741
:1035A00021FBFCF75DFE90FBF8F208FB12020523FD
:1035B000AA2164200094FFF715FB484600F0C4FCE4
:1035C0006D1CEDB20F2DA4D3BDE8F883B2E2CAD4CE
:1035D000393AB6AFCCACCAFDD7D6CFD4CABE0000FC
:1035E0003800002040E20100204843484F3A2020A4
:1035F00020202020202020202075672F6D33000000
:103600002020434F323A202020202020202020203C
:103610002070706D000000002054564F433A202067
:1036200020202020202020202075672F6D330000CF
:10363000504D322E353A20202020202020202020DE
:103640002075672F6D33000020504D31303A202017
:1036500020202020202020202075672F6D3300009F
:1036600020205445503A20202020202020202020B7
:1036700020430000202048554D3A202020202020C3
:1036800020202020202500002DE9F84300242EA032
:10369000FDF79CFA324F4FF6FF78CDF8008078881E
:1036A0003A88143883B214210020FFF713F82D4D07
:1036B0002D4E35F8140030807988C4EB041000EBEF
:1036C0005101A1F1140293B23A88503900EB520033
:1036D000A0F11402503892B289B280B2FEF79AFF7C
:1036E000641CE4B2052CE4D340F2DC59484600F0F7
:1036F0002BFCCDF8008078883A88143883B21421E6
:103700000020FEF7E7FF002435F8140030807988A8
:10371000C4EB041000EB5101A1F1140293B23A88FA
:10372000503900EB5200A0F11402503892B289B225
:1037300080B2FEF7BFFE641CE4B2052CE4D3484619
:10374000BDE8F84300F000BCB2E2CAD4333A4755B2
:1037500049BED8D0CECCEEB3E4B2E2CAD400000069
:103760005400002000000020380000202DE9F04F18
:103770008FB000200C900D900E90242103A8FCF730
:1037800036FF2DA0FDF722FAFFF716F9024630A109
:103790000CA8FCF79FFD10260CA8CDE9000601251A
:1037A0004FF6E0731F22192102953220FFF768FCC3
:1037B000DFF8A4B0294F00240DF10C0AA946B04649
:1037C0003BF81400388004EBC40000EB041505F14D
:1037D000410305F12D011E220A20FEF76BFE05F1C3
:1037E00037011420FFF7E0F839880646B14201D1CD
:1037F0001BA100E01BA10CA8FCF7B6FE0CAB3246E7
:103800001AA103A8FCF766FDCDF800A0CDE9018957
:1038100005F12F014FF6E0733A882820FFF730FCBE
:10382000641CE4B2072CCBD340F2DC5000F08CFBDC
:103830000FB0BDE8F08F0000B2E2CAD4323AB6C190
:103840004944BACDD1D5C9ABD6B5B2E2CAD400008D
:1038500049443A30782578000A00002038000020DA
:103860004F4B00004552524F520000007265616498
:1038700020636F6C6F723A307825303458202025E1
:10388000730000002DE9FC47002437A0FDF79EF9E6
:103890003C4F4FF6FF78CDF8008078883A8814388E
:1038A00083B214210020FEF715FF374D374E04EB8D
:1038B000840335F8140030807988C4EB041000EBE1
:1038C0005102A2F1140081B23888493A400800EB55
:1038D0008300A0F1150C1FFA8CF3CDE9003193B2EF
:1038E000A0F13302503892B280B2FDF71FFA641C87
:1038F000E4B2052CDBD340F2DC59484600F024FB4F
:10390000CDF8008078883A88143883B214210020DA
:10391000FEF7E0FE002404EB840335F81400308049
:103920007988C4EB041000EB5102A2F1140081B2BB
:103930003888493A400800EB8300A0F115039BB298
:10394000CDE9003193B2A0F13302503892B280B287
:10395000FDF790FC641CE4B2052CDCD34846BDE8BE
:10396000FC4700F0F1BA0000B2E2CAD4353A47553C
:103970004920547269616E676C65CCEEB3E4B2E2C3
:10398000CAD40000540000200000002038000020AD
:103990002DE9FE4FEFA0FDF719F9F34DF34C002090
:1039A00028802088322101EB5002494201EB50006F
:1039B00080B25A232821FEF72DFE4FF47848A5F84F
:1039C000008020884FF0FF3B0BEB50018AB26FF074
:1039D000300101EB500080B259232921FEF76AFD26
:1039E0001F2028802088312101EB500240085923F4
:1039F0002921FEF75FFD4FF6FF7AA5F800A0012709
:103A0000009720886FF01F0101EB500080B2D8A30F
:103A100010223921FFF72AF948F2304028800A267F
:103A2000009620886E2101EB5002494201EB5000C4
:103A300080B2A9239621FEF777FE4FF61F0028805B
:103A4000009620886FF06D0106EB500201EB5000EC
:103A500080B2A9239621FEF767FE009720880A23EB
:103A6000400840F2CF12A02100F096FA00202880F2
:103A7000009720886FF07C0101EB500080B2BDA35D
:103A800010229821FFF7F2F800972088732101EBAC
:103A90005000B9A310229821FFF7E8F8404628808B
:103AA0001020009020886FF00B0101EB500080B2D5
:103AB000032332227D21FFF795F80020288008207B
:103AC000009020881E2101EB5002494201EB50007A
:103AD00080B2FA23DC21FEF7BAFD4AF25160288059
:103AE0000720009020881D2101EB5002494201EB84
:103AF000500080B2F823DD21FEF716FE4FF61F00BE
:103B00002880009721886FF00E0000EB510080B2F2
:103B10009AA31022E321FFF7A9F8102099A1CDE97B
:103B20000010029720886FF02E0101EB50000B0C63
:103B300080B24246C321FFF7A3FA964C60688047E3
:103B4000207CC007FAD0A0892938312862D2874D5D
:103B500021896FF03102288802EB5002914229DD61
:103B60000BEB5002914225DA7F4E6FF0300101EBF2
:103B70005000A6F8008092B280B259232921FEF7A6
:103B800099FC1F2030802888312101EB5002400829
:103B900059232921FEF78EFCA6F800A0009728885B
:103BA0006FF01F0101EB500080B271A31022392188
:103BB000FFF75CF821892888B1EB500F2AD932220F
:103BC00002EB5002914225D2674E1F2159233180CA
:103BD0000BEB50018AB26FF0300101EB500080B264
:103BE0002921FEF767FCA6F800802888312101EB27
:103BF0005002400859232921FEF75CFCA6F800A0DA
:103C0000009728880D2101EB500063A31022392171
:103C1000FFF72CF8554D20896FF06302298802EBDD
:103C20005102904249DB642202EB5102904244D897
:103C3000A289962A41D9A92A3FD24B4E48F2304256
:103C40004FF00A0932806E2202EB51020A3880B22C
:103C5000A9239621CDF80090FEF766FD4FF61F00D0
:103C60003080CDF8009020896FF06D010A3082B26B
:103C70002888A92301EB500080B29621FEF754FD5D
:103C8000009720890A2340F2CF12A02100F084F986
:103C9000A6F80080208929881022A0EB510064300A
:103CA00000EBD070009242106FF00B0000EB51005F
:103CB00080B203237D21FEF795FF298820896FF0CC
:103CC0001D0202EB51029042FFF638AF1E2202EBBA
:103CD000510290423FF632AFA089DC287FF62EAF2A
:103CE000FA28BFF42BAF204D204E0820A5F800A0E5
:103CF000009030881E2202EB50026FF01D0000EB96
:103D0000510080B2FA23DC21FEF7A1FC42F612300A
:103D100028800720009030881D2101EB5002494285
:103D200001EB500080B2F823DD21FEF7FDFC48F2E4
:103D30001F402880009731886FF00E0000EB510083
:103D400080B20EA31022E321FEF790FFA4F808A092
:103D5000BDE8FE8FB2E2CAD431313AB4A5C3FEB099
:103D6000B4BCFCB2E2CAD4003800002054000020E9
:103D70004F4E0000300000003130300045584954AB
:103D800000000000B0B445584954BCFCCDCBB3F69C
:103D9000000000003C0000204F4646001CB52BA050
:103DA000FCF714FF2E4F4FF0010ACDF800A0388821
:103DB0002CA3203880B210220221FEF757FFDFF833
:103DC000A8904FF47846294DA9F800604FF6FF7887
:103DD00068688047287CC00734D02A8938888242A6
:103DE000F6D2AB8979888B42F2D21FFA84FCC445A3
:103DF00003D162F30F0463F31F442038824213DDC2
:103E0000122B11D2A5F8088010A0FCF7DFFECDF828
:103E100000A0388813A3203880B210220221FEF7B8
:103E200025FFA9F8006006E00220CDE90006210C7C
:103E3000A0B2FEF794FB288960F30F04A88960F311
:103E40001F44C5E768F30F04C2E70000B2E2CAD41A
:103E500031323AB4A5C3FE50454EB2E2CAD4000096
:103E60005400002052535400380000203C00002031
:103E7000054810B500688047002803D1FFF788FD8A
:103E8000FFF78CFF10BD00003C000020FEE72DE98D
:103E9000F05F15461C46DDF828B00E46074601EBDC
:103EA000040800EB050A1FFA88F11FFA8AF05A4647
:103EB000FDF702FC1FFA88F1A7EB05081FFA88F04E
:103EC0005A46FDF7F9FBA6EB04091FFA89F11FFA20
:103ED0008AF05A46FDF7F0FB1FFA89F11FFA88F0C5
:103EE0005A46FDF7E9FB06EB050907EB04081FFA44
:103EF00089F11FFA88F05A46FDF7DEFB3C1B1FFADA
:103F000089F1A0B25A46FDF7D7FB751BA9B21FFA7B
:103F100088F05A46FDF7D0FBA9B2A0B25A46BDE8D8
:103F2000F05FFDF7C9BB30380A2801D20120704785
:103F30000020704710B504460420FEF764FA0148DB
:103F4000046010BD3400002070B5054600244FF415
:103F50007A7603E0304600F005F8641CAC42F9D3F1
:103F600070BD000070B54FF0E02500216C69094A72
:103F7000AB6912685043AA699A42FCD002D2A3EB03
:103F8000020302E0A4EB02063344194413468142C3
:103F9000F1D370BD340000202DE9F84F89461E464C
:103FA000904682460024714203220A9802EB4105A2
:103FB000C8B930E0274608E03B462246494650460D
:103FC000CDF80080FFF763FF7F1CB742F4DD002DC2
:103FD00003DA05EB8405AD1D04E0A01B05EB8005AD
:103FE0000A35761E641CB442E4DDBDE8F88F334622
:103FF000224649465046CDF80080FFF748FF002D85
:1040000003DA05EB8405AD1D04E0A01B05EB80057C
:104010000A35761E641CB442E9DDE6E7FDF7A6FC2E
:104020000823022219214FF4B470FFF79DF8B42041
:10403000FFF780FFFEF7C6FB00F018F8FFF796FBCE
:10404000FFF776F9FFF720FBFFF70CF9FFF71AFCF3
:10405000FCF784FEFCF744FDFEF7E8FEFFF710FADC
:10406000FEF72AFFFFF704FFE6E70000FEB51AA0FF
:10407000FCF7ACFD012510241DA08DE831001F23A5
:10408000DE0232461E210020FDF748FB14A08DE819
:1040900031001F2332463C210020FDF73FFB17A0D3
:1040A0008DE831001F234FF61F025A210020FDF733
:1040B00035FB18A08DE831001F231A467821002017
:1040C000FDF72CFB40F2DC542046FFF73DFF204675
:1040D000BDE8FE40FFF738BFC8ABB6AFB5E7D7D3F2
:1040E000D7DBBACFB2E2CAD4B3CCD0F20000000022
:1040F000C8ABB6AFB5E7D7D300000000332E3522EA
:1041000020495053205354373739362033323058F2
:10411000343830007869616F46656E674051447489
:1041200065636820323032322D31322D323000005A
:104130000346012000E05843491EC9B2FBD2704734
:104140004FF04070E1EE100A7047000000000000E0
:104150000000000000000000040404040404000443
:10416000000000140A0A0000000000000000000027
:1041700014143F140A3F0A0A000000041E15050625
:104180000C14150F0400000012150D0A142C2A122D
:1041900000000000040A0A1E15150936000000027E
:1041A00002010000000000000000002010080808C4
:1041B000080808102000000204080808080808047D
:1041C000020000000004150E0E150400000000009F
:1041D0000404041F040404000000000000000000A8
:1041E00000000002020100000000001F00000000AB
:1041F00000000000000000000000000200000010AD
:104200000808080404020202010000000E11111146
:104210001111110E00000000040604040404040E31
:10422000000000000E1111080402011F0000000030
:104230000E11100C1010110E00000000080C0A0ADC
:10424000091E0818000000001F01010F1010110EB8
:10425000000000000E09010F1111110E00000000F6
:104260001F09080404040404000000000E11110ECC
:104270001111110E000000000E1111111E10120E6E
:104280000000000000000400000000040000000026
:1042900000000004000000040400002010080402D4
:1042A000040810200000000000001F00001F000094
:1042B00000000002040810201008040200000000A2
:1042C0000E11110804040004000000000E1119155D
:1042D000151D011E0000000004040C0A0A1E123302
:1042E000000000000F12120E1212120F0000000048
:1042F0001E1101010101110E000000000F12121227
:104300001212120F000000001F120A0E0A02121FE2
:10431000000000001F120A0E0A020207000000003F
:104320001C1201013911120C000000003312121E80
:1043300012121233000000001F0404040404041FBE
:10434000000000003E0808080808080907000000EF
:1043500037120A060A0A123700000000070202029A
:104360000202223F000000001B1B1B1B1515151528
:10437000000000003B1216161A1A12170000000067
:104380000E1111111111110E000000000F12120E6A
:1043900002020207000000000E1111111117190E80
:1043A000180000000F12120E0A121237000000004F
:1043B0001E1101060810110F000000001F15040453
:1043C0000404040E00000000331212121212120C28
:1043D000000000003312120A0A0C0404000000005E
:1043E0001515150E0A0A0A0A000000001B0A0A0425
:1043F000040A0A1B000000001B0A0A040404040E3D
:10440000000000001F0908040402121F0000001C25
:1044100004040404040404041C0000020202040452
:10442000080808100000000E080808080808080816
:104430000E0000040A000000000000000000000060
:104440000000000000000000003F00040000000029
:1044500000000000000000000000000C121C123CD4
:10446000000000000302020E1212120E00000000F3
:104470000000001C1202021C000000001810101C9A
:104480001212123C000000000000000C121E021C60
:10449000000000003804041E0404041E0000000094
:1044A0000000003C120C021E221C00000302020E3F
:1044B0001212123700000000040000060404040E6B
:1044C000000000000800000C0808080808070000A9
:1044D0000302023A0A0E1237000000000704040427
:1044E0000404041F000000000000000F151515153E
:1044F000000000000000000F121212370000000040
:104500000000000C1212120C000000000000000F4E
:104510001212120E020700000000001C1212121CE0
:10452000103800000000001B060202070000000017
:104530000000001E020C101E000000000004040E0B
:1045400004040418000000000000001B1212123CBA
:104550000000000000000037120A0C0400000000F8
:1045600000000015150E0A0A000000000000001BE4
:104570000A040A1B0000000000000037120A0C04A5
:10458000040300000000001E0804041E00000018C0
:104590000808080408080808180008080808080897
:1045A00008080808080800060404040804040404B1
:1045B00006000225180000000000000000000000B6
:1045C00000000000000000000000000000000000EB
:1045D000000808080808080800001818000000482B
:1045E0006C24120000000000000000000000000029
:1045F000002424247F1212127F12121200000000E5
:10460000081C2A2A0A0C1828282A2A1C0808000034
:104610000022251515152A58545454220000000074
:10462000000C1212120A76252911916E0000000664
:10463000060403000000000000000000000000402D
:104640002010100808080808081010204000000278
:1046500004080810101010101008080402000000D0
:10466000000008086B1C1C6B08080000000000001C
:104670000000080808087F0808080800000000007B
:104680000000000000000000000006060403000017
:10469000000000000000FE0000000000000000001C
:1046A00000000000000000000000060600000000FE
:1046B000804040202010100808040402020000007E
:1046C00000182442424242424242241800000000A4
:1046D00000080E08080808080808083E0000000046
:1046E000003C4242422020100804427E00000000AC
:1046F000003C4242201820404042221C00000000A2
:1047000000203028242422227E202078000000006F
:10471000007E0202021A26404042221C00000000D5
:1047200000382402021A26424242241800000000E7
:10473000007E222210100808080808080000000067
:10474000003C4242422418244242423C0000000005
:1047500000182442424264584040241C00000000DB
:1047600000000000181800000000181800000000E9
:10477000000000000008000000000008080400001D
:10478000004020100804020408102040000000002F
:10479000000000007F0000007F000000000000001B
:1047A000000204081020402010080402000000004D
:1047B000003C424246402010100018180000000043
:1047C000001C225A555555552D42221C0000000050
:1047D000000808181414243C224242E7000000009C
:1047E000001F2222221E22424242221F00000000FD
:1047F000007C4242010101010142221C0000000034
:10480000001F2242424242424242221F0000000058
:10481000003F4212121E12120242423F00000000EC
:10482000003F4212121E1212020202070000000094
:10483000003C2222010101712122221C0000000003
:1048400000E7424242427E42424242E7000000000C
:10485000003E0808080808080808083E0000000094
:10486000007C10101010101010101010110F00000C
:10487000007722120A0E0A1212222277000000008C
:1048800000070202020202020202427F0000000050
:104890000077363636362A2A2A2A2A6B000000008C
:1048A00000E346464A4A5252526262470000000004
:1048B000001C2241414141414141221C00000000B5
:1048C000003F424242423E02020202070000000054
:1048D000001C2241414141414D53321C6000000007
:1048E000003F4242423E1212222242C70000000014
:1048F000007C4242020418204042423E0000000078
:10490000007F4908080808080808081C0000000083
:1049100000E74242424242424242423C0000000022
:1049200000E7424222242414141808080000000062
:10493000006B4949494955553622222200000000A2
:1049400000E7422424181818242442E7000000003D
:1049500000772222141408080808081C0000000030
:10496000007E2120101008040442423F000000781D
:10497000080808080808080808080808780000005F
:104980000202040408080810102020204040001EE5
:104990001010101010101010101010101E00003801
:1049A00044000000000000000000000000000000C3
:1049B00000000000000000000000000000FF0006F2
:1049C00008000000000000000000000000000000DF
:1049D00000000000003C4278444242FC000000001D
:1049E00000030202021A26424242261A0000000078
:1049F00000000000003844020202443800000000B9
:104A00000060404040784442424264D800000000C8
:104A100000000000003C427E0202423C0000000018
:104A200000F08808087E08080808083E000000001A
:104A300000000000007C22221C023C42423C00009C
:104A400000030202023A4642424242E700000000EE
:104A5000000C0C00000E08080808083E00000000CA
:104A6000003030000038202020202020221E0000AE
:104A7000000302020272120A1612227700000000DE
:104A8000000E0808080808080808083E0000000092
:104A900000000000007F9292929292B70000000006
:104AA00000000000003B4642424242E70000000096
:104AB00000000000003C42424242423C0000000034
:104AC00000000000001B26424242221E0207000096
:104AD00000000000007844424242447840E0000078
:104AE0000000000000774C040404041F00000000D4
:104AF00000000000007C42023C40423E00000000FA
:104B000000000008083E08080808083000000000FF
:104B10000000000000634242424262DC00000000EC
:104B20000000000000E742242414080800000000F0
:104B30000000000000EB494955552222000000000A
:104B400000000000007624181818246E00000000F1
:104B50000000000000E742242414180808070000A1
:104B600000000000007E22100808447E000000C003
:104B7000202020202010202020202020C0001010E5
:104B8000101010101010101010101010101000063F
:104B900008080808081008080808080806000C3269
:104BA000C200000000000000000000000000C9EE8C
:104BB000000027FC140414A4811042084040104057
:104BC00017FC2040E0E0215022482C4620400040C5
:104BD000DBDA11041124112411241124FD241124E1
:104BE00011241124112411241D24E124422402043F
:104BF0000404CAD00200010000007FFC0100010093
:104C000001003FF82108210821082108212821104E
:104C100001000100C8AB0000000001800240043028
:104C2000180860061FF90100010001003FF80100AB
:104C3000010001007FFEB6AF0000000000203E2012
:104C4000007C002200227F22102210221222122237
:104C5000224223423D82009CB5E700000100010092
:104C60001FF0610C410441047FFC410441044104F4
:104C70007FFC01000102010201FCD7D3000000000B
:104C80003FF8001000600080010000807FFE0040BF
:104C9000004000200020002018400780BCBC1020ED
:104CA0001020102013FEFC201020102015FC18846A
:104CB0003088D04810501020105051882606CAF570
:104CC00001000120011001107FFC03800540054018
:104CD0000920111021084104810201000100010096
:104CE000D3D002000200FFFE040004000FF0081001
:104CF00018102FF0481088100FF0081008100850F6
:104D00000820CFDE00007BF84A08520853F86208FA
:104D100052084BF84A444A486A30522042104288AE
:104D200043064200B9AB008004800480084008407C
:104D300010202010420882060400044008201020A1
:104D40003FF010100000CBBE00003FF80008000844
:104D50007FE8000800081F881088108810881088D5
:104D60001F88108800280010BBB600800080FC80DF
:104D700004FC050449082A401440104028A024A03F
:104D800045108110020804040802D3AD0000208001
:104D9000133C122402240224F2241224122412B4FA
:104DA000132812201020282047FE0000C4FA090012
:104DB000090011FC3204544899501148124414441B
:104DC0001140108002005104511290120FF0B4BF34
:104DD00000000020102013FE202026244A247A24DC
:104DE0001224222423FC7C20002204227822003C6E
:104DF000C9AB0000000004000FF0102020207FFC51
:104E000020842084208420843FF820002002200277
:104E10001FFECCEE00000000204023FE204079FC65
:104E2000220423FC220423FC220423FC3A0465FA16
:104E300001980204B3E40000010001007FFE02209B
:104E40000410040808043FFC0442044004400442E7
:104E500008421042607EBED800000000207E3E80E6
:104E60004880488048FE48827F8208820C8214FA7B
:104E700012842280218040FED0CE000000007F847A
:104E80002208223022C0220222047FC8223022C2FD
:104E900022022204220822304040BBAD0000000064
:104EA0007FFE00000FF011101110111051125FF26F
:104EB0005112511251124FF240027FFCD4B2000045
:104EC00000007FFE47E24812481247E24FF25012BC
:104ED00050125112511242924472580A3FFCCDBCFA
:104EE000000000003FFE440247F24C225362408221
:104EF00043625E1A41824062430240C240223FFC4C
:104F0000C6AC000000402040204020403FFE200072
:104F1000200020003FE02010201020102010401022
:104F20004010CFD4000000003FFC200420043FFCD0
:104F3000200420041FF824441448144814480C503A
:104F400004407FFECABE000000003FFC00000000DD
:104F500000007FFE0080089008881088108420845C
:104F6000208240820780B2CB0000002008207FFE14
:104F7000002000783F881108089009207FFE0180FA
:104F800003400D30310C4002B5A5000000100810A0
:104F900004203FF8210421043FFC210421043FF8B0
:104FA00001007FFE010001000100D6D000000100D9
:104FB000010001003FFC21042104210421042104FB
:104FC00021043FFC0100010001000100D3A2000008
:104FD000000008207FFE0820092001003FF821087A
:104FE000210821081FF4014002200C10700ECEC4CD
:104FF00000000100010000803F7C08100810041030
:105000000420022002400180018002601C18E0069A
:10501000D7DB00000000102011FE2202220249FC12
:105020005800300013FE2528792401240D24722213
:1050300002A2BACF0000000001800240043018082C
:1050400060061FF800001FF820042004200420043C
:1050500020041FF8C1C10000010001007FFE000014
:105060003FF820083FF83FF8400647C24824082090
:1050700008221022603EB6C80000000000803FFEFB
:1050800044105FFC4410441043F040005FF84408B3
:10509000423041C04360BC1EB2E20000000067C263
:1050A000145205520552C552255205520552155249
:1050B0001752228222424442483ECAD400000000D5
:1050C0002014101417FE00120010601013F010903E
:1050D00010901090149214EA1F0A0006B3CC00003E
:1050E000000019FE7202120212027DFC18001BFE63
:1050F0003420502053FE10201020102013FED0F238
:105100000000000000803FFE400047FC42084130A4
:1051100040C05FFE4042404240444048404044401E
:10512000B5F70000000023FE122202FA0222E2225A
:1051300012FE1272128A128A128A16BA1A421202C7
:10514000040EB9E200000100010411080908091069
:1051500009207FFE04400440044004400842084205
:105160001042607CB0E60000000048FE49004900A3
:1051700049007EFE41824144794445284528451036
:10518000452846440382C8A800001000100013FC04
:105190007D0411041904188434885048505010209C
:1051A0001050108813041402CBF9000000003F7C5B
:1051B000204020403E40227E2244224422443E841D
:1051C00020842084408441044204C6C100003FF88A
:1051D000200820083FF8241022202FF82220222027
:1051E0003FFC22204220442084200820C4BB0440ED
:1051F0007FFC04401FF010101FF010101FF004007F
:10520000FFFE11103FF8D116115011200100D0FD02
:105210002080108010FE0100FE0021FC20243C2490
:1052200024A024A024BC24A024A04560553E8A00CC
:10523000D7AA202020202020FDFC4020504093FEB3
:10524000FC40108011FC1C04F088505010201010FD
:105250001010BFAA00007FFC0820082008200820AA
:105260000820FFFE08200820082008201020102019
:1052700020204020D4B4000027FE1420144085FCD8
:10528000450445FC150415FC2524E42024A8292404
:105290002A2230A00040D2BA0080204017FE112000
:1052A0008120423C4244166412942348E248223052
:1052B0002220225022880306BEA70FE008200820E3
:1052C0000FE0082008200FE000007EFC42844284AA
:1052D0007EFC428442847EFC4284CDF800007FFC48
:1052E00040044004421452944A54442444244A54EE
:1052F0004A5452946104400440144008D5BE102022
:10530000082008207E20003E04204420442025FC64
:10531000290429040F04F104410401FC0104B0B480
:1053200010401020102013FEFA02144410401BFEFF
:105330003088D088110810D01020105050882304D5
:10534000BCFC201020103B7C211441FE7A14A27C6E
:105350002710F97C251025FE22102A10350028FE82
:105360000000D0A310401020102011FEFC00108877
:1053700031043A0254885088905010501020105038
:1053800010881306D7BC01404120212023FE0220B3
:1053900016201BFC1220222023FCE22022202220A7
:1053A00023FE22000200B4A520202020782049FC02
:1053B00091247D24552455247DFC552454207C289B
:1053C000542457FE45028C00C3FE1110111017FC27
:1053D0001110FC0013F8120817F81A0833F8D0401F
:1053E00017FC10A0111052082406B6C1002020207E
:1053F00011FC1020002003FEF00210941050111038
:10540000109013FE1428184410820302BACD040031
:105410000E007800087C0844FF44084418441C44EB
:105420002A442A444844887C084408000800D1D50E
:10543000100008FE7F102220147C7F4444544854FE
:10544000525444544854515442284424884230828F
:10545000D6B5084008400FFC1040104033F8320821
:1054600053F8920813F8120813F8120812081FFED6
:105470001000C8DD020001007FFE400288241110E8
:105480002288044008203018DFF610101010101089
:105490001FF01010D6A70100010001007FFC0100E1
:1054A000010001003FF010100820044002800100BC
:1054B00006C01830E00EB3D610201020102011FCCA
:1054C000FC20102013FE1008180833FED0081088A6
:1054D0001048100850282010B5E302000200020016
:1054E00003FC020002003FF02010201020103FF0CB
:1054F00000002488224442448004CCAC0100010016
:105500007FFC0100028004400A203118C00601001F
:10551000088848844812481287F00000CAFD082015
:1055200049202A20083EFF442A44494488A41028E0
:10553000FE2822104210642818283444C282D7D68C
:10554000020001007FFE400280041FE00040008056
:105550000100FFFE01000100010001000500020042
:10556000CDCB03F82208120813F802080208F3F85A
:10557000124412281210128813041204280047FE45
:105580000000B3F6010001002108210821082108CC
:105590003FF80108010001004104410441044104B5
:1055A0007FFC0004C9EE00000000000010000008AD
:1055B00000080C7FFC04401001C8A00218604230B3
:1055C0001832231812C30014030004030C047FF0E4
:1055D000080F80080B4078136018332018631818E0
:1055E000831C190308180300000300000000DBDA25
:1055F00000000000000004100C04180C04108C04BF
:10560000108C04108C04108C04D08C3F108C04106F
:105610008C04108C04108C04108C04108C04108CDE
:1056200005F08C0E208C78208C20408C00808C0122
:10563000000C02000C000000CAD0000000000000B6
:1056400000300000180000180800001C1FFFE000D8
:10565000180000182007FFF0041820041820041870
:1056600020041820041820041820041820041820EE
:105670000418200418E00418400018000018000066
:105680000000D6D000000000000000000000000074
:105690000018000018000018000018003FFFFE303E
:1056A00018063018063018063018063018063FFF66
:1056B000FE3018060018000018000018000018003E
:1056C000001800000000000000000000CEC4000030
:1056D00000000000000000003800001C0000060070
:1056E000FFFFFF060030060030030060030060018A
:1056F00080C000C18000E300003600001C0000777D
:105700000003C1E01E003C60000700000000000034
:10571000000000000000B2E20000000000000000F5
:105720000000000040000321FF333983331183332D
:10573000019B33C19B33719B33199B33019B330115
:105740009B33119B3319B333303033306C0330C685
:10575000036383032E01BE00000000000000000070
:10576000CAD400000000000000000000000040005B
:10577000D83000CE1800C21C00C001FFFF0000C0DE
:10578000F800C01800C019FFC01818401818601998
:1057900018601B18611E18311C1FB139F019100058
:1057A0000F000000000000000000D7D6000000003D
:1057B00000060000000300000000C0000001C0C09F
:1057C000000107C00001FF00021FFE0007F01C00DF
:1057D00007C070000F00E0000E03F0001C0FF00087
:1057E0003C0F70003C00E0001800C0000000C0004A
:1057F0000000C00000006000000020000000370032
:105800000001FF00007FF80007F830001F80300023
:105810000080300000C03000006060000018E00030
:10582000000FC0000006000000000000CCE50000F2
:10583000000000000000000000C0000000E00020A8
:1058400001B800703FF80061FFC000C3030001C64B
:105850000600038C060003080C0006080C000E1856
:10586000183F1E101BF31F903F0700803C1C019047
:10587000707C019060FE01A0C3F801A00FD803A0C6
:105880000818036000180340001803C000180380C4
:1058900000180300001800000018000000100000AD
:1058A0000030000000300000000000000000B2E204
:1058B00000000000000000000000000000000000E8
:1058C000020C1008071FF80403BFF00201BC3003EC
:1058D00003EC3003015C600300D8600300D8600370
:1058E0008098620361B8430771B1430631324306C1
:1058F0003376C3063A64C7063EECC0063E78C0065F
:105900003C3040067C70000678E060067BFFF006C5
:10591000F7C00006E4000006400000060000000694
:105920000000007C00008FF000007C000000000000
:10593000CAD40000000000000000000000000000C9
:105940003F0000007F8000000180000000C00000D8
:1059500000C0000000CE038000CFFFC000DD41800A
:105960000FFE0007FFFC000C00F000180FC03E19EE
:10597000FF40F311BC6083307FE003B1FE200333AE
:10598000802003700030036000100360001807C01F
:10599000000C07C0000407800002010000030000A3
:1059A00000010000000000000000000000000000F6
:1059B00000000000FFFFFFFFFFFFFFFFFFFFFFFFF3
:1059C000FFFFFFFFFFFFFFFFFFFFFFFFFFFFFFFFE7
:1059D000FFFFBEF7FFFFDEFF38C6928C8E6B6E6B4B
:1059E000107C96AD3CE7FFFFFFFFFFFFFFFFFFFFCF
:1059F000FFFFFFFFFFFFFFFFFFFFFFFFFFFFFFFFB7
:105A0000FFFFFFFFFFFFFFFFFFFFFFFFFFFFFFFFA6
:105A1000FFFFFFFFFFFFFFFFFFFFFFFFFFFFFFFF96
:105A2000FFFF5DEF159D4F636C420A3288294619CE
:105A300025194521E8318E6B38C6FFFFFFFFFFFFB8
:105A4000FFFFFFFFFFFFFFFFFFFFFFFFFFFFFFFF66
:105A5000FFFFFFFFFFFFFFFFFFFFFFFFFFFFFFFF56
:105A6000FFFFFFFFFFFFFFFFFFFFFFFFFFFFFFFF46
:105A700036A51053104B51530F4B6C3AE931672147
:105A80002519E410A30862008308CB529AD6FFFFC1
:105A9000FFFFFFFFFFFFFFFFFFFFFFFFFFFFFFFF16
:105AA000FFFFFFFFFFFFFFFFFFFFFFFFFFFFFFFF06
:105AB000FFFFFFFFFFFFFFFFFFFFFFFF3CE77063FC
:105AC000B363B87CF56311434D32EA298821261966
:105AD0000519051904110411E4108300A308728C40
:105AE000FFFFFFFFFFFFFFFFFFFFFFFFFFFFFFFFC6
:105AF000FFFFFFFFFFFFFFFFFFFFFFFFFFFFFFFFB6
:105B0000FFFFFFFFFFFFFFFFFFFFDBDE4B3AF0422F
:105B1000356C544BB1322E2AEB21A9216719051996
:105B2000041104110411041104110519E4104200B8
:105B3000AF73FFFFFFFFFFFFFFFFFFFFFFFFFFFF51
:105B4000FFFFFFFFFFFFFFFFFFFFFFFFFFFFFFFF65
:105B5000FFFFFFFFFFFFFFFF5DEF09324C32104BED
:105B60008F324F2A2E2ACC198919892147190519F4
:105B700004110411C410C410041104110411E41020
:105B800042003184FFFFFFFFFFFFFFFFFFFFFFFF2A
:105B9000FFFFFFFFFFFFFFFFFFFFFFFFFFFFFFFF15
:105BA000FFFFFFFFFFFFFFFFEC5247194C320B2AAC
:105BB000EC21EC210C22915BEE4A06112619041906
:105BC000E410E410A7296621A308051904110411A3
:105BD000E4108200F7BDFFFFFFFFFFFFFFFFFFFFA5
:105BE000FFFFFFFFFFFFFFFFFFFFFFFFFFFFFFFFC5
:105BF000FFFFFFFFFFFF35A583088821882189214A
:105C0000AA218A216B42718CFFFF728C83080411D8
:105C1000C4082942FBDE5DEFEC5A8308041104112D
:105C200004118308E831DFFFFFFFFFFFFFFFFFFFE5
:105C3000FFFFFFFFFFFFFFFFFFFFFFFFFFFFFFFF74
:105C4000FFFFFFFFBEF7C731C410251926194719FA
:105C50004719A8298A52284A55ADFFFFE831A30801
:105C600005194D6B4D6BFFFF7DEF4521C4100411ED
:105C700004110411620076ADFFFFFFFFFFFFFFFF7D
:105C8000FFFFFFFFFFFFFFFFFFFFFFFFFFFFFFFF24
:105C9000FFFFFFFF96B562000411041905110519F5
:105CA000C4088B4AB6B55DEFF7BDFFFF8E6B62008F
:105CB0002942AA5A0842FFFFFFFFCC528308041171
:105CC00004110411A308AD52FFFFFFFFFFFFFFFF08
:105CD000FFFFFFFFFFFFFFFFFFFF1CE7FFFFFFFFCF
:105CE000FFFFFFFF4E636200041104110411E41072
:105CF00062008E63FFFFFFFFFFFFFFFFCF73010016
:105D0000F39C2C6396B5FFFFFFFF2D5B830004110E
:105D100004110411E41067213DEFFFFFFFFFFFFFB7
:105D2000FFFFFFFFF8BDB7B59EEFCB52B394FFFF67
:105D3000FFFFDFFFE831A30804110411041104116F
:105D4000A3084942FFF7FFF7FFFFFFFF6A4A010080
:105D50007284FFFFFFFFFFF7DFEF093AA30804118A
:105D6000041104110411051118BEFFFFFFFFFFFF0E
:105D7000FFFFFFFFF07B6200E831C731410035A52E
:105D8000FFFF5DEF4621C41004110411041104113A
:105D9000E410A308769DFFF7FFFFB7ADA308A308A3
:105DA000C7319EE7FFF7FFF776A5A308E4100411BB
:105DB000041104110511051135A5FFFFFFFFFFFFB9
:105DC000FFFFFFFFDBDEA7298300C410C410C4104F
:105DD0001CE79EEF0511E4100411041104110411D5
:105DE0000419C408E510D16BD16BC5086400A5087F
:105DF00043002B32779DB3842519C410041104117C
:105E00000411041125192609359DFFFFFFFFFFFF2F
:105E1000FFFFFFFFFFFFAF73620004190519820047
:105E20000D5B8E9B62100511041104110419E4101E
:105E300085000511C439815A407B229C43AC03A4E0
:105E4000839B82728249C218A400C500E410041921
:105E50000411051947196711EC5ABEFFFFFFFFFF38
:105E6000FFFFFFFFDFFFDBDEC410E41004110511AC
:105E7000A41801C08388E40005190419C508442149
:105E8000438323D542FEE4FE27FF07FFA4FE64FE02
:105E900003FEA3FDE2FC42EC83B32462E510C408D8
:105EA00004192619A81987210090D3BCFFFFFFFF12
:105EB000FFFFFFFFDFFFFFFF107C42000519051108
:105EC000832801D044F8A348E400C508445A02EDF1
:105ED000E2FD02FE66FE74FFB8FF73FFE7F6A6F66A
:105EE00045F6A4F5C3FC62FCC2FCC2FCE3CBC4498A
:105EF000061188198701A49001F8EC9AFFFFFFFFB3
:105F0000FFFFFFFFFFFFFFFFBEF7E831830005093A
:105F1000824001C023F885F0A348A400445A02FD42
:105F200023CCC2DC04FE28FE48F646F624F6E4F54F
:105F300064FDE3FC62FCC2FC02E402DCE2FCA47A45
:105F400048016701C47824F802F884B07DE7FFFFB8
:105F5000FFFFFFFFFFFFFFFFFFFFDBDE2519A300B1
:105F6000C43802E022D844F8A6F8A478630043219C
:105F700083728339829B21F561FD22FDE2FCA2FC44
:105F800042FC42FC42FC22AB8341C39204522601F4
:105F90002519A49844F823F802F8A4D09EEFFFFF37
:105FA000FFFFFFFFFFFFFFFFFFFFFFFF9AD68729DD
:105FB000A50043B822F823E065F8E8F807C983484C
:105FC0004200A30084006329A27A62B3A2CB62D309
:105FD00002BB828A8339A400E500E500E508C460BD
:105FE00064D844F824F823F802F88388DBC6FFFF5E
:105FF000FFFFFFFFFFFFFFFFFFFFFFFFFFFF3DE78B
:10600000505B083123E843F844F065F809F9ABF92F
:1060100089D10689A348421802004200610082002B
:10602000620062008300A320C450A58885D865F86B
:1060300044F844F823F823F803D08210C7295DEF11
:10604000FFFFFFFFFFFFFFFFFFFFFFFFFFFFFFFF60
:10605000FFFF6C32A53802D823F865F866F8A7F878
:106060004AF90CFA4DFA4CEA0BD2A9B968B147A922
:1060700027B107B907D1E7E8C7F8A7F865F865F8C9
:1060800044F823F803F802D0A3280509C408EC5A01
:10609000FFFFFFFFFFFFFFFFFFFFFFFFFFFFFFFF10
:1060A000FBDE0519C400A741E6C003F886F8A7F88F
:1060B00087F886F8C7F829F98AF9ABF9ABF98BF9B3
:1060C0006AF929F908F9C7F8A6F886F865F864F8B6
:1060D00023F802F006B12529E400E410251925195A
:1060E000149DFFFFFFFFFFFFFFFFFFFFFFFFFFFF0D
:1060F00096AD620082083595BACE8BA244D025F8C1
:1061000087F8A7F8C7F8A7F887F886F886F886F81A
:1061100087F8A7F8A7F8A6F885F865F864F824F0DA
:1061200064B80D93BBB6CF6383080411E4106621F5
:10613000493A5DEFFFFFFFFFFFFFFFFFFFFFFFFF9C
:10614000D3944200E410BBCEFFFFBEE776B5CCAAE5
:1061500007C145E045F846F866F886F886F886F8FF
:1061600086F865F845F865F865E844D043A80188E5
:1061700082903CD7FFEF559583080411041105194F
:106180004619B394FFFFFFFFFFFFFFFFFFFFFFFF75
:10619000B394410086215DDFFFFFFFFFFFFFDFE7D4
:1061A0007AC6D3B44EB32AC268D1E6E0A6E8A5E821
:1061B000A5E8E6D888C906A922A802A800A000C8B8
:1061C00000D8F7E5FFE7F8ADC410E4100411E410BF
:1061D00005118B4AFFFFFFFFFFFFFFFFFFFFFFFFE0
:1061E00055A54100A7295DDFFFF7FFFFFFFFFFFF78
:1061F000FFFFFFFFFFEF7DDFDBCE59CEF8CDD7CD20
:10620000F7C579CEFBBEABA203F045F842D043E818
:1062100000F072D4FFDF39AEE410E4100411E41092
:1062200005118729FFFFFFFFFFFFFFFFFFFFFFFFB4
:1062300059CE830846211CD7FFF7FFFFFFFFFFFF62
:10624000FFFFFFFFFFFFFFFFFFFFFFFFFFFFFFFF5E
:10625000FFFFFFFFFFEF8BBA04F845F862E044F060
:1062600000F88EDBFFDFF8A5C410E410E410041181
:10627000E4102519FFFFFFFFFFFFFFFFFFFFFFFFF8
:10628000BEF78729830839B6FFF7DFF7FFFFFFFF67
:10629000FFFFFFFFFFFFFFFFFFFFFFFFFFFFFFFF0E
:1062A000FFFFFFFFBEE74ABA03F845F864F844F879
:1062B00000F86EE3FFD7F48C83080411E410E410B7
:1062C000E4100519FFFFFFFFFFFFFFFFFFFFFFFFC8
:1062D000FFFFEF7300007284FFEFBEEFDFFFFFFFF1
:1062E000FFFFFFFFFFFFFFFFFFFFFFFFFFFFFFFFBE
:1062F000FFFFFFFFDFE78BBA03F845F845F823F807
:1063000000F8D3D4FFD74E5B2100293A55A5830866
:10631000C4102519FFFFFFFFFFFFFFFFFFFFFFFF77
:10632000FFFFFBDEA308E8319EDF9EE7BFEFFFFF24
:10633000FFFFFFFFFFFFFFFFFFFFFFFFFFFFFFFF6D
:10634000FFFFFFFFFFF751BC02E003F803F043E05B
:10635000ECC27ECFFCBE46212100D394FFFF5184C6
:1063600000008729FFFFFFFFFFFFFFFFFFFFFFFF89
:10637000FFFFFFFF51840000F48CFFEF9EE7BFEFAB
:10638000DFFFFFFFFFFFFFFFFFFFFFFFFFFFFFFF3D
:10639000FFFFFFFFFFFF3DDF55BD52BC72BCB7B52D
:1063A0005DC7FFDFF06B0000093ABFF7FFFFFFFF9B
:1063B000149D55A5FFFFFFFFFFFFFFFFFFFFFFFF3E
:1063C000FFFFFFFFFFFFAC4AA408BBBEDFE77EE78D
:1063D000BEEFDFF7DFFFFFFFFFFFFFFFFFFFFFFF66
:1063E000FFFFFFFFDFFFDFF7FFEFDFDFBFD79ED746
:1063F000DFDFD8A583082611DBD6FFFFFFFFFFFFF5
:10640000FFFFFFFFFFFFFFFFFFFFFFFFFFFFFFFF9C
:10641000FFFFFFFF79EE8BDC2131A9213DCFBFDFEC
:106420007EDF9EE7BEEFBFEFDFF7DFF7DFF7DFF7D7
:10643000DFF7BFEFBEEF9EE77EDF5ED75ED7DFDF21
:106440009AB626194208EDA3BFFFFFFFFFFFFFFF2B
:10645000FFFFFFFFFFFFFFFFFFFFFFFFFFFFFFFF4C
:10646000FFFF74DDC0DB00FE42EE024289217BB6F5
:10647000DFDF7ED77EDF7EDF9EE79EE79EE79EE73B
:106480009EE77EDF7EDF5DD75DD79EDFFFE7F8A565
:106490000711E31802C560FDE6D3DBEEFFFFFFFF47
:1064A000FFFFFFFFFFFFFFFFFFFFFFFFFFFFFFFFFC
:1064B0009EF784BAC1FC42FE82FEA2FE8183452182
:1064C00074745EC7DFDF7ED75ED75DD75ED75ED7D9
:1064D0005DD75DD75ED79EDFFFE73DC7F1638408D8
:1064E000425226E629FF86FEE0F36AC3FFFFFFFF64
:1064F000FFFFFFFFFFFFFFFFFFFFFFFFFFFFFFFFAC
:1065000018DEC1D2A2FD22FE42FE42FE62FEE2D4AD
:10651000416A494253743BA63EC7BFD7BFD7BFD7D6
:10652000BFDFBFD73EC71AA6F263A729824122B4B4
:1065300062FE83FEAAFE0FFF67FD63BA3CEFFFFF1A
:10654000FFFFFFFFFFFFFFFFFFFFFFFFFFFFFFFF5B
:106550009AE680D221FDC2FDE2F5C2F582F582FD08
:1065600062FD61DC219B846AE96A2C63AF6311746C
:106570006E632C63895A0452817AC2CBE2FC62FDBD
:1065800082FDC2FDC2FDE4FD24FD62CA1CE7FFFFDF
:10659000FFFFFFFFFFFFFFFFFFFFFFFFFFFFFFFF0B
:1065A000FFFFB1CC81D2C0F3C1FC02FD02FDE2FCD1
:1065B000C2FCC2FC81FC80FBC0C9A48135AD59CEB0
:1065C000719C218100DAA1FB82FCA2FC82FCA2FC6E
:1065D00002FD22FDE2FC00FC60DA90CCFFFFFFFF31
:1065E000FFFFFFFFFFFFFFFFFFFFFFFFFFFFFFFFBB
:1065F000FFFFFFFF59DE0DC406CBE4D203DB03DB54
:10660000E3DAC3D2A4C209B3D2BC9EF7FFFFFFFFF7
:10661000FFFFFBE60EB4A6BA83D2E3E202EB22EB65
:1066200022E303DBE4D26AC3B6D5FFFFFFFFFFFF1F
:10663000FFFFFFFFC0660008B4660008A4660008FC
:106640009466000800000000010203040102030434
:106650000607080903000900303132333435363774
:106660003839414243444546403058003031323396
:106670003435363738396162636465664030780096
:1066800004000008000000000000000200010000FB
:1066900010000000526F746174696F6E3A323730C7
:1066A00000000000526F746174696F6E3A313830C7
:1066B00000000000526F746174696F6E3A393000E7
:1066C000526F746174696F6E3A300000EC660008B6
:1066D0000000002054000000E801000840670008A6
:1066E00054000020AC0700000402000800F8E00796
:1066F0001F00E0FF1FF800F81FF8E007CF011F00A0
:1067000000001F84000000000024F40000000000CE
:106710000000000001020304060708090000000051
:10672000000000000000FFFF4532000800000000EC
:106730000000000000000000000000000000000059
:04000005080001AD41
:00000001FF
