:1003250012000374FFFFFE1201677FE81204D57FF8
:10033500E81204D5E4FFFE1201677FE81204D57FB9
:10034500E81204D57F007EF81201677FE81204D514
:100355007FE81204D57FE07E071201677FE812046B
:10036500D57FE81204D57F1F7E001201677FE81252
:1003750004D57FE81204D57F007EF81201677FE877
:0A0385001204D57FE81204D5809918
:1004D500007D477C11ED1D70011C144C70F7DFF099
:0104E50022F4
:1004E600007D047C00ED1D70011C144C70F7DFF0DC
:0104F60022E3
:0A0514004200000000420002FFFF59
:0A051F00C293C29212042BD2932261
:03050700A3E0FF6F
:0A050A00C293D29212042BD2932266
:10048100900021EEF0A3EFF0C293D292900021E010
:10049100FF12042B900021A3E0FF12042BD2932220
:1004F700900013EDF012051F900013E0FF02050AAC
:0905290090000BA3E0FF02051F86
:08016700900013EEF0A3EFF08D
:10016F00900005E024FFFB900004E034FFFA9000BC
:10017F0007E024FFFE900006E034FF90001FF0A37D
:10018F00CEF0E4FDFCFFFE12038FC293D292E490F7
:10019F000015F0A3F0900004E0FEA3E0FFC3900071
:1001AF0016E09F900015E09E504DE4900017F0A3CD
:1001BF00F0900006E0FEA3E0FFC3900018E09F90D0
:1001CF000017E09E5021900013E0FF12042B9000C7
:1001DF0013A3E0FF12042B900018E004F070D290EC
:1001EF000017E004F080CA900016E004F070A690AB
:0901FF000015E004F0809ED2938B
:0102080022D3
:10045700AB07AA068D828C83C006C007AE83AF8226
:1004670090001FEEF0A3EFF0D007D00612038F9095
:0A0477000000E0FEA3E0FF02048194
:1004C000D2B37F321204D5C2B37F321204D5D2B375
:0504D0007F320204D59B
:100003001205321204C07F1112051F7F781204D526
:100013007F3612051F7F4812050A7F3A12051F7F9C
:100023005512050A7FF012051F7FC312050A7FF0E0
:1000330012051F7F9612050A7FB412051F7F011256
:10004300050A7FB712051F7FC612050A7FC0120576
:100053001F7F8012050A7F4512050A7FC112051F03
:100063007F1312050A7FC212051F7FA712050A7F9D
:10007300C512051F7F0A12050A7FE812051F7F407C
:1000830012050A7F8A12050AE4FF12050AE4FF1229
:10009300050A7F2912050A7F1912050A7FA5120591
:1000A3000A7F3312050A7FE012051F7FD012050A6B
:1000B3007F0812050A7F0F12050A7F0612050A7FC1
:1000C3000612050A7F3312050A7F3012050A7F33B1
:1000D30012050A7F4712050A7F1712050A7F1312BA
:1000E300050A7F1312050A7F2B12050A7F311205B9
:1000F3000A7FE112051F7FD012050A7F0A12050A43
:100103007F1112050A7F0B12050A7F0912050A7F68
:100113000712050A7F2F12050A7F3312050A7F474C
:1001230012050A7F3812050A7F1512050A7F161277
:10013300050A7F2C12050A7F3212050A7FF0120589
:100143001F7F3C12050A7FF012051F7F6912050A03
:100153007F781204D57F2112051F7F2912051FE422
:04016300FF0202098C
:10038F00900019EEF0A3EFF0A3ECF0A3EDF0A3EAC9
:10039F00F0A3EBF090000FA3E0FF12051F900019E0
:1003AF00E0FF12050A90001912050790001DE0FFEB
:1003BF0012050A90001D120507900011A3E0FF120D
:1003CF00051F90001BE0FF12050A90001BA3E0FF22
:1003DF0012050A90001FE0FF12050A90001FA3E00C
:0703EF00FF12050A020529B7
:1004A100AB07AA068D828C83C006C007AE83AF82DC
:0F04B10090001FEEF0A3EFF0D007D00602038FEC
:1002090090000FE4F0A3742AF0A3E4F0A3742BF098
:1002190090000BE4F0A3742CF0A3E4F0A3742EF087
:10022900EF540390000AF014602014603314604600
:100239002403705B9000047401F0A37440F0A3746C
:1002490001F0A374E0F07D4880409000047401F04F
:10025900A374E0F0A37401F0A37440F07D28802A10
:100269009000047401F0A37440F0A37401F0A37426
:10027900E0F07D8880149000047401F0A374E0F02C
:10028900A37401F0A37440F07DE87F361204F722CD
:070532004391405392BF22E8
:02042B00AD071B
:10042D00E4FC74807E00A804088006CEA2E713CEFB
:10043D0013D8F8FFEDFBEF5B6004D2958002C295F7
:09044D00C297D2970CECB408D957
:010456002283
:1003F600E4FDFCED25E0FD74807E00A8040880067F
:10040600CEA2E713CE13D8F86004D2958002C29527
:10041600C297309606ED4401FD8000D2970CECB4ED
:0404260008D1AF0545
:01042A0022AF
:0300000002029960
:0C029900787FE4F6D8FD7581070202E0D2
:1002A500020325E493A3F8E493A34003F68001F247
:1002B50008DFF48029E493A3F85407240CC8C3335A
:1002C500C4540F4420C8834004F456800146F6DF29
:1002D500E4800B0102040810204080900514E47EA0
:1002E500019360BCA3FF543F30E509541FFEE4931E
:1002F500A360010ECF54C025E060A840B8E493A3E5
:10030500FAE493A3F8E493A3C8C582C8CAC583CA0F
:10031500F0A3C8C582C8CAC583CADFE9DEE780BEC7
:01051E0000DC
:00000001FF
