:020000040800F2
:1000000000080220E102000815310008412600081E
:10001000ED020008890700082943000800000000DD
:100020000000000000000000000000007B34000819
:10003000450C0008000000001731000831360008A8
:10004000FB020008FB020008FB020008FB0200089C
:10005000FB020008FB020008FB020008FB0200088C
:10006000FB020008FB020008FB020008FB0200087C
:10007000FB020008FB020008FB020008FB0200086C
:10008000FB020008FB020008FB020008FB0200085C
:10009000FB020008FB020008FB020008FB0200084C
:1000A000FB020008FB020008FB020008FB0200083C
:1000B000FB020008FB020008FB020008FB0200082C
:1000C000FB020008FB020008FB020008FB0200081C
:1000D000FB020008FB020008FB020008FB0200080C
:1000E000FB020008FB020008FB020008FB020008FC
:1000F000FB020008FB020008FB020008FB020008EC
:10010000FB020008FB020008FB020008FB020008DB
:10011000FB020008FB020008FB020008FB020008CB
:10012000FB020008FB020008FB020008FB020008BB
:10013000FB020008FB020008FB020008FB020008AB
:10014000FB020008FB020008FB020008FB0200089B
:10015000FB020008FB020008FB020008FB0200088B
:10016000FB020008FB020008FB020008FB0200087B
:10017000FB020008FB020008FB0200080000000070
:10018000FB020008FB020008FB020008FB0200085B
:10019000FB020008FB020008FB020008FB0200084B
:1001A000FB020008FB020008FB020008FB0200083B
:1001B000FB020008FB020008FB020008FB0200082B
:1001C000FB020008FB02000800000000FB02000820
:1001D000FB020008FB020008FB020008FB0200080B
:1001E000FB020008FB020008FB020008FB020008FB
:1001F000FB020008FB02000800F002F800F046F8DD
:100200000AA090E8000C82448344AAF10107DA4571
:1002100001D100F03BF8AFF2090EBAE80F0013F07D
:10022000010F18BFFB1A43F001031847A46900002F
:10023000C4690000103A24BF78C878C1FAD85207C0
:1002400024BF30C830C144BF04680C607047000050
:100250000023002400250026103A28BF78C1FBD8CF
:10026000520728BF30C148BF0B607047782900F0A3
:10027000BB80732900F04982002070471FB504F04D
:10028000E1F900F08EF91FBD10B510BD00F041FA84
:100290001146FFF7F3FF04F044F900F05FFA03B4EE
:1002A000FFF7F2FF03BC00F069FA00000B49D1F838
:1002B00000C04A685CF8043B1068184442F8040B1C
:1002C0008C4528BFA1F1DC0C8A4228BFA1F1DC02D9
:1002D000C1F800C04A6020F000407047940102203D
:1002E0000948804709480047FEE7FEE7FEE7FEE7CA
:1002F000FEE7FEE7FEE7FEE7FEE7FEE70448054906
:10030000054A064B7047000035360008F901000821
:100310000002022000080220000402200004022043
:100320000FB41CB5074B06AA7B446946009005989C
:1003300000F0C1F90020694600F0D0F91CBC5DF85E
:1003400014FB0000B103000070B504468569006825
:10035000C10601D5302600E02026C00707D070BDB9
:10036000D4E9012130469047206A401C20626D1E6E
:10037000F6D570BD70B5044685690078C00707D111
:1003800070BDD4E9012120209047206A401C2062E2
:100390006D1EF6D570BD70B50C460546012A05D018
:1003A0002878800600D5EA69002302E0012305E0F1
:1003B0005B1C934202D2E05C0028F9D1A869E618E0
:1003C000C01AA861286A184428622846FFF7BCFFB3
:1003D00004E0D5E9012114F8010B9047B442F8D3A9
:1003E0002846FFF7C7FF70BD70B504460D4621468D
:1003F0001068AFF300802188090502D50F4A7A44BE
:1004000002E00E4A7A440E32002104F1240305E092
:1004100000F00F060009965D5E54491C0028F7D1D4
:1004200020780023000704D5702D02D009B10223E3
:1004300011322046BDE8704000F0DEB85A67000077
:100440002DE9F05F894604464FF0000ADFF824B139
:10045000FB44C0F820A02046E168884700287DD0F2
:10046000252806D0D4E901219047206A401C20624B
:10047000F1E700255F462046E168884720280646C8
:1004800007DB312E05D2B81910F8200C08B105434E
:10049000F1E7A80701D525F00405C4F81CA0002742
:1004A000C4F818A02A2E09D0304603F09CFF38B3B8
:1004B00004EB8708303EC8F8186019E059F8041BAF
:1004C000204604EB87029161E1688847012F0646C8
:1004D00018D1E069002820DA25F020051DE0D8F8C1
:1004E000180000EB800006EB40003038C8F8180018
:1004F0002046E1688847064603F075FF0028EED1E4
:10050000012F0AD02E2E08D12046E16888477F1C93
:100510000646022F45F02005C4DBA069002803DA57
:10052000404245F00105A061E80701D025F0100523
:10053000A6B1A6F14100192802D8203645F400657D
:100540004A463146204625604D46FFF78FFE60B192
:10055000012807D0ED1D25F0070000E007E000F1BD
:10056000080978E705F1040975E730467AE7206A5B
:10057000BDE8F09F306700000B4910B5A1F17C0287
:100580000A4CC2E93712372106E000EB104342F86B
:100590002130074B00FB03400B1EA1F10101F4DCED
:1005A00010BD0120E8E7000034010220E119D66601
:1005B000CD0D010010B5431C02E010F8011B71B114
:1005C0008107FAD14FF0013202C88C1A8C4314EA29
:1005D000C211F9D0C01A0A0603D0C01E10BDC01A3D
:1005E00010BD0A0401D0801E10BD0902FCD0401EBF
:1005F00010BD7047704770472DE9F0470D4699468A
:100600009246044600F124080168880604D5E06992
:1006100021F01001216000E00120A84201DD471B0C
:1006200000E00027A1697A1902EB0900081AA0610D
:100630002078C00602D42046FFF786FE002608E098
:10064000D4E901211AF806009047206A401C761C64
:1006500020624E45F4DB2078C0060AD52046FFF71D
:1006600073FE06E0D4E9012130209047206A401C47
:100670002062381EA7F10107F4DC07E0D4E901216C
:1006800018F805009047206A401C2062281EA5F13A
:100690000105F3DC2046FFF76DFE2078000602D549
:1006A0000220BDE8F0870120FBE7000001694A1C39
:1006B00002610878704700B58FB0CDE901310021A3
:1006C000059105497944CDE9031011466846FFF7C5
:1006D000B7FE0FB000BD0000E5FFFFFF0A6802F89B
:1006E000010B0A60704710B5436913B1AFF3008086
:1006F00001E0FFF750FE012010BD127800F1240147
:100700000A7000224A700122EDE711684FF0FF32B3
:10071000E9E7754600F02CF8AE46050069465346F9
:1007200020F00700854618B020B5FFF7E7FDBDE8CB
:1007300020404FF000064FF000074FF000084FF048
:10074000000B21F00701AC46ACE8C009ACE8C009D9
:10075000ACE8C009ACE8C0098D46704710B5044646
:10076000AFF300802046BDE81040FFF798BD0000C1
:10077000004870479C010220704700000149182082
:10078000ABBEFEE726000200FEE70000184830B5C9
:1007900087B0016841F080010160016801F08001CB
:1007A0000591016841F48071016000686946114C4F
:1007B00000F480700590402000900120019002908C
:1007C00003200390204601F029F80B4D08210091E9
:1007D0006946284601F022F801222046402101F016
:1007E00044F901222846082101F03FF907B030BD45
:1007F00030380240001C0240002002402DE9F04148
:10080000374F80460024386820F0C00038603868D0
:1008100038602546334E00224021304601F025F94C
:10082000032003F017FE01223046402101F01DF99C
:1008300060060821040E384601F012F900281CBF9A
:10084000601CC4B2681CC5B2082DE4D3B8F1000F17
:100850004FF000024FF04001304621D001F005F981
:100860003968384621F0C0013960396841F04001EB
:1008700039600022082101F0F8F8012003F0EAFDB8
:1008800001223046402101F0F0F8012003F0E2FDA2
:1008900000223046402101F0E8F82046BDE8F08112
:1008A00001F0E3F83968384621F0C0013960396851
:1008B00041F0400139600122082101F0D6F8012001
:1008C00003F0C8FD01223046402101F0CEF801209E
:1008D00003F0C0FD00223046402101F0C6F8DCE7FD
:1008E00000200240001C02402DE9F0411B4F05464C
:1008F000386820F0C0003860386840F04000386048
:10090000174E00224021304601F0AFF8002415F0C8
:10091000800F05D001223846082101F0A6F804E036
:1009200000223846082101F0A0F868060122050ED1
:100930003046402101F099F8012003F08BFD0022A0
:100940003046402101F091F8012003F083FD601C46
:10095000C4B2082CDBD3BDE8F081000000200240C7
:10096000001C024070B5134C206820F0C0002060CD
:10097000206840F04000206001222046082101F05C
:1009800074F80D4D01224021284601F06EF8012037
:1009900003F060FD00222046082101F066F80120E6
:1009A00003F058FD2846BDE870400022402101F0C8
:1009B0005CB8000000200240001C024070B5134CDF
:1009C000206820F0C0002060206840F040002060D7
:1009D0000F4D00224021284601F047F80022204612
:1009E000082101F042F8012003F034FD01222846DD
:1009F000402101F03AF8012003F02CFD2046BDE82B
:100A000070400122082101F030B8000000200240AF
:100A1000001C024070B52A4E0024306820F0C0004F
:100A200030603068306001220821304601F01DF846
:100A3000012003F00FFD234D01224021284601F043
:100A400014F8012003F006FD0821304601F008F8F3
:100A500000282ED0601CC4B2FA2C24D93068344649
:100A600020F0C0003060306840F04000306000226C
:100A70002846402100F0F9FF00222046082100F01E
:100A8000F4FF012003F0E6FC01222846402100F09B
:100A9000ECFF012003F0DEFC01222046082100F0DB
:100AA000E4FF012070BD0821304600F0D9FF002886
:100AB000D0D100222846402100F0D7FF002070BD91
:100AC00000200240001C024070B4BFF34F8FBFF300
:100AD0006F8F1A4900200860194D296841F40031D0
:100AE0002960BFF34F8FBFF36F8F16490860BFF3C4
:100AF0004F8F081F006843F6FF76134AC0F34E3C41
:100B0000C0F3C90406EA4C11204641EA8073136021
:100B1000401EFAD2BCF1010CF4D2BFF34F8F28680B
:100B200040F480302860BFF34F8FBFF36F8F0748CA
:100B3000016841F00401016070BC704750EF00E0B3
:100B400014ED00E084ED00E060EF00E09CEF00E0D9
:100B500030B583B01DA000F077F810244FF6E07395
:100B60001FA000250295CDE900041F221E210A20A6
:100B700002F084FC23A04FF6E073CDE900041F22AD
:100B8000029532210A2002F079FC18204FF6E0731A
:100B900022A101240294CDE900101F2246210A203F
:100BA00002F06CFC20204FF6E07322A102941F2279
:100BB000CDE9001064210A2002F060FC03B04FF47C
:100BC0009660BDE8304003F01FBC0000B2E2CAD41A
:100BD000373AD6D0CEC4CFD4CABEB2E2CAD400000F
:100BE00031365831363AC8ABB6AFB5E7D7D3BCBC0F
:100BF000CAF5D3D0CFDEB9ABCBBEBBB6D3ADC4FA4A
:100C00000000000031365831363A57656C636F6D1D
:100C100065C8ABB6AFB5E7D7D30000003234583261
:100C2000343AC9EEDBDACAD0D6D0CEC4B2E2CAD4E6
:100C30000000000033325833323AD7D6CCE5B2E266
:100C4000CAD4000070470000F0B583B007464FF6E5
:100C5000FF7001F0F7FC184C1F25002100951423AC
:100C60000846228801F082FE009563882288A3F15D
:100C7000140081B2002001F079FE10494FF6FF7098
:100C80000126024610251F2308800221009700201C
:100C9000CDE9015600F09EFD09A00296CDE90005C0
:100CA00060881F234FF6FF72123881B2002000F0D7
:100CB00091FD03B0F0BD0000440002202800022096
:100CC000687474703A2F2F7777772E6C6364776926
:100CD0006B692E636F6D00002DE9F05F0746994642
:100CE000C2F101000E460FFA80F84FF0010BC2EB83
:100CF000C230002540000FFA80FA140008BFBDE89A
:100D0000F09FB8F1000F09DB601E84B20AF1020007
:100D10000FFA80FA08EB0A000FFA80F8681C85B217
:100D20000BF102000FFA80FB08EB0B000FFA80F8C2
:100D300019F0040F0BD0301981B2781980B201F08C
:100D40009BFD701981B2381980B201F095FD19F040
:100D5000020F0BD0301B81B2781980B201F08CFDEC
:100D6000701B81B2381980B201F086FD19F0080FAE
:100D70000BD0701981B2381B80B201F07DFD3019A3
:100D800081B2781B80B201F077FD19F0010F0BD012
:100D9000701B81B2381B80B201F06EFD301B81B236
:100DA000781B80B201F068FDA542AAD3BDE8F09F90
:100DB0002DE9F0471E46174688468146DDE908546E
:100DC00001F086FC23462A463146384601F080FC75
:100DD00043464A4621462846BDE8F04701F078BC24
:100DE00070B584B027A0FFF72FFF0C254FF6E073F6
:100DF00029A000240294CDE900051F221E210A200B
:100E000002F03CFB2FA04FF6E073CDE90005012670
:100E100002961F222D210A2002F030FB34A04FF64B
:100E2000E073CDE900051F2202943C210A2002F064
:100E300025FB10254FF6E07335A002941F22CDE963
:100E4000000550210A2002F019FB3CA04FF6E07388
:100E5000CDE900051F22029664210A2002F00EFB54
:100E600041A04FF6E073CDE900051F2202947821DE
:100E70000A2002F003FB04B04FF49660BDE8704016
:100E800003F0C2BAB2E2CAD4363AD3A2CEC4CFD4A7
:100E9000CABEB2E2CAD40000365831323A61626347
:100EA0006465666768696A6B6C6D6E6F707172738A
:100EB0007475767778797A3031323334353637381D
:100EC00039000000365831323A41424344454647E2
:100ED00048494A4B4C4D4E4F50515253545556571A
:100EE00058595A30313233343536373839000000EA
:100EF000365831323A7E21402324255E262A28297D
:100F00005F2B7B7D3A3C3E3F2F7C2D2B2E0000003B
:100F1000385831363A6162636465666768696A6B3E
:100F20006C6D6E6F707172737475767778797A30D4
:100F300031323334353637383900000038583136DD
:100F40003A4142434445464748494A4B4C4D4E4F2F
:100F5000505152535455565758595A3031323334F0
:100F60003536373839000000385831363A7E21405E
:100F70002324255E262A28295F2B7B7D3A3C3E3F91
:100F80002F7C2D2B2E000000314810B588B0016851
:100F900041F080010160016801F080010691016863
:100FA00041F48071016000680124694600F480709A
:100FB0000690802000900020CDE9010403200390DA
:100FC000244800F02BFC20026946CDE90004224CA5
:100FD000204600F023FCFFF7D9FB00222046A11594
:100FE00000F043FD0A2003F00FFA0122204611020F
:100FF00000F03BFD4FF4FA7003F006FA0122A8203E
:1010000005A900F02BF89DF8140011281DD102222B
:101010009F2005A900F022F89DF81400262814D17D
:101020009DF8150000281CBF012802280DD105A934
:101030004FF001024FF0A30000F010F89DF81400EB
:10104000642802BF002008B010BD012008B010BD08
:1010500030380240001C0240002002402DE9F041DF
:1010600015460E460446FFF77DFC7020FFF73CFC5A
:10107000FFF7D0FCE0B2FFF737FCFFF7CBFCFFF740
:1010800071FC7120FFF730FCFFF7C4FC0024002D39
:1010900088BF6F1E0AD9BC4214BF01200020FFF791
:1010A000ADFB3055601CC4B2AC42F4D3BDE8F04196
:1010B000FFF784BC2DE9F043624E0024634D83B0FA
:1010C00027463078401CC1B25F483170A0FB012038
:1010D000C008404200EB800011EB400001D00A291B
:1010E0007DD20122022001A9FFF7B8FF9DF804007C
:1010F000002875D0032874D2FF21DFF85491554F92
:101100004FF0010801FA00F0C04340F0C00028741D
:1011100039F8140004226946FFF7A0FF287C08FA7A
:1011200004F1084265D0B87930B1012818D00228FE
:101130002CD0032843D05CE09DF800109DF80100FE
:1011400001F00F0100EB012105EB440001819DF846
:1011500002209DF8031002F00F0201EB02212CE0A7
:101160009DF800109DF8010001F00F0100EB012037
:101170007988091A05EB440081819DF802209DF8C9
:10118000031002F00F0201EB022131E09DF8001084
:101190009DF8010001F00F0100EB01203988091AC8
:1011A00005EB440001819DF802209DF8031002F038
:1011B0000F0201EB02217A88511A818119E09DF812
:1011C00000109DF8010001F00F0100EB012105EB7B
:1011D000440081819DF803109DF8022002E016E092
:1011E00021E017E002F00F0201EB02213A88511AC8
:1011F0000181601CC4B2022C8AD32A8901270021F4
:10120000002A02BFA88900288DF8041031709DF8CB
:10121000040040B13078F02884BF0A20307038468E
:1012200003B0BDE8F083297C11F0800F11BF21F0DD
:1012300080004FF6FF702881A88108BF01F0E00010
:101240002874E7E740000220CDCCCCCC2C00022053
:10125000586B0008440002202DE9FF5F81460E46CE
:10126000C2F101004FF0010B07B2DDF83880C2EB8C
:10127000C230002540000FFA80FA140004BF04B009
:10128000BDE8F09F002F08DB601E84B20AF1020067
:101290000FFA80FA07EB0A0007B2681C85B20BF15F
:1012A00002000FFA80FB07EB0B0007B2039810F067
:1012B000010F17D030194044401C83B209EB0500E0
:1012C00082B2311B89B280B201F002FA7019404437
:1012D000401C83B209EB040082B2711B89B280B258
:1012E00001F0F6F9039810F0020F17D030194044BE
:1012F000401C83B2A9EB050082B2311B89B280B2D7
:1013000001F0E6F970194044401C83B2A9EB0400D7
:1013100082B2711B89B280B201F0DAF9A542B1D371
:1013200004B0BDE8F09F00002DE9FF4F87B0002713
:10133000B846DDE91423BDF828C0614508D90C463C
:1013400061468446BDF82400ADF82840ADF824C0BD
:101350009CB2BDF828C0A44507D963469446BDF8A1
:101360002420ADF82840ADF824C0BDF828C0614560
:1013700008D90C4661468446BDF82400ADF82840E3
:10138000ADF824C09EB2B1428A4620D1BDF82410E7
:10139000ADF80400814288BFADF8041038BF08469C
:1013A00091B2814238BF084605D3BDF804208A4275
:1013B00038BFADF8041043495346BDF804200988EE
:1013C0000091194601F0D2FA0BB0BDE8F08FBDF8DC
:1013D00024100546BDF828B092B2481B0690ABEB2E
:1013E0000A000590A6EB0A000390501A0290B3453C
:1013F000A2EB0509A6EB0B0004901CBFABF10100AA
:101400001FFA80FB5446DA4522D80399059898FBC9
:10141000F1F197FBF0F0C84429441FFA81FCADF8C4
:1014200004C00699284480B260450F4403D90146A0
:101430006046ADF8041023462249BDF8042009880F
:101440000091194601F092FA601C84B25C45DCD927
:10145000BDF82800211A0298B44201FB00F7A4EB62
:101460000A0000FB09F892BFDFF858A00BB0BDE8F6
:10147000F08F0498BDF8241097FBF0F0084403990E
:1014800080B298FBF1F1C84429441FFA81FC02990B
:101490006045ADF804C00F4403D901466046ADF87D
:1014A00004102346BAF80010BDF804200091194634
:1014B00001F05CFA601C84B2B442DAD90BB0BDE82A
:1014C000F08F0000280002202DE9FF4F83B0054671
:1014D000804689464B204FF0000ADDF844B0019069
:1014E0000AEB0A102F49109A11F810301278934223
:1014F00032D101EB40000090417810984078814251
:101500002AD109F10F00494683B205F10F0082B2DA
:10151000284601F02FFC002700980024C619BBF1D3
:10152000000F2ED02049059808808020B178E04037
:10153000014203D04946284601F09EF9681C85B255
:10154000A5EB0800102826D0601CC4B2082CE6D3F6
:10155000781CC7B2202FDFD30AF101001FFA80FAEE
:1015600001988245BCD311484188008807B0491EC4
:10157000401EBDE8F04F8BB282B20021084601F058
:10158000F9BB8020B178E040014214BF059806986D
:1015900001F0ACFDD8E709F1010045461FFA80F9DA
:1015A000D6E70000B25000082800022044000220C4
:1015B0002DE9FF4F83B005468046894607204FF04E
:1015C000000ADDF844B001900AEB8A00304900EBD4
:1015D0004A10109A11F810301278934232D101EB70
:1015E0004000009041781098407881422AD109F15A
:1015F0001700494683B205F1170082B2284601F070
:10160000B9FB002700980024C619BBF1000F2ED0AB
:101610002049059808808020B178E040014203D03D
:101620004946284601F028F9681C85B2A5EB080058
:10163000182826D0601CC4B2082CE6D3781CC7B288
:10164000482FDFD30AF101001FFA80FA0198824582
:10165000BAD311484188008807B0491E401EBDE832
:10166000F04F8BB282B20021084601F083BB80208C
:10167000B178E040014214BF0598069801F036FDAC
:10168000D8E709F1010045461FFA80F9D6E70000C6
:10169000A85A000828000220440002202DE9FF4F2C
:1016A00083B005468046894604204FF0000ADDF8E5
:1016B00044B001900AEB8A102F49109A11F81030AB
:1016C0001278934232D101EB40000090417810989B
:1016D000407881422AD109F11F00494683B205F1C1
:1016E0001F0082B2284601F045FB00270098002425
:1016F000C619BBF1000F2ED0204905980880802024
:10170000B178E040014203D04946284601F0B4F8E0
:10171000681C85B2A5EB0800202826D0601CC4B246
:10172000082CE6D3781CC7B2802FDFD30AF1010062
:101730001FFA80FA01988245BCD31148418800887D
:1017400007B0491E401EBDE8F04F8BB282B20021A7
:10175000084601F00FBB8020B178E040014214BF81
:101760000598069801F0C2FCD8E709F1010045464A
:101770001FFA80F9D6E70000AE5C000828000220BE
:101780004400022070B5154601F1270293B200F122
:10179000270292B201F0EEFA002405EB440015F89E
:1017A0001410407841EA002001F0A0FC641CB4F55C
:1017B000C86FF2DB064841880088491E401E8BB284
:1017C000BDE8704082B20021084601F0D3BA0000A3
:1017D000440002202DE9F04383B01F46904689461D
:1017E000DDE90A460C9D2046FEF7E4FE0A4980B278
:1017F00040423B4642460988CDE9004601EBC00C19
:10180000494602950CEBDC70C0F34F0001F036FE48
:1018100003B0BDE8F0830000440002202DE9F84F3A
:10182000DFF830920022DFF828820F2709F1040A3E
:101830004FF0010E0B680EFA02F52B40AB4240F060
:101840000181D1F804C0BCF1020F18BFBCF1120F26
:1018500015D14FEAD20C00EB8C0CDCF820604FEA7B
:1018600042744FEAD46407FA04FB26EA0B06D1F867
:1018700010B00BFA04F444EA0604CCF820400668E1
:101880004FEA420C91F804B04FF003040BF0030B45
:1018900004FA0CF40BFA0CFB26EA04064BEA0606E3
:1018A00006604E68012E18BF022E03D0112E18BFFD
:1018B000122E14D18668D1F80CB026EA04060BFA71
:1018C0000CFB4BEA06068660466826EA05050E799B
:1018D000C6F3001606FA02F646EA05054560C56835
:1018E00025EA04048D6805FA0CFC4CEA040CC0F8E7
:1018F0000CC0D1F804C01CF0805F7CD0D8F800C0C8
:101900004CF4804CC8F800C0D8F800C00CF4804CEF
:10191000CDF800C022F0030C0CF1804505F5983598
:10192000D5F808C84FEA82744FEA147407FA04F62F
:101930002CEA0606A0F1804CBCF5003C48D0A0F192
:10194000804CBCF5013C08BF4FF0010C40D0A0F129
:10195000804CBCF5023C08BF4FF0020C38D0A0F11F
:10196000804CBCF5033C08BF4FF0030C30D0A0F115
:10197000804CBCF5043C08BF4FF0040C28D0A0F10B
:10198000804CBCF5053C08BF4FF0050C20D0A0F101
:10199000804CBCF5063C08BF4FF0060C18D0A0F1F7
:1019A000804CBCF5073C08BF4FF0070C10D0A0F1ED
:1019B000804CBCF5083C08BF4FF0080C08D0A0F1E3
:1019C000804CBCF5093C0CBF4FF0090C4FF00A0CE1
:1019D0000CFA04FC4CEA060CC5F808C8D9F800C09B
:1019E0004C682CEA030C14F4803F18BF4CEA030C3B
:1019F000C9F800C000E025E0DAF800C04C682CEA25
:101A0000030C14F4003F18BF4CEA030CCAF800C0E2
:101A1000114CD4F800C04D682CEA030C15F4801F5B
:101A200018BF4CEA030CC4F800C00C4CD4F800C03A
:101A30004D682CEA030C15F4001F18BF4CEA030C88
:101A4000C4F800C0521C102AFFF4F4AEBDE8F88FB1
:101A500044380240003C0140083C01400C3C01403D
:101A60000069084018BF01207047002A08BF090418
:101A70008161704701480068704700002000022023
:101A800002480168491C01607047000020000220E4
:101A9000074810B5016841F400710160052000F0AD
:101AA00051F80F2000F006F800F018F8002010BDE3
:101AB000003C024010B5044607484FF47A720068B3
:101AC000B0FBF2F000F0A6FD00222146501E00F00F
:101AD00007F8002010BD00001C0002207047000025
:101AE000174B4DF8044D1B68C3F30223C3F1070CD9
:101AF000BCF1040F88BF4FF0040C1C1D072C34BF31
:101B00000023DB1E012404FA0CFCACF1010C0CEAEE
:101B10000101994004FA03F35B1E1A4011430028A7
:101B20004FEA0111B8BF00F00F0000F1E020B4BF90
:101B300080F8141D80F800145DF8044B7047000015
:101B40000CED00E0074A00F0070011684FF6FF03B4
:101B5000194041EA002040F0FD7040F080601060C4
:101B6000704700000CED00E01C4838B5016841F0FA
:101B70008051016000681A4C00F08050009020688D
:101B800040F480302060FFF775FF0546606810F470
:101B9000803F09D1FFF76EFF401BB0F57A7F14D864
:101BA000606810F4803FF5D0206840F40030206079
:101BB000FFF760FF0546606810F4003F0BD1FFF7A8
:101BC00059FF401BB0F57A7F01D9032038BD60680A
:101BD00010F4003FF3D0002038BD00004038024030
:101BE000007000402DE9F047DFF8688104460D469B
:101BF000D8F8000000F00F00A8420CD2D8F800007E
:101C000020F00F002843C8F80000D8F8000000F0CA
:101C10000F00A84270D120784F4F10F0020F05D06E
:101C20003868A16820F0F00008433860207810F090
:101C3000010F4ED060684949012820D00968022868
:101C400022D011F0020F57D0396821F00301084368
:101C50003860FFF70FFF0646606841F288390128B7
:101C600016D00228386800F00C0021D0F8B1FFF738
:101C700001FF801B484528D90320BDE8F08709688B
:101C800011F4003FE0D137E011F0007FDCD133E008
:101C9000386800F00C0004281BD0FFF7EBFE801B17
:101CA0004845E9D8386800F00C000428F5D110E068
:101CB00008280ED0FFF7DEFE801B4845DCD83868C8
:101CC00000F00C000828F5D103E0386810F00C0F84
:101CD000CDD1D8F8000000F00F00A8420FD9D8F8F5
:101CE000000020F00F002843C8F80000D8F80000DA
:101CF00000F00F00A84202D00120BDE8F087207854
:101D000010F0040F05D03868E16820F4E050084373
:101D10003860207810F0080F06D03868216920F468
:101D2000604040EAC100386000F01EF83968F022D7
:101D300092FAA2F201F0F001B2FA82F2D140084A1E
:101D4000515CC840074908600F20FFF7B3FE002030
:101D5000BDE8F087003C02400838024000380240ED
:101D6000486B00081C0002202148006810F00C019C
:101D7000204808BF7047DFF880C0042904BF6046D0
:101D80007047082918BF70474DF8044D1B4A116869
:101D9000136801F03F0113F4800F47F6C0730BD0B6
:101DA000BCFBF1F01168194093FAA3F3B3FA83F383
:101DB000D94000FB01F00AE0B0FBF1F011681940D6
:101DC00093FAA3F3B3FA83F3D94000FB01F011684F
:101DD0004FF440325DF8044B92FAA2F201F4403124
:101DE000B2FA82F2D140491C4900B0FBF1F07047D1
:101DF000083802400024F40040787D010438024095
:101E00002DE9F84FDFF8A88304460078A8F104070D
:101E100010F0010FA7F104055AD0D8F8000000F027
:101E20000C00042809D0D8F8000000F00C000828A5
:101E30000CD1386810F4800F08D0286810F4003FE7
:101E400046D06068002800F0AF8141E06068B0F5DE
:101E5000803F04BF286840F480300AD010B1B0F54C
:101E6000A02F11D0286820F480302860286820F442
:101E7000802028606068D0B1FFF7FCFD0646286826
:101E800010F4003F08D023E0286840F48020286048
:101E9000286840F48030ECE7FFF7ECFD801B6428F5
:101EA00000F22581286810F4003FF5D010E0FFF71C
:101EB000E1FD0646286810F4003F09D0FFF7DAFD7F
:101EC000801B642800F21381286810F4003FF5D1CC
:101ED000207810F0020F50D0D8F800004FF0F80929
:101EE00010F00C0F18D0D8F8000000F00C000828F3
:101EF00004BF386810F4800F0ED0E068002828680E
:101F000028D040F001002860FFF7B4FD064628689D
:101F100010F0020F09D011E0286810F0020F1CBF6A
:101F2000E06801280AD000F03FB9FFF7A3FD801B4D
:101F300002287DD8286810F0020FF6D0286899FA98
:101F4000A9F22169B2FA82F220F0F8009140084328
:101F5000286012E020F001002860FFF78BFD0646A4
:101F6000286810F0020F08D0FFF784FD801B0228BC
:101F70005ED8286810F0020FF6D1207810F0080F14
:101F800033D0DFF8309260690028D9F8000016D00D
:101F900040F00100C9F80000FFF76CFD0646D9F8D3
:101FA000000010F0020F20D1FFF764FD801B022813
:101FB0003ED8D9F8000010F0020FF5D015E020F05F
:101FC0000100C9F80000FFF755FD0646D9F80000EA
:101FD00010F0020F09D0FFF74DFD801B022827D813
:101FE000D9F8000010F0020FF5D1207810F0040F9E
:101FF00063D07148016841F08051016000686F4E04
:1020000000F080500090306840F480703060FFF73E
:1020100031FD8146306810F4807F0BD1FFF72AFD37
:10202000A0EB0900642862D8306810F4807F00E0DB
:102030005DE0F3D0A068624E012804BF306840F034
:10204000010009D008B1052813D0306820F0010044
:102050003060306820F004003060A06841F2883AB7
:10206000D0B1FFF707FD8146306810F0020F08D0AD
:1020700023E0306840F004003060306840F0010038
:10208000EAE7FFF7F7FCA0EB090050452FD83068CE
:1020900010F0020FF5D010E0FFF7ECFC814630683D
:1020A00010F0020F09D0FFF7E5FCA0EB0900504546
:1020B0001DD8306810F0020FF5D1A069E8B3D8F848
:1020C000001001F00C0108296ED00228286820F0C9
:1020D000807028600ED0FFF7CDFC0446286810F011
:1020E000007F5ED0FFF7C6FC001B022855D90320F5
:1020F000BDE8F88FFFF7BEFC0646286810F0007FA9
:1021000008D0FFF7B7FC801B0228F0D8286810F031
:10211000007FF6D1D4E9070147F6C0724FF0FF33D4
:1021200092FAA2F20843616AB2FA82F29140A26A7C
:1021300003EB52024FF4403300E032E093FAA3F392
:10214000B3FA83F39A4011434FF070620843E16A97
:1021500092FAA2F2B2FA82F291404FF0E0420843C2
:10216000216B92FAA2F2B2FA82F2914008433860EF
:10217000286840F080702860FFF77CFC04462868DF
:1021800010F0007F0DD1FFF775FC001B0228AED8C0
:10219000286810F0007FF6D003E0286810F0007F78
:1021A000A0D10020BDE8F88F0120BDE8F88F000025
:1021B0000838024074380240403802400070004045
:1021C00070380240002804BF012070472DE9F0411B
:1021D00002270446006B012620B194F85D0000251B
:1021E00060B906E0E068B0F5E06F8CBF2763266356
:1021F000F3E7204684F85C5000F04EF884F85D70F8
:102200002068016821F040010160E168B1F5E06FEC
:102210008CBF00204FF48050B1F5706F1CBFB1F53A
:10222000E06FA562D4E9011241EA0201D4E9042376
:1022300042EA030241EA0201228B02F4007241EAFF
:102240000201E26941EA0201226A41EA0201A26A4C
:1022500041EA020122681160216B022904D1216840
:102260000A6842F400620A60626B4FF0040C616A13
:10227000A3691143E2680CEA13431A43114308436C
:10228000216848602168E06A0861256684F85D601D
:102290000020BDE8F081000013484DF804ED87B040
:1022A000016841F002010160006800F00200059041
:1022B0000E48016841F4804101600068694600F4FD
:1022C000804005904FF46040009002200190012072
:1022D000029003200390052004900548FFF79EFA22
:1022E00007B05DF804FB000030380240403802407F
:1022F000000402402DE9F84F994692468B46044669
:102300000A9FFFF7B7FB804694F85C000125002682
:10231000012804BF0220BDE8F88F012084F85C008A
:1023200094F85D00012818BF022640F05E81BBF1E1
:10233000000F1CBFBAF1000FB9F1000F00F054817B
:102340004FF0050084F85D004FF000002066C4F8EF
:1023500040A0A4F84690A4F84490C4F838B0A4F87B
:102360003E90A4F83C90A06AB0F5005F0AD12068C6
:1023700001684DF6FF72114001602068016841F468
:1023800000510160E068B0F5E06F9CBFB4F8460012
:102390000128206841688CBF21F4805141F48051AC
:1023A00041602068016811F0400F03D1016841F0DD
:1023B00040010160E068B0F5E06F50D800F0C5B8AA
:1023C000002D18BF00282AD02068816811F0020F64
:1023D00025D0A16B0988C1604FF00005A06B00F10A
:1023E0000200A063E08FA0F101000004000CE08770
:1023F00004BFA06AB0F5005F11D12068016811F038
:10240000040F07D1416811F0080F03D0016841F4AF
:10241000007101602068016841F480510160B4F8E6
:10242000460098B12068816811F0010F0ED0C06895
:102430004FF00105216C0880206C00F1020020643F
:10244000B4F84600A0F10100A4F84600B7F1FF3F40
:1024500005D0FFF70FFBA0EB0800B84273D2E08F66
:10246000002804BFB4F846100029A9D1A06AB0F52D
:10247000005F73D0A1E0002D18BF002931D0206883
:10248000826812F0020F2CD00129A16B08D90988AB
:10249000C160A06B801CA063E08F801EE08707E016
:1024A0004A1CA26309780173E08F401EE087002573
:1024B0000004000C04BFA06AB0F5005F11D12068D1
:1024C000016811F0040F07D1416811F0080F03D023
:1024D000016841F4007101602068016841F4805195
:1024E0000160B4F8461029B32068826812F0010F29
:1024F00020D0012913D9C068216C0880206C801C71
:102500002064B4F84600801E80B2A4F8460001287A
:1025100010D82068416841F4805141600AE0017B95
:10252000206C421C22640170B4F84600401EA4F8DE
:1025300046000125B7F1FF3F07D0FFF79BFAA0EB5C
:102540000800B84201D303264FE0E18F002904BF01
:10255000B4F8460000288ED188E7FFE74FF001026B
:102560003B461146204600F03CFFD0B9E068B0F58C
:10257000706F206808D0007BADF80000BDF8000047
:10258000206B022806D018E0C068ADF80000BDF846
:10259000000012E001223B461146204600F021FFD8
:1025A00028B1206E40F00200206603261DE020685E
:1025B000007BADF80000BDF800002068816811F0D4
:1025C000100F07D0216E41F0020121664FF6EF7126
:1025D000816001263946204600F08AFE00281CBF93
:1025E00020202066206E00B10126012084F85D00C5
:1025F000002084F85C003046BDE8F88F4FF0E02101
:10260000042808690CBF40F0040020F004000861B1
:1026100070470000401EB0F1807F24BF012070474A
:102620004FF0E0214861F020044A82F8140D0020A8
:102630008861072008610020704700000FE000E07B
:10264000FEE700002DE9F047194F05460021788884
:10265000401E83B23888401E82B2084600F08AFBD2
:10266000DFF850804FF00060C8F800002020C8F864
:10267000000000267888002888BF4FEA152911D964
:1026800038880024002809D9484600F005FEE8B241
:1026900000F002FE3888641CA042F5D87888761CC9
:1026A000B042EDD84FF40060C8F80000BDE8F087F4
:1026B00044000220180C0240DFF810C008B5BCF836
:1026C00000C0CDF800C000F051F908BD280002207C
:1026D0002DE9F04F002682465F1A3546A2EB00082E
:1026E0008946B8F1000F83B0C8BF012007DC0FBFD7
:1026F00000204FF0FF300190C8F1000800D1019098
:10270000002FC8BF012006DC0FBF00204FF0FF30B4
:1027100000907F4200D10090B845CCBF44463C4673
:102720004FF0000B601C52BF029003B0BDE8F08F69
:102730001FFA89F11FFA8AF000F09EF84644A6427B
:102740003D4402DD0198361B8244A54202DD00981B
:102750002D1B81440BF101001FFA80FB0298834579
:10276000E6DD03B0BDE8F08F2DE9F04F8DB04FF0FE
:10277000000A121AD14604925A1A0192049ACDE91B
:102780000201002AC8BF012008DC0FBF00204FF063
:10279000FF300790504218BF049000D10790019875
:1027A000002808BF0020C8BF012001DB099006E017
:1027B0004FF0FF3009900198C0F10000019004999A
:1027C00001988142CCBF8846804600200A90B8F12B
:1027D000FF3F44BF0DB0BDE8F08F16984042032183
:1027E00001EB4000089008F101000B9002980026D0
:1027F000DDE9164B06900398002C089F05901CDB22
:10280000A64235460ADCCDF800B02B46DDE90510BE
:10281000324601F08AFD6D1CA542F4DD002FBCBFDD
:1028200007EB8600871D05DB301B641E07EB80006D
:1028300000F10A07761CA642E2DD04988244019862
:10284000C245814405DD0799AAEB080A02980844AD
:102850000290C14505DD0999A9EB080903980844D0
:1028600003900A980B99401C80B20A908842BDDD03
:102870000DB0BDE8F08F000070B50B46024600F0C9
:1028800079FA0848084D04884FF00060286020203D
:102890002860200A00F000FDE0B200F0FDFCE81422
:1028A000286070BD28000220180C02402DE9F0417C
:1028B0001C4615460E4607460B46FFF709FF3A46EB
:1028C000234631461046FFF703FF23462A461946A2
:1028D0003846FFF7FDFE2A46234631461046BDE83E
:1028E000F041FFF7F5BE2DE9F05F994692460D469F
:1028F00083460A9C0B460719A2EB04081FFA88F2CC
:10290000B8B2FFF7E5FEA9EB04065A462544104687
:10291000B3B2A9B2FFF7DCFE4B461FFA88F21946A4
:10292000B8B2FFF7D5FE5246B3B21046A9B2FFF7D0
:10293000CFFEA9B22246B8B20123FEF7CDF9A9B263
:1029400022461FFA88F00223FEF7C6F9B1B22246EA
:102950001FFA88F00423FEF7BFF9B1B22246B8B2DD
:10296000BDE8F05F0823FEF7B7B900002DE9F0419C
:10297000A2EB000C0CF1010C1FFA8CF5DDF81880AD
:10298000A3EB010C0CF1010C1FFA8CF700F0F2F92B
:102990000026002F0DD90024002D06D9404600F056
:1029A000A5FB601C84B2A542F8D8701C86B2BE425A
:1029B000F1D3064841880088491E401EBDE8F04119
:1029C0008BB282B20021084600F0D4B94400022044
:1029D0002DE9F843884613491D46089C0988161BB3
:1029E0000091591C8BB241460719B2B2B8B2FFF739
:1029F000BDFF61422246A5EB080000EB410085B215
:102A00000095A0441FFA88F1B0B20123FEF724FC20
:102A10001FFA88F12246B8B200950223FEF71CFC8B
:102A2000BDE8F8832800022010B586B000F000FC55
:102A30008248016841F00801016000686946804CE5
:102A400000F0080005904FF4C35000900120019061
:102A50000290032003902046FEF7E0FE01224FF48F
:102A6000C3512046FFF701F8012220464021FEF71E
:102A7000FCFF744C4FF080502060642001F0C4FCD7
:102A8000A0142060322001F0BFFC112000F0DCFA1D
:102A9000782001F0B9FC362000F0D6FA482000F08A
:102AA000C5FA3A2000F0D0FA552000F0BFFAF02025
:102AB00000F0CAFAC32000F0B9FAF02000F0C4FA1E
:102AC000962000F0B3FAB42000F0BEFA012000F026
:102AD000ADFAB72000F0B8FAC62000F0A7FAC0207F
:102AE00000F0B2FA802000F0A1FA452000F09EFA32
:102AF000C12000F0A9FA132000F098FAC22000F0DB
:102B0000A3FAA72000F092FAC52000F09DFA0A204F
:102B100000F08CFAE82000F097FA402000F086FAE6
:102B20008A2000F083FA002000F080FA002000F0F4
:102B30007DFA292000F07AFA192000F077FAA52012
:102B400000F074FA332000F071FAE02000F07CFA13
:102B5000D02000F06BFA082000F068FA0F2000F097
:102B600065FA062000F062FA062000F05FFA3320D2
:102B700000F05CFA302000F059FA332000F056FAE9
:102B8000472000F053FA172000F050FA132000F00D
:102B90004DFA132000F04AFA2B2000F047FA3120BA
:102BA00000F044FAE12000F04FFAD02000F03EFAA5
:102BB0000A2000F03BFA112000F038FA0B2000F058
:102BC00035FA092000F032FA072000F02FFA2F2002
:102BD00000F02CFA332000F029FA472000F026FA02
:102BE000382000F023FA152000F020FA162000F01B
:102BF0001DFA2C2000F01AFA322000F017FAF0200B
:102C000000F022FA3C2000F011FAF02000F01CFA4B
:102C1000692000F00BFA782001F0F6FB212000F08B
:102C200013FA292000F010FA002000F01BFA06B079
:102C30004FF6FF70BDE81040FFF704BD303802408A
:102C4000000C0240180C024070B50B46024600F022
:102C500091F8124C4FF00060206080112060104805
:102C6000807A00F019FB202000F028FB2020206053
:102C7000FF2000F011FBFF2000F00EFB0646FF20B6
:102C800000F00AFB0546002000F018FBE01420606D
:102C90004FF6FF7000EA0620284370BD180C024072
:102CA000440002202DE9F84300200090F02000F0BD
:102CB000CBF9C32000F0BAF9F02000F0C5F9962056
:102CC00000F0B4F9274D4FF000602860012487110F
:102CD000E84620262F60FB2000F0DEFA2E6004F18B
:102CE0001000C0B200F0D8FA2F60D32000F0D4FA60
:102CF000202000F0E3FA2E60FF2000F0CDFA08EB70
:102D0000040101F8010C082000F0D8FA2F60FB2024
:102D100000F0C2FA2E60002000F0BEFA601CC4B2BF
:102D2000042CD7D3002000F0C9FA4FF400602860CB
:102D3000F02000F089F93C2000F078F9F02000F054
:102D400083F9692000F072F99DF801004FF6FF72D7
:102D5000054902EA00209DF8022010438880BDE862
:102D6000F8830000180C0240440002200B46024683
:102D7000AFF300802DE9F041DFF854801C46154682
:102D80000E46074698F80C0000F05EF9380A00F08D
:102D90004DF9F8B200F04AF9280A00F047F9E8B214
:102DA00000F044F998F80E0000F04EF9300A00F0F7
:102DB0003DF9F0B200F03AF9200A00F037F9E0B23C
:102DC00000F034F998F80800BDE8F04100F03CB993
:102DD000440002202DE9FF4F83B082468B463F49D5
:102DE0009046DDE91004129E20380988C5B2029190
:102DF0000BEB04005946401E83B20AEB5400401E00
:102E000082B25046FFF7B6FF354A002E4FF000075A
:102E100002F274413DD0002C2AD905EB450002EBAB
:102E20008000019001EB051000900C2C0CBF019864
:102E30000098C65D0025B5EB540F38BF0BEB0709B2
:102E400012D2264816F0010FA0F8008006D00AEB37
:102E500005001FFA89F180B2FFF70EFD681C7608A5
:102E6000C5B2B5EB540FECD3781CC7B2A742DCD384
:102E70001A49029808801B484188008807B0491EFB
:102E8000401EBDE8F04F8BB282B200210846FFF72A
:102E900071BF002CECD905EB450001EB051902EBE5
:102EA000800A0C2C0CBF1AF8075019F8075000269E
:102EB000B6EB540F0CD215F0010F14BF4046069824
:102EC00000F014F9701C6D08C6B2B6EB540FF2D3C3
:102ED000781CC7B2A742E4D3CAE70000280002204A
:102EE0004E460008440002202DE9FF4F83B04FF00A
:102EF00000081D00934681464446109E19BFA5F167
:102F0000010A770807B0BDE8F08F0A23281B401E8E
:102F10000121C2B2501EC0B204D301FB03F1401E16
:102F2000C0B2FAD2BBFBF1F01C49A1FB0021C908D9
:102F30004942B8F1000F01EB810100EB410006D1DD
:102F4000544504DA002818BF4FF0010816D00021BC
:102F5000029113493030C0B2CDE9000607FB04905E
:102F60000B88104980B20A880499FFF733FF601C70
:102F7000C4B2AC42C9D307B0BDE8F08F20210091A4
:102F800007490020CDE901600B88064907FB049042
:102F90000A8880B20499FFF71DFFE8E7CDCCCCCCBE
:102FA0002A000220280002202DE9F04F83B00546B8
:102FB00018781C4616468946DDF8308020385E2891
:102FC00084BF03B0BDE8F08F154FDFF858A0DFF8DD
:102FD00058B03888401EA842BCBF03B0BDE8F08F8F
:102FE0007888401E4845BCBF03B0BDE8F08F20780C
:102FF0004946CDE90006CDF808802846BAF80030E9
:10300000BBF80020FFF7E6FE05EB560085B214F88A
:10301000010F20385E28DCD903B0BDE8F08F000036
:10302000440002202A0002202800022010B5054C8E
:103030004FF0006121602021216000F02DF9E014A3
:10304000206010BD180C024010B5054C4FF0006117
:1030500021608911216000F01FF9E014206010BD8B
:10306000180C024020492A2210B54FF4F0738A81CF
:103070002B22CA812C220A812E224A8110F00300C1
:103080004FF4A072887110D0012818D0022820D0E7
:10309000032818BF10BD0B8036204A80FFF7D4FFED
:1030A000BDE81040E820FFF7C1BF0A8036204B8002
:1030B000FFF7CAFFBDE810404820FFF7B7BF0B80FD
:1030C00036204A80FFF7C0FFBDE810402820FFF7F8
:1030D000ADBF0A8036204B80FFF7B6FFBDE8104039
:1030E0008820FFF7A3BF00004400022070B5084D00
:1030F00004464FF00060286020202860200A00F07D
:10310000CBF8E0B200F0C8F8E814286070BD000009
:10311000180C02407047704730B583B01DA0FDF712
:1031200093FD1E21204A0846FEF72CFB10244FF683
:10313000E0731EA001250295CDE900041F224B215A
:103140002A2000F09BF9184A1E215A20FEF71AFB8C
:1031500016A04FF6E073CDE900041F2202954B2123
:10316000662000F08BF9104A1E219620FEF70AFB1C
:103170000EA04FF6E073CDE900041F2202954B210B
:10318000A22000F07BF903B04FF49660BDE8304018
:1031900001F03AB9B2E2CAD4383ACDBCC6ACCFD409
:1031A000CABEB2E2CAD40000B85E000851510000A5
:1031B000F0B5184889B004AF002401250FC81026C7
:1031C00087E80F002046FFF74DFF13A0FDF73CFDF9
:1031D00057F824001F22CDE900061E214FF6E073A8
:1031E0001420029500F04AF9104A32211E20FEF701
:1031F000C9FA4FF47A7001F007F94FF47A7001F0D0
:1032000003F9601CC4B2042CDCD30020FFF72AFFB2
:1032100009B0F0BD386B0008B2E2CAD431303AC60A
:10322000C1C4BBD0FDD7AAB2E2CAD400B85E0008C0
:1032300010B5184C84B016484FF4E06120604FF48C
:10324000827060600020C4E9020102212161012135
:1032500061614902C4E9061020626062A062072031
:10326000E0622046FEF7AEFF2068016841F04001B1
:103270000160FF208DF804004FF47A700090012364
:10328000204602AA01A9FFF735F804B010BD0000DE
:10329000003800405400022001B582B04FF47A702B
:1032A0000123009001AA044802A9FFF723F89DF822
:1032B000040003B05DF804FB540002200B4A1168BF
:1032C0000B6823F040030B6011680B684FF6C77C56
:1032D00003EA0C030B6011680B6818430860106860
:1032E000016841F040010160704700005400022075
:1032F00070B500220D4604460B464FF4C05100F055
:1033000018F880B900222B464FF4C061204600F027
:1033100010F840B900222B468021204600F061F8C9
:10332000002808BF70BD206E40F0200020660320FA
:1033300070BD2DE9F8431D4616460F460446FEF7BC
:1033400099FB8046206880683840B04246D0B7F587
:10335000C06F08BF002E05D12068007B8DF80000EB
:103360009DF80000B5F1FF3F33D02DB1FEF782FB91
:10337000A0EB0800A8422CD32068416821F0E001AE
:1033800041606068B0F5827F0BD1A068B0F5004F56
:1033900018BFB0F5806F04D12068016821F04001AA
:1033A0000160A06AB0F5005F0AD1206801684DF69F
:1033B000FF72114001602068016841F40051016012
:1033C000012084F85D00002084F85C000320BDE843
:1033D000F883206880683840B042B8D10020BDE84A
:1033E000F8832DE9F0411D4690460F460446FEF74E
:1033F00041FB064620688068384040453AD0B5F128
:10340000FF3F32D025B1FEF735FB801BA8422CD3FD
:103410002068416821F0E00141606068B0F5827F7A
:103420000BD1A068B0F5004F18BFB0F5806F04D184
:103430002068016821F040010160A06AB0F5005FDA
:103440000AD1206801684DF6FF72114001602068C2
:10345000016841F400510160012084F85D00002002
:1034600084F85C000320BDE8F08120688068384063
:103470004045C4D10020BDE8F08170472DE9FF4FE1
:1034800083B006468346DFF804A188464FF0000962
:10349000DDE91045129F2078002804BF07B0BDE881
:1034A000F08F29E0B9F1000F26D0BAF80000401BD8
:1034B000B042BCBF07B0BDE8F08FBAF80200401BB5
:1034C0004045BCBF07B0BDE8F08F4FF00009202D8C
:1034D0004FD0CDE90047DDE90523182D41463046A0
:1034E00050D0FDF7F1FF701986B2A41C2078002897
:1034F000D8D107B0BDE8F08FBAF80000A0EB5500B6
:10350000B042BCBF07B0BDE8F08FBAF80200401B64
:103510004045BCBF07B0BDE8F08F2078802888BF49
:103520004FF00109BED80D280ED0102D13D910214F
:103530000297CDE90001DDE9052341463046FFF75A
:1035400049FC06F1080011E008EB05005E461FFA91
:1035500080F8641C0BE0CDE9000502974146DDE9E7
:1035600005233046FFF736FC06EB550086B2641C97
:10357000BCE7CDE90047DDE9052341463046FEF7CB
:103580008DF8B0E7FEF714F8ADE700004400022024
:10359000DFF894C010B594B0DCF8004044F08054DB
:1035A000CCF80040DCF800C00CF0805CCDF848C0DE
:1035B000DFF878C0DCF8004044F44044CCF8004028
:1035C000DCF800C002240CF4404CCDF848C04FF0A9
:1035D000010CCDF800C04FF4803CCDF804C04FF48E
:1035E000800CCDE90810CDE90A23CDE9064C6846E8
:1035F000FEF706FC00B1FEE7FEF7B6FA00B1FEE703
:103600000F20CDE90D0400200F904FF4A050109032
:103610004FF48050119007210DA8FEF7E3FA00281F
:1036200004BF14B010BDFEE74038024000700040F7
:10363000FEF726BA0F48016841F4700101600E4898
:10364000016841F0010101600C4A0021116002682B
:1036500022F4102222F080720260031D084A1A60D0
:10366000026822F48022026006480160580606497A
:103670000860704788ED00E00038024008380240DA
:10368000103000240C38024008ED00E010B5FDF7C2
:103690007BFC00281CBF012010BD02480249486085
:1036A000002010BDB51000082C0002202DE9F843C1
:1036B000002429A0FDF7C8FA2D4D4FF6FF7700979B
:1036C000142168882A88143883B20020FFF74EF945
:1036D000284EA046CDF8008004EBC400698800EBBA
:1036E00004102A881E2300EB510100EB520036F82B
:1036F00014205038323900F0C7FE601CC4B2052CCB
:10370000E8D340F2DC5000F07FFE00971421688877
:103710002A88143883B20020FFF728F900240127F3
:103720000097698804EBC4002A8800EB04101E236C
:1037300000EB510100EB520036F8142050383239BA
:1037400000F0A2FE601CC4B2052CE9D3BDE8F8432A
:1037500040F2DC5000F058BEB2E2CAD4343A4755C9
:1037600049BBADD4B2CCEEB3E4B2E2CAD40000009F
:10377000440002200000022070B54B4C84B04FF68C
:10378000FF7000210090084663882288FFF7EEF85A
:1037900010264FF6E07345A001250295CDE90006FD
:1037A00000221E211420FFF769FE4FF4487000F03C
:1037B0002BFE00200090638801462288FFF7D6F890
:1037C0003CA04FF6E073CDE900061E214FF6FF72D4
:1037D00014200295FFF752FE4FF4487000F014FEDB
:1037E0004FF4784000900021638822880846FFF754
:1037F000BDF832A04FF6E073CDE900061F22029516
:103800001E211420FFF73AFE4FF4487000F0FCFD33
:103810004FF4FC6000900021638822880846FFF77F
:10382000A5F828A04FF6E073CDE900061F22029507
:103830001E211420FFF722FE4FF4487000F0E4FD33
:103840001F2000900021638822880846FFF78EF829
:103850001EA04FF6E073CDE900061E21029514204C
:103860004FF47842FFF70AFE4FF4487000F0CCFDA9
:1038700048F2304000900021638822880846FFF714
:1038800075F814A04FF6E073CDE900061E214FF63F
:103890001F0214200295FFF7F1FD04B04FF44870A9
:1038A000BDE8704000F0B0BD4400022057484954C4
:1038B00045000000424C41434B000000524544206B
:1038C00000000000475245454E200000424C55453F
:1038D000200000004752415900000000F8B557A0F1
:1038E000FDF7B2F95A4D1F2028805A48FCF744FED4
:1038F00001240094102232210F2057A3FFF754FB1C
:103900001022009446210F2059A3FFF74DFB1022EF
:1039100000945A210F205CA3FFF746FB102200946D
:103920006E210F205EA3FFF73FFB1022009482213F
:103930000F2061A3FFF738FB1022009496210F207F
:1039400063A3FFF731FB10220094AA210F2065A387
:10395000FFF72AFB4FF47840674F002442F21076BD
:1039600028801025FCF7A2FC90FBF6F105230095BA
:1039700006FB110232216420FFF7B6FAFCF796FC31
:1039800090FBF6F10523009506FB11024621642009
:10399000FFF7AAFAFCF78AFC90FBF6F105230095E5
:1039A00006FB11025A216420FFF79EFAFCF77EFC09
:1039B00090FBF6F10523009506FB11026E216420B1
:1039C000FFF792FAFCF772FC90FBF6F105230095E5
:1039D00006FB110282216420FFF786FAFCF766FCE1
:1039E00087FB0021052300950A11A2EBE1716FF01E
:1039F000180201FB02F100EB410296216420FFF75F
:103A000073FAFCF753FC87FB0021052300954A114C
:103A1000A2EBE1716FF0180201FB02F100EB8102F1
:103A2000AA216420FFF760FA4FF4FA7000F0ECFC72
:103A3000601CC4B20F2C95D3F8BD0000B2E2CAD40A
:103A4000393AB6AFCCACCAFDD7D6CFD4CABE000087
:103A50002800022040E20100204843484F3A20203D
:103A600020202020202020202075672F6D3300008B
:103A70002020434F323A20202020202020202020C8
:103A80002070706D000000002054564F433A2020F3
:103A900020202020202020202075672F6D3300005B
:103AA000504D322E353A202020202020202020206A
:103AB0002075672F6D33000020504D31303A2020A3
:103AC00020202020202020202075672F6D3300002B
:103AD00020205445503A2020202020202020202043
:103AE00020430000202048554D3A2020202020204F
:103AF00020202020202500001F85EB512DE9F843D0
:103B000000242FA0FDF7A0F8334F4FF6FF78CDF833
:103B10000080142178883A88143883B20020FEF798
:103B200025FF2E4D2E4E35F814003080C4EB0410C6
:103B3000798800EB5101A1F1140293B23A8850390F
:103B400089B200EB5200A0F11402503892B280B258
:103B5000FEF7ACFE601CC4B2052CE4D340F2DC508E
:103B600000F052FCCDF80080142178883A8814388F
:103B700083B20020FEF7FAFE0024C4EB041135F8EE
:103B800014003080788801EB5000A0F1140293B249
:103B90003A88503801EB520CACF114018AB281B270
:103BA000ACF1500080B2FEF787FD601CC4B2052C5A
:103BB000E3D3BDE8F84340F2DC5000F025BC000040
:103BC000B2E2CAD4333A475549BED8D0CECCEEB3D0
:103BD000E4B2E2CAD4000000440002200000022047
:103BE000280002202DE9F04F8FB0002736A00D9756
:103BF0000E970C97039704970597069707970897D2
:103C000009970A970B97FDF71FF8FFF74BF834A1B8
:103C100002460CA8FCF784FB4FF010094FF0010896
:103C20000CA84FF6E0731F22CDF80880CDE90009FB
:103C300019213220FFF722FCDFF8ACB000242B4E14
:103C40000DF10C0A1E223BF81400308004EBC40076
:103C500000EB04150A2005F1410305F12D01FEF7E3
:103C60002BFD142005F13701FEF7EEFF318881426C
:103C700006D11FA10988ADF830108DF8327005E02B
:103C80001CA10A680C928988ADF834100CAB1BA1FA
:103C9000024603A8FCF744FBCDF800A02820CDE99C
:103CA0000198328805F12F014FF6E073FFF7E6FB2C
:103CB000601CC4B2072CC5D340F2DC5000F0A4FB5A
:103CC0000FB0BDE8F08F0000B2E2CAD4323AB6C1FC
:103CD0004944BACDD1D5C9ABD6B5B2E2CAD40000F9
:103CE00049443A30782578000A0002202800022052
:103CF0004F4B00004552524F520000007265616404
:103D000020636F6C6F723A3078253034582020254C
:103D1000730000002DE9F041002482B036A0FCF7CA
:103D200093FF3C4F4FF6FF78CDF800801421788840
:103D30003A88143883B20020FEF718FE364D374E0D
:103D400004EB840335F814003080C4EB0410798848
:103D500000EB5102A2F1140081B23888493A4008C0
:103D600000EB8300A0F115039BB2CDE9003193B2C3
:103D7000A0F13302503892B280B2FDF719F8601CFE
:103D8000C4B2052CDCD340F2DC5000F03DFBCDF892
:103D90000080142178883A88143883B20020FEF716
:103DA000E5FD002404EB840335F814003080C4EBF7
:103DB0000410798800EB5102A2F1140081B2388816
:103DC000493A400800EB8300A0F115039BB2CDE90E
:103DD000003193B2A0F13302503892B280B2FDF7B5
:103DE000A3FA601CC4B2052CDCD302B040F2DC5054
:103DF000BDE8F04100F008BBB2E2CAD4353A4755FD
:103E00004920547269616E676C65CCEEB3E4B2E22E
:103E1000CAD4000044000220000002202800022032
:103E20002DE9F04F83B0F2A0FCF70EFFF54D00270F
:103E3000F54C32215A232F80208801EB5002494251
:103E400001EB500080B22821FEF730FD4FF4784995
:103E5000A5F800902088791E592301EB50018AB201
:103E60006FF0300101EB500080B22921FEF724FCF5
:103E70001F20288020883121592301EB500240085F
:103E80002921FEF719FC4FF6FF70288001260096C5
:103E900020886FF01F011022DCA301EB500080B2DC
:103EA0003921FFF781F848F2304028804FF00A08A6
:103EB000CDF8008020886E216FF06D0AA92301EBF8
:103EC00050020AEB500080B29621FEF781FD4FF6BA
:103ED0001F002880CDF80080A9232088962108EBB8
:103EE00050020AEB500080B2FEF772FD00960A23E2
:103EF0002088A02140F2CF12400800F0C5FA2F80A0
:103F00006FF07C01009610222088C1A301EB5000C5
:103F100080B29821FFF748F800967321208810227C
:103F2000BCA301EB50009821FFF73EF8A5F80090E4
:103F30004FF01008CDF800806FF00B0120880323AC
:103F4000322201EB500080B27D21FEF7CDFF2F80A1
:103F5000082000904FF01E0B20886FF01D01FA23FF
:103F60000BEB500201EB500080B2DC21FEF7BBFCF2
:103F70004AF2516028800720009020881D21F823F4
:103F800001EB5002494201EB500080B2DD21FEF707
:103F90001FFD4FF61F00288000966FF00E0021884D
:103FA00010229DA300EB510080B2E321FEF7FCFF3D
:103FB0009BA00296CDE9000821886FF02E004FF6F5
:103FC000FF734A4600EB510080B2C321FFF756FA57
:103FD0004FF6FF7A2E464FF00108954D68688047EE
:103FE000287C10F0010FF8D0A8892938312865D233
:103FF00020886FF03102298902EB500291422BDDBB
:104000004FF0FF3202EB50028A4225DD6FF03001A3
:10401000A6F8009001EB500092B280B259232921FA
:10402000FEF74AFB1F20308020883121592301EB05
:10403000500240082921FEF73FFBA6F800A06FF0D0
:104040001F00CDF800801022218870A300EB5100E2
:1040500080B23921FEF7A8FF20882989B1EB500FE3
:104060002CD9322202EB50028A4227D91F213180FB
:104070004FF0FF3101EB50018AB26FF0300101EBDC
:10408000500080B259232921FEF716FBA6F80090B4
:1040900031212088592301EB500240082921FEF7E5
:1040A0000BFBA6F800A00D20CDF80080102221887F
:1040B00060A300EB51003921FEF776FF21886FF0F5
:1040C0006302288902EB5102904246DB642202EB34
:1040D0005102824224BFAA89962A3ED9A92A3CD2FB
:1040E00048F2304232806E220A3802EB510280B22E
:1040F0000A270097A9239621FEF76AFC4FF61F00B6
:10410000308000976FF06D012889A9230A3082B2B0
:10411000208801EB500080B29621FEF759FCCDF8C3
:1041200000800A232889A02140F2CF1200F0ACF9C8
:10413000A6F8009010222088032329890092A1EB81
:104140005001643101EBD1714A106FF00B0101EBAA
:10415000500080B27D21FEF7C7FE20886FF01D025F
:10416000298902EB50029142FFF637AF0BEB500268
:104170008A4224BFA989DC297FF62FAFFA29BFF430
:104180002CAF0821A6F800A0009181B2FA230BEB16
:1041900051026FF01D0101EB500080B2DC21FEF7EF
:1041A000A2FB42F6123030800720009020881D21AB
:1041B000F82301EB5002494201EB500080B2DD21AF
:1041C000FEF706FC48F21F403080CDF800806FF00B
:1041D0000E002188102210A300EB510080B2E321D1
:1041E000FEF7E2FE1248A0F808A003B0BDE8F08F89
:1041F000B2E2CAD431313AB4A5C3FEB0B4BCFCB209
:10420000E2CAD40028000220440002204F4E0000E1
:1042100030000000313030004558495400000000A3
:10422000B0B445584954BCFCCDCBB3F600000000F7
:104230002C0002204F46460082B02BA0FCF704FD64
:104240002E4E4FF00109CDF80090102202212CA330
:104250003088203880B2FEF7A7FEDFF8A8A04FF420
:104260007848294D4FF0020B4FF6FF77AAF80080EF
:1042700068688047287C10F0010F08BF67F30F04BF
:10428000F6D02A8930889042F2D9AB897188994258
:10429000EED9A1B2B94204BF62F30F0463F31F4425
:1042A0002038824212DD122B10D20FA02F81FCF792
:1042B000CBFCCDF8009010223088022110A32038CA
:1042C00080B2FEF771FEAAF8008005E0A0B2210CD2
:1042D000CDE900B8FEF748FA288960F30F04A889F1
:1042E00060F31F44C4E70000B2E2CAD431323AB4EA
:1042F000A5C3FE50454EB2E2CAD4000044000220DD
:1043000052535400280002202C000220054810B50A
:1043100000688047002818BF10BDFFF781FDFFF738
:104320008BFF00002C000220FEE72DE9F05F1D4608
:10433000164600EB060B0F4601EB05090A9C1FFA17
:1043400089F180461FFA8BF0FEF710FD2046FEF73C
:10435000CDFEA8EB060A1FFA8AF01FFA89F1FEF7D4
:1043600005FD2046FEF7C2FEA7EB05091FFA8BF0FC
:104370001FFA89F1FEF7FAFC2046FEF7B7FE1FFA96
:104380008AF01FFA89F1FEF7F1FC2046FEF7AEFE37
:1043900008EB050907EB060A1FFA89F01FFA8AF1F4
:1043A000FEF7E4FC2046FEF7A1FEA8EB05081FFA85
:1043B00088F01FFA8AF1FEF7D9FC2046FEF796FE38
:1043C000BD1B1FFA89F0A9B2FEF7D0FC2046FEF70C
:1043D0008DFE1FFA88F0A9B2FEF7C8FC2046BDE8A2
:1043E000F05FFEF783BE30380A2801D20120704703
:1043F0000020704710B504460420FEF7FFF801487E
:10440000046010BD24000220F0B4002400289CBFEA
:10441000F0BC70470E494FF47A724FF0E0260968FD
:1044200001FB02F5D6F814C00021B369B2699A42C3
:10443000FCD026BFACEB02073B449B1A1944134641
:10444000A942F3D3641C8442ECD3F0BC7047000053
:104450002400022030B44FF0E02400216369094AAF
:10446000126800FB02FCA269A0699042FCD026BF42
:104470001D1A2A44121A114402466145F4D330BC75
:1044800070470000240002202DE9F84F1C468946A1
:1044900000259046614282460A98032202EB4106BB
:1044A00010B3002CB8BFBDE8F88F2F46A5420ADC38
:1044B0003B462A4649465046CDF80080FFF735FF77
:1044C0007F1CA742F4DD002EBCBF06EB8500861DD5
:1044D00005DB281B641E06EB800000F10A066D1C3C
:1044E000A542E2DDBDE8F88F002CB8BFBDE8F88F2B
:1044F00023462A4649465046CDF80080FFF715FF6F
:10450000002EBCBF06EB8500861D05DB281B641E44
:1045100006EB800000F10A066D1CA542E8DDBDE84F
:10452000F88FFCF7D1FAFDF7B3FA0923022219211B
:104530004FF4D870FFF72CF8D820FFF75BFFFEF799
:1045400073FA00F017F8FFF74DFBFFF715F9FFF7C7
:10455000D5FAFFF7ABF8FFF7DDFBFCF741FCFCF702
:10456000F7FAFEF7D9FDFFF7B9F9FEF721FEFFF7DD
:10457000CDFEE6E730B583B01CA0FCF765FB102448
:104580001F2320A0CDE9000401250295DA021E2197
:104590000020FDF71FF91F23029516A0CDE90004A6
:1045A000DA023C210020FDF715F919A04FF61F0291
:1045B000CDE900041F2302955A210020FDF70AF9D6
:1045C00019A002951F23CDE9000478211A46002086
:1045D000FDF700F940F2DC50FFF716FF03B040F2A0
:1045E000DC50BDE83040FFF70FBF0000C8ABB6AFEE
:1045F000B5E7D7D3D7DBBACFB2E2CAD4B3CCD0F2C7
:1046000000000000C8ABB6AFB5E7D7D3000000008C
:10461000332E352220495053205354373739362012
:1046200033323058343830007869616F46656E67D0
:104630004051447465636820323032322D31322D5E
:10464000323000004FF04070E1EE100A7047000079
:10465000000000000000000000000000040404044A
:1046600004040004000000140A0A00000000000016
:104670000000000014143F140A3F0A0A000000045E
:104680001E1505060C14150F0400000012150D0A66
:10469000142C2A1200000000040A0A1E15150936FF
:1046A00000000002020100000000000000000020E5
:1046B000100808080808081020000002040808086C
:1046C00008080804020000000004150E0E1504007E
:1046D000000000000404041F0404040000000000A3
:1046E0000000000000000002020100000000001FA6
:1046F00000000000000000000000000000000002B8
:104700000000001008080804040202020100000072
:104710000E1111111111110E000000000406040405
:104720000404040E000000000E1111080402011F11
:10473000000000000E11100C1010110E00000000FF
:10474000080C0A0A091E0818000000001F01010FCA
:104750001010110E000000000E09010F1111110EB2
:10476000000000001F090804040404040000000005
:104770000E11110E1111110E000000000E11111179
:104780001E10120E000000000000040000000004D3
:1047900000000000000000040000000404000020ED
:1047A00010080402040810200000000000001F0090
:1047B000001F00000000000204081020100804027E
:1047C000000000000E1111080404000400000000A5
:1047D0000E111915151D011E0000000004040C0A1D
:1047E0000A1E1233000000000F12120E1212120FD6
:1047F000000000001E1101010101110E0000000067
:104800000F1212121212120F000000001F120A0ED5
:104810000A02121F000000001F120A0E0A020207FD
:10482000000000001C1201013911120C00000000F0
:104830003312121E12121233000000001F0404046F
:104840000404041F000000003E08080808080809C6
:104850000700000037120A060A0A1237000000009B
:10486000070202020202223F000000001B1B1B1B6A
:1048700015151515000000003B1216161A1A12170E
:10488000000000000E1111111111110E00000000A6
:104890000F12120E02020207000000000E11111189
:1048A0001117190E180000000F12120E0A121237FB
:1048B000000000001E1101060810110F000000008A
:1048C0001F1504040404040E000000003312121229
:1048D0001212120C000000003312120A0A0C040417
:1048E000000000001515150E0A0A0A0A0000000053
:1048F0001B0A0A04040A0A1B000000001B0A0A041F
:104900000404040E000000001F0908040402121F22
:104910000000001C04040404040404041C0000023D
:1049200002020404080808100000000E0808080825
:10493000080808080E0000040A000000000000003B
:10494000000000000000000000000000003F000424
:104950000000000000000000000000000000000C4B
:10496000121C123C000000000302020E1212120E72
:10497000000000000000001C1202021C00000000E9
:104980001810101C1212123C000000000000000C55
:10499000121E021C000000003804041E0404041E41
:1049A000000000000000003C120C021E221C00004F
:1049B0000302020E1212123700000000040000066B
:1049C0000404040E000000000800000C0808080899
:1049D000080700000302023A0A0E12370000000026
:1049E000070404040404041F000000000000000F7A
:1049F00015151515000000000000000F12121237E7
:104A0000000000000000000C1212120C0000000058
:104A10000000000F1212120E020700000000001C1E
:104A20001212121C103800000000001B06020207C0
:104A3000000000000000001E020C101E000000001C
:104A40000004040E04040418000000000000001B11
:104A50001212123C0000000000000037120A0C0481
:104A60000000000000000015150E0A0A00000000FA
:104A70000000001B0A040A1B0000000000000037B1
:104A8000120A0C04040300000000001E0804041EA7
:104A9000000000180808080408080808180008089A
:104AA000080808080808080808080006040404089C
:104AB00004040404060002251800000000000000A1
:104AC00000000000000000000000000000000000E6
:104AD000000000000008080808080808000018186E
:104AE000000000486C2412000000000000000000DC
:104AF00000000000002424247F1212127F121212E0
:104B000000000000081C2A2A0A0C1828282A2A1C3F
:104B1000080800000022251515152A58545454225F
:104B200000000000000C1212120A76252911916E65
:104B30000000000606040300000000000000000062
:104B40000000004020101008080808080810102075
:104B5000400000020408081010101010100808048B
:104B600002000000000008086B1C1C6B0808000015
:104B7000000000000000080808087F080808080076
:104B80000000000000000000000000000000060619
:104B900004030000000000000000FE000000000010
:104BA00000000000000000000000000000000606F9
:104BB000000000008040402020101008080404027B
:104BC000020000000018244242424242424224189D
:104BD0000000000000080E08080808080808083E41
:104BE00000000000003C4242422020100804427EA7
:104BF00000000000003C4242201820404042221C9D
:104C00000000000000203028242422227E2020786A
:104C100000000000007E0202021A26404042221CD0
:104C20000000000000382402021A264242422418E2
:104C300000000000007E2222101008080808080862
:104C400000000000003C4242422418244242423C00
:104C50000000000000182442424264584040241CD6
:104C600000000000000000001818000000001818E4
:104C70000000000000000000000800000000000824
:104C8000080400000040201008040204081020401E
:104C900000000000000000007F0000007F00000016
:104CA0000000000000020408102040201008040248
:104CB00000000000003C424246402010100018183E
:104CC00000000000001C225A555555552D42221C4B
:104CD00000000000000808181414243C224242E797
:104CE00000000000001F2222221E22424242221FF8
:104CF00000000000007C4242010101010142221C2F
:104D000000000000001F2242424242424242221F53
:104D100000000000003F4212121E12120242423FE7
:104D200000000000003F4212121E1212020202078F
:104D300000000000003C2222010101712122221CFE
:104D40000000000000E7424242427E42424242E707
:104D500000000000003E0808080808080808083E8F
:104D600000000000007C1010101010101010101027
:104D7000110F0000007722120A0E0A121222227767
:104D80000000000000070202020202020202427F4B
:104D9000000000000077363636362A2A2A2A2A6B87
:104DA0000000000000E346464A4A525252626247FF
:104DB00000000000001C2241414141414141221CB0
:104DC00000000000003F424242423E02020202074F
:104DD00000000000001C2241414141414D53321C62
:104DE00060000000003F4242423E1212222242C7AF
:104DF00000000000007C4242020418204042423E73
:104E000000000000007F4908080808080808081C7E
:104E10000000000000E74242424242424242423C1D
:104E20000000000000E7424222242414141808085D
:104E300000000000006B494949495555362222229D
:104E40000000000000E7422424181818242442E738
:104E50000000000000772222141408080808081C2B
:104E600000000000007E2120101008040442423F90
:104E7000000000780808080808080808080808085A
:104E80007800000002020404080808101020202006
:104E90004040001E101010101010101010101010B4
:104EA0001E00003844000000000000000000000068
:104EB00000000000000000000000000000000000F2
:104EC00000FF0006080000000000000000000000D5
:104ED0000000000000000000003C4278444242FC18
:104EE0000000000000030202021A26424242261A73
:104EF00000000000000000000038440202024438B4
:104F0000000000000060404040784442424264D8C3
:104F10000000000000000000003C427E0202423C13
:104F20000000000000F08808087E08080808083E15
:104F30000000000000000000007C22221C023C4215
:104F4000423C000000030202023A4642424242E76B
:104F500000000000000C0C00000E08080808083EC5
:104F600000000000003030000038202020202020E9
:104F7000221E0000000302020272120A1612227799
:104F800000000000000E0808080808080808083E8D
:104F90000000000000000000007F9292929292B701
:104FA0000000000000000000003B4642424242E791
:104FB0000000000000000000003C42424242423C2F
:104FC0000000000000000000001B26424242221E9A
:104FD000020700000000000000784442424244788A
:104FE00040E000000000000000774C040404041FAF
:104FF0000000000000000000007C42023C40423EF5
:105000000000000000000008083E080808080830FA
:10501000000000000000000000634242424262DCE7
:10502000000000000000000000E7422424140808EB
:10503000000000000000000000EB49495555222205
:105040000000000000000000007624181818246EEC
:10505000000000000000000000E7422424141808AB
:105060000807000000000000007E22100808447EAF
:10507000000000C020202020201020202020202000
:10508000C000101010101010101010101010101080
:105090001010000608080808081008080808080882
:1050A00006000C32C20000000000000000000000FA
:1050B0000000C9EE000027FC140414A4811042086B
:1050C0004040104017FC2040E0E0215022482C4690
:1050D00020400040DBDA1104112411241124112492
:1050E000FD24112411241124112411241D24E12450
:1050F000422402040404CAD00200010000007FFC24
:105100000100010001003FF82108210821082108C1
:105110002128211001000100C8AB0000000001801F
:1051200002400430180860061FF901000100010068
:105130003FF80100010001007FFEB6AF0000000053
:1051400000203E20007C002200227F22102210221C
:1051500012221222224223423D82009CB5E7000027
:10516000010001001FF0610C410441047FFC410477
:10517000410441047FFC01000102010201FCD7D37C
:10518000000000003FF80010006000800100008077
:105190007FFE0040004000200020002018400780D3
:1051A000BCBC10201020102013FEFC20102010206A
:1051B00015FC18843088D0481050102010505188A9
:1051C0002606CAF501000120011001107FFC0380B2
:1051D0000540054009201110210841048102010009
:1051E00001000100D3D002000200FFFE0400040011
:1051F0000FF0081018102FF0481088100FF008104A
:10520000081008500820CFDE00007BF84A0852083A
:1052100053F8620852084BF84A444A486A30522010
:105220004210428843064200B9AB008004800480EB
:105230000840084010202010420882060400044064
:10524000082010203FF010100000CBBE00003FF8F7
:10525000000800087FE8000800081F8810881088F0
:10526000108810881F88108800280010BBB60080A6
:105270000080FC8004FC050449082A4014401040CA
:1052800028A024A045108110020804040802D3AD10
:1052900000002080133C122402240224F224122451
:1052A000122412B4132812201020282047FE0000D8
:1052B000C4FA0900090011FC3204544899501148FD
:1052C00012441444114010800200510451129012F3
:1052D0000FF0B4BF00000020102013FE2020262471
:1052E0004A247A241224222423FC7C200022042233
:1052F0007822003CC9AB0000000004000FF0102031
:1053000020207FFC20842084208420843FF82000FB
:10531000200220021FFECCEE00000000204023FEF1
:10532000204079FC220423FC220423FC220423FCD9
:105330003A0465FA01980204B3E400000100010098
:105340007FFE02200410040808043FFC04420440CD
:105350000440044208421042607EBED800000000B3
:10536000207E3E804880488048FE48827F820882B6
:105370000C8214FA12842280218040FED0CE0000DC
:1053800000007F842208223022C0220222047FC82B
:10539000223022C222022204220822304040BBAD29
:1053A000000000007FFE00000FF01110111011101E
:1053B00051125FF25112511251124FF240027FFC12
:1053C000D4B2000000007FFE47E24812481247E2D4
:1053D0004FF2501250125112511242924472580A16
:1053E0003FFCCDBC000000003FFE440247F24C22CF
:1053F0005362408243625E1A41824062430240C26D
:1054000040223FFCC6AC000000402040204020402D
:105410003FFE2000200020003FE020102010201040
:10542000201040104010CFD4000000003FFC2004AA
:1054300020043FFC200420041FF82444144814488E
:1054400014480C5004407FFECABE000000003FFC20
:105450000000000000007FFE00800890088810888F
:1054600010842084208240820780B2CB000000207C
:1054700008207FFE002000783F881108089009204E
:105480007FFE018003400D30310C4002B5A50000C5
:105490000010081004203FF8210421043FFC2104DF
:1054A00021043FF801007FFE010001000100D6D079
:1054B00000000100010001003FFC2104210421043F
:1054C0002104210421043FFC01000100010001002E
:1054D000D3A20000000008207FFE08200920010060
:1054E0003FF82108210821081FF4014002200C1078
:1054F000700ECEC400000100010000803F7C081047
:105500000810041004200220024001800180026083
:105510001C18E006D7DB00000000102011FE22025C
:10552000220249FC5800300013FE2528792401246A
:105530000D24722202A2BACF0000000001800240B6
:105540000430180860061FF800001FF8200420042B
:105550002004200420041FF8C1C100000100010044
:105560007FFE00003FF820083FF83FF8400647C2A2
:105570004824082008221022603EB6C8000000001F
:1055800000803FFE44105FFC4410441043F0400094
:105590005FF84408423041C04360BC1EB2E20000E4
:1055A000000067C2145205520552C55225520552D9
:1055B000055215521752228222424442483ECAD412
:1055C000000000002014101417FE001200106010DC
:1055D00013F0109010901090149214EA1F0A000615
:1055E000B3CC0000000019FE7202120212027DFC10
:1055F00018001BFE3420502053FE102010201020D5
:1056000013FED0F20000000000803FFE400047FC87
:105610004208413040C05FFE404240424044404862
:1056200040404440B5F70000000023FE122202FA79
:105630000222E22212FE1272128A128A128A16BA0A
:105640001A421202040EB9E200000100010411081E
:105650000908091009207FFE04400440044004406A
:10566000084208421042607CB0E60000000048FE9C
:105670004900490049007EFE418241447944452861
:1056800045284510452846440382C8A8000010005C
:10569000100013FC7D041104190418843488504848
:1056A000505010201050108813041402CBF9000041
:1056B00000003F7C204020403E40227E2244224485
:1056C00022443E8420842084408441044204C6C194
:1056D00000003FF8200820083FF8241022202FF86F
:1056E000222022203FFC2220422044208420082027
:1056F000C4BB04407FFC04401FF010101FF01010CA
:105700001FF00400FFFE11103FF8D11611501120B8
:105710000100D0FD2080108010FE0100FE0021FC61
:1057200020243C2424A024A024BC24A024A0456040
:10573000553E8A00D7AA202020202020FDFC4020B2
:10574000504093FEFC40108011FC1C04F088505027
:10575000102010101010BFAA00007FFC08200820A5
:10576000082008200820FFFE082008200820082024
:105770001020102020204020D4B4000027FE142048
:10578000144085FC450445FC150415FC2524E42043
:1057900024A829242A2230A00040D2BA0080204028
:1057A00017FE11208120423C424416641294234883
:1057B000E24822302220225022880306BEA70FE0B2
:1057C000082008200FE0082008200FE000007EFCE1
:1057D000428442847EFC428442847EFC4284CDF832
:1057E00000007FFC40044004421452944A54442474
:1057F00044244A544A5452946104400440144008DA
:10580000D5BE1020082008207E20003E0420442021
:10581000442025FC290429040F04F104410401FC5F
:105820000104B0B410401020102013FEFA021444FA
:1058300010401BFE3088D088110810D01020105066
:1058400050882304BCFC201020103B7C211441FE16
:105850007A14A27C2710F97C251025FE22102A102C
:10586000350028FE0000D0A310401020102011FEAB
:10587000FC00108831043A0254885088905010502F
:105880001020105010881306D7BC01404120212061
:1058900023FE022016201BFC1220222023FCE220E3
:1058A0002220222023FE22000200B4A52020202056
:1058B000782049FC91247D24552455247DFC5524D1
:1058C00054207C28542457FE45028C00C3FE11103E
:1058D000111017FC1110FC0013F8120817F81A0821
:1058E00033F8D04017FC10A0111052082406B6C19E
:1058F0000020202011FC1020002003FEF002109454
:1059000010501110109013FE142818441082030236
:10591000BACD04000E007800087C0844FF44084417
:1059200018441C442A442A444844887C08440800FB
:105930000800D1D5100008FE7F102220147C7F447F
:1059400044544854525444544854515442284424D2
:1059500088423082D6B5084008400FFC1040104005
:1059600033F8320853F8920813F8120813F81208A3
:1059700012081FFE1000C8DD020001007FFE400279
:10598000882411102288044008203018DFF61010F7
:10599000101010101FF01010D6A701000100010018
:1059A0007FFC0100010001003FF0101008200440BE
:1059B0000280010006C01830E00EB3D6102010207F
:1059C000102011FCFC20102013FE1008180833FED4
:1059D000D00810881048100850282010B5E30200A5
:1059E0000200020003FC020002003FF02010201021
:1059F00020103FF000002488224442448004CCACB4
:105A0000010001007FFC0100028004400A203118DF
:105A1000C0060100088848844812481287F0000038
:105A2000CAFD082049202A20083EFF442A44494450
:105A300088A41028FE282210421064281828344414
:105A4000C282D7D6020001007FFE400280041FE020
:105A5000004000800100FFFE010001000100010084
:105A600005000200CDCB03F82208120813F8020843
:105A70000208F3F8124412281210128813041204B8
:105A8000280047FE0000B3F60100010021082108AC
:105A9000210821083FF801080100010041044104E8
:105AA000410441047FFC0004C9EE00000000000036
:105AB0001000000800080C7FFC04401001C8A00280
:105AC000186042301832231812C300140300040374
:105AD0000C047FF0080F80080B4078136018332007
:105AE00018631818831C190308180300000300002A
:105AF0000000DBDA00000000000004100C04180CA9
:105B000004108C04108C04108C04108C04D08C3F76
:105B1000108C04108C04108C04108C04108C041055
:105B20008C04108C05F08C0E208C78208C20408CFE
:105B300000808C01000C02000C000000CAD00000A4
:105B40000000000000300000180000180800001CD1
:105B50001FFFE000180000182007FFF004182004C1
:105B600018200418200418200418200418200418F1
:105B7000200418200418200418E00418400018001D
:105B8000001800000000D6D0000000000000000057
:105B900000000000001800001800001800001800A5
:105BA0003FFFFE3018063018063018063018063051
:105BB00018063FFFFE3018060018000018000018F5
:105BC00000001800001800000000000000000000A5
:105BD000CEC4000000000000000000003800001CDF
:105BE00000000600FFFFFF060030060030030060E3
:105BF0000300600180C000C18000E30000360000A7
:105C00001C0000770003C1E01E003C60000700009C
:105C100000000000000000000000B2E200000000F0
:105C2000000000000000000040000321FF33398322
:105C300033118333019B33C19B33719B33199B33E6
:105C4000019B33019B33119B3319B3333030333015
:105C50006C0330C6036383032E01BE000000000006
:105C600000000000CAD40000000000000000000096
:105C700000004000D83000CE1800C21C00C001FF58
:105C8000FF0000C0F800C01800C019FFC01818407D
:105C90001818601918601B18611E18311C1FB139C3
:105CA000F01910000F000000000000000000D7D61F
:105CB0000000000000060000000300000000C0001B
:105CC0000001C0C0000107C00001FF00021FFE006C
:105CD00007F01C0007C070000F00E0000E03F0008A
:105CE0001C0FF0003C0F70003C00E0001800C000EA
:105CF0000000C0000000C0000000600000002000A4
:105D0000000037000001FF00007FF80007F83000B6
:105D10001F8030000080300000C030000060600054
:105D20000018E000000FC0000006000000000000A6
:105D3000CCE50000000000000000000000C00000F2
:105D400000E0002001B800703FF80061FFC000C310
:105D5000030001C60600038C060003080C000608B9
:105D60000C000E18183F1E101BF31F903F070080F9
:105D70003C1C0190707C019060FE01A0C3F801A062
:105D80000FD803A00818036000180340001803C0D0
:105D9000001803800018030000180000001800001D
:105DA0000010000000300000003000000000000083
:105DB0000000B2E20000000000000000000000004F
:105DC00000000000020C1008071FF80403BFF002D7
:105DD00001BC300303EC3003015C600300D86003B6
:105DE00000D860038098620361B8430771B143062D
:105DF000313243063376C3063A64C7063EECC0062A
:105E00003E78C0063C3040067C70000678E06006B4
:105E10007BFFF006F7C00006E40000064000000625
:105E2000000000060000007C00008FF000007C00F5
:105E300000000000CAD400000000000000000000C4
:105E4000000000003F0000007F8000000180000093
:105E500000C0000000C0000000CE038000CFFFC0E3
:105E600000DD41800FFE0007FFFC000C00F0001871
:105E70000FC03E19FF40F311BC6083307FE003B1D7
:105E8000FE200333802003700030036000100360A5
:105E9000001807C0000C07C00004078000020100C2
:105EA00000030000000100000000000000000000EE
:105EB0000000000000000000FFFFFFFFFFFFFFFFEA
:105EC000FFFFFFFFFFFFFFFFFFFFFFFFFFFFFFFFE2
:105ED000FFFFFFFFFFFFBEF7FFFFDEFF38C6928C1C
:105EE0008E6B6E6B107C96AD3CE7FFFFFFFFFFFFF4
:105EF000FFFFFFFFFFFFFFFFFFFFFFFFFFFFFFFFB2
:105F0000FFFFFFFFFFFFFFFFFFFFFFFFFFFFFFFFA1
:105F1000FFFFFFFFFFFFFFFFFFFFFFFFFFFFFFFF91
:105F2000FFFFFFFFFFFF5DEF159D4F636C420A32DD
:105F30008829461925194521E8318E6B38C6FFFF9F
:105F4000FFFFFFFFFFFFFFFFFFFFFFFFFFFFFFFF61
:105F5000FFFFFFFFFFFFFFFFFFFFFFFFFFFFFFFF51
:105F6000FFFFFFFFFFFFFFFFFFFFFFFFFFFFFFFF41
:105F7000FFFFFFFF36A51053104B51530F4B6C3AE8
:105F8000E93167212519E410A30862008308CB5288
:105F90009AD6FFFFFFFFFFFFFFFFFFFFFFFFFFFF9F
:105FA000FFFFFFFFFFFFFFFFFFFFFFFFFFFFFFFF01
:105FB000FFFFFFFFFFFFFFFFFFFFFFFFFFFFFFFFF1
:105FC0003CE77063B363B87CF56311434D32EA2953
:105FD000882126190519051904110411E4108300FC
:105FE000A308728CFFFFFFFFFFFFFFFFFFFFFFFF14
:105FF000FFFFFFFFFFFFFFFFFFFFFFFFFFFFFFFFB1
:10600000FFFFFFFFFFFFFFFFFFFFFFFFFFFFDBDEE5
:106010004B3AF042356C544BB1322E2AEB21A92178
:10602000671905190411041104110411041105194B
:10603000E4104200AF73FFFFFFFFFFFFFFFFFFFF12
:10604000FFFFFFFFFFFFFFFFFFFFFFFFFFFFFFFF60
:10605000FFFFFFFFFFFFFFFFFFFFFFFF5DEF0932C5
:106060004C32104B8F324F2A2E2ACC198919892194
:106070004719051904110411C410C41004110411A6
:106080000411E41042003184FFFFFFFFFFFFFFFF18
:10609000FFFFFFFFFFFFFFFFFFFFFFFFFFFFFFFF10
:1060A000FFFFFFFFFFFFFFFFFFFFFFFFEC5247195E
:1060B0004C320B2AEC21EC210C22915BEE4A0611AA
:1060C00026190419E410E410A7296621A30805196C
:1060D00004110411E4108200F7BDFFFFFFFFFFFF72
:1060E000FFFFFFFFFFFFFFFFFFFFFFFFFFFFFFFFC0
:1060F000FFFFFFFFFFFFFFFFFFFF35A5830888219C
:1061000088218921AA218A216B42718CFFFF728C20
:1061100083080411C4082942FBDE5DEFEC5A8308B2
:106120000411041104118308E831DFFFFFFFFFFFB2
:10613000FFFFFFFFFFFFFFFFFFFFFFFFFFFFFFFF6F
:10614000FFFFFFFFFFFFFFFFBEF7C731C410251998
:10615000261947194719A8298A52284A55ADFFFF21
:10616000E831A30805194D6B4D6BFFFF7DEF45210D
:10617000C410041104110411620076ADFFFFFFFF8B
:10618000FFFFFFFFFFFFFFFFFFFFFFFFFFFFFFFF1F
:10619000FFFFFFFFFFFFFFFF96B562000411041928
:1061A00005110519C4088B4AB6B55DEFF7BDFFFFB1
:1061B0008E6B62002942AA5A0842FFFFFFFFCC52B1
:1061C0008308041104110411A308AD52FFFFFFFF5F
:1061D000FFFFFFFFFFFFFFFFFFFFFFFFFFFF1CE7CA
:1061E000FFFFFFFFFFFFFFFF4E636200041104117A
:1061F0000411E41062008E63FFFFFFFFFFFFFFFF4B
:10620000CF730100F39C2C6396B5FFFFFFFF2D5B5E
:106210008300041104110411E41067213DEFFFFF16
:10622000FFFFFFFFFFFFFFFFF8BDB7B59EEFCB52AB
:10623000B394FFFFFFFFDFFFE831A308041104114F
:1062400004110411A3084942FFF7FFF7FFFFFFFF06
:106250006A4A01007284FFFFFFFFFFF7DFEF093A90
:10626000A3080411041104110411051118BEFFFF45
:10627000FFFFFFFFFFFFFFFFF07B6200E831C73148
:10628000410035A5FFFF5DEF4621C4100411041144
:1062900004110411E410A308769DFFF7FFFFB7ADCA
:1062A000A308A308C7319EE7FFF7FFF776A5A30869
:1062B000E4100411041104110511051135A5FFFFA7
:1062C000FFFFFFFFFFFFFFFFDBDEA7298300C410F6
:1062D000C410C4101CE79EEF0511E4100411041152
:1062E000041104110419C408E510D16BD16BC50861
:1062F0006400A50843002B32779DB3842519C41090
:10630000041104110411041125192609359DFFFFFC
:10631000FFFFFFFFFFFFFFFFFFFFAF7362000419E6
:10632000051982000D5B8E9B62100511041104118A
:106330000419E41085000511C439815A407B229C60
:1063400043AC03A4839B82728249C218A400C50097
:10635000E41004190411051947196711EC5ABEFF1E
:10636000FFFFFFFFFFFFFFFFDFFFDBDEC410E410D6
:1063700004110511A41801C08388E400051904194B
:10638000C5084421438323D542FEE4FE27FF07FFCF
:10639000A4FE64FE03FEA3FDE2FC42EC83B3246290
:1063A000E510C40804192619A81987210090D3BC48
:1063B000FFFFFFFFFFFFFFFFDFFFFFFF107C42003B
:1063C00005190511832801D044F8A348E400C50845
:1063D000445A02EDE2FD02FE66FE74FFB8FF73FF51
:1063E000E7F6A6F645F6A4F5C3FC62FCC2FCC2FCC7
:1063F000E3CBC449061188198701A49001F8EC9AEF
:10640000FFFFFFFFFFFFFFFFFFFFFFFFBEF7E831CA
:1064100083000509824001C023F885F0A348A40049
:10642000445A02FD23CCC2DC04FE28FE48F646F6A0
:1064300024F6E4F564FDE3FC62FCC2FC02E402DC49
:10644000E2FCA47A48016701C47824F802F884B019
:106450007DE7FFFFFFFFFFFFFFFFFFFFFFFFDBDE2B
:106460002519A300C43802E022D844F8A6F8A4787D
:106470006300432183728339829B21F561FD22FDF4
:10648000E2FCA2FC42FC42FC42FC22AB8341C392F0
:10649000045226012519A49844F823F802F8A4D040
:1064A0009EEFFFFFFFFFFFFFFFFFFFFFFFFFFFFF6D
:1064B0009AD68729A50043B822F823E065F8E8F8C2
:1064C00007C983484200A30084006329A27A62B30B
:1064D000A2CB62D302BB828A8339A400E500E50027
:1064E000E508C46064D844F824F823F802F88388E7
:1064F000DBC6FFFFFFFFFFFFFFFFFFFFFFFFFFFF09
:10650000FFFF3DE7505B083123E843F844F065F8AE
:1065100009F9ABF989D10689A34842180200420063
:1065200061008200620062008300A320C450A5883D
:1065300085D865F844F844F823F823F803D082108E
:10654000C7295DEFFFFFFFFFFFFFFFFFFFFFFFFF1B
:10655000FFFFFFFFFFFF6C32A53802D823F865F874
:1065600066F8A7F84AF90CFA4DFA4CEA0BD2A9B929
:1065700068B147A927B107B907D1E7E8C7F8A7F875
:1065800065F865F844F823F803F802D0A328050954
:10659000C408EC5AFFFFFFFFFFFFFFFFFFFFFFFFF5
:1065A000FFFFFFFFFBDE0519C400A741E6C003F8AB
:1065B00086F8A7F887F886F8C7F829F98AF9ABF9B9
:1065C000ABF98BF96AF929F908F9C7F8A6F886F842
:1065D00065F864F823F802F006B12529E400E41018
:1065E00025192519149DFFFFFFFFFFFFFFFFFFFF88
:1065F000FFFFFFFF96AD620082083595BACE8BA2F1
:1066000044D025F887F8A7F8C7F8A7F887F886F8E0
:1066100086F886F887F8A7F8A7F8A6F885F865F849
:1066200064F824F064B80D93BBB6CF6383080411FB
:10663000E4106621493A5DEFFFFFFFFFFFFFFFFF18
:10664000FFFFFFFFD3944200E410BBCEFFFFBEE785
:1066500076B5CCAA07C145E045F846F866F886F855
:1066600086F886F886F865F845F865F865E844D058
:1066700043A8018882903CD7FFEF55958308041109
:10668000041105194619B394FFFFFFFFFFFFFFFF39
:10669000FFFFFFFFB394410086215DDFFFFFFFFF97
:1066A000FFFFDFE77AC6D3B44EB32AC268D1E6E073
:1066B000A6E8A5E8A5E8E6D888C906A922A802A800
:1066C00000A000C800D8F7E5FFE7F8ADC410E4105B
:1066D0000411E41005118B4AFFFFFFFFFFFFFFFFCE
:1066E000FFFFFFFF55A54100A7295DDFFFF7FFFF73
:1066F000FFFFFFFFFFFFFFFFFFEF7DDFDBCE59CE88
:10670000F8CDD7CDF7C579CEFBBEABA203F045F8E7
:1067100042D043E800F072D4FFDF39AEE410E41059
:106720000411E41005118729FFFFFFFFFFFFFFFFA2
:10673000FFFFFFFF59CE830846211CD7FFF7FFFF5D
:10674000FFFFFFFFFFFFFFFFFFFFFFFFFFFFFFFF59
:10675000FFFFFFFFFFFFFFFFFFEF8BBA04F845F8D5
:1067600062E044F000F88EDBFFDFF8A5C410E4100F
:10677000E4100411E4102519FFFFFFFFFFFFFFFFE6
:10678000FFFFFFFFBEF78729830839B6FFF7DFF762
:10679000FFFFFFFFFFFFFFFFFFFFFFFFFFFFFFFF09
:1067A000FFFFFFFFFFFFFFFFBEE74ABA03F845F810
:1067B00064F844F800F86EE3FFD7F48C8308041102
:1067C000E410E410E4100519FFFFFFFFFFFFFFFFD7
:1067D000FFFFFFFFFFFFEF7300007284FFEFBEEFCC
:1067E000DFFFFFFFFFFFFFFFFFFFFFFFFFFFFFFFD9
:1067F000FFFFFFFFFFFFFFFFDFE78BBA03F845F85E
:1068000045F823F800F8D3D4FFD74E5B2100293A8E
:1068100055A58308C4102519FFFFFFFFFFFFFFFFE9
:10682000FFFFFFFFFFFFFBDEA308E8319EDF9EE7CF
:10683000BFEFFFFFFFFFFFFFFFFFFFFFFFFFFFFFB8
:10684000FFFFFFFFFFFFFFFFFFF751BC02E003F870
:1068500003F043E0ECC27ECFFCBE46212100D3947E
:10686000FFFF518400008729FFFFFFFFFFFFFFFFAD
:10687000FFFFFFFFFFFFFFFF51840000F48CFFEFDD
:106880009EE7BFEFDFFFFFFFFFFFFFFFFFFFFFFF01
:10689000FFFFFFFFFFFFFFFFFFFF3DDF55BD52BCC6
:1068A00072BCB7B55DC7FFDFF06B0000093ABFF7F8
:1068B000FFFFFFFF149D55A5FFFFFFFFFFFFFFFF39
:1068C000FFFFFFFFFFFFFFFFFFFFAC4AA408BBBEB7
:1068D000DFE77EE7BEEFDFF7DFFFFFFFFFFFFFFF32
:1068E000FFFFFFFFFFFFFFFFDFFFDFF7FFEFDFDF50
:1068F000BFD79ED7DFDFD8A583082611DBD6FFFFE1
:10690000FFFFFFFFFFFFFFFFFFFFFFFFFFFFFFFF97
:10691000FFFFFFFFFFFFFFFF79EE8BDC2131A92195
:106920003DCFBFDF7EDF9EE7BEEFBFEFDFF7DFF7D4
:10693000DFF7DFF7DFF7BFEFBEEF9EE77EDF5ED763
:106940005ED7DFDF9AB626194208EDA3BFFFFFFF2F
:10695000FFFFFFFFFFFFFFFFFFFFFFFFFFFFFFFF47
:10696000FFFFFFFFFFFF74DDC0DB00FE42EE0242CF
:1069700089217BB6DFDF7ED77EDF7EDF9EE79EE765
:106980009EE79EE79EE77EDF7EDF5DD75DD79EDFD9
:10699000FFE7F8A50711E31802C560FDE6D3DBEEBB
:1069A000FFFFFFFFFFFFFFFFFFFFFFFFFFFFFFFFF7
:1069B000FFFFFFFF9EF784BAC1FC42FE82FEA2FEEB
:1069C0008183452174745EC7DFDF7ED75ED75DD7D4
:1069D0005ED75ED75DD75DD75ED79EDFFFE73DC749
:1069E000F1638408425226E629FF86FEE0F36AC37B
:1069F000FFFFFFFFFFFFFFFFFFFFFFFFFFFFFFFFA7
:106A0000FFFFFFFF18DEC1D2A2FD22FE42FE42FEC2
:106A100062FEE2D4416A494253743BA63EC7BFD7E7
:106A2000BFD7BFD7BFDFBFD73EC71AA6F263A7291C
:106A3000824122B462FE83FEAAFE0FFF67FD63BAA5
:106A40003CEFFFFFFFFFFFFFFFFFFFFFFFFFFFFF29
:106A5000FFFFFFFF9AE680D221FDC2FDE2F5C2F5FD
:106A600082F582FD62FD61DC219B846AE96A2C6308
:106A7000AF6311746E632C63895A0452817AC2CB5E
:106A8000E2FC62FD82FDC2FDC2FDE4FD24FD62CA9E
:106A90001CE7FFFFFFFFFFFFFFFFFFFFFFFFFFFF01
:106AA000FFFFFFFFFFFFB1CC81D2C0F3C1FC02FDAD
:106AB00002FDE2FCC2FCC2FC81FC80FBC0C9A481D7
:106AC00035AD59CE719C218100DAA1FB82FCA2FC7C
:106AD00082FCA2FC02FD22FDE2FC00FC60DA90CC0C
:106AE000FFFFFFFFFFFFFFFFFFFFFFFFFFFFFFFFB6
:106AF000FFFFFFFFFFFFFFFF59DE0DC406CBE4D20F
:106B000003DB03DBE3DAC3D2A4C209B3D2BC9EF732
:106B1000FFFFFFFFFFFFFBE60EB4A6BA83D2E3E25E
:106B200002EB22EB22E303DBE4D26AC3B6D5FFFF1C
:106B3000FFFFFFFFFFFFFFFFC46B0008B86B0008FB
:106B4000A86B0008986B000800000000000000001F
:106B5000010203040607080903000900303132333B
:106B60003435363738394142434445464030580081
:106B700030313233343536373839616263646566B3
:106B8000403078000400000800000000000000020F
:106B90000001000010000000526F746174696F6E94
:106BA0003A32373000000000526F746174696F6EC2
:106BB0003A31383000000000526F746174696F6EB2
:106BC0003A393000526F746174696F6E3A30000068
:106BD000F06B0008000002204400000034020008AE
:106BE000346C000844000220BC070000500200087A
:106BF00000F8E0071F00E0FF1FF800F81FF8E007AB
:106C0000CF011F0000001F84000000000024F400DA
:106C100000000000000000000000FFFF8D360008AB
:106C20000000000000000000000000000000000064
:046C30000000000060
:04000005080001F9F5
:00000001FF
